AZANG24 ZANDER GP940 V1.25
HFDTE240504
HFFXA050
HFPLT Pilot             :Mathias Schunk                          
HFGTY Glider type       :LS 8-18                                 
HFGID Glider ID         :D-2366(PM)
HFDTM100 GPS Datum      :WGS84
HFRFW Firmware Version  :1.25
HFRHW Hardware version  :A
HFFTY FR Type           :ZANDER GP940
HFGPS                   :Motorola,VP ONCORE,8,30000
HFPRS Press Alt Sensor  :Motorola,MPX100A,10000
HFCCL Competition Class :18 Meter                                
HFCID Competition ID    :PM        
I023638IAS3941ENL
J020810WDI1113WVE
LZAN 072258 PowerOn
C180504073214180504000103
C4749716N01127900E KOENIGSDORF 
C4749700N01128200E KDF END 28  
C4617533N01432066E GRINTAVEC   
C4635416N00840650E UNTERALP    
C4754750N01127516E PUPPLINGERAU
C4749700N01128200E KDF END 28  
C4749716N01127900E KOENIGSDORF 
B0723024749666N01207766EV0048100000007000
B0723064749666N01207766EV0048000000007000
B0723104749666N01207766EV0048000000009000
B0723144749666N01207766EV0047900000007000
B0723184749666N01207766EV0047800000007000
B0723224749666N01207766EV0047800000007000
B0723264749666N01207766EV0047700000007000
B0723304749666N01207766EV0047700000007000
B0723344749666N01207766EV0047800000009000
B0723384749666N01207766EV0047800000007000
B0723424749675N01128304EA0047800616009000
B0723464749675N01128304EA0047800616009000
C240504072345240504000103
C4749716N01127900E KOENIGSDORF 
C4749700N01128200E KDF END 28  
C4617533N01432066E GRINTAVEC   
C4635416N00840650E UNTERALP    
C4754750N01127516E PUPPLINGERAU
C4749700N01128200E KDF END 28  
C4749716N01127900E KOENIGSDORF 
B0723504749675N01128304EA0047800616009000
B0723514749675N01128304EA0047800616009000
B0723524749675N01128304EA0047800616007000
B0723534749675N01128304EA0047800616007000
B0723544749675N01128304EA0047800616007000
B0723554749675N01128304EA0047700616007000
B0723564749675N01128304EA0047800616007000
B0723574749675N01128304EA0047800616009000
B0723584749675N01128304EA0047800616000000
B0723594749675N01128304EA0047800616000000
B0724024749675N01128304EA0047800616007000
B0724064749675N01128304EA0047800616007000
B0724104749675N01128304EA0047800616000000
B0724144749675N01128304EA0047800616009000
B0724184749675N01128304EA0047800616000000
B0724224749675N01128304EA0047800616007000
B0724264749675N01128304EA0047800616009000
B0724304749675N01128304EA0047800616007000
B0724344749675N01128304EA0047800616007000
B0724384749675N01128304EA0047800616009000
B0724424749675N01128304EA0047700616009000
B0724464749675N01128304EA0047700616009000
B0724504749675N01128304EA0047800616000000
B0724544749675N01128304EA0047700616007000
B0724584749675N01128304EA0047700616007000
B0725024749675N01128304EA0047700616007000
B0725064749675N01128304EA0047700616009000
B0725104749675N01128304EA0047700616009000
B0725144749675N01128304EA0047700616009000
B0725184749675N01128304EA0047800616009000
B0725224749675N01128304EA0047700616007000
B0725264749675N01128304EA0047700616007000
B0725304749675N01128304EA0047700616009000
B0725344749675N01128304EA0047700616007000
B0725384749675N01128304EA0047700616009000
B0725424749675N01128304EA0047700616007000
B0725464749675N01128304EA0047700616009000
B0725504749675N01128304EA0047700616007000
B0725544749675N01128304EA0047600616009000
B0725584749675N01128304EA0047700616007000
B0726024749675N01128304EA0047700608009000
B0726064749675N01128304EA0047700616009000
B0726104749675N01128304EA0047700608009000
B0726144749675N01128304EA0047700608009000
B0726184749675N01128304EA0047700608009000
B0726224749675N01128304EA0047700608009000
B0726264749675N01128304EA0047700608007000
B0726304749675N01128304EA0047700608007000
B0726344749675N01128304EA0047700608009000
B0726384749675N01128304EA0047600608009000
B0726424749675N01128304EA0047700608007000
B0726464749675N01128304EA0047700608007000
B0726504749675N01128304EA0047600608009000
B0726544749675N01128304EA0047600608009000
B0726584749675N01128304EA0047600608007000
B0727024749675N01128304EA0047600608009000
B0727064749675N01128304EA0047700608009000
B0727104749675N01128304EA0047700608012000
B0727144749675N01128304EA0047700608009000
B0727184749675N01128304EA0047600608007000
B0727224749675N01128304EA0047600608007000
B0727264749675N01128304EA0047600608007000
B0727304749675N01128304EA0047600608007000
B0727344749675N01128304EA0047600608007000
B0727384749675N01128304EA0047600608007000
B0727424749675N01128304EA0047600608009000
B0727464749675N01128304EA0047700608007000
B0727504749675N01128304EA0047600608009000
B0727544749675N01128304EA0047600608009000
B0727584749675N01128304EA0047600608009000
B0728024749670N01128304EA0047600608012000
B0728064749670N01128304EA0047600608009000
B0728104749670N01128304EA0047600608007000
B0728144749670N01128304EA0047600608009000
B0728184749670N01128304EA0047500608007000
B0728224749670N01128304EA0047500608009000
B0728264749670N01128304EA0047500608007000
B0728304749670N01128304EA0047500608009000
B0728344749670N01128304EA0047500608009000
B0728384749675N01128304EA0047500608009000
B0728424749675N01128304EA0047500608012000
B0728464749675N01128304EA0047500608009000
B0728504749675N01128304EA0047600608009000
B0728544749670N01128304EA0047500608009000
B0728584749670N01128304EA0047500608012000
B0729024749670N01128304EA0047500608009000
B0729064749675N01128304EA0047500608012000
B0729104749670N01128304EA0047500608009000
B0729144749670N01128304EA0047500608009000
B0729184749670N01128304EA0047500608012000
B0729224749670N01128304EA0047500608007000
B0729264749670N01128304EA0047600608009000
B0729304749670N01128304EA0047500608009000
B0729344749670N01128304EA0047600608009000
B0729384749670N01128304EA0047500608009000
B0729424749670N01128304EA0047500608007000
B0729464749670N01128304EA0047500608009000
B0729504749670N01128304EA0047500608007000
B0729544749670N01128304EA0047600608007000
B0729584749670N01128304EA0047500608012000
B0730024749670N01128304EA0047400608009000
B0730064749670N01128304EA0047500608012000
B0730104749670N01128304EA0047500608007000
B0730144749670N01128304EA0047500608009000
B0730184749670N01128304EA0047500608009000
B0730224749670N01128304EA0047500608009000
B0730264749670N01128304EA0047500608009000
B0730304749670N01128304EA0047400608009000
B0730344749670N01128304EA0047500608009000
B0730384749670N01128304EA0047500608009000
B0730424749670N01128304EA0047400608009000
B0730464749670N01128304EA0047500608007000
B0730504749670N01128304EA0047400608012000
B0730544749670N01128304EA0047400608009000
B0730584749670N01128304EA0047400608009000
B0731024749670N01128304EA0047400608009000
B0731064749670N01128304EA0047400608014000
B0731104749670N01128304EA0047400608009000
B0731144749670N01128304EA0047300608012000
B0731184749670N01128304EA0047400608009000
B0731224749670N01128304EA0047400608009000
B0731264749670N01128304EA0047400608012000
B0731304749670N01128304EA0047400608009000
B0731344749670N01128304EA0047400608007000
B0731384749670N01128304EA0047500608009000
B0731424749670N01128304EA0047400608009000
B0731464749670N01128304EA0047400608009000
B0731504749670N01128304EA0047400608012000
B0731544749670N01128304EA0047300608009000
B0731584749670N01128304EA0047500608009000
B0732024749670N01128304EA0047300608009000
B0732064749670N01128304EA0047300608009000
B0732104749670N01128304EA0047400608009000
B0732144749670N01128304EA0047500608012000
B0732184749670N01128304EA0047300608009000
B0732224749670N01128304EA0047300608012000
B0732264749670N01128304EA0047400608012000
B0732304749670N01128304EA0047400608014000
B0732344749670N01128304EA0047400608009000
B0732384749670N01128304EA0047300608009000
B0732424749670N01128304EA0047300608012000
B0732464749670N01128304EA0047400608009000
B0732504749670N01128304EA0047400608009000
B0732544749670N01128304EA0047400608009000
B0732584749670N01128304EA0047400608007000
B0733024749670N01128304EA0047300608009000
B0733064749670N01128304EA0047400608014000
B0733104749675N01128304EA0047400616012000
B0733144749670N01128304EA0047300616009000
B0733184749675N01128304EA0047400608012000
B0733224749670N01128304EA0047400000007000
B0733264749670N01128304EA0047400000009000
B0733304749675N01128304EA0047400000012000
B0733344749675N01128304EA0047400608012000
B0733384749675N01128304EA0047500608012000
B0733424749675N01128304EA0047400608012000
B0733464749675N01128304EA0047400608009000
B0733504749675N01128304EA0047400608012000
B0733544749675N01128304EA0047400608015000
B0733584749675N01128304EA0047400608009000
B0734024749675N01128304EA0047400608009000
B0734064749675N01128304EA0047500608007000
B0734104749675N01128304EA0047400608007000
B0734144749675N01128304EA0047400608007000
B0734184749675N01128304EA0047400608007000
B0734224749675N01128304EA0047400608009000
B0734264749670N01128304EA0047400608007000
B0734304749670N01128304EA0047400608007000
B0734344749675N01128304EA0047500608009000
B0734384749675N01128304EA0047500608009000
B0734424749675N01128304EA0047500608007000
B0734464749675N01128304EA0047600608012000
B0734504749675N01128304EA0047500608007000
B0734544749675N01128304EA0047600608007000
B0734584749675N01128304EA0047600608009000
B0735024749675N01128304EA0047600608000000
B0735064749675N01128304EA0047600608007000
B0735104749675N01128304EA0047600608009000
B0735144749675N01128304EA0047600608007000
B0735184749675N01128304EA0047600608007000
B0735224749675N01128304EA0047600608009000
B0735264749675N01128304EA0047600608007000
B0735304749675N01128304EA0047700608009000
B0735344749675N01128304EA0047600608007000
B0735384749675N01128304EA0047600608009000
B0735424749675N01128304EA0047600608007000
B0735464749675N01128304EA0047700608009000
B0735504749675N01128304EA0047600608012000
B0735544749675N01128304EA0047700608007000
B0735584749675N01128304EA0047600608007000
B0736024749675N01128304EA0047700608009000
B0736064749675N01128304EA0047700608009000
B0736104749675N01128304EA0047700608007000
B0736144749675N01128304EA0047700608009000
B0736184749670N01128304EA0047700616009000
B0736224749670N01128304EA0047700616007000
B0736264749670N01128304EA0047700608007000
B0736304749670N01128304EA0047700608009000
B0736344749670N01128304EA0047700608009000
B0736384749675N01128304EA0047700608007000
B0736424749670N01128304EA0047700608007000
B0736464749670N01128304EA0047700608007000
B0736504749670N01128304EA0047800608007000
B0736544749675N01128304EA0047800608007000
B0736584749675N01128304EA0047800608009000
B0737024749675N01128304EA0047800608007000
B0737064749675N01128304EA0047800608007000
B0737104749675N01128304EA0047800608009000
B0737144749675N01128304EA0047800608007000
B0737184749675N01128304EA0047800608007000
B0737224749675N01128304EA0047800608009000
B0737264749675N01128304EA0047800608007000
B0737304749675N01128304EA0047800608007000
B0737344749670N01128304EA0047800608009000
B0737384749675N01128304EA0047800608009000
B0737424749675N01128304EA0047800608009000
B0737464749670N01128304EA0047800608007000
B0737504749675N01128304EA0047800608007000
B0737544749670N01128304EA0047800608007000
B0737584749670N01128304EA0047900608009000
B0738024749670N01128304EA0047900608009000
B0738064749675N01128304EA0047900608009000
B0738104749675N01128304EA0047900608009000
B0738144749675N01128304EA0047900608007000
B0738184749675N01128304EA0047900608009000
B0738224749675N01128304EA0047900608007000
B0738264749675N01128304EA0047900608007000
B0738304749675N01128304EA0047900608009000
B0738344749675N01128304EA0047900608007000
B0738384749675N01128304EA0047900608007000
B0738424749675N01128304EA0047900608007000
B0738464749675N01128304EA0047900608015000
B0738504749675N01128304EA0048000608007000
B0738544749675N01128304EA0048000608014000
B0738584749675N01128304EA0048000608012000
B0739024749675N01128304EA0048000608012000
C240504073904240504000103
C4749716N01127900E KOENIGSDORF 
C4749700N01128200E KDF END 28  
C4617533N01432066E GRINTAVEC   
C4635416N00840650E UNTERALP    
C4754750N01127516E PUPPLINGERAU
C4749700N01128200E KDF END 28  
C4749716N01127900E KOENIGSDORF 
B0739064749675N01128304EA0048000608007000
B0739104749675N01128304EA0048000608007000
B0739144749675N01128304EA0048000608012000
B0739184749675N01128304EA0048000608012000
B0739224749675N01128304EA0048000608007000
B0739264749675N01128304EA0048000608009000
B0739304749670N01128304EA0048000608009000
B0739344749670N01128304EA0048000608012000
B0739384749670N01128304EA0048000608009000
B0739424749670N01128304EA0048000608014000
B0739434749670N01128304EA0048100608012000
B0739444749670N01128304EA0048000608007000
B0739454749670N01128304EA0048000608015000
B0739464749670N01128304EA0048100608009000
B0739474749670N01128304EA0048100608009000
B0739484749670N01128304EA0048000608009000
B0739494749670N01128304EA0048100608009000
B0739504749675N01128304EA0048000608009000
B0739514749675N01128304EA0048000608007000
B0739524749670N01128304EA0048100608009000
B0739544749670N01128304EA0048000608007000
B0739584749670N01128304EA0048100608012000
B0740024749675N01128304EA0048100608009000
B0740064749675N01128304EA0048100608009000
B0740104749675N01128304EA0048100608007000
B0740144749675N01128304EA0048000608007000
B0740184749675N01128304EA0048100608007000
B0740224749675N01128304EA0048100608007000
B0740264749670N01128304EA0048000608007000
B0740304749675N01128304EA0048000608007000
B0740344749675N01128304EA0048100608009000
B0740384749675N01128304EA0048200608007000
B0740424749675N01128304EA0048100608012000
B0740464749670N01128304EA0048100608017000
B0740504749670N01128304EA0048100608017000
B0740544749670N01128304EA0048100608007000
B0740584749670N01128304EA0048100608009000
B0741024749670N01128304EA0048200608023000
B0741064749670N01128304EA0048100608018000
B0741104749670N01128304EA0048100608009000
B0741144749670N01128304EA0048100608012010
B0741184749670N01128304EA0048100608017000
B0741224749670N01128304EA0048100600018000
B0741264749670N01128304EA0048200608017000
B0741304749670N01128304EA0048100608018000
B0741344749670N01128304EA0048200600017000
B0741384749670N01128304EA0048100600014000
B0741424749675N01128304EA0048200600014000
B0741464749675N01128304EA0048200600009000
B0741504749675N01128304EA0048200600014000
B0741544749670N01128304EA0048300600012000
B0741584749675N01128300EA0048300600017100
B0742024749675N01128275EA0048100600043175
K074202342015
B0742064749683N01128220EA0048000600091200
B0742104749691N01128145EA0048100600116175
B0742144749704N01128050EA0048000600114100
B0742184749716N01127941EA0048200608123100
B0742224749733N01127820EA0049100616127100
K074222340023
B0742264749758N01127704EA0050400624134100
B0742304749800N01127595EA0051900640140100
B0742344749862N01127504EA0052600648139100
B0742384749937N01127441EA0053900664137100
B0742424750020N01127408EA0055200672140100
K074242336017
B0742464750108N01127395EA0056900696138100
B0742504750200N01127383EA0058800712140100
B0742544750287N01127383EA0060700736139100
B0742584750379N01127383EA0063100752147100
B0743024750466N01127391EA0064600768140010
K074302278014
B0743064750554N01127391EA0066800800137000
B0743104750641N01127400EA0068400808139000
B0743144750729N01127412EA0069600824140000
B0743184750816N01127420EA0070600832140000
B0743224750908N01127429EA0071800840141000
K074322250014
B0743264750995N01127441EA0072900856139000
B0743304751083N01127454EA0073900864140000
B0743344751175N01127466EA0076000888138000
B0743384751262N01127475EA0078300904139000
B0743424751345N01127475EA0079500920137000
K074342230007
B0743464751433N01127479EA0082000936124000
B0743504751516N01127475EA0084800960134000
B0743544751600N01127475EA0085500976138000
B0743584751683N01127479EA0087000992132000
B0744024751766N01127479EA0088201008135000
K074402248008
B0744064751854N01127475EA0089501016137000
B0744104751937N01127458EA0090701032135000
B0744144752020N01127445EA0092201048136000
B0744184752104N01127420EA0093401056134000
B0744224752191N01127387EA0094501072139000
K074422206002
B0744264752275N01127354EA0096101088137000
B0744304752358N01127320EA0097401096138000
B0744344752441N01127279EA0099001112136000
B0744384752520N01127241EA0100601128136000
B0744424752600N01127200EA0102201144137000
K074442236003
B0744464752679N01127154EA0103701160135000
B0744504752758N01127112EA0104601168137000
B0744544752841N01127062EA0105601176137000
B0744584752916N01127004EA0106801192137000
B0745024752991N01126941EA0108301208136000
K074502224001
B0745064753062N01126870EA0109701216134000
B0745104753133N01126795EA0111801232136000
B0745144753204N01126716EA0112801240139000
B0745184753270N01126637EA0113701248139000
B0745224753337N01126554EA0114401264135000
K074522116002
B0745264753400N01126462EA0115901280134000
B0745304753454N01126366EA0117201296133000
B0745344753512N01126270EA0118701304138000
B0745384753558N01126166EA0120501328135000
B0745424753604N01126062EA0122001344136000
K074542062004
B0745464753645N01125954EA0123501352134000
B0745504753679N01125837EA0124501360137000
B0745544753708N01125720EA0125501376138000
B0745584753729N01125600EA0126901384137000
B0746024753741N01125479EA0128501400138000
K074602012009
B0746064753745N01125354EA0130101416137000
B0746104753745N01125233EA0131601432134000
B0746144753741N01125116EA0133101448133000
B0746184753729N01125000EA0133801456134000
B0746224753716N01124883EA0133701456130000
K074622332008
B0746264753700N01124762EA0134501464129000
B0746304753679N01124645EA0135301472136000
B0746344753650N01124533EA0136801480133000
B0746384753625N01124420EA0137601496134000
B0746424753591N01124308EA0139001504137000
K074642324012
B0746464753545N01124200EA0141001528132000
B0746504753500N01124087EA0142401544137000
B0746544753458N01123983EA0144901568134000
B0746584753412N01123879EA0146901584132000
B0747024753358N01123779EA0148401600135000
K074702328011
B0747064753295N01123691EA0150001616133000
B0747104753225N01123608EA0150401624139000
B0747144753154N01123537EA0152001632137000
B0747184753079N01123483EA0154001656133000
B0747224752995N01123441EA0155801672132000
K074722328011
B0747264752912N01123425EA0156701680132000
B0747304752829N01123420EA0158101696132000
B0747344752741N01123437EA0159201704134000
B0747384752658N01123483EA0160201712137000
B0747424752575N01123541EA0161601728138000
K074742328011
B0747464752500N01123620EA0162701736140000
B0747504752433N01123720EA0163801752140000
B0747544752383N01123837EA0164401760141000
B0747584752341N01123966EA0165901768139000
B0748024752312N01124100EA0167501784137000
K074802346012
B0748064752287N01124233EA0169201800134000
B0748104752279N01124366EA0170501816130000
B0748144752275N01124504EA0171701824130000
B0748184752275N01124637EA0173001840132000
B0748224752287N01124770EA0174201848131000
K074822326010
B0748264752300N01124908EA0175501864133000
B0748304752325N01125041EA0176301872136000
B0748344752354N01125179EA0177501880136000
B0748384752379N01125312EA0178701896135000
B0748424752408N01125445EA0180101912133000
K074842276010
B0748464752441N01125575EA0181001920135000
B0748504752479N01125708EA0181601928138000
B0748544752512N01125841EA0182801936137000
B0748584752537N01125979EA0184201952135000
B0749024752554N01126120EA0185601960133000
K074902292015
B0749064752558N01126258EA0186901976132000
B0749104752558N01126400EA0188101992133000
B0749144752541N01126537EA0189402000133000
B0749184752520N01126675EA0190502016134000
B0749224752487N01126804EA0191902024134000
K074922314022
B0749264752445N01126929EA0193202040133000
B0749304752400N01127045EA0194602056130000
B0749344752341N01127150EA0195802064129000
B0749384752283N01127245EA0197002080131000
B0749424752212N01127333EA0198102088132000
K074942278013
B0749464752141N01127404EA0199202096130000
B0749504752062N01127462EA0200302112130000
B0749544751979N01127500EA0201402120130000
B0749584751891N01127525EA0202402128130000
B0750024751804N01127529EA0203302136131000
K075002294014
B0750064751720N01127512EA0204202144132000
B0750104751637N01127483EA0205502160130000
B0750144751558N01127437EA0206702168129000
B0750184751483N01127379EA0207602184130000
B0750224751416N01127304EA0208002184131000
K075022294014
B0750264751362N01127212EA0208502184132000
B0750304751325N01127100EA0208802192131000
B0750344751304N01126979EA0208902192136000
B0750384751308N01126854EA0208902192139000
B0750424751345N01126729EA0208802192144000
K075042294014
B0750464751408N01126629EA0209102192148000
B0750504751495N01126566EA0209602200153000
B0750544751595N01126558EA0210202208156000
B0750584751700N01126600EA0211602216158000
B0751024751775N01126708EA0212202224154000
K075102294014
B0751064751825N01126845EA0213402232156000
B0751104751841N01127004EA0214702248153000
B0751144751825N01127162EA0215702256150000
B0751184751783N01127304EA0216802272145000
B0751224751716N01127408EA0217802280134000
K075122294014
B0751264751633N01127470EA0218002288129000
B0751304751545N01127495EA0217702280129000
B0751344751454N01127500EA0216902272132000
B0751384751362N01127495EA0215902264136000
B0751424751266N01127491EA0214602248142000
K075142294014
B0751464751166N01127479EA0213502240146000
B0751504751066N01127458EA0212602232149000
B0751544750966N01127425EA0213302216150000
B0751584750870N01127375EA0212902216155000
B0752024750779N01127316EA0212502216151000
K075202288035
B0752064750691N01127258EA0212502216145000
B0752104750600N01127208EA0213002216144000
B0752144750508N01127216EA0213302224135000
B0752184750420N01127270EA0212802216137000
B0752224750341N01127350EA0211702208140000
K075222288035
B0752264750262N01127441EA0209902184150000
B0752304750179N01127541EA0204902128186000
E075231PEV MARKER BUTTON PRESSED
B0752314750154N01127570EA0202502104200000
E075232PEV MARKER BUTTON PRESSED
B0752324750129N01127595EA0199702072214000
E075233PEV MARKER BUTTON PRESSED
B0752334750104N01127625EA0196802032229000
E075234PEV MARKER BUTTON PRESSED
B0752344750079N01127658EA0193502000243000
E075235PEV MARKER BUTTON PRESSED
B0752354750050N01127691EA0190101960256000
E075236PEV MARKER BUTTON PRESSED
B0752364750020N01127729EA0186601928273000
E075237PEV MARKER BUTTON PRESSED
B0752374749987N01127775EA0183801896283000
E075238PEV MARKER BUTTON PRESSED
B0752384749954N01127816EA0182101880289000
E075239PEV MARKER BUTTON PRESSED
B0752394749920N01127862EA0180501864291000
E075240PEV MARKER BUTTON PRESSED
B0752404749887N01127912EA0179501856293000
E075241PEV MARKER BUTTON PRESSED
B0752414749850N01127958EA0178501840294000
E075242PEV MARKER BUTTON PRESSED
B0752424749816N01128004EA0177701832292000
K075242288035
E075243PEV MARKER BUTTON PRESSED
B0752434749779N01128050EA0176901832294000
E075244PEV MARKER BUTTON PRESSED
B0752444749745N01128095EA0176201824294000
B0752454749708N01128141EA0175601816293000
E075246PEV MARKER BUTTON PRESSED
B0752464749675N01128187EA0175201816287000
E075247PEV MARKER BUTTON PRESSED
B0752474749641N01128233EA0174501808287000
E075248PEV MARKER BUTTON PRESSED
B0752484749604N01128279EA0174001800285000
E075249PEV MARKER BUTTON PRESSED
B0752494749570N01128325EA0173501800285000
E075250PEV MARKER BUTTON PRESSED
B0752504749537N01128370EA0174101808279000
B0752514749508N01128412EA0175701832266000
B0752524749479N01128454EA0178201856250000
B0752534749454N01128483EA0182101904231000
B0752544749433N01128512EA0185501944209000
B0752554749412N01128537EA0188701976187000
B0752564749395N01128558EA0191602008167000
B0752574749379N01128579EA0194002032148000
B0752584749366N01128600EA0195902056130000
B0752594749354N01128616EA0197202072114000
B0753024749312N01128662EA0198702080093000
K075302288035
B0753064749262N01128729EA0197402064106000
B0753104749204N01128800EA0196202056116000
B0753144749145N01128879EA0195802048116000
B0753184749091N01128958EA0195602048115000
B0753224749037N01129037EA0195202048113000
K075322278021
B0753264748983N01129120EA0194902048113000
B0753304748933N01129200EA0194702040113000
B0753344748879N01129283EA0194402040114000
B0753384748829N01129366EA0194202040112000
B0753424748779N01129450EA0194102032111000
K075342246012
B0753464748729N01129529EA0194002032109000
B0753504748679N01129608EA0192802032109000
B0753544748629N01129687EA0192402032109000
B0753584748575N01129766EA0191902024111000
B0754024748525N01129845EA0191802024110000
K075402228013
B0754064748475N01129925EA0191602024110000
B0754104748425N01130004EA0191302016110000
B0754144748379N01130083EA0191202016109000
B0754184748329N01130162EA0191202016107000
B0754224748287N01130241EA0191102016105000
K075422224014
B0754264748241N01130320EA0190802016105000
B0754304748200N01130404EA0190202008106000
B0754344748154N01130483EA0189802000106000
B0754384748112N01130566EA0189502000106000
B0754424748066N01130650EA0188901992107000
K075442214010
B0754464748020N01130729EA0188601992106000
B0754504747975N01130808EA0188401992106000
B0754544747933N01130887EA0188401992104000
B0754584747887N01130966EA0188201984102000
B0755024747845N01131041EA0188101984101000
K075502214012
B0755064747804N01131112EA0187601984101000
B0755104747762N01131187EA0187001976104000
B0755144747716N01131266EA0185801968111000
B0755184747666N01131350EA0184801952116000
B0755224747616N01131429EA0184001952118000
K075522200011
B0755264747562N01131508EA0183901944115000
B0755304747512N01131583EA0183701944115000
B0755344747458N01131658EA0183601944112000
B0755384747408N01131733EA0183401944111000
B0755424747354N01131804EA0183201936113000
K075542212015
B0755464747300N01131879EA0182901936111000
B0755504747250N01131958EA0182901936109000
B0755544747204N01132037EA0182901936106000
B0755584747158N01132112EA0182401928107000
B0756024747108N01132191EA0181901928109000
K075602214010
B0756064747062N01132275EA0181301920111000
B0756104747012N01132358EA0180901920110000
B0756144746962N01132441EA0180601912110000
B0756184746916N01132520EA0180401912110000
B0756224746866N01132600EA0180301912108000
K075622220009
B0756264746816N01132679EA0180101904105000
B0756304746766N01132754EA0179601904106000
B0756344746720N01132825EA0179201896107000
B0756384746670N01132904EA0178701896107000
B0756424746620N01132979EA0178201888109000
K075642224012
B0756464746575N01133058EA0178101888111000
B0756504746529N01133137EA0178001888107000
B0756544746483N01133212EA0177601880105000
B0756584746433N01133287EA0176501872108000
B0757024746379N01133358EA0175701864115000
K075702212009
B0757064746325N01133433EA0175301864116000
B0757104746270N01133508EA0175001864116000
B0757144746216N01133583EA0174601856115000
B0757184746162N01133658EA0174301856117000
B0757224746108N01133737EA0173801848118000
K075722166004
B0757264746054N01133816EA0173001840120000
B0757304746000N01133904EA0171701824126000
B0757344745945N01133995EA0171001824124000
B0757384745891N01134083EA0170201816129000
B0757424745833N01134175EA0169501808130000
K075742090004
B0757464745775N01134266EA0168801800132000
B0757504745716N01134350EA0168501792132000
B0757544745654N01134433EA0168401792130000
B0757584745591N01134512EA0168201792127000
B0758024745533N01134591EA0167301784130000
K075802216008
B0758064745470N01134675EA0166901776131000
B0758104745408N01134758EA0166501776130000
B0758144745350N01134841EA0166401776130000
B0758184745291N01134925EA0166501776128000
B0758224745233N01135004EA0166501776124000
K075822214010
B0758264745175N01135083EA0166401776122000
B0758304745116N01135158EA0166201768122000
B0758344745058N01135233EA0165801768121000
B0758384745000N01135304EA0165401768122000
B0758424744945N01135379EA0164901760121000
K075842216015
B0758464744887N01135450EA0164401752121000
B0758504744829N01135525EA0164101752120000
B0758544744775N01135600EA0163801752119000
B0758584744720N01135675EA0163401744118000
B0759024744666N01135750EA0162801736117000
K075902198009
B0759064744616N01135829EA0162201736119000
B0759104744562N01135912EA0161201720123000
B0759144744508N01135995EA0160301712126000
B0759184744454N01136083EA0159701712127000
B0759224744395N01136166EA0159501704128000
K075922180006
B0759264744341N01136245EA0159301704123000
B0759304744287N01136325EA0158501696121000
B0759344744233N01136408EA0157801688123000
B0759384744175N01136491EA0156501680126000
B0759424744116N01136583EA0155801672128000
K075942180006
B0759464744062N01136675EA0155601664128000
B0759504744004N01136766EA0155601664134000
B0759544743950N01136858EA0156301680128000
B0759584743900N01136950EA0156401680128000
B0800024743850N01137041EA0156001672127000
K080002180003
B0800064743804N01137141EA0155001664128000
B0800104743758N01137241EA0153901648131000
B0800144743708N01137345EA0152601640135000
B0800184743654N01137445EA0151401624138000
B0800224743595N01137550EA0151101624139000
K080022162003
B0800264743541N01137654EA0150401616137000
B0800304743483N01137762EA0150301616146000
B0800344743429N01137870EA0150701624140000
B0800384743379N01137979EA0151201624138000
B0800424743337N01138091EA0151701632140000
K080042224005
B0800464743304N01138204EA0152501640124000
B0800504743279N01138320EA0151001624132000
B0800544743254N01138441EA0150101616133000
B0800584743229N01138566EA0150501616132000
B0801024743204N01138687EA0150601616128000
K080102224004
B0801064743175N01138808EA0150201616129000
B0801104743137N01138920EA0151101624127000
B0801144743100N01139029EA0151501624121000
B0801184743054N01139120EA0154201648121000
B0801224743058N01139225EA0155201664113000
K080122232005
B0801264743125N01139262EA0154901664111000
B0801304743183N01139200EA0155101664106000
B0801344743183N01139095EA0154101648112000
B0801384743133N01139020EA0154101656113000
B0801424743066N01138991EA0154201656115000
K080142232005
B0801464742995N01139020EA0155401672113000
B0801504742933N01139079EA0156601680114000
B0801544742883N01139145EA0158201696107000
B0801584742841N01139229EA0156901688115000
B0802024742820N01139341EA0154701664125000
K080202202005
B0802064742808N01139466EA0153101648135000
B0802104742808N01139600EA0152501640136000
B0802144742808N01139733EA0152201640134000
B0802184742808N01139862EA0152001640129000
B0802224742812N01139987EA0151801632126000
K080222232005
B0802264742812N01140112EA0151701632122000
B0802304742825N01140229EA0152001632118000
B0802344742875N01140325EA0151801632117000
B0802384742950N01140366EA0151701624124000
B0802424743020N01140416EA0153701648109000
K080242224005
B0802464743025N01140512EA0154201648094000
B0802504742970N01140562EA0153101640117000
B0802544742912N01140520EA0155301664105000
B0802584742900N01140425EA0156001664101000
B0803024742945N01140350EA0156601680103000
K080302224005
B0803064743012N01140354EA0157301680102000
B0803104743054N01140437EA0157601688098000
B0803144743045N01140533EA0156501672097000
B0803184742991N01140595EA0155801664112000
B0803224742925N01140612EA0157101680107000
K080322202004
B0803264742862N01140595EA0159301704108000
B0803304742858N01140504EA0160701712100000
B0803344742920N01140475EA0160800000103000
B0803384742966N01140550EA0161801728097000
B0803424742950N01140637EA0162101736105000
K080342188003
B0803464742891N01140675EA0164101752095000
B0803504742841N01140629EA0165001760099000
B0803544742845N01140533EA0166201776104000
B0803584742908N01140500EA0167601792098000
B0804024742962N01140554EA0168201792100000
K080402180006
B0804064742970N01140650EA0169101800101000
B0804104742920N01140704EA0170401816100000
B0804144742862N01140666EA0171501824098000
B0804184742854N01140566EA0172801840101000
B0804224742912N01140508EA0174101856101000
K080422170005
B0804264742979N01140545EA0175501872096000
B0804304742995N01140637EA0176701880106000
B0804344742950N01140700EA0177601888101000
B0804384742895N01140658EA0178301896102000
B0804424742900N01140558EA0179401904106000
K080442176007
B0804464742962N01140516EA0181201920100000
B0804504743020N01140579EA0182501936100000
B0804544743012N01140675EA0183301944098000
B0804584742954N01140712EA0183901952103000
B0805024742904N01140658EA0185201960097000
K080502192008
B0805064742908N01140562EA0186401976109000
B0805104742962N01140500EA0188001992104000
B0805144743033N01140516EA0189702008103000
B0805184743066N01140600EA0190902016097000
B0805224743041N01140687EA0192302032094000
K080522196006
B0805264742983N01140704EA0192002032103000
B0805304742937N01140637EA0193202048107000
B0805344742937N01140545EA0195002064099000
B0805384742987N01140483EA0196202072099000
B0805424743054N01140487EA0197802088094000
K080542202008
B0805464743091N01140570EA0198302088098000
B0805504743070N01140662EA0198602096103000
B0805544743012N01140691EA0200002104101000
B0805584742966N01140633EA0201002120104000
B0806024742983N01140541EA0202202128096000
K080602196008
B0806064743045N01140504EA0204302144095000
B0806104743104N01140550EA0205302152093000
B0806144743120N01140645EA0205902160099000
B0806184743087N01140729EA0206002160101000
B0806224743033N01140791EA0206002160103000
K080622184010
B0806264742979N01140858EA0205702160109000
B0806304742916N01140925EA0206002160117000
B0806344742854N01140991EA0206102160117000
B0806384742795N01141058EA0206802168112000
B0806424742733N01141133EA0206802168118000
K080642184010
B0806464742675N01141208EA0206202168125000
B0806504742616N01141287EA0205902160125000
B0806544742554N01141362EA0206902176123000
B0806584742495N01141441EA0207702176116000
B0807024742433N01141520EA0207502176117000
K080702186008
B0807064742370N01141591EA0207502176121000
B0807104742304N01141666EA0206902176123000
B0807144742233N01141745EA0205102152131000
B0807184742158N01141829EA0204102144135000
B0807224742083N01141912EA0203602144136000
K080722224002
B0807264742008N01141995EA0203302136138000
B0807304741933N01142070EA0203002136139000
B0807344741854N01142133EA0203802144135000
B0807384741779N01142195EA0205002152123000
B0807424741704N01142250EA0206002160116000
K080742252018
B0807464741629N01142291EA0206202168118000
B0807504741554N01142333EA0205302160119000
B0807544741475N01142379EA0203502136125000
B0807584741391N01142420EA0200602112140000
B0808024741295N01142462EA0199102096143000
K080802254015
B0808064741204N01142504EA0197702088144000
B0808104741108N01142541EA0196202072148000
B0808144741012N01142583EA0195002056152000
B0808184740912N01142620EA0194202048153000
B0808224740812N01142658EA0194102048152000
K080822266013
B0808264740716N01142700EA0194402056147000
B0808304740625N01142741EA0194202056148000
B0808344740533N01142779EA0194202056143000
B0808384740445N01142816EA0194102048141000
B0808424740358N01142850EA0193802048139000
K080842266013
B0808464740270N01142875EA0193702048132000
B0808504740187N01142891EA0193302040132000
B0808544740100N01142908EA0192502032135000
B0808584740012N01142929EA0192302032134000
B0809024739929N01142950EA0192502032129000
K080902262016
B0809064739841N01142975EA0192402032133000
B0809104739762N01143000EA0193702048120000
B0809144739683N01143020EA0194502056115000
B0809184739608N01143041EA0196302072111000
B0809224739541N01143050EA0199802104096000
K080922274012
B0809264739491N01143104EA0201102120096000
B0809304739508N01143191EA0200902112099000
B0809344739575N01143225EA0200602112100000
B0809384739625N01143154EA0199902104110000
B0809424739612N01143045EA0199702104115000
K080942270012
B0809464739562N01142954EA0201402120113000
B0809504739508N01142891EA0204102144100000
B0809544739450N01142916EA0204802152103000
B0809584739441N01143016EA0205402160104000
B0810024739504N01143075EA0206102168105000
K081002160003
B0810064739562N01143012EA0206402168104000
B0810104739570N01142904EA0206702176103000
B0810144739533N01142816EA0208502192096000
B0810184739470N01142779EA0209902208098000
K081018128007
B0810224739404N01142791EA0211302216097000
B0810264739366N01142866EA0211502224097000
B0810304739395N01142954EA0211302224098000
B0810344739458N01142987EA0211502224101000
B0810384739525N01142941EA0212902240100000
K081038102007
B0810424739566N01142858EA0214402256088000
B0810464739579N01142758EA0215602264090000
B0810504739541N01142675EA0215902264099000
B0810544739466N01142687EA0216302272103000
B0810584739441N01142775EA0216502272102000
K081058102007
B0811024739466N01142875EA0217502280097000
B0811064739537N01142900EA0218402288105000
B0811104739583N01142820EA0219802304106000
B0811144739575N01142720EA0221302320089000
B0811184739520N01142662EA0221002320092000
K081118094007
B0811224739450N01142670EA0221202320103000
B0811264739412N01142745EA0222802336095000
B0811304739425N01142833EA0222802336097000
B0811344739491N01142866EA0222702336098000
B0811384739558N01142837EA0223902352094000
K081138086008
B0811424739604N01142758EA0225702368093000
B0811464739595N01142654EA0225602360098000
B0811504739541N01142587EA0225502360092000
B0811544739475N01142591EA0226002368093000
B0811584739429N01142650EA0226502376092000
K081158098010
B0812024739404N01142729EA0226302376097000
B0812064739387N01142820EA0225102360105000
B0812104739362N01142920EA0222702336117000
B0812144739345N01143041EA0222802336128000
B0812184739333N01143162EA0223102344129000
K081218048014
B0812224739320N01143287EA0224502360124000
B0812264739308N01143400EA0226402376104000
B0812304739291N01143508EA0226602376105000
B0812344739270N01143620EA0227102376106000
B0812384739250N01143733EA0227102376107000
K081238332002
B0812424739229N01143850EA0226402368110000
B0812464739208N01143970EA0224402352118000
B0812504739183N01144104EA0222602336124000
B0812544739158N01144237EA0220702320134000
B0812584739129N01144379EA0218902296147000
K081258330010
B0813024739095N01144520EA0218702296149000
B0813064739062N01144654EA0219102304140000
B0813104739025N01144787EA0218802296137000
B0813144738987N01144912EA0218802296136000
B0813184738945N01145037EA0218602296136000
K081318270008
B0813224738908N01145158EA0218402296129000
B0813264738870N01145283EA0217702288133000
B0813304738829N01145400EA0217602288132000
B0813344738783N01145516EA0217802288131000
B0813384738750N01145637EA0217802288129000
K081338262007
B0813424738716N01145754EA0217802288125000
B0813464738683N01145875EA0217302288127000
B0813504738654N01145991EA0216702280126000
B0813544738625N01146112EA0216102272128000
B0813584738591N01146233EA0215302264128000
K081358258005
B0814024738558N01146354EA0214502256131000
B0814064738525N01146479EA0213402248141000
B0814104738487N01146604EA0212802240141000
B0814144738454N01146733EA0212402240138000
B0814184738425N01146866EA0211802232139000
K081418314002
B0814224738400N01147000EA0211802232143000
B0814264738375N01147137EA0211602232138000
B0814304738358N01147270EA0211802232140000
B0814344738337N01147400EA0213602248128000
B0814384738316N01147516EA0216402272108000
K081438232010
B0814424738291N01147612EA0218402296103000
B0814464738287N01147712EA0219702304098000
B0814504738304N01147812EA0220602312097000
B0814544738320N01147920EA0219702304107000
B0814584738325N01148033EA0218302288114000
K081458256004
B0815024738320N01148158EA0216002272130000
B0815064738316N01148291EA0215102264132000
B0815104738308N01148420EA0215502264126000
B0815144738295N01148541EA0216302272126000
B0815184738283N01148666EA0215502264129000
K081518326003
B0815224738279N01148787EA0215502264120000
B0815264738275N01148908EA0215902272124000
B0815304738266N01149029EA0216902280122000
B0815344738262N01149150EA0218702296117000
B0815384738258N01149258EA0221102320103000
K081538252003
B0815424738262N01149366EA0222702336097000
B0815464738262N01149466EA0223202344098000
B0815504738250N01149570EA0222702336102000
B0815544738237N01149679EA0221502320110000
B0815584738229N01149795EA0221002320120000
K081558314004
B0816024738216N01149908EA0219802312121000
B0816064738204N01150029EA0220002312121000
B0816104738195N01150150EA0222502336113000
B0816144738191N01150266EA0225002360107000
B0816184738187N01150370EA0227702384101000
K081618238005
B0816224738162N01150458EA0229702400091000
B0816264738112N01150529EA0229802408095000
B0816304738091N01150629EA0230402408100000
B0816344738112N01150733EA0230502408105000
B0816384738133N01150833EA0231202416101000
K081638332004
B0816424738145N01150929EA0230302408100000
B0816464738154N01151045EA0227302376120000
B0816504738162N01151175EA0225702368130000
B0816544738166N01151308EA0224402352128000
B0816584738170N01151445EA0222902336138000
K081658344011
B0817024738170N01151591EA0222102328144000
B0817064738166N01151733EA0221902328143000
B0817104738158N01151875EA0222102328137000
B0817144738145N01152012EA0222602336132000
B0817184738137N01152141EA0222702336126000
K081718278006
B0817224738125N01152270EA0222202328126000
B0817264738112N01152408EA0220902320136000
B0817304738095N01152541EA0219702304138000
B0817344738083N01152683EA0218802296135000
B0817384738075N01152825EA0218202288138000
K081738300008
B0817424738062N01152962EA0217902288136000
B0817464738054N01153104EA0217302280133000
B0817504738050N01153245EA0216702280127000
B0817544738041N01153387EA0217402280130000
B0817584738029N01153516EA0219202296121000
K081758282013
B0818024738016N01153641EA0219102296115000
B0818064738012N01153758EA0219002296110000
B0818104738012N01153887EA0217002280121000
B0818144738041N01154016EA0214702256136000
B0818184738075N01154150EA0213302240139000
K081818278013
B0818224738116N01154283EA0213002240139000
B0818264738150N01154412EA0213302240132000
B0818304738179N01154537EA0213502240122000
B0818344738200N01154662EA0213402240122000
B0818384738225N01154787EA0213702248121000
K081838278013
B0818424738241N01154908EA0213902248115000
B0818464738262N01155025EA0213902248114000
B0818504738275N01155145EA0213502240115000
B0818544738291N01155266EA0212902240116000
B0818584738304N01155387EA0212202232120000
K081858284011
B0819024738316N01155512EA0211502224121000
B0819064738329N01155637EA0210802216120000
B0819104738341N01155762EA0210002208126000
B0819144738354N01155891EA0209802208122000
B0819184738366N01156016EA0209502208121000
K081918282009
B0819224738375N01156141EA0209202200121000
B0819264738383N01156266EA0208602192120000
B0819304738391N01156387EA0208302192123000
B0819344738400N01156508EA0208402192118000
B0819384738408N01156625EA0208202192116000
K081938252006
B0819424738416N01156741EA0207902184117000
B0819464738420N01156858EA0207502184117000
B0819504738425N01156979EA0206502168121000
B0819544738433N01157100EA0205702168124000
B0819584738437N01157220EA0205502160121000
K081958288003
B0820024738445N01157341EA0205602160118000
B0820064738454N01157458EA0204702152120000
B0820104738466N01157579EA0203602144121000
B0820144738487N01157700EA0203402144118000
B0820184738525N01157804EA0203602144113000
K082018224002
B0820224738575N01157900EA0203602144122000
B0820264738633N01157987EA0205302152119000
B0820304738675N01158087EA0207502184107000
B0820344738666N01158191EA0209102192108000
B0820384738604N01158225EA0210802208098000
K082038224002
B0820424738554N01158162EA0212302224100000
B0820464738554N01158066EA0213302232102000
B0820504738608N01158012EA0214402248098000
B0820544738675N01158058EA0215202256107000
B0820584738683N01158162EA0216002256100000
K082058242006
B0821024738629N01158233EA0215502256119000
B0821064738558N01158200EA0217802280110000
B0821104738541N01158108EA0219702296105000
B0821144738583N01158041EA0220802312100000
B0821184738654N01158066EA0220702304114000
K082118274003
B0821224738691N01158162EA0222702328098000
B0821264738666N01158266EA0222502328112000
B0821304738595N01158300EA0223902344110000
B0821344738541N01158254EA0225602360104000
B0821384738529N01158166EA0227302384098000
K082138260008
B0821424738570N01158104EA0228002392103000
B0821464738637N01158116EA0229002400099000
B0821504738679N01158200EA0229902408098000
B0821544738679N01158304EA0229702408104000
B0821584738633N01158383EA0231102424102000
K082158270008
B0822024738566N01158391EA0232202432096000
B0822064738520N01158329EA0232202432102000
B0822104738525N01158237EA0233302440102000
B0822144738562N01158195EA0234902456099000
B0822184738629N01158216EA0235802464099000
K082218260008
B0822224738658N01158304EA0236602472102000
B0822264738633N01158400EA0237702488097000
B0822304738575N01158441EA0237702488098000
B0822344738512N01158400EA0237502488097000
B0822384738495N01158308EA0238002488099000
B0822424738533N01158233EA0239002496101000
K082242278005
B0822464738600N01158245EA0240102512103000
B0822504738629N01158337EA0240502512099000
B0822544738604N01158441EA0239802504107000
B0822584738550N01158520EA0239002504113000
B0823024738491N01158595EA0238702496111000
K082302292003
B0823064738433N01158675EA0238102488112000
B0823104738375N01158758EA0237402488110000
B0823144738312N01158845EA0236502472117000
B0823184738250N01158933EA0235202464125000
B0823224738191N01159033EA0233902456134000
K082322294003
B0823264738133N01159137EA0233502448132000
B0823304738079N01159245EA0233502448134000
B0823344738020N01159345EA0234102448130000
B0823384737966N01159445EA0235102456124000
B0823424737916N01159545EA0235402456121000
K082342270005
B0823464737866N01159641EA0234402448114000
B0823504737837N01159766EA0232402440129000
B0823544737812N01159904EA0230302416138000
B0823584737791N01200054EA0229202400148000
B0824024737770N01200200EA0229102400144000
K082402306005
B0824064737741N01200341EA0229702408142000
B0824104737716N01200483EA0230302408135000
B0824144737691N01200616EA0230502416134000
B0824184737670N01200745EA0230502416128000
B0824224737650N01200879EA0230502416131000
K082422242013
B0824264737633N01201016EA0229302408131000
B0824304737608N01201154EA0227802392132000
B0824344737579N01201291EA0225802376142000
B0824384737545N01201437EA0224302360144000
B0824424737504N01201579EA0222402344151000
K082442280010
B0824464737458N01201720EA0220902320155000
B0824504737408N01201866EA0220602320157000
B0824544737350N01201995EA0220802320153000
B0824584737287N01202120EA0221202328146000
B0825024737229N01202237EA0222002336139000
K082502252015
B0825064737179N01202354EA0222502344135000
B0825104737125N01202470EA0222402344131000
B0825144737083N01202587EA0222802344127000
B0825184737037N01202712EA0223302344127000
B0825224736991N01202833EA0223602352135000
K082522258014
B0825264736954N01202958EA0223802352125000
B0825304736895N01203058EA0223502352124000
B0825344736825N01203120EA0222602336126000
B0825384736741N01203162EA0221902328131000
B0825424736654N01203183EA0221302320135000
K082542254015
B0825464736566N01203200EA0221102320130000
B0825504736479N01203216EA0221102320129000
B0825544736391N01203245EA0220102312134000
B0825584736312N01203312EA0219902312126000
B0826024736258N01203420EA0219202304128000
K082602254015
B0826064736216N01203541EA0218302296130000
B0826104736175N01203670EA0217002280133000
B0826144736141N01203804EA0216002272136000
B0826184736104N01203937EA0214502264139000
B0826224736066N01204070EA0213702248139000
K082622292010
B0826264736025N01204208EA0212402232143000
B0826304735991N01204354EA0211702232141000
B0826344735962N01204500EA0212002232145000
B0826384735933N01204641EA0212502232136000
B0826424735908N01204779EA0212602240133000
K082642286013
B0826464735879N01204912EA0211802232133000
B0826504735854N01205050EA0210102216137000
B0826544735825N01205187EA0209602208137000
B0826584735791N01205320EA0209602208137000
B0827024735762N01205458EA0209702208135000
K082702266015
B0827064735733N01205587EA0209802208130000
B0827104735700N01205716EA0209202208131000
B0827144735666N01205845EA0208902200130000
B0827184735629N01205970EA0208602200129000
B0827224735591N01206095EA0208402200128000
K082722262014
B0827264735550N01206212EA0208002192126000
B0827304735508N01206333EA0207402192128000
B0827344735466N01206450EA0207002184125000
B0827384735425N01206566EA0206902184127000
B0827424735383N01206683EA0206502176125000
K082742262015
B0827464735341N01206795EA0205902176129000
B0827504735300N01206912EA0204802160125000
B0827544735258N01207033EA0203702152129000
B0827584735216N01207158EA0203202144130000
B0828024735179N01207279EA0203102144129000
K082802280011
B0828064735137N01207400EA0202602144128000
B0828104735095N01207520EA0202102136130000
B0828144735054N01207637EA0201702136126000
B0828184735008N01207750EA0200902128128000
B0828224734962N01207866EA0199702112124000
K082822266013
B0828264734920N01207987EA0197902096134000
B0828304734870N01208116EA0196602080144000
B0828344734825N01208245EA0196102080140000
B0828384734779N01208375EA0195902072136000
B0828424734733N01208504EA0195802072134000
K082842284011
B0828464734687N01208625EA0195602072136000
B0828504734641N01208750EA0195502072133000
B0828544734595N01208875EA0195602072131000
B0828584734550N01208995EA0195502072128000
B0829024734504N01209116EA0195102064128000
K082902280015
B0829064734462N01209233EA0194902064126000
B0829104734420N01209350EA0194402064126000
B0829144734379N01209466EA0193502056125000
B0829184734341N01209587EA0192602040126000
B0829224734300N01209708EA0191502032131000
K082922282013
B0829264734258N01209833EA0190602024133000
B0829304734216N01209958EA0190102016134000
B0829344734179N01210087EA0189702016136000
B0829384734137N01210212EA0189402008135000
B0829424734100N01210341EA0189102008134000
K082942294012
B0829464734062N01210470EA0188702008135000
B0829504734025N01210600EA0188402000135000
B0829544733991N01210729EA0188002000135000
B0829584733954N01210858EA0187801992137000
B0830024733916N01210987EA0187801992135000
K083002284011
B0830064733883N01211112EA0187801992132000
B0830104733850N01211237EA0186801984134000
B0830144733816N01211366EA0186001976137000
B0830184733787N01211500EA0185101968136000
B0830224733758N01211633EA0184601968137000
K083022288009
B0830264733725N01211762EA0184101960137000
B0830304733691N01211891EA0183901960135000
B0830344733654N01212020EA0183901960134000
B0830384733620N01212145EA0183801960132000
B0830424733587N01212270EA0183801960130000
K083042264011
B0830464733550N01212391EA0183701960126000
B0830504733516N01212508EA0183801952125000
B0830544733483N01212629EA0183501952122000
B0830584733454N01212741EA0183401952119000
B0831024733429N01212858EA0182901952118000
K083102260012
B0831064733408N01212970EA0182201944123000
B0831104733391N01213091EA0181401936118000
B0831144733375N01213212EA0181101928123000
B0831184733366N01213325EA0183701952111000
B0831224733375N01213437EA0185201968107000
K083122264009
B0831264733383N01213541EA0186501984109000
B0831304733387N01213641EA0187701992099000
B0831344733379N01213737EA0188902000091000
B0831384733350N01213820EA0188502000099000
B0831424733287N01213854EA0189202008100000
K083142262008
B0831464733233N01213812EA0189802016093000
B0831504733220N01213729EA0188702008102000
B0831544733270N01213666EA0188602000113000
B0831584733341N01213691EA0190902024100000
B0832024733379N01213775EA0192602040095000
K083202262008
B0832064733358N01213858EA0192802040088000
B0832104733295N01213895EA0192402040103000
B0832144733241N01213845EA0193702048096000
B0832184733245N01213762EA0193602048097000
B0832224733304N01213725EA0193402048105000
K083222258006
B0832264733366N01213770EA0195302064103000
B0832304733391N01213854EA0196702080081000
B0832344733370N01213937EA0194702064105000
B0832384733304N01213987EA0195202064109000
B0832424733237N01213983EA0196702080099000
K083242274005
B0832464733204N01213912EA0196802088095000
B0832504733233N01213837EA0195902072105000
B0832544733300N01213833EA0196402080101000
B0832584733350N01213891EA0197702088099000
B0833024733387N01213975EA0198702104096000
K083302278006
B0833064733404N01214070EA0200002112097000
B0833104733358N01214137EA0199302112099000
B0833144733295N01214120EA0199102104102000
B0833184733266N01214033EA0199502112098000
B0833224733300N01213954EA0199602112106000
K083322284006
B0833264733366N01213941EA0201102120096000
B0833304733416N01214004EA0202002128100000
B0833344733425N01214104EA0202602136097000
B0833384733420N01214204EA0202002136104000
B0833424733408N01214308EA0201902136105000
K083342254005
B0833464733391N01214420EA0201902128110000
B0833504733391N01214537EA0201902128112000
B0833544733412N01214654EA0201702128114000
B0833584733437N01214775EA0202302136115000
B0834024733466N01214895EA0203602144114000
K083402256005
B0834064733500N01215012EA0205602168116000
B0834104733533N01215120EA0206802184120000
B0834144733562N01215225EA0207302192106000
B0834184733587N01215337EA0207202184114000
B0834224733612N01215450EA0207902192123000
K083422220009
B0834264733633N01215566EA0209502208122000
B0834304733654N01215675EA0210802224112000
B0834344733666N01215783EA0211202224119000
B0834384733675N01215895EA0211202224119000
B0834424733675N01216008EA0211402232117000
K083442180006
B0834464733679N01216125EA0209902216112000
B0834504733683N01216250EA0209502208129000
B0834544733679N01216375EA0209902216128000
B0834584733662N01216495EA0210002216124000
B0835024733633N01216608EA0210102216118000
K083502186009
B0835064733600N01216716EA0209202208125000
B0835104733550N01216816EA0207802200129000
B0835144733487N01216904EA0206402184130000
B0835184733412N01216979EA0205202168138000
B0835224733329N01217037EA0204102160136000
K083522186009
B0835264733241N01217087EA0203102152142000
B0835304733150N01217129EA0202702144138000
B0835344733066N01217187EA0202502144136000
B0835384733004N01217287EA0202902144127000
B0835424732991N01217412EA0202002144126000
K083542186009
B0835464733025N01217533EA0200702128134000
B0835504733075N01217637EA0201902136127000
B0835544733129N01217737EA0201602136129000
B0835584733179N01217841EA0201002128132000
B0836024733225N01217950EA0201402128127000
K083602186009
B0836064733266N01218058EA0201302136128000
B0836104733308N01218166EA0200502120132000
B0836144733345N01218279EA0200302120129000
B0836184733375N01218395EA0200502120122000
B0836224733395N01218508EA0200802128122000
K083622270002
B0836264733408N01218625EA0201802136121000
B0836304733408N01218733EA0202602144115000
B0836344733400N01218837EA0203202152107000
B0836384733387N01218941EA0202802144110000
B0836424733370N01219050EA0201902136116000
K083642000001
B0836464733350N01219158EA0200202120127000
B0836504733320N01219275EA0199002112128000
B0836544733287N01219391EA0198502104133000
B0836584733250N01219508EA0198602104134000
B0837024733220N01219625EA0199802112122000
K083702034003
B0837064733195N01219741EA0200202120120000
B0837104733170N01219854EA0200402120118000
B0837144733150N01219966EA0200302120114000
B0837184733129N01220083EA0198702112122000
B0837224733104N01220212EA0197502096130000
K083722224002
B0837264733083N01220341EA0197302096124000
B0837304733066N01220479EA0197002088127000
B0837344733050N01220612EA0197102088131000
B0837384733033N01220745EA0198302096129000
B0837424733016N01220862EA0199902120111000
K083742264009
B0837464733004N01220979EA0199102112114000
B0837504732991N01221100EA0197202096126000
B0837544732970N01221229EA0196102080132000
B0837584732954N01221366EA0196602088137000
B0838024732937N01221495EA0197302088134000
K083802270009
B0838064732925N01221625EA0199202112118000
B0838104732912N01221733EA0199802120111000
B0838144732900N01221845EA0198302104114000
B0838184732887N01221970EA0195802080138000
B0838224732875N01222108EA0193702064144000
K083822242006
B0838264732862N01222254EA0192002040156000
B0838304732858N01222404EA0191302032148000
B0838344732854N01222550EA0191302032147000
B0838384732850N01222695EA0192002040149000
B0838424732850N01222837EA0192102040140000
K083842232005
B0838464732854N01222979EA0195702064131000
B0838504732854N01223100EA0199802112108000
B0838544732870N01223204EA0201702128100000
B0838584732904N01223300EA0204702160095000
B0839024732941N01223379EA0204802168091000
K083902214007
B0839064732958N01223479EA0204802168095000
B0839104732950N01223583EA0204802168102000
B0839144732945N01223695EA0203302152113000
B0839184732933N01223816EA0201602136128000
B0839224732920N01223945EA0200302128130000
K083922214007
B0839264732912N01224079EA0199502120132000
B0839304732900N01224220EA0198802112133000
B0839344732887N01224358EA0199102112136000
B0839384732870N01224500EA0198902112143000
B0839424732854N01224641EA0198702112140000
K083942254007
B0839464732837N01224775EA0199002112139000
B0839504732820N01224904EA0199802120125000
B0839544732800N01225033EA0200302120124000
B0839584732783N01225170EA0200102120126000
B0840024732762N01225308EA0199202120131000
K084002242011
B0840064732733N01225445EA0198502104141000
B0840104732700N01225583EA0198402104139000
B0840144732662N01225720EA0197602096148000
B0840184732620N01225858EA0196802096145000
B0840224732579N01225991EA0196102088143000
K084022274011
B0840264732533N01226129EA0195402080148000
B0840304732487N01226262EA0195702080141000
B0840344732441N01226391EA0194802072139000
B0840384732395N01226520EA0193402064143000
B0840424732350N01226654EA0192702048145000
K084042258016
B0840464732308N01226783EA0192302048143000
B0840504732258N01226912EA0191802040140000
B0840544732212N01227037EA0191702040143000
B0840584732162N01227162EA0191602040143000
B0841024732112N01227287EA0191202032142000
K084102254014
B0841064732062N01227408EA0191702040136000
B0841104732016N01227529EA0191602040137000
B0841144731975N01227654EA0191402040136000
B0841184731933N01227783EA0190502032141000
B0841224731891N01227912EA0189902024141000
K084122270011
B0841264731850N01228041EA0189202016143000
B0841304731812N01228175EA0188402008143000
B0841344731770N01228304EA0187902000138000
B0841384731729N01228429EA0187802000134000
B0841424731683N01228545EA0187802000130000
K084142252012
B0841464731645N01228658EA0187602000126000
B0841504731604N01228770EA0187402000123000
B0841544731562N01228883EA0186101984127000
B0841584731525N01229000EA0184701976133000
B0842024731483N01229120EA0184101968139000
K084202270009
B0842064731441N01229245EA0183201960136000
B0842104731408N01229375EA0183001952132000
B0842144731375N01229500EA0182601952128000
B0842184731345N01229620EA0181901944126000
B0842224731316N01229741EA0180801936127000
K084222270010
B0842264731291N01229862EA0179301920129000
B0842304731262N01229991EA0178001904133000
B0842344731229N01230116EA0177101896132000
B0842384731200N01230241EA0176301888132000
B0842424731170N01230370EA0175101880134000
K084242276009
B0842464731141N01230500EA0174401872134000
B0842504731112N01230629EA0173501864135000
B0842544731087N01230762EA0172401856134000
B0842584731062N01230895EA0171301840135000
B0843024731037N01231029EA0170401832135000
K084302264010
B0843064731016N01231162EA0169401824138000
B0843104730991N01231300EA0168501816135000
B0843144730970N01231433EA0167701808137000
B0843184730945N01231570EA0167101800137000
B0843224730916N01231700EA0166301792137000
K084322252012
B0843264730887N01231833EA0165901784137000
B0843304730854N01231958EA0165801792133000
B0843344730820N01232079EA0165501784132000
B0843384730783N01232204EA0165201776132000
B0843424730745N01232325EA0165601784132000
K084342254011
B0843464730708N01232445EA0165601784127000
B0843504730675N01232562EA0165401784125000
B0843544730650N01232683EA0164501776126000
B0843564730637N01232750EA0165201776124000
B0843574730633N01232779EA0165001776125000
B0843584730629N01232812EA0164501776122000
B0843594730625N01232845EA0164301776121000
B0844004730620N01232875EA0164301776122000
B0844014730616N01232908EA0164601768121000
B0844024730612N01232941EA0164401776134000
B0844034730608N01232975EA0165101776131000
K084403270011
B0844044730608N01233008EA0165601784129000
B0844054730604N01233041EA0166201784133000
B0844064730604N01233075EA0167201792129000
B0844104730595N01233183EA0171601840095000
B0844144730558N01233258EA0172801856097000
B0844184730504N01233250EA0174301872101000
B0844224730491N01233162EA0176201888106000
B0844234730500N01233141EA0176701896097000
K084423270011
B0844244730512N01233137EA0177501896095000
B0844254730525N01233133EA0177901904081000
B0844264730537N01233137EA0178501904080000
B0844274730554N01233141EA0178501904087000
B0844284730566N01233154EA0178101904097000
B0844294730579N01233166EA0177901904107000
B0844304730591N01233183EA0178001904096000
B0844314730600N01233208EA0178101904094000
B0844344730600N01233283EA0178001912095000
B0844384730566N01233370EA0178201904092000
B0844424730504N01233404EA0178001904094000
K084442260010
B0844464730445N01233358EA0178201904100000
B0844504730420N01233266EA0180201920101000
B0844544730404N01233179EA0181801944093000
B0844584730420N01233104EA0182501944087000
B0845014730462N01233087EA0182101936109000
B0845024730479N01233091EA0182701936106000
B0845034730495N01233104EA0183201944100000
K084503312011
B0845044730504N01233125EA0183701952097000
B0845054730508N01233145EA0184101960090000
B0845064730508N01233170EA0184301952083000
B0845074730504N01233195EA0184400000087000
B0845084730495N01233216EA0184101960092000
B0845094730483N01233237EA0184001952097000
B0845104730470N01233254EA0183801952101000
B0845144730400N01233275EA0185001968096000
B0845184730345N01233216EA0186101976092000
B0845224730337N01233129EA0185901976098000
K084522320010
B0845264730379N01233070EA0186401984090000
B0845304730441N01233079EA0186301984109000
B0845344730483N01233154EA0187602000099000
B0845384730483N01233254EA0188702008099000
B0845424730433N01233325EA0190402024095000
K084542334010
B0845464730370N01233287EA0190302032097000
B0845504730362N01233195EA0191102032096000
B0845544730404N01233145EA0191602040102000
B0845584730458N01233179EA0192502048096000
B0846024730470N01233270EA0193400000100000
K084602336011
B0846064730425N01233341EA0194702056092000
B0846104730358N01233341EA0195402072095000
B0846144730325N01233262EA0195302072095000
B0846184730350N01233183EA0195402072102000
B0846224730404N01233162EA0196402080095000
K084622342011
B0846264730450N01233216EA0196300000103000
B0846304730458N01233308EA0196900000092000
B0846344730433N01233395EA0197502088093000
B0846384730375N01233437EA0198202096088000
B0846424730316N01233395EA0198302096096000
K084642348010
B0846464730304N01233308EA0198502096094000
B0846504730350N01233254EA0199002104106000
B0846544730404N01233279EA0200002112097000
B0846584730433N01233362EA0199902112097000
B0847024730433N01233462EA0199402104106000
K084702342010
B0847064730425N01233570EA0200402120108000
B0847104730412N01233679EA0200802120103000
B0847144730395N01233791EA0199702112107000
B0847184730375N01233904EA0199302112112000
B0847224730350N01234020EA0198802104117000
K084722340010
B0847264730325N01234137EA0200002112114000
B0847304730291N01234250EA0200902128104000
B0847344730254N01234358EA0201402128110000
B0847384730208N01234458EA0202702144102000
B0847424730158N01234541EA0202702144105000
K084742332011
B0847464730095N01234600EA0202802144108000
B0847504730025N01234645EA0202002144109000
B0847544729950N01234687EA0200802128115000
B0847584729870N01234725EA0199302120120000
B0848024729787N01234762EA0196802096129000
K084802294012
B0848064729700N01234800EA0194902072139000
B0848104729604N01234841EA0193902064147000
B0848144729508N01234879EA0193402056149000
B0848184729416N01234920EA0193102056145000
B0848224729325N01234958EA0193102056138000
K084822274015
B0848264729237N01234991EA0193202056137000
B0848304729154N01235029EA0193702064125000
B0848344729070N01235058EA0193402056129000
B0848384728987N01235087EA0192702048128000
B0848424728904N01235120EA0193802064114000
K084842276018
B0848464728829N01235158EA0194902072108000
B0848504728754N01235195EA0195402080103000
B0848544728683N01235241EA0195702080112000
B0848584728616N01235291EA0195902088111000
B0849024728550N01235350EA0194302072119000
K084902294012
B0849064728487N01235425EA0192902056124000
B0849104728420N01235508EA0191502040128000
B0849144728350N01235595EA0190102032132000
B0849184728279N01235679EA0189002016135000
B0849224728208N01235762EA0188302008136000
K084922288006
B0849264728137N01235850EA0187902008135000
B0849304728070N01235941EA0187602008131000
B0849344728004N01236037EA0187402000132000
B0849384727937N01236125EA0187402000131000
B0849424727875N01236212EA0188102008126000
K084942260013
B0849464727812N01236295EA0187902008125000
B0849504727750N01236383EA0188302008121000
B0849544727687N01236462EA0188602016120000
B0849584727629N01236541EA0188602016117000
B0850024727570N01236616EA0188602016114000
K085002250021
B0850064727508N01236691EA0188302008115000
B0850104727450N01236766EA0187902008116000
B0850144727391N01236841EA0187502008115000
B0850184727329N01236920EA0187102000116000
B0850224727266N01236991EA0186601992118000
K085022246020
B0850264727204N01237058EA0185701984119000
B0850304727137N01237129EA0184801976123000
B0850344727066N01237195EA0184001968127000
B0850384726995N01237262EA0183801968128000
B0850424726925N01237329EA0183601960129000
K085042248018
B0850464726850N01237391EA0182701960128000
B0850504726779N01237454EA0182101952128000
B0850544726708N01237520EA0181301944131000
B0850584726633N01237591EA0180401936132000
B0851024726566N01237670EA0179601928132000
K085102246007
B0851064726500N01237766EA0178801920134000
B0851104726441N01237866EA0177801904137000
B0851144726387N01237975EA0176801896135000
B0851184726337N01238091EA0176201888132000
B0851224726291N01238208EA0175401880130000
K085122000007
B0851264726254N01238329EA0174501872132000
B0851304726216N01238454EA0173301864140000
B0851344726179N01238583EA0173201864138000
B0851384726145N01238712EA0173701872135000
B0851424726108N01238833EA0174701880121000
K085142320007
B0851464726058N01238933EA0175101880111000
B0851504726004N01239025EA0175101880111000
B0851544725958N01239120EA0173801872117000
B0851584725908N01239216EA0173501864117000
B0852024725841N01239291EA0173701872116000
K085202330008
B0852064725766N01239329EA0174801880106000
B0852104725695N01239320EA0175101888109000
B0852144725637N01239270EA0175301888102000
B0852184725600N01239191EA0174401872107000
B0852224725562N01239104EA0172801864118000
K085222330008
B0852264725508N01239025EA0171801856123000
B0852304725445N01238954EA0170501840133000
B0852344725379N01238883EA0169901832131000
B0852384725308N01238825EA0168901824130000
B0852424725237N01238766EA0168301816130000
K085242304003
B0852464725166N01238712EA0167201808134000
B0852504725087N01238662EA0166101792133000
B0852544725012N01238612EA0165501784131000
B0852584724929N01238570EA0165301784127000
B0853024724850N01238529EA0165001776127000
K085302224002
B0853064724766N01238508EA0165601784132000
B0853104724687N01238529EA0167601808110000
B0853144724620N01238583EA0168701816107000
B0853184724570N01238650EA0171101832097000
B0853224724520N01238704EA0171601840089000
K085322224002
B0853264724466N01238695EA0170601832093000
B0853304724450N01238604EA0169101816105000
B0853344724487N01238512EA0169401816112000
B0853384724550N01238462EA0170201832106000
B0853424724616N01238462EA0171601840102000
K085342224002
B0853464724662N01238529EA0172901856086000
B0853504724654N01238625EA0173101864095000
B0853544724595N01238670EA0174000000100000
B0853584724541N01238620EA0175201880104000
B0854024724541N01238529EA0176301888088000
K085402216005
B0854064724591N01238487EA0176501896094000
B0854104724645N01238541EA0176700000098000
B0854144724637N01238637EA0178001896101000
B0854184724591N01238708EA0179601912087000
B0854224724529N01238725EA0179801920095000
K085422334002
B0854264724495N01238654EA0179601912090000
B0854304724516N01238575EA0179301904093000
B0854344724575N01238537EA0179901912102000
B0854384724633N01238575EA0181101920094000
B0854424724662N01238654EA0182501936090000
K085442290005
B0854464724658N01238750EA0183701936090000
B0854504724595N01238775EA0184301952092000
B0854544724566N01238704EA0185301960099000
B0854584724600N01238633EA0186301976090000
B0855024724662N01238645EA0187001984093000
K085502274005
B0855064724691N01238729EA0188501992090000
B0855104724666N01238812EA0188602000097000
B0855144724600N01238825EA0189902008093000
B0855184724562N01238750EA0191402024097000
B0855224724595N01238679EA0191700000095000
K085522284006
B0855264724654N01238695EA0193102040093000
B0855304724670N01238787EA0194402048087000
B0855344724629N01238862EA0194702056094000
B0855384724566N01238862EA0196002064086000
B0855424724533N01238787EA0196402072098000
K085542290007
B0855464724550N01238708EA0198002088090000
B0855504724604N01238687EA0198502088099000
B0855544724650N01238750EA0200402112086000
B0855584724641N01238833EA0200902120087000
B0856024724583N01238875EA0201100000095000
K085602308003
B0856064724525N01238833EA0201702128098000
B0856104724516N01238745EA0203102144092000
B0856144724562N01238708EA0203302144097000
B0856184724620N01238745EA0205502168088000
B0856224724633N01238825EA0207602184080000
K085622294007
B0856264724600N01238900EA0206602176096000
B0856304724537N01238908EA0207902192097000
B0856344724495N01238841EA0208802200093000
B0856384724512N01238766EA0209902216088000
B0856424724566N01238754EA0210902216091000
K085642292006
B0856464724612N01238816EA0212402240084000
B0856504724604N01238900EA0212902248084000
B0856544724554N01238950EA0213102248093000
B0856584724491N01238912EA0214202264098000
B0857024724479N01238833EA0215202272090000
K085702312005
B0857064724520N01238779EA0215702272089000
B0857104724579N01238791EA0217302288090000
B0857144724608N01238866EA0218502304083000
B0857184724608N01238958EA0217602304095000
B0857224724600N01239058EA0217302296103000
K085722304003
B0857264724591N01239166EA0217802304110000
B0857304724579N01239275EA0220202320101000
B0857344724566N01239370EA0221902344091000
B0857384724545N01239466EA0222002344104000
B0857424724533N01239570EA0221802336104000
K085742304003
B0857464724516N01239679EA0220902336109000
B0857504724500N01239787EA0220002320107000
B0857544724475N01239900EA0218702304116000
B0857584724445N01240016EA0217302296124000
B0858024724412N01240137EA0216102280130000
K085802354009
B0858064724370N01240254EA0215102272128000
B0858104724320N01240370EA0214002256137000
B0858144724270N01240487EA0213402248134000
B0858184724216N01240600EA0213202248131000
B0858224724162N01240704EA0212802240125000
K085822296006
B0858264724108N01240812EA0213202248131000
B0858304724054N01240916EA0213202248123000
B0858344724004N01241016EA0212502240125000
B0858384723954N01241120EA0212002240125000
B0858424723908N01241225EA0211002224121000
K085842276009
B0858464723858N01241333EA0208502208131000
B0858504723812N01241458EA0206802184141000
B0858544723762N01241587EA0206602184150000
B0858584723712N01241712EA0209402208130000
B0859024723670N01241820EA0210602224117000
K085902286010
B0859064723629N01241920EA0210702224110000
B0859104723583N01242016EA0211102224104000
B0859144723516N01242062EA0211602232097000
B0859184723466N01241995EA0211602232104000
B0859224723450N01241900EA0211902240099000
K085922294009
B0859264723445N01241800EA0212202240101000
B0859304723454N01241708EA0213102248097000
B0859344723475N01241629EA0214202256091000
B0859384723512N01241575EA0214602264086000
B0859424723570N01241558EA0214802272085000
K085942294009
B0859464723629N01241587EA0215302272090000
B0859504723666N01241662EA0215902280094000
B0859544723679N01241758EA0216402288092000
B0859584723679N01241854EA0216202280097000
B0900024723666N01241958EA0215002272101000
K090002294009
B0900064723645N01242062EA0214102264110000
B0900104723612N01242175EA0213802256113000
B0900144723579N01242283EA0212902248121000
B0900184723541N01242391EA0212502240114000
B0900224723504N01242500EA0212302240116000
K090022294009
B0900264723466N01242612EA0212602240115000
B0900304723429N01242725EA0214002256108000
B0900344723404N01242837EA0214302264108000
B0900384723387N01242950EA0214402264108000
B0900424723366N01243062EA0214602264107000
K090042308011
B0900464723345N01243175EA0215302272110000
B0900504723329N01243287EA0216102272109000
B0900544723325N01243395EA0218402296099000
B0900584723333N01243487EA0219702312091000
B0901024723362N01243570EA0219102304099000
K090102312012
B0901064723387N01243666EA0218802304113000
B0901104723395N01243766EA0221102320095000
B0901144723408N01243854EA0222502336086000
B0901184723420N01243945EA0223002344087000
B0901224723425N01244033EA0223502352087000
K090122314009
B0901264723420N01244125EA0223802352088000
B0901304723416N01244216EA0223402352093000
B0901344723395N01244316EA0223302352100000
B0901384723375N01244412EA0224002360098000
B0901424723350N01244508EA0224902368093000
K090142348009
B0901464723320N01244595EA0224602368098000
B0901504723287N01244687EA0224602368101000
B0901544723241N01244770EA0224902368105000
B0901584723191N01244858EA0224702368109000
B0902024723150N01244950EA0224902368106000
K090202348005
B0902064723100N01245037EA0224202368108000
B0902104723050N01245133EA0223602360116000
B0902144723004N01245229EA0222902352116000
B0902184722954N01245329EA0222602344117000
B0902224722900N01245429EA0222002344120000
K090222322005
B0902264722845N01245529EA0222102344122000
B0902304722795N01245633EA0222402344120000
B0902344722745N01245737EA0222002344121000
B0902384722691N01245845EA0221302336127000
B0902424722645N01245954EA0220702328125000
K090242306008
B0902464722595N01246066EA0220302328127000
B0902504722541N01246179EA0219502320128000
B0902544722491N01246295EA0218802312134000
B0902584722445N01246416EA0218502304128000
B0903024722404N01246541EA0217102296133000
K090302298010
B0903064722354N01246666EA0216302288132000
B0903104722304N01246787EA0216102288133000
B0903144722250N01246904EA0216502288133000
B0903184722187N01247016EA0216802288126000
B0903224722137N01247133EA0216502288119000
K090322272017
B0903264722100N01247262EA0215502280126000
B0903304722075N01247400EA0215502280128000
B0903344722054N01247541EA0215702280129000
B0903384722037N01247683EA0216002280124000
B0903424722025N01247820EA0216302288120000
K090342280021
B0903464722008N01247958EA0215702280124000
B0903504721991N01248100EA0214602272129000
B0903544721975N01248250EA0213802264134000
B0903584721958N01248395EA0212902256137000
B0904024721941N01248545EA0212402248137000
K090402274021
B0904064721920N01248695EA0211902240137000
B0904104721900N01248845EA0211002232137000
B0904144721879N01248991EA0210102224140000
B0904184721854N01249141EA0209402216140000
B0904224721833N01249287EA0208902208139000
K090422266021
B0904264721808N01249433EA0208602208138000
B0904304721783N01249579EA0208102200135000
B0904344721762N01249725EA0207402192139000
B0904384721741N01249870EA0207202192135000
B0904424721716N01250016EA0206902184138000
K090442270020
B0904464721695N01250158EA0207002184136000
B0904504721670N01250295EA0207302192136000
B0904544721641N01250429EA0207402184135000
B0904584721612N01250562EA0207702184134000
B0905024721583N01250691EA0207302184135000
K090502264019
B0905064721554N01250820EA0206702176138000
B0905104721529N01250950EA0206702176137000
B0905144721500N01251079EA0206402176132000
B0905184721470N01251204EA0206302176130000
B0905224721445N01251333EA0205602168133000
K090522256013
B0905264721420N01251466EA0204902160137000
B0905304721391N01251595EA0204702160137000
B0905344721362N01251720EA0204302152136000
B0905384721329N01251845EA0204402152132000
B0905424721304N01251970EA0203902152131000
K090542262007
B0905464721270N01252091EA0203402144130000
B0905504721233N01252208EA0202802144128000
B0905544721195N01252325EA0202602136127000
B0905584721154N01252445EA0201602128127000
B0906024721108N01252562EA0200402120134000
K090602308006
B0906064721058N01252679EA0200402120132000
B0906104721012N01252795EA0200302120127000
B0906144720962N01252908EA0199602112124000
B0906184720912N01253016EA0198302096134000
B0906224720854N01253125EA0198902104132000
K090622294009
B0906264720800N01253225EA0201002128122000
B0906304720754N01253312EA0202802144111000
B0906344720708N01253387EA0204902160098000
B0906384720666N01253458EA0205702168089000
B0906424720612N01253508EA0205702176097000
K090642270013
B0906464720554N01253554EA0205702176090000
B0906504720491N01253600EA0205302168105000
B0906544720429N01253645EA0205102168105000
B0906584720366N01253695EA0204002160107000
B0907024720295N01253750EA0204102160118000
K090702248010
B0907064720229N01253804EA0206002168110000
B0907104720162N01253850EA0207702192093000
B0907144720100N01253875EA0208202200096000
B0907184720037N01253875EA0208802200094000
B0907224719970N01253883EA0207502192100000
K090722246007
B0907264719904N01253916EA0206402184110000
B0907304719833N01253966EA0206702176118000
B0907344719770N01254029EA0207902200101000
B0907384719712N01254100EA0208402200105000
B0907424719666N01254183EA0209002208098000
K090742246007
B0907464719625N01254275EA0207702192106000
B0907504719587N01254379EA0206602184116000
B0907544719554N01254487EA0206002176119000
B0907584719520N01254600EA0207602200109000
B0908024719487N01254704EA0208302208106000
K090802314007
B0908064719458N01254812EA0208202200102000
B0908104719429N01254925EA0206502192111000
B0908144719408N01255050EA0205102176117000
B0908184719383N01255175EA0203802160121000
B0908224719370N01255308EA0204002160126000
K090822304012
B0908264719358N01255441EA0204602168123000
B0908304719341N01255566EA0205102176117000
B0908344719320N01255683EA0205002168112000
B0908384719300N01255800EA0204002160116000
B0908424719283N01255920EA0203402152122000
K090842282013
B0908464719258N01256041EA0202602152120000
B0908504719233N01256162EA0203502152119000
B0908544719204N01256279EA0204002160114000
B0908584719183N01256395EA0202802152116000
B0909024719154N01256512EA0202002144115000
K090902296011
B0909064719129N01256633EA0201102136122000
B0909104719100N01256754EA0200302128119000
B0909144719066N01256879EA0199002112128000
B0909184719029N01257008EA0199402112128000
B0909224718991N01257125EA0201202128111000
K090922298012
B0909264718954N01257233EA0202702144112000
B0909304718920N01257329EA0204802168096000
B0909344718920N01257425EA0206002176097000
B0909384718979N01257450EA0206402184092000
B0909424719025N01257387EA0206602184098000
K090942292013
B0909464719012N01257304EA0206802184093000
B0909504718958N01257254EA0207702192094000
B0909544718895N01257241EA0207902200097000
B0909584718829N01257266EA0207402192096000
B0910024718770N01257333EA0206702184100000
K091002292013
B0910064718733N01257425EA0206102176105000
B0910104718700N01257529EA0205102168103000
B0910144718662N01257633EA0203802160110000
B0910184718629N01257745EA0202802144115000
B0910224718591N01257862EA0202402144120000
K091022318012
B0910264718554N01257975EA0202502144110000
B0910304718516N01258087EA0202602144116000
B0910344718483N01258200EA0202702144112000
B0910384718445N01258312EA0203002152112000
B0910424718412N01258420EA0204102152117000
K091042304012
B0910464718375N01258520EA0204802168104000
B0910504718345N01258620EA0204902168103000
B0910544718312N01258720EA0204802168102000
B0910584718283N01258820EA0204902168103000
B0911024718262N01258929EA0204302168102000
K091102288012
B0911064718233N01259037EA0203502152109000
B0911104718200N01259145EA0203002152112000
B0911144718166N01259258EA0201902136115000
B0911184718129N01259366EA0200502128120000
B0911224718083N01259479EA0198802112128000
K091122318012
B0911264718037N01259600EA0197602096135000
B0911304717987N01259725EA0196702088134000
B0911344717941N01259845EA0195902080131000
B0911384717904N01259975EA0194902064137000
B0911424717870N01300108EA0194602064132000
K091142328015
B0911464717837N01300241EA0194102056136000
B0911504717808N01300370EA0194802064128000
B0911544717783N01300495EA0195102072122000
B0911584717758N01300620EA0194402064129000
B0912024717733N01300745EA0193502056129000
K091202278013
B0912064717708N01300870EA0192302040131000
B0912104717679N01300995EA0191202032133000
B0912144717645N01301125EA0189102008140000
B0912184717608N01301258EA0187401992148000
B0912224717566N01301391EA0186001984144000
K091222296008
B0912264717525N01301529EA0183601952153000
B0912304717475N01301670EA0181901936159000
B0912344717429N01301816EA0179101912166000
B0912384717375N01301962EA0178701904165000
B0912424717325N01302104EA0179401912161000
K091242304007
B0912464717275N01302237EA0181701928147000
B0912504717237N01302350EA0185101968119000
B0912544717204N01302454EA0187101992100000
B0912584717183N01302558EA0188202000094000
B0913024717162N01302658EA0188602008092000
K091302242026
B0913064717150N01302762EA0188602008090000
B0913104717145N01302870EA0189002008092000
B0913144717133N01302975EA0189802016097000
B0913184717112N01303075EA0190502024088000
B0913224717087N01303162EA0190602024089000
K091322260019
B0913264717041N01303233EA0191302032091000
B0913304716987N01303287EA0192102040089000
B0913344716925N01303329EA0193202048085000
B0913384716862N01303337EA0193902056083000
B0913424716808N01303304EA0193702056084000
K091342250021
B0913464716750N01303275EA0193602048093000
B0913504716687N01303250EA0194302056101000
B0913544716625N01303233EA0196502072084000
B0913584716587N01303179EA0196202072093000
B0914024716600N01303104EA0196702080095000
K091402250021
B0914064716654N01303079EA0197802088096000
B0914104716708N01303141EA0198602096101000
B0914144716708N01303245EA0200202112097000
B0914184716645N01303308EA0201502120100000
B0914224716591N01303279EA0202702136088000
K091422250021
B0914264716591N01303208EA0202202128097000
B0914304716641N01303179EA0202702136103000
B0914344716700N01303220EA0203602144097000
B0914384716733N01303320EA0205402160094000
B0914424716704N01303416EA0205502160091000
K091442292025
B0914464716633N01303441EA0205002152107000
B0914504716575N01303395EA0206102168102000
B0914544716545N01303325EA0206602176091000
B0914584716554N01303250EA0206602168105000
B0915024716600N01303191EA0207402176104000
K091502290019
B0915064716658N01303170EA0208102184099000
B0915104716716N01303204EA0209302200091000
B0915144716762N01303275EA0210802208088000
B0915184716800N01303358EA0212502224082000
B0915224716820N01303454EA0210902216089000
K091522280019
B0915264716795N01303558EA0211202216094000
B0915304716733N01303616EA0211602224090000
B0915344716662N01303625EA0211402224090000
B0915384716591N01303608EA0210402208104000
B0915424716520N01303575EA0210702216115000
K091542288020
B0915464716450N01303545EA0212402232101000
B0915504716383N01303525EA0213802248098000
B0915544716325N01303491EA0215802264090000
B0915584716287N01303441EA0216502272097000
B0916024716291N01303362EA0217302280092000
K091602288020
B0916064716341N01303333EA0217502280094000
B0916104716387N01303400EA0217202280093000
B0916144716387N01303500EA0216902264093000
B0916184716337N01303587EA0217302264097000
B0916224716270N01303633EA0217902280100000
K091622288020
B0916264716200N01303654EA0217802280109000
B0916304716125N01303679EA0217502272110000
B0916344716050N01303704EA0216702264127000
B0916384715970N01303720EA0215802256120000
B0916424715887N01303733EA0213802240131000
K091642288020
B0916464715795N01303745EA0211302216137000
B0916504715700N01303758EA0208702192143000
B0916544715595N01303770EA0207402176154000
B0916584715491N01303787EA0207202168153000
B0917024715387N01303812EA0207602176144000
K091702280020
B0917064715291N01303850EA0208202184145000
B0917104715195N01303887EA0208502184137000
B0917144715104N01303920EA0208502192139000
B0917184715012N01303958EA0208202184133000
B0917224714925N01304000EA0207802184127000
K091722296015
B0917264714841N01304050EA0206202168131000
B0917304714750N01304100EA0204502152140000
B0917344714654N01304145EA0203202136149000
B0917384714558N01304191EA0203002136146000
B0917424714462N01304237EA0203002136138000
K091742296015
B0917464714375N01304291EA0203302144139000
B0917504714287N01304345EA0204002152132000
B0917544714204N01304395EA0204302152130000
B0917584714120N01304450EA0203802144123000
B0918024714037N01304516EA0204702160122000
K091802300016
B0918064713962N01304587EA0206102176120000
B0918104713900N01304654EA0207902192110000
B0918144713841N01304716EA0209402208105000
B0918184713795N01304783EA0208702200093000
B0918224713741N01304850EA0207902192108000
K091822290014
B0918264713675N01304908EA0207502192106000
B0918304713604N01304958EA0207602192113000
B0918344713533N01304995EA0209102200105000
B0918384713466N01305025EA0211002224093000
B0918424713400N01305054EA0211502224095000
K091842266021
B0918464713345N01305112EA0212002232095000
B0918504713308N01305195EA0211502232101000
B0918544713316N01305291EA0211102224105000
B0918584713366N01305350EA0211802224108000
B0919024713425N01305375EA0212602240099000
K091902262017
B0919064713483N01305375EA0213502248096000
B0919104713533N01305333EA0214502256093000
B0919144713537N01305241EA0215102264098000
B0919184713491N01305175EA0216902280089000
B0919224713429N01305200EA0217002280094000
K091922262017
B0919264713420N01305295EA0216802272103000
B0919304713462N01305366EA0217502288103000
B0919344713520N01305379EA0218402296096000
B0919384713570N01305341EA0218802304095000
B0919424713591N01305262EA0220102312098000
K091942000011
B0919464713595N01305179EA0221902328096000
B0919504713558N01305125EA0222702344089000
B0919544713495N01305166EA0222702336092000
B0919584713483N01305270EA0222802344102000
B0920024713525N01305350EA0224402352098000
K092002316010
B0920064713583N01305366EA0225602368089000
B0920104713637N01305337EA0226602376096000
B0920144713662N01305262EA0228002392095000
B0920184713641N01305183EA0229102408090000
B0920224713575N01305195EA0228702400101000
K092022304009
B0920264713537N01305287EA0230002408094000
B0920304713566N01305379EA0230902416100000
B0920344713629N01305379EA0231402424099000
B0920384713645N01305295EA0232902440099000
B0920424713604N01305229EA0234502456095000
K092042292013
B0920464713537N01305212EA0234902456095000
B0920504713475N01305229EA0234802456096000
B0920544713400N01305245EA0234902456102000
B0920584713325N01305254EA0234902456102000
B0921024713250N01305258EA0234102456114000
K092102290013
B0921064713166N01305254EA0233502448121000
B0921104713083N01305245EA0233302448115000
B0921144713004N01305233EA0232502440115000
B0921184712916N01305220EA0232302432125000
B0921224712833N01305204EA0231502424127000
K092122286014
B0921264712750N01305187EA0231302424125000
B0921304712666N01305179EA0231902432126000
B0921344712587N01305170EA0233702448117000
B0921384712512N01305170EA0235002456113000
B0921424712441N01305179EA0236302472110000
K092142288003
B0921464712375N01305191EA0237102480105000
B0921504712308N01305212EA0236802480105000
B0921544712237N01305241EA0236802480111000
B0921584712162N01305270EA0237102480111000
B0922024712087N01305295EA0238302496108000
K092202104004
B0922064712016N01305320EA0238502496104000
B0922104711941N01305345EA0237802488107000
B0922144711866N01305366EA0236602480117000
B0922184711783N01305379EA0235102464117000
B0922224711700N01305370EA0233102440130000
K092222270016
B0922264711608N01305350EA0231402424134000
B0922304711516N01305325EA0230502416139000
B0922344711420N01305295EA0229302408143000
B0922384711325N01305266EA0229302408148000
B0922424711229N01305241EA0229902408140000
K092242280023
B0922464711137N01305216EA0229402408138000
B0922504711045N01305200EA0228902400138000
B0922544710954N01305179EA0228502400137000
B0922584710862N01305162EA0227402392134000
B0923024710770N01305137EA0225902376141000
K092302296011
B0923064710670N01305116EA0224302360143000
B0923104710575N01305087EA0223202344143000
B0923144710479N01305062EA0221602328144000
B0923184710387N01305029EA0221502328143000
B0923224710300N01305000EA0222102336134000
K092322302012
B0923264710212N01304975EA0222102336127000
B0923304710129N01304950EA0220202320136000
B0923344710041N01304920EA0219302312135000
B0923384709958N01304900EA0218902304133000
B0923424709866N01304900EA0217802296136000
K092342296004
B0923464709779N01304925EA0216902288140000
B0923504709691N01304958EA0216202280137000
B0923544709600N01304987EA0216102272136000
B0923584709512N01305025EA0215702272134000
B0924024709425N01305066EA0216002272131000
K092402326003
B0924064709333N01305108EA0215202264134000
B0924104709250N01305162EA0215302272130000
B0924144709162N01305208EA0215302272129000
B0924184709083N01305262EA0215602272126000
B0924224709004N01305320EA0216002272118000
K092422310009
B0924264708925N01305375EA0215602272119000
B0924304708845N01305429EA0215102264126000
B0924344708770N01305475EA0214502264118000
B0924384708695N01305529EA0214202256119000
B0924424708625N01305587EA0213602256118000
K092442296011
B0924464708550N01305641EA0212802248123000
B0924504708470N01305695EA0212202240124000
B0924544708391N01305745EA0212002240124000
B0924584708312N01305800EA0211802232122000
B0925024708233N01305854EA0210702224124000
K092502284011
B0925064708145N01305900EA0208802200130000
B0925104708058N01305945EA0207402192132000
B0925144707970N01305987EA0206502176138000
B0925184707883N01306029EA0206102176131000
B0925224707795N01306070EA0205702168132000
K092522286014
B0925264707708N01306112EA0205702176131000
B0925304707625N01306150EA0204902168130000
B0925344707541N01306187EA0203702152133000
B0925384707454N01306225EA0203302144134000
B0925424707370N01306250EA0205402168120000
K092542276017
B0925464707295N01306279EA0206102176114000
B0925504707225N01306304EA0206602184104000
B0925544707158N01306329EA0205602176110000
B0925584707083N01306354EA0203902160121000
B0926024707004N01306387EA0202602144124000
K092602270010
B0926064706925N01306420EA0201402128124000
B0926104706841N01306466EA0199302112131000
B0926144706758N01306533EA0197502088141000
B0926184706679N01306612EA0196602080143000
B0926224706604N01306695EA0198802104133000
K092622052011
B0926264706537N01306766EA0202502144117000
B0926304706487N01306829EA0206602176088000
B0926344706429N01306858EA0207002192083000
B0926384706379N01306812EA0206402184097000
B0926424706370N01306716EA0207502184097000
K092642044009
B0926464706420N01306654EA0208902200093000
B0926504706483N01306675EA0209302192089000
B0926544706512N01306754EA0210502208097000
B0926584706487N01306833EA0212502224095000
B0927024706425N01306816EA0213600000088000
K092702108002
B0927064706412N01306733EA0213502240098000
B0927104706462N01306670EA0214302248095000
B0927144706525N01306645EA0216302264093000
B0927184706575N01306691EA0217902280090000
B0927224706562N01306779EA0218302288094000
K092722218001
B0927264706504N01306808EA0219402296095000
B0927304706458N01306737EA0220902312093000
B0927344706479N01306650EA0222702328087000
B0927384706537N01306633EA0223802336095000
B0927424706579N01306700EA0225002352093000
K092742056006
B0927464706570N01306795EA0225702360092000
B0927504706520N01306866EA0227302376092000
B0927544706458N01306862EA0228602384090000
B0927584706420N01306787EA0229402392097000
B0928024706437N01306691EA0230700000094000
K092802298002
B0928064706500N01306670EA0232102416094000
B0928104706541N01306741EA0233602432093000
B0928144706533N01306837EA0235102448089000
B0928184706479N01306895EA0236402456093000
B0928224706416N01306875EA0238102472097000
K092822256001
B0928264706395N01306791EA0238502480097000
B0928304706445N01306733EA0239702488092000
B0928344706504N01306766EA0240902504094000
B0928384706516N01306854EA0242602520090000
B0928424706466N01306920EA0243602528095000
K092842288003
B0928464706404N01306904EA0244502536094000
B0928504706370N01306825EA0245402544089000
B0928544706395N01306745EA0245302544101000
B0928584706458N01306733EA0247502568089000
B0929024706495N01306804EA0248602576096000
K092902280002
B0929064706475N01306891EA0249602584092000
B0929104706416N01306925EA0250502600086000
B0929144706362N01306883EA0250602600101000
B0929184706354N01306787EA0250702600094000
B0929224706408N01306733EA0251002608100000
K092922270002
B0929264706475N01306770EA0252902632098000
B0929304706495N01306862EA0254602640087000
B0929344706466N01306950EA0255802656086000
B0929384706404N01306979EA0256502664096000
B0929424706345N01306941EA0257002672097000
K092942264006
B0929464706329N01306854EA0256802664099000
B0929504706375N01306787EA0257502672095000
B0929544706437N01306825EA0258502688097000
B0929584706445N01306929EA0258802680106000
B0930024706404N01307029EA0258902680114000
K093002266004
B0930064706325N01307091EA0258102672129000
B0930104706233N01307120EA0257102664142000
B0930144706133N01307125EA0256902664140000
B0930184706033N01307116EA0257202664144000
B0930224705937N01307108EA0258202680132000
K093022260004
B0930264705845N01307104EA0258702688127000
B0930304705754N01307116EA0259702696109000
B0930344705670N01307150EA0260202704112000
B0930384705587N01307195EA0259802696111000
B0930424705508N01307250EA0259202696114000
K093042258004
B0930464705429N01307308EA0258802688116000
B0930504705345N01307366EA0258402688115000
B0930544705262N01307425EA0257602680128000
B0930584705179N01307479EA0257302672123000
B0931024705091N01307537EA0255802664125000
K093102318014
B0931064705004N01307600EA0254102648141000
B0931104704912N01307662EA0253502640137000
B0931144704820N01307716EA0253302640134000
B0931184704729N01307775EA0253002632133000
B0931224704641N01307833EA0252602632132000
K093122304015
B0931264704558N01307891EA0251802624135000
B0931304704470N01307950EA0253202632133000
B0931344704391N01308000EA0254102648121000
B0931384704316N01308041EA0254602656111000
B0931424704241N01308079EA0254702656110000
K093142278021
B0931464704170N01308125EA0254902656108000
B0931504704095N01308166EA0255102656109000
B0931544704025N01308208EA0255302656108000
B0931584703950N01308250EA0255202656108000
B0932024703879N01308295EA0255002656110000
K093202282014
B0932064703804N01308337EA0254102648114000
B0932104703733N01308387EA0253702648116000
B0932144703658N01308437EA0252602632121000
B0932184703583N01308495EA0251802624127000
B0932224703508N01308558EA0251702624127000
K093222280005
B0932264703437N01308620EA0251402624121000
B0932304703362N01308683EA0251102616125000
B0932344703287N01308750EA0250002608126000
B0932384703212N01308816EA0249102600129000
B0932424703137N01308887EA0248502592128000
K093242280005
B0932464703062N01308962EA0248102592130000
B0932504702991N01309045EA0248202592123000
B0932544702929N01309141EA0247202584126000
B0932584702883N01309254EA0247102584126000
B0933024702841N01309370EA0247702584122000
K093302292005
B0933064702800N01309479EA0248302592119000
B0933104702762N01309591EA0248702592119000
B0933144702729N01309704EA0248902600112000
B0933184702700N01309812EA0248702600112000
B0933224702666N01309925EA0248902600115000
K093322310009
B0933264702633N01310029EA0249602608109000
B0933304702595N01310133EA0250402616107000
B0933344702566N01310237EA0251702624101000
B0933384702541N01310337EA0253602640098000
B0933424702529N01310429EA0254802656091000
K093342314009
B0933464702566N01310475EA0254502656094000
B0933504702612N01310437EA0254902664096000
B0933544702616N01310350EA0255902672093000
B0933584702570N01310283EA0256602680087000
B0934024702500N01310304EA0255302664104000
K093402314009
B0934064702458N01310395EA0254802664106000
B0934104702445N01310500EA0255402672106000
E093413PEV MARKER BUTTON PRESSED
B0934134702441N01310579EA0255602672104000
E093414PEV MARKER BUTTON PRESSED
B0934144702441N01310604EA0255702672102000
E093415PEV MARKER BUTTON PRESSED
B0934154702437N01310633EA0255702672103000
B0934164702433N01310658EA0255702672103000
B0934174702429N01310687EA0255802672101000
B0934184702425N01310712EA0255802672102000
B0934194702416N01310741EA0255502672102000
B0934204702408N01310766EA0255502672103000
B0934214702400N01310791EA0255402672103000
B0934224702387N01310820EA0255302672103000
K093422318010
B0934234702375N01310841EA0254902672106000
B0934244702358N01310866EA0254702664106000
B0934264702325N01310908EA0254302656110000
B0934304702245N01310975EA0253102648114000
B0934344702154N01311033EA0251702632123000
B0934384702062N01311079EA0250502624120000
B0934424701962N01311125EA0247902592138000
K093442318010
B0934464701854N01311166EA0246802584155000
B0934504701750N01311208EA0246902584146000
B0934544701641N01311245EA0246602584156000
B0934584701537N01311283EA0247702592137000
B0935024701441N01311312EA0248202600125000
K093502306020
B0935064701350N01311337EA0248302600115000
B0935104701258N01311354EA0247202592125000
B0935144701162N01311379EA0246602584129000
B0935184701066N01311404EA0245602576138000
B0935224700975N01311433EA0245202568128000
K093522320020
B0935264700879N01311458EA0243802552129000
B0935304700787N01311491EA0241202528134000
B0935344700687N01311529EA0238202496142000
B0935384700579N01311562EA0235002464151000
B0935424700470N01311587EA0232902440160000
K093542328015
B0935464700358N01311604EA0231502424161000
B0935504700245N01311625EA0230102416163000
B0935544700133N01311650EA0229102408160000
B0935584700025N01311683EA0228902400153000
B0936024659916N01311729EA0228902400154000
K093602350012
B0936064659816N01311783EA0228902400148000
B0936104659716N01311845EA0228402400137000
B0936144659625N01311916EA0226702384147000
B0936184659529N01311995EA0224202352150000
B0936224659425N01312066EA0222802336152000
K093622006018
B0936264659320N01312133EA0220502320162000
B0936304659208N01312187EA0220502312167000
B0936344659100N01312233EA0220602320159000
B0936384658991N01312270EA0220002312147000
B0936424658887N01312308EA0219802312152000
K093642292024
B0936464658783N01312354EA0220102312150000
B0936504658679N01312400EA0220302312152000
B0936544658587N01312450EA0221802336132000
B0936584658504N01312504EA0222002336126000
B0937024658425N01312558EA0221602328125000
K093702308019
B0937064658345N01312612EA0220302320126000
B0937104658262N01312675EA0219102304131000
B0937144658175N01312737EA0218402296136000
B0937184658091N01312804EA0218202296131000
B0937224658008N01312883EA0218402296125000
K093722312013
B0937264657925N01312970EA0218502296130000
B0937304657841N01313062EA0218502296127000
B0937344657758N01313150EA0218002296132000
B0937384657675N01313245EA0218402296137000
B0937424657600N01313325EA0220302312113000
K093742322021
B0937464657529N01313400EA0220702320107000
B0937504657462N01313479EA0220102312112000
B0937544657387N01313566EA0218902304122000
B0937584657312N01313658EA0218402288130000
B0938024657241N01313754EA0220602320111000
K093802336024
B0938064657175N01313837EA0221902336109000
B0938104657116N01313925EA0222802336106000
B0938144657075N01314020EA0223702352096000
B0938184657033N01314112EA0223402344097000
B0938224656987N01314204EA0222102336105000
K093822304022
B0938264656937N01314300EA0221402328113000
B0938304656887N01314395EA0220902320117000
B0938344656829N01314491EA0221202320115000
B0938384656779N01314583EA0221702328111000
B0938424656729N01314675EA0224302352105000
K093842302012
B0938464656679N01314758EA0228602392092000
B0938504656658N01314854EA0229902408094000
B0938544656708N01314937EA0230702416105000
B0938584656779N01314916EA0232802440095000
B0939024656795N01314829EA0233702448099000
K093902306013
B0939064656750N01314762EA0235102464103000
B0939104656683N01314783EA0237902488091000
B0939144656633N01314858EA0239202504095000
B0939184656666N01314958EA0239602512094000
B0939224656733N01314979EA0240102512100000
K093922258012
B0939264656787N01314920EA0241402528096000
B0939304656795N01314829EA0242202536095000
B0939344656754N01314766EA0243502552097000
B0939384656687N01314737EA0246702576091000
B0939424656625N01314783EA0247202584102000
K093942266008
B0939464656637N01314900EA0248502600094000
B0939504656700N01314937EA0249102608093000
B0939544656750N01314883EA0249302608094000
B0939584656745N01314791EA0249802616112000
B0940024656695N01314716EA0252102640101000
K094002268015
B0940064656633N01314670EA0254502656099000
B0940104656570N01314712EA0256202672096000
B0940144656579N01314820EA0256402680098000
B0940184656641N01314862EA0257802688098000
B0940224656695N01314808EA0259202704103000
K094022282011
B0940264656683N01314720EA0260902720098000
B0940304656616N01314687EA0261902728101000
B0940344656550N01314729EA0263202744108000
B0940384656520N01314837EA0264902760099000
B0940424656575N01314904EA0265302768103000
K094042276012
B0940464656637N01314875EA0266602784097000
B0940504656650N01314783EA0268402800106000
B0940544656600N01314729EA0270502816093000
B0940584656533N01314783EA0270802824100000
B0941024656525N01314895EA0272302840098000
K094102306011
B0941064656575N01314970EA0273002840107000
B0941104656641N01314970EA0274102856095000
B0941144656683N01314895EA0273702848090000
B0941184656679N01314800EA0275102864104000
B0941224656629N01314729EA0276602880095000
K094122306008
B0941264656562N01314700EA0277302880096000
B0941304656495N01314729EA0278702896087000
B0941344656462N01314816EA0279402904093000
B0941384656483N01314912EA0279002904100000
B0941424656541N01314970EA0279602912095000
K094142322006
B0941464656604N01314962EA0280402912103000
