AZAN5BC ZANDER/SDI GP941 V2.06
HFDTE070804
HFFXA050
HFPLT Pilot             :Alfred Siegert                          
HFGTY Glider type       :Ventus 2cxM                             
HFGID Glider ID         :D-KALI    
HFDTM100 GPS Datum      :WGS84
HFRFW Firmware Version  :06
HFRHW Hardware version  :2
HFFTY FR Type           :ZANDER/SDI GP941
HFGPS                   :Garmin,GPS25,12,30000
HFPRS Press Alt Sensor  :Intersema,MS5534A,10000
HFCCL Competition Class :18 m                                    
HFCID Competition ID    :LI        
I023638IAS3941ENL
J020810WDI1113WVE
LZAN 081021 PowerOn
B0810254743845N01226320EV0053600000000000
B0810294743845N01226320EV0053600000000000
B0810334743845N01226320EV0053500000000000
B0810374743845N01226320EV0053500000000000
B0810414743845N01226320EV0053500000000000
B0810454743845N01226320EV0053500000000000
B0810494743845N01226320EV0053500000000000
B0810534743845N01226320EV0053500000000000
B0810574743845N01226320EV0053500000000000
B0811014743841N01226320EA0053500000000000
B0811054743833N01226320EA0053500000000000
B0811094743833N01226320EA0053500584000000
B0811134743837N01226320EA0053500576000000
B0811174743837N01226320EA0053500576000000
B0811214743833N01226320EA0053500576000000
B0811254743833N01226320EA0053500576000000
B0811294743837N01226320EA0053500568000000
B0811334743837N01226320EA0053500568000000
B0811374743837N01226320EA0053500568000000
B0811414743837N01226320EA0053500568000000
B0811454743837N01226320EA0053500568000000
B0811494743837N01226320EA0053500568000000
B0811534743837N01226320EA0053500568000000
B0811574743837N01226320EA0053500568000000
B0812014743837N01226320EA0053500568000000
B0812054743841N01226320EA0053500568000000
B0812094743841N01226320EA0053500568000000
B0812134743841N01226320EA0053500568000000
B0812174743841N01226320EA0053500568000000
B0812214743841N01226320EA0053500568000000
B0812254743837N01226320EA0053500568000000
B0812294743837N01226320EA0053500568000000
B0812334743833N01226316EA0053500568000000
B0812374743833N01226316EA0053500568000000
B0812414743833N01226312EA0053500560000000
B0812454743833N01226312EA0053500560000004
B0812494743833N01226312EA0053500560000000
B0812534743829N01226312EA0053500568000000
B0812574743829N01226308EA0053500568000000
B0813014743829N01226308EA0053500568000000
B0813054743829N01226308EA0053500568000000
B0813094743829N01226308EA0053500576000000
B0813134743829N01226308EA0053500568000000
B0813174743829N01226308EA0053500568000000
B0813214743833N01226312EA0053500568000000
B0813254743833N01226312EA0053500568000000
B0813294743829N01226308EA0053500568000000
B0813334743829N01226308EA0053500568000000
B0813374743829N01226312EA0053500568000000
B0813414743829N01226312EA0053500568000000
B0813454743829N01226312EA0053500568000000
B0813494743829N01226308EA0053500568000000
B0813534743829N01226308EA0053500568000000
B0813574743829N01226308EA0053500568000000
B0814014743829N01226308EA0053500568000000
B0814054743829N01226308EA0053500568000000
B0814094743829N01226308EA0053500568000000
B0814134743829N01226308EA0053500568000000
B0814174743829N01226308EA0053500568000000
B0814214743829N01226308EA0053500568000000
B0814254743829N01226308EA0053500576000000
B0814294743829N01226308EA0053500576000000
B0814334743829N01226308EA0053500576000000
B0814374743829N01226308EA0053500576000000
B0814414743829N01226308EA0053500576000000
B0814454743829N01226308EA0053500576000000
B0814494743829N01226308EA0053500576000000
B0814534743829N01226308EA0053500568000000
B0814574743829N01226308EA0053500568000000
B0815014743829N01226308EA0053500568000000
B0815054743829N01226308EA0053500568000000
B0815094743829N01226308EA0053500568000000
B0815134743829N01226308EA0053500568000000
B0815174743829N01226308EA0053500568000000
B0815214743829N01226308EA0053500568000000
B0815254743829N01226308EA0053500568000000
B0815294743829N01226308EA0053500568000000
B0815334743829N01226308EA0053500568000000
B0815374743829N01226312EA0053500568000000
B0815414743829N01226312EA0053500568000000
B0815454743829N01226312EA0053500576000000
B0815494743829N01226312EA0053500568000000
B0815534743829N01226312EA0053500576000000
B0815574743829N01226308EA0053500576000000
B0816014743829N01226312EA0053300568000000
B0816054743829N01226312EA0053300568000000
B0816094743829N01226312EA0053300568000000
B0816134743829N01226312EA0053400568000000
B0816174743829N01226312EA0053400568000000
B0816214743829N01226312EA0053400568000000
B0816254743829N01226312EA0053400568000000
B0816294743829N01226308EA0053400568000000
B0816334743829N01226312EA0053400568000000
B0816374743829N01226312EA0053400568000000
B0816414743829N01226312EA0053400568000000
B0816454743829N01226312EA0053400568000000
B0816494743829N01226308EA0053400568000000
B0816534743829N01226308EA0053400568000000
B0816574743829N01226312EA0053400568000000
B0817014743829N01226312EA0053500568000000
B0817054743829N01226312EA0053500568000000
B0817094743829N01226312EA0053500568000000
B0817134743829N01226312EA0053500568000000
B0817174743829N01226308EA0053500568000000
B0817214743829N01226308EA0053500568000000
B0817254743829N01226308EA0053500568000000
B0817294743829N01226308EA0053500568000000
B0817334743829N01226308EA0053500568000000
B0817374743829N01226308EA0053500568000000
B0817414743829N01226308EA0053500568000004
B0817454743829N01226308EA0053500568000000
B0817494743829N01226312EA0053500568000004
B0817534743829N01226312EA0053500568000004
B0817574743829N01226312EA0053500568000004
B0818014743829N01226312EA0053500568000004
B0818054743829N01226312EA0053500568000000
B0818094743829N01226312EA0053500568000000
B0818134743829N01226312EA0053500560000000
B0818174743829N01226312EA0053500568000000
B0818214743829N01226312EA0053500560000000
B0818254743829N01226312EA0053500560000000
B0818294743829N01226312EA0053500560000000
B0818334743833N01226312EA0053500560000000
B0818374743833N01226312EA0053500560000000
B0818414743833N01226312EA0053500560000000
B0818454743833N01226312EA0053500560000000
B0818494743833N01226312EA0053500560000000
B0818534743833N01226312EA0053500560000000
B0818574743833N01226312EA0053300560000000
B0819014743833N01226312EA0053300560000000
B0819054743833N01226312EA0053400560000000
B0819094743833N01226312EA0053400560000000
B0819134743833N01226312EA0053400560000000
B0819174743833N01226312EA0053400560000000
B0819214743833N01226312EA0053400560000000
B0819254743833N01226312EA0053400560000000
B0819294743833N01226312EA0053400560000000
B0819334743833N01226312EA0053400560000000
B0819374743833N01226312EA0053400560000000
B0819414743829N01226312EA0053400560000000
B0819454743833N01226312EA0053400560000000
B0819494743833N01226312EA0053400560000000
B0819534743833N01226312EA0053400560000000
B0819574743833N01226312EA0053400560000004
B0820014743833N01226312EA0053400560000000
B0820054743833N01226312EA0053400560000004
B0820094743829N01226312EA0053500560000004
B0820134743829N01226312EA0053500560000004
B0820174743829N01226312EA0053500560000004
B0820214743829N01226312EA0053500560000004
B0820254743829N01226312EA0053500560000004
B0820294743829N01226312EA0053500560000000
B0820334743829N01226312EA0053500560000000
B0820374743833N01226312EA0053500560000004
B0820414743833N01226308EA0053500560000000
B0820454743833N01226312EA0053500560000004
B0820494743833N01226312EA0053500560000004
B0820534743833N01226312EA0053500560000004
B0820574743833N01226312EA0053500560000004
B0821014743833N01226312EA0053500560000004
B0821054743829N01226312EA0053500568000004
B0821094743833N01226312EA0053500568000004
B0821134743829N01226312EA0053500568000004
B0821174743829N01226312EA0053500568000004
B0821214743833N01226312EA0053500568000004
B0821254743833N01226312EA0053500568000000
B0821294743829N01226312EA0053500560000000
B0821334743829N01226312EA0053500560000000
B0821374743829N01226312EA0053500560000000
B0821414743829N01226312EA0053500560000000
B0821454743829N01226312EA0053600560000000
B0821494743829N01226312EA0053600560000000
B0821534743829N01226312EA0053600560000000
B0821574743829N01226312EA0053600560000000
B0822014743829N01226312EA0053600560000000
B0822054743829N01226312EA0053600560000000
B0822094743829N01226312EA0053600560000000
B0822134743829N01226312EA0053600560000000
B0822174743829N01226312EA0053600568000000
B0822214743829N01226312EA0053600568000000
B0822254743829N01226312EA0053600568000000
B0822294743829N01226312EA0053600568000000
B0822334743829N01226312EA0053600568000000
B0822374743829N01226312EA0053600568000000
B0822414743829N01226308EA0053600568000000
B0822454743833N01226308EA0053700568000000
B0822494743833N01226308EA0053700568000000
B0822534743829N01226308EA0053700568000000
B0822574743829N01226308EA0053700568000000
B0823014743829N01226308EA0053700568000000
B0823054743829N01226308EA0053700568000000
B0823094743829N01226308EA0053700568000000
B0823134743829N01226308EA0053700568000000
B0823174743829N01226308EA0053700568000000
B0823214743829N01226308EA0053700568000000
B0823254743829N01226308EA0053700568000000
B0823294743829N01226308EA0053600568000000
B0823334743829N01226308EA0053600568000000
B0823374743829N01226308EA0053600568000000
B0823414743829N01226308EA0053600568000000
B0823454743829N01226308EA0053600568000000
B0823494743829N01226308EA0053600568000000
B0823534743829N01226308EA0053600568000000
B0823574743829N01226308EA0053600568000000
B0824014743829N01226308EA0053600568000000
B0824054743829N01226308EA0053600576000000
B0824094743829N01226308EA0053600568000000
B0824134743829N01226308EA0053600568000000
B0824174743829N01226308EA0053600568000000
B0824214743829N01226308EA0053600568000000
B0824254743829N01226308EA0053500568000000
B0824294743829N01226308EA0053500568000000
B0824334743829N01226308EA0053500568000000
B0824374743829N01226308EA0053500568000000
B0824414743829N01226308EA0053500568000000
B0824454743829N01226308EA0053500568000000
B0824494743829N01226308EA0053500568000000
B0824534743829N01226308EA0053500568000000
B0824574743829N01226308EA0053500568000000
B0825014743829N01226308EA0053500568000000
B0825054743829N01226308EA0053500568000000
B0825094743829N01226308EA0053500568000000
B0825134743829N01226308EA0053500568000000
B0825174743829N01226308EA0053500568000000
B0825214743829N01226308EA0053500568000000
B0825254743829N01226308EA0053500568000000
B0825294743829N01226308EA0053500568000000
B0825334743829N01226308EA0053500568000000
B0825374743829N01226308EA0053500568000000
B0825414743829N01226308EA0053500568000000
B0825454743829N01226308EA0053500568000000
B0825494743829N01226308EA0053500568000000
B0825534743829N01226308EA0053500568000000
B0825574743829N01226308EA0053500568000000
B0826014743829N01226308EA0053500576000000
B0826054743829N01226308EA0053500576000000
B0826094743829N01226308EA0053500576000000
B0826134743829N01226308EA0053500576000000
B0826174743829N01226308EA0053500576000000
B0826214743829N01226308EA0053500576000000
B0826254743829N01226308EA0053500576000000
B0826294743829N01226308EA0053500568000000
B0826334743829N01226308EA0053500568000000
B0826374743829N01226308EA0053500568000000
B0826414743829N01226308EA0053500568000000
B0826454743829N01226308EA0053600568000000
B0826494743829N01226308EA0053600568000000
B0826534743829N01226308EA0053600568000000
B0826574743829N01226308EA0053600576000000
B0827014743829N01226308EA0053600576000000
B0827054743829N01226308EA0053600576000000
B0827094743829N01226308EA0053600576000000
B0827134743829N01226308EA0053600576000000
B0827174743829N01226308EA0053600576000000
B0827214743829N01226308EA0053600576000000
B0827254743829N01226308EA0053600568000000
B0827294743829N01226308EA0053600568000000
B0827334743829N01226312EA0053600568000000
B0827374743829N01226312EA0053600568000000
B0827414743829N01226312EA0053600568000000
B0827454743829N01226312EA0053600568000000
B0827494743829N01226312EA0053600568000000
B0827534743829N01226312EA0053600560000000
B0827574743829N01226312EA0053600568000000
B0828014743829N01226312EA0053600568000000
B0828054743829N01226312EA0053600568000000
B0828094743829N01226312EA0053600568000000
B0828134743829N01226312EA0053600568000000
B0828174743829N01226312EA0053600568000000
B0828214743829N01226312EA0053600568000000
B0828254743829N01226312EA0053600568000000
B0828294743829N01226312EA0053600568000000
B0828334743829N01226308EA0053600568000000
B0828374743829N01226308EA0053600568000000
B0828414743829N01226308EA0053600568000000
B0828454743829N01226308EA0053600568000000
B0828494743829N01226308EA0053600568000000
B0828534743829N01226308EA0053600568000000
B0828574743829N01226308EA0053600568000000
B0829014743829N01226308EA0053600568000000
B0829054743829N01226308EA0053600568000000
B0829094743829N01226308EA0053600568000000
B0829134743829N01226308EA0053600568000000
B0829174743829N01226308EA0053600568000000
B0829214743829N01226308EA0053600568000000
B0829254743829N01226312EA0053600568000000
B0829294743829N01226312EA0053600568000000
B0829334743829N01226312EA0053600568000000
B0829374743829N01226312EA0053600568000000
B0829414743829N01226312EA0053600568000000
B0829454743829N01226312EA0053600568000000
B0829494743829N01226312EA0053600568000000
B0829534743829N01226312EA0053600568000000
B0829574743829N01226312EA0053600568000000
B0830014743829N01226312EA0053600568000000
B0830054743829N01226312EA0053600568000000
B0830094743829N01226312EA0053600568000000
B0830134743829N01226312EA0053600568000000
B0830174743829N01226312EA0053600568000000
B0830214743829N01226312EA0053600568000000
B0830254743829N01226312EA0053600568000000
B0830294743829N01226312EA0053600568000000
B0830334743829N01226312EA0053700568000000
B0830374743829N01226308EA0053700568000000
B0830414743829N01226312EA0053800568000000
B0830454743829N01226312EA0053800568000000
B0830494743829N01226312EA0053800568000000
B0830534743829N01226312EA0053800568000000
B0830574743829N01226312EA0053700576000000
B0831014743829N01226308EA0053700576000000
B0831054743829N01226308EA0053700576000000
B0831094743829N01226308EA0053700576000000
B0831134743829N01226312EA0053700576000000
B0831174743829N01226308EA0053700576000000
B0831214743825N01226308EA0053700576000000
B0831254743825N01226308EA0053700576000000
B0831294743829N01226308EA0053700576000000
B0831334743825N01226308EA0053700576000000
B0831374743825N01226308EA0053700576000000
B0831414743825N01226308EA0053700576000000
B0831454743825N01226308EA0053700576000000
B0831494743825N01226308EA0053700576000000
B0831534743829N01226308EA0053700576000000
B0831574743825N01226308EA0053700576000000
B0832014743829N01226308EA0053700576000000
B0832054743829N01226308EA0053700576000000
B0832094743829N01226308EA0053700576000000
B0832134743829N01226308EA0053700576000000
B0832174743829N01226308EA0053700576000000
B0832214743829N01226308EA0053700576000000
B0832254743829N01226308EA0053700576000000
B0832294743829N01226308EA0053700576000000
B0832334743829N01226308EA0053700576000000
B0832374743829N01226308EA0053800576000000
B0832414743829N01226312EA0053800576000000
B0832454743825N01226312EA0053800576000000
B0832494743825N01226312EA0053800576000000
B0832534743825N01226312EA0053800568000000
B0832574743825N01226316EA0053700568000000
B0833014743825N01226316EA0053700568000000
B0833054743825N01226316EA0053700576000000
B0833094743825N01226316EA0053700576000000
B0833134743825N01226316EA0053700568000000
B0833174743825N01226316EA0053700568000000
B0833214743825N01226316EA0053700568000000
B0833254743825N01226316EA0053700568000000
B0833294743825N01226316EA0053700568000000
B0833334743825N01226316EA0053700568000000
B0833374743825N01226316EA0053700568000000
B0833414743825N01226316EA0053700568000000
B0833454743825N01226316EA0053700568000000
B0833494743825N01226316EA0053700568000000
B0833534743825N01226316EA0053700568000000
B0833574743825N01226316EA0053700568000000
B0834014743825N01226316EA0053700568000000
B0834054743825N01226316EA0053700568000000
B0834094743825N01226316EA0053700568000000
B0834134743825N01226316EA0053700568000000
B0834174743825N01226316EA0053700568000000
B0834214743825N01226316EA0053700568000000
B0834254743825N01226316EA0053700568000000
B0834294743825N01226316EA0053700568000000
B0834334743829N01226316EA0053700568000000
B0834374743829N01226316EA0053700568000000
B0834414743825N01226316EA0053700568000000
B0834454743825N01226312EA0053700568000000
B0834494743825N01226312EA0053600568000000
B0834534743820N01226308EA0053600568000000
B0834574743820N01226304EA0053600568000000
B0835014743820N01226300EA0053600568000004
B0835054743816N01226295EA0053600568000000
B0835094743816N01226295EA0053600560000004
B0835134743816N01226291EA0053600568000004
B0835174743812N01226287EA0053600560000004
B0835214743812N01226283EA0053600560000004
B0835254743812N01226279EA0053600560000004
B0835294743808N01226279EA0053600560000004
B0835334743808N01226275EA0053600560000004
B0835374743808N01226270EA0053600560000004
B0835414743804N01226266EA0053600560000004
B0835454743804N01226266EA0053600560000004
B0835494743804N01226262EA0053600560000004
B0835534743800N01226258EA0053600560000004
B0835574743800N01226254EA0053600560000004
B0836014743800N01226250EA0053600560000004
B0836054743795N01226250EA0053600560000004
B0836094743795N01226245EA0053600560000004
B0836134743795N01226241EA0053600560000004
B0836174743795N01226237EA0053600560000004
B0836214743791N01226233EA0053600560000004
B0836254743791N01226233EA0053600560000004
B0836294743791N01226229EA0053600560000004
B0836334743787N01226225EA0053600560000004
B0836374743787N01226220EA0053600560000004
B0836414743783N01226216EA0053600560000004
B0836454743783N01226216EA0053600560000004
B0836494743783N01226212EA0053600560000004
B0836534743779N01226208EA0053600560000004
B0836574743779N01226204EA0053600560000004
B0837014743779N01226200EA0053600560000004
B0837054743775N01226195EA0053600560000004
B0837094743775N01226191EA0053600560000004
B0837134743775N01226187EA0053800560000004
B0837174743770N01226187EA0053800560000004
B0837214743770N01226183EA0053800560000004
B0837254743770N01226179EA0053800560000004
B0837294743766N01226175EA0053800560000004
B0837334743766N01226170EA0053800560000004
B0837374743762N01226170EA0053800560000004
B0837414743762N01226166EA0053800560000004
B0837454743762N01226162EA0053800560000004
B0837494743758N01226158EA0053800560000004
B0837534743754N01226154EA0053800560000004
B0837574743754N01226150EA0053800560000004
B0838014743754N01226145EA0053800568000004
B0838054743750N01226145EA0053800560000004
B0838094743750N01226141EA0053800560000004
B0838134743745N01226137EA0053800568000004
B0838174743745N01226137EA0053800568000004
B0838214743745N01226133EA0053800568000004
B0838254743741N01226133EA0053800568000004
B0838294743741N01226133EA0053800568000000
B0838334743741N01226133EA0053800568000000
B0838374743745N01226133EA0053800568000000
B0838414743741N01226133EA0053800568000000
B0838454743741N01226133EA0053800568000000
B0838494743737N01226129EA0053800568000000
B0838534743737N01226133EA0053800568000000
B0838574743733N01226133EA0053800568000000
B0839014743729N01226137EA0053800568000004
B0839054743729N01226137EA0053800568000000
B0839094743725N01226141EA0053800568000004
B0839134743725N01226145EA0053800568000004
B0839174743720N01226145EA0053800568000004
B0839214743720N01226145EA0053800568000004
B0839254743716N01226150EA0053800560000004
B0839294743712N01226154EA0053800560000004
B0839334743712N01226154EA0053800560000004
B0839374743708N01226158EA0053800560000004
B0839414743704N01226158EA0053800560000004
B0839454743704N01226162EA0053800560000004
B0839494743700N01226162EA0053800560000004
B0839534743700N01226166EA0053800560000004
B0839574743695N01226166EA0053800560000004
B0840014743695N01226170EA0053800560000004
B0840054743695N01226170EA0053800560000004
B0840094743695N01226170EA0053800560000004
B0840134743691N01226170EA0053800560000000
B0840174743695N01226170EA0053800560000000
B0840214743691N01226170EA0053800560000000
B0840254743691N01226175EA0053800560000000
B0840294743687N01226170EA0053800560000000
B0840334743687N01226170EA0053800560000000
B0840374743687N01226170EA0053800560000004
B0840414743687N01226170EA0053800560000000
B0840454743687N01226170EA0053800560000000
B0840494743687N01226170EA0053800560000000
B0840534743687N01226170EA0053800560000000
B0840574743687N01226170EA0053800560000000
B0841014743687N01226170EA0053800568000000
B0841054743687N01226170EA0053800568000000
B0841094743691N01226170EA0053800568000000
B0841134743687N01226170EA0053800568000000
B0841174743691N01226170EA0053800568000000
B0841214743691N01226170EA0053800568000000
B0841254743687N01226170EA0053800568000000
B0841294743687N01226170EA0053800568000000
B0841334743687N01226170EA0053800568000000
B0841374743687N01226175EA0053800568000000
B0841414743687N01226175EA0053800568000000
B0841454743687N01226175EA0053800568000000
B0841494743687N01226170EA0053800568000000
B0841534743687N01226170EA0053800568000000
B0841574743687N01226170EA0053800568000000
B0842014743687N01226170EA0053800568000000
B0842054743687N01226170EA0053800568000000
B0842094743691N01226170EA0053800568000000
B0842134743691N01226170EA0053800568000000
B0842174743687N01226170EA0053800568000000
B0842214743691N01226170EA0053800568000000
B0842254743691N01226170EA0053800568000000
B0842294743687N01226170EA0053800568000000
B0842334743687N01226170EA0053800568000000
B0842374743687N01226170EA0053800568000000
B0842414743687N01226170EA0053800560000000
B0842454743687N01226170EA0053800560000000
B0842494743687N01226175EA0053700560000000
B0842534743687N01226175EA0053700560000000
B0842574743687N01226175EA0053700568000000
B0843014743687N01226175EA0053700568000000
B0843054743687N01226170EA0053700568000000
B0843094743687N01226170EA0053700568000000
B0843134743687N01226170EA0053700568000000
B0843174743687N01226175EA0053700568000000
B0843214743687N01226170EA0053700568000000
B0843254743687N01226170EA0053700568000000
B0843294743687N01226170EA0053700568000000
B0843334743687N01226170EA0053700568000000
B0843374743687N01226170EA0053700568000000
B0843414743687N01226170EA0053700568000000
B0843454743687N01226175EA0053800568000000
B0843494743687N01226175EA0053800568000000
B0843534743687N01226175EA0053800568000000
B0843574743687N01226175EA0053800568000000
B0844014743687N01226175EA0053800568000000
B0844054743687N01226175EA0053800568000000
B0844094743687N01226175EA0053800568000000
B0844134743687N01226175EA0053800568000000
B0844174743687N01226175EA0053800568000000
B0844214743687N01226175EA0053800568000000
B0844254743687N01226175EA0053800568000000
B0844294743687N01226175EA0053800568000000
B0844334743687N01226175EA0053800568000000
B0844374743687N01226175EA0053700568000000
B0844414743687N01226175EA0053700568000000
B0844454743687N01226170EA0053700568000000
B0844494743691N01226170EA0053700568000000
B0844534743691N01226175EA0053700568000000
B0844574743695N01226175EA0053700568000000
B0845014743695N01226179EA0053700568000004
B0845054743700N01226179EA0053700568000000
B0845094743700N01226183EA0053700568000008
B0845134743700N01226187EA0053700568000008
B0845174743704N01226187EA0053700568000008
B0845214743704N01226191EA0053700568000008
B0845254743704N01226191EA0053700568000004
B0845294743704N01226195EA0053700568000008
B0845334743704N01226195EA0053700568000000
B0845374743704N01226195EA0053700568000000
B0845414743704N01226195EA0053800568000000
B0845454743704N01226195EA0053800568000000
B0845494743704N01226195EA0053800568000000
B0845534743704N01226195EA0053800568000000
B0845574743704N01226195EA0053800568000000
B0846014743704N01226195EA0053800568000000
B0846054743704N01226195EA0053800568000000
B0846094743704N01226195EA0053800576000000
B0846134743704N01226195EA0053800568000000
B0846174743704N01226195EA0053800576000000
B0846214743704N01226191EA0053800576000000
B0846254743704N01226191EA0053800576000000
B0846294743704N01226191EA0053800576000000
B0846334743704N01226191EA0053800568000000
B0846374743704N01226191EA0053800568000000
B0846414743704N01226191EA0053800568000000
B0846454743704N01226191EA0053800568000000
B0846494743704N01226195EA0053800568000000
B0846534743704N01226195EA0053800568000000
B0846574743704N01226195EA0053800568000000
B0847014743704N01226195EA0053800568000000
B0847054743704N01226195EA0053800568000000
B0847094743704N01226195EA0053800568000000
B0847134743704N01226195EA0053800568000000
B0847174743704N01226195EA0053800568000000
B0847214743704N01226195EA0053800568000000
B0847254743708N01226195EA0053700568000000
B0847294743708N01226195EA0053700568000000
B0847334743708N01226195EA0053700568000000
B0847374743708N01226195EA0053700568000000
B0847414743708N01226195EA0053700568000000
B0847454743708N01226195EA0053700568000000
B0847494743708N01226195EA0053700560000000
B0847534743704N01226195EA0053700560000000
B0847574743704N01226195EA0053700560000000
B0848014743704N01226195EA0053700560000000
B0848054743704N01226195EA0053700560000000
B0848094743704N01226195EA0053700560000000
B0848134743704N01226195EA0053700560000000
B0848174743704N01226191EA0053700568000000
B0848214743704N01226195EA0053700560000000
B0848254743704N01226195EA0053700560000000
B0848294743704N01226195EA0053700560000000
B0848334743704N01226195EA0053700560000000
B0848374743704N01226195EA0053700560000000
B0848414743704N01226195EA0053700560000000
B0848454743704N01226195EA0053700560000000
B0848494743704N01226195EA0053700560000000
B0848534743704N01226195EA0053700560000000
B0848574743704N01226195EA0053700560000000
B0849014743704N01226195EA0053700560000000
B0849054743704N01226195EA0053700560000000
B0849094743704N01226195EA0053700560000000
B0849134743704N01226195EA0053700560000000
B0849174743704N01226195EA0053700560000000
B0849214743704N01226195EA0053700560000000
B0849254743704N01226195EA0053700560000000
B0849294743704N01226195EA0053700560000000
B0849334743708N01226195EA0053700560000000
B0849374743708N01226200EA0053700560000000
B0849414743708N01226204EA0053700560000004
B0849454743712N01226208EA0053700560000000
B0849494743712N01226208EA0053700560000004
B0849534743712N01226212EA0053700560000004
B0849574743712N01226212EA0053700560000004
B0850014743712N01226212EA0053700560000004
B0850054743712N01226212EA0053700560000000
B0850094743712N01226212EA0053700560000000
B0850134743712N01226212EA0053700568000000
B0850174743712N01226212EA0053700568000000
B0850214743712N01226212EA0053700568000000
B0850254743712N01226212EA0053700568000000
B0850294743712N01226212EA0053700560000000
B0850334743712N01226212EA0053700560000000
B0850374743712N01226212EA0053700568000000
B0850414743712N01226212EA0053700568000000
B0850454743712N01226212EA0053700560000000
B0850494743712N01226212EA0053700560000000
B0850534743712N01226212EA0053700560000000
B0850574743712N01226212EA0053700560000000
B0851014743712N01226212EA0053700568000000
B0851054743712N01226212EA0053700568000000
B0851094743712N01226212EA0053700568000000
B0851134743712N01226212EA0053700568000000
B0851174743716N01226212EA0053700568000000
B0851214743716N01226212EA0053700568000000
B0851254743716N01226212EA0053700560000000
B0851294743716N01226212EA0053700560000000
B0851334743716N01226212EA0053700560000000
B0851374743712N01226212EA0053700560000000
B0851414743712N01226212EA0053700560000000
B0851454743712N01226212EA0053700560000000
B0851494743712N01226212EA0053700560000000
B0851534743712N01226212EA0053700568000000
B0851574743716N01226212EA0053700568000000
B0852014743716N01226212EA0053700568000000
B0852054743712N01226212EA0053700568000000
B0852094743712N01226212EA0053700568000000
B0852134743712N01226212EA0053700568000000
B0852174743712N01226212EA0053700560000000
B0852214743712N01226208EA0053700560000000
B0852254743712N01226208EA0053700560000000
B0852294743712N01226208EA0053700560000000
B0852334743712N01226208EA0053700560000000
B0852374743712N01226208EA0053700560000000
B0852414743712N01226208EA0053700560000000
B0852454743712N01226208EA0053700560000000
B0852494743712N01226208EA0053700560000000
B0852534743712N01226208EA0053700560000000
B0852574743712N01226208EA0053700560000000
B0853014743712N01226208EA0053700560000000
B0853054743712N01226212EA0053700560000000
B0853094743712N01226212EA0053700560000000
B0853134743712N01226212EA0053700560000000
B0853174743712N01226212EA0053700560000000
B0853214743716N01226212EA0053700560000000
B0853254743716N01226212EA0053700560000000
B0853294743716N01226212EA0053700560000000
B0853334743716N01226212EA0053700560000000
B0853374743712N01226212EA0053700560000000
B0853414743712N01226212EA0053700552000000
B0853454743712N01226212EA0053700560000000
B0853494743712N01226212EA0053700560000000
B0853534743712N01226212EA0053700560000000
B0853574743712N01226212EA0053700560000000
B0854014743712N01226212EA0053700560000000
B0854054743712N01226212EA0053700560000000
B0854094743712N01226212EA0053700560000000
B0854134743712N01226212EA0053700560000000
B0854174743712N01226212EA0053700560000000
B0854214743712N01226212EA0053700560000000
B0854254743712N01226212EA0053700560000000
B0854294743712N01226212EA0053700560000000
B0854334743712N01226212EA0053700560000000
B0854374743712N01226212EA0053700568000000
B0854414743712N01226212EA0053700560000000
B0854454743712N01226212EA0053700560000000
B0854494743712N01226212EA0053700560000000
B0854534743712N01226212EA0053800560000000
B0854574743712N01226212EA0053800568000000
B0855014743712N01226212EA0053800568000000
B0855054743712N01226212EA0053800568000000
B0855094743712N01226212EA0053800568000004
B0855134743712N01226212EA0053800568000000
B0855174743712N01226212EA0053800568000000
B0855214743712N01226212EA0053800560000000
B0855254743712N01226212EA0053800560000000
B0855294743712N01226212EA0053800560000000
B0855334743712N01226212EA0053800560000044
B0855374743712N01226212EA0053700560000024
B0855414743712N01226212EA0053700560000000
B0855454743712N01226212EA0053800560000024
B0855494743712N01226212EA0053800560000000
B0855534743712N01226212EA0053800560000000
B0855574743712N01226212EA0053800568000000
B0856014743712N01226212EA0053800568000000
B0856054743712N01226212EA0053700568000016
B0856094743712N01226212EA0053700560000008
B0856134743712N01226212EA0053700560000000
B0856174743712N01226212EA0053700560000008
B0856214743712N01226212EA0053600560000000
B0856254743712N01226212EA0053600560000000
B0856294743712N01226212EA0053600560000000
B0856334743712N01226212EA0053600560000000
B0856374743712N01226212EA0053600560000000
B0856414743712N01226212EA0053600560000000
B0856454743712N01226212EA0053600560000000
B0856494743712N01226212EA0053600560000000
B0856534743712N01226212EA0053600560000004
B0856574743712N01226212EA0053600560000000
B0857014743712N01226212EA0053600560000000
B0857054743712N01226212EA0053600560000000
B0857094743712N01226212EA0053600560000000
B0857134743712N01226212EA0053600560000000
B0857174743712N01226212EA0053600560000000
B0857214743712N01226212EA0053600560000000
B0857254743712N01226212EA0053600560000000
B0857294743712N01226212EA0053600560000000
B0857334743729N01226245EA0053100560076000
B0857374743770N01226320EA0056000600118000
B0857414743808N01226391EA0063300672114068
B0857454743845N01226462EA0069600728110032
B0857494743883N01226537EA0075000800114056
K085749008012
B0857534743925N01226620EA0079300832121064
B0857574743970N01226712EA0082100872115076
B0858014744008N01226791EA0083500880103064
B0858054744033N01226870EA0084000888068032
B0858094744045N01226958EA0084000888063056
K085809004016
B0858134744020N01227041EA0084000888061044
B0858174743975N01227095EA0083400880061040
B0858214743912N01227100EA0081500864065056
B0858254743854N01227050EA0080200856072048
K085825004022
B0858294743812N01226962EA0079400840079392
B0858334743779N01226870EA0081800864071852
B0858374743750N01226783EA0083800888066999
B0858414743720N01226700EA0085200896066999
K085841022015
B0858454743687N01226620EA0087400920060999
B0858494743650N01226545EA0088000936062999
B0858534743612N01226470EA0089900944062999
B0858574743575N01226400EA0091000960058999
K085857054034
B0859014743541N01226320EA0091500968062999
B0859054743504N01226241EA0092500976061999
B0859094743470N01226166EA0093400992061999
B0859134743437N01226083EA0094201000062999
K085913052038
B0859174743416N01225991EA0094901000064999
B0859214743429N01225891EA0095301008066999
B0859254743466N01225816EA0096701024065999
B0859294743520N01225787EA0098201032064999
B0859334743570N01225800EA0098601040064999
K085933004022
B0859374743616N01225854EA0098901048068999
B0859414743637N01225937EA0099801056069999
B0859454743633N01226029EA0100701064068999
B0859494743616N01226120EA0101701072068999
K085949004022
B0859534743587N01226200EA0102601088067999
B0859574743545N01226270EA0103801096065999
B0900014743495N01226333EA0104701112064999
B0900054743445N01226387EA0105501120063999
K090005052036
B0900094743395N01226437EA0106101120064999
B0900134743341N01226487EA0107201136064999
B0900174743287N01226537EA0108001144062999
B0900214743233N01226587EA0108501152066999
B0900254743175N01226633EA0109801160065999
K090025338031
B0900294743116N01226679EA0111001168066999
B0900334743054N01226716EA0111001176070999
B0900374742983N01226737EA0112201184071999
B0900414742912N01226733EA0113401200067999
K090041326038
B0900454742845N01226720EA0114601208064999
B0900494742779N01226708EA0115401216063999
B0900534742712N01226700EA0115901224067999
B0900574742641N01226704EA0116801232066999
K090057356041
B0901014742575N01226716EA0117801240066999
B0901054742508N01226741EA0118201248066999
B0901094742445N01226779EA0119101256065999
B0901134742383N01226820EA0119601264068999
K090113010046
B0901174742325N01226870EA0120701280068999
B0901214742270N01226920EA0122201288065999
B0901254742216N01226970EA0122901304064999
B0901294742166N01227029EA0123801304065999
B0901334742112N01227083EA0124701320065999
K090133352042
B0901374742062N01227141EA0126001328065999
B0901414742012N01227204EA0126701336066999
B0901454741962N01227270EA0127701344066999
B0901494741912N01227341EA0128601360065999
K090149342041
B0901534741870N01227412EA0129501368064999
B0901574741825N01227487EA0130201376066999
B0902014741779N01227562EA0131501392067999
B0902054741741N01227637EA0132701400065999
K090205330040
B0902094741700N01227712EA0133401408066999
B0902134741662N01227791EA0134001416068999
B0902174741620N01227875EA0134901424069999
B0902214741583N01227958EA0135801432069999
K090221322040
B0902254741550N01228041EA0136801448067999
B0902294741520N01228125EA0138101456066999
B0902334741504N01228212EA0138701464067999
B0902374741500N01228304EA0139201472069999
B0902414741495N01228400EA0140401480069999
K090241314037
B0902454741479N01228495EA0141401496067999
B0902494741445N01228575EA0142601504064999
B0902534741400N01228650EA0142901512069999
B0902574741366N01228733EA0143401512070999
K090257184022
B0903014741350N01228829EA0143901520071999
B0903054741362N01228925EA0144901528071999
B0903094741391N01229016EA0146101544072999
B0903134741429N01229095EA0147101552070999
K090313184022
B0903174741475N01229170EA0148001560072999
B0903214741520N01229241EA0149201568070999
B0903254741570N01229304EA0150701584071999
B0903294741620N01229362EA0151701600071999
B0903334741687N01229391EA0152601608075999
K090333184022
B0903374741754N01229395EA0153501616073999
B0903414741820N01229362EA0155001632069999
B0903454741875N01229300EA0155501640069999
B0903494741916N01229208EA0156501648070999
K090349184022
B0903534741937N01229104EA0157301656072999
B0903574741925N01228995EA0158701672069999
B0904014741887N01228908EA0159201680072999
B0904054741825N01228850EA0160101688069999
B0904094741762N01228825EA0160401688069999
K090409184022
B0904134741691N01228845EA0160701696071999
B0904174741641N01228912EA0161201704075999
B0904214741612N01229008EA0162201712074999
B0904254741604N01229108EA0163101712074999
K090425184022
B0904294741612N01229204EA0164701736070999
B0904334741629N01229295EA0165801744072999
B0904374741650N01229383EA0167701768071999
B0904414741675N01229462EA0169001776069999
B0904454741704N01229537EA0170401792067999
K090445248027
B0904494741737N01229612EA0171001800068999
B0904534741770N01229683EA0171901808071999
B0904574741808N01229750EA0172701816072999
B0905014741841N01229825EA0174101832073999
K090501240025
B0905054741870N01229900EA0175001840070999
B0905094741904N01229975EA0175601848072999
B0905134741933N01230050EA0176901864069999
B0905174741966N01230129EA0177401872070999
K090517242022
B0905214741987N01230216EA0178701880073999
B0905254741995N01230312EA0180001896073999
B0905294741983N01230408EA0180601904070999
B0905334741945N01230491EA0181501904068999
B0905374741887N01230545EA0182401912068999
K090537240022
B0905414741820N01230566EA0183301928067999
B0905454741745N01230545EA0184401936066999
B0905494741683N01230504EA0185501944065999
B0905534741625N01230441EA0185901952066999
B0905574741575N01230354EA0186201960069999
K090557004022
B0906014741545N01230250EA0186301960069999
B0906054741545N01230141EA0186701960070999
B0906094741562N01230037EA0186801968071999
B0906134741600N01229950EA0187501968069999
B0906174741645N01229870EA0188501976066999
K090617004022
B0906214741691N01229795EA0188801984073999
B0906254741741N01229725EA0190402000070999
B0906294741791N01229658EA0191702008068999
B0906334741841N01229595EA0192902024070999
K090633132017
B0906374741891N01229533EA0194002040069999
B0906414741945N01229475EA0194502048070999
B0906454742008N01229420EA0195202048072999
B0906494742070N01229362EA0196202064074999
K090649132032
B0906534742125N01229304EA0196202056069999
B0906574742187N01229245EA0195802056071999
B0907014742245N01229200EA0195402048071999
B0907054742308N01229162EA0194302040070992
K090705148035
B0907094742370N01229137EA0193902032066940
B0907134742433N01229125EA0193102024066840
B0907174742491N01229133EA0192902016064784
B0907214742545N01229150EA0192302016061804
K090721168033
B0907254742595N01229187EA0191702008061812
B0907294742637N01229237EA0191402008060768
B0907334742675N01229295EA0191302000060632
B0907374742708N01229354EA0190802000057396
K090737190027
B0907414742737N01229420EA0189801992060232
B0907454742770N01229487EA0189301984061216
B0907494742804N01229554EA0188101968065144
B0907534742841N01229620EA0186401960069144
K090753230023
B0907574742879N01229700EA0184901944069048
B0908014742908N01229783EA0184101928071096
B0908054742929N01229870EA0184301928064056
B0908094742950N01229954EA0184801936060052
B0908134742970N01230033EA0184601936058044
K090813244027
B0908174742991N01230108EA0183601928063048
B0908214743016N01230195EA0181801912071056
B0908254743037N01230291EA0180201896077048
B0908294743045N01230387EA0180201896070064
K090829262030
B0908334743054N01230470EA0180301896063060
B0908374743062N01230550EA0179601888061052
B0908414743070N01230629EA0178501872061056
B0908454743083N01230708EA0177501864063036
K090845272029
B0908494743091N01230791EA0176001848067044
B0908534743104N01230879EA0174801840081040
B0908574743116N01230966EA0173501824101040
B0909014743129N01231062EA0171801800110040
B0909054743145N01231166EA0170501792114040
K090905302018
B0909094743166N01231270EA0169901784115028
B0909134743175N01231375EA0169501784112032
B0909174743179N01231475EA0170201792101020
B0909214743183N01231570EA0170301784104024
K090921346008
B0909254743191N01231670EA0169901784109000
B0909294743200N01231775EA0169801784117008
B0909334743216N01231870EA0171101800107008
B0909374743254N01231925EA0171601800098004
K090937354009
B0909414743312N01231929EA0170901792095008
B0909454743370N01231879EA0169701776105008
B0909494743416N01231787EA0169401776106008
B0909534743454N01231687EA0169101776112008
B0909574743475N01231579EA0169501776112008
K090957184022
B0910014743454N01231470EA0169601776105008
B0910054743391N01231412EA0169601776103008
B0910094743312N01231412EA0169101768106008
B0910134743245N01231458EA0168401768115008
B0910174743183N01231525EA0168701768115008
K091017184022
B0910214743145N01231608EA0169001776108008
B0910254743145N01231695EA0169101776103008
B0910294743187N01231758EA0169101768103008
B0910334743250N01231766EA0168901768107008
K091033048014
B0910374743316N01231729EA0169001776106008
B0910414743366N01231645EA0169101768109008
B0910454743408N01231554EA0169101768110008
B0910494743454N01231466EA0168901768111008
B0910534743495N01231375EA0168901768109008
K091053050014
B0910574743533N01231283EA0168601768108008
B0911014743566N01231187EA0168201760104008
B0911054743595N01231087EA0167601752102008
B0911094743625N01230983EA0167001752106008
K091109048009
B0911134743654N01230875EA0167001752105008
B0911174743683N01230770EA0167201752101008
B0911214743700N01230666EA0167401752097008
B0911254743683N01230558EA0167401752098008
K091125050014
B0911294743637N01230470EA0166701744102008
B0911334743566N01230412EA0165701736105004
B0911374743487N01230370EA0164501728114008
B0911414743404N01230341EA0164301720113008
K091141050014
B0911454743316N01230316EA0164001720121008
B0911494743229N01230291EA0165001736114008
B0911534743145N01230270EA0165001728113008
B0911574743058N01230245EA0165001728110012
B0912014742979N01230220EA0165001728107008
K091201072030
B0912054742895N01230200EA0164301720111008
B0912094742816N01230183EA0163701720110008
B0912134742737N01230162EA0163701720102008
B0912174742666N01230137EA0163501712100008
K091217056027
B0912214742591N01230108EA0162501704101008
B0912254742520N01230058EA0162101696101008
B0912294742450N01230012EA0161501688102008
B0912334742379N01229962EA0161001688107008
B0912374742304N01229904EA0160801680108008
K091237036018
B0912414742237N01229850EA0160401680103008
B0912454742166N01229791EA0159701672107004
B0912494742095N01229733EA0159601672107008
B0912534742025N01229670EA0159801672111004
K091253060020
B0912574741954N01229650EA0160301680105004
B0913014741891N01229695EA0161101688101008
B0913054741866N01229787EA0161201688105008
B0913094741891N01229883EA0161301696114008
K091309050014
B0913134741945N01229929EA0162201704100008
B0913174742012N01229900EA0162201696102008
B0913214742050N01229804EA0162201696104008
B0913254742041N01229691EA0162401704100008
K091325050014
B0913294741991N01229604EA0162301704102008
B0913334741920N01229570EA0162301704102008
B0913374741850N01229575EA0163101704103008
B0913414741787N01229616EA0163301712099008
K091341068012
B0913454741754N01229700EA0163001704101008
B0913494741770N01229795EA0162801704110008
B0913534741841N01229808EA0162801712117008
B0913574741883N01229708EA0163601712112004
B0914014741854N01229600EA0164701728108008
K091401052013
B0914054741787N01229575EA0165301736104008
B0914094741733N01229637EA0165401736103008
B0914134741720N01229737EA0165201736108008
B0914174741762N01229816EA0166501752102008
B0914214741825N01229837EA0167001752102008
K091421060007
B0914254741891N01229795EA0167201752103008
B0914294741929N01229695EA0167201752102004
B0914334741920N01229583EA0166901752104008
B0914374741866N01229504EA0166601752110008
K091437084007
B0914414741795N01229508EA0167001752104008
B0914454741750N01229587EA0166601752108008
B0914494741754N01229691EA0166401752110008
B0914534741800N01229766EA0167301760110008
B0914574741862N01229791EA0168201768101008
K091457078009
B0915014741929N01229754EA0168701768103008
B0915054741970N01229658EA0169001776103008
B0915094741954N01229550EA0169001776102008
B0915134741895N01229479EA0168901768110008
K091513074009
B0915174741820N01229479EA0168901768108008
B0915214741775N01229554EA0169501784100008
B0915254741770N01229645EA0169501784104008
B0915294741804N01229720EA0169601784101008
B0915334741866N01229758EA0169101776106008
K091533074010
B0915374741937N01229725EA0169101776113008
B0915414741983N01229637EA0169801784111008
B0915454741983N01229525EA0170401792100008
B0915494741933N01229433EA0169401784113008
B0915534741854N01229412EA0169101776117008
K091553064011
B0915574741795N01229483EA0169601784109008
B0916014741795N01229579EA0169801792107008
B0916054741845N01229645EA0169801784113008
B0916094741920N01229645EA0169801784112008
K091609068012
B0916134741979N01229579EA0170901792111008
B0916174742004N01229475EA0172201808098008
B0916214741983N01229370EA0171501808099004
B0916254741920N01229308EA0171001800106008
K091625072013
B0916294741845N01229333EA0170301792113008
B0916334741816N01229425EA0170401792107008
B0916374741841N01229516EA0170401792109004
B0916414741895N01229579EA0170401792110008
B0916454741962N01229620EA0170001784114004
K091645080012
B0916494742029N01229600EA0171101800104004
B0916534742079N01229520EA0171001792103004
B0916574742095N01229408EA0170001792106004
B0917014742075N01229295EA0169401776106008
K091701080011
B0917054742016N01229208EA0168601768109008
B0917094741937N01229183EA0167501760111008
B0917134741870N01229237EA0166501752114008
B0917174741833N01229333EA0166001744118008
B0917214741820N01229441EA0166001752113008
K091721066012
B0917254741816N01229545EA0166301752108008
B0917294741825N01229641EA0166701752107008
B0917334741833N01229741EA0166801760109008
B0917374741854N01229829EA0167201760102008
K091737050019
B0917414741908N01229883EA0167201760108008
B0917454741979N01229854EA0167201760110008
B0917494742016N01229754EA0168501768106008
B0917534742000N01229641EA0168501768104008
K091753064011
B0917574741933N01229575EA0167601760113008
B0918014741858N01229604EA0167601760115008
B0918054741837N01229704EA0167501760117008
B0918094741870N01229795EA0166501752118008
K091809076013
B0918134741937N01229854EA0167001760118004
B0918174742000N01229895EA0168701768111008
B0918214742066N01229904EA0169001776104008
B0918254742129N01229862EA0168601768103008
K091825078013
B0918294742183N01229795EA0168401768102008
B0918334742208N01229695EA0167701760102008
B0918374742208N01229583EA0167201752104008
B0918414742187N01229470EA0165401736110008
K091841076013
B0918454742154N01229350EA0163801720119008
B0918494742108N01229237EA0162801712121008
B0918534742054N01229133EA0161701696120004
B0918574741991N01229033EA0160701688122008
K091857100030
B0919014741920N01228937EA0159701680125008
B0919054741854N01228845EA0159701680123008
B0919094741787N01228745EA0159401672119008
B0919134741729N01228645EA0159401672116008
B0919174741675N01228541EA0159401672119004
K091917092027
B0919214741625N01228433EA0159801680120008
B0919254741587N01228325EA0160901688109008
B0919294741558N01228225EA0161401696099008
B0919334741533N01228120EA0161001688101008
K091933068019
B0919374741512N01228008EA0159401672114008
B0919414741495N01227883EA0158701664120008
B0919454741487N01227754EA0158601664120008
B0919494741479N01227629EA0158601664117008
K091949042014
B0919534741466N01227508EA0158601664114008
B0919574741450N01227387EA0158201656114008
B0920014741433N01227266EA0158201656115008
B0920054741412N01227150EA0157701656112008
B0920094741391N01227029EA0157201648113008
K092009080013
B0920134741370N01226912EA0156401640118004
B0920174741345N01226791EA0156301640117008
B0920214741325N01226670EA0156001632117004
B0920254741300N01226550EA0155701632116004
K092025098013
B0920294741266N01226437EA0155701632114008
B0920334741225N01226337EA0155501632112008
B0920374741179N01226241EA0155201624110004
B0920414741129N01226150EA0154701624114008
B0920454741075N01226062EA0154501616110008
K092045122025
B0920494741020N01225983EA0154401616104008
B0920534740962N01225900EA0153401608108008
B0920574740904N01225816EA0153001600110008
B0921014740850N01225725EA0152801600106008
K092101098019
B0921054740795N01225629EA0152601600111008
B0921094740745N01225529EA0153801608106008
B0921134740700N01225433EA0153801616112008
B0921174740637N01225358EA0154401624108004
K092117076012
B0921214740558N01225337EA0154401624109008
B0921254740487N01225400EA0153901616117004
B0921294740487N01225508EA0154101616117004
B0921334740541N01225558EA0155001624109004
B0921374740604N01225508EA0153901616113004
K092137076012
B0921414740616N01225379EA0152301600126000
B0921454740575N01225258EA0153801608122000
B0921494740525N01225166EA0154501624111004
B0921534740458N01225095EA0154801624108000
K092153026014
B0921574740379N01225083EA0154901624107008
B0922014740308N01225137EA0154901624109008
B0922054740270N01225233EA0154701624114004
B0922094740270N01225333EA0154401624108008
B0922134740304N01225420EA0154401616105008
K092213020015
B0922174740345N01225495EA0154401616104008
B0922214740387N01225575EA0154401616105004
B0922254740416N01225666EA0154001616106008
B0922294740425N01225770EA0153401608110004
B0922334740420N01225875EA0153101608111004
K092233198014
B0922374740395N01225979EA0152601600111004
B0922414740345N01226066EA0152401600111004
B0922454740275N01226108EA0152401600110004
B0922494740200N01226129EA0152401600109004
K092249086026
B0922534740125N01226120EA0153201608104008
B0922574740058N01226095EA0153601608097008
B0923014739995N01226062EA0153801608094004
B0923054739933N01226016EA0153301608098008
K092305342009
B0923094739879N01225945EA0152501592100000
B0923134739850N01225850EA0151801592103000
B0923174739854N01225741EA0151101584102004
B0923214739883N01225645EA0150901584103000
K092321198014
B0923254739937N01225579EA0150601576101008
B0923294739995N01225533EA0150601576101008
B0923334740058N01225495EA0150601576099004
B0923374740120N01225454EA0150601576100008
B0923414740183N01225416EA0150701584099004
K092341320006
B0923454740245N01225387EA0150701584100004
B0923494740316N01225366EA0150701584101004
B0923534740379N01225358EA0150701584100004
B0923574740445N01225350EA0150901584098004
K092357238005
B0924014740512N01225345EA0150801584100004
B0924054740579N01225341EA0150301576109004
B0924094740645N01225316EA0150701584108004
B0924134740683N01225233EA0151601592100000
B0924174740658N01225133EA0151301584105000
K092417018014
B0924214740583N01225104EA0151301584108008
B0924254740529N01225183EA0151601592112004
B0924294740550N01225275EA0152401600102008
B0924334740616N01225291EA0151501592110008
K092433024008
B0924374740650N01225195EA0151301584113008
B0924414740604N01225095EA0151101584115008
B0924454740525N01225062EA0151401592115008
B0924494740458N01225116EA0153001608108008
B0924534740441N01225208EA0153001608106004
K092453008011
B0924574740483N01225279EA0153001608104008
B0925014740545N01225250EA0153301608112004
B0925054740554N01225145EA0153301616111004
B0925094740483N01225112EA0154101624110000
K092509358008
B0925134740433N01225183EA0153601616114000
B0925174740470N01225266EA0153601616116008
B0925214740537N01225220EA0153601616120004
B0925254740520N01225112EA0154601624116004
B0925294740445N01225104EA0155101632111008
K092529030010
B0925334740400N01225191EA0155101632114008
B0925374740437N01225270EA0155901640110008
B0925414740500N01225245EA0155201632110008
B0925454740520N01225141EA0154801624119008
B0925494740466N01225058EA0156301640108008
K092549024009
B0925534740395N01225075EA0157301656101008
B0925574740370N01225162EA0157201648105008
B0926014740412N01225220EA0157301656100008
B0926054740466N01225175EA0157301648104008
K092605024011
B0926094740458N01225075EA0157701656103008
B0926134740395N01225041EA0158501664095000
B0926174740341N01225091EA0157701656102004
B0926214740345N01225179EA0157901664097008
B0926254740404N01225208EA0158301664098004
K092625018009
B0926294740454N01225158EA0158201664100004
B0926334740462N01225058EA0158701664097008
B0926374740420N01224983EA0159501672091004
B0926414740354N01224966EA0159601680093004
B0926454740304N01225020EA0159601672097004
K092645042011
B0926494740300N01225108EA0159801680094004
B0926534740345N01225162EA0159301672097008
B0926574740408N01225133EA0158901672103008
B0927014740437N01225041EA0159601672102004
K092701042011
B0927054740408N01224945EA0160001680098008
B0927094740341N01224904EA0160101680098008
B0927134740279N01224950EA0160301680099008
B0927174740270N01225033EA0160601688095004
B0927214740308N01225095EA0160601688097008
K092721036012
B0927254740370N01225095EA0160601688096004
B0927294740416N01225025EA0160601688098004
B0927334740416N01224929EA0161201696097004
B0927374740366N01224862EA0161301696094004
B0927414740295N01224870EA0160401680102004
K092741040009
B0927454740262N01224958EA0160301680103004
B0927494740291N01225033EA0160701688093004
B0927534740354N01225037EA0160201680101004
B0927574740395N01224958EA0160301688105004
K092757024008
B0928014740391N01224862EA0161101696096004
B0928054740337N01224791EA0160401680103004
B0928094740262N01224800EA0160201680101004
B0928134740216N01224879EA0159701672108004
K092813020009
B0928174740229N01224975EA0159701672105004
B0928214740287N01225020EA0159301672102004
B0928254740350N01224995EA0159301672101004
B0928294740383N01224912EA0159601680101004
B0928334740358N01224812EA0159801680100004
K092833032006
B0928374740291N01224766EA0159301672106008
B0928414740220N01224808EA0159201672105008
B0928454740166N01224887EA0159201672106004
B0928494740108N01224945EA0159501680102008
K092849030007
B0928534740037N01224958EA0159801680100004
B0928574739970N01224916EA0159401672102004
B0929014739950N01224812EA0158401664111008
B0929054739995N01224725EA0158101656110008
B0929094740062N01224720EA0158101656107004
K092909238005
B0929134740120N01224758EA0158401664105008
B0929174740170N01224804EA0159001672096008
B0929214740216N01224854EA0159001672095008
B0929254740266N01224895EA0159001672092008
K092925270002
B0929294740316N01224941EA0159001672095008
B0929334740375N01224979EA0158701664098004
B0929374740429N01225020EA0158801664097008
B0929414740487N01225066EA0158801664098004
B0929454740545N01225112EA0158801664103004
K092945326007
B0929494740600N01225170EA0159201672105004
B0929534740612N01225258EA0159301672100004
B0929574740558N01225320EA0156901648116000
B0930014740483N01225262EA0156001632124000
K093001210007
B0930054740466N01225150EA0157801656111008
B0930094740508N01225062EA0158501664103004
B0930134740575N01225050EA0158401664108008
B0930174740629N01225108EA0158801664107008
B0930214740620N01225195EA0159301672101008
K093021100010
B0930254740554N01225233EA0157901656113008
B0930294740495N01225154EA0157601656116008
B0930334740504N01225045EA0159201664102008
B0930374740554N01224983EA0159801672096000
B0930414740620N01224983EA0159701672103004
K093041100009
B0930454740662N01225054EA0159301672106008
B0930494740645N01225150EA0158301664110004
B0930534740579N01225191EA0158101656113008
B0930574740512N01225141EA0158401664109008
K093057072011
B0931014740487N01225037EA0158801664103008
B0931054740512N01224937EA0159201672104008
B0931094740554N01224862EA0159801680095008
B0931134740616N01224833EA0159701672100008
B0931174740666N01224891EA0157601656111008
K093117070011
B0931214740654N01224991EA0156801640116008
B0931254740591N01225033EA0157401656107008
B0931294740520N01225008EA0157801656103008
B0931334740462N01224945EA0157901656099008
K093133066014
B0931374740429N01224858EA0157901656097008
B0931414740429N01224754EA0158001656097008
B0931454740458N01224662EA0157801656096008
B0931494740495N01224579EA0156401640100004
K093149064014
B0931534740545N01224491EA0155501632109008
B0931574740591N01224404EA0155501632106004
B0932014740633N01224316EA0155201632107004
B0932054740675N01224229EA0154801624105008
B0932094740712N01224137EA0154201616106008
K093209034003
B0932134740745N01224045EA0153901616105008
B0932174740779N01223945EA0153001608104008
B0932214740808N01223850EA0152501600105008
B0932254740841N01223745EA0151601592110008
B0932294740870N01223641EA0151101584109008
K093229062008
B0932334740900N01223541EA0150301584109008
B0932374740929N01223441EA0150101576105004
B0932414740958N01223341EA0149701576105008
B0932454740987N01223241EA0149401568104008
K093245068008
B0932494741012N01223145EA0149001568104008
B0932534741041N01223041EA0148401560108008
B0932574741070N01222945EA0148501560109008
B0933014741100N01222850EA0148601560105008
K093301072006
B0933054741133N01222762EA0148601560103008
B0933094741170N01222679EA0148601560102008
B0933134741212N01222600EA0148601560103008
B0933174741258N01222525EA0148601560103004
B0933214741300N01222450EA0148501560103008
K093321072003
B0933254741341N01222370EA0148101560104008
B0933294741387N01222291EA0148101560104008
B0933334741425N01222208EA0148101560106004
K093333036005
B0933374741470N01222125EA0148001560107008
B0933414741512N01222041EA0148001560107004
B0933454741558N01221962EA0148101560105004
B0933494741604N01221883EA0148201560104004
B0933534741650N01221808EA0148501560102004
K093353044004
B0933574741700N01221737EA0148601568101004
B0934014741745N01221666EA0148601560101004
B0934054741795N01221591EA0148601560102004
B0934094741845N01221520EA0148101560104004
B0934134741900N01221454EA0147701552107004
K093413062004
B0934174741954N01221391EA0147501552108004
B0934214742012N01221333EA0147501552107004
B0934254742075N01221283EA0146701544107004
B0934294742141N01221237EA0146201536108004
B0934334742208N01221204EA0146101536111004
K093433044000
B0934374742275N01221175EA0145601528112008
B0934414742341N01221158EA0145301528108008
B0934454742408N01221158EA0145201520107004
B0934494742475N01221170EA0144301512107008
K093449270010
B0934534742533N01221204EA0143401504110008
B0934574742587N01221258EA0142701496111008
B0935014742633N01221325EA0142401496111008
B0935054742675N01221404EA0143001504106008
B0935094742712N01221483EA0143001504110008
K093509312014
B0935134742720N01221579EA0143001504114008
B0935174742666N01221658EA0141701496122008
B0935214742583N01221641EA0141401488118008
B0935254742520N01221550EA0141601488111008
K093525064014
B0935294742512N01221433EA0141701488104008
B0935334742566N01221358EA0140401472108004
B0935374742633N01221366EA0139601464115008
B0935414742691N01221437EA0138501456123004
B0935454742733N01221537EA0138101448128004
K093545054018
B0935494742762N01221633EA0138701456119008
B0935534742791N01221733EA0138701456123008
B0935574742808N01221841EA0138701456129012
B0936014742837N01221937EA0139701464117008
B0936054742829N01222037EA0139701464112012
K093605296015
B0936094742766N01222100EA0138701456121012
B0936134742683N01222054EA0138401456120008
B0936174742650N01221937EA0139201464113008
B0936214742683N01221837EA0138001448114004
B0936254742754N01221804EA0136101432129008
K093625054018
B0936294742833N01221820EA0136001432125004
B0936334742904N01221850EA0136701440117004
B0936374742966N01221879EA0137301448107008
B0936414743025N01221912EA0137601448104008
B0936454743087N01221945EA0137601448102004
K093645054018
B0936494743145N01221979EA0137601440100008
B0936534743208N01222012EA0136801440101004
B0936574743270N01222037EA0136801440107004
B0937014743337N01222050EA0137201440105004
K093701056007
B0937054743404N01222050EA0137701448104004
B0937094743454N01222091EA0138301456100004
B0937134743458N01222170EA0138001448104004
B0937174743395N01222220EA0136501440119008
B0937214743316N01222166EA0137601448111008
K093721054018
B0937254743295N01222050EA0138001448105004
B0937294743337N01221954EA0138001448107008
B0937334743400N01221937EA0138101456107004
B0937374743458N01221983EA0138001448107004
B0937414743508N01222041EA0138701456105004
K093741072019
B0937454743545N01222112EA0138701456108004
B0937494743533N01222204EA0138701456111008
B0937534743462N01222229EA0138101448115008
B0937574743408N01222129EA0138401456113008
B0938014743433N01222020EA0139201464108008
K093801072015
B0938054743495N01221983EA0138801456111008
B0938094743550N01222037EA0138801456111008
B0938134743562N01222133EA0138901464113008
B0938174743533N01222220EA0139101464109008
K093817060014
B0938214743458N01222250EA0138501456112008
B0938254743395N01222175EA0138601456108008
B0938294743395N01222058EA0138701456109004
B0938334743454N01221979EA0138201448113008
B0938374743525N01221945EA0138701456114008
K093837060014
B0938414743600N01221950EA0139201464110008
B0938454743637N01222025EA0139501464112008
B0938494743600N01222104EA0139101464113008
B0938534743520N01222075EA0138801456112008
B0938574743500N01221962EA0139901464105008
K093857084015
B0939014743541N01221866EA0140601480112008
B0939054743612N01221858EA0141401480103008
B0939094743641N01221941EA0140801480117008
B0939134743591N01222008EA0141201480112008
B0939174743525N01221954EA0141601488106008
K093917078016
B0939214743516N01221841EA0142801496112008
B0939254743566N01221766EA0144001512102004
B0939294743633N01221787EA0143801512110008
B0939334743637N01221879EA0143301504116008
K093933068014
B0939374743570N01221912EA0143301504113008
B0939414743520N01221829EA0145201520108008
B0939454743529N01221720EA0146401536108008
B0939494743591N01221679EA0146901544105008
B0939534743637N01221741EA0146501536114008
K093953068014
B0939574743612N01221825EA0147401544106008
B0940014743545N01221816EA0147601544107008
B0940054743512N01221712EA0148501560111008
B0940094743541N01221616EA0149501568107008
B0940134743608N01221600EA0149701568108008
K094013074011
B0940174743650N01221675EA0149001560116008
B0940214743625N01221766EA0149101568112008
B0940254743554N01221783EA0149601568111008
B0940294743495N01221708EA0150901584106004
B0940334743487N01221600EA0152001592105008
K094033064013
B0940374743525N01221516EA0152201600106004
B0940414743591N01221508EA0150601584112004
B0940454743629N01221595EA0149401568126008
B0940494743604N01221687EA0152001592106008
K094049050014
B0940534743541N01221729EA0152901600100008
B0940574743475N01221675EA0152401600109008
B0941014743458N01221562EA0153501600111008
B0941054743508N01221491EA0154401624104008
B0941094743570N01221520EA0153101608110008
K094109054012
B0941134743583N01221633EA0152601600122008
B0941174743525N01221704EA0154801624114008
B0941214743450N01221679EA0155101624107008
B0941254743416N01221570EA0155101624109008
B0941294743445N01221458EA0155301624115008
K094129042012
B0941334743512N01221433EA0156001640106008
B0941374743562N01221500EA0155901632109008
B0941414743554N01221608EA0156001640118008
B0941454743487N01221662EA0157501656112008
K094145056010
B0941494743412N01221620EA0158501664111008
B0941534743379N01221504EA0158301664108008
B0941574743412N01221395EA0158301656115008
B0942014743479N01221366EA0159201672107008
B0942054743533N01221429EA0158701664109008
K094205052011
B0942094743537N01221541EA0158601664118008
B0942134743470N01221600EA0160101680112008
B0942174743391N01221550EA0160301680116008
B0942214743362N01221433EA0160401688114008
B0942254743395N01221329EA0160801688112008
K094225048009
B0942294743458N01221329EA0160801688106008
B0942334743487N01221429EA0159901680124008
B0942374743445N01221520EA0161901696113012
B0942414743370N01221545EA0162401704112008
K094241042015
B0942454743308N01221470EA0163301712106012
B0942494743291N01221358EA0163201712105012
B0942534743341N01221266EA0162201704117008
B0942574743408N01221287EA0161701696114008
B0943014743429N01221387EA0159901680123008
K094301036015
B0943054743370N01221475EA0159701680124008
B0943094743291N01221466EA0161701688113008
B0943134743225N01221408EA0162401704103008
B0943174743170N01221320EA0162201696105008
K094317046016
B0943214743125N01221229EA0161801696103008
B0943254743079N01221141EA0161701696104008
B0943294743020N01221062EA0161701696102008
B0943334742966N01220987EA0161701696100008
K094333086014
B0943374742908N01220912EA0161801696099008
B0943414742850N01220841EA0162101696097004
B0943454742779N01220795EA0162801712107008
B0943494742708N01220825EA0163901720103004
B0943534742679N01220904EA0163001712113004
K094353226016
B0943574742720N01220979EA0161801704119008
B0944014742791N01220966EA0162401704110008
B0944054742833N01220875EA0163301712111008
B0944094742816N01220762EA0165101728103008
B0944134742750N01220708EA0165301736106008
K094413062021
B0944174742687N01220758EA0165501736116008
B0944214742695N01220850EA0165801744114008
B0944254742754N01220875EA0166201744110008
B0944294742804N01220791EA0167001752110008
B0944334742783N01220675EA0169001768107008
K094433068018
B0944374742712N01220641EA0169501776107008
B0944414742662N01220708EA0169101776113008
B0944454742670N01220804EA0169101776111008
B0944494742725N01220845EA0169101776112008
K094449066015
B0944534742791N01220804EA0169801784106012
B0944574742820N01220700EA0170701792110008
B0945014742787N01220595EA0171101800108008
B0945054742712N01220562EA0172501808117008
B0945094742650N01220620EA0173301824109012
K094509070015
B0945134742637N01220712EA0173201816106008
B0945174742675N01220779EA0172401808107012
B0945214742745N01220787EA0172301808114012
B0945254742795N01220708EA0173601824109008
K094525062014
B0945294742791N01220595EA0175101840110008
B0945334742729N01220537EA0176601848111008
B0945374742662N01220566EA0177401864107008
B0945414742637N01220645EA0177401864104008
B0945454742662N01220725EA0177301856105008
K094545064014
B0945494742720N01220737EA0177101856111008
B0945534742779N01220675EA0178301864107008
B0945574742791N01220566EA0179801888104012
B0946014742754N01220470EA0181501904106008
B0946054742679N01220445EA0182401912109004
K094605062016
B0946094742620N01220504EA0182401912115008
B0946134742633N01220595EA0182701912110008
B0946174742695N01220620EA0182801920111008
B0946214742754N01220554EA0183501928109008
K094621064017
B0946254742766N01220445EA0186301944099008
B0946294742737N01220345EA0186901960101008
B0946334742670N01220287EA0187101960101008
B0946374742595N01220304EA0186901960117008
K094637064020
B0946414742550N01220383EA0187401968108008
B0946454742550N01220475EA0187301960108008
B0946494742587N01220550EA0186401952110008
B0946534742650N01220579EA0186701960108008
B0946574742712N01220579EA0187801968106008
K094657056017
B0947014742770N01220566EA0189401984097008
B0947054742833N01220520EA0189701984097008
B0947094742879N01220437EA0189901992101008
B0947134742900N01220320EA0190401992099008
B0947174742883N01220204EA0190301992102008
K094717070019
B0947214742833N01220116EA0190201992098008
B0947254742766N01220062EA0190201992097012
B0947294742691N01220037EA0190101992104008
B0947334742616N01220037EA0190802000098008
B0947374742558N01220079EA0190802000103008
K094737064022
B0947414742533N01220166EA0191302008103008
B0947454742545N01220250EA0191802008097008
B0947494742591N01220308EA0191802008099008
B0947534742658N01220300EA0191902008107008
K094753066018
B0947574742716N01220220EA0193802032103004
B0948014742729N01220108EA0195002040102008
B0948054742695N01220008EA0195802048099004
B0948094742629N01219970EA0195802056103004
K094809070015
B0948134742570N01220016EA0195802048102008
B0948174742566N01220108EA0195702048105008
B0948214742616N01220170EA0196302056107008
B0948254742683N01220183EA0198202072104008
K094825080015
B0948294742741N01220141EA0199602088098004
B0948334742779N01220054EA0199702096099008
B0948374742783N01219941EA0199302088101008
B0948414742741N01219837EA0198602080105008
K094841074014
B0948454742675N01219758EA0198302080106008
B0948494742600N01219716EA0198802080110008
B0948534742529N01219700EA0200302096098008
B0948574742462N01219712EA0200702104099008
B0949014742395N01219762EA0200602104110008
K094901068016
B0949054742362N01219841EA0202402120100008
B0949094742362N01219925EA0203002128093008
B0949134742395N01219987EA0203002128097008
B0949174742450N01220020EA0203002128098008
K094917058016
B0949214742516N01220033EA0203002128101008
B0949254742583N01220037EA0202802120101004
B0949294742654N01220041EA0202802128106008
B0949334742720N01220050EA0203902136105008
B0949374742791N01220066EA0205302152100008
K094937086016
B0949414742854N01220087EA0206502168099008
B0949454742916N01220104EA0206702168098008
B0949494742983N01220120EA0205902160104008
B0949534743050N01220112EA0204902152104008
K094953090017
B0949574743120N01220095EA0204402144109004
B0950014743195N01220066EA0203902136115008
B0950054743270N01220016EA0203902136116004
B0950094743341N01219954EA0204002144114004
B0950134743408N01219891EA0204802152110008
K095013082020
B0950174743470N01219829EA0205002152106008
B0950214743529N01219770EA0204402144104008
B0950254743591N01219708EA0204402144104008
B0950294743650N01219641EA0204202136101008
K095029104008
B0950334743708N01219575EA0203902136104008
B0950374743766N01219508EA0203402128108008
B0950414743820N01219441EA0203202128107008
B0950454743875N01219370EA0202802120105008
K095045100005
B0950494743929N01219295EA0202802128104008
B0950534743987N01219229EA0203502128101008
B0950574744041N01219170EA0204702144101008
B0951014744095N01219108EA0205702152094008
B0951054744145N01219050EA0206502160092008
K095105146003
B0951094744200N01219000EA0206802168088012
B0951134744254N01218945EA0206902168091008
B0951174744312N01218891EA0206602160095008
B0951214744370N01218829EA0206602160099008
K095121098006
B0951254744425N01218766EA0207402168094004
B0951294744475N01218700EA0207602176091008
B0951334744520N01218637EA0207602176088008
B0951374744570N01218575EA0207402168088008
K095137112007
B0951414744620N01218516EA0206902160089004
B0951454744675N01218458EA0206102152095008
B0951494744725N01218391EA0206102152093004
B0951534744775N01218320EA0205202152096004
B0951574744825N01218245EA0204902144095004
K095157104008
B0952014744875N01218170EA0204502144097004
B0952054744929N01218095EA0204002136106004
B0952094744983N01218020EA0204002136103004
B0952134745033N01217945EA0204302144099004
K095213130007
B0952174745083N01217883EA0204302136096004
B0952214745137N01217820EA0203902136097000
B0952254745195N01217766EA0203002128100000
B0952294745258N01217716EA0202902120102000
K095229142005
B0952334745325N01217675EA0202602120103000
B0952374745391N01217633EA0202402120105004
B0952414745458N01217595EA0201802112105000
B0952454745529N01217554EA0201302104106004
B0952494745595N01217516EA0200802104107004
K095249124003
B0952534745666N01217479EA0200502096107004
B0952574745737N01217441EA0200002096106004
B0953014745808N01217400EA0199502088108004
B0953054745879N01217358EA0199002080110004
K095305116004
B0953094745954N01217316EA0197902072114004
B0953134746029N01217275EA0197402072116004
B0953174746104N01217233EA0196902064117004
B0953214746179N01217191EA0196702056115004
K095321116004
B0953254746254N01217150EA0196602056114004
B0953294746325N01217108EA0196302056112004
B0953334746400N01217075EA0195702048112000
B0953374746470N01217054EA0195402048110000
B0953414746545N01217041EA0195202040109000
K095341206004
B0953454746616N01217033EA0194702040110000
B0953494746687N01217025EA0194102032112000
B0953534746762N01217020EA0193302024113000
B0953574746833N01217012EA0192802024114004
B0954014746908N01217008EA0192602016113000
K095401026002
B0954054746979N01217008EA0192602016113008
B0954094747050N01217008EA0192402016111008
B0954134747120N01217012EA0191702008111004
B0954174747195N01217012EA0190902000114008
B0954214747270N01217016EA0190301992120004
K095421014004
B0954254747350N01217020EA0189801992119004
B0954294747420N01217029EA0189701984117004
B0954334747495N01217037EA0189101984117004
B0954374747570N01217045EA0188701976117004
K095437008006
B0954414747641N01217054EA0188301968117004
B0954454747716N01217066EA0187601968117000
B0954494747787N01217083EA0187201960116000
B0954534747862N01217100EA0186801960117000
K095453006008
B0954574747933N01217116EA0186201952117000
B0955014748004N01217133EA0185801952116000
B0955054748075N01217154EA0185701944116000
B0955094748145N01217175EA0185401944115000
K095509000008
B0955134748216N01217195EA0184901936115000
B0955174748287N01217212EA0184401936115000
B0955214748358N01217229EA0183901928115000
B0955254748433N01217250EA0183401920117000
B0955294748504N01217270EA0182801920119000
K095529006009
B0955334748579N01217291EA0182301912120000
B0955374748654N01217312EA0181901912119000
B0955414748725N01217337EA0181701904119000
B0955454748795N01217362EA0181301904118000
B0955494748870N01217391EA0181201896119000
K095549000009
B0955534748941N01217412EA0180301888121000
B0955574749016N01217437EA0179401880123000
B0956014749095N01217466EA0179101880124000
B0956054749170N01217491EA0178701872124000
K095605020008
B0956094749245N01217512EA0178501872123000
B0956134749320N01217537EA0178201864122004
B0956174749395N01217558EA0177801864121000
B0956214749470N01217583EA0177701864120004
B0956254749545N01217608EA0177401864119004
K095625030008
B0956294749620N01217633EA0177001856119004
B0956334749691N01217658EA0176901856117004
B0956374749762N01217687EA0176701856116004
B0956414749829N01217712EA0176301848117004
K095641016007
B0956454749900N01217745EA0175501840118004
B0956494749975N01217770EA0175001832120004
B0956534750045N01217795EA0174801832120004
B0956574750120N01217825EA0174501824120004
K095657014008
B0957014750191N01217854EA0174001824119004
B0957054750262N01217887EA0173501824119004
B0957094750337N01217920EA0172901816121000
B0957134750408N01217954EA0172401808122000
B0957174750479N01217987EA0172101808121000
K095717000009
B0957214750554N01218025EA0171601800121000
B0957254750625N01218058EA0171301800121004
B0957294750700N01218091EA0170801792121000
B0957334750770N01218125EA0170401792121004
B0957374750845N01218158EA0170401784120004
K095737006008
B0957414750916N01218191EA0170301784118004
B0957454750987N01218220EA0169701776116004
B0957494751058N01218250EA0169401776116008
B0957534751129N01218270EA0168901768117008
K095753018006
B0957574751204N01218295EA0168101768119004
B0958014751279N01218320EA0167701760121008
B0958054751354N01218350EA0167401752121000
B0958094751433N01218375EA0167001752121000
K095809000006
B0958134751508N01218400EA0166501744121000
B0958174751583N01218429EA0166101744121000
B0958214751658N01218458EA0165701736121000
B0958254751733N01218483EA0165401736119000
B0958294751808N01218512EA0165201736118000
K095829000005
B0958334751883N01218533EA0164901728117000
B0958374751958N01218558EA0164501728117000
B0958414752033N01218575EA0164301720116000
B0958454752108N01218591EA0164001720117004
K095845034003
B0958494752183N01218612EA0163801712117000
B0958534752258N01218629EA0163201712118000
B0958574752333N01218650EA0163001712117000
B0959014752408N01218666EA0162701704118000
B0959054752483N01218683EA0162301704119000
K095905018003
B0959094752562N01218700EA0161701696121000
B0959134752641N01218720EA0161301696122000
B0959174752716N01218741EA0161201688121000
B0959214752795N01218758EA0160801688121000
B0959254752870N01218770EA0160401680121000
K095925000003
B0959294752950N01218787EA0160001680121000
B0959334753029N01218800EA0160001680121000
B0959374753108N01218816EA0159701680121000
B0959414753187N01218829EA0159601672122000
K095941000003
B0959454753266N01218845EA0159201672123000
B0959494753345N01218866EA0158801664125004
B0959534753420N01218900EA0158101656126000
B0959574753500N01218933EA0158101656124004
K095957314002
B1000014753575N01218966EA0158501664118004
B1000054753645N01218995EA0158601664115008
B1000094753720N01219025EA0158301656115008
B1000134753791N01219058EA0157901656114004
B1000174753862N01219083EA0157701656113008
K100017076004
B1000214753933N01219112EA0157601656112004
B1000254754004N01219137EA0156901648113004
B1000294754079N01219158EA0156301640114004
B1000334754150N01219179EA0155701632116004
B1000374754225N01219204EA0155201632116004
K100037090006
B1000414754300N01219225EA0154401624117004
B1000454754375N01219250EA0153901616116000
B1000494754450N01219275EA0153101608116000
B1000534754525N01219304EA0152601600115000
B1000574754600N01219329EA0152101600115000
K100057104004
B1001014754675N01219358EA0151401592117000
B1001054754750N01219387EA0151101584116000
B1001094754820N01219416EA0150601584117000
B1001134754895N01219454EA0150201576117000
K100113090001
B1001174754970N01219495EA0149201568121004
B1001214755041N01219541EA0148501560120000
B1001254755112N01219587EA0148201552120004
B1001294755187N01219633EA0148101552120004
K100129314001
B1001334755258N01219679EA0148001552118008
B1001374755325N01219729EA0147501544117008
B1001414755395N01219783EA0147001544118000
B1001454755458N01219841EA0146101536122004
B1001494755525N01219900EA0145601528122000
K100149000001
B1001534755595N01219958EA0145301528121000
B1001574755666N01220012EA0145201520119004
B1002014755733N01220058EA0144701520119000
K100201090005
B1002054755804N01220108EA0144101512119000
B1002094755879N01220150EA0143801512119000
B1002134755954N01220191EA0143401504123004
B1002174756029N01220229EA0143201504123000
B1002214756108N01220262EA0142801496124008
K100221106007
B1002254756187N01220295EA0142701496124008
B1002294756266N01220325EA0142401496125004
B1002334756345N01220354EA0141801488126008
B1002374756429N01220383EA0141101488126008
B1002414756508N01220416EA0140501480127008
K100241112005
B1002454756583N01220454EA0140401472127004
B1002494756658N01220500EA0140301472125008
B1002534756733N01220545EA0140301472122004
B1002574756804N01220595EA0140301472121004
K100257000001
B1003014756875N01220641EA0140101472120004
B1003054756950N01220679EA0140101472119004
B1003094757020N01220720EA0139601464120004
B1003134757095N01220758EA0139301464119004
K100313062002
B1003174757166N01220804EA0139101464120004
B1003214757237N01220850EA0139101464119004
B1003254757308N01220895EA0138701456121004
B1003294757383N01220941EA0138401456124004
B1003334757454N01220987EA0138201456124008
K100333044001
B1003374757529N01221029EA0138201456120008
B1003414757604N01221070EA0138001448119004
B1003454757679N01221104EA0137901448120008
B1003494757754N01221141EA0137101440120008
K100349098006
B1003534757833N01221170EA0136601432119008
B1003574757912N01221195EA0135701424121012
B1004014757991N01221216EA0135301424119008
B1004054758070N01221233EA0134801416118008
B1004094758150N01221250EA0134201408124008
K100409120008
B1004134758233N01221266EA0134101408124008
B1004174758312N01221287EA0133601408123008
B1004214758391N01221308EA0132801400130004
B1004254758475N01221325EA0132901400127008
K100425108003
B1004294758554N01221337EA0134401416120008
B1004334758633N01221350EA0135201424118008
B1004374758712N01221366EA0136701440113008
B1004414758787N01221387EA0137201440117008
K100441162003
B1004454758862N01221404EA0137301448106008
B1004494758929N01221425EA0136901440109008
B1004534759004N01221445EA0135501432113008
B1004574759079N01221470EA0134701416115008
K100457126005
B1005014759154N01221500EA0133801408120008
B1005054759233N01221529EA0133601400118008
B1005094759308N01221558EA0133401400117004
B1005134759383N01221583EA0133401400115008
K100513126008
B1005174759458N01221604EA0133401400110008
B1005214759529N01221629EA0132801400109008
B1005254759604N01221654EA0132301392111004
B1005294759679N01221683EA0132301392113008
K100529134008
B1005334759754N01221716EA0132301392115008
B1005374759825N01221750EA0132301392116008
B1005414759895N01221783EA0132401392111004
B1005454759962N01221820EA0132401392109008
K100545134005
B1005494800029N01221858EA0132401392109008
B1005534800091N01221900EA0132201384110008
B1005574800158N01221941EA0131601384109008
B1006014800220N01221983EA0131101376109008
K100601112005
B1006054800283N01222029EA0130601376110004
B1006094800345N01222075EA0130601368108008
B1006134800412N01222108EA0130601368106004
B1006174800475N01222141EA0130501368105004
B1006214800541N01222170EA0130401368105004
K100621106007
B1006254800604N01222200EA0129901368105004
B1006294800670N01222233EA0129901368104004
B1006334800733N01222270EA0129401360107004
B1006374800795N01222308EA0129101352109004
K100637090003
B1006414800862N01222345EA0128901352110004
B1006454800925N01222387EA0128601352110004
B1006494800991N01222429EA0128401344110004
B1006534801050N01222475EA0127901344109004
K100653044002
B1006574801112N01222525EA0127501344109004
B1007014801170N01222579EA0127301336109004
B1007054801229N01222637EA0127301336109004
B1007094801283N01222695EA0127101336109008
K100709034003
B1007134801337N01222754EA0126701328110008
B1007174801391N01222816EA0126201328111008
B1007214801445N01222883EA0125801320116008
B1007254801495N01222950EA0125301312114004
K100725008006
B1007294801550N01223020EA0124701312113008
B1007334801604N01223091EA0124201304118004
B1007374801662N01223158EA0124001304115004
B1007414801716N01223229EA0124101304115004
B1007454801770N01223300EA0124701312113004
K100745000006
B1007494801829N01223362EA0125801320111008
B1007534801891N01223395EA0126601328104008
B1007574801958N01223379EA0127201336101008
B1008014802004N01223300EA0127101336098008
K100801058016
B1008054802008N01223195EA0127101336099008
B1008094801962N01223108EA0127101336100008
B1008134801900N01223095EA0127101336098008
B1008174801845N01223145EA0127201336100008
K100817058016
B1008214801820N01223225EA0128001344096012
B1008254801816N01223308EA0128801352092008
B1008294801825N01223391EA0128801360095012
B1008334801845N01223470EA0128401352098012
B1008374801870N01223554EA0127501336103008
K100837058016
B1008414801900N01223633EA0127501344103008
B1008454801925N01223712EA0128001344100008
B1008494801950N01223795EA0127001336102008
B1008534801979N01223879EA0125401320108008
B1008574802012N01223966EA0124501312110008
K100857022010
B1009014802050N01224054EA0123901304111008
B1009054802087N01224141EA0124101304110008
B1009094802120N01224220EA0124001304108008
B1009134802162N01224304EA0123201296112008
B1009174802208N01224387EA0123001296109008
K100917018009
B1009214802250N01224466EA0122901296114008
B1009254802295N01224545EA0122701288115008
B1009294802345N01224616EA0122601296113008
B1009334802404N01224683EA0122001288120012
K100933060008
B1009374802462N01224745EA0121401280120008
B1009414802520N01224808EA0121201280116012
B1009454802579N01224866EA0121201280111012
B1009494802637N01224925EA0120501272114008
K100949074007
B1009534802695N01224979EA0120001264112008
B1009574802754N01225033EA0120001264112012
B1010014802812N01225087EA0120001264108008
B1010054802875N01225129EA0120001264106008
K101005084009
B1010094802941N01225162EA0120001264107008
B1010134803012N01225183EA0120001264109008
B1010174803083N01225204EA0120401272106008
B1010214803150N01225220EA0120501272103008
B1010254803216N01225237EA0120001264102008
K101025106007
B1010294803283N01225262EA0119101256107008
B1010334803345N01225295EA0118801248105008
B1010374803404N01225333EA0118801248103008
B1010414803462N01225379EA0118601248103008
K101041296002
B1010454803512N01225433EA0118701248103008
B1010494803566N01225483EA0118701256101008
B1010534803620N01225533EA0119101256102008
B1010574803679N01225579EA0119401256104008
B1011014803750N01225579EA0119801264102004
K101101332002
B1011054803804N01225516EA0120201264103008
B1011094803816N01225412EA0120801272099008
B1011134803770N01225333EA0120201264101008
B1011174803704N01225333EA0119601256104008
K101117058016
B1011214803654N01225400EA0119701256105008
B1011254803625N01225483EA0120201264101008
B1011294803625N01225579EA0120801272100008
B1011334803654N01225654EA0121601280098008
K101133058016
B1011374803712N01225679EA0121201280093008
B1011414803770N01225633EA0120101264101008
B1011454803804N01225541EA0119801264096008
B1011494803787N01225441EA0119101256097008
K101149088005
B1011534803729N01225383EA0116701240112008
B1011574803650N01225400EA0116301224120008
B1012014803579N01225437EA0117401240114008
B1012054803504N01225450EA0118401248106008
K101205284004
B1012094803437N01225437EA0118901256098008
B1012134803383N01225362EA0118601248100008
B1012174803383N01225254EA0118201248103008
B1012214803429N01225183EA0118201240101004
B1012254803495N01225170EA0119201256094008
K101225284004
B1012294803550N01225195EA0119401256090008
B1012334803604N01225233EA0120201264091008
B1012374803645N01225291EA0120201264097004
B1012414803633N01225383EA0120001264105008
K101241284004
B1012454803566N01225400EA0120201264110008
B1012494803525N01225312EA0120501264105008
B1012534803558N01225220EA0120101264110008
B1012574803633N01225229EA0119901264116008
K101257072007
B1013014803658N01225320EA0121701280102004
B1013054803625N01225404EA0122201280108008
B1013094803554N01225416EA0122201288117000
B1013134803495N01225345EA0122901288105000
B1013174803495N01225237EA0122601288105008
K101317076005
B1013214803545N01225158EA0121701280112004
B1013254803620N01225170EA0121401272119008
B1013294803675N01225245EA0123401296107008
B1013334803687N01225337EA0124501304104008
K101333098005
B1013374803645N01225416EA0124701304109008
B1013414803575N01225425EA0123901304111008
B1013454803516N01225354EA0123901296109008
K101345084005
B1013494803504N01225241EA0124001304104004
B1013534803537N01225145EA0124101304103008
B1013574803604N01225104EA0124101304108004
B1014014803670N01225112EA0125301312103004
B1014054803733N01225137EA0125501320101008
K101405098008
B1014094803795N01225170EA0125501320101008
B1014134803850N01225225EA0125101312103008
B1014174803895N01225300EA0124301304108008
B1014214803941N01225387EA0122701296116008
K101421094008
B1014254803983N01225479EA0122101288122008
B1014294804029N01225570EA0122001280122008
B1014334804070N01225658EA0122001280116008
B1014374804116N01225745EA0122001280117008
K101437056003
B1014414804154N01225833EA0121801280116008
B1014454804195N01225929EA0121201272115008
B1014494804229N01226016EA0121201272112008
B1014534804262N01226108EA0120901272112008
B1014574804295N01226200EA0120901272115008
K101457078005
B1015014804325N01226295EA0120001264119008
B1015054804358N01226387EA0120001264121008
B1015094804391N01226479EA0120001264117008
B1015134804425N01226570EA0119601256116008
B1015174804462N01226654EA0119101256112008
K101517076008
B1015214804500N01226741EA0118801248112008
B1015254804537N01226829EA0119001256114008
B1015294804575N01226912EA0119301256110008
B1015334804612N01226995EA0120201264108008
K101533066007
B1015374804650N01227079EA0120801272106008
B1015414804691N01227158EA0121001272107008
B1015454804729N01227237EA0120601272106008
B1015494804775N01227312EA0120601272103008
K101549098006
B1015534804820N01227383EA0120001264105008
B1015574804870N01227458EA0118801256117004
B1016014804929N01227537EA0117801240123008
B1016054804987N01227620EA0117501240120008
B1016094805037N01227704EA0117801248116008
K101609072003
B1016134805083N01227787EA0117801240116008
B1016174805125N01227866EA0118701248104008
B1016214805162N01227941EA0118301248106008
B1016254805204N01228025EA0117501240111008
B1016294805241N01228108EA0116801232113008
K101629090004
B1016334805279N01228195EA0116501224113008
B1016374805320N01228279EA0116401224112008
B1016414805358N01228366EA0116301224111008
B1016454805395N01228450EA0115901224110008
K101645068005
B1016494805433N01228529EA0115501216110008
B1016534805470N01228612EA0115501216110008
B1016574805504N01228700EA0115401216110008
B1017014805537N01228783EA0116401224107008
B1017054805570N01228866EA0117001232103008
K101705050006
B1017094805566N01228950EA0117901240095008
B1017134805525N01229004EA0117601240098008
B1017174805458N01228987EA0117001232103004
B1017214805420N01228904EA0117001232096008
K101721094008
B1017254805420N01228800EA0116901224092004
B1017294805466N01228720EA0116101216104004
B1017334805537N01228695EA0116001224107008
B1017374805600N01228716EA0117201232101008
K101737094008
B1017414805658N01228750EA0118201240097004
B1017454805700N01228816EA0119301256096008
B1017494805700N01228904EA0118801248103008
B1017534805645N01228954EA0117401240110008
K101753100012
B1017574805583N01228891EA0116701232112008
B1018014805591N01228770EA0116101216119008
B1018054805658N01228704EA0117401232113008
B1018094805729N01228691EA0119601256102008
B1018134805791N01228695EA0120701264093004
K101813120011
B1018174805858N01228695EA0120301264099008
B1018214805920N01228658EA0120101264099008
B1018254805945N01228562EA0120101264099008
B1018294805908N01228470EA0119701256100008
K101829300011
B1018334805841N01228450EA0119501256106008
B1018374805775N01228483EA0119401256104004
B1018414805720N01228545EA0119601256108008
B1018454805691N01228629EA0120701272103008
K101845300011
B1018494805675N01228720EA0120701272104008
B1018534805695N01228804EA0121101280100008
B1018574805741N01228862EA0120901272097008
B1019014805800N01228895EA0120101264103008
B1019054805854N01228945EA0120201264101008
K101905300011
B1019094805904N01229004EA0120101264098008
B1019134805945N01229079EA0119301256106008
B1019174805987N01229162EA0118801256111008
B1019214806016N01229254EA0118801248111008
K101921348009
B1019254806041N01229350EA0118601248113008
B1019294806062N01229445EA0118401248111008
B1019334806079N01229545EA0118201248109008
B1019374806100N01229641EA0117601240111008
K101937022007
B1019414806116N01229741EA0117201232113008
B1019454806133N01229841EA0116701232115008
B1019494806150N01229945EA0116301224115008
B1019534806166N01230045EA0116401224114008
K101953040007
B1019574806175N01230145EA0116501224110008
B1020014806187N01230241EA0116501224108008
B1020054806204N01230337EA0116501224106008
B1020094806220N01230433EA0116301224112008
K102009062006
B1020134806237N01230525EA0116001216109008
B1020174806258N01230620EA0115301216110008
B1020214806283N01230716EA0115001208111008
B1020254806291N01230816EA0114901208109008
K102025120011
B1020294806287N01230912EA0114901208107008
B1020334806279N01231012EA0115201216110008
B1020374806266N01231108EA0116401224101008
B1020414806250N01231195EA0117201232097008
B1020454806233N01231279EA0117201232098008
K102045090005
B1020494806220N01231362EA0117501240095008
B1020534806200N01231445EA0118001240099008
B1020574806195N01231533EA0117901240099008
B1021014806216N01231612EA0118701248092004
K102101300011
B1021054806266N01231658EA0118901248093008
B1021094806329N01231654EA0118901248095008
B1021134806387N01231595EA0117901240099008
B1021174806412N01231491EA0117301232101000
K102117100005
B1021214806387N01231387EA0116401224104004
B1021254806329N01231333EA0115001216104008
B1021294806258N01231337EA0114101208106004
B1021334806195N01231387EA0113801200107004
B1021374806158N01231462EA0113801200103008
K102137300011
B1021414806120N01231537EA0114501208101008
B1021454806091N01231612EA0114901208096008
B1021494806066N01231691EA0114501208097008
B1021534806050N01231779EA0114001200101008
K102153066007
B1021574806037N01231875EA0114201208103008
B1022014806033N01231970EA0115501216103008
B1022054806070N01232045EA0116401224100008
B1022094806133N01232058EA0116401224098008
K102209300011
B1022134806191N01231987EA0115501216104008
B1022174806195N01231875EA0115101216106008
B1022214806141N01231808EA0115101216109008
B1022254806079N01231837EA0115101216108008
B1022294806037N01231916EA0115601224107004
K102229110007
B1022334806020N01232012EA0116401232103008
B1022374806025N01232104EA0117501240102004
B1022414806062N01232170EA0117501240098004
B1022454806125N01232179EA0116901232100008
K102245104007
B1022494806179N01232104EA0116301224104008
B1022534806179N01231995EA0116101224099008
B1022574806133N01231916EA0114701208103008
B1023014806062N01231900EA0114101200110008
B1023054806000N01231941EA0115201208104008
K102305094009
B1023094805945N01231987EA0116101224100008
B1023134805904N01232054EA0117101232098008
B1023174805900N01232133EA0117101232093004
B1023214805920N01232212EA0116501232100008
B1023254805945N01232291EA0116401224100004
K102325092011
B1023294805975N01232370EA0116001224102004
B1023334806008N01232454EA0115301216103004
B1023374806041N01232533EA0115901224105004
B1023414806079N01232612EA0116101224105008
K102341042012
B1023454806095N01232695EA0117101232096008
B1023494806070N01232766EA0117301232097008
B1023534806004N01232775EA0116001216115008
B1023574805962N01232675EA0116001216116008
K102357272011
B1024014806000N01232570EA0116101224116008
B1024054806070N01232562EA0116501224115004
B1024094806129N01232625EA0116901232110008
B1024134806154N01232712EA0116901232110004
K102413112010
B1024174806162N01232808EA0116801232111004
B1024214806170N01232904EA0116801232108004
B1024254806191N01232991EA0117001232105004
B1024294806216N01233079EA0117201232108008
B1024334806250N01233158EA0117501240103008
K102433026011
B1024374806316N01233179EA0117301240102008
B1024414806370N01233116EA0116701232105008
B1024454806387N01233000EA0115001216109008
B1024494806341N01232908EA0113801200111008
K102449290010
B1024534806270N01232870EA0113501200110008
B1024574806200N01232870EA0113701200106008
B1025014806137N01232891EA0114601208102008
B1025054806079N01232916EA0115401216101008
K102505290010
B1025094806029N01232966EA0115901224096008
B1025134806016N01233045EA0116301224095008
B1025174806041N01233116EA0116501232090008
B1025214806095N01233150EA0116501232094008
B1025254806154N01233116EA0115801216096004
K102525082009
B1025294806187N01233020EA0114601208104008
B1025334806162N01232912EA0114401208110004
B1025374806104N01232845EA0115101216105004
B1025414806041N01232804EA0116001224101008
B1025454805975N01232795EA0116301224094008
K102545076009
B1025494805912N01232820EA0115101216100008
B1025534805866N01232883EA0115001216101008
B1025574805837N01232966EA0115001216100008
B1026014805829N01233058EA0114901216099008
K102601064008
B1026054805833N01233154EA0113501200105008
B1026094805854N01233254EA0112601192112008
B1026134805891N01233345EA0112301184115008
B1026174805937N01233420EA0112201184115008
K102617064008
B1026214805991N01233491EA0111901184112008
B1026254806045N01233541EA0112201184105008
B1026294806104N01233587EA0111701176106008
B1026334806166N01233629EA0111601184108008
B1026374806225N01233666EA0112201184106004
K102637084009
B1026414806287N01233704EA0112201184102008
B1026454806350N01233741EA0112001184103008
B1026494806412N01233775EA0111601176107008
B1026534806475N01233812EA0111201176108008
K102653100011
B1026574806537N01233845EA0111001176106008
B1027014806604N01233875EA0110701168108008
B1027054806675N01233891EA0109901160109008
B1027094806745N01233900EA0109401160108004
K102709106018
B1027134806820N01233900EA0108901152111008
B1027174806895N01233883EA0108401144109008
B1027214806970N01233866EA0108201144109008
B1027254807041N01233850EA0107701136110008
K102725110014
B1027294807112N01233833EA0107201136107008
B1027334807183N01233808EA0106701128107008
B1027374807254N01233779EA0105901120106008
B1027414807320N01233750EA0105401112108008
K102741112010
B1027454807395N01233737EA0104801104108008
B1027494807466N01233737EA0104001096107008
B1027534807533N01233745EA0103901096110008
B1027574807600N01233766EA0103901096106008
B1028014807666N01233791EA0103401096104008
K102801180003
B1028054807729N01233825EA0102701088103008
B1028094807791N01233862EA0102101080108008
B1028134807854N01233916EA0102001080110008
B1028174807883N01233995EA0102301080106008
K102817180002
B1028214807862N01234079EA0101501072110008
B1028254807795N01234116EA0100401056115008
B1028294807729N01234070EA0099801056113004
B1028334807666N01234016EA0100401056105008
K102833244008
B1028374807600N01234008EA0100701064099008
B1028414807545N01234054EA0099801056105008
B1028454807525N01234141EA0099201048105008
B1028494807525N01234233EA0098901040105008
B1028534807529N01234325EA0098901040105008
K102853064008
B1028574807541N01234412EA0098601040103008
B1029014807550N01234500EA0098001032103004
B1029054807566N01234587EA0097601032103008
B1029094807591N01234666EA0097601032102004
K102909032009
B1029134807629N01234741EA0098001032101004
B1029174807675N01234808EA0098001032105008
B1029214807729N01234858EA0099201048103008
B1029254807791N01234850EA0099501048095004
K102925040009
B1029294807837N01234766EA0098401040107008
B1029334807825N01234654EA0099201040099008
B1029374807766N01234595EA0099401048099008
B1029414807708N01234629EA0098401040107004
K102941064008
B1029454807691N01234720EA0098401040111008
B1029494807704N01234808EA0100401056097004
B1029534807700N01234883EA0100801064091004
B1029574807654N01234925EA0100801064100008
B1030014807595N01234862EA0099001048115008
K103001276014
B1030054807620N01234745EA0098801040123008
B1030094807691N01234737EA0099701048117008
B1030134807720N01234825EA0099601048116008
B1030174807670N01234895EA0099601048116008
K103017096009
B1030214807600N01234858EA0101101064114008
B1030254807583N01234750EA0102201080104008
B1030294807633N01234679EA0102001072111008
B1030334807691N01234725EA0102301080106008
B1030374807670N01234808EA0102801080105008
K103037076012
B1030414807604N01234795EA0103201088111008
B1030454807583N01234687EA0104101096104000
B1030494807629N01234612EA0104501096102004
B1030534807691N01234637EA0103901088109008
K103053096013
B1030574807695N01234729EA0103901096107004
B1031014807645N01234775EA0104301096109004
B1031054807579N01234733EA0104901104106008
B1031094807558N01234625EA0105401104105008
K103109078013
B1031134807604N01234545EA0106101112102008
B1031174807662N01234566EA0105901112104008
B1031214807679N01234654EA0106101112106008
B1031254807637N01234716EA0106801120100008
B1031294807575N01234704EA0106801120105008
K103129080012
B1031334807525N01234616EA0106501120110004
B1031374807541N01234504EA0108201136103008
B1031414807604N01234470EA0108501144101008
B1031454807645N01234533EA0108001136108008
B1031494807616N01234612EA0108501144108008
K103149080014
B1031534807550N01234595EA0109101144104008
B1031574807525N01234491EA0109701152100004
B1032014807562N01234404EA0110401160099008
K103201084015
B1032054807625N01234391EA0110601168092004
B1032094807670N01234445EA0110201160099004
B1032134807666N01234537EA0110001152106008
B1032174807616N01234579EA0110901168094008
B1032214807554N01234550EA0110401160103008
K103221084012
B1032254807525N01234445EA0110601160104008
B1032294807550N01234350EA0111801176096008
B1032334807608N01234320EA0111901176095008
B1032374807658N01234370EA0110801160105008
K103237078013
B1032414807650N01234462EA0111501168106008
B1032454807595N01234512EA0111801176100008
B1032494807529N01234479EA0110801168110008
B1032534807512N01234362EA0111501168110008
B1032574807558N01234279EA0112401184103008
K103257082014
B1033014807620N01234291EA0112601184100004
B1033054807645N01234370EA0112201176107008
B1033094807608N01234441EA0112701184104008
B1033134807541N01234429EA0113201192098008
B1033174807495N01234341EA0113701192099008
K103317078014
B1033214807508N01234237EA0114501200095008
B1033254807558N01234179EA0114601208095008
B1033294807616N01234187EA0114601200090008
B1033334807662N01234237EA0114101200095008
K103333084015
B1033374807716N01234287EA0113901192102008
B1033414807775N01234333EA0113501192106008
B1033454807841N01234366EA0113501192103008
B1033494807904N01234404EA0113501192100008
B1033534807962N01234445EA0113101192101008
K103353104008
B1033574808025N01234479EA0112601184102008
B1034014808091N01234504EA0112201184103008
B1034054808162N01234520EA0111901184106008
B1034094808229N01234529EA0111901176107008
K103409110013
B1034134808295N01234541EA0111601176103008
B1034174808362N01234558EA0110701168101008
B1034214808429N01234575EA0109801152106008
B1034254808504N01234587EA0109401152109008
B1034294808570N01234616EA0109601152108008
K103429106010
B1034334808625N01234675EA0111001168099008
B1034374808633N01234750EA0110701168094008
B1034414808587N01234795EA0108701152107008
B1034454808520N01234754EA0107301136119008
K103445110011
B1034494808495N01234641EA0108501136114008
B1034534808512N01234529EA0108801144099012
B1034574808554N01234437EA0108601144101008
B1035014808612N01234370EA0110301152101012
B1035054808670N01234329EA0111201168101012
K103505084015
B1035094808725N01234358EA0111301168101012
B1035134808729N01234441EA0110501160109012
B1035174808679N01234491EA0110401160114008
B1035214808608N01234458EA0109901152111008
K103521096021
B1035254808587N01234345EA0110401160114004
B1035294808620N01234241EA0111801168106008
B1035334808683N01234187EA0112801184103008
B1035374808745N01234200EA0114201200101008
B1035414808779N01234270EA0114501200098012
K103541104018
B1035454808766N01234362EA0113601192106008
B1035494808704N01234400EA0113501192109008
B1035534808645N01234333EA0113501192116008
B1035574808650N01234212EA0114101200111008
K103557102012
B1036014808704N01234137EA0115201208103008
B1036054808770N01234125EA0115701216100008
B1036094808820N01234175EA0115701216098008
B1036134808820N01234262EA0115301208104008
K103613102013
B1036174808762N01234308EA0114501200111008
B1036214808704N01234237EA0114901200107008
B1036254808691N01234125EA0115201208099008
B1036294808716N01234020EA0115701208098008
B1036334808775N01233958EA0116301224098008
K103633092019
