ACAM3J2
HFDTE030506
HFFXA050
HFPLTPILOT:Martin Dinges           
HFGTYGLIDERTYPE:Ventus 2    
HFGIDGLIDERID:D-7709      
HFDTM100GPSDATUM:
HFRFWFIRMWAREVERSION:F2.6
HFRHWHARDWAREVERSION:300 Series Version 2
HFFTYFRTYPE:CAMBRIDGE AERO INSTRUMENTS, 302+
HFGPS:GARMIN,LVS-25,12,18000
HFPRSPRESSALTSENSOR:INTERSEMA, MS5534-AP, 20000
I033638FXA3941ENL4247REX
LCAMSBVER:5FWVER:F26300
C030506075711030506000102
C0000000N00000000WTAKEOFF     
C4740715N01157765EGEITAU      
C4636280N01340480EDOBRATSCH   
C4627730N00947565ESILVAPLANA K
C4740715N01157765EGEITAU      
C0000000N00000000WLANDING     
B0819414740566N01157845EA0077700839000000000000
B0819434740566N01157844EA0077700839000000000000
B0819454740566N01157844EA0077700840000000000000
B0819474740566N01157844EA0077700841000000000000
B0819494740566N01157844EA0077700841000000000000
B0819514740566N01157844EA0077700842000000000000
B0819534740566N01157844EA0077800842000000000000
B0819554740566N01157844EA0077700843000000000000
B0819574740566N01157844EA0077700843000000000000
B0819594740566N01157842EA0077700843000000000000
B0820014740566N01157842EA0077700844000000000000
B0820034740565N01157842EA0077700844000000000000
B0820054740565N01157842EA0077700845000000000000
B0820074740565N01157841EA0077700846000000000000
B0820094740565N01157841EA0077700846000000000000
B0820144740592N01157825EA0077300843000000015000
B0820184740648N01157794EA0077400882000000000000
B0820224740704N01157768EA0084500981000000000000
B0820264740755N01157743EA0094101061000000000000
B0820304740813N01157733EA0101001116000000000000
B0820344740869N01157723EA0106001153000000000000
B0820384740917N01157711EA0108601170000000000000
B0820424740959N01157716EA0109401163000000000000
B0820464741003N01157745EA0108201154000000000000
B0820504741045N01157785EA0107601148000000000000
B0820544741086N01157832EA0106901141000000000000
B0820584741125N01157886EA0106501138000000000000
B0821024741160N01157946EA0107001133000000000000
B0821064741194N01158014EA0106701127000000000000
B0821104741219N01158092EA0106201121000000000000
B0821144741233N01158179EA0105301114000000000000
B0821184741233N01158271EA0104801113000000000000
B0821224741214N01158357EA0104801114000000000000
B0821264741181N01158431EA0104701113000000000000
B0821304741145N01158505EA0104701111000000000000
B0821344741110N01158581EA0104901118000000000000
B0821384741073N01158652EA0105601123000000000000
B0821424741021N01158694EA0105701116000000000000
B0821464740961N01158721EA0104701112000000000000
B0821504740909N01158769EA0104701110000000000000
B0821544740863N01158830EA0104301107000000000000
B0821584740822N01158899EA0104101104000000000000
B0822024740785N01158971EA0103701101000000000000
B0822064740747N01159042EA0103601100000000000000
B0822104740710N01159115EA0103301095000000000000
B0822144740669N01159185EA0102901091000000000000
B0822184740623N01159251EA0102401086000000000000
B0822224740575N01159313EA0101701080000000000000
B0822264740522N01159368EA0101201077000000000000
B0822304740470N01159419EA0101001074000000000000
B0822344740418N01159474EA0100901077000000000000
B0822384740369N01159531EA0101001074000000000000
B0822424740331N01159605EA0100801072000000000000
B0822464740311N01159688EA0100601071000000000000
B0822504740298N01159775EA0100601070000000000000
B0822544740283N01159859EA0100501069000000000000
B0822584740265N01159940EA0100501066000000000000
B0823024740245N01200025EA0100101066000000000000
B0823064740220N01200103EA0100701076000000000000
B0823104740192N01200173EA0101401080000000000000
B0823144740159N01200239EA0101601083000000000000
B0823184740123N01200301EA0101801081000000000000
B0823224740103N01200375EA0101301076000000000000
B0823264740096N01200453EA0101101075000000000000
B0823304740080N01200532EA0101101074000000000000
B0823344740049N01200600EA0101401085000000000000
B0823384740005N01200639EA0102401086000000000000
B0823424739954N01200674EA0102001079000000000000
B0823464739901N01200709EA0101501080000000000000
B0823504739847N01200730EA0102301091000000000000
B0823544739798N01200737EA0103201097000000000000
B0823584739768N01200787EA0103401091000000000000
B0824024739799N01200856EA0102001072000000000000
B0824064739856N01200840EA0101201076000000000000
B0824104739895N01200780EA0101401073000000000000
B0824144739937N01200718EA0100801067000000000000
B0824184739984N01200661EA0100801071000000000000
B0824224740032N01200615EA0100901071000000000000
B0824264740076N01200559EA0101001074000000000000
B0824304740101N01200481EA0101401081000000000000
B0824344740106N01200401EA0102601093000000000000
B0824384740110N01200329EA0103101095000000000000
B0824424740135N01200268EA0103101087000000000000
B0824464740171N01200211EA0102401087000000000000
B0824504740194N01200143EA0102701091000000000000
B0824544740213N01200072EA0102901095000000000000
B0824584740228N01200000EA0103401095000000000000
B0825024740245N01159925EA0103101094000000000000
B0825064740257N01159846EA0103301102000000000000
B0825104740263N01159771EA0104301113000000000000
B0825144740280N01159703EA0105001109000000000000
B0825184740314N01159651EA0104401105000000000000
B0825224740359N01159679EA0104101103000000000000
B0825264740356N01159756EA0103901098000000000000
B0825304740310N01159812EA0103201095000000000000
B0825344740270N01159874EA0103201096000000000000
B0825384740248N01159953EA0103501101000000000000
B0825424740220N01200026EA0104001104000000000000
B0825464740194N01200100EA0103901104000000000000
B0825504740170N01200176EA0104101109000000000000
B0825544740133N01200237EA0104901114000000000000
B0825584740094N01200297EA0104901109000000000000
B0826024740076N01200375EA0104301107000000000000
B0826064740066N01200458EA0104301107000000000000
B0826104740051N01200536EA0104801118000000000000
B0826144740020N01200592EA0105701122000000000000
B0826184739975N01200633EA0105201112000000000000
B0826224739921N01200674EA0104801112000000000000
B0826264739865N01200694EA0105201119000000015000
B0826304739808N01200693EA0105801126000000000000
B0826344739755N01200679EA0106601133000000000000
B0826384739706N01200658EA0107201136000000000000
B0826424739657N01200657EA0107101132000000000000
B0826464739630N01200722EA0106201117000000000000
B0826504739668N01200784EA0105201113000000015000
B0826544739728N01200778EA0105001114000000000000
B0826584739784N01200748EA0105101113000000000000
B0827024739842N01200722EA0104901113000000000000
B0827064739901N01200693EA0105001114000000000000
B0827104739958N01200653EA0105501123000000000000
B0827144740001N01200596EA0106501128000000000000
B0827184740033N01200525EA0106401126000000000000
B0827224740060N01200451EA0106801132000000000000
B0827264740085N01200376EA0106801130000000000000
B0827304740109N01200297EA0106901132000000000000
B0827344740135N01200223EA0106901128000000000000
B0827384740163N01200150EA0106601129000000000000
B0827424740184N01200070EA0106801131000000000000
B0827464740202N01159991EA0107101133000000000000
B0827504740220N01159912EA0107301134000000000000
B0827544740235N01159829EA0107501140000000000000
B0827584740246N01159748EA0108101144000000000000
B0828024740262N01159671EA0108601150000000000000
B0828064740280N01159597EA0108601145000000000000
B0828104740305N01159524EA0108601149000000000000
B0828144740354N01159515EA0109301156000000000000
B0828184740379N01159587EA0109601159000000000000
B0828224740354N01159662EA0109701158000000000000
B0828264740306N01159717EA0109101152000000000000
B0828304740261N01159774EA0108701148000000000000
B0828344740229N01159849EA0108301144000000000000
B0828384740207N01159931EA0108301153000000000000
B0828424740183N01159999EA0109801165000000000000
B0828464740161N01200065EA0110001162000000000000
B0828504740140N01200141EA0109701162000000000000
B0828544740110N01200211EA0109801163000000000000
B0828584740081N01200282EA0109601158000000000000
B0829024740059N01200362EA0109301158000000000000
B0829064740037N01200441EA0109401158000000000000
B0829104740006N01200515EA0109601162000000000000
B0829144739968N01200577EA0110001167000000000000
B0829184739921N01200623EA0110501172000000000000
B0829224739864N01200637EA0110701170000000000000
B0829264739803N01200622EA0111201178000000015000
B0829304739773N01200676EA0112101187000000015000
B0829344739813N01200718EA0112401185000000015000
B0829384739863N01200683EA0112201184000000015000
B0829424739906N01200622EA0112101186000000015000
B0829464739942N01200555EA0112601195000000015000
B0829504739973N01200486EA0113201200000000015000
B0829544740001N01200412EA0113401199000000015000
B0829584740029N01200338EA0113701201000000015000
B0830024740059N01200264EA0113601197000000015000
B0830064740094N01200189EA0113001193000000015000
B0830104740125N01200112EA0113201198000000015000
B0830144740148N01200033EA0113701203000000015000
B0830184740167N01159952EA0114001208000000015000
B0830224740179N01159873EA0114801213000000015000
B0830264740201N01159807EA0115201216000000015000
B0830304740248N01159826EA0114801208000000000000
B0830344740245N01159907EA0114601212000000000000
B0830384740203N01159969EA0114801209000000000000
B0830424740155N01200029EA0114201206000000000000
B0830464740116N01200102EA0113701210000000000000
B0830504740079N01200172EA0114501218000000000000
B0830544740042N01200241EA0114401212000000000000
B0830584740019N01200323EA0113601211000000000000
B0831024740002N01200405EA0113701208000000000000
B0831064739975N01200486EA0113301208000000000000
B0831104739929N01200545EA0114001221000000000000
B0831144739873N01200564EA0115001222000000015000
B0831184739811N01200559EA0115101227000000015000
B0831224739754N01200529EA0116201239000000015000
B0831264739702N01200522EA0117201244000000015000
B0831304739686N01200587EA0117101238000000015000
B0831344739735N01200626EA0116101230000000015000
B0831384739794N01200594EA0115901230000000015000
B0831424739849N01200551EA0116101240000000015000
B0831464739901N01200561EA0117001242000000015000
B0831504739899N01200632EA0116901238000000015000
B0831544739843N01200640EA0116201229000000015000
B0831584739789N01200589EA0116101238000000015000
B0832024739741N01200532EA0117001245000000015000
B0832064739690N01200490EA0117201246000000000000
B0832104739633N01200460EA0117401248000000000000
B0832144739579N01200424EA0117401246000000000000
B0832184739525N01200385EA0117201243000000000000
B0832224739478N01200327EA0117201248000000000000
B0832264739442N01200259EA0118101254000000000000
B0832304739414N01200187EA0118201253000000000000
B0832344739390N01200111EA0117801246000000000000
B0832384739369N01200028EA0117301241000000000000
B0832424739322N01159987EA0116601231000000000000
B0832464739277N01200029EA0115801226000000000000
B0832504739264N01200107EA0115601228000000000000
B0832544739283N01200185EA0116101236000000000000
B0832584739274N01200252EA0116601232000000000000
B0833024739219N01200230EA0115201218000000000000
B0833064739219N01200142EA0114901220000000000000
B0833104739271N01200116EA0114601212000000000000
B0833144739310N01200173EA0114201215000000000000
B0833184739342N01200243EA0114501220000000000000
B0833224739378N01200308EA0114601219000000000000
B0833264739423N01200363EA0114401214000000000000
B0833304739477N01200411EA0114001216000000000000
B0833344739534N01200446EA0114401218000000000000
B0833384739592N01200475EA0114801226000000000000
B0833424739650N01200502EA0115201224000000000000
B0833464739706N01200528EA0114901218000000000000
B0833504739760N01200559EA0114601221000000000000
B0833544739816N01200576EA0115001230000000000000
B0833584739871N01200558EA0115801234000000000000
B0834024739915N01200503EA0116101234000000000000
B0834064739955N01200442EA0116001238000000000000
B0834104739980N01200364EA0116301241000000000000
B0834144740002N01200288EA0117001248000000000000
B0834184740046N01200271EA0117601248000000015000
B0834224740053N01200350EA0116601237000000015000
B0834264739997N01200397EA0116801248000000015000
B0834304739937N01200419EA0117901259000000015000
B0834344739888N01200459EA0118701262000000015000
B0834384739850N01200519EA0118901266000000000000
B0834424739856N01200590EA0119101261000000000000
B0834464739911N01200590EA0118401254000000000000
B0834504739941N01200515EA0118101253000000000000
B0834544739956N01200429EA0118201255000000000000
B0834584739977N01200345EA0118101254000000000000
B0835024740003N01200260EA0118601261000000000000
B0835064740033N01200187EA0119301267000000000000
B0835104740067N01200125EA0119601267000000000000
B0835144740102N01200059EA0119501269000000000000
B0835184740125N01159985EA0120101277000000000000
B0835224740136N01159907EA0120501276000000000000
B0835264740145N01159827EA0120401276000000000000
B0835304740167N01159756EA0120501274000000000000
B0835344740194N01159686EA0119801267000000000000
B0835384740216N01159609EA0119501268000000000000
B0835424740229N01159530EA0120401279000000015000
B0835464740240N01159454EA0121001284000000015000
B0835504740239N01159379EA0121501288000000015000
B0835544740236N01159303EA0121901290000000015000
B0835584740268N01159251EA0121901283000000015000
B0836024740315N01159284EA0120701275000000015000
B0836064740307N01159370EA0120201272000000015000
B0836104740262N01159433EA0120301282000000015000
B0836144740226N01159501EA0121501291000000015000
B0836184740201N01159579EA0121701287000000015000
B0836224740175N01159662EA0121701293000000015000
B0836264740150N01159743EA0121901291000000015000
B0836304740138N01159834EA0121701289000000015000
B0836344740119N01159922EA0121801296000000015000
B0836384740090N01200002EA0122601305000000015000
B0836424740049N01200069EA0123101303000000015000
B0836464740005N01200138EA0122901306000000015000
B0836504739959N01200202EA0123601313000000015000
B0836544739919N01200275EA0123701310000000015000
B0836584739877N01200349EA0123801316000000015000
B0837024739823N01200388EA0124701323000000000000
B0837064739760N01200390EA0125201328000000000000
B0837104739699N01200367EA0126101342000000000000
B0837144739650N01200390EA0127101343000000015000
B0837184739657N01200462EA0126701332000000015000
B0837224739717N01200470EA0125501333000000000000
B0837264739763N01200408EA0126601352000000000000
B0837304739798N01200342EA0128301359000000000000
B0837344739838N01200280EA0128301357000000000000
B0837384739881N01200217EA0128401361000000000000
B0837424739924N01200158EA0128801367000000000000
B0837464739969N01200108EA0129401372000000000000
B0837504740018N01200078EA0130101375000000000000
B0837544740059N01200121EA0129701368000000015000
B0837584740045N01200199EA0128901358000000015000
B0838024739986N01200230EA0127901354000000015000
B0838064739924N01200242EA0127901356000000015000
B0838104739863N01200271EA0127901353000000015000
B0838144739802N01200298EA0127901358000000000000
B0838184739739N01200293EA0128701368000000000000
B0838224739681N01200265EA0129801380000000000000
B0838264739631N01200216EA0130901386000000000000
B0838304739586N01200158EA0131001387000000000000
B0838344739542N01200091EA0131601396000000000000
B0838384739499N01200029EA0132401402000000000000
B0838424739455N01200050EA0132701401000000015000
B0838464739469N01200119EA0132101389000000015000
B0838504739522N01200152EA0131601398000000000000
B0838544739581N01200164EA0132501407000000000000
B0838584739634N01200182EA0133001407000000000000
B0839024739685N01200216EA0132801406000000000000
B0839064739739N01200239EA0133401415000000000000
B0839104739791N01200243EA0134601428000000000000
B0839144739815N01200302EA0135501428000000000000
B0839184739774N01200358EA0135001425000000000000
B0839224739720N01200310EA0134701422000000000000
B0839264739686N01200230EA0134901425000000000000
B0839304739655N01200148EA0135801440000000000000
B0839344739607N01200120EA0136901444000000015000
B0839384739582N01200181EA0136501434000000015000
B0839424739621N01200230EA0135801429000000000000
B0839464739682N01200215EA0135601440000000000000
B0839504739737N01200197EA0136801453000000000000
B0839544739787N01200181EA0137601453000000000000
B0839584739838N01200161EA0137201447000000000000
B0840024739885N01200109EA0136601442000000000000
B0840064739925N01200042EA0136801451000000000000
B0840104739972N01200009EA0137701455000000000000
B0840144739997N01200076EA0137601449000000000000
B0840184739949N01200129EA0136501440000000000000
B0840224739885N01200145EA0136201442000000000000
B0840264739824N01200165EA0136501444000000000000
B0840304739761N01200163EA0137001448000000000000
B0840344739703N01200134EA0137001443000000000000
B0840384739647N01200085EA0136701446000000000000
B0840424739615N01200007EA0137501461000000000000
B0840464739602N01159926EA0139201473000000000000
B0840504739559N01159895EA0139301464000000015000
B0840544739535N01159961EA0138501463000000015000
B0840584739577N01200016EA0138601471000000015000
B0841024739633N01159994EA0140001479000000000000
B0841064739642N01159908EA0140201478000000000000
B0841104739592N01159872EA0140601486000000015000
B0841144739566N01159933EA0140901487000000000000
B0841184739603N01159995EA0141401495000000000000
B0841224739660N01159977EA0142101500000000000000
B0841264739677N01159891EA0142601506000000000000
B0841304739630N01159859EA0143301519000000015000
B0841344739600N01159921EA0144401526000000015000
B0841384739624N01159994EA0145001529000000000000
B0841424739676N01200013EA0145401536000000000000
B0841464739719N01159959EA0146001535000000000000
B0841504739730N01159862EA0145901542000000000000
B0841544739690N01159805EA0147401561000000000000
B0841584739650N01159846EA0149201576000000015000
B0842024739681N01159909EA0150101583000000015000
B0842064739735N01159873EA0151001596000000000000
B0842104739733N01159794EA0152401606000000000000
B0842144739686N01159777EA0153101610000000015000
B0842184739652N01159835EA0153301618000000000000
B0842224739667N01159911EA0154501629000000000000
B0842264739717N01159934EA0155901643000000000000
B0842304739758N01159887EA0157801659000000000000
B0842344739730N01159826EA0158501665000000000000
B0842384739685N01159870EA0159301676000000000000
B0842424739698N01159950EA0160601692000000000000
B0842464739746N01159943EA0163001715000000000000
B0842504739733N01159873EA0163901722000000000000
B0842544739678N01159903EA0165301737000000000000
B0842584739686N01159978EA0166701754000000000000
B0843024739735N01159979EA0168001762000000000000
B0843064739747N01159905EA0168601779000000000000
B0843104739693N01159887EA0170401788000000015000
B0843144739668N01159968EA0171201802000000000000
B0843184739708N01200007EA0172601814000000000000
B0843224739743N01159959EA0173601824000000000000
B0843264739729N01159879EA0174701833000000000000
B0843304739668N01159878EA0175601844000000015000
B0843344739644N01159953EA0176901858000000000000
B0843384739689N01159981EA0177901861000000000000
B0843424739730N01159930EA0178101872000000000000
B0843464739745N01159849EA0179501882000000000000
B0843504739708N01159781EA0180201889000000000000
B0843544739646N01159792EA0181301906000000000000
B0843584739644N01159868EA0183101918000000000000
B0844024739695N01159856EA0183901927000000000000
B0844064739693N01159771EA0184901935000000000000
B0844104739639N01159735EA0185501941000000000000
B0844144739604N01159796EA0186301950000000015000
B0844184739646N01159851EA0187201959000000000000
B0844224739696N01159805EA0188401982000000000000
B0844264739700N01159721EA0190601997000000000000
B0844304739654N01159687EA0191602004000000000000
B0844344739621N01159743EA0192202009000000000000
B0844384739641N01159821EA0192602012000000000000
B0844424739695N01159852EA0192902020000000000000
B0844464739747N01159813EA0194302036000000000000
B0844504739756N01159731EA0195402044000000000000
B0844544739712N01159686EA0196502054000000000000
B0844584739665N01159730EA0197102061000000000000
B0845024739670N01159814EA0197702068000000000000
B0845064739722N01159864EA0198302077000000000000
B0845104739778N01159846EA0199602096000000000000
B0845144739797N01159774EA0201302104000000000000
B0845184739755N01159722EA0201902109000000000000
B0845224739702N01159756EA0202702121000000000000
B0845264739664N01159823EA0204202136000000000000
B0845304739628N01159894EA0205602145000000000000
B0845344739589N01159968EA0206102150000000000000
B0845384739551N01200046EA0206802159000000000000
B0845424739560N01200129EA0206902154000000015000
B0845464739621N01200130EA0206402152000000000000
B0845504739665N01200060EA0206702164000000000000
B0845544739672N01159974EA0208002171000000000000
B0845584739618N01159927EA0208602179000000000000
B0846024739574N01159990EA0209602192000000000000
B0846064739612N01200048EA0210902202000000000000
B0846104739656N01200003EA0211702207000000000000
B0846144739663N01159916EA0212302215000000000000
B0846184739624N01159846EA0213102226000000000000
B0846224739557N01159849EA0213902233000000000000
B0846264739533N01159933EA0214602240000000000000
B0846304739581N01159968EA0215502251000000000000
B0846344739618N01159898EA0216702266000000000000
B0846384739591N01159818EA0218102275000000000000
B0846424739524N01159838EA0218702279000000015000
B0846464739514N01159929EA0219302289000000015000
B0846504739570N01159955EA0220502302000000000000
B0846544739607N01159887EA0221502314000000000000
B0846584739582N01159801EA0222702327000000000000
B0847024739517N01159781EA0224702337000000015000
B0847064739472N01159856EA0224902341000000000000
B0847104739504N01159926EA0225702355000000000000
B0847144739560N01159908EA0227202367000000000000
B0847184739577N01159822EA0228502378000000000000
B0847224739521N01159766EA0229402389000000000000
B0847264739456N01159820EA0230402398000000000000
B0847304739456N01159914EA0231602413000000000000
B0847344739509N01159947EA0233102427000000000000
B0847384739551N01159890EA0234402440000000000000
B0847424739529N01159800EA0235802455000000000000
B0847464739461N01159782EA0237702470000000000000
B0847504739414N01159857EA0238702486000000000000
B0847544739429N01159938EA0240202497000000000000
B0847584739481N01159948EA0240902500000000000000
B0848024739507N01159872EA0241402508000000000000
B0848064739459N01159796EA0242202519000000000000
B0848104739387N01159825EA0243402532000000015000
B0848144739379N01159920EA0245102547000000000000
B0848184739426N01159961EA0246102552000000000000
B0848224739475N01159918EA0246702564000000000000
B0848264739475N01159830EA0248602579000000000000
B0848304739417N01159778EA0249402584000000000000
B0848344739347N01159829EA0249802593000000000000
B0848384739334N01159929EA0250802603000000000000
B0848424739377N01159994EA0251202600000000000000
B0848464739440N01159990EA0251202611000000000000
B0848504739473N01159920EA0252902630000000000000
B0848544739429N01159856EA0254502639000000000000
B0848584739362N01159896EA0254902644000000015000
B0849024739347N01159995EA0256002656000000015000
B0849064739384N01200067EA0257002661000000000000
B0849104739440N01200074EA0257402661000000000000
B0849144739474N01200015EA0257702670000000000000
B0849184739448N01159942EA0258202671000000000000
B0849224739381N01159952EA0258302673000000000000
B0849264739344N01200039EA0258702680000000015000
B0849304739362N01200128EA0259302683000000000000
B0849344739413N01200158EA0258902672000000000000
B0849384739452N01200112EA0258302677000000000000
B0849424739460N01200037EA0258402672000000000000
B0849464739433N01159963EA0258102672000000000000
B0849504739388N01159899EA0258802681000000000000
B0849544739339N01159846EA0259902691000000000000
B0849584739284N01159805EA0261002705000000000000
B0850024739225N01159804EA0261302700000000015000
B0850064739180N01159879EA0260602698000000000000
B0850104739178N01159976EA0261202702000000000000
B0850144739187N01200074EA0260402685000000000000
B0850184739200N01200180EA0259102681000000000000
B0850224739212N01200290EA0258402665000000000000
B0850274739218N01200446EA0255702641000000000000
B0850314739222N01200580EA0254802627000000000000
B0850354739219N01200722EA0254202612000000000000
B0850394739218N01200871EA0253102602000000000000
B0850434739217N01201025EA0252102590000000000000
B0850474739215N01201179EA0250902584000000000000
B0850514739210N01201333EA0250602581000000000000
B0850554739197N01201484EA0250202576000000000000
B0850594739188N01201633EA0249802577000000000000
B0851034739186N01201773EA0250502587000000000000
B0851074739175N01201901EA0251402599000000000000
B0851114739156N01202015EA0252202603000000000000
B0851154739148N01202135EA0251502588000000000000
B0851194739147N01202266EA0249602568000000000000
B0851234739147N01202405EA0248602558000000000000
B0851274739145N01202547EA0247502548000000000000
B0851314739143N01202693EA0246302532000000000000
B0851354739139N01202846EA0244602512000000000000
B0851394739135N01203008EA0242502495000000000000
B0851434739127N01203175EA0241402487000000000000
B0851474739114N01203336EA0240602480000000000000
B0851514739097N01203497EA0239902466000000000000
B0851554739082N01203658EA0238602460000000000000
B0851594739065N01203818EA0238102452000000000000
B0852034739046N01203980EA0237202444000000000000
B0852074739024N01204141EA0236302438000000000000
B0852114739004N01204301EA0235802432000000000000
B0852154738984N01204462EA0234902423000000000000
B0852194738967N01204624EA0234202416000000000000
B0852234738953N01204780EA0234902439000000000000
B0852274738950N01204914EA0238102471000000000000
B0852314738950N01205039EA0239402471000000000000
B0852354738952N01205169EA0238902462000000000000
B0852394738955N01205302EA0238102451000000000000
B0852434738959N01205434EA0237002443000000000000
B0852474738965N01205569EA0236402443000000000000
B0852514738972N01205705EA0237102458000000000000
B0852554738974N01205829EA0239502485000000000000
B0852594738970N01205949EA0241002488000000000000
B0853034738962N01206073EA0240802486000000000000
B0853074738945N01206199EA0240702482000000000000
B0853114738924N01206330EA0239602468000000000000
B0853154738897N01206465EA0238802461000000000000
B0853194738862N01206598EA0238102450000000000000
B0853234738828N01206738EA0236602432000000000000
B0853274738794N01206885EA0235002420000000000000
B0853314738758N01207033EA0234102415000000000000
B0853354738724N01207180EA0233602411000000000000
B0853394738694N01207330EA0233102402000000000000
B0853434738666N01207482EA0232202392000000000000
B0853474738641N01207635EA0231302384000000000000
B0853514738616N01207790EA0230502378000000000000
B0853554738589N01207943EA0229802371000000000000
B0853594738562N01208095EA0229402367000000000000
B0854034738533N01208244EA0229102365000000000000
B0854074738503N01208389EA0228702362000000000000
B0854114738474N01208532EA0228502363000000000000
B0854154738447N01208669EA0228702367000000000000
B0854194738420N01208803EA0228802362000000000000
B0854234738393N01208939EA0227902349000000000000
B0854274738365N01209082EA0226602338000000000000
B0854314738338N01209226EA0225602329000000000000
B0854354738309N01209373EA0225102323000000000000
B0854394738278N01209518EA0224402319000000000000
B0854434738247N01209661EA0224002316000000000000
B0854474738217N01209801EA0223702313000000000000
B0854514738186N01209940EA0223202306000000000000
B0854554738152N01210080EA0222502296000000000000
B0854594738116N01210223EA0221402284000000000000
B0855034738079N01210370EA0220302274000000000000
B0855074738043N01210520EA0219502264000000000000
B0855114738009N01210672EA0218402256000000000000
B0855154737975N01210825EA0217802249000000000000
B0855194737944N01210979EA0217102245000000000000
B0855234737913N01211131EA0216802240000000000000
B0855274737883N01211284EA0216202231000000000000
B0855314737854N01211440EA0215202220000000000000
B0855354737827N01211599EA0214202213000000000000
B0855394737801N01211757EA0213402208000000000000
B0855434737772N01211913EA0213102203000000000000
B0855474737743N01212067EA0212802199000000000000
B0855514737711N01212218EA0212402195000000000000
B0855554737683N01212367EA0212102193000000000000
B0855594737658N01212515EA0211902190000000000000
B0856034737637N01212664EA0211202180000000000000
B0856074737614N01212813EA0210102172000000000000
B0856114737587N01212960EA0209702174000000000000
B0856154737559N01213100EA0209902175000000000000
B0856194737531N01213236EA0209602170000000000000
B0856234737502N01213373EA0209002160000000000000
B0856274737471N01213514EA0207802146000000000000
B0856314737438N01213658EA0206502136000000000000
B0856354737406N01213802EA0205802132000000000000
B0856394737372N01213944EA0205302128000000000000
B0856434737338N01214084EA0204802119000000000000
B0856474737306N01214229EA0203802106000000000000
B0856514737273N01214377EA0202502094000000000000
B0856554737239N01214526EA0201502086000000000000
B0856594737204N01214676EA0200802080000000000000
B0857034737171N01214827EA0200202076000000000000
B0857074737139N01214978EA0199802069000000000000
B0857114737108N01215127EA0198902060000000000000
B0857154737081N01215278EA0198202051000000000000
B0857194737054N01215430EA0197102044000000000000
B0857234737028N01215576EA0197202054000000000000
B0857274737003N01215713EA0197602047000000000000
B0857314736973N01215852EA0196402033000000000000
B0857354736935N01215993EA0195302025000000000000
B0857394736892N01216128EA0194702023000000000000
B0857434736844N01216255EA0195102033000000000000
B0857474736790N01216365EA0196402045000000000000
B0857514736732N01216461EA0197402054000000000000
B0857554736675N01216553EA0197802055000000000000
B0857594736617N01216644EA0197602049000000000000
B0858034736558N01216744EA0196902043000000000000
B0858074736504N01216851EA0196402036000000000000
B0858114736456N01216964EA0195702031000000000000
B0858154736411N01217081EA0195302026000000000000
B0858194736371N01217201EA0194602020000000000000
B0858234736332N01217321EA0194202017000000000000
B0858274736300N01217445EA0193902017000000000000
B0858314736276N01217568EA0194102022000000000000
B0858354736262N01217691EA0194702027000000000000
B0858394736258N01217808EA0195702045000000000000
B0858434736261N01217914EA0197302055000000000000
B0858474736254N01218018EA0197102043000000000000
B0858514736232N01218127EA0195902029000000000000
B0858554736194N01218233EA0194602017000000000000
B0858594736146N01218337EA0193502005000000000000
B0859034736094N01218439EA0192501996000000000000
B0859074736040N01218543EA0191601986000000000000
B0859114735985N01218651EA0190701979000000000000
B0859154735933N01218764EA0190101969000000000000
B0859194735877N01218879EA0189001958000000000000
B0859234735824N01218996EA0188601961000000000000
B0859274735778N01219112EA0188801963000000000000
B0859314735738N01219230EA0188501955000000000000
B0859354735700N01219352EA0187701947000000000000
B0859394735668N01219476EA0187201948000000000000
B0859434735640N01219594EA0187901962000000000000
B0859474735612N01219697EA0190001991000000000000
B0859514735555N01219682EA0192502009000000015000
B0859554735553N01219587EA0193202014000000000000
B0859594735608N01219538EA0193702022000000000000
B0900034735665N01219574EA0194502026000000000000
B0900074735709N01219643EA0194802029000000000000
B0900114735711N01219732EA0195302033000000000000
B0900154735668N01219797EA0195402032000000000000
B0900194735616N01219842EA0195202030000000000000
B0900234735564N01219811EA0194702025000000000000
B0900274735546N01219723EA0194502028000000000000
B0900314735536N01219630EA0195002032000000000000
B0900354735526N01219535EA0195402038000000000000
B0900394735525N01219442EA0195702040000000000000
B0900434735560N01219365EA0196202048000000000000
B0900474735617N01219343EA0197402058000000000000
B0900514735648N01219407EA0197502052000000000000
B0900554735614N01219470EA0197102055000000000000
B0900594735559N01219473EA0197302060000000000000
B0901034735504N01219457EA0197202056000000000000
B0901074735453N01219498EA0197002046000000000000
B0901114735419N01219578EA0195702031000000000000
B0901154735391N01219674EA0194502019000000000000
B0901194735362N01219780EA0193402008000000000000
B0901234735334N01219890EA0192302001000000000000
B0901274735302N01219997EA0192001999000000000000
B0901314735270N01220103EA0191801994000000000000
B0901354735236N01220211EA0191201988000000000000
B0901394735201N01220321EA0190501979000000000000
B0901434735162N01220430EA0189701973000000000000
B0901474735119N01220538EA0188001968000000000000
B0901514735075N01220644EA0187601964000000000000
B0901554735029N01220748EA0187201959000000000000
B0901594734983N01220852EA0186801956000000000000
B0902034734937N01220956EA0186601953000000000000
B0902074734893N01221062EA0186101948000000000000
B0902114734846N01221166EA0185701945000000000000
B0902154734802N01221268EA0185601945000000000000
B0902194734758N01221371EA0185501942000000000000
B0902234734714N01221474EA0185201937000000000000
B0902274734671N01221579EA0184401931000000000000
B0902314734628N01221686EA0183901927000000000000
B0902354734586N01221792EA0183501922000000000000
B0902394734546N01221900EA0183201918000000000000
B0902434734503N01222007EA0182601913000000000000
B0902474734456N01222112EA0182201908000000000000
B0902514734409N01222215EA0181701907000000000000
B0902554734365N01222316EA0181801908000000000000
B0902594734324N01222415EA0181901907000000000000
B0903034734283N01222512EA0181801904000000000000
B0903074734243N01222611EA0181301898000000000000
B0903114734203N01222711EA0180601893000000000000
B0903154734164N01222811EA0180101889000000000000
B0903194734127N01222913EA0179801885000000000000
B0903234734091N01223015EA0179201879000000000000
B0903274734053N01223119EA0178801873000000000000
B0903314734014N01223222EA0178501870000000000000
B0903354733975N01223322EA0178401871000000000000
B0903394733940N01223421EA0178201868000000000000
B0903434733905N01223521EA0177701863000000000000
B0903474733871N01223623EA0177301857000000000000
B0903514733837N01223727EA0176701852000000000000
B0903554733805N01223832EA0176201847000000000000
B0903594733770N01223936EA0175801843000000000000
B0904034733735N01224041EA0175401838000000000000
B0904074733701N01224148EA0175001835000000000000
B0904114733670N01224253EA0174801833000000000000
B0904154733638N01224357EA0174501830000000000000
B0904194733607N01224461EA0174001825000000000000
B0904234733573N01224565EA0173501820000000000000
B0904274733541N01224668EA0173201818000000000000
B0904314733507N01224769EA0173001815000000000000
B0904354733473N01224869EA0172701811000000000000
B0904394733440N01224971EA0172401808000000000000
B0904434733404N01225071EA0172101806000000000000
B0904474733368N01225170EA0171701802000000000000
B0904514733332N01225270EA0171201797000000000000
B0904554733297N01225370EA0170701792000000000000
B0904594733261N01225471EA0170401787000000000000
B0905034733226N01225575EA0170001783000000000000
B0905074733193N01225679EA0169401779000000000000
B0905114733161N01225784EA0169201776000000000000
B0905154733131N01225891EA0168801772000000000000
B0905194733102N01225998EA0168401766000000000000
B0905234733072N01226106EA0167801763000000000000
B0905274733042N01226211EA0167401760000000000000
B0905314733011N01226316EA0167201756000000000000
B0905354732978N01226421EA0166801751000000000000
B0905394732947N01226528EA0166201745000000000000
B0905434732916N01226637EA0165701741000000000000
B0905474732887N01226748EA0165401737000000000000
B0905514732858N01226860EA0164901733000000000000
B0905554732830N01226970EA0164501729000000000000
B0905594732800N01227081EA0164201726000000000000
B0906034732769N01227188EA0163901723000000000000
B0906074732736N01227296EA0163401718000000000000
B0906114732702N01227403EA0163001713000000000000
B0906154732667N01227507EA0162701710000000000000
B0906194732632N01227611EA0162201706000000000000
B0906234732596N01227715EA0161701701000000000000
B0906274732559N01227820EA0161301697000000000000
B0906314732522N01227924EA0161001694000000000000
B0906354732487N01228027EA0160801693000000000000
B0906394732453N01228130EA0160801693000000000000
B0906434732419N01228232EA0160601689000000000000
B0906474732384N01228334EA0160001682000000000000
B0906514732349N01228436EA0159401674000000000000
B0906554732310N01228540EA0158401664000000000000
B0906594732268N01228643EA0157601658000000000000
B0907034732225N01228745EA0157301659000000000000
B0907074732180N01228837EA0158001673000000000000
B0907114732129N01228912EA0159401686000000000000
B0907154732073N01228971EA0160501690000000000000
B0907194732013N01229019EA0160301682000000000000
B0907234731954N01229073EA0159301672000000000000
B0907274731896N01229137EA0158501663000000000000
B0907314731841N01229202EA0157701658000000000000
B0907354731783N01229265EA0157701662000000000000
B0907394731726N01229318EA0158201664000000000000
B0907434731669N01229374EA0158401667000000000000
B0907474731614N01229428EA0158501673000000000000
B0907514731562N01229475EA0159801691000000000000
B0907554731517N01229436EA0161701702000000000000
B0907594731535N01229363EA0161401686000000000000
B0908034731594N01229374EA0159901678000000000000
B0908074731620N01229456EA0159901688000000000000
B0908114731608N01229532EA0161101695000000000000
B0908154731555N01229538EA0161001690000000000000
B0908194731534N01229457EA0160501688000000000000
B0908234731578N01229393EA0160401687000000000000
B0908274731639N01229387EA0161001697000000000000
B0908314731657N01229462EA0161301694000000000000
B0908354731604N01229488EA0161201696000000000000
B0908394731584N01229406EA0161801703000000000000
B0908434731631N01229341EA0161901703000000000000
B0908474731688N01229376EA0162001707000000000000
B0908514731696N01229466EA0162401709000000000000
B0908554731670N01229543EA0162801711000000000000
B0908594731638N01229617EA0162601704000000000000
B0909034731600N01229692EA0161501697000000000000
B0909074731561N01229770EA0161101694000000000000
B0909114731522N01229850EA0160901691000000000000
B0909154731486N01229935EA0160201684000000000000
B0909194731454N01230025EA0159801680000000000000
B0909234731425N01230119EA0159401675000000000000
B0909274731395N01230211EA0158901673000000000000
B0909314731365N01230302EA0158701667000000000000
B0909354731334N01230397EA0157901658000000000000
B0909394731302N01230498EA0156501644000000000000
B0909434731272N01230609EA0155101633000000000000
B0909474731245N01230724EA0154201625000000000000
B0909514731219N01230841EA0153701623000000000000
B0909554731196N01230957EA0153701622000000000000
B0909594731174N01231073EA0153401617000000000000
B0910034731146N01231186EA0152901613000000000000
B0910074731113N01231295EA0152401609000000000000
B0910114731077N01231402EA0152101605000000000000
B0910154731036N01231504EA0151901604000000000000
B0910194730996N01231605EA0151901604000000000000
B0910234730957N01231705EA0152001607000000000000
B0910274730910N01231790EA0152901616000000000000
B0910314730862N01231865EA0153801626000000000000
B0910354730821N01231936EA0155001642000000000000
B0910394730786N01231998EA0156501647000000000000
B0910434730747N01232062EA0156201643000000000000
B0910474730712N01232135EA0156301647000000000000
B0910514730689N01232216EA0156501648000000000000
B0910554730669N01232297EA0157101656000000000000
B0910594730651N01232377EA0157501656000000000000
B0911034730632N01232459EA0157201653000000000000
B0911074730617N01232546EA0157201657000000000000
B0911114730615N01232630EA0157801659000000000000
B0911154730624N01232716EA0157801661000000000000
B0911194730656N01232793EA0158301668000000000000
B0911234730713N01232823EA0158801675000000000000
B0911274730750N01232872EA0159901684000000000000
B0911314730721N01232925EA0159901675000000000000
B0911354730674N01232889EA0159001672000000000000
B0911394730685N01232803EA0159001676000000000000
B0911434730736N01232767EA0159601682000000000000
B0911474730771N01232825EA0160201686000000000000
B0911514730733N01232881EA0160301688000000000000
B0911554730687N01232833EA0160901700000000000000
B0911594730695N01232750EA0161601702000000000000
B0912034730751N01232726EA0161601702000000000000
B0912074730798N01232772EA0162301713000000000000
B0912114730791N01232845EA0163201719000000000000
B0912154730747N01232886EA0163501723000000000000
B0912194730697N01232864EA0163701723000000000000
B0912234730659N01232802EA0163901728000000000000
B0912274730626N01232737EA0165101741000000000000
B0912314730630N01232664EA0166001743000000000000
B0912354730684N01232628EA0165601739000000000000
B0912394730726N01232681EA0165801749000000000000
B0912434730721N01232763EA0166901759000000000000
B0912474730673N01232794EA0168101766000000000000
B0912514730634N01232738EA0168101768000000000000
B0912554730630N01232658EA0168901778000000000000
B0912594730646N01232581EA0169501780000000000000
B0913034730687N01232521EA0169401780000000000000
B0913074730736N01232470EA0169801786000000000000
B0913114730786N01232427EA0170201790000000000000
B0913154730840N01232450EA0170201786000000000000
B0913194730856N01232525EA0170001787000000000000
B0913234730837N01232596EA0170101788000000000000
B0913274730799N01232648EA0170301789000000000000
B0913314730751N01232693EA0170201788000000000000
B0913354730698N01232734EA0170401793000000000000
B0913394730648N01232785EA0171401803000000000000
B0913434730621N01232862EA0172101805000000000000
B0913474730663N01232918EA0172501809000000000000
B0913514730715N01232881EA0172401804000000000000
B0913554730733N01232799EA0172301811000000000000
B0913594730715N01232717EA0173101820000000000000
B0914034730659N01232697EA0174001828000000000000
B0914074730629N01232765EA0174501830000000000000
B0914114730667N01232833EA0174601829000000000000
B0914154730725N01232825EA0174701835000000000000
B0914194730764N01232762EA0175501845000000000000
B0914234730756N01232678EA0176401852000000000000
B0914274730704N01232664EA0177101857000000000000
B0914314730680N01232737EA0177301859000000000000
B0914354730716N01232803EA0177701865000000000000
B0914394730776N01232794EA0178501879000000000000
B0914434730803N01232720EA0179801889000000000000
B0914474730763N01232665EA0180301891000000000000
B0914514730719N01232719EA0180701896000000000000
B0914554730741N01232802EA0181401904000000000000
B0914594730799N01232797EA0182301916000000000000
B0915034730801N01232713EA0183201916000000000000
B0915074730743N01232713EA0183201921000000000000
B0915114730719N01232797EA0183901935000000000000
B0915154730743N01232876EA0185701945000000000000
B0915194730804N01232884EA0185901942000000000000
B0915234730834N01232804EA0185501943000000000000
B0915274730825N01232715EA0186301954000000000000
B0915314730786N01232651EA0187001957000000000000
B0915354730726N01232645EA0187101963000000000000
B0915394730684N01232703EA0188201969000000000000
B0915434730687N01232794EA0188301971000000000000
B0915474730738N01232856EA0188801979000000000000
B0915514730795N01232836EA0189901992000000000000
B0915554730802N01232759EA0190901996000000000000
B0915594730751N01232728EA0190901999000000000000
B0916034730717N01232799EA0191402006000000000000
B0916074730759N01232873EA0192102017000000000000
B0916114730816N01232840EA0193402025000000000000
B0916154730815N01232758EA0193602026000000000000
B0916194730763N01232729EA0194002032000000000000
B0916234730720N01232788EA0194502042000000000000
B0916274730732N01232879EA0195302047000000000000
B0916314730791N01232905EA0195902053000000000000
B0916354730836N01232842EA0196302053000000000000
B0916394730834N01232756EA0196402058000000000000
B0916434730803N01232689EA0197502068000000000000
B0916474730756N01232645EA0198002071000000000000
B0916514730699N01232619EA0198002072000000000000
B0916554730638N01232609EA0198602081000000000000
B0916594730576N01232606EA0199202083000000000000
B0917034730516N01232620EA0198802078000000000000
B0917074730470N01232681EA0198502075000000000000
B0917114730473N01232769EA0198202070000000000000
B0917154730513N01232845EA0197702068000000000000
B0917194730561N01232907EA0197702070000000000000
B0917234730616N01232950EA0197702066000000000000
B0917274730681N01232950EA0196902056000000000000
B0917314730746N01232911EA0196102053000000000000
B0917354730804N01232853EA0196302058000000000000
B0917394730860N01232789EA0197102069000000000000
B0917434730918N01232750EA0198702083000000000000
B0917474730967N01232791EA0199402086000000000000
B0917514730968N01232873EA0199402086000000000000
B0917554730931N01232933EA0199402083000000000000
B0917594730879N01232940EA0199002080000000000000
B0918034730842N01232882EA0199002086000000000000
B0918074730829N01232806EA0200002092000000000000
B0918114730827N01232723EA0200402095000000000000
B0918154730875N01232684EA0200102090000000000000
B0918194730914N01232746EA0199802091000000000000
B0918234730893N01232819EA0200302098000000000000
B0918274730854N01232873EA0201002104000000000000
B0918314730827N01232942EA0201602113000000000000
B0918354730803N01233014EA0202202113000000000000
B0918394730773N01233083EA0201702102000000000000
B0918434730730N01233148EA0200102087000000000000
B0918474730681N01233210EA0198802075000000000000
B0918514730626N01233271EA0197502067000000000000
B0918554730568N01233328EA0196802059000000000000
B0918594730509N01233384EA0196302055000000000000
B0919034730450N01233441EA0195802050000000000000
B0919074730388N01233495EA0195402048000000000000
B0919114730325N01233549EA0194902039000000000000
B0919154730260N01233608EA0194102032000000000000
B0919194730195N01233668EA0193302027000000000000
B0919234730128N01233727EA0192802023000000000000
B0919274730061N01233786EA0192502020000000000000
B0919314729993N01233842EA0192302016000000000000
B0919354729926N01233898EA0191702011000000000000
B0919394729858N01233954EA0191402008000000000000
B0919434729790N01234007EA0191302008000000000000
B0919474729725N01234058EA0191302006000000000000
B0919514729659N01234106EA0190802002000000000000
B0919554729590N01234151EA0190501998000000000000
B0919594729523N01234195EA0190201996000000000000
B0920034729455N01234237EA0189901991000000000000
B0920074729386N01234279EA0189201984000000000000
B0920114729317N01234319EA0188801979000000000000
B0920154729248N01234359EA0188501979000000000000
B0920194729183N01234402EA0188901988000000000000
B0920234729127N01234459EA0189701991000000000000
B0920274729082N01234535EA0189801990000000000000
B0920314729035N01234613EA0189301982000000000000
B0920354728983N01234688EA0189401993000000000000
B0920394728938N01234762EA0190601997000000000000
B0920434728892N01234842EA0189901991000000000000
B0920474728841N01234916EA0189301984000000000000
B0920514728786N01234986EA0188901979000000000000
B0920554728727N01235048EA0188701976000000000000
B0920594728661N01235094EA0188101970000000000000
B0921034728589N01235128EA0187401964000000000000
B0921074728516N01235154EA0186801958000000000000
B0921114728440N01235177EA0186201952000000000000
B0921154728363N01235200EA0185401945000000000000
B0921194728285N01235225EA0185001940000000000000
B0921234728207N01235250EA0184601936000000000000
B0921274728129N01235274EA0183901930000000000000
B0921314728050N01235302EA0183101923000000000000
B0921354727970N01235328EA0182801920000000000000
B0921394727892N01235352EA0182401916000000000000
B0921434727813N01235375EA0181801910000000000000
B0921474727733N01235398EA0181201904000000000000
B0921514727652N01235423EA0180701900000000000000
B0921554727573N01235446EA0180401898000000000000
B0921594727495N01235473EA0180201896000000000000
B0922034727418N01235505EA0179901890000000000000
B0922074727340N01235533EA0179301884000000000000
B0922114727261N01235560EA0178601876000000000000
B0922154727181N01235586EA0177901871000000000000
B0922194727102N01235610EA0177601868000000000000
B0922234727024N01235635EA0177101862000000000000
B0922274726943N01235662EA0176301854000000000000
B0922314726864N01235697EA0175601848000000000000
B0922354726786N01235732EA0175301845000000000000
B0922394726709N01235767EA0175001842000000000000
B0922434726633N01235804EA0174401835000000000000
B0922474726556N01235843EA0173701826000000000000
B0922514726479N01235883EA0173001825000000000000
B0922554726403N01235918EA0173401831000000000000
B0922594726331N01235948EA0174201842000000000000
B0923034726265N01235974EA0175501853000000000000
B0923074726201N01235991EA0176001848000000000000
B0923114726132N01236001EA0175001837000000000000
B0923154726062N01235993EA0174101831000000000000
B0923194725996N01235963EA0173801829000000000000
B0923234725933N01235923EA0174001835000000000000
B0923274725879N01235871EA0175001847000000000000
B0923314725838N01235800EA0175501844000000000000
B0923354725799N01235727EA0175401847000000000000
B0923394725759N01235658EA0175801851000000000000
B0923434725711N01235609EA0176701862000000000000
B0923474725660N01235629EA0177401868000000000000
B0923514725647N01235706EA0177601866000000000000
B0923554725684N01235768EA0177901872000000000000
B0923594725736N01235793EA0178601878000000000000
B0924034725786N01235767EA0178701875000000000000
B0924074725825N01235700EA0178501876000000000000
B0924114725874N01235649EA0179201887000000000000
B0924154725919N01235687EA0179601884000000000000
B0924194725897N01235765EA0179501892000000000000
B0924234725841N01235740EA0181001904000000000000
B0924274725841N01235650EA0181901911000000000000
B0924314725893N01235606EA0182601917000000000000
B0924354725946N01235641EA0183001928000000000000
B0924394725954N01235722EA0183901936000000000000
B0924434725922N01235785EA0185101946000000000000
B0924474725867N01235806EA0185901953000000000000
B0924514725822N01235754EA0186701956000000000000
B0924554725844N01235670EA0186301957000000000000
B0924594725902N01235684EA0186701963000000000000
B0925034725913N01235771EA0187701975000000000000
B0925074725870N01235836EA0189201990000000000000
B0925114725814N01235817EA0190401998000000000000
B0925154725820N01235733EA0190301991000000000000
B0925194725883N01235737EA0189801993000000000000
B0925234725903N01235830EA0190702013000000000000
B0925274725863N01235896EA0192502024000000000000
B0925314725828N01235831EA0193602030000000000000
B0925354725870N01235772EA0194002035000000000000
B0925394725918N01235828EA0194702051000000000000
B0925434725902N01235914EA0196202063000000000000
B0925474725842N01235923EA0197102068000000000000
B0925514725798N01235858EA0196902063000000000000
B0925554725779N01235774EA0197702077000000000000
B0925594725819N01235719EA0198802082000000000000
B0926034725864N01235768EA0199402091000000000000
B0926074725831N01235841EA0200202097000000000000
B0926114725777N01235797EA0200702105000000000000
B0926154725797N01235711EA0201902120000000000000
B0926194725855N01235696EA0203202131000000000000
B0926234725889N01235766EA0204902151000000000000
B0926274725855N01235837EA0206302159000000000000
B0926314725798N01235805EA0207702172000000000000
B0926354725806N01235716EA0209202180000000000000
B0926394725867N01235700EA0209902196000000000000
B0926434725893N01235776EA0211502210000000000000
B0926474725840N01235828EA0212502215000000000000
B0926514725793N01235763EA0213302234000000000000
B0926554725819N01235687EA0215502252000000000000
B0926594725877N01235696EA0217102267000000000000
B0927034725893N01235779EA0218402281000000000000
B0927074725848N01235840EA0219402283000000000000
B0927114725790N01235798EA0219802288000000000000
B0927154725809N01235707EA0220502301000000000000
B0927194725872N01235709EA0222002318000000000000
B0927234725892N01235798EA0223602330000000000000
B0927274725838N01235858EA0224202330000000000000
B0927314725777N01235809EA0224702345000000000000
B0927354725783N01235715EA0226302369000000000000
B0927394725836N01235677EA0228302381000000000000
B0927434725880N01235733EA0229402392000000000000
B0927474725853N01235818EA0230102397000000000000
B0927514725784N01235823EA0230402406000000000000
B0927554725751N01235741EA0232402429000000000000
B0927594725786N01235674EA0234602441000000000000
B0928034725845N01235700EA0235202445000000000000
B0928074725850N01235794EA0236202460000000000000
B0928114725797N01235854EA0237602470000000000000
B0928154725731N01235835EA0238602483000000000000
B0928194725711N01235748EA0240102494000000000000
B0928234725764N01235701EA0240302491000000000000
B0928274725822N01235755EA0240702507000000000000
B0928314725812N01235845EA0243302532000000000000
B0928354725751N01235863EA0244802541000000000000
B0928394725715N01235787EA0245902555000000000000
B0928434725745N01235707EA0246602555000000000000
B0928474725811N01235732EA0246302555000000000000
B0928514725835N01235835EA0247402578000000000000
B0928554725807N01235926EA0249302595000000000000
B0928594725753N01235984EA0250302588000000000000
B0929034725680N01236025EA0248702569000000000000
B0929074725594N01236047EA0247802568000000000000
B0929114725506N01236060EA0247502555000000000000
B0929154725408N01236071EA0245802538000000000000
B0929194725308N01236101EA0244602532000000000000
B0929234725212N01236156EA0244002526000000000000
B0929274725123N01236226EA0244402538000000000000
B0929314725040N01236301EA0244902534000000000000
B0929354724964N01236396EA0244602532000000000000
B0929394724893N01236506EA0244202526000000000000
B0929434724831N01236628EA0243902525000000000000
B0929474724775N01236755EA0243802524000000000000
B0929514724730N01236894EA0243302513000000000000
B0929554724693N01237045EA0242102500000000000000
B0929594724661N01237202EA0240902492000000000000
B0930034724632N01237361EA0240202485000000000000
B0930074724605N01237520EA0239102470000000000000
B0930114724580N01237685EA0237002449000000000000
B0930154724550N01237846EA0236502452000000000000
B0930194724519N01237998EA0236502448000000000000
B0930234724486N01238149EA0235602432000000000000
B0930274724455N01238305EA0233902416000000000000
B0930314724424N01238461EA0232502405000000000000
B0930354724389N01238617EA0231602395000000000000
B0930394724358N01238773EA0230802395000000000000
B0930434724333N01238925EA0231202400000000000000
B0930474724314N01239076EA0231402396000000000000
B0930514724295N01239229EA0230602384000000000000
B0930554724278N01239385EA0229302369000000000000
B0930594724258N01239542EA0228202365000000000000
B0931034724224N01239687EA0228502376000000000000
B0931074724184N01239817EA0229202378000000000000
B0931114724145N01239945EA0228902373000000000000
B0931154724107N01240078EA0229102380000000000000
B0931194724073N01240212EA0229802387000000000000
B0931234724035N01240337EA0230702417000000000000
B0931274723996N01240441EA0234402448000000000000
B0931314723963N01240543EA0235702440000000000000
B0931354723929N01240662EA0234302417000000000000
B0931394723894N01240794EA0232502407000000000000
B0931434723860N01240931EA0231802403000000000000
B0931474723830N01241067EA0231602404000000000000
B0931514723797N01241200EA0231702405000000000000
B0931554723761N01241330EA0231602401000000000000
B0931594723722N01241459EA0231102394000000000000
B0932034723683N01241591EA0230102384000000000000
B0932074723652N01241728EA0229402378000000000000
B0932114723625N01241863EA0229202379000000000000
B0932154723593N01241994EA0229202378000000000000
B0932194723557N01242120EA0229702392000000000000
B0932234723517N01242233EA0230602392000000000000
B0932274723467N01242340EA0230502401000000000000
B0932314723413N01242427EA0232002413000000000000
B0932354723358N01242509EA0232002405000000000000
B0932394723298N01242599EA0230702393000000000000
B0932434723241N01242699EA0230802410000000000000
B0932474723190N01242787EA0233302441000000000000
B0932514723147N01242863EA0236202454000000000000
B0932554723112N01242943EA0236202452000000000000
B0932594723086N01243035EA0235802442000000000000
B0933034723071N01243142EA0234502426000000000000
B0933074723063N01243256EA0233002420000000000000
B0933114723063N01243370EA0232002414000000000000
B0933154723067N01243484EA0231302407000000000000
B0933194723072N01243601EA0230502400000000000000
B0933234723075N01243721EA0229802395000000000000
B0933274723077N01243840EA0229402388000000000000
B0933314723076N01243962EA0228402377000000000000
B0933354723075N01244088EA0227002363000000000000
B0933394723071N01244216EA0225802361000000000000
B0933434723072N01244332EA0226802371000000000000
B0933474723076N01244445EA0226902364000000000000
B0933514723080N01244558EA0226102353000000000000
B0933554723079N01244675EA0225102345000000000000
B0933594723071N01244790EA0225102352000000000000
B0934034723058N01244902EA0225202343000000000000
B0934074723047N01245023EA0224202336000000000000
B0934114723041N01245152EA0223802338000000000000
B0934154723042N01245275EA0224702364000000000000
B0934194723042N01245372EA0228602403000000000000
B0934234723043N01245451EA0231702422000000000000
B0934274723041N01245531EA0232702419000000000000
B0934314723040N01245624EA0232002413000000000000
B0934354723046N01245720EA0232002421000000000000
B0934394723050N01245814EA0232802427000000000000
B0934434723060N01245905EA0233602432000000000000
B0934474723073N01245997EA0233502430000000000000
B0934514723072N01246093EA0233302427000000000000
B0934554723060N01246192EA0232702420000000000000
B0934594723038N01246293EA0232002407000000000000
B0935034723007N01246401EA0231102391000000000000
B0935074722967N01246513EA0229702377000000000000
B0935114722925N01246630EA0228602368000000000000
B0935154722882N01246748EA0227702359000000000000
B0935194722838N01246868EA0226802353000000000000
B0935234722791N01246986EA0226102347000000000000
B0935274722746N01247103EA0225702344000000000000
B0935314722700N01247220EA0225202332000000000000
B0935354722655N01247345EA0223702316000000000000
B0935394722605N01247470EA0222702311000000000000
B0935434722553N01247588EA0222402311000000000000
B0935474722501N01247700EA0222202305000000000000
B0935514722448N01247814EA0221302293000000000000
B0935554722393N01247933EA0220302286000000000000
B0935594722345N01248055EA0219802281000000000000
B0936034722300N01248182EA0219102273000000000000
B0936074722257N01248312EA0218402264000000000000
B0936114722211N01248445EA0217102250000000000000
B0936154722163N01248581EA0216002241000000000000
B0936194722117N01248716EA0215302234000000000000
B0936234722076N01248858EA0214402224000000000000
B0936274722042N01249005EA0213502215000000000000
B0936314722014N01249156EA0212602207000000000000
B0936354721989N01249307EA0211802199000000000000
B0936394721964N01249459EA0211002191000000000000
B0936434721941N01249611EA0210202185000000000000
B0936474721918N01249762EA0209802180000000000000
B0936514721894N01249912EA0209202173000000000000
B0936554721871N01250062EA0208502165000000000000
B0936594721847N01250211EA0207902160000000000000
B0937034721821N01250361EA0207102151000000000000
B0937074721793N01250508EA0206102141000000000000
B0937114721763N01250652EA0205502141000000000000
B0937154721737N01250791EA0205502140000000000000
B0937194721712N01250926EA0205102131000000000000
B0937234721691N01251064EA0203602115000000000000
B0937274721665N01251198EA0203302125000000000000
B0937314721638N01251320EA0204402137000000000000
B0937354721616N01251435EA0205602144000000000000
B0937394721599N01251553EA0205202135000000000000
B0937434721589N01251678EA0204502131000000000000
B0937474721587N01251800EA0204602136000000000000
B0937514721587N01251917EA0205602150000000000000
B0937554721600N01252024EA0207302167000000000000
B0937594721612N01252126EA0208202167000000000000
B0938034721603N01252230EA0207102152000000000000
B0938074721554N01252317EA0205402135000000000000
B0938114721487N01252389EA0204602133000000000000
B0938154721421N01252458EA0205102141000000000000
B0938194721360N01252524EA0205902150000000000000
B0938234721299N01252592EA0205902146000000000000
B0938274721239N01252671EA0205702145000000000000
B0938314721183N01252756EA0205902147000000000000
B0938354721131N01252843EA0206302155000000000000
B0938394721082N01252930EA0207002160000000000000
B0938434721032N01253013EA0207402160000000000000
B0938474720982N01253096EA0207002156000000000000
B0938514720931N01253179EA0207102158000000000000
B0938554720883N01253265EA0207802169000000000000
B0938594720841N01253354EA0208302169000000000000
B0939034720796N01253441EA0207702160000000000000
B0939074720739N01253517EA0206802150000000000000
B0939114720674N01253582EA0205702141000000000000
B0939154720602N01253637EA0205102139000000000000
B0939194720532N01253690EA0205302146000000000000
B0939234720464N01253746EA0205802146000000000000
B0939274720399N01253810EA0205702145000000000000
B0939314720334N01253872EA0205502143000000000000
B0939354720268N01253931EA0205202138000000000000
B0939394720204N01253992EA0204602132000000000000
B0939434720141N01254058EA0204202128000000000000
B0939474720079N01254131EA0203802124000000000000
B0939514720030N01254225EA0203002115000000000000
B0939554720000N01254338EA0202702118000000000000
B0939594719994N01254452EA0203702134000000000000
B0940034720014N01254553EA0205202148000000000000
B0940074720057N01254635EA0206402156000000000000
B0940114720111N01254703EA0206802158000000000000
B0940154720161N01254772EA0206902156000000000000
B0940194720207N01254851EA0206202150000000000000
B0940234720247N01254940EA0204602143000000000000
B0940274720277N01255041EA0204302137000000000000
B0940314720294N01255153EA0203602134000000000000
B0940354720300N01255263EA0203702141000000000000
B0940394720307N01255369EA0204302143000000000000
B0940434720315N01255470EA0204302139000000000000
B0940474720328N01255570EA0203502130000000000000
B0940514720350N01255671EA0202502122000000000000
B0940554720372N01255774EA0201902116000000000000
B0940594720401N01255876EA0201402114000000000000
B0941034720429N01255974EA0201902121000000000000
B0941074720462N01256072EA0202102121000000000000
B0941114720492N01256172EA0202202125000000000000
B0941154720520N01256269EA0202702128000000000000
B0941194720549N01256362EA0203002130000000000000
B0941234720577N01256451EA0203302135000000000000
B0941274720607N01256537EA0203702133000000000000
B0941314720642N01256627EA0203002127000000000000
B0941354720679N01256718EA0202702128000000000000
B0941394720718N01256805EA0202402122000000000000
B0941434720759N01256895EA0201902114000000000000
B0941474720797N01256992EA0200702103000000000000
B0941514720836N01257095EA0199602095000000000000
B0941554720876N01257195EA0199202093000000000000
B0941594720914N01257290EA0199402098000000000000
B0942034720954N01257373EA0199902101000000000000
B0942074720999N01257449EA0200002097000000000000
B0942114721032N01257534EA0199402089000000000000
B0942154721041N01257636EA0198702081000000000000
B0942194721026N01257740EA0197902075000000000000
B0942234720996N01257840EA0197402071000000000000
B0942274720953N01257939EA0196402060000000000000
B0942314720901N01258031EA0195602052000000000000
B0942354720846N01258121EA0194802044000000000000
B0942394720791N01258212EA0194002036000000000000
B0942434720735N01258304EA0193002026000000000000
B0942474720679N01258400EA0191902016000000000000
B0942514720624N01258503EA0191002009000000000000
B0942554720571N01258606EA0190702009000000000000
B0942594720524N01258704EA0191202014000000000000
B0943034720479N01258797EA0191702024000000000000
B0943074720440N01258888EA0193002034000000000000
B0943114720402N01258977EA0193802040000000000000
B0943154720364N01259062EA0194602052000000000000
B0943194720328N01259144EA0196202066000000000000
B0943234720298N01259224EA0197102071000000000000
B0943274720269N01259305EA0197302069000000000000
B0943314720234N01259383EA0196802063000000000000
B0943354720190N01259453EA0196602065000000000000
B0943394720141N01259514EA0196902068000000000000
B0943434720089N01259570EA0196702064000000000000
B0943474720037N01259623EA0196202057000000000000
B0943514719979N01259673EA0195202043000000000000
B0943554719916N01259718EA0193502028000000000000
B0943594719847N01259761EA0192302023000000000000
B0944034719778N01259803EA0192302025000000000000
B0944074719709N01259844EA0192502026000000000000
B0944114719643N01259894EA0192502026000000000000
B0944154719582N01259954EA0192902038000000000000
B0944194719520N01259993EA0195102064000000000000
B0944234719481N01259928EA0197602084000000000000
B0944274719527N01259868EA0199302100000000000000
B0944314719574N01259928EA0201002119000000000000
B0944354719546N01300002EA0203002138000000000000
B0944394719489N01259973EA0204902152000000000000
B0944434719494N01259886EA0206902180000000000000
B0944474719550N01259874EA0209102199000000000000
B0944514719571N01259955EA0210502209000000000000
B0944554719524N01300010EA0211802229000000000000
B0944594719471N01259967EA0214202253000000000000
B0945034719474N01259881EA0216302269000000000000
B0945074719527N01259857EA0217902286000000000000
B0945114719558N01259928EA0219402298000000000000
B0945154719519N01259987EA0221102318000000000000
B0945194719479N01259928EA0223002337000000000000
B0945234719514N01259869EA0224602353000000000000
B0945274719553N01259930EA0225902361000000000000
B0945314719514N01259999EA0227202381000000000000
B0945354719457N01259965EA0229302403000000000000
B0945394719463N01259882EA0231202418000000000000
B0945434719515N01259883EA0232402427000000000000
B0945474719523N01259976EA0233202439000000000000
B0945514719466N01300025EA0235102462000000000000
B0945554719415N01259980EA0237102476000000000000
B0945594719428N01259898EA0237802481000000000000
B0946034719484N01259903EA0238702492000000000000
B0946074719507N01259986EA0239702507000000000000
B0946114719466N01300058EA0241502528000000000000
B0946154719413N01300025EA0243402542000000000000
B0946194719423N01259942EA0244402546000000000000
B0946234719480N01259939EA0244702549000000000000
B0946274719507N01300024EA0245702569000000000000
B0946314719470N01300091EA0248202596000000000000
B0946354719428N01300042EA0249802604000000000000
B0946394719453N01259963EA0250302612000000000000
B0946434719513N01259946EA0251602625000000000000
B0946474719552N01300017EA0253002639000000000000
B0946514719517N01300082EA0254802657000000000000
B0946554719463N01300045EA0256602676000000000000
B0946594719462N01259960EA0258102690000000000000
B0947034719517N01259933EA0259102697000000000000
B0947074719546N01300008EA0260502715000000000000
B0947114719498N01300058EA0262302730000000000000
B0947154719465N01259985EA0263702744000000000000
B0947194719514N01259933EA0265302763000000000000
B0947234719554N01259991EA0267202783000000000000
B0947274719530N01300064EA0268802795000000000000
B0947314719474N01300052EA0270202809000000000000
B0947354719466N01259968EA0271302825000000000000
B0947394719519N01259930EA0272402833000000000000
B0947434719558N01259999EA0273502848000000000000
B0947474719532N01300080EA0274802858000000000000
B0947514719474N01300075EA0275602865000000000000
B0947554719457N01259987EA0276802878000000000000
B0947594719514N01259951EA0277602886000000000000
B0948034719552N01300023EA0278402898000000000000
B0948074719531N01300108EA0279202894000000000000
B0948114719463N01300136EA0278002892000000000000
B0948154719410N01300078EA0280002914000000000000
B0948194719411N01259990EA0281602924000000000000
B0948234719461N01259947EA0282202930000000000000
B0948274719513N01259990EA0283502946000000000000
B0948314719515N01300075EA0285402965000000000000
B0948354719475N01300132EA0286102964000000000000
B0948394719413N01300154EA0284802950000000000000
B0948434719337N01300164EA0283502930000000000000
B0948474719257N01300181EA0281302911000000000000
B0948514719169N01300203EA0279802903000000000000
B0948554719082N01300231EA0278902897000000000000
B0948594718998N01300260EA0278402895000000000000
B0949034718913N01300286EA0278002887000000000000
B0949074718825N01300323EA0276802872000000000000
B0949114718735N01300361EA0275802869000000000000
B0949154718646N01300387EA0275802871000000000000
B0949194718557N01300401EA0276002869000000000000
B0949234718470N01300414EA0275802864000000000000
B0949274718380N01300429EA0274902853000000000000
B0949314718288N01300454EA0273602841000000000000
B0949354718196N01300487EA0272602835000000000000
B0949394718103N01300526EA0272002830000000000000
B0949434718014N01300570EA0271802827000000000000
B0949474717925N01300619EA0271202818000000000000
B0949514717837N01300671EA0270502814000000000000
B0949554717750N01300725EA0270002808000000000000
B0949594717661N01300783EA0269302797000000000000
B0950034717572N01300839EA0268502793000000000000
B0950074717482N01300894EA0268102791000000000000
B0950114717395N01300948EA0267802786000000000000
B0950154717307N01301001EA0267102778000000000000
B0950194717218N01301053EA0266402773000000000000
B0950234717128N01301104EA0265902769000000000000
B0950274717039N01301152EA0265402762000000000000
B0950314716949N01301204EA0264902756000000000000
B0950354716859N01301258EA0264502748000000000000
B0950394716767N01301308EA0263402736000000000000
B0950434716672N01301354EA0262102727000000000000
B0950474716579N01301402EA0261602723000000000000
B0950514716486N01301455EA0261302722000000000000
B0950554716398N01301514EA0261302722000000000000
B0950594716309N01301573EA0260802714000000000000
B0951034716222N01301638EA0259902707000000000000
B0951074716134N01301702EA0259602703000000000000
B0951114716048N01301763EA0260202717000000000000
B0951154715965N01301823EA0260802713000000000000
B0951194715880N01301878EA0260002703000000000000
B0951234715793N01301928EA0259302701000000000000
B0951274715705N01301974EA0259402694000000000000
B0951314715617N01302021EA0259202681000000000000
B0951354715531N01302082EA0258302675000000000000
B0951394715450N01302151EA0258002675000000000000
B0951434715373N01302222EA0258102676000000000000
B0951474715301N01302298EA0258302679000000000000
B0951514715228N01302373EA0258102669000000000000
B0951554715151N01302444EA0256902657000000000000
B0951594715069N01302504EA0256402659000000000000
B0952034714989N01302558EA0256502660000000000000
B0952074714908N01302607EA0256302655000000000000
B0952114714824N01302659EA0255802649000000000000
B0952154714735N01302711EA0255302645000000000000
B0952194714649N01302767EA0255602653000000000000
B0952234714569N01302824EA0256102657000000000000
B0952274714488N01302885EA0256102650000000000000
B0952314714406N01302946EA0255102637000000000000
B0952354714319N01303001EA0253702627000000000000
B0952394714229N01303049EA0253002621000000000000
B0952434714138N01303096EA0252102606000000000000
B0952474714044N01303143EA0250202585000000000000
B0952514713945N01303187EA0248602573000000000000
B0952554713845N01303224EA0247902570000000000000
B0952594713750N01303266EA0248202578000000000000
B0953034713661N01303312EA0248802586000000000000
B0953074713582N01303360EA0249602592000000000000
B0953114713501N01303401EA0249302581000000000000
B0953154713417N01303432EA0248402574000000000000
B0953194713331N01303457EA0247902572000000000000
B0953234713245N01303474EA0248002572000000000000
B0953274713156N01303492EA0247202557000000000000
B0953314713062N01303517EA0246202553000000000000
B0953354712971N01303546EA0246302559000000000000
B0953394712884N01303573EA0247102570000000000000
B0953434712801N01303603EA0247302562000000000000
B0953474712716N01303642EA0246302552000000000000
B0953514712630N01303676EA0245902555000000000000
B0953554712551N01303711EA0246802568000000000000
B0953594712476N01303744EA0247202563000000000000
B0954034712395N01303773EA0246202548000000000000
B0954074712311N01303786EA0244702532000000000000
B0954114712222N01303782EA0243202519000000000000
B0954154712133N01303768EA0242002509000000000000
B0954194712044N01303750EA0241302504000000000000
B0954234711956N01303725EA0240802498000000000000
B0954274711867N01303702EA0240002490000000000000
B0954314711776N01303682EA0239202482000000000000
B0954354711685N01303672EA0238702480000000000000
B0954394711596N01303676EA0238802484000000000000
B0954434711510N01303686EA0239502494000000000000
B0954474711433N01303711EA0241002511000000000000
B0954514711359N01303738EA0241802512000000000000
B0954554711286N01303767EA0241802512000000000000
B0954594711210N01303794EA0241602507000000000000
B0955034711133N01303835EA0241202506000000000000
B0955074711057N01303881EA0241602514000000000000
B0955114710989N01303930EA0242302518000000000000
B0955154710918N01303978EA0242402519000000000000
B0955194710849N01304030EA0243002532000000000000
B0955234710783N01304075EA0244702547000000000000
B0955274710718N01304110EA0244902539000000000000
B0955314710644N01304134EA0243802525000000000000
B0955354710566N01304153EA0243202527000000000000
B0955394710491N01304162EA0243802534000000000000
B0955434710417N01304168EA0243702527000000000000
B0955474710341N01304177EA0242802520000000000000
B0955514710264N01304192EA0242202513000000000000
B0955554710185N01304215EA0241502505000000000000
B0955594710105N01304244EA0240802501000000000000
B0956034710024N01304274EA0240602501000000000000
B0956074709947N01304309EA0240702501000000000000
B0956114709872N01304345EA0240602499000000000000
B0956154709794N01304375EA0239902494000000000000
B0956194709715N01304402EA0238902492000000000000
B0956234709635N01304424EA0239102487000000000000
B0956274709557N01304452EA0239302488000000000000
B0956314709479N01304480EA0239002482000000000000
B0956354709400N01304514EA0238502477000000000000
B0956394709322N01304550EA0238402479000000000000
B0956434709248N01304589EA0238902489000000000000
B0956474709179N01304631EA0240002499000000000000
B0956514709113N01304677EA0240702502000000000000
B0956554709050N01304732EA0241002510000000000000
B0956594708998N01304803EA0242402528000000000000
B0957034708950N01304877EA0244202539000000000000
B0957074708903N01304953EA0245202550000000000000
B0957114708855N01305022EA0246002555000000000000
B0957154708803N01305083EA0245802551000000000000
B0957194708743N01305135EA0245302545000000000000
B0957234708680N01305180EA0244702539000000000000
B0957274708612N01305225EA0244402533000000000000
B0957314708543N01305275EA0243402522000000000000
B0957354708470N01305323EA0242002508000000000000
B0957394708396N01305372EA0241302505000000000000
B0957434708324N01305421EA0240902502000000000000
B0957474708252N01305467EA0240602499000000000000
B0957514708179N01305514EA0240202490000000000000
B0957554708104N01305563EA0238902476000000000000
B0957594708027N01305614EA0237802467000000000000
B0958034707952N01305667EA0237002458000000000000
B0958074707875N01305710EA0236302457000000000000
B0958114707797N01305746EA0236202456000000000000
B0958154707719N01305783EA0236002451000000000000
B0958194707641N01305814EA0236202462000000000000
B0958234707570N01305856EA0237302470000000000000
B0958274707506N01305908EA0238702492000000000000
B0958314707446N01305957EA0240602505000000000000
B0958354707388N01306009EA0240702496000000000000
B0958394707321N01306060EA0239702488000000000000
B0958434707247N01306096EA0239302490000000000000
B0958474707173N01306125EA0240002501000000000000
B0958514707103N01306164EA0241202512000000000000
B0958554707037N01306209EA0241702512000000000000
B0958594706965N01306244EA0241902519000000000000
B0959034706892N01306256EA0242702525000000000000
B0959074706818N01306253EA0243402533000000000000
B0959114706747N01306250EA0244202541000000000000
B0959154706673N01306240EA0244402535000000000000
B0959194706593N01306220EA0243602534000000000000
B0959234706518N01306204EA0245502562000000000000
B0959274706449N01306191EA0247102566000000000000
B0959314706379N01306173EA0246702561000000000000
B0959354706312N01306134EA0246602562000000000000
B0959394706253N01306075EA0246902569000000000000
B0959434706199N01306010EA0248302595000000000000
B0959474706147N01306034EA0251302618000000000000
B0959514706159N01306121EA0252102619000000000000
B0959554706225N01306136EA0253502638000000000000
B0959594706262N01306068EA0254502653000000000000
B1000034706232N01306003EA0255402665000000000000
B1000074706181N01306038EA0256302670000000000000
B1000114706190N01306131EA0256802681000000000000
B1000154706247N01306172EA0258502701000000000000
B1000194706280N01306103EA0260102706000000000000
B1000234706249N01306032EA0260702720000000000000
B1000274706194N01306036EA0262502731000000000000
B1000314706155N01306105EA0263002738000000000000
B1000354706156N01306199EA0264302756000000000000
B1000394706201N01306263EA0266002769000000000000
B1000434706255N01306229EA0266702773000000000000
B1000474706258N01306142EA0267502783000000000000
B1000514706211N01306086EA0268302792000000000000
B1000554706158N01306112EA0269602808000000000000
B1000594706164N01306190EA0271302828000000000000
B1001034706218N01306207EA0272502832000000000000
B1001074706246N01306135EA0272802840000000000000
B1001114706211N01306071EA0274302854000000000000
B1001154706158N01306092EA0275102859000000000000
B1001194706154N01306174EA0276202873000000000000
B1001234706207N01306205EA0277202882000000000000
B1001274706249N01306144EA0277602883000000000000
B1001314706241N01306052EA0278202894000000000000
B1001354706193N01306003EA0279102901000000000000
B1001394706134N01305997EA0279802902000000000000
B1001434706088N01306051EA0279602902000000000000
B1001474706082N01306138EA0280002911000000000000
B1001514706120N01306200EA0281002919000000000000
B1001554706176N01306175EA0281302923000000000000
B1001594706190N01306087EA0282202930000000000000
B1002034706146N01306027EA0283202946000000000000
B1002074706094N01306061EA0284402948000000000000
B1002114706089N01306149EA0284102948000000000000
B1002154706133N01306218EA0285102960000000000000
B1002194706194N01306217EA0285902970000000000000
B1002234706211N01306140EA0287102976000000000000
B1002274706162N01306094EA0286602966000000000000
B1002314706116N01306157EA0286602982000000000000
B1002354706127N01306247EA0288202995000000000000
B1002394706181N01306302EA0289303002000000000000
B1002434706241N01306274EA0289803011000000000000
B1002474706254N01306192EA0290803016000000000000
B1002514706214N01306130EA0290903014000000000000
B1002554706151N01306139EA0290703015000000000000
B1002594706117N01306224EA0291303024000000000000
B1003034706130N01306322EA0292703042000000000000
B1003074706186N01306368EA0294303062000000000000
B1003114706240N01306328EA0295803067000000000000
B1003154706234N01306248EA0296203070000000000000
B1003194706185N01306200EA0296103068000000000000
B1003234706121N01306216EA0296203077000000000000
B1003274706081N01306285EA0297603090000000000000
B1003314706082N01306377EA0298303093000000000000
B1003354706134N01306435EA0298303092000000000000
B1003394706201N01306420EA0298503098000000000000
B1003434706238N01306342EA0298903100000000000000
B1003474706228N01306256EA0299603107000000000000
B1003514706177N01306207EA0299803107000000000000
B1003554706115N01306230EA0299803113000000000000
B1003594706059N01306287EA0300603121000000000000
B1004034706003N01306346EA0301003120000000000000
B1004074705939N01306399EA0300203104000000000000
B1004114705867N01306443EA0298003081000000000000
B1004154705782N01306474EA0295303060000000000000
B1004194705691N01306502EA0294003049000000000000
B1004234705599N01306530EA0293303039000000000000
B1004274705505N01306563EA0292303032000000000000
B1004314705410N01306593EA0291903035000000000000
B1004354705319N01306621EA0292303040000000000000
B1004394705231N01306647EA0292803040000000000000
B1004434705144N01306676EA0292603033000000000000
B1004474705054N01306708EA0291503021000000000000
B1004514704963N01306746EA0290303014000000000000
B1004554704871N01306784EA0289503004000000000000
B1004594704777N01306822EA0288702995000000000000
B1005034704682N01306855EA0287702982000000000000
B1005074704587N01306885EA0287202985000000000000
B1005114704492N01306909EA0287202981000000000000
B1005154704398N01306929EA0286602974000000000000
B1005194704301N01306950EA0285902968000000000000
B1005234704205N01306970EA0285202962000000000000
B1005274704109N01306985EA0284502954000000000000
B1005314704011N01306998EA0283302941000000000000
B1005354703913N01307014EA0282402934000000000000
B1005394703814N01307028EA0281902931000000000000
B1005434703718N01307043EA0281602928000000000000
B1005474703620N01307059EA0281202922000000000000
B1005514703525N01307079EA0280502918000000000000
B1005554703430N01307100EA0280202914000000000000
B1005594703335N01307124EA0279802909000000000000
B1006034703242N01307154EA0278902900000000000000
B1006074703146N01307187EA0278202896000000000000
B1006114703052N01307222EA0277602890000000000000
B1006154702958N01307262EA0277602877000000000000
B1006194702864N01307306EA0277302875000000000000
B1006234702771N01307353EA0277202874000000000000
B1006274702684N01307407EA0277102875000000000000
B1006314702601N01307462EA0277302878000000000000
B1006354702520N01307513EA0277802881000000000000
B1006394702441N01307563EA0277602878000000000000
B1006434702359N01307612EA0277102869000000000000
B1006474702273N01307660EA0276202858000000000000
B1006514702184N01307702EA0275102848000000000000
B1006554702089N01307734EA0274002835000000000000
B1006594701990N01307758EA0272802826000000000000
B1007034701890N01307771EA0272302822000000000000
B1007074701798N01307806EA0272602828000000000000
B1007114701723N01307885EA0273102834000000000000
B1007154701673N01307992EA0273302833000000000000
B1007194701631N01308105EA0273102832000000000000
B1007234701592N01308223EA0272502819000000000000
B1007274701556N01308348EA0270902800000000000000
B1007314701515N01308478EA0269002782000000000000
B1007354701473N01308609EA0267802777000000000000
B1007394701434N01308740EA0267702778000000000000
B1007434701393N01308865EA0267602774000000000000
B1007474701344N01308980EA0266902767000000000000
B1007514701283N01309077EA0266902775000000000000
B1007554701216N01309158EA0267802779000000000000
B1007594701144N01309221EA0268702793000000000000
B1008034701073N01309264EA0269702808000000000000
B1008074701008N01309273EA0271602829000000000000
B1008114700946N01309266EA0273202839000000000000
B1008154700885N01309256EA0274102848000000000000
B1008194700826N01309246EA0275402862000000000000
B1008234700768N01309241EA0276602869000000000000
B1008274700706N01309249EA0276502864000000000000
B1008314700641N01309259EA0277002879000000000000
B1008354700578N01309259EA0278302887000000000000
B1008394700514N01309258EA0277502872000000000000
B1008434700442N01309263EA0276202858000000000000
B1008474700364N01309271EA0274802842000000000000
B1008514700282N01309280EA0274002834000000000000
B1008554700197N01309292EA0273102830000000000000
B1008594700113N01309305EA0272502819000000000000
B1009034700026N01309318EA0271502812000000000000
B1009074659937N01309336EA0271102806000000000000
B1009114659851N01309360EA0270702807000000000000
B1009154659767N01309385EA0270602805000000000000
B1009194659680N01309405EA0270102795000000000000
B1009234659590N01309422EA0269102785000000000000
B1009274659498N01309436EA0268402778000000000000
B1009314659404N01309450EA0267402769000000000000
B1009354659308N01309462EA0266602759000000000000
B1009394659211N01309470EA0265502746000000000000
B1009434659110N01309472EA0264502735000000000000
B1009474659009N01309470EA0263802731000000000000
B1009514658912N01309457EA0263602728000000000000
B1009554658817N01309446EA0262902723000000000000
B1009594658722N01309441EA0262502718000000000000
B1010034658627N01309437EA0261702712000000000000
B1010074658536N01309438EA0261802725000000000000
B1010114658468N01309448EA0264802762000000000000
B1010154658408N01309462EA0265902757000000000000
B1010194658346N01309481EA0264702742000000000000
B1010234658276N01309498EA0263902734000000000000
B1010274658204N01309518EA0262802720000000000000
B1010314658126N01309544EA0261202704000000000000
B1010354658044N01309574EA0260002689000000000000
B1010394657959N01309607EA0258302671000000000000
B1010434657868N01309644EA0256602654000000000000
B1010474657774N01309678EA0255102640000000000000
B1010514657679N01309711EA0254102639000000000000
B1010554657587N01309735EA0254102636000000000000
B1010594657493N01309757EA0253402627000000000000
B1011034657400N01309786EA0252602621000000000000
B1011074657307N01309814EA0252302617000000000000
B1011114657212N01309841EA0251602609000000000000
B1011154657116N01309870EA0251002597000000000000
B1011194657016N01309895EA0249402581000000000000
B1011234656911N01309919EA0247802569000000000000
B1011274656806N01309949EA0247302568000000000000
B1011314656704N01309982EA0247202566000000000000
B1011354656604N01310020EA0246902562000000000000
B1011394656507N01310065EA0246402557000000000000
B1011434656410N01310117EA0245702541000000000000
B1011474656310N01310186EA0243602521000000000000
B1011514656209N01310251EA0242802522000000000000
B1011554656111N01310312EA0243202530000000000000
B1011594656018N01310372EA0243602529000000000000
B1012034655924N01310425EA0243402526000000000000
B1012074655831N01310469EA0243102523000000000000
B1012114655736N01310504EA0242702518000000000000
B1012154655641N01310534EA0242102514000000000000
B1012194655546N01310566EA0241502508000000000000
B1012234655451N01310598EA0240802499000000000000
B1012274655356N01310632EA0240002490000000000000
B1012314655259N01310666EA0239002480000000000000
B1012354655161N01310703EA0238102469000000000000
B1012394655064N01310742EA0236902458000000000000
B1012434654963N01310784EA0235802445000000000000
B1012474654861N01310823EA0234702435000000000000
B1012514654758N01310865EA0233902428000000000000
B1012554654657N01310907EA0233302424000000000000
B1012594654555N01310949EA0233102422000000000000
B1013034654456N01310989EA0232802417000000000000
B1013074654362N01311045EA0232402418000000000000
B1013114654274N01311099EA0233302435000000000000
B1013154654194N01311143EA0234602446000000000000
B1013194654118N01311183EA0235202447000000000000
B1013234654047N01311234EA0234802440000000000000
B1013274653975N01311294EA0234102433000000000000
B1013314653904N01311357EA0233502426000000000000
B1013354653832N01311424EA0232202421000000000000
B1013394653762N01311494EA0231302416000000000000
B1013434653693N01311567EA0230702410000000000000
B1013474653624N01311645EA0230202405000000000000
B1013514653556N01311719EA0229902403000000000000
B1013554653484N01311786EA0229702401000000000000
B1013594653423N01311864EA0229702401000000000000
B1014034653372N01311950EA0229802401000000000000
B1014074653327N01312036EA0229602398000000000000
B1014114653285N01312126EA0229302393000000000000
B1014154653255N01312224EA0229002391000000000000
B1014194653237N01312327EA0229202397000000000000
B1014234653231N01312427EA0229602398000000000000
B1014274653234N01312525EA0229602397000000000000
B1014314653250N01312617EA0229802404000000000000
B1014354653257N01312703EA0230802416000000000000
B1014394653219N01312763EA0232002422000000000000
B1014434653159N01312759EA0232302427000000000000
B1014474653120N01312687EA0233202435000000000000
B1014514653151N01312607EA0233202432000000000000
B1014554653215N01312634EA0232902434000000000000
B1014594653229N01312713EA0233902451000000000000
B1015034653192N01312766EA0235202456000000000000
B1015074653134N01312748EA0235302455000000000000
B1015114653101N01312669EA0235302460000000000000
B1015154653123N01312574EA0235802462000000000000
B1015194653149N01312486EA0236902480000000000000
B1015234653176N01312410EA0238202489000000000000
B1015274653210N01312345EA0238802490000000000000
B1015314653245N01312274EA0238502486000000000000
B1015354653250N01312188EA0238702495000000000000
B1015394653236N01312106EA0239202488000000000000
B1015434653202N01312031EA0238302488000000000000
B1015474653172N01311951EA0238902498000000000000
B1015514653147N01311872EA0240002506000000000000
B1015554653120N01311793EA0240402505000000000000
B1015594653072N01311734EA0240002501000000000000
B1016034653013N01311707EA0240202511000000000000
B1016074652960N01311689EA0241802523000000000000
B1016114652907N01311681EA0242002517000000000000
B1016154652857N01311724EA0241302515000000000000
B1016194652826N01311798EA0240902508000000000000
B1016234652808N01311886EA0240402504000000000000
B1016274652799N01311977EA0240102500000000000000
B1016314652792N01312072EA0239602501000000000000
B1016354652777N01312159EA0239902501000000000000
B1016394652752N01312245EA0239402494000000000000
B1016434652724N01312337EA0238302483000000000000
B1016474652695N01312439EA0236802466000000000000
B1016514652659N01312547EA0235502451000000000000
B1016554652620N01312660EA0234802441000000000000
B1016594652582N01312776EA0234502436000000000000
B1017034652542N01312891EA0233902430000000000000
B1017074652496N01313007EA0233002419000000000000
B1017114652448N01313124EA0232002409000000000000
B1017154652399N01313244EA0231102400000000000000
B1017194652347N01313363EA0230202394000000000000
B1017234652293N01313483EA0229702388000000000000
B1017274652240N01313604EA0228902380000000000000
B1017314652188N01313727EA0228302372000000000000
B1017354652139N01313855EA0227702365000000000000
B1017394652088N01313983EA0226902356000000000000
B1017434652037N01314113EA0225902346000000000000
B1017474651988N01314246EA0225102339000000000000
B1017514651938N01314377EA0224302334000000000000
B1017554651886N01314506EA0223902330000000000000
B1017594651834N01314632EA0223702329000000000000
B1018034651784N01314757EA0223502323000000000000
B1018074651733N01314887EA0222702313000000000000
B1018114651678N01315012EA0221902307000000000000
B1018154651619N01315131EA0221302303000000000000
B1018194651554N01315243EA0220902301000000000000
B1018234651486N01315347EA0221002306000000000000
B1018274651417N01315437EA0222302320000000000000
B1018314651349N01315525EA0221702299000000000000
B1018354651278N01315620EA0219502279000000000000
B1018394651200N01315712EA0218402273000000000000
B1018434651119N01315801EA0218102270000000000000
B1018474651041N01315886EA0217702266000000000000
B1018514650962N01315975EA0216802255000000000000
B1018554650885N01316070EA0216202256000000000000
B1018594650822N01316172EA0216802264000000000000
B1019034650774N01316280EA0217802279000000000000
B1019074650738N01316379EA0219802296000000000000
B1019114650720N01316475EA0220602307000000000000
B1019154650711N01316565EA0221202308000000000000
B1019194650716N01316657EA0220802300000000000000
B1019234650729N01316754EA0220102293000000000000
B1019274650738N01316854EA0219902297000000000000
B1019314650738N01316949EA0220702306000000000000
B1019354650740N01317038EA0221402312000000000000
B1019394650740N01317129EA0221602311000000000000
B1019434650728N01317222EA0221402309000000000000
B1019474650698N01317302EA0221302313000000000000
B1019514650668N01317380EA0222002322000000000000
B1019554650647N01317459EA0223102335000000000000
B1019594650637N01317540EA0224602352000000000000
B1020034650629N01317619EA0226102364000000000000
B1020074650623N01317701EA0226902367000000000000
B1020114650619N01317787EA0227302372000000000000
B1020154650610N01317874EA0227602376000000000000
B1020194650599N01317961EA0228102375000000000000
B1020234650580N01318052EA0227402369000000000000
B1020274650547N01318135EA0227502379000000000000
B1020314650516N01318215EA0228702386000000000000
B1020354650481N01318294EA0228902386000000000000
B1020394650441N01318372EA0228902385000000000000
B1020434650391N01318440EA0229202393000000000000
B1020474650335N01318493EA0229702390000000000000
B1020514650274N01318545EA0229102386000000000000
B1020554650207N01318588EA0228702378000000000000
B1020594650137N01318629EA0227502366000000000000
B1021034650060N01318666EA0226002347000000000000
B1021074649975N01318692EA0224202328000000000000
B1021114649883N01318714EA0222402312000000000000
B1021154649788N01318735EA0221502302000000000000
B1021194649692N01318753EA0220502290000000000000
B1021234649594N01318770EA0219402282000000000000
B1021274649496N01318778EA0218802277000000000000
B1021314649397N01318778EA0218202270000000000000
B1021354649299N01318775EA0217502266000000000000
B1021394649202N01318769EA0217002261000000000000
B1021434649106N01318759EA0216502255000000000000
B1021474649011N01318744EA0215702247000000000000
B1021514648916N01318724EA0215202238000000000000
B1021554648818N01318704EA0214302229000000000000
B1021594648722N01318691EA0213602226000000000000
B1022034648629N01318691EA0213502228000000000000
B1022074648538N01318692EA0213602227000000000000
B1022114648450N01318713EA0214002234000000000000
B1022154648369N01318740EA0214802243000000000000
B1022194648294N01318775EA0215902268000000000000
B1022234648239N01318754EA0218202287000000000000
B1022274648258N01318668EA0219202287000000000000
B1022314648319N01318627EA0219602296000000000000
B1022354648383N01318649EA0220602305000000000000
B1022394648404N01318726EA0221202309000000000000
B1022434648384N01318802EA0221202308000000000000
B1022474648344N01318856EA0220902312000000000000
B1022514648293N01318887EA0221102304000000000000
B1022554648236N01318912EA0220202296000000000000
B1022594648175N01318930EA0219902292000000000000
B1023034648110N01318927EA0219402282000000000000
B1023074648045N01318897EA0218002269000000000000
B1023114647981N01318853EA0217102261000000000000
B1023154647921N01318796EA0216702261000000000000
B1023194647862N01318740EA0216802262000000000000
B1023234647799N01318691EA0216702262000000000000
B1023274647739N01318642EA0217102271000000000000
B1023314647686N01318590EA0218102279000000000000
B1023354647629N01318561EA0218602280000000000000
B1023394647566N01318593EA0218402283000000000000
B1023434647522N01318666EA0219402295000000000000
B1023474647517N01318759EA0220502306000000000000
B1023514647546N01318847EA0220902308000000000000
B1023554647608N01318882EA0220702308000000000000
B1023594647664N01318844EA0220402302000000000000
B1024034647689N01318769EA0219802299000000000000
B1024074647693N01318689EA0219702301000000000000
B1024114647680N01318615EA0220202302000000000000
B1024154647651N01318544EA0219902302000000000000
B1024194647620N01318473EA0220502317000000000000
B1024234647635N01318397EA0221902320000000000000
B1024274647699N01318392EA0221602316000000000000
B1024314647732N01318476EA0221302320000000000000
B1024354647708N01318553EA0222602335000000000000
B1024394647663N01318525EA0223302335000000000000
B1024434647691N01318447EA0223402340000000000000
B1024474647758N01318470EA0223902345000000000000
B1024514647764N01318564EA0224002342000000000000
B1024554647707N01318606EA0223802345000000000000
B1024594647677N01318535EA0224902359000000000000
B1025034647730N01318477EA0225902363000000000000
B1025074647781N01318536EA0226402369000000000000
B1025114647746N01318601EA0226602366000000000000
B1025154647686N01318579EA0226402374000000000000
B1025194647635N01318538EA0227902389000000000000
B1025234647583N01318510EA0228402385000000000000
B1025274647522N01318499EA0226802363000000000000
B1025314647452N01318524EA0224202342000000000000
B1025354647381N01318577EA0223202337000000000000
B1025394647313N01318641EA0223602359000000000000
B1025434647253N01318692EA0226402377000000000000
B1025474647199N01318741EA0227002363000000000000
B1025514647132N01318804EA0223802328000000000000
B1025554647058N01318879EA0220902307000000000000
B1025594646979N01318957EA0219402299000000000000
B1026034646900N01319035EA0219002299000000000000
B1026074646824N01319110EA0219002297000000000000
B1026114646749N01319185EA0218702291000000000000
B1026154646672N01319259EA0217802284000000000000
B1026194646594N01319333EA0217402277000000000000
B1026234646516N01319406EA0216602269000000000000
B1026274646434N01319478EA0215102245000000000000
B1026314646346N01319562EA0212002217000000000000
B1026354646260N01319655EA0210602216000000000000
B1026394646179N01319750EA0210902221000000000000
B1026434646107N01319846EA0211302222000000000000
B1026474646040N01319946EA0211402222000000000000
B1026514645983N01320052EA0211102214000000000000
B1026554645926N01320163EA0209902204000000000000
B1026594645863N01320266EA0209802203000000000000
B1027034645797N01320362EA0209202189000000000000
B1027074645724N01320455EA0207702183000000000000
B1027114645646N01320534EA0207202176000000000000
B1027154645566N01320611EA0206402165000000000000
B1027194645481N01320680EA0205502159000000000000
B1027234645395N01320741EA0205102155000000000000
B1027274645310N01320797EA0204802154000000000000
B1027314645225N01320850EA0204902153000000000000
B1027354645143N01320904EA0204602151000000000000
B1027394645065N01320962EA0204602150000000000000
B1027434644987N01321020EA0204302148000000000000
B1027474644909N01321076EA0204002142000000000000
B1027514644833N01321135EA0203002131000000000000
B1027554644760N01321203EA0202202126000000000000
B1027594644693N01321279EA0202002121000000000000
B1028034644626N01321353EA0201002104000000000000
B1028074644554N01321423EA0199502096000000000000
B1028114644479N01321488EA0198902092000000000000
B1028154644407N01321553EA0199202097000000000000
B1028194644339N01321621EA0200102088000000000000
B1028234644267N01321694EA0199702091000000000000
B1028274644198N01321764EA0200002093000000000000
B1028314644137N01321842EA0200002092000000000000
B1028354644088N01321938EA0199702091000000000000
B1028394644053N01322046EA0200102099000000000000
B1028434644027N01322158EA0200902104000000000000
B1028474644024N01322272EA0201202105000000000000
B1028514644037N01322381EA0201502109000000000000
B1028554644059N01322487EA0201602106000000000000
B1028594644084N01322592EA0201602110000000000000
B1029034644110N01322688EA0203102131000000000000
B1029074644086N01322761EA0204902145000000000000
B1029114644033N01322758EA0205202144000000000000
B1029154644002N01322693EA0205202143000000000000
B1029194644020N01322611EA0205302154000000000000
B1029234644075N01322596EA0207002166000000000000
B1029274644095N01322670EA0207102164000000000000
B1029314644053N01322726EA0207102165000000000000
B1029354643994N01322702EA0206802162000000000000
B1029394643950N01322644EA0207402177000000000000
B1029434643950N01322565EA0208602183000000000000
B1029474643994N01322509EA0209702201000000000000
B1029514644042N01322552EA0211302208000000000000
B1029554644028N01322635EA0211102206000000000000
B1029594643975N01322652EA0212102222000000000000
B1030034643962N01322578EA0212902221000000000000
B1030074644021N01322550EA0213102233000000000000
B1030114644059N01322627EA0214602244000000000000
B1030154644033N01322709EA0215102250000000000000
B1030194643976N01322708EA0215602258000000000000
B1030234643959N01322627EA0215902266000000000000
B1030274644004N01322566EA0216902278000000000000
B1030314644054N01322615EA0218402299000000000000
B1030354644033N01322688EA0220102307000000000000
B1030394643977N01322666EA0220602311000000000000
B1030434643978N01322578EA0221002319000000000000
B1030474644040N01322557EA0223102343000000000000
B1030514644071N01322631EA0224502354000000000000
B1030554644038N01322700EA0225402362000000000000
B1030594643986N01322675EA0226502373000000000000
B1031034643986N01322592EA0227202381000000000000
B1031074644045N01322583EA0228602398000000000000
B1031114644067N01322663EA0229902410000000000000
B1031154644027N01322721EA0231102420000000000000
B1031194643975N01322688EA0232002424000000000000
B1031234643962N01322604EA0232302429000000000000
B1031274643994N01322532EA0233202441000000000000
B1031314644050N01322561EA0233802441000000000000
B1031354644038N01322652EA0233402441000000000000
B1031394643975N01322678EA0234402455000000000000
B1031434643934N01322606EA0235302457000000000000
B1031474643959N01322519EA0235902471000000000000
B1031514644014N01322558EA0236802476000000000000
B1031554643993N01322645EA0237802491000000000000
B1031594643930N01322653EA0238702494000000000000
B1032034643891N01322576EA0239202503000000000000
B1032074643911N01322487EA0240602521000000000000
B1032114643969N01322476EA0243102544000000000000
B1032154643995N01322553EA0244202545000000000000
B1032194643955N01322631EA0243702544000000000000
B1032234643887N01322617EA0244302552000000000000
B1032274643868N01322522EA0245302564000000000000
B1032314643921N01322468EA0246502584000000000000
B1032354643972N01322527EA0248302598000000000000
B1032394643951N01322618EA0249502604000000000000
B1032434643881N01322626EA0249602605000000000000
B1032474643838N01322541EA0249702609000000000000
B1032514643848N01322440EA0251002626000000000000
B1032554643899N01322385EA0252902640000000000000
B1032594643955N01322425EA0253902651000000000000
B1033034643967N01322514EA0255102662000000000000
B1033074643929N01322588EA0256302675000000000000
B1033114643873N01322641EA0257002675000000000000
B1033154643809N01322697EA0255502655000000000000
B1033194643739N01322766EA0253402638000000000000
B1033234643666N01322845EA0251802615000000000000
B1033274643587N01322931EA0248602590000000000000
B1033314643505N01323030EA0247002567000000000000
B1033354643419N01323127EA0246202559000000000000
B1033394643334N01323226EA0246402561000000000000
B1033434643258N01323326EA0248002586000000000000
B1033474643196N01323426EA0250502613000000000000
B1033514643139N01323521EA0252902636000000000000
B1033554643087N01323610EA0254302638000000000000
B1033594643036N01323703EA0254402641000000000000
B1034034642988N01323802EA0254002630000000000000
B1034074642936N01323909EA0252002606000000000000
B1034114642879N01324022EA0250502587000000000000
B1034154642818N01324140EA0248402567000000000000
B1034194642756N01324264EA0246102550000000000000
B1034234642697N01324391EA0245302541000000000000
