AZANB53 ZANDER GP940 V1.25
HFDTE260706
HFFXA050
HFPLT Pilot             :Segelfluggruppe Isartal                 
HFGTY Glider type       :Lak-17a                                 
HFGID Glider ID         :D-7417    
HFDTM100 GPS Datum      :WGS84
HFRFW Firmware Version  :1.25
HFRHW Hardware version  :A
HFFTY FR Type           :ZANDER GP940
HFGPS                   :Motorola,VP ONCORE,8,30000
HFPRS Press Alt Sensor  :Motorola,MPX100A,10000
HFCCL Competition Class :18m                                     
HFCID Competition ID    :BG        
I023638IAS3941ENL
J020810WDI1113WVE
LZAN 075157 PowerOn
C250706081351250706000102
C4749700N01128200E KDFEND28    
C4749700N01128200E KDFEND28    
C4629883N01357766E B.KARAWANKEN
C4638316N00853550E B.PIZLABUORA
C4749700N01128200E KDFEND28    
C4749700N01128200E KDFEND28    
B0752014749745N01128050EV0053900000000000
B0752054749745N01128050EV0053800000000000
B0752094749745N01128050EV0053800000000000
B0752134749745N01128050EV0053800000000000
B0752174749745N01128050EV0053700000000000
B0752214749745N01128050EV0053600000000000
B0752254749745N01128050EV0053700000000000
B0752294749745N01128050EV0053700000000000
B0752334749745N01128050EV0053600000000000
B0752374749745N01128050EV0053700000000000
B0752414749745N01128050EV0053600000000000
B0752454749745N01128050EV0053600000000000
B0752494749745N01128050EV0053600000000000
B0752534749745N01128050EV0053600000000000
B0752574749745N01128050EV0053700000000000
B0753014749425N01128050EA0053700000000000
B0753054749758N01127679EA0053700000000000
B0753094749766N01127675EA0053800000000000
B0753134749766N01127679EA0053700000000000
B0753174749766N01127679EA0053700000000000
B0753214749766N01127679EA0053800000000000
B0753254749766N01127679EA0053700000000000
B0753294749766N01127679EA0053700000000000
B0753334749766N01127679EA0053800600000000
B0753374749766N01127679EA0053700600000000
B0753414749766N01127679EA0053800600000000
B0753454749762N01127679EA0053800600000000
B0753494749762N01127679EA0053700600000000
B0753534749762N01127679EA0053800600000000
B0753574749762N01127683EA0053800600000000
B0754014749762N01127683EA0053800600000000
B0754054749758N01127683EA0053800600000000
B0754094749758N01127683EA0053800600000000
B0754134749758N01127683EA0053700600000000
B0754174749758N01127683EA0053800600000000
B0754214749758N01127683EA0053800600000000
B0754254749758N01127683EA0053800600000000
B0754294749758N01127683EA0053800600000000
B0754334749758N01127683EA0053800600000000
B0754374749758N01127683EA0053800600000000
B0754414749758N01127683EA0053800600000000
B0754454749758N01127683EA0053800600000000
B0754494749758N01127683EA0053800600000000
B0754534749758N01127683EA0053700600000000
B0754574749758N01127687EA0053800600000000
B0755014749758N01127687EA0053800600000000
B0755054749754N01127687EA0053800592000000
B0755094749754N01127687EA0053800592000000
C260706075511260706000102
C4749700N01128200E KDFEND28    
C4745633N01132683E ALPAMARE    
C4631500N00908833E HINTERRHEIN 
C4625666N01410400E B.HOCHSTUHL 
C4745633N01132683E ALPAMARE    
C4749700N01128200E KDFEND28    
B0755134749754N01127687EA0053800592000000
B0755174749754N01127687EA0053800592000000
B0755214749754N01127687EA0053800592000000
B0755254749754N01127687EA0053800592000000
B0755294749754N01127687EA0053800592000000
C260706075530260706000102
C4749700N01128200E KDFEND28    
C4745633N01132683E ALPAMARE    
C4631500N00908833E HINTERRHEIN 
C4625666N01410400E B.HOCHSTUHL 
C4745633N01132683E ALPAMARE    
C4749700N01128200E KDFEND28    
B0755334749754N01127687EA0053800592000000
B0755374749754N01127687EA0053800592000000
B0755414749754N01127687EA0053800592000000
B0755454749754N01127687EA0053800592000000
B0755494749754N01127687EA0053800592000000
B0755534749754N01127687EA0053800592000000
B0755574749754N01127687EA0053600592000000
B0756014749754N01127687EA0053800592000000
B0756054749754N01127687EA0053800592000000
B0756094749754N01127687EA0053800592000000
B0756134749754N01127687EA0053900592000000
B0756174749754N01127687EA0053900592000000
B0756214749754N01127687EA0053700592000000
B0756254749754N01127687EA0053800592000000
B0756294749754N01127687EA0053800592000000
B0756334749754N01127687EA0053800592000000
B0756374749754N01127687EA0053800592000000
B0756414749754N01127687EA0053800592000000
B0756454749754N01127687EA0053800592000000
B0756494749754N01127687EA0053700592000000
B0756534749754N01127687EA0053900584000000
B0756574749754N01127687EA0053700584000000
B0757014749754N01127687EA0053800584000000
B0757054749754N01127687EA0053800584000000
B0757094749754N01127687EA0053800584000000
B0757134749754N01127687EA0053800584000000
B0757174749754N01127687EA0053800584000000
B0757214749754N01127687EA0053800584000000
B0757254749754N01127687EA0053800584000000
B0757294749754N01127687EA0053700584000000
B0757334749754N01127687EA0053800584000000
B0757374749754N01127687EA0053800584000000
B0757414749754N01127687EA0053800584000000
B0757454749754N01127687EA0053800584000000
B0757494749754N01127687EA0053800584000000
B0757534749754N01127687EA0053800584000000
B0757574749754N01127687EA0053700584000000
B0758014749754N01127687EA0053800584000000
B0758054749754N01127687EA0053800584000000
B0758094749754N01127687EA0053800584000000
B0758134749754N01127687EA0053800584000000
B0758174749754N01127687EA0053800584000000
B0758214749750N01127687EA0053800584000000
B0758254749754N01127687EA0053800584000000
B0758294749754N01127687EA0053800584000000
B0758334749754N01127687EA0053800584000000
B0758374749750N01127687EA0053800584000000
B0758414749750N01127687EA0053800584000000
B0758454749750N01127687EA0053800584000000
B0758494749750N01127687EA0053800584000000
B0758534749750N01127687EA0053800584000000
B0758574749750N01127687EA0053800592000000
B0759014749750N01127687EA0053800592000000
B0759054749750N01127687EA0053800592000000
B0759094749750N01127687EA0053800592000000
B0759134749750N01127691EA0053800592000000
B0759174749750N01127691EA0053800592000000
B0759214749750N01127691EA0053800592000000
B0759254749750N01127691EA0053800592000000
B0759294749750N01127691EA0053800592000000
B0759334749750N01127691EA0053800592000000
B0759374749750N01127691EA0053800592000000
B0759414749750N01127691EA0053800592000000
B0759454749750N01127691EA0053800592000000
B0759494749750N01127691EA0053800592000000
B0759534749750N01127691EA0053800592000000
B0759574749750N01127691EA0053800592000000
B0800014749750N01127691EA0053900592000000
B0800054749750N01127691EA0053800592000000
B0800094749750N01127691EA0053800592000000
B0800134749750N01127691EA0053800592000000
B0800174749750N01127691EA0053800592000000
B0800214749750N01127691EA0053800592000000
B0800254749745N01127691EA0053800592000000
B0800294749745N01127691EA0053800592000000
B0800334749745N01127691EA0053800600000000
B0800374749745N01127691EA0053800600000000
B0800414749745N01127691EA0053800600000000
B0800454749745N01127691EA0053800600000000
B0800494749745N01127691EA0053800600000000
B0800534749745N01127691EA0053900600000000
B0800574749745N01127691EA0053900600000000
B0801014749745N01127691EA0053800600000000
B0801054749745N01127691EA0053800600000000
B0801094749745N01127691EA0053800600000000
B0801134749745N01127691EA0053800600000000
B0801174749745N01127691EA0053900600000000
B0801214749745N01127691EA0053900600000000
B0801254749745N01127691EA0053900600000000
B0801294749745N01127691EA0053900600000000
B0801334749745N01127691EA0053800600000000
B0801374749745N01127691EA0053800600000000
B0801414749745N01127691EA0053800600000000
B0801454749745N01127691EA0053900600000000
B0801494749745N01127691EA0053800600000000
B0801534749745N01127691EA0053800600000000
B0801574749745N01127691EA0053800600000000
B0802014749745N01127691EA0053800600000000
B0802054749745N01127691EA0053800600000000
B0802094749745N01127691EA0053800600000000
B0802134749745N01127691EA0053800600000000
B0802174749745N01127691EA0053800600000000
B0802214749745N01127691EA0053800600000000
B0802254749745N01127691EA0053800600000000
B0802294749745N01127691EA0053800600000000
B0802334749745N01127691EA0053800600000000
B0802374749745N01127691EA0053900600000000
B0802414749745N01127691EA0053900600000000
B0802454749745N01127691EA0053900600000000
B0802494749745N01127691EA0053900600000000
B0802534749745N01127691EA0053800600000000
B0802574749745N01127691EA0053900600000000
B0803014749745N01127691EA0053900600000000
B0803054749745N01127691EA0053900600000000
B0803094749745N01127691EA0053900600000000
B0803134749745N01127691EA0053900600000000
B0803174749745N01127691EA0053900600000000
B0803214749745N01127691EA0053900000000000
B0803254749745N01127691EA0053900592000000
B0803294749745N01127691EA0053800592000000
B0803334749745N01127691EA0053800592000000
B0803374749745N01127691EA0053900600000000
B0803414749745N01127691EA0053900600000000
B0803454749745N01127691EA0053900600000000
B0803494749745N01127691EA0053800600000000
B0803534749745N01127691EA0053900600000000
B0803574749745N01127691EA0053800600000000
B0804014749745N01127691EA0053900600000000
B0804054749745N01127691EA0053900600000000
B0804094749745N01127691EA0053900600000000
B0804134749745N01127691EA0053900600000000
B0804174749745N01127691EA0053900600000000
B0804214749745N01127691EA0053900600000000
B0804254749745N01127691EA0053900600000000
B0804294749745N01127691EA0053900600000000
B0804334749745N01127691EA0053900600000000
B0804374749745N01127691EA0053900600000000
B0804414749745N01127691EA0053900600000000
B0804454749745N01127691EA0053900600000000
B0804494749745N01127691EA0053900600000000
B0804534749745N01127691EA0053900600000000
B0804574749745N01127691EA0053900600000000
B0805014749745N01127691EA0053900600000000
B0805054749745N01127691EA0053900600000000
B0805094749745N01127691EA0053900600000000
B0805134749745N01127691EA0053900600000000
B0805174749745N01127691EA0053900600000000
B0805214749745N01127691EA0053900600000000
B0805254749745N01127691EA0054000600000000
B0805294749745N01127691EA0053900600000000
B0805334749745N01127691EA0053900600000000
B0805374749745N01127691EA0053900600000000
B0805414749745N01127691EA0053900600000000
B0805454749745N01127691EA0053900600000000
B0805494749745N01127691EA0053800600000000
B0805534749745N01127691EA0053900600000000
B0805574749745N01127691EA0053900600000000
B0806014749745N01127691EA0053900600000000
B0806054749745N01127691EA0053900600000000
B0806094749745N01127691EA0053800600000000
B0806134749745N01127691EA0053900600000000
B0806174749745N01127691EA0053900600000000
B0806214749745N01127691EA0053900592000000
B0806254749745N01127691EA0053900592000000
B0806294749745N01127691EA0053900592000000
B0806334749745N01127691EA0053900592000000
B0806374749745N01127691EA0053900592000000
B0806414749745N01127691EA0053900600000000
B0806454749745N01127691EA0053900600000000
B0806494749745N01127691EA0053900600000000
B0806534749745N01127691EA0053900600000000
B0806574749745N01127691EA0053900600000000
B0807014749745N01127691EA0053900600000000
B0807054749745N01127691EA0053900592000000
B0807094749745N01127691EA0053900592000000
B0807134749745N01127691EA0053900592000000
B0807174749745N01127691EA0053900592000000
B0807214749745N01127691EA0053900592000000
B0807254749745N01127691EA0053900592000000
B0807294749745N01127691EA0054000592000000
B0807334749745N01127691EA0054000592000000
B0807374749745N01127691EA0054000592000000
B0807414749745N01127691EA0054000592000000
B0807454749745N01127691EA0054000592000000
B0807494749745N01127691EA0054000600000000
B0807534749745N01127691EA0054000600000000
B0807574749745N01127691EA0054000592000000
B0808014749745N01127691EA0054000600000000
B0808054749745N01127691EA0053900600000000
B0808094749745N01127691EA0054000592000000
B0808134749745N01127691EA0054000592000000
B0808174749745N01127691EA0054000600000000
B0808214749745N01127691EA0053900600000000
B0808254749745N01127691EA0054100600000000
B0808294749745N01127691EA0053900600000000
B0808334749745N01127691EA0053900600000000
B0808374749745N01127691EA0054100600000000
B0808414749745N01127691EA0053900600000000
B0808454749745N01127691EA0054000600000000
B0808494749745N01127691EA0053900600009000
B0808534749745N01127691EA0053900600007000
B0808574749745N01127691EA0053900600009000
B0809014749745N01127691EA0054000600000000
B0809054749745N01127691EA0054000600012000
B0809094749745N01127691EA0053900600007000
B0809134749745N01127691EA0054000600000000
B0809174749745N01127691EA0054000600009000
B0809214749745N01127691EA0054000600000000
B0809254749745N01127691EA0054000600007000
B0809294749745N01127691EA0054000600009000
B0809334749745N01127691EA0054000600009000
B0809374749745N01127691EA0054000600000000
B0809414749745N01127691EA0054000600000000
B0809454749745N01127691EA0054000600009000
B0809494749745N01127691EA0054000600007000
B0809534749745N01127691EA0054000600000000
B0809574749745N01127691EA0054100600007000
B0810014749745N01127691EA0054000600000000
B0810054749745N01127691EA0053900600007000
B0810094749745N01127691EA0053900600007000
B0810134749745N01127691EA0053900600007000
B0810174749745N01127691EA0054000600000000
B0810214749745N01127691EA0053900600000000
B0810254749745N01127691EA0053900600000000
B0810294749745N01127691EA0053900600000000
B0810334749745N01127691EA0053900600000000
B0810374749745N01127691EA0054000600018000
B0810414749745N01127691EA0053900600024000
B0810454749745N01127691EA0053900600009000
B0810494749745N01127691EA0053900600015000
B0810534749745N01127691EA0054000600015000
B0810574749745N01127691EA0053900600020000
B0811014749745N01127691EA0054000600012000
B0811054749745N01127691EA0054000600018000
B0811094749745N01127691EA0054000600021000
B0811134749745N01127691EA0053900600015000
B0811174749745N01127691EA0054000600023000
B0811214749745N01127691EA0054000600012000
B0811254749745N01127691EA0054000600022000
B0811294749745N01127691EA0054000600009000
B0811334749745N01127691EA0054000600009000
B0811374749745N01127691EA0053900600020000
B0811414749745N01127691EA0053900600018000
B0811454749745N01127691EA0054000600007000
B0811494749745N01127691EA0054000600007000
B0811534749745N01127691EA0053900600018000
B0811574749745N01127691EA0054000600021000
B0812014749745N01127691EA0053900600014000
B0812054749745N01127691EA0053900600014000
B0812094749745N01127691EA0053900600007000
B0812134749745N01127695EA0054000600034010
B0812174749741N01127725EA0053700600062100
B0812214749737N01127770EA0053800600084100
K081221014011
B0812254749729N01127837EA0053900600104125
B0812294749716N01127920EA0054100600120125
B0812334749708N01128012EA0054100600116100
B0812374749695N01128116EA0054400600115010
B0812414749683N01128229EA0055000608123000
K081241030035
B0812454749666N01128341EA0055700608122000
B0812494749654N01128458EA0056400624121000
B0812534749637N01128575EA0057600632123000
B0812574749616N01128691EA0058300640136010
B0813014749600N01128808EA0059200656124000
K081301016024
B0813054749591N01128929EA0060600664126010
B0813094749600N01129045EA0061000672126010
B0813134749629N01129154EA0062100680120010
B0813174749679N01129245EA0063100696123020
B0813214749741N01129316EA0063700696132100
K081321016024
B0813254749812N01129362EA0064500712124010
B0813294749887N01129404EA0065100712139010
B0813334749962N01129445EA0066000720123010
B0813374750037N01129487EA0066900736124010
B0813414750108N01129533EA0067900744121000
K081341344018
B0813454750183N01129579EA0068500752125010
B0813494750254N01129625EA0069000760125010
B0813534750329N01129679EA0069900760126010
B0813574750400N01129733EA0070500776125020
B0814014750470N01129795EA0071300776122010
K081401290031
B0814054750537N01129866EA0072200792129020
B0814094750595N01129950EA0073100800143100
B0814134750650N01130041EA0073600808127010
B0814174750695N01130145EA0074500816128010
B0814214750729N01130258EA0075200824127010
K081421296053
B0814254750750N01130375EA0076000832122020
B0814294750754N01130495EA0076800840123010
B0814334750741N01130616EA0077400840140010
B0814374750720N01130733EA0078400856131100
B0814414750679N01130841EA0079600864128020
K081441296053
B0814454750629N01130941EA0080100872130100
B0814494750570N01131025EA0080700880145100
B0814534750500N01131095EA0081400888141100
B0814574750425N01131158EA0082400896136100
B0815014750350N01131216EA0083400904130010
K081501296053
B0815054750279N01131270EA0084600920122100
B0815094750204N01131325EA0085600928128020
B0815134750133N01131379EA0086400936120100
B0815174750062N01131437EA0087200944129010
B0815214749987N01131500EA0087800952123010
K081521266029
B0815254749916N01131562EA0088600960128010
B0815294749845N01131629EA0089300968127100
B0815334749775N01131695EA0090000976127010
B0815374749704N01131762EA0090700984139100
B0815414749633N01131833EA0091400992130100
K081541252019
B0815454749562N01131908EA0092101000131010
B0815494749495N01131983EA0093001008133100
B0815534749429N01132062EA0094101016128020
B0815574749362N01132145EA0094901032126010
B0816014749300N01132233EA0095801040131100
K081601244014
B0816054749241N01132325EA0096501048131010
B0816094749183N01132416EA0097401056135010
B0816134749129N01132516EA0098201064137010
B0816174749075N01132616EA0098901072134100
B0816214749025N01132720EA0099801080133100
K081621242004
B0816254748979N01132829EA0100401088131010
B0816294748933N01132941EA0101301096131010
B0816334748891N01133058EA0102201104130010
B0816374748858N01133170EA0103001112127010
B0816414748825N01133291EA0103901120129010
K081641000005
B0816454748800N01133412EA0104801136126010
B0816494748779N01133533EA0105601144126010
B0816534748762N01133654EA0106501152125000
B0816574748754N01133779EA0107401160125010
B0817014748745N01133900EA0107801168124010
K081701354010
B0817054748741N01134025EA0108601176126010
B0817094748741N01134150EA0109101176129100
B0817134748741N01134279EA0109701184135100
B0817174748745N01134404EA0110401192127100
B0817214748750N01134529EA0111101200128100
K081721354022
B0817254748754N01134654EA0112101208128010
B0817294748758N01134775EA0113301224122010
B0817334748762N01134895EA0114101232116100
B0817374748766N01135012EA0114901240120010
B0817414748770N01135129EA0115501248125100
K081741348021
B0817454748779N01135245EA0116301256126010
B0817494748783N01135366EA0116901264132010
B0817534748791N01135483EA0117801272122010
B0817574748800N01135604EA0118501280124010
B0818014748804N01135720EA0119301288128100
K081801354027
B0818054748812N01135837EA0120001296137010
B0818094748820N01135958EA0120701304126100
B0818134748829N01136075EA0121401312134010
B0818174748841N01136191EA0122001312134010
B0818214748854N01136312EA0122401320127010
K081821000034
B0818254748866N01136433EA0123001328128100
B0818294748883N01136554EA0123901336129010
B0818334748900N01136675EA0125001344123010
B0818374748912N01136791EA0125701352125010
B0818414748929N01136908EA0126601360128010
K081841352033
B0818454748941N01137020EA0127101368122010
B0818494748958N01137137EA0128001376124010
B0818534748970N01137254EA0128601384129010
B0818574748979N01137375EA0129301392125010
B0819014748991N01137491EA0130001400124010
K081901350031
B0819054749000N01137608EA0130801408124010
B0819094749008N01137725EA0131501416123010
B0819134749016N01137841EA0132201424124000
B0819174749025N01137958EA0132701424125010
B0819214749033N01138079EA0133301432125000
K081921354027
B0819254749041N01138195EA0134101440124010
B0819294749045N01138316EA0134701448130000
B0819334749050N01138433EA0135501456124010
B0819374749050N01138550EA0136101464123010
B0819414749054N01138666EA0136801472126000
K081941358024
B0819454749054N01138787EA0137301472128000
B0819494749054N01138908EA0137801480127010
B0819534749050N01139029EA0138501488128010
B0819574749045N01139150EA0139101496131010
B0820014749045N01139270EA0139901504127000
K082001004023
B0820054749037N01139391EA0140501512127000
B0820094749025N01139508EA0141301520125000
B0820134749012N01139625EA0142201528124000
B0820174748991N01139737EA0143201536129000
B0820214748970N01139850EA0143601544130010
K082021020011
B0820254748945N01139962EA0144401552126010
B0820294748916N01140070EA0145101560125010
B0820334748887N01140179EA0145701560130010
B0820374748854N01140287EA0146301568125010
B0820414748816N01140391EA0146901576132010
K082041090006
B0820454748775N01140495EA0147401584127010
B0820494748729N01140595EA0148001584130100
B0820534748679N01140687EA0148401592128100
B0820574748625N01140775EA0149301600126010
B0821014748562N01140854EA0149901608125100
K082101196017
B0821054748500N01140925EA0150701616123010
B0821094748433N01140991EA0151301624135100
B0821134748362N01141054EA0151801624126100
B0821174748287N01141100EA0152501632135010
B0821214748212N01141145EA0153101640129100
K082121224035
B0821254748137N01141183EA0153801648139100
B0821294748058N01141212EA0154401656128100
B0821334747975N01141237EA0154901664128100
B0821374747895N01141254EA0155501664148100
B0821414747812N01141262EA0156101672131100
K082141242039
B0821454747729N01141266EA0156901680131100
B0821494747650N01141270EA0157401688137100
B0821534747566N01141270EA0158101696125100
B0821574747483N01141266EA0158601704134020
B0822014747400N01141254EA0159301704133020
K082201248033
B0822054747316N01141237EA0160201712129010
B0822094747237N01141216EA0160801720125010
B0822134747154N01141191EA0161601728141010
B0822174747075N01141162EA0162201736123100
B0822214746995N01141125EA0162801744140010
K082221260029
B0822254746916N01141087EA0163301752132100
B0822294746837N01141050EA0163801752132100
B0822334746758N01141008EA0164701760127100
B0822374746683N01140966EA0165401768125010
B0822414746608N01140920EA0165901776122020
K082241270022
B0822454746529N01140870EA0166501784129010
B0822494746454N01140820EA0167001792125010
B0822534746379N01140762EA0167801800121100
B0822574746308N01140704EA0168701808126010
B0823014746237N01140641EA0169401816125100
K082301286020
B0823054746170N01140579EA0170101824124010
B0823094746104N01140512EA0170901824124010
B0823134746033N01140445EA0171401832138000
B0823174745966N01140375EA0172101840123100
B0823214745904N01140304EA0172601848122010
K082321282018
B0823254745837N01140233EA0173301856133010
B0823294745775N01140154EA0174001864120010
B0823334745716N01140075EA0174501864125010
B0823374745658N01139991EA0175001872124010
B0823414745600N01139904EA0175801880133010
K082341292018
B0823454745541N01139820EA0176401888121010
B0823494745487N01139729EA0177001896126010
B0823534745429N01139645EA0177501896123100
B0823574745370N01139554EA0177901904121010
B0824014745312N01139466EA0178601912118100
K082401302015
B0824054745258N01139379EA0179301920116100
B0824094745200N01139295EA0180101928133010
B0824134745141N01139212EA0180901936113000
B0824174745083N01139133EA0181301944115010
B0824214745025N01139050EA0181801944120010
K082421310007
B0824254744966N01138966EA0182301952116010
B0824294744908N01138879EA0182901960115010
B0824334744854N01138791EA0183601968119010
B0824374744804N01138695EA0184101968114010
B0824414744754N01138600EA0184501976121100
K082441328012
B0824454744708N01138495EA0185101984115010
B0824494744666N01138391EA0185601992121100
B0824534744625N01138283EA0186101992116100
B0824574744591N01138170EA0186902000120100
B0825014744562N01138054EA0187402008129010
K082501338016
B0825054744537N01137933EA0188002016115100
B0825094744520N01137816EA0188602024125100
B0825134744508N01137695EA0189502032115100
B0825174744504N01137575EA0190102032130010
B0825214744508N01137458EA0191002048111010
K082521348015
B0825254744512N01137345EA0191602056113010
B0825294744525N01137229EA0192102056111010
B0825334744545N01137120EA0192502064114010
B0825374744570N01137008EA0192902064117010
B0825414744604N01136904EA0193502072114100
K082541008015
B0825454744645N01136804EA0194002080129100
B0825494744691N01136716EA0194802088113010
B0825534744745N01136633EA0195302088113100
B0825574744804N01136558EA0195902096112010
B0826014744866N01136491EA0196402104115010
K082601014008
B0826054744933N01136437EA0197002112115010
B0826094745004N01136383EA0197602112114000
B0826134745070N01136337EA0198002120115010
B0826174745141N01136291EA0198602128118100
B0826214745212N01136254EA0199302136121100
K082621288003
B0826254745283N01136216EA0199902136111010
B0826294745350N01136179EA0200202144111000
B0826334745420N01136145EA0200902152115010
B0826374745491N01136112EA0201302152111010
B0826414745562N01136079EA0201702160112000
K082641278006
B0826454745633N01136041EA0202202168114000
B0826494745704N01136008EA0202702168114010
B0826534745775N01135970EA0203102176112010
B0826574745845N01135937EA0203502184123000
B0827014745916N01135900EA0204302184112010
K082701276008
B0827054745987N01135862EA0204602192110010
B0827094746058N01135820EA0205002200115010
B0827134746129N01135783EA0205602200114010
B0827174746200N01135741EA0205902208124010
B0827214746270N01135700EA0206302208114000
K082721286007
B0827254746345N01135658EA0206602216117000
B0827294746416N01135612EA0207302216117000
B0827334746487N01135570EA0207802224114000
B0827374746558N01135525EA0208302232113000
B0827414746629N01135479EA0208902240112000
K082741288006
B0827454746700N01135433EA0209302240112010
B0827494746766N01135391EA0209702248112000
B0827534746837N01135345EA0210102248119010
B0827574746904N01135295EA0210702256115010
B0828014746975N01135237EA0211002256116000
K082801296004
B0828054747037N01135179EA0211402264114000
B0828094747100N01135108EA0212102272114000
B0828134747162N01135033EA0212502272116000
B0828174747216N01134950EA0213002280115000
B0828214747266N01134858EA0213602288117000
K082821034007
B0828254747308N01134758EA0214102288117000
B0828294747345N01134650EA0214502296115000
B0828334747375N01134537EA0215302304113000
B0828374747395N01134429EA0215402304104000
B0828414747416N01134329EA0215902312101000
K082841042013
B0828454747433N01134229EA0215402304103000
B0828494747437N01134120EA0214802304104000
B0828534747420N01134016EA0214202296107000
B0828574747383N01133920EA0213802288107000
B0829014747320N01133850EA0213202288106000
K082901042013
B0829054747250N01133808EA0212902280106000
B0829094747175N01133795EA0212402272107000
B0829134747100N01133800EA0211802272108000
B0829174747025N01133808EA0211302264109000
B0829214746945N01133820EA0210602256111000
K082921042013
B0829254746866N01133820EA0210202248111000
B0829294746787N01133808EA0209902248108000
B0829334746712N01133779EA0209502248111000
B0829374746637N01133737EA0208902240113000
B0829414746562N01133691EA0208702232110000
K082941306015
B0829454746491N01133645EA0208502232109000
B0829494746416N01133604EA0208102232110000
B0829534746345N01133570EA0207702224109000
B0829574746270N01133537EA0207502224108000
B0830014746195N01133504EA0206702216112000
K083001344007
B0830054746116N01133462EA0206102208115000
B0830094746041N01133416EA0205802200114000
B0830134745966N01133370EA0205702200112000
B0830174745895N01133320EA0205202200112000
B0830214745820N01133258EA0202902184132000
K083021314015
B0830254745750N01133170EA0197502120167000
B0830294745670N01133037EA0192402064194000
B0830334745604N01132858EA0187402008216000
B0830374745566N01132641EA0185501976217000
B0830414745529N01132437EA0190102024186000
K083041322011
B0830454745475N01132283EA0194902080151000
B0830494745416N01132166EA0198402120121000
B0830534745366N01132075EA0200002144104000
B0830574745312N01132004EA0199902144101000
B0831014745254N01131937EA0199302136104000
K083101098014
B0831054745191N01131866EA0198802128104000
B0831094745133N01131804EA0198602128103000
B0831134745066N01131745EA0198602128104000
B0831174745004N01131691EA0197802112110000
B0831214744929N01131637EA0196502104112000
K083121074011
B0831254744854N01131587EA0196002104114000
B0831294744779N01131541EA0195802096113000
B0831334744700N01131495EA0195602096112000
B0831374744625N01131450EA0195402096112000
B0831414744550N01131404EA0195002088113000
K083141000010
B0831454744470N01131362EA0194802088113000
B0831494744395N01131320EA0194502088113000
B0831534744316N01131283EA0194102080113000
B0831574744237N01131241EA0193702080114000
B0832014744162N01131195EA0193402072113000
K083201334014
B0832054744083N01131154EA0193102072112000
B0832094744008N01131112EA0192802064113000
B0832134743929N01131070EA0192402064113000
B0832174743850N01131025EA0192002056113000
B0832214743775N01130983EA0191702056113000
K083221328018
B0832254743695N01130933EA0191402048112000
B0832294743620N01130887EA0190902048114000
B0832334743541N01130833EA0190402040115000
B0832374743466N01130783EA0190202040114000
B0832414743387N01130737EA0190002040114000
K083241330019
B0832454743312N01130691EA0189802032114000
B0832494743233N01130645EA0189302032115000
B0832534743154N01130600EA0189102024114000
B0832574743075N01130554EA0188902024113000
B0833014743000N01130508EA0188602024114000
K083301328017
B0833054742920N01130466EA0188402024114000
B0833094742845N01130420EA0188002016116000
B0833134742766N01130375EA0187402008118000
B0833174742683N01130333EA0186902000121000
B0833214742604N01130291EA0186402000122000
K083321330016
B0833254742520N01130250EA0186001992122000
B0833294742437N01130208EA0185701992121000
B0833334742354N01130166EA0185601992120000
B0833374742275N01130120EA0185201984121000
B0833414742195N01130075EA0184701984121000
K083341322016
B0833454742116N01130029EA0184201976122000
B0833494742033N01129983EA0184101976120000
B0833534741958N01129937EA0183901976120000
B0833574741879N01129891EA0183601968119000
B0834014741800N01129850EA0183501968117000
K083401324013
B0834054741725N01129804EA0183201968116000
B0834094741650N01129762EA0182701960117000
B0834134741575N01129716EA0182401960118000
B0834174741500N01129670EA0182101952117000
B0834214741425N01129620EA0182001952116000
K083421320014
B0834254741350N01129566EA0181601944117000
B0834294741279N01129520EA0181301944115000
B0834334741208N01129470EA0181101944115000
B0834374741133N01129425EA0180901944115000
B0834414741062N01129379EA0180601936115000
K083441314012
B0834454740991N01129333EA0180401936114000
B0834494740916N01129283EA0180101928114000
B0834534740845N01129237EA0179601928115000
B0834574740775N01129187EA0179201920115000
B0835014740700N01129137EA0178901920114000
K083501312013
B0835054740629N01129087EA0178601912114000
B0835094740558N01129045EA0178601912110000
B0835134740487N01129004EA0178401912112000
B0835174740416N01128962EA0178001912113000
B0835214740341N01128920EA0178501912106000
K083521318010
B0835254740275N01128879EA0177801912111000
B0835294740204N01128837EA0178101912107000
B0835334740141N01128795EA0178401912103000
B0835374740075N01128754EA0178001912101000
B0835414740012N01128716EA0177301904103000
K083541314011
B0835454739950N01128675EA0176301888106000
B0835494739879N01128637EA0175801888107000
B0835534739816N01128595EA0175601888104000
B0835574739750N01128558EA0175501880100000
B0836014739683N01128533EA0174701880103000
K083601314007
B0836054739612N01128508EA0174101872104000
B0836094739545N01128487EA0173801864103000
B0836134739475N01128470EA0173501864100000
B0836174739404N01128470EA0172801856105000
B0836214739333N01128483EA0172601856107000
K083621052005
B0836254739262N01128500EA0172901856101000
B0836294739191N01128491EA0173401864097000
B0836334739133N01128441EA0173801864102000
B0836374739112N01128341EA0174401872096000
B0836414739145N01128254EA0174201872100000
K083641044004
B0836454739220N01128245EA0173401856117000
B0836494739262N01128333EA0174701872093000
B0836534739266N01128420EA0174901880088000
B0836574739225N01128495EA0173801864101000
B0837014739158N01128504EA0173801864104000
K083701044004
B0837054739108N01128433EA0174801872091000
B0837094739087N01128345EA0174901880091000
B0837134739112N01128254EA0173801864100000
B0837174739179N01128208EA0173301864102000
B0837214739245N01128250EA0174201864100000
K083721184004
B0837254739270N01128333EA0174701880088000
B0837294739262N01128420EA0174101872095000
B0837334739245N01128520EA0174401872092000
B0837374739233N01128612EA0174601872092000
B0837414739216N01128704EA0174101864096000
K083741180004
B0837454739204N01128800EA0174601872094010
B0837494739191N01128887EA0175101880091000
B0837534739191N01128975EA0175201880092000
B0837574739187N01129070EA0175001880092000
B0838014739191N01129166EA0175001880097000
K083801180004
B0838054739191N01129266EA0175501880100000
B0838094739150N01129337EA0176001888098000
B0838134739087N01129337EA0175401880099000
B0838174739045N01129254EA0174701872104000
B0838214739058N01129150EA0175601880095000
K083821176003
B0838254739104N01129091EA0175201880097000
B0838294739170N01129095EA0174201864107000
B0838334739233N01129154EA0175301880095000
B0838374739275N01129225EA0175301880092000
B0838414739279N01129316EA0173301864103000
K083841176003
B0838454739220N01129383EA0171401840114000
B0838494739150N01129333EA0171501840114000
B0838534739141N01129220EA0172801856107000
B0838574739154N01129120EA0174301872096000
B0839014739195N01129041EA0174201872101000
K083901076006
B0839054739258N01129041EA0173801864099000
B0839094739295N01129120EA0172801856100000
B0839134739275N01129216EA0172101848099000
B0839174739212N01129266EA0171701840100000
B0839214739145N01129283EA0172901856094000
K083921052004
B0839254739083N01129287EA0172901856097000
B0839294739029N01129237EA0172501848102000
B0839334739008N01129141EA0172301848103000
B0839374739033N01129045EA0172101848098000
B0839414739066N01128962EA0172301848096000
K083941314000
B0839454739100N01128870EA0172101848100000
B0839494739129N01128775EA0171901848105000
B0839534739154N01128679EA0172101848103000
B0839574739170N01128579EA0172601856100000
B0840014739187N01128479EA0173201864097000
K084001034007
B0840054739162N01128391EA0172901856107000
B0840094739095N01128375EA0173001856102000
B0840134739054N01128445EA0173901864097000
B0840174739075N01128533EA0173601864103000
B0840214739145N01128554EA0173601864108000
K084021090001
B0840254739200N01128483EA0174701872096000
B0840294739200N01128391EA0174601880104000
B0840334739145N01128329EA0174201872111000
B0840374739079N01128366EA0175201872105000
B0840414739066N01128458EA0175501888103000
K084041098002
B0840454739120N01128520EA0175501880108000
B0840494739187N01128487EA0176901888096000
B0840534739204N01128395EA0176801896097000
B0840574739154N01128325EA0176001888110000
B0841014739087N01128345EA0177201896102000
K084101170003
B0841054739066N01128433EA0177901904099000
B0841094739108N01128512EA0177301896103000
B0841134739175N01128520EA0178201896099000
B0841174739220N01128454EA0179201912095000
B0841214739212N01128362EA0178401904102000
K084121222001
B0841254739158N01128308EA0178101904103000
B0841294739095N01128350EA0178701904097000
B0841334739079N01128433EA0178801912100000
B0841374739108N01128520EA0178701904104000
B0841414739175N01128541EA0179101912104000
K084141150004
B0841454739225N01128475EA0179301920101000
B0841494739220N01128375EA0179301912100000
B0841534739170N01128308EA0179201912103000
B0841574739104N01128320EA0179301912099000
B0842014739070N01128400EA0179801920095000
K084201102003
B0842054739087N01128487EA0179401920098000
B0842094739137N01128550EA0179501920106000
B0842134739208N01128541EA0180101928099000
B0842174739254N01128475EA0180401928103000
B0842214739241N01128375EA0180401928097000
K084221086002
B0842254739183N01128329EA0180001928099000
B0842294739125N01128375EA0179701920104000
B0842334739108N01128466EA0181001936092000
B0842374739137N01128545EA0181201936102000
B0842414739204N01128562EA0181501936098000
K084241064003
B0842454739241N01128487EA0180801936095000
B0842494739229N01128391EA0180401928097000
B0842534739175N01128337EA0180801936091000
B0842574739112N01128354EA0180201928101000
B0843014739083N01128437EA0180201928095000
K084301070002
B0843054739083N01128525EA0180601936088000
B0843094739104N01128608EA0180401928097000
B0843134739166N01128645EA0179401920107000
B0843174739225N01128595EA0180401928102000
B0843214739250N01128504EA0181001936092000
K084321092005
B0843254739250N01128408EA0181201944094000
B0843294739245N01128312EA0181001936090000
B0843334739241N01128220EA0180201928093000
B0843374739237N01128120EA0179701920103000
B0843414739220N01128020EA0180401928100000
K084341096007
B0843454739204N01127929EA0181301936095000
B0843494739225N01127837EA0180701936103000
B0843534739295N01127820EA0179701920108000
B0843574739333N01127904EA0179801920101000
B0844014739312N01127991EA0179901928089000
K084401096007
B0844054739258N01128033EA0178901912106000
B0844094739191N01128012EA0180201928097000
B0844134739137N01127970EA0181801944098000
B0844174739129N01127879EA0181501944102000
B0844214739187N01127816EA0180101928111000
K084421248006
B0844254739254N01127866EA0180401928098000
B0844294739258N01127962EA0180901936097000
B0844334739229N01128045EA0181801944101000
B0844374739187N01128116EA0182801952099000
B0844414739129N01128120EA0181901952105000
K084441212007
B0844454739087N01128029EA0181701936114000
B0844494739125N01127937EA0184401968092000
B0844534739191N01127941EA0184301976110000
B0844574739225N01128037EA0184601968108000
B0845014739187N01128112EA0186101992095000
K084501148010
B0845054739129N01128104EA0185601984100000
B0845094739091N01128012EA0185501984107000
B0845134739116N01127908EA0187902008092000
B0845174739183N01127883EA0188302016101000
B0845214739233N01127954EA0187802008106000
K084521158005
B0845254739220N01128054EA0189602024089000
B0845294739166N01128091EA0190402040090000
B0845334739112N01128045EA0189502032107000
B0845374739091N01127941EA0191002040099000
B0845414739120N01127854EA0191702056094000
K084541148004
B0845454739187N01127833EA0191302048102000
B0845494739237N01127904EA0191702048096000
B0845534739241N01127995EA0193502072092000
B0845574739195N01128050EA0192702064103000
B0846014739133N01128020EA0193002064101000
K084601148009
B0846054739095N01127941EA0194802080085000
B0846094739104N01127845EA0194602080098000
B0846134739158N01127787EA0194002072104000
B0846174739229N01127812EA0195102088098000
B0846214739270N01127879EA0196802104084000
K084621156008
B0846254739270N01127962EA0196402104101000
B0846294739216N01128008EA0196002096104000
B0846334739158N01127958EA0197702112095000
B0846374739145N01127866EA0198902128094000
B0846414739191N01127795EA0197702120111000
K084641128009
B0846454739266N01127808EA0199002128109000
B0846494739295N01127891EA0200702144095000
B0846534739270N01127966EA0200502144099000
B0846574739208N01127979EA0200602144106000
B0847014739154N01127916EA0202202160095000
K084701154006
B0847054739162N01127816EA0202702168098000
B0847094739220N01127762EA0202402168110000
B0847134739283N01127804EA0204202184090000
B0847174739300N01127887EA0204702192097000
B0847214739258N01127950EA0204402192101000
K084721130007
B0847254739195N01127933EA0205002192100000
B0847294739154N01127854EA0206902216085000
B0847334739154N01127758EA0206402208095000
B0847374739208N01127691EA0205702200103000
B0847414739279N01127695EA0206302208095000
K084741128009
B0847454739337N01127741EA0207402224087000
B0847494739375N01127812EA0206902216095000
B0847534739379N01127908EA0206802208096000
B0847574739354N01127991EA0207602224090000
B0848014739316N01128058EA0207802224087000
K084801152005
B0848054739270N01128116EA0206402216097000
B0848094739225N01128187EA0205702200107000
B0848134739175N01128262EA0207102216103000
B0848174739133N01128341EA0208502232093000
B0848214739095N01128412EA0208702232103000
K084821148006
B0848254739045N01128479EA0209902248095000
B0848294738983N01128491EA0210902256092000
B0848334738933N01128437EA0210302248099000
B0848374738929N01128345EA0209402240096000
B0848414738975N01128279EA0208902240100000
K084841148006
B0848454739037N01128270EA0209102240096000
B0848494739095N01128316EA0209902248088000
B0848534739137N01128387EA0210402248096000
B0848574739166N01128475EA0211102256089000
B0849014739175N01128570EA0210602256104000
K084901148006
B0849054739145N01128662EA0210902256098000
B0849094739091N01128716EA0212402272088000
B0849134739033N01128758EA0212902280093000
B0849174738970N01128800EA0213302280094000
B0849214738904N01128829EA0213902288088000
K084921154004
B0849254738841N01128845EA0213102280097000
B0849294738766N01128862EA0211902264107000
B0849334738687N01128883EA0211402264108000
B0849374738608N01128908EA0210802256110000
B0849414738529N01128925EA0210102248114000
K084941252006
B0849454738445N01128945EA0209502248111000
B0849494738362N01128970EA0207702224124000
B0849534738275N01129004EA0206102208130000
B0849574738183N01129041EA0205102200130000
B0850014738091N01129083EA0204302192132000
K085001280015
B0850054737995N01129129EA0203502176134000
B0850094737900N01129175EA0203202176137000
B0850134737804N01129208EA0203502176132000
B0850174737712N01129220EA0204302184123000
B0850214737625N01129208EA0204302192117000
K085021280020
B0850254737537N01129187EA0203702184118000
B0850294737454N01129154EA0202802176123000
B0850334737366N01129116EA0202002168126000
B0850374737279N01129075EA0201202160128000
B0850414737187N01129029EA0200402152131000
K085041296038
B0850454737100N01128979EA0199302136135000
B0850494737008N01128925EA0198102120139000
B0850534736916N01128866EA0197702120141000
B0850574736825N01128800EA0197202112141000
B0851014736733N01128737EA0196702104144000
K085101306037
B0851054736641N01128670EA0196402104142000
B0851094736554N01128604EA0195802096141000
B0851134736462N01128541EA0195002088143000
B0851174736370N01128475EA0194302080144000
B0851214736279N01128412EA0193502072146000
K085121312025
B0851254736187N01128350EA0193102064146000
B0851294736091N01128291EA0192702064144000
B0851334736000N01128229EA0192202064143000
B0851374735908N01128162EA0191702056143000
B0851414735816N01128104EA0191402048142000
K085141314024
B0851454735725N01128041EA0191002048142000
B0851494735633N01127983EA0190402040145000
B0851534735537N01127925EA0190002040144000
B0851574735445N01127862EA0189502032143000
B0852014735358N01127800EA0189102024143000
K085201312024
B0852054735266N01127737EA0189102024140000
B0852094735175N01127679EA0188902024138000
B0852134735087N01127625EA0188702024136000
B0852174735004N01127570EA0188502024134000
B0852214734916N01127508EA0188202016133000
K085221314022
B0852254734837N01127445EA0188002016132000
B0852294734754N01127387EA0187802016131000
B0852334734670N01127329EA0187602016129000
B0852374734591N01127270EA0187102008127000
B0852414734508N01127212EA0186602000128000
K085241314021
B0852454734429N01127150EA0186001992130000
B0852494734350N01127091EA0185201992133000
B0852534734266N01127029EA0184501984134000
B0852574734179N01126970EA0184001976132000
B0853014734091N01126916EA0183801976133000
K085301314021
B0853054734008N01126862EA0183601976131000
B0853094733925N01126808EA0183501968128000
B0853134733841N01126754EA0183001968126000
B0853174733758N01126704EA0181901952133000
B0853214733675N01126654EA0180901944134000
K085321312021
B0853254733587N01126595EA0180101936134000
B0853294733504N01126537EA0178901920138000
B0853334733416N01126470EA0177601912141000
B0853374733329N01126404EA0176901904142000
B0853414733241N01126341EA0176501896140000
K085341308028
B0853454733154N01126275EA0176001896139000
B0853494733062N01126212EA0175701888141000
B0853534732975N01126150EA0175301880143000
B0853574732883N01126079EA0174601880143000
B0854014732795N01126012EA0174401872142000
K085401314025
B0854054732708N01125945EA0174301872139000
B0854094732620N01125883EA0174101872138000
B0854134732533N01125820EA0173501864138000
B0854174732445N01125754EA0172601856139000
B0854214732362N01125687EA0172401856135000
K085421318022
B0854254732275N01125625EA0172301856133000
B0854294732191N01125562EA0171901848133000
B0854334732112N01125500EA0171801848133000
B0854374732029N01125441EA0171501848130000
B0854414731945N01125379EA0171201840128000
K085441324018
B0854454731866N01125320EA0171001840125000
B0854494731783N01125266EA0170801840130000
B0854534731704N01125212EA0170001832127000
B0854574731620N01125154EA0170301832128000
B0855014731541N01125091EA0170401832124000
K085501320021
B0855054731470N01125025EA0170501832123000
B0855094731400N01124958EA0170701840121000
B0855134731329N01124887EA0170901840117000
B0855174731262N01124825EA0171201840111000
B0855214731200N01124762EA0171501848105000
K085521322020
B0855254731137N01124708EA0171401848106000
B0855294731079N01124650EA0171101840104000
B0855334731016N01124591EA0170901840106000
B0855374730954N01124537EA0170901840106000
B0855414730891N01124483EA0170401832107000
K085541322016
B0855454730829N01124425EA0170401832109000
B0855494730775N01124350EA0170601840108000
B0855534730725N01124275EA0170501832102000
B0855574730675N01124195EA0170401832113000
B0856014730620N01124112EA0170301832107000
K085601320021
B0856054730566N01124041EA0170701840103000
B0856094730508N01123979EA0171101840108000
B0856134730445N01123916EA0172201856102000
B0856174730395N01123845EA0172501856102000
B0856214730337N01123775EA0172301856106000
K085621332013
B0856254730291N01123687EA0173401864110000
B0856294730266N01123591EA0174001872093000
B0856334730245N01123504EA0173601872092000
B0856374730200N01123429EA0172401856102000
B0856414730150N01123358EA0172601856092000
K085641336012
B0856454730095N01123287EA0172301856096000
B0856494730045N01123216EA0171001840099000
B0856534729975N01123170EA0169301824110000
B0856574729895N01123204EA0169001816110000
B0857014729829N01123245EA0169101824097000
K085701332013
B0857054729766N01123295EA0168301816098000
B0857094729737N01123391EA0166101800114000
B0857134729770N01123495EA0162901752136000
B0857174729837N01123583EA0162701744130000
B0857214729912N01123645EA0163501760122000
K085721332013
B0857254729983N01123695EA0164101768117000
B0857294730058N01123741EA0164401768113000
B0857334730129N01123779EA0164601768117000
B0857374730195N01123829EA0164801776113000
B0857414730258N01123883EA0165201776113000
K085741324013
B0857454730320N01123941EA0165301776112000
B0857494730387N01123991EA0166001784111000
B0857534730450N01124041EA0167801808095000
B0857574730458N01124129EA0166801800102000
B0858014730400N01124191EA0164801776118000
K085801354009
B0858054730329N01124150EA0165501776102000
B0858094730300N01124054EA0165901784098000
B0858134730287N01123950EA0165801784100000
B0858174730266N01123850EA0165901784104000
B0858214730237N01123754EA0167301800098000
K085821354009
B0858254730179N01123729EA0166401792099000
B0858294730133N01123808EA0164301768117000
B0858334730162N01123916EA0165801784111000
B0858374730216N01123970EA0166601792101000
B0858414730283N01123995EA0166401792097000
K085841354009
B0858454730354N01124000EA0166301792097000
B0858494730420N01124004EA0166401792101000
B0858534730491N01124025EA0166801792102000
B0858574730554N01124066EA0167401800097000
B0859014730600N01124133EA0167501800097000
K085901354009
B0859054730637N01124216EA0166801800100000
B0859094730675N01124304EA0166701792111000
B0859134730725N01124379EA0167801800111000
B0859174730787N01124400EA0168601808096000
B0859214730845N01124437EA0168901816092000
K085921354009
B0859254730866N01124525EA0167801808100000
B0859294730825N01124612EA0165901784110000
B0859334730745N01124604EA0165501776106000
B0859374730695N01124520EA0166801792094000
B0859414730675N01124416EA0167701800093000
K085941354009
B0859454730654N01124320EA0167201800099000
B0859494730625N01124216EA0167101800110000
B0859534730600N01124120EA0168001808096000
B0859574730566N01124041EA0168501816091000
B0900014730500N01124025EA0167701808100000
K090001354009
B0900054730458N01124100EA0166801792107000
B0900094730483N01124187EA0167101800095000
B0900134730541N01124233EA0167501800102000
B0900174730600N01124266EA0167601808092000
B0900214730658N01124312EA0167901808101000
K090021354009
B0900254730712N01124370EA0169401824105000
B0900294730770N01124383EA0170201832098000
B0900334730808N01124316EA0168901816104000
B0900374730783N01124216EA0168301808101000
B0900414730725N01124154EA0169201816097000
K090041354009
B0900454730662N01124137EA0169401824096000
B0900494730612N01124204EA0168201816104000
B0900534730620N01124312EA0167501792111000
B0900574730687N01124366EA0169401808109000
B0901014730745N01124333EA0171601840091000
K090101010004
B0901054730750N01124245EA0170501832099000
B0901094730708N01124162EA0169901824109000
B0901134730633N01124162EA0170601832101000
B0901174730604N01124258EA0169501824112000
B0901214730641N01124354EA0170101824114000
K090121276004
B0901254730708N01124362EA0172501848100000
B0901294730745N01124295EA0172501856093000
B0901334730725N01124204EA0170901832105000
B0901374730654N01124162EA0171101840106000
B0901414730600N01124229EA0171201840099000
K090141306005
B0901454730600N01124337EA0170901832110000
B0901494730641N01124416EA0171701840108000
B0901534730708N01124391EA0172101840114000
B0901574730729N01124291EA0172901856099000
B0902014730675N01124229EA0172701856104000
K090201010004
B0902054730612N01124283EA0172401848098000
B0902094730612N01124395EA0172401848117000
B0902134730670N01124450EA0174501872099000
B0902174730733N01124420EA0174701872102000
B0902214730750N01124320EA0174501872104000
K090221258003
B0902254730704N01124241EA0175301872106000
B0902294730637N01124254EA0175901888097000
B0902334730604N01124345EA0175101872116000
B0902374730641N01124441EA0175801880109000
B0902414730708N01124454EA0177401896103000
K090241326001
B0902454730750N01124383EA0177301904101000
B0902494730725N01124287EA0176901896102000
B0902534730658N01124254EA0176901896105000
B0902574730600N01124316EA0176801896103000
B0903014730600N01124416EA0176601888107000
K090301322003
B0903054730645N01124500EA0176901896107000
B0903094730712N01124508EA0177301896102000
B0903134730762N01124441EA0177601904104000
B0903174730758N01124341EA0177101896104000
B0903214730720N01124254EA0177201896098000
K090321348004
B0903254730675N01124179EA0177501904096000
B0903294730620N01124112EA0177101896102000
B0903334730566N01124041EA0176701896104000
B0903374730516N01123966EA0176501888108000
B0903414730466N01123891EA0176801896107000
K090341352004
B0903454730416N01123808EA0177101896101000
B0903494730375N01123729EA0177301904095000
B0903534730312N01123687EA0177001896096000
B0903574730262N01123612EA0175901888103000
B0904014730233N01123516EA0175901888098000
K090401352004
B0904054730204N01123429EA0175601888096000
B0904094730162N01123345EA0175001880097000
B0904134730116N01123262EA0174901880099000
B0904174730070N01123175EA0174801872113000
B0904214730029N01123087EA0176701896099000
K090421336007
B0904254729975N01123033EA0177301904090000
B0904294729912N01123054EA0176101896109000
B0904334729891N01123154EA0176101888101000
B0904374729937N01123220EA0176001888093000
B0904414730000N01123233EA0175301880096000
K090441354005
B0904454730058N01123270EA0175101880101000
B0904494730116N01123312EA0175101880093000
B0904534730166N01123375EA0174301872107000
B0904574730212N01123454EA0174501880101000
B0905014730245N01123533EA0174801880097000
K090501354005
B0905054730279N01123612EA0174501880095000
B0905094730316N01123687EA0173901872100000
B0905134730354N01123766EA0173601864098000
B0905174730408N01123833EA0173601864101000
B0905214730470N01123887EA0174301872098000
K090521338008
B0905254730525N01123937EA0175501888094000
B0905294730583N01123987EA0175201888101000
B0905334730633N01124050EA0175301880098000
B0905374730679N01124120EA0175101880099000
B0905414730720N01124200EA0174801880097000
K090541322010
B0905454730737N01124291EA0174401880095000
B0905494730704N01124379EA0173001864117000
B0905534730625N01124362EA0172201848126000
B0905574730583N01124258EA0174201872108000
B0906014730562N01124166EA0175401888093000
K090601322010
B0906054730537N01124075EA0175701896099000
B0906094730500N01123995EA0175601888092000
B0906134730458N01123916EA0175901896099000
B0906174730416N01123841EA0176501904096000
B0906214730379N01123758EA0177001904099000
K090621326014
B0906254730345N01123675EA0176901904092000
B0906294730308N01123591EA0176101896093000
B0906334730270N01123512EA0175901896095000
B0906374730229N01123437EA0175701896091000
B0906414730183N01123366EA0175301888092000
K090641344017
B0906454730137N01123295EA0175101888085000
B0906494730091N01123216EA0174101880097000
B0906534730037N01123133EA0174001872113000
B0906574729987N01123062EA0176101896089000
B0907014729925N01123070EA0175101888100000
K090701344017
B0907054729887N01123158EA0173201864108000
B0907094729904N01123262EA0174001872100000
B0907134729950N01123320EA0174201880092000
B0907174730004N01123337EA0173001864086000
B0907214730062N01123366EA0171301840115000
K090721344017
B0907254730129N01123408EA0171901848102000
B0907294730183N01123445EA0171401848102000
B0907334730237N01123504EA0170801840103000
B0907374730258N01123604EA0170101832107000
B0907414730270N01123712EA0169401824112000
K090741344017
B0907454730312N01123804EA0170401832113000
B0907494730366N01123866EA0172701856101000
B0907534730429N01123879EA0174001872094000
B0907574730470N01123812EA0172701864100000
B0908014730454N01123716EA0171601848102000
K090801344017
B0908054730400N01123650EA0172201856093000
B0908094730345N01123608EA0172001856092000
B0908134730279N01123595EA0171201840094000
B0908174730220N01123654EA0169901832104000
B0908214730212N01123754EA0169501824108000
K090821344017
B0908254730254N01123833EA0171001840097000
B0908294730312N01123870EA0172601856093000
B0908334730370N01123891EA0173601872096000
B0908374730425N01123850EA0173801872095000
B0908414730429N01123754EA0172801864097000
K090841328005
B0908454730387N01123679EA0172601856095000
B0908494730325N01123637EA0172601856092000
B0908534730262N01123670EA0171201840115000
B0908574730254N01123775EA0172101848107000
B0909014730279N01123858EA0175301880082000
K090901230001
B0909054730316N01123912EA0174801880099000
B0909094730383N01123920EA0173801864114000
B0909134730425N01123833EA0174901872103000
B0909174730387N01123750EA0175601888089000
B0909214730329N01123725EA0175001880104000
K090921080009
B0909254730279N01123800EA0175201880105000
B0909294730300N01123887EA0176501896096000
B0909334730362N01123912EA0176501896103000
B0909374730408N01123841EA0176101888115000
B0909414730391N01123745EA0177301896087000
K090941070003
B0909454730333N01123712EA0176701896106000
B0909494730279N01123775EA0176001880120000
B0909534730295N01123875EA0178301904094000
B0909574730350N01123912EA0178301904104000
B0910014730400N01123841EA0177501896114000
K091001068001
B0910054730383N01123741EA0178701904095000
B0910094730316N01123720EA0178401896111000
B0910134730279N01123808EA0179201904103000
B0910174730316N01123883EA0180201920099000
B0910214730383N01123870EA0179701912115000
K091021018005
B0910254730404N01123766EA0180001912102000
B0910294730362N01123691EA0179601912093000
B0910334730291N01123683EA0178001896110000
B0910374730245N01123770EA0178701896114000
B0910414730245N01123870EA0180801928097000
K091041038004
B0910454730295N01123925EA0180901928100000
B0910494730358N01123883EA0180701920108000
B0910534730358N01123779EA0181101920113000
B0910574730287N01123741EA0182001928099000
B0911014730245N01123816EA0181701928101000
K091101352008
B0911054730266N01123908EA0182201936098000
B0911094730329N01123937EA0182801936102000
B0911134730375N01123870EA0183001936111000
B0911174730366N01123770EA0184501952094000
B0911214730312N01123725EA0184701960100000
K091121048008
B0911254730250N01123766EA0184501952101000
B0911294730241N01123866EA0185001960103000
B0911334730287N01123929EA0185501968100000
B0911374730350N01123912EA0186201968106000
B0911414730379N01123825EA0186901984086000
K091141056003
B0911454730341N01123745EA0186801976102000
B0911494730275N01123750EA0187501984094000
B0911534730237N01123825EA0187901992097000
B0911574730254N01123912EA0187401984105000
B0912014730316N01123945EA0188001984108000
K091201032004
B0912054730366N01123883EA0189502008096000
B0912094730370N01123791EA0189302008106000
B0912134730316N01123716EA0189602008110000
B0912174730250N01123737EA0191502024095000
B0912214730229N01123825EA0191302032103000
K091221336002
B0912254730266N01123904EA0191102024109000
B0912294730329N01123895EA0192502040096000
B0912334730358N01123812EA0192702048100000
B0912374730329N01123720EA0192502032107000
B0912414730258N01123704EA0193402048100000
K091241002008
B0912454730212N01123775EA0194302056096000
B0912494730225N01123866EA0193702056100000
B0912534730287N01123904EA0194002048111000
B0912574730337N01123841EA0194802064101000
B0913014730329N01123741EA0195902080101000
K091301004010
B0913054730308N01123645EA0197102088097000
B0913094730283N01123550EA0197502096096000
B0913134730250N01123462EA0196602088101000
B0913174730204N01123383EA0196102088101000
B0913214730150N01123312EA0195702080103000
K091321020010
B0913254730095N01123237EA0195602080101000
B0913294730050N01123162EA0195402080092000
B0913334730000N01123087EA0194702072102000
B0913374729945N01123008EA0194602072104000
B0913414729900N01122925EA0195102080101000
K091341346017
B0913454729858N01122841EA0195002080101000
B0913494729829N01122754EA0194802072097000
B0913534729800N01122658EA0194402072103000
B0913574729779N01122562EA0194402072101000
B0914014729758N01122462EA0194302072099000
K091401340027
B0914054729725N01122366EA0194402072100000
B0914094729679N01122287EA0194402072096000
B0914134729616N01122245EA0194602072097000
B0914174729550N01122208EA0195202080098000
B0914214729495N01122150EA0195802088100000
K091421340027
B0914254729475N01122054EA0197102104094000
B0914294729508N01121970EA0197102104097000
B0914334729575N01121958EA0196102096108000
B0914374729625N01122029EA0197202104089000
B0914414729645N01122104EA0197502112085000
K091441340027
B0914454729650N01122195EA0196302096105000
B0914494729608N01122283EA0197102104099000
B0914534729541N01122287EA0197702112089000
B0914574729487N01122225EA0197402112109000
B0915014729483N01122108EA0199402128099000
K091501316003
B0915054729516N01122033EA0201302152092000
B0915094729579N01122033EA0200502144101000
B0915134729625N01122108EA0199802136100000
B0915174729608N01122208EA0200202144103000
B0915214729545N01122241EA0200802152091000
K091521014006
B0915254729483N01122195EA0201102152102000
B0915294729433N01122116EA0203902184095000
B0915334729437N01122020EA0204102184098000
B0915374729500N01121979EA0203002168116000
B0915414729566N01122033EA0203902184097000
K091541344006
B0915454729566N01122129EA0204702192102000
B0915494729516N01122195EA0205502200107000
B0915534729445N01122200EA0207002216095000
B0915574729404N01122120EA0206802216106000
B0916014729425N01122012EA0207402216110000
K091601236003
B0916054729491N01121975EA0209502240098000
B0916094729541N01122037EA0209502248100000
B0916134729533N01122141EA0208902232118000
B0916174729462N01122187EA0211502256099000
B0916214729404N01122133EA0212802280097000
K091621068006
B0916254729391N01122025EA0212502272116000
B0916294729454N01121954EA0214202288103000
B0916334729516N01122000EA0215202304101000
B0916374729516N01122100EA0215602304114000
B0916414729454N01122150EA0218002328088000
K091641030004
B0916454729391N01122116EA0218902344094000
B0916494729370N01122020EA0218102336114000
B0916534729416N01121925EA0219602344104000
B0916574729487N01121908EA0221802368098000
B0917014729533N01121979EA0221902376103000
K091701156001
B0917054729516N01122079EA0221902368111000
B0917094729450N01122120EA0223802392092000
B0917134729387N01122079EA0225302408098000
B0917174729358N01121983EA0226202440101000
B0917214729383N01121887EA0226902440097000
K091721062010
B0917254729450N01121850EA0228102456102000
B0917294729512N01121891EA0229802472089000
B0917334729529N01121979EA0229002472095000
B0917374729491N01122066EA0228202456106000
B0917414729420N01122091EA0230302472090000
K091741052008
B0917454729354N01122058EA0232102496095000
B0917494729300N01122008EA0232402504097000
B0917534729245N01121941EA0232502504103000
B0917574729195N01121858EA0233102504110000
B0918014729145N01121775EA0233802512098000
K091801034004
B0918054729095N01121700EA0234602520095000
B0918094729050N01121625EA0234402520102000
B0918134729004N01121541EA0234502520109000
B0918174728954N01121454EA0234702520110000
B0918214728908N01121362EA0235502528103000
K091821328025
B0918254728866N01121275EA0235402528102000
B0918294728825N01121183EA0234702520107000
B0918334728783N01121087EA0233302504116000
B0918374728733N01120983EA0231802488122000
B0918414728675N01120879EA0230202472130000
K091841332022
B0918454728612N01120770EA0229602464130000
B0918494728550N01120666EA0229102464131000
B0918534728483N01120562EA0228402456131000
B0918574728416N01120458EA0228002448134000
B0919014728345N01120358EA0227202440133000
K091901346016
B0919054728270N01120258EA0225602424141000
B0919094728191N01120158EA0224102408148000
B0919134728108N01120058EA0223102392149000
B0919174728029N01119954EA0222102384149000
B0919214727954N01119837EA0221502376151000
K091921334023
B0919254727879N01119725EA0221002368149000
B0919294727808N01119604EA0220602368147000
B0919334727750N01119479EA0220202360148000
B0919374727687N01119354EA0220102360146000
B0919414727620N01119237EA0219702360149000
K091941342022
B0919454727541N01119137EA0220102360141000
B0919494727458N01119041EA0220202360141000
B0919534727375N01118954EA0219202352147000
B0919574727291N01118858EA0217602336154000
B0920014727208N01118754EA0216702320155000
K092001344015
B0920054727125N01118650EA0216702320151000
B0920094727045N01118545EA0216502320150000
B0920134726966N01118441EA0216502320146000
B0920174726895N01118337EA0216002320143000
B0920214726820N01118237EA0216502320142000
K092021330025
B0920254726745N01118133EA0215402312146000
B0920294726666N01118033EA0213902296152000
B0920334726587N01117925EA0212702280157000
B0920374726508N01117816EA0212002272157000
B0920414726429N01117704EA0211602272156000
K092041324029
B0920454726354N01117591EA0211202264153000
B0920494726279N01117475EA0210802264153000
B0920534726208N01117362EA0210102256153000
B0920574726133N01117241EA0209402248154000
B0921014726062N01117120EA0208802240154000
K092101328031
B0921054725987N01117004EA0207902232155000
B0921094725916N01116883EA0207502224153000
B0921134725850N01116758EA0206902216151000
B0921174725783N01116633EA0206502216149000
B0921214725720N01116508EA0205702208148000
K092121334030
B0921254725654N01116383EA0204702200150000
B0921294725591N01116258EA0203402184153000
B0921334725525N01116129EA0201802160158000
B0921374725454N01115995EA0200602152160000
B0921414725379N01115866EA0199802144162000
K092141340028
B0921454725304N01115741EA0199702144160000
B0921494725237N01115616EA0199602136153000
B0921534725170N01115495EA0199302136148000
B0921574725104N01115383EA0198602128145000
B0922014725041N01115270EA0197502120143000
K092201346020
B0922054724979N01115150EA0196002104155000
B0922094724912N01115029EA0194402080160000
B0922134724850N01114900EA0192702064156000
B0922174724787N01114766EA0191602056163000
B0922214724720N01114637EA0192502056162000
K092221330028
B0922254724662N01114520EA0195802096135000
B0922294724608N01114416EA0198002120116000
B0922334724554N01114325EA0199602144113000
B0922374724504N01114241EA0200302144109000
B0922414724450N01114162EA0200202144102000
K092241016010
B0922454724404N01114087EA0199502144100000
B0922494724350N01114016EA0198602128101000
B0922534724295N01113945EA0197302120102000
B0922574724233N01113883EA0195602096113000
B0923014724162N01113816EA0195302096118000
K092301346012
B0923054724091N01113745EA0195502096112000
B0923094724025N01113687EA0195502096101000
B0923134723954N01113625EA0195402096116000
B0923174723883N01113562EA0196202104113000
B0923214723816N01113491EA0197602120106000
K092321342018
B0923254723754N01113425EA0197902128101000
B0923294723704N01113345EA0197702128102000
B0923334723666N01113241EA0197702120108000
B0923374723633N01113129EA0197902128115000
B0923414723612N01113016EA0199602144117000
K092341340017
B0923454723600N01112908EA0201902168096000
B0923494723637N01112837EA0201202168103000
B0923534723704N01112845EA0199602152109000
B0923574723737N01112937EA0199702144104000
B0924014723729N01113037EA0200602160092000
K092401342018
B0924054723700N01113125EA0199802152097000
B0924094723641N01113183EA0198702136108000
B0924134723566N01113183EA0198902136104000
B0924174723500N01113133EA0200402152094000
B0924214723466N01113058EA0200802160096000
K092421352008
B0924254723466N01112962EA0200902160103000
B0924294723512N01112900EA0201102160101000
B0924334723579N01112912EA0200902160102000
B0924374723629N01112983EA0201202160105000
B0924414723679N01113062EA0202102176102000
K092441322006
B0924454723708N01113154EA0202202176109000
B0924494723729N01113250EA0202902176102000
B0924534723762N01113337EA0204102192106000
B0924574723804N01113400EA0205702208102000
B0925014723862N01113400EA0206702224102000
K092501312005
B0925054723900N01113312EA0206202216108000
B0925094723870N01113195EA0207802224110000
B0925134723804N01113166EA0210102256097000
B0925174723754N01113233EA0208802240124000
B0925214723770N01113337EA0210902256111000
K092521312005
B0925254723833N01113341EA0212702280100000
B0925294723866N01113254EA0212602280100000
B0925334723841N01113137EA0213002280113000
B0925374723766N01113116EA0214302296107000
B0925414723720N01113200EA0215102296113000
K092541100005
B0925454723737N01113287EA0217102328099000
B0925494723800N01113300EA0217102320111000
B0925534723850N01113220EA0217702328099000
B0925574723841N01113104EA0219502344103000
B0926014723783N01113050EA0221502368093000
K092601050016
B0926054723725N01113075EA0221002360109000
B0926094723704N01113170EA0221502368108000
B0926134723745N01113237EA0223102384091000
B0926174723808N01113233EA0223202384104000
B0926214723845N01113137EA0224302392106000
K092621064011
B0926254723820N01113033EA0226002416102000
B0926294723754N01112995EA0225902408109000
B0926334723695N01113062EA0226402416111000
B0926374723704N01113154EA0228002432102000
B0926414723758N01113195EA0228002432114000
K092641048010
B0926454723825N01113145EA0228402432113000
B0926494723841N01113029EA0230602456103000
B0926534723808N01112937EA0232702480096000
B0926574723745N01112895EA0231602472111000
B0927014723679N01112941EA0232002472113000
K092701080012
B0927054723666N01113037EA0233702488098000
B0927094723708N01113108EA0234502496101000
B0927134723779N01113104EA0235002504111000
B0927174723829N01113025EA0237102528091000
B0927214723829N01112925EA0237902536089000
K092721094014
B0927254723795N01112829EA0237802536100000
B0927294723750N01112741EA0239002544095000
B0927334723708N01112658EA0239102552091000
B0927374723670N01112575EA0237702536105000
B0927414723633N01112475EA0236302520109000
K092741092012
B0927454723604N01112366EA0234902504119000
B0927494723587N01112241EA0233202488123000
B0927534723570N01112108EA0231602472132000
B0927574723554N01111970EA0230402456132000
B0928014723541N01111833EA0229302448133000
K092801032012
B0928054723529N01111691EA0227902432134000
B0928094723516N01111545EA0226702424138000
B0928134723500N01111400EA0225902416133000
B0928174723483N01111258EA0225002400134000
B0928214723466N01111112EA0223502384141000
K092821016021
B0928254723450N01110958EA0222002368148000
B0928294723429N01110800EA0220702360151000
B0928334723408N01110641EA0219302344154000
B0928374723391N01110479EA0218202328155000
B0928414723375N01110316EA0217602320154000
K092841012026
B0928454723358N01110158EA0217102320150000
B0928494723341N01110000EA0216802312151000
B0928534723325N01109850EA0216402312143000
B0928574723308N01109700EA0216002304145000
B0929014723291N01109554EA0216202312139000
K092901024017
B0929054723275N01109412EA0216302312133000
B0929094723254N01109279EA0216102312130000
B0929134723233N01109145EA0215202304130000
B0929174723212N01109008EA0214002288140000
B0929214723183N01108866EA0212802272144000
K092921016016
B0929254723158N01108716EA0212802272142000
B0929294723137N01108566EA0214602288135000
B0929334723129N01108425EA0216802312124000
B0929374723125N01108291EA0218702336113000
B0929414723125N01108175EA0220902360107000
K092941052015
B0929454723125N01108066EA0222402376097000
B0929494723145N01107970EA0222802384097000
B0929534723170N01107879EA0223002384104000
B0929574723145N01107783EA0223302384101000
B0930014723083N01107766EA0222702376110000
K093001034018
B0930054723033N01107837EA0223802392101000
B0930094723008N01107925EA0226202416092000
B0930134723008N01108008EA0226202416089000
B0930174723037N01108083EA0224502400098000
B0930214723100N01108137EA0224302392099000
K093021034018
B0930254723166N01108158EA0225802416094000
B0930294723229N01108112EA0226102416097000
B0930334723254N01108012EA0225902416095000
B0930374723229N01107912EA0226902424102000
B0930414723200N01107820EA0228402448093000
K093041164008
B0930454723175N01107733EA0229102448100000
B0930494723150N01107637EA0229702456099000
B0930534723133N01107537EA0230602464095000
B0930574723125N01107437EA0231302472098000
B0931014723120N01107333EA0232702480100000
K093101170008
B0931054723116N01107233EA0234102504090000
B0931094723116N01107137EA0234302504090000
B0931134723112N01107037EA0234102496103000
B0931174723108N01106937EA0234502504092000
B0931214723104N01106841EA0234102504091000
K093121018006
B0931254723104N01106745EA0233102496092000
B0931294723100N01106637EA0231202472109000
B0931334723091N01106516EA0230802464113000
B0931374723079N01106408EA0231002472100000
B0931414723066N01106300EA0230302464105000
K093141012014
B0931454723050N01106191EA0230102464097000
B0931494723033N01106091EA0229302456098000
B0931534723012N01105987EA0228402448103000
B0931574722995N01105879EA0226502424116000
B0932014722979N01105754EA0225102408131000
K093201002019
B0932054722962N01105620EA0227302424130000
B0932094722950N01105512EA0231002464089000
B0932134722941N01105429EA0231502480085000
B0932174722925N01105337EA0229802456098000
B0932214722895N01105237EA0229202448106000
K093221036008
B0932254722862N01105133EA0229602456100000
B0932294722833N01105037EA0229802456105000
B0932334722795N01104945EA0229502456105000
B0932374722762N01104854EA0229502456102000
B0932414722720N01104766EA0229902456104000
K093241018006
B0932454722687N01104679EA0231202472109000
B0932494722654N01104595EA0232402488103000
B0932534722616N01104512EA0232302480104000
B0932574722579N01104429EA0232002480103000
B0933014722529N01104341EA0231502472116000
K093301310007
B0933054722475N01104254EA0232902488115000
B0933094722429N01104158EA0234802504111000
B0933134722383N01104070EA0236102520108000
B0933174722337N01103987EA0234702512129000
B0933214722279N01103895EA0234102504134000
K093321312014
B0933254722220N01103795EA0233202496139000
B0933294722154N01103695EA0231802480137000
B0933334722079N01103591EA0230302464152000
B0933374722004N01103483EA0229202448156000
B0933414721929N01103370EA0228402440158000
K093341306023
B0933454721854N01103250EA0228102432156000
B0933494721787N01103129EA0228102440152000
B0933534721720N01103008EA0228002432148000
B0933574721654N01102887EA0227602432153000
B0934014721591N01102770EA0226402416159000
K093401320023
B0934054721529N01102645EA0225902416151000
B0934094721470N01102520EA0225702408147000
B0934134721425N01102391EA0226702424136000
B0934174721387N01102275EA0227602432122000
B0934214721350N01102166EA0228802448114000
K093421332016
B0934254721320N01102058EA0229302456111000
B0934294721287N01101950EA0230002464112000
B0934334721270N01101829EA0231202464120000
B0934374721270N01101708EA0233102488117000
B0934414721279N01101591EA0233302496117000
K093441334016
B0934454721279N01101470EA0232202480123000
B0934494721270N01101341EA0231502472124000
B0934534721258N01101208EA0230902472128000
B0934574721250N01101066EA0230802464136000
B0935014721233N01100929EA0231402472142000
K093501000019
B0935054721216N01100791EA0232302480130000
B0935094721200N01100658EA0232502488127000
B0935134721183N01100529EA0232402488127000
B0935174721162N01100400EA0232502480128000
B0935214721137N01100275EA0233102488126000
K093521008012
B0935254721112N01100150EA0233102488130000
B0935294721083N01100029EA0232402480133000
B0935334721054N01059900EA0231402472136000
B0935374721025N01059766EA0232202480135000
B0935414720991N01059637EA0233102488125000
K093541352017
B0935454720962N01059508EA0233202488133000
B0935494720941N01059375EA0233802496124000
B0935534720925N01059245EA0233502496122000
B0935574720912N01059116EA0233502488125000
B0936014720908N01058987EA0233902496131000
K093601002021
B0936054720912N01058858EA0234302504126000
B0936094720900N01058729EA0233002488127000
B0936134720883N01058595EA0231002472136000
B0936174720858N01058462EA0230702464136000
B0936214720829N01058329EA0230402464133000
K093621356022
B0936254720791N01058195EA0228402440140000
B0936294720750N01058058EA0227302432140000
B0936334720712N01057916EA0227702432144000
B0936374720675N01057787EA0229502448129000
B0936414720641N01057670EA0230702464117000
K093641002018
B0936454720604N01057566EA0230602464116000
B0936494720566N01057470EA0229602456113000
B0936534720520N01057370EA0228502440119000
B0936574720479N01057266EA0227302432121000
B0937014720441N01057150EA0226202416127000
K093701346016
B0937054720408N01057033EA0226002416127000
B0937094720383N01056916EA0226102416123000
B0937134720362N01056800EA0225902416116000
B0937174720345N01056683EA0225502408121000
B0937214720329N01056566EA0225602408121000
K093721342022
B0937254720320N01056450EA0225802408114000
B0937294720316N01056329EA0226102416118000
B0937334720312N01056208EA0226202416115000
B0937374720308N01056083EA0225402408118000
B0937414720295N01055962EA0224202400125000
K093741354025
B0937454720291N01055833EA0223702392125000
B0937494720287N01055700EA0222802384131000
B0937534720283N01055566EA0222302376130000
B0937574720275N01055429EA0222102376129000
B0938014720258N01055291EA0222002376130000
K093801006027
B0938054720241N01055158EA0222602376132000
B0938094720216N01055025EA0225102400127000
B0938134720200N01054908EA0227102424107000
B0938174720191N01054804EA0228302440097000
B0938214720179N01054704EA0227802432100000
K093821018015
B0938254720179N01054600EA0226202416113000
B0938294720187N01054483EA0225202408118000
B0938334720195N01054358EA0224302400122000
B0938374720204N01054233EA0223802392121000
B0938414720212N01054112EA0223502384120000
K093841004022
B0938454720216N01053991EA0222602384117000
B0938494720225N01053870EA0221902368118000
B0938534720225N01053750EA0221002368120000
B0938574720225N01053625EA0220502360119000
B0939014720225N01053504EA0220102352123000
K093901010021
B0939054720229N01053379EA0219702352120000
B0939094720237N01053258EA0219402344120000
B0939134720245N01053137EA0218702336123000
B0939174720250N01053012EA0218002336124000
B0939214720237N01052887EA0217502328123000
K093921010022
B0939254720225N01052754EA0217402320130000
B0939294720208N01052625EA0218602336121000
B0939334720191N01052504EA0220202352121000
B0939374720170N01052391EA0221702368115000
B0939414720150N01052279EA0222602384114000
K093941036010
B0939454720129N01052175EA0223102384110000
B0939494720095N01052083EA0223702392111000
B0939534720062N01051991EA0224302400103000
B0939574720025N01051904EA0224202400115000
B0940014719970N01051833EA0225402408108000
K094001090006
B0940054719904N01051791EA0225302408109000
B0940094719833N01051770EA0224102400118000
B0940134719750N01051770EA0222702384121000
B0940174719662N01051775EA0221302368132000
B0940214719570N01051779EA0220802360135000
K094021116004
B0940254719479N01051783EA0220102360135000
B0940294719387N01051795EA0219202344132000
B0940334719295N01051812EA0218102336132000
B0940374719200N01051829EA0217002320136000
B0940414719104N01051845EA0216302312139000
K094041270017
B0940454719004N01051862EA0215502304139000
B0940494718904N01051879EA0214502296139000
B0940534718804N01051891EA0213702288143000
B0940574718700N01051904EA0213102280147000
B0941014718595N01051925EA0212802280143000
K094101278030
B0941054718491N01051950EA0212402272142000
B0941094718391N01051970EA0211702272142000
B0941134718291N01051995EA0210802256145000
B0941174718187N01052025EA0209902248146000
B0941214718083N01052050EA0209502248146000
K094121282032
B0941254717983N01052070EA0209302240141000
B0941294717883N01052091EA0209302240140000
B0941334717783N01052108EA0209202240138000
B0941374717687N01052125EA0209202240132000
B0941414717595N01052145EA0209102240131000
K094141282037
B0941454717504N01052166EA0209002240127000
B0941494717412N01052183EA0208802240126000
B0941534717320N01052200EA0207902232131000
B0941574717229N01052204EA0207002216130000
B0942014717137N01052187EA0206102208134000
K094201280045
B0942054717041N01052162EA0205802208135000
B0942094716950N01052145EA0205802208130000
B0942134716858N01052129EA0205702208125000
B0942174716766N01052120EA0205202200129000
B0942214716679N01052100EA0204402192128000
K094221288037
B0942254716595N01052045EA0204702192128000
B0942294716533N01051958EA0204602192130000
B0942334716479N01051854EA0204502192125000
B0942374716429N01051750EA0204002192132000
B0942414716362N01051666EA0204602192129000
K094241286040
B0942454716287N01051600EA0206402208119000
B0942494716216N01051537EA0207702232111000
B0942534716158N01051466EA0208202232115000
B0942574716104N01051383EA0209302240115000
B0943014716050N01051287EA0209602248123000
K094301304031
B0943054716000N01051187EA0209202248126000
B0943094715950N01051083EA0208202232126000
B0943134715895N01050970EA0207302224131000
B0943174715845N01050854EA0206002208136000
B0943214715795N01050733EA0205202200137000
K094321326032
B0943254715745N01050612EA0204402192138000
B0943294715691N01050491EA0203102184140000
B0943334715637N01050362EA0202902176147000
B0943374715583N01050237EA0205702200128000
B0943414715529N01050133EA0208802232120000
K094341332029
B0943454715483N01050050EA0211002264100000
B0943494715445N01049975EA0212102272102000
B0943534715412N01049891EA0212902280094000
B0943574715379N01049812EA0213202288098000
B0944014715341N01049729EA0213602288107000
K094401342012
B0944054715304N01049641EA0214602304102000
B0944094715270N01049554EA0215702312098000
B0944134715229N01049466EA0215802312112000
B0944174715187N01049370EA0216102320105000
B0944214715145N01049279EA0216002312112000
K094421330013
B0944254715100N01049183EA0216502320115000
B0944294715058N01049091EA0217502336104000
B0944334715008N01049008EA0218202336109000
B0944374714962N01048920EA0218902344107000
B0944414714925N01048825EA0219002352113000
K094441336017
B0944454714883N01048725EA0218902344115000
B0944494714841N01048625EA0219402352118000
B0944534714804N01048525EA0220102360112000
B0944574714766N01048420EA0220602360111000
B0945014714725N01048320EA0221302368115000
K094501334016
B0945054714683N01048220EA0222102376109000
B0945094714641N01048125EA0222602384106000
B0945134714604N01048025EA0223402392110000
B0945174714566N01047925EA0224802408110000
B0945214714533N01047825EA0226302424102000
K094521348014
B0945254714483N01047754EA0227302432101000
B0945294714412N01047754EA0228102440105000
B0945334714370N01047833EA0229802456092000
B0945374714383N01047925EA0229802456092000
B0945414714433N01047983EA0228502448098000
K094541344014
B0945454714504N01047979EA0227302432103000
B0945494714562N01047908EA0227902440101000
B0945534714570N01047800EA0228602448101000
B0945574714545N01047700EA0229002456097000
B0946014714504N01047616EA0229002448100000
K094601110003
B0946054714441N01047575EA0229202456103000
B0946094714370N01047600EA0229802456097000
B0946134714312N01047658EA0230202464102000
B0946174714266N01047733EA0231602480097000
B0946214714225N01047812EA0232302488109000
K094621066004
B0946254714183N01047895EA0232402488102000
B0946294714145N01047987EA0233202496103000
B0946334714112N01048075EA0233902504103000
B0946374714091N01048170EA0233902504097000
B0946414714104N01048266EA0233302496099000
K094641068004
B0946454714158N01048333EA0232202488102000
B0946494714233N01048341EA0231102472106000
B0946534714295N01048291EA0230202464107000
B0946574714345N01048212EA0229502456103000
B0947014714391N01048125EA0228402448104000
K094701068004
B0947054714437N01048045EA0227802440102000
B0947094714487N01047962EA0227302432106000
B0947134714520N01047866EA0228102440105000
B0947174714533N01047762EA0228902448100000
B0947214714529N01047662EA0229202456096000
K094721068004
B0947254714487N01047579EA0228802448100000
B0947294714420N01047541EA0229302456104000
B0947334714354N01047566EA0229902464092000
B0947374714312N01047645EA0228802448108000
B0947414714325N01047758EA0229102448115000
K094741068004
B0947454714370N01047845EA0231502480091000
B0947494714433N01047866EA0231502480098000
B0947534714491N01047816EA0230702472109000
B0947574714504N01047708EA0231802480103000
B0948014714458N01047637EA0232302488098000
K094801024002
B0948054714387N01047641EA0232202480107000
B0948094714337N01047712EA0233402488101000
B0948134714337N01047816EA0234702504097000
B0948174714383N01047879EA0234802504098000
B0948214714454N01047870EA0233902496103000
K094821016003
B0948254714504N01047795EA0234702504105000
B0948294714508N01047700EA0236102520090000
B0948334714483N01047616EA0236202528092000
B0948374714441N01047529EA0234402504122000
B0948414714391N01047429EA0234702504126000
K094841174001
B0948454714333N01047345EA0237302536111000
B0948494714283N01047262EA0238002544111000
B0948534714229N01047170EA0237902536114000
B0948574714166N01047075EA0238802552128000
B0949014714108N01046975EA0239702560116000
K094901156000
B0949054714050N01046887EA0239902560106000
B0949094713991N01046795EA0237902544125000
B0949134713925N01046695EA0235102512138000
B0949174713854N01046587EA0233802496143000
B0949214713783N01046475EA0232902488140000
K094921334025
B0949254713712N01046362EA0232102480144000
B0949294713637N01046254EA0231602472141000
B0949334713566N01046145EA0231002472141000
B0949374713491N01046033EA0230102456144000
B0949414713416N01045933EA0230002448147010
K094941342024
B0949454713333N01045837EA0228302440146000
B0949494713245N01045745EA0227402432149000
B0949534713162N01045645EA0227202424148000
B0949574713083N01045537EA0226502424146000
B0950014713008N01045433EA0225702416147000
K095001332030
B0950054712929N01045325EA0225002408148000
B0950094712854N01045212EA0224502400150000
B0950134712783N01045100EA0223702392152000
B0950174712708N01044987EA0223102384154000
B0950214712633N01044870EA0222802384152000
K095021330034
B0950254712558N01044758EA0221902376153000
B0950294712487N01044645EA0221402368153000
B0950334712412N01044529EA0220902360152000
B0950374712341N01044416EA0220502360150000
B0950414712266N01044304EA0220002352150000
K095041330027
B0950454712191N01044191EA0219202344152000
B0950494712120N01044079EA0218302336154000
B0950534712045N01043962EA0217402328153000
B0950574711975N01043845EA0216702320154000
B0951014711900N01043725EA0216402312155000
K095101330025
B0951054711829N01043604EA0216602312154000
B0951094711758N01043487EA0218702336149000
B0951134711691N01043379EA0220002352143000
B0951174711625N01043275EA0220202352144000
B0951214711554N01043166EA0219502344146000
K095121340014
B0951254711479N01043066EA0218902344142000
B0951294711404N01042958EA0219602344150000
B0951334711333N01042854EA0222402376135000
B0951374711266N01042758EA0226502416123000
B0951414711212N01042670EA0229502448107000
K095141356013
B0951454711162N01042587EA0230602464102000
B0951494711108N01042525EA0231302472098000
B0951534711041N01042533EA0231302472101000
B0951574711000N01042612EA0231002464107000
B0952014711016N01042708EA0231102472100000
K095201346013
B0952054711058N01042787EA0230202464100000
B0952094711108N01042862EA0229502456110000
B0952134711158N01042941EA0230002456114000
B0952174711200N01043020EA0231702472108000
B0952214711245N01043095EA0233602496102000
K095221346013
B0952254711308N01043116EA0234902504113000
B0952294711358N01043037EA0236802528095000
B0952334711350N01042933EA0237502536110000
B0952374711283N01042875EA0238602544107000
B0952414711216N01042916EA0240502568095000
K095241346013
B0952454711191N01043004EA0241702576104000
B0952494711237N01043079EA0243202592106000
B0952534711304N01043066EA0245602616091000
B0952574711345N01042987EA0246602632095000
B0953014711337N01042875EA0246902632109000
K095301062007
B0953054711279N01042795EA0249602656105000
B0953094711212N01042825EA0251402680097000
B0953134711191N01042912EA0251602680103000
B0953174711233N01042995EA0252802688105000
B0953214711308N01043000EA0254302704110000
K095321082008
B0953254711358N01042912EA0256202728102000
B0953294711350N01042795EA0257502744107000
B0953334711287N01042729EA0259402760109000
B0953374711220N01042770EA0260802776102000
B0953414711208N01042870EA0262002792106000
K095341092012
B0953454711258N01042941EA0263202800103000
B0953494711333N01042937EA0265402824109000
B0953534711383N01042850EA0267402848104000
B0953574711370N01042741EA0269202864101000
B0954014711304N01042691EA0270902880102000
K095401090009
B0954054711237N01042729EA0271302888103000
B0954094711212N01042829EA0271702888108000
B0954134711250N01042920EA0273802904103000
B0954174711316N01042950EA0276902936097000
B0954214711375N01042900EA0278802960089000
K095421118008
B0954254711400N01042795EA0279002960104000
B0954294711362N01042695EA0280502976108000
B0954334711287N01042675EA0282403000102000
B0954374711233N01042750EA0282803000110000
B0954414711250N01042862EA0284103016116000
K095441074004
B0954454711312N01042925EA0287203040113000
B0954494711379N01042870EA0289103064105000
B0954534711391N01042758EA0290003080112000
B0954574711337N01042675EA0292203096107000
B0955014711266N01042683EA0293903120095000
K095501084005
B0955054711220N01042766EA0294303120113000
B0955094711233N01042870EA0296303144101000
B0955134711287N01042929EA0298603168096000
B0955174711354N01042900EA0299103168110000
B0955214711395N01042800EA0300103184106000
K095521026005
B0955254711387N01042683EA0302503208105000
B0955294711329N01042616EA0303903224103000
B0955334711262N01042645EA0304103224101000
B0955374711229N01042745EA0304503224112000
B0955414711262N01042850EA0306603248107000
K095541064006
B0955454711333N01042875EA0309203272103000
B0955494711395N01042820EA0311203296096000
B0955534711416N01042712EA0311903304108000
B0955574711379N01042604EA0311903304120000
B0956014711320N01042512EA0311103304127000
K095601180002
B0956054711245N01042420EA0309103280142000
B0956094711170N01042325EA0307503264140000
B0956134711087N01042229EA0305203240151000
B0956174710995N01042129EA0304303224148000
B0956214710904N01042025EA0303903224160000
K095621184002
B0956254710812N01041916EA0306503248145000
B0956294710733N01041812EA0310103288126000
B0956334710662N01041716EA0310303296125000
B0956374710591N01041620EA0309103280136000
B0956414710512N01041520EA0307203264146000
K095641346012
B0956454710433N01041420EA0306403248153000
B0956494710350N01041316EA0305503240149000
B0956534710266N01041212EA0305003240151000
B0956574710183N01041104EA0305303240152000
B0957014710095N01040995EA0306703256149000
K095701326023
B0957054710012N01040887EA0308503272144000
B0957094709933N01040783EA0309203280141000
B0957134709854N01040687EA0310503296136000
B0957174709775N01040591EA0311103304141000
B0957214709695N01040491EA0311103304143000
K095721342015
B0957254709612N01040387EA0311903312138000
B0957294709529N01040287EA0312303320149000
B0957334709445N01040191EA0312803320142000
B0957374709366N01040091EA0313703328133000
B0957414709291N01039995EA0314303344135000
K095741344014
B0957454709212N01039904EA0313903336138000
B0957494709137N01039812EA0313203328138000
B0957534709054N01039716EA0312403320141000
B0957574708975N01039616EA0312003312143000
B0958014708895N01039520EA0312703320151000
K095801324015
B0958054708816N01039429EA0314103336143000
B0958094708737N01039337EA0314603344138000
B0958134708662N01039245EA0314903344141000
B0958174708583N01039154EA0315203352142000
B0958214708504N01039066EA0314803352136000
K095821314012
B0958254708429N01038975EA0314003336139000
B0958294708350N01038883EA0313303328144000
B0958334708270N01038791EA0312103320145000
B0958374708187N01038695EA0310903304147000
B0958414708104N01038595EA0310203296147000
K095841308021
B0958454708020N01038495EA0309503288151000
B0958494707937N01038395EA0308303280153000
B0958534707845N01038295EA0307303272155000
B0958574707758N01038191EA0306303256155000
B0959014707666N01038091EA0305103248156000
K095901312023
B0959054707579N01037987EA0303703232159000
B0959094707487N01037883EA0302803224158000
B0959134707395N01037775EA0301703208158000
B0959174707304N01037670EA0301003200158000
B0959214707208N01037566EA0299803192162000
K095921322024
B0959254707116N01037458EA0299403184166000
B0959294707020N01037354EA0299403184164000
B0959334706929N01037254EA0299003176161000
B0959374706837N01037154EA0298303176159000
B0959414706745N01037054EA0297703168157000
K095941316021
B0959454706658N01036958EA0297203160157000
B0959494706566N01036858EA0296103152158000
B0959534706470N01036762EA0295003136160000
B0959574706375N01036675EA0294203128160000
B1000014706270N01036595EA0293503120159000
K100001314018
B1000054706166N01036520EA0292703112162000
B1000094706058N01036450EA0291903104163000
B1000134705950N01036383EA0291203096163000
B1000174705841N01036316EA0290903096161000
B1000214705733N01036254EA0290603096160000
K100021310023
B1000254705629N01036187EA0290203088161000
B1000294705529N01036116EA0289503080162000
B1000334705429N01036037EA0288903072161000
B1000374705329N01035970EA0288503072155000
B1000414705229N01035895EA0287403064156000
K100041300034
B1000454705137N01035816EA0286803056155000
B1000494705041N01035737EA0286803056149000
B1000534704950N01035662EA0287303056147000
B1000574704854N01035595EA0287803064142000
B1001014704770N01035516EA0288603072133000
K100101306032
B1001054704700N01035437EA0289103080122000
B1001094704633N01035354EA0288203072122000
B1001134704570N01035258EA0286603056130000
B1001174704508N01035154EA0285303040137000
B1001214704441N01035045EA0284703032138000
K100121316033
B1001254704375N01034933EA0284103024140000
B1001294704312N01034812EA0283603024140000
B1001334704245N01034691EA0283103016139000
B1001374704179N01034570EA0282803008146000
B1001414704112N01034441EA0283203016145000
K100141332029
B1001454704050N01034320EA0287303056122000
B1001494704000N01034220EA0290403096105000
B1001534703954N01034129EA0290203096110000
B1001574703895N01034037EA0290103088118000
B1002014703841N01033945EA0290603096111000
K100201014015
B1002054703787N01033854EA0291003104113000
B1002094703733N01033766EA0292203112107000
B1002134703675N01033675EA0292703120111000
B1002174703625N01033583EA0292203112110000
B1002214703570N01033491EA0291603104110000
K100221350019
B1002254703512N01033400EA0291503104111000
B1002294703454N01033312EA0291603104115000
B1002334703395N01033220EA0293903128111000
B1002374703350N01033137EA0296803160095000
B1002414703304N01033058EA0297303168097000
K100241356017
B1002454703258N01032979EA0297703168101000
B1002494703216N01032895EA0298503176090000
B1002534703170N01032816EA0298603184094000
B1002574703129N01032737EA0298803184093000
B1003014703083N01032662EA0299003184094000
K100301352014
B1003054703033N01032587EA0298603184093000
B1003094702979N01032516EA0297803176100000
B1003134702920N01032445EA0296103160108000
B1003174702845N01032379EA0295203144117000
B1003214702766N01032312EA0294503136124000
K100321338010
B1003254702687N01032250EA0294303136125000
B1003294702604N01032187EA0294103136123000
B1003334702520N01032125EA0294003128129000
B1003374702433N01032058EA0293403128132000
B1003414702345N01031995EA0292503120133000
K100341328012
B1003454702254N01031937EA0292103112134000
B1003494702166N01031879EA0291603104136000
B1003534702079N01031820EA0290803096133000
B1003574701991N01031758EA0289703080147000
B1004014701895N01031695EA0290203088140000
K100401310018
B1004054701804N01031637EA0291503104135000
B1004094701716N01031575EA0291603104132000
B1004134701629N01031508EA0291103096135000
B1004174701541N01031445EA0289903088141000
B1004214701450N01031383EA0288903080139000
K100421308020
B1004254701358N01031316EA0288003064139000
B1004294701266N01031254EA0288003064137000
B1004334701175N01031191EA0287203064132000
B1004374701083N01031125EA0286303048135000
B1004414700991N01031058EA0285303040137000
K100441318022
B1004454700900N01030987EA0285303040137000
B1004494700804N01030925EA0285203040142000
B1004534700712N01030866EA0286003048134000
B1004574700629N01030808EA0286503056123000
B1005014700545N01030758EA0285303040123000
K100501330016
B1005054700458N01030708EA0283203024129000
B1005094700366N01030662EA0281503000135000
B1005134700275N01030616EA0280502992129000
B1005174700179N01030566EA0279402976137000
B1005214700083N01030516EA0276602952151000
K100521314016
B1005254659970N01030466EA0274502928158000
B1005294659862N01030412EA0273802912158000
B1005334659754N01030358EA0274102920150000
B1005374659650N01030304EA0274002920141000
B1005414659554N01030250EA0273002912141000
K100541312025
B1005454659450N01030187EA0272702904154000
B1005494659354N01030125EA0276202936140000
B1005534659275N01030070EA0280302984105000
B1005574659212N01030029EA0281503000092000
B1006014659154N01029979EA0280002984108000
K100601330024
B1006054659087N01029916EA0278102960121000
B1006094659020N01029837EA0276702952126000
B1006134658950N01029745EA0274502928137000
B1006174658879N01029645EA0272902912139000
B1006214658808N01029541EA0271902896143000
K100621312043
B1006254658737N01029433EA0270902888137000
B1006294658670N01029320EA0269602872144000
B1006334658600N01029204EA0269502872150000
B1006374658533N01029075EA0270802880145000
B1006414658470N01028958EA0272302896131000
K100641326033
B1006454658408N01028854EA0272302896126000
B1006494658350N01028745EA0272802904128000
B1006534658291N01028641EA0273902912122000
B1006574658233N01028545EA0275402928121000
B1007014658179N01028445EA0277102952111000
K100701350017
B1007054658129N01028345EA0278002960117000
B1007094658075N01028250EA0280002976116000
B1007134658000N01028208EA0282803008101000
B1007174657937N01028258EA0283603016098000
B1007214657929N01028366EA0282603000112000
K100721350017
B1007254657991N01028441EA0283503008110000
B1007294658066N01028425EA0285403032107000
B1007334658120N01028358EA0287103048100000
B1007374658129N01028250EA0287503056111000
B1007414658066N01028183EA0288803064110000
K100741042004
B1007454658000N01028233EA0290903088104000
B1007494658000N01028337EA0292303104104000
B1007534658058N01028400EA0292903104112000
B1007574658129N01028366EA0295403136101000
B1008014658150N01028266EA0296203144106000
K100801354002
B1008054658108N01028175EA0297603152101000
B1008094658037N01028162EA0298703168111000
B1008134657987N01028245EA0299803176110000
B1008174658008N01028350EA0301703200107000
B1008214658079N01028387EA0303003208109000
K100821152001
B1008254658137N01028312EA0304803232107000
B1008294658137N01028200EA0305903240112000
B1008334658075N01028129EA0307703264101000
B1008374658000N01028137EA0308603272097000
B1008414657945N01028216EA0309503280108000
K100841044004
B1008454657950N01028329EA0311403296107000
B1008494658004N01028404EA0313603320105000
B1008534658070N01028404EA0314303336100000
B1008574658125N01028337EA0314103328105000
B1009014658137N01028220EA0315403344110000
K100901352003
B1009054658100N01028125EA0317603368103000
B1009094658025N01028100EA0318303376106000
B1009134657958N01028166EA0318903376107000
B1009174657945N01028283EA0319803392115000
B1009214657995N01028370EA0321903408117000
K100921070001
B1009254658066N01028350EA0322803424108000
B1009294658095N01028245EA0322903424117000
B1009334658058N01028129EA0321703416139000
B1009374657983N01028033EA0320703400149000
B1009414657895N01027941EA0320103392151000
K100941284009
B1009454657804N01027845EA0319703392149000
B1009494657716N01027741EA0320203392157000
B1009534657629N01027629EA0321203400152000
B1009574657545N01027520EA0321303408140000
B1010014657466N01027412EA0320503400145000
K101001294008
B1010054657391N01027295EA0319603392147000
B1010094657316N01027179EA0318503376149000
B1010134657241N01027066EA0317903368150000
B1010174657166N01026945EA0317703368149000
B1010214657095N01026825EA0317503368148000
K101021328028
B1010254657029N01026704EA0317803368145000
B1010294656966N01026583EA0318003376140000
B1010334656904N01026466EA0317803376139000
B1010374656841N01026350EA0317103368141000
B1010414656783N01026229EA0316703360142000
K101041332029
B1010454656729N01026104EA0315903352140000
B1010494656679N01025975EA0315303352139000
B1010534656629N01025845EA0314703344141000
B1010574656579N01025716EA0313903336143000
B1011014656525N01025583EA0313303328144000
K101101332029
B1011054656470N01025450EA0312703320145000
B1011094656416N01025316EA0312503320146000
B1011134656362N01025183EA0312003312143000
B1011174656308N01025050EA0311503312143000
B1011214656254N01024912EA0310803304145000
K101121338029
B1011254656200N01024779EA0310603296147000
B1011294656141N01024645EA0310503296145000
B1011334656083N01024516EA0310703304144000
B1011374656025N01024391EA0311403304135000
B1011414655962N01024270EA0310603304132000
K101141352020
B1011454655900N01024154EA0309903296135000
B1011494655837N01024041EA0309003288137000
B1011534655770N01023929EA0308003272137000
B1011574655704N01023812EA0306103256143000
B1012014655633N01023691EA0303603232151000
K101201344026
B1012054655562N01023562EA0302803216155000
B1012094655487N01023437EA0301703208156000
B1012134655416N01023308EA0301303200156000
B1012174655345N01023179EA0301203200152000
B1012214655279N01023050EA0301903208145000
K101221334035
B1012254655212N01022933EA0302603216142000
B1012294655145N01022820EA0303803232135000
B1012334655079N01022708EA0304803240139000
B1012374655016N01022600EA0306503256130000
B1012414654954N01022495EA0307903272120000
K101241348018
B1012454654900N01022395EA0309003288111000
B1012494654850N01022300EA0308803288110000
B1012534654800N01022204EA0307903280114000
B1012574654745N01022100EA0307103272118000
B1013014654695N01021995EA0306703264120000
K101301346021
B1013054654641N01021891EA0305903256125000
B1013094654583N01021783EA0305103248125000
B1013134654529N01021675EA0304503240126000
B1013174654470N01021566EA0303703232131000
B1013214654412N01021450EA0303203224134000
K101321334028
B1013254654362N01021333EA0303003224131000
B1013294654312N01021212EA0302803224130000
B1013334654266N01021095EA0302203216126000
B1013374654216N01020979EA0302103216129000
B1013414654179N01020850EA0302903216128000
K101341338031
B1013454654141N01020725EA0304103232124000
B1013494654104N01020608EA0304303232127000
B1013534654054N01020495EA0304503240121000
B1013574654000N01020395EA0303403232125000
B1014014653937N01020304EA0303703232131000
K101401354009
B1014054653866N01020216EA0304403240130000
B1014094653795N01020133EA0305103248131000
B1014134653729N01020045EA0305703248127000
B1014174653658N01019954EA0305403248135000
B1014214653587N01019866EA0304903240135000
K101421310010
B1014254653508N01019775EA0304003232141000
B1014294653429N01019683EA0302403216138000
B1014334653345N01019595EA0301303208140000
B1014374653262N01019512EA0300103192139000
B1014414653175N01019429EA0299303184143000
K101441314021
B1014454653083N01019345EA0298603176145000
B1014494652995N01019266EA0297803168138000
B1014534652908N01019187EA0297003160143000
B1014574652816N01019104EA0296103152148000
B1015014652725N01019020EA0295503136151000
K101501316029
B1015054652633N01018950EA0298603168130000
B1015094652554N01018887EA0301403208112000
B1015134652483N01018833EA0301703208111000
B1015174652412N01018775EA0300903200120000
B1015214652337N01018712EA0299903192120000
K101521326021
B1015254652262N01018641EA0297803168126000
B1015294652179N01018566EA0296003144137000
B1015334652095N01018500EA0296003144137000
B1015374652016N01018433EA0296303152136000
B1015414651933N01018366EA0296603152133000
K101541306023
B1015454651858N01018291EA0296903160128000
B1015494651783N01018220EA0296003152129000
B1015534651708N01018141EA0295203144130000
B1015574651625N01018066EA0294103128139000
B1016014651541N01017991EA0293203120140000
K101601304022
B1016054651458N01017908EA0293103120137000
B1016094651375N01017820EA0292503112135000
B1016134651291N01017737EA0291503104143000
B1016174651204N01017654EA0290003088140000
