AZAN1KK ZANDER/SDI GP941 V2.11
HFDTE280407
HFFXA050
HFPLT Pilot             :Franz Bayerschmidt                      
HFGTY Glider type       :Ventus 2cM                              
HFGID Glider ID         :D KOFB    
HFDTM100 GPS Datum      :WGS84
HFRFW Firmware Version  :11
HFRHW Hardware version  :2
HFFTY FR Type           :ZANDER/SDI GP941
HFGPS                   :Garmin,GPS25,12,30000
HFPRS Press Alt Sensor  :Intersema,MS5534A,10000
HFCCL Competition Class :18m                                     
HFCID Competition ID    :FB        
I023638IAS3941ENL
J020810WDI1113WVE
LZAN 081133 PowerOn
C220407081201220407000103
C4743750N01226300E UNTERWOSSEN 
C4743816N01228433E WOSSENER SEE
C4638750N01340133E DOBRATSCH   
C4647733N01018100E SCHULS      
C4743766N01223733E MUHLAU      
C4743816N01228433E WOSSENER SEE
C4743750N01226300E UNTERWOSSEN 
B0811374743841N01226312EV0048600000012000
B0811414743841N01226312EV0048500000007000
B0811454743841N01226312EV0048500000007000
B0811494743841N01226312EV0048500000009000
B0811534743841N01226312EV0048500000009000
B0811574743841N01226312EV0048600000009000
B0812014743841N01226312EV0048600000007000
B0812054743841N01226312EV0048600000007000
B0812094743837N01226308EA0048600576012000
B0812134743833N01226316EA0048600568007000
B0812174743833N01226316EA0048600560009000
B0812214743833N01226316EA0048600560009000
B0812254743833N01226312EA0048600560007000
B0812294743833N01226312EA0048600560009000
B0812334743833N01226312EA0048600560009000
B0812374743833N01226312EA0048600560000000
B0812414743833N01226312EA0048600560007000
B0812454743833N01226312EA0048600560007000
B0812494743833N01226312EA0048600560000000
B0812534743833N01226312EA0048600560007012
B0812574743833N01226312EA0048600560000008
B0813014743833N01226312EA0048600560007000
B0813054743833N01226312EA0048600560007008
B0813094743837N01226312EA0048600552000000
B0813134743837N01226312EA0048600552007000
B0813174743837N01226312EA0048600552000000
B0813214743837N01226308EA0048600552009000
B0813254743837N01226312EA0048600552007000
B0813294743837N01226308EA0048600552000000
B0813334743837N01226308EA0048600552000000
B0813374743837N01226312EA0048600552007000
B0813414743837N01226308EA0048600552000000
B0813454743837N01226308EA0048600552000000
B0813494743837N01226312EA0048600552000004
C280407081351280407000103
C4743750N01226300E UNTERWOSSEN 
C4743766N01223733E MUHLAU      
C4629733N00902366E RHEINWALDHOR
C4720000N01245000E SCHMITTENHOH
C4745533N01227700E MARQUARTSTEI
C4743766N01223733E MUHLAU      
C4743750N01226300E UNTERWOSSEN 
B0813534743837N01226312EA0048600552007000
B0813574743837N01226312EA0048600552000000
B0814014743837N01226312EA0048600552000000
B0814054743837N01226312EA0048600552000000
B0814094743837N01226312EA0048600552000000
B0814134743837N01226312EA0048600552000000
B0814174743837N01226312EA0048600552000000
B0814214743837N01226312EA0048600552000000
B0814254743837N01226312EA0048600552000000
B0814294743837N01226308EA0048600552000000
B0814334743837N01226308EA0048600544000000
B0814374743837N01226308EA0048600544000000
B0814414743833N01226308EA0048600544000000
B0814454743833N01226308EA0048600552000004
B0814494743833N01226312EA0048600552000000
B0814534743833N01226312EA0048600552000000
B0814574743833N01226312EA0048600552000000
B0815014743837N01226312EA0048600552000000
B0815054743837N01226312EA0048600552000000
B0815094743837N01226312EA0048600552000000
B0815134743837N01226308EA0048600552000000
B0815174743837N01226312EA0048600552000000
B0815214743837N01226308EA0048600552000000
B0815254743837N01226308EA0048600552000000
B0815294743837N01226312EA0048600552000000
B0815334743833N01226312EA0048600552000000
B0815374743833N01226312EA0048600552000000
B0815414743833N01226312EA0048600552000000
B0815454743837N01226312EA0048600552000000
B0815494743837N01226308EA0048600552000000
B0815534743837N01226308EA0048600552000000
B0815574743837N01226308EA0048600552000000
B0816014743837N01226308EA0048600552000000
B0816054743833N01226312EA0048600552000000
B0816094743837N01226312EA0048600560000000
B0816134743833N01226312EA0048600560000000
B0816174743833N01226312EA0048600552000000
B0816214743833N01226312EA0048600552000000
B0816254743833N01226312EA0048600552000000
B0816294743833N01226312EA0048600560000004
B0816334743833N01226312EA0048600560000000
B0816374743829N01226316EA0048700560000000
B0816414743829N01226320EA0048700560000000
B0816454743829N01226320EA0048700552000000
B0816494743829N01226320EA0048700560000000
B0816534743829N01226316EA0048700544000004
B0816574743829N01226320EA0048700576000000
B0817014743829N01226320EA0048700576000000
B0817054743829N01226320EA0048700576000000
B0817094743825N01226316EA0048700576000000
B0817134743825N01226312EA0048700576000000
B0817174743825N01226308EA0048700576000004
B0817214743820N01226308EA0048700576000000
B0817254743820N01226304EA0048700576000004
B0817294743816N01226300EA0048700568000004
B0817334743816N01226295EA0048700576000004
B0817374743812N01226291EA0048700576000004
B0817414743812N01226287EA0048700576000008
B0817454743812N01226283EA0048700568000008
B0817494743808N01226279EA0048700576000008
B0817534743808N01226275EA0048700576000008
B0817574743804N01226270EA0048600576000008
B0818014743804N01226266EA0048600576000008
B0818054743804N01226262EA0048600576000008
B0818094743800N01226258EA0048600576000008
B0818134743800N01226254EA0048600576000008
B0818174743795N01226250EA0048600576000008
B0818214743795N01226245EA0048700576000008
B0818254743795N01226241EA0048700576000008
B0818294743791N01226237EA0048700576000008
B0818334743791N01226233EA0048700576007008
B0818374743791N01226229EA0048800576007008
B0818414743787N01226225EA0048700576007008
B0818454743787N01226220EA0048800576000008
B0818494743787N01226216EA0048800576007008
B0818534743783N01226212EA0048800576000008
B0818574743783N01226208EA0048800568007008
B0819014743779N01226204EA0048800568000008
B0819054743779N01226200EA0048800568000008
B0819094743779N01226195EA0048800568000008
B0819134743775N01226191EA0048800568000008
B0819174743775N01226187EA0048800568000008
B0819214743770N01226183EA0048800568007008
B0819254743770N01226179EA0048800568007008
B0819294743766N01226175EA0048800568007008
B0819334743766N01226170EA0048800568000008
B0819374743762N01226166EA0048800568007008
B0819414743762N01226166EA0048800568000008
B0819454743758N01226162EA0048800568007008
B0819494743758N01226154EA0048800560000008
B0819534743754N01226154EA0048800560000008
B0819574743754N01226150EA0048800560000004
B0820014743754N01226145EA0048800560000008
B0820054743750N01226141EA0048800560000004
B0820094743750N01226141EA0048800560000004
B0820134743750N01226137EA0048800560000004
B0820174743745N01226133EA0048800560000004
B0820214743745N01226137EA0048800560000004
B0820254743745N01226137EA0048800560000004
B0820294743745N01226133EA0048800560007000
B0820334743745N01226133EA0048800560007000
B0820374743745N01226133EA0048800560000000
B0820414743745N01226133EA0048800560007000
B0820454743745N01226133EA0048800560007000
B0820494743745N01226133EA0048800560000000
B0820534743745N01226133EA0048800560000000
B0820574743745N01226133EA0049000560000000
B0821014743745N01226133EA0049000560000000
B0821054743745N01226133EA0049000560000000
B0821094743741N01226129EA0049000560000008
B0821134743741N01226129EA0049000560009004
B0821174743737N01226133EA0049000560000004
B0821214743733N01226137EA0049000560000008
B0821254743729N01226141EA0049000560000008
B0821294743725N01226141EA0049000560000008
B0821334743725N01226145EA0049000560007008
B0821374743720N01226150EA0049000560000008
B0821414743716N01226150EA0049000560007008
B0821454743716N01226154EA0049000560000008
B0821494743712N01226158EA0049000552000004
B0821534743708N01226162EA0049000552007008
B0821574743708N01226166EA0049000552000004
B0822014743704N01226166EA0049000552000004
B0822054743704N01226170EA0049000560000004
B0822094743704N01226170EA0049000560000004
B0822134743704N01226170EA0049000560007004
B0822174743704N01226175EA0049000560000004
B0822214743704N01226179EA0049000560007004
B0822254743704N01226179EA0049000560000004
B0822294743704N01226183EA0049000560007008
B0822334743704N01226187EA0049000560000008
B0822374743700N01226187EA0049000560000012
B0822414743700N01226187EA0049000560000008
B0822454743700N01226191EA0049000560000008
B0822494743700N01226191EA0049000560000008
B0822534743700N01226195EA0049000560000004
B0822574743700N01226195EA0049000560000008
B0823014743700N01226200EA0049000560007004
B0823054743704N01226200EA0049000560007004
B0823094743700N01226200EA0049000560007004
B0823134743700N01226200EA0049000560007004
B0823174743700N01226204EA0049000560007000
B0823214743704N01226200EA0049000560007000
B0823254743700N01226200EA0049000568007000
B0823294743700N01226200EA0049000568007000
B0823334743700N01226200EA0049000568007000
B0823374743700N01226200EA0049000568007000
B0823414743700N01226200EA0049000568007000
B0823454743700N01226200EA0049000568007000
B0823494743700N01226200EA0049000568007000
B0823534743704N01226200EA0049000568007000
B0823574743704N01226200EA0049000576007000
B0824014743704N01226200EA0049000576007000
B0824054743704N01226200EA0049000568007000
B0824094743704N01226200EA0049000568007000
B0824134743704N01226200EA0049000568007000
B0824174743704N01226200EA0049000568007000
B0824214743704N01226200EA0049000568007000
B0824254743704N01226200EA0049000568007000
B0824294743704N01226200EA0049000568007000
B0824334743704N01226200EA0049000568007000
B0824374743704N01226200EA0049000568007000
B0824414743704N01226200EA0049000568007000
B0824454743704N01226200EA0049000568007000
B0824494743704N01226200EA0049000568007000
B0824534743704N01226200EA0049000568007000
B0824574743704N01226204EA0049000568007000
B0825014743704N01226208EA0049000568007000
B0825054743708N01226212EA0049000568007000
B0825094743708N01226212EA0049000568007004
B0825134743708N01226216EA0049000568007000
B0825174743708N01226220EA0049000568007012
B0825214743708N01226220EA0049000568007008
B0825254743708N01226220EA0049000568007004
B0825294743708N01226220EA0049000560007008
B0825334743708N01226220EA0049000560007000
B0825374743712N01226220EA0049000560007000
B0825414743708N01226220EA0049000560007000
B0825454743708N01226220EA0049000560007000
B0825494743708N01226220EA0049000560007000
B0825534743708N01226220EA0049000560007000
B0825574743708N01226220EA0049000568009000
B0826014743708N01226220EA0049000568009000
B0826054743708N01226220EA0049000568009000
B0826094743708N01226220EA0049000568007000
B0826134743708N01226220EA0049000568009000
B0826174743708N01226220EA0049000560009000
B0826214743708N01226220EA0049000560009000
B0826254743708N01226220EA0049000560009000
B0826294743708N01226220EA0049000560000000
B0826334743708N01226220EA0048800560009000
B0826374743708N01226220EA0048800560009000
B0826414743708N01226220EA0048800560009000
B0826454743708N01226220EA0048800560007000
B0826494743708N01226220EA0048800560009000
B0826534743708N01226220EA0048800560009000
B0826574743708N01226220EA0048800568009000
B0827014743708N01226216EA0048800568007000
B0827054743708N01226216EA0048800568007000
B0827094743708N01226216EA0048800568009000
B0827134743708N01226216EA0048700568009000
B0827174743708N01226216EA0048700568009000
B0827214743708N01226216EA0048800568007000
B0827254743708N01226216EA0048800568009000
B0827294743708N01226216EA0048800568007000
B0827334743708N01226216EA0048800568009000
B0827374743708N01226220EA0048800560007000
B0827414743708N01226220EA0048800560009000
B0827454743708N01226220EA0049000560009000
B0827494743708N01226220EA0049000560009000
B0827534743708N01226220EA0049000560009000
B0827574743708N01226220EA0049100560009000
B0828014743708N01226220EA0049100560007000
B0828054743708N01226220EA0049100560012000
B0828094743708N01226220EA0049100560009000
B0828134743708N01226220EA0049100560007000
B0828174743708N01226220EA0049100560007000
B0828214743708N01226220EA0049100560007000
B0828254743708N01226220EA0049100560009000
B0828294743708N01226220EA0049100560012000
B0828334743708N01226220EA0049100560009000
B0828374743708N01226220EA0049100560009000
B0828414743708N01226220EA0049100560007000
B0828454743708N01226220EA0049100560009000
B0828494743712N01226220EA0049100560007000
B0828534743712N01226220EA0049100560007000
B0828574743712N01226220EA0049100560007000
B0829014743712N01226220EA0048800560007000
B0829054743712N01226220EA0049100560012000
B0829094743712N01226220EA0049100560009004
B0829134743712N01226220EA0049100560009000
B0829174743712N01226220EA0049000560009000
B0829214743708N01226220EA0049000560009000
B0829254743708N01226220EA0049000560009000
B0829294743708N01226220EA0049000560009000
B0829334743708N01226220EA0049000552007000
B0829374743708N01226220EA0049000552009000
B0829414743708N01226220EA0049000560009000
B0829454743708N01226220EA0049000560009000
B0829494743708N01226220EA0049000560009000
B0829534743708N01226220EA0049000560009000
B0829574743708N01226220EA0049000552009000
B0830014743708N01226220EA0049000560009000
B0830054743708N01226220EA0049000560009000
B0830094743708N01226220EA0049000560009000
B0830134743708N01226220EA0049000560009000
B0830174743708N01226220EA0049000552009000
B0830214743708N01226220EA0049000552009000
B0830254743708N01226220EA0049000552009000
B0830294743708N01226220EA0049000552009000
B0830334743708N01226220EA0049000552009000
B0830374743708N01226220EA0049000552009000
B0830414743708N01226220EA0049000552007000
B0830454743708N01226220EA0049000560009000
B0830494743708N01226220EA0049000560007000
B0830534743708N01226220EA0049000560009000
B0830574743708N01226220EA0049000552009000
B0831014743708N01226220EA0049000552009000
B0831054743708N01226220EA0049000552009000
B0831094743708N01226220EA0049000552009000
B0831134743704N01226220EA0049000552009000
B0831174743704N01226220EA0049000552009000
B0831214743704N01226220EA0049000552009000
B0831254743704N01226220EA0049000552009000
B0831294743704N01226220EA0049000552009000
B0831334743704N01226220EA0049000552009000
B0831374743708N01226220EA0049000544009000
B0831414743708N01226220EA0049000544009000
B0831454743708N01226220EA0049000544009000
B0831494743708N01226220EA0049000544009000
B0831534743708N01226220EA0049000544009000
B0831574743708N01226220EA0049000544009000
B0832014743708N01226220EA0049000544009000
B0832054743708N01226220EA0049000544009000
B0832094743708N01226220EA0049000544009000
B0832134743708N01226225EA0049000544009000
B0832174743708N01226225EA0049000544009000
B0832214743708N01226225EA0049000544009000
B0832254743708N01226225EA0049000544009000
B0832294743708N01226225EA0049000544009000
B0832334743708N01226225EA0049000544009000
B0832374743708N01226225EA0049000544009000
B0832414743708N01226225EA0049000544009000
B0832454743708N01226225EA0049000544009000
B0832494743708N01226225EA0049000544009000
B0832534743708N01226225EA0049000544009000
B0832574743708N01226225EA0049000544009000
B0833014743708N01226225EA0049000552007000
B0833054743708N01226225EA0049000552007000
B0833094743708N01226225EA0049000552009000
B0833134743708N01226220EA0049000552007000
B0833174743708N01226220EA0049000552007000
B0833214743708N01226220EA0049000552007000
B0833254743708N01226220EA0049000552007000
B0833294743708N01226220EA0049000552007000
B0833334743708N01226220EA0049000552007000
B0833374743708N01226220EA0049000552007000
B0833414743708N01226220EA0049100552007000
B0833454743708N01226220EA0049100552007000
B0833494743708N01226220EA0049000552007000
B0833534743708N01226220EA0049000552007000
B0833574743708N01226220EA0049000552009000
B0834014743708N01226220EA0049000552009000
B0834054743708N01226220EA0049000552007000
B0834094743708N01226220EA0049000552007000
B0834134743708N01226220EA0049000552009000
B0834174743708N01226220EA0049000552009000
B0834214743704N01226220EA0049000552009000
B0834254743704N01226220EA0049000552007000
B0834294743704N01226220EA0049000552007000
B0834334743704N01226220EA0049000552009000
B0834374743708N01226220EA0049000552007000
B0834414743708N01226220EA0049000552007000
B0834454743708N01226220EA0049000552007000
B0834494743708N01226220EA0049000552009000
B0834534743708N01226220EA0049000552009000
B0834574743708N01226220EA0049000552007000
B0835014743708N01226220EA0049000552007000
B0835054743708N01226220EA0049000552009000
B0835094743708N01226220EA0049000560009000
B0835134743708N01226220EA0049000560007000
B0835174743708N01226220EA0049000560007000
B0835214743708N01226220EA0049000560009000
B0835254743708N01226220EA0049000560000000
B0835294743708N01226220EA0049000560009000
B0835334743708N01226220EA0049000552009000
B0835374743708N01226220EA0049000552009000
B0835414743708N01226220EA0049000552009000
B0835454743708N01226220EA0049000552009000
B0835494743708N01226220EA0049000552007000
B0835534743708N01226220EA0049000560009000
B0835574743708N01226220EA0049000560009000
B0836014743708N01226220EA0049000560007000
B0836054743708N01226220EA0049000560009000
B0836094743708N01226220EA0049000560009000
B0836134743708N01226220EA0049000560009004
B0836174743708N01226220EA0049000560009000
B0836214743708N01226220EA0049100560007004
B0836254743708N01226220EA0049100560007004
B0836294743708N01226220EA0049100560009004
B0836334743708N01226220EA0049100560009004
B0836374743708N01226220EA0049100560000000
B0836414743708N01226220EA0049000560009000
B0836454743708N01226220EA0049000560000000
B0836494743708N01226220EA0049000560009000
B0836534743708N01226220EA0049000560009000
B0836574743712N01226220EA0049000560007000
B0837014743712N01226220EA0049000560000000
B0837054743712N01226220EA0049100560009000
B0837094743712N01226220EA0049100560007000
B0837134743712N01226220EA0049100560009000
B0837174743712N01226220EA0049100560007000
B0837214743712N01226220EA0049100560009000
B0837254743712N01226220EA0049100560000000
B0837294743712N01226220EA0049100560009000
B0837334743712N01226220EA0049100560009000
B0837374743712N01226220EA0049100560009000
B0837414743712N01226220EA0049100560007000
B0837454743712N01226220EA0049100560007000
B0837494743712N01226220EA0049100560009000
B0837534743712N01226220EA0049100560007000
B0837574743712N01226220EA0049100560000004
B0838014743712N01226220EA0049100560007000
B0838054743712N01226220EA0049100560007004
B0838094743712N01226220EA0049100560009004
B0838134743712N01226220EA0049100560009000
B0838174743712N01226220EA0049100560000000
B0838214743712N01226216EA0049100560007000
B0838254743712N01226216EA0049100560009000
B0838294743712N01226216EA0049100552007000
B0838334743712N01226216EA0049100552007000
B0838374743712N01226216EA0049100552007000
B0838414743712N01226216EA0049100552007000
B0838454743712N01226216EA0049100552007000
B0838494743712N01226216EA0049100552007000
B0838534743712N01226216EA0049000560007000
B0838574743712N01226216EA0049100560009000
B0839014743712N01226216EA0049100560007000
B0839054743712N01226216EA0049100560007000
B0839094743712N01226216EA0049100560007000
B0839134743712N01226216EA0049100568007000
B0839174743712N01226216EA0049100568007000
B0839214743712N01226216EA0049100568007000
B0839254743712N01226216EA0049000568007000
B0839294743712N01226216EA0049100568009000
B0839334743712N01226216EA0049100560000000
B0839374743712N01226220EA0049100560007000
B0839414743712N01226220EA0049100560007000
B0839454743712N01226216EA0049100560007000
B0839494743712N01226216EA0049100560007000
B0839534743712N01226220EA0049100560007000
B0839574743712N01226220EA0049100560007000
B0840014743712N01226216EA0049100560007000
B0840054743712N01226216EA0049100560007000
B0840094743712N01226216EA0049100560007000
B0840134743712N01226216EA0049100560000000
B0840174743712N01226216EA0049100560007000
B0840214743712N01226216EA0049100560000000
B0840254743712N01226216EA0049100560007000
B0840294743712N01226216EA0049100560007000
B0840334743708N01226216EA0049100560007000
B0840374743708N01226216EA0049100552007000
B0840414743712N01226216EA0049200552007000
B0840454743712N01226216EA0049200560007000
B0840494743712N01226216EA0049200560007000
B0840534743712N01226216EA0049200560007000
B0840574743712N01226216EA0049200560007000
B0841014743708N01226216EA0049100560000000
B0841054743708N01226216EA0049100560007000
B0841094743712N01226216EA0049100560000000
B0841134743712N01226216EA0049100560007000
B0841174743712N01226216EA0049100560007000
B0841214743712N01226216EA0049100560007000
B0841254743708N01226216EA0049100560007000
B0841294743712N01226216EA0049100560007000
B0841334743712N01226216EA0049100560007000
B0841374743712N01226216EA0049100560007000
B0841414743712N01226216EA0049100560007000
B0841454743712N01226216EA0049100560007000
B0841494743712N01226216EA0049100560007000
B0841534743708N01226216EA0049100560007000
B0841574743708N01226216EA0049100560007000
B0842014743712N01226216EA0049100560007000
B0842054743712N01226216EA0049100560007000
B0842094743712N01226216EA0049100560007000
B0842134743712N01226216EA0049100560007000
B0842174743712N01226216EA0049100560007000
B0842214743712N01226216EA0049100560000000
B0842254743712N01226216EA0049100560007000
B0842294743712N01226216EA0049100560007000
B0842334743712N01226216EA0049100560007000
B0842374743712N01226216EA0049100560007000
B0842414743712N01226216EA0049100560007000
B0842454743712N01226216EA0049100560007000
B0842494743712N01226216EA0049100560007000
B0842534743712N01226216EA0049100560007000
B0842574743712N01226216EA0049100560007000
B0843014743712N01226216EA0049000560000000
B0843054743712N01226216EA0049000568000000
B0843094743712N01226216EA0049000568000000
B0843134743712N01226216EA0049000568000000
B0843174743712N01226216EA0049000568000000
B0843214743712N01226216EA0049000568000000
B0843254743712N01226216EA0049000568000016
B0843294743712N01226216EA0049000568000008
B0843334743712N01226220EA0049000568000000
B0843374743712N01226216EA0049000568000008
B0843414743712N01226216EA0049000560000004
B0843454743712N01226216EA0049000560000000
B0843494743712N01226216EA0049000560000000
B0843534743712N01226216EA0049000560000000
B0843574743712N01226216EA0049000560000000
B0844014743712N01226216EA0049000560000000
B0844054743712N01226216EA0049000560000000
B0844094743712N01226216EA0049000560000000
B0844134743712N01226216EA0049000560000000
B0844174743712N01226216EA0049000560000000
B0844214743712N01226216EA0049000560000000
B0844254743712N01226216EA0049000560000000
B0844294743712N01226216EA0049000560000000
B0844334743712N01226216EA0049000560000000
B0844374743712N01226216EA0049000560000000
B0844414743712N01226216EA0049000560000000
B0844454743712N01226216EA0049000560000000
B0844494743708N01226216EA0049000560000000
B0844534743712N01226216EA0049100560000004
B0844574743712N01226216EA0049000560000000
B0845014743712N01226216EA0049000560000000
B0845054743712N01226216EA0049000560000000
B0845094743712N01226216EA0049000560000016
B0845134743708N01226216EA0049000560000008
B0845174743708N01226216EA0049000560000000
B0845214743708N01226216EA0049100560000008
B0845254743708N01226216EA0049000560000000
B0845294743708N01226216EA0049000560000000
B0845334743708N01226216EA0049000560000000
B0845374743708N01226216EA0049000560000000
B0845414743708N01226216EA0049100560000000
B0845454743712N01226216EA0049000560000000
B0845494743712N01226216EA0049000560000000
B0845534743712N01226216EA0049000560000000
B0845574743712N01226216EA0049100560000000
B0846014743712N01226216EA0049000560000000
B0846054743712N01226216EA0049000568000000
B0846094743712N01226216EA0049100560000000
B0846134743712N01226216EA0049100560000004
B0846174743712N01226216EA0049100560000000
B0846214743712N01226216EA0049100560000004
B0846254743712N01226216EA0049100560000004
B0846294743712N01226216EA0049100568000004
B0846334743708N01226216EA0049100560000004
B0846374743708N01226216EA0049100560000004
B0846414743708N01226216EA0049100560000004
B0846454743708N01226216EA0049100560000004
B0846494743708N01226216EA0049100560000004
B0846534743708N01226216EA0049100560000004
B0846574743712N01226216EA0049100568000004
B0847014743712N01226216EA0049100568000004
B0847054743712N01226216EA0049100568000004
B0847094743712N01226216EA0049100560000004
B0847134743712N01226216EA0049100560000004
B0847174743712N01226216EA0049100560000004
B0847214743708N01226216EA0049100560000004
B0847254743708N01226216EA0049100560007004
B0847294743708N01226216EA0049100560000004
B0847334743712N01226216EA0049000560000004
B0847374743712N01226216EA0049000560000004
B0847414743712N01226216EA0049100560000000
B0847454743712N01226216EA0049100560000000
B0847494743712N01226216EA0049100560000000
B0847534743712N01226216EA0049100560000000
B0847574743712N01226216EA0049100560000000
B0848014743712N01226220EA0049100560000000
B0848054743712N01226220EA0049100560000000
B0848094743712N01226220EA0049100560000000
B0848134743712N01226220EA0049100560000000
B0848174743712N01226220EA0049100560000000
B0848214743712N01226220EA0049100560000000
B0848254743712N01226220EA0049100560000000
B0848294743712N01226220EA0049100560000004
B0848334743712N01226220EA0049100560000000
B0848374743712N01226220EA0049100560000004
B0848414743712N01226220EA0049100552000004
B0848454743712N01226220EA0049100560000004
B0848494743712N01226220EA0049100560007004
B0848534743712N01226220EA0049100560000004
B0848574743712N01226220EA0049100560000004
B0849014743712N01226220EA0049100560000004
B0849054743712N01226220EA0049100560000004
B0849094743712N01226220EA0049100560000000
B0849134743712N01226220EA0049100560000000
B0849174743712N01226220EA0049100560000004
B0849214743712N01226216EA0049100568000000
B0849254743712N01226216EA0049100568000000
B0849294743712N01226216EA0049100568000000
B0849334743712N01226216EA0049100568000000
B0849374743712N01226216EA0049100568000000
B0849414743712N01226216EA0049100568000000
B0849454743712N01226216EA0049100560000000
B0849494743712N01226216EA0049100560000000
B0849534743712N01226216EA0049100560007000
B0849574743712N01226216EA0049100560000000
B0850014743712N01226216EA0049100560000000
B0850054743712N01226216EA0049100560000000
B0850094743712N01226216EA0049100560000000
B0850134743712N01226216EA0049100560000000
B0850174743712N01226220EA0049100560000000
B0850214743712N01226216EA0049100560000000
B0850254743712N01226216EA0049100560009000
B0850294743712N01226216EA0049100560007000
B0850334743712N01226216EA0049100560000000
B0850374743712N01226220EA0049100560000004
B0850414743712N01226220EA0049100560000000
B0850454743712N01226220EA0049100560000008
B0850494743712N01226220EA0049100568000008
B0850534743712N01226220EA0049100568000000
B0850574743712N01226220EA0049100568000004
B0851014743712N01226220EA0049100568000016
B0851054743712N01226220EA0049100568000008
B0851094743712N01226220EA0049100568000020
B0851134743712N01226220EA0049100568000016
B0851174743712N01226220EA0049100568000000
B0851214743712N01226220EA0049100568000008
B0851254743712N01226220EA0049100568000000
B0851294743712N01226220EA0049100568000000
B0851334743712N01226220EA0049100568000004
B0851374743712N01226220EA0049100568000000
B0851414743712N01226220EA0049100568000004
B0851454743712N01226220EA0049100568007004
B0851494743712N01226220EA0049100568000004
B0851534743708N01226220EA0049100568000004
B0851574743708N01226220EA0049100568000012
B0852014743708N01226220EA0049100560000008
B0852054743708N01226220EA0049100568007008
B0852094743708N01226220EA0049100568007008
B0852134743708N01226220EA0049100568000000
B0852174743708N01226216EA0049100568007004
B0852214743708N01226216EA0049100568007008
B0852254743708N01226216EA0049100568007004
B0852294743708N01226220EA0049100568007004
B0852334743708N01226220EA0049100568007008
B0852374743708N01226220EA0049100568000000
B0852414743708N01226220EA0049100568000000
B0852454743708N01226216EA0049100568007000
B0852494743708N01226216EA0049100568000000
B0852534743708N01226216EA0049100568000000
B0852574743708N01226216EA0049100568007000
B0853014743708N01226216EA0049100568007000
B0853054743708N01226216EA0049100568009000
B0853094743708N01226220EA0049100568009004
B0853134743708N01226220EA0049100568009000
B0853174743708N01226220EA0049100568007012
B0853214743708N01226220EA0049100560009008
B0853254743708N01226220EA0049100560007004
B0853294743708N01226220EA0049100560007008
B0853334743708N01226220EA0049100560009004
B0853374743708N01226220EA0049100560009004
B0853414743708N01226220EA0049100560009000
B0853454743708N01226220EA0049200568009000
B0853494743708N01226220EA0049200568007000
B0853534743708N01226220EA0049100568009000
B0853574743708N01226220EA0049100568012000
B0854014743708N01226220EA0049100568009000
B0854054743708N01226220EA0049100568009000
B0854094743708N01226220EA0049100568009000
B0854134743708N01226220EA0049100568009000
B0854174743708N01226220EA0049100568007000
B0854214743708N01226220EA0049100568007000
B0854254743708N01226220EA0049100568009000
B0854294743708N01226220EA0049100568009000
B0854334743708N01226220EA0049100568012000
B0854374743708N01226220EA0049100568009000
B0854414743708N01226220EA0049100568009000
B0854454743708N01226220EA0049100568007000
B0854494743708N01226220EA0049100568007000
B0854534743708N01226220EA0049100568007000
B0854574743708N01226220EA0049200568007000
B0855014743708N01226220EA0049200568007000
B0855054743708N01226220EA0049200576007000
B0855094743708N01226220EA0049200576007000
B0855134743708N01226220EA0049200568009000
B0855174743708N01226220EA0049200568000000
B0855214743712N01226229EA0049000568036000
B0855254743745N01226295EA0048600568105032
B0855294743787N01226362EA0055600632126016
B0855334743829N01226437EA0062100704119076
B0855374743870N01226512EA0068100752117056
B0855414743916N01226600EA0074200832136064
K085541020011
B0855454743958N01226687EA0079800888112072
B0855494743991N01226762EA0079200880099060
B0855534743995N01226858EA0078200872104064
B0855574743970N01226945EA0076900864106052
B0856014743912N01227004EA0076800856101056
K085601090002
B0856054743850N01227004EA0076400848096048
B0856094743795N01226954EA0074500832099048
B0856134743754N01226862EA0073200816117464
B0856174743716N01226758EA0072000808128920
B0856214743679N01226645EA0071200800132999
K085621090002
B0856254743641N01226537EA0072500808125999
B0856294743604N01226437EA0075200840108999
B0856334743570N01226354EA0077200864098999
B0856374743537N01226270EA0078900872092999
B0856414743508N01226191EA0080500896087999
K085641096009
B0856454743487N01226104EA0081400904088999
B0856494743483N01226012EA0082600912091999
B0856534743495N01225925EA0083800920090999
B0856544743504N01225904EA0084000928091999
B0856554743508N01225883EA0084200928090999
B0856564743516N01225862EA0084500936090999
B0856574743525N01225841EA0084700936093999
B0856584743533N01225820EA0084700936092999
B0856594743541N01225800EA0084900936096999
B0857004743554N01225783EA0085000936097999
B0857014743566N01225766EA0085200944099999
K085701098006
B0857024743579N01225750EA0085500944101999
B0857034743591N01225737EA0085800944101999
B0857044743604N01225725EA0086300952100999
B0857054743620N01225716EA0086700952098999
B0857094743679N01225708EA0088300968089999
B0857134743733N01225725EA0089100976095999
B0857174743791N01225762EA0090100984097999
B0857214743837N01225820EA0090901000099999
K085721098006
B0857254743870N01225895EA0092001008095999
B0857294743887N01225979EA0093301016093999
B0857334743895N01226066EA0094401032093999
B0857374743883N01226158EA0095001040096999
B0857414743862N01226245EA0096301048095999
K085741098006
B0857454743833N01226329EA0097001056097999
B0857494743791N01226404EA0098301072098999
B0857534743745N01226470EA0099601080096999
B0857574743695N01226529EA0101101096097999
B0858014743641N01226579EA0102301112095999
K085801098006
B0858054743579N01226616EA0103401128096999
B0858094743520N01226629EA0104701136094999
B0858134743458N01226612EA0105801144093999
B0858174743400N01226566EA0106401152093999
B0858214743354N01226495EA0107001160097999
K085821098006
B0858254743329N01226400EA0108601176099999
B0858294743295N01226312EA0110401192095999
B0858334743262N01226233EA0111101200098999
B0858374743233N01226145EA0112701216092999
B0858414743229N01226054EA0113901232097999
K085841104008
B0858454743254N01225966EA0114901240098999
B0858494743312N01225920EA0116101256097999
B0858534743375N01225925EA0117701272093999
B0858574743429N01225970EA0118801280092999
B0859014743470N01226037EA0120501296089999
K085901104008
B0859054743504N01226120EA0121401312092999
B0859094743520N01226212EA0122601320092999
B0859134743525N01226304EA0123801328088999
B0859174743512N01226391EA0125001344087999
B0859214743483N01226475EA0125901360090999
K085921104008
B0859254743445N01226545EA0126901368086999
B0859294743404N01226616EA0127501368090999
B0859334743350N01226670EA0128401384087999
B0859374743295N01226708EA0129001392087999
B0859414743237N01226733EA0129801400088999
K085941104008
B0859454743179N01226729EA0130801408089999
B0859494743120N01226700EA0132101416087999
B0859534743075N01226658EA0133201432086999
B0859574743033N01226600EA0134501440087999
B0900014743000N01226529EA0135401448089999
K090001104008
B0900054742970N01226454EA0135501456086999
B0900094742945N01226379EA0136001456086999
B0900134742925N01226295EA0137001472086999
B0900174742916N01226204EA0137401472095999
B0900214742929N01226116EA0139001488093999
K090021068005
B0900254742962N01226045EA0139901496090999
B0900294743008N01225991EA0141701512088999
B0900334743062N01225950EA0143301536090999
B0900374743125N01225925EA0144001536093999
B0900414743191N01225920EA0144101536104999
K090041068005
B0900454743262N01225912EA0145001552103999
B0900494743329N01225895EA0147401568099999
B0900534743391N01225870EA0148101584101999
B0900574743450N01225837EA0149001592103999
B0901014743512N01225795EA0150801608100999
K090101090004
B0901024743525N01225787EA0150801608100999
B0901034743541N01225775EA0151201616098999
B0901044743554N01225766EA0151301616098999
B0901054743570N01225754EA0152201624098999
B0901064743583N01225745EA0152501624098999
B0901074743595N01225733EA0152501624098999
B0901084743612N01225725EA0152701632097999
B0901094743625N01225712EA0153001632098999
B0901104743637N01225700EA0153301632098999
B0901114743654N01225691EA0153301632100999
B0901134743679N01225666EA0153901640102999
B0901174743737N01225620EA0154801648101999
B0901214743791N01225575EA0156001664102999
K090121270002
B0901254743850N01225529EA0156801672102999
B0901294743904N01225483EA0158301688100999
B0901334743962N01225437EA0159101696100999
B0901374744020N01225387EA0159801696104999
B0901414744075N01225333EA0159901704107999
K090141270004
B0901454744133N01225279EA0160401704107999
B0901494744187N01225220EA0160501712106999
B0901534744245N01225166EA0160601712103999
B0901574744300N01225116EA0160701712106999
B0902014744358N01225075EA0160601712109999
K090201252009
B0902054744420N01225041EA0161101712106999
B0902094744483N01225012EA0161201720103999
B0902134744545N01224979EA0161501720103999
B0902174744604N01224945EA0161401712101999
B0902214744662N01224916EA0160301704100999
K090221260012
B0902254744720N01224883EA0160201696098999
B0902294744775N01224850EA0159801696103916
B0902334744825N01224808EA0159801696092736
B0902374744875N01224758EA0159001688096772
B0902414744920N01224691EA0158401680099852
K090241314004
B0902454744962N01224604EA0157501680094724
B0902494744995N01224520EA0157601680102708
B0902534745029N01224429EA0158501688098832
B0902574745045N01224333EA0158801688094948
B0903014745037N01224237EA0159301696087956
K090301276009
B0903054745000N01224158EA0159501696093584
B0903094744945N01224108EA0158701688100376
B0903134744875N01224091EA0156701672101332
B0903174744808N01224095EA0156701672095296
B0903214744745N01224108EA0157501672085248
K090321276009
B0903254744687N01224125EA0158001680086184
B0903294744629N01224145EA0155601672108092
B0903334744558N01224191EA0152601632124136
B0903374744495N01224254EA0153401624100076
B0903384744487N01224266EA0153901632096084
B0903394744475N01224283EA0153901640092076
B0903404744462N01224295EA0153901640084076
B0903414744450N01224308EA0153701632079076
K090341348005
B0903424744441N01224325EA0153401632081076
B0903434744429N01224341EA0152801632086052
B0903444744420N01224354EA0152301624087064
B0903454744412N01224375EA0151701624086056
B0903464744404N01224395EA0151601616089056
B0903474744395N01224412EA0151401616091032
B0903494744379N01224454EA0151101616089044
B0903534744366N01224537EA0150401608086044
B0903574744375N01224625EA0149701600089040
B0904014744404N01224700EA0149301592090028
K090401296004
B0904054744454N01224750EA0148901592087036
B0904094744508N01224779EA0147901576093024
B0904134744570N01224783EA0147001568104024
B0904174744641N01224766EA0146101560103016
B0904214744708N01224750EA0145401560109020
K090421296004
B0904254744779N01224737EA0145101552110016
B0904294744845N01224704EA0145001552110016
B0904334744916N01224675EA0145001552105016
B0904374744970N01224604EA0143901536109016
B0904414744975N01224487EA0143101536112020
K090441296004
B0904454744920N01224395EA0141101512134016
B0904494744854N01224312EA0140901512134020
B0904534744812N01224195EA0142601528131020
B0904574744808N01224070EA0143201536128024
B0905014744837N01223950EA0142201520134024
K090501296004
B0905054744870N01223829EA0141601512139024
B0905094744895N01223704EA0141501512137024
B0905134744916N01223579EA0141101512129020
B0905174744933N01223454EA0140801504124024
B0905214744950N01223333EA0140801512121020
K090521198003
B0905254744979N01223220EA0140301504125020
B0905294745012N01223108EA0140301504120020
B0905334745029N01223000EA0140801512109020
B0905374745020N01222891EA0141601512114024
B0905414744975N01222812EA0142101520106024
K090541180004
B0905454744920N01222758EA0142301520102020
B0905494744854N01222779EA0142001520106024
B0905534744812N01222866EA0141501512111016
B0905574744804N01222975EA0141901520112016
B0906014744800N01223075EA0142101520105016
K090601180004
B0906054744787N01223179EA0140801512113016
B0906094744775N01223287EA0139901496115020
B0906134744758N01223395EA0138501488120016
B0906174744733N01223508EA0137401472122020
B0906214744712N01223620EA0136101464122020
K090621026004
B0906254744691N01223737EA0135401456130020
B0906294744662N01223850EA0135301456131020
B0906334744625N01223954EA0135401456130020
B0906374744591N01224054EA0137901480112020
B0906414744633N01224125EA0139701496099024
K090641030008
B0906454744695N01224079EA0138301496115024
B0906494744675N01223983EA0140701512092020
B0906534744616N01223970EA0139201504106024
B0906574744570N01224041EA0140201504106020
B0907014744550N01224125EA0142801528094020
K090701140002
B0907054744558N01224204EA0143501544079016
B0907084744591N01224245EA0143101536093016
B0907094744604N01224258EA0143001536090016
B0907104744616N01224266EA0142801536093016
B0907114744629N01224279EA0142801536093000
B0907124744645N01224287EA0142701536089008
B0907134744658N01224295EA0142801536092012
B0907144744670N01224304EA0143101536092008
B0907154744687N01224312EA0143501544090012
B0907164744700N01224316EA0143601544089012
B0907174744716N01224316EA0143601544084028
B0907184744729N01224312EA0143601544081020
B0907194744745N01224304EA0143601544082016
B0907214744770N01224283EA0143601544088024
K090721156005
B0907254744808N01224200EA0143601544086000
B0907294744804N01224108EA0144701552087008
B0907334744754N01224058EA0143701544097012
B0907374744687N01224033EA0142301528117008
B0907414744612N01224004EA0142201528120028
K090741144010
B0907454744541N01223962EA0145501552102020
B0907494744487N01223970EA0146201568088020
B0907534744491N01224054EA0143501544107024
B0907574744566N01224058EA0143401536115016
B0908014744608N01223966EA0144001552107016
K090801142010
B0908054744625N01223858EA0146501560111016
B0908094744679N01223820EA0148501592086016
B0908134744708N01223887EA0145601560100016
B0908174744658N01223966EA0144401544119016
B0908214744575N01223979EA0144701552126016
K090821142010
B0908254744504N01224008EA0146901568112016
B0908294744487N01224091EA0147801584098020
B0908334744525N01224162EA0147001576104016
B0908374744595N01224175EA0146901576109020
B0908414744670N01224162EA0146601568113020
K090841142010
B0908454744733N01224200EA0147501576101016
B0908494744762N01224279EA0147901584094016
B0908534744750N01224370EA0147301576102020
B0908544744741N01224395EA0147101576103016
B0908554744725N01224412EA0147001576102016
B0908564744712N01224425EA0147001568099016
B0908574744695N01224437EA0147001568100016
B0908584744679N01224441EA0147001568095016
B0908594744662N01224441EA0147001568095016
B0909004744645N01224437EA0146901568094016
B0909014744629N01224429EA0146901568098016
B0909024744616N01224416EA0146801568093016
K090902142010
B0909034744604N01224395EA0146801568101016
B0909044744591N01224375EA0146801568096016
B0909054744587N01224354EA0146901568096016
B0909094744579N01224250EA0147101576095016
B0909134744591N01224150EA0148001576095016
B0909174744587N01224050EA0148501592089016
B0909214744537N01223991EA0147101576111016
K090921142010
B0909254744475N01224029EA0147101576111016
B0909294744466N01224129EA0148001584100016
B0909334744520N01224179EA0148101584098016
B0909344744537N01224179EA0148101584097016
B0909354744554N01224170EA0148101584098016
B0909364744570N01224162EA0148101584097016
B0909374744579N01224145EA0148101584099016
B0909384744591N01224125EA0148301584098016
B0909394744600N01224104EA0148501592098016
B0909404744604N01224079EA0148501592097016
B0909414744608N01224054EA0149001592095016
K090941142010
B0909424744612N01224033EA0149701600087016
B0909434744612N01224008EA0150501600082016
B0909454744612N01223962EA0150401608084016
B0909494744579N01223883EA0149201600096016
B0909534744512N01223845EA0147901584110016
B0909574744441N01223825EA0147801584110016
B0910014744375N01223841EA0149301600092016
K091001116006
B0910054744341N01223908EA0149601608081016
B0910094744345N01223995EA0148401592094016
B0910134744387N01224070EA0148001584097016
B0910174744445N01224120EA0147801584105016
B0910204744483N01224170EA0147301584110016
B0910214744495N01224191EA0147101576110016
K091021050003
B0910224744508N01224212EA0147101576115016
B0910234744516N01224233EA0146901576113016
B0910244744529N01224254EA0146901576112016
B0910254744541N01224275EA0146901568115016
B0910264744554N01224291EA0146801568118016
B0910274744570N01224312EA0146801568122016
B0910284744583N01224329EA0146801576119016
B0910294744600N01224345EA0146801576120016
B0910304744612N01224362EA0146801576118016
B0910314744625N01224383EA0146801576116020
B0910324744641N01224400EA0146801576117016
B0910334744654N01224416EA0146901576113020
B0910374744720N01224420EA0148001584095020
B0910414744766N01224350EA0147301584096020
K091041050003
K091041050003
B0910454744766N01224245EA0147101576107020
B0910494744716N01224170EA0147801592108016
B0910534744658N01224112EA0148301592108016
B0910574744591N01224062EA0148501592108016
B0911014744529N01224083EA0148701592101016
K091101050003
B0911054744512N01224175EA0148001584104020
B0911084744537N01224237EA0147901584108016
B0911094744554N01224254EA0147901584108016
B0911104744566N01224262EA0148101584109016
B0911114744583N01224270EA0148101592108016
B0911124744600N01224279EA0148301592104016
B0911134744616N01224287EA0148301592104020
B0911144744633N01224295EA0148301592106016
B0911154744650N01224304EA0148301592106020
B0911164744666N01224312EA0148301592104020
B0911174744683N01224316EA0148301592106016
B0911184744700N01224325EA0148801592108016
B0911194744716N01224329EA0149101600103016
B0911214744750N01224341EA0150001608109016
K091121074006
B0911254744820N01224325EA0150501608100016
B0911294744862N01224233EA0150701616117016
B0911334744837N01224137EA0151901624103016
B0911374744770N01224095EA0151101616115016
B0911414744695N01224129EA0150701616117020
K091141106005
B0911454744650N01224225EA0153001632114016
B0911494744658N01224320EA0154701656099020
B0911504744666N01224337EA0154801656095020
B0911514744679N01224354EA0154801656096016
B0911524744695N01224366EA0154801656106016
B0911534744708N01224375EA0154701656114016
B0911544744725N01224383EA0154601656117016
B0911554744745N01224387EA0154301648113016
B0911564744762N01224391EA0154201648117016
B0911574744779N01224387EA0154201648116016
B0911584744800N01224383EA0154201648115016
B0911594744816N01224370EA0154301648123016
B0912014744845N01224337EA0154901656124016
K091201052003
B0912054744875N01224241EA0155801664107020
B0912094744845N01224150EA0156701680095016
B0912134744783N01224116EA0156101672109020
B0912174744704N01224104EA0154801656128020
B0912214744625N01224083EA0158301672119016
K091221028004
B0912254744579N01224025EA0161401720078016
B0912294744583N01223937EA0158701704102020
B0912334744654N01223916EA0157601680126016
B0912374744700N01224000EA0158801696107016
B0912414744687N01224100EA0158801688116016
B0912454744616N01224129EA0161601712102016
B0912494744587N01224041EA0162501728101016
B0912534744633N01223962EA0161801720111020
B0912574744704N01223987EA0161701720112016
B0913014744725N01224095EA0161701720119016
K091301028003
B0913054744683N01224195EA0162001720131016
B0913094744604N01224183EA0164501744115020
B0913134744579N01224079EA0165301752111016
B0913174744637N01224000EA0165301752122020
B0913214744716N01224016EA0166801768115020
K091321052003
B0913254744733N01224120EA0167101768115016
B0913294744670N01224195EA0167901776121016
B0913334744604N01224154EA0170301800106016
B0913374744595N01224050EA0171001808104016
B0913414744654N01223983EA0171001808113020
K091341040004
B0913454744725N01224020EA0171801816119016
B0913494744745N01224129EA0172101824119016
B0913534744695N01224229EA0172801824130016
B0913574744616N01224270EA0174901840123020
B0913584744595N01224266EA0176101856114016
B0913594744579N01224258EA0176801856109020
B0914004744562N01224241EA0177401872100020
B0914014744550N01224225EA0177701872094020
K091401010007
B0914024744541N01224204EA0177701880091020
B0914034744537N01224183EA0177701880095016
B0914044744533N01224158EA0177501880100016
B0914054744537N01224133EA0176701872096016
B0914064744545N01224108EA0176301872110016
B0914074744554N01224083EA0175601864114016
B0914084744570N01224066EA0175201856118016
B0914094744587N01224054EA0174801856117016
B0914134744670N01224070EA0175401856129016
B0914174744745N01224133EA0176301864134020
B0914214744812N01224212EA0177701880132016
K091421358009
B0914254744862N01224308EA0179101896121020
B0914294744895N01224412EA0179801904121020
B0914324744916N01224500EA0179701904130020
B0914334744920N01224533EA0179701904127020
B0914344744920N01224562EA0179701904127020
B0914354744929N01224595EA0179701904123020
B0914364744933N01224625EA0179701904124020
B0914374744937N01224658EA0179701904123020
B0914384744945N01224687EA0179801904128020
B0914394744954N01224716EA0179801904127020
B0914404744962N01224741EA0180101912123020
B0914414744970N01224770EA0180601912124020
K091441348008
B0914424744975N01224795EA0181201920118020
B0914434744979N01224825EA0182201920115020
B0914454744983N01224875EA0183801936103020
B0914494744954N01224958EA0185201960090020
B0914534744879N01224970EA0183401952119004
B0914574744841N01224858EA0183701944121012
B0915014744887N01224770EA0185201960110028
K091501348008
B0915054744958N01224762EA0185601968108016
B0915094745008N01224837EA0186101968103020
B0915134745012N01224945EA0186201968113024
B0915174744966N01225045EA0187701976111016
B0915214744891N01225070EA0188001992114016
K091521098001
B0915254744841N01224987EA0188501992111020
B0915294744850N01224870EA0188802000111016
B0915334744900N01224787EA0190502008106016
B0915374744966N01224745EA0191302024100016
B0915414745029N01224775EA0191002024105016
K091541038001
B0915454745070N01224870EA0190602016117016
B0915494745079N01224987EA0190802016117020
B0915534745037N01225087EA0192702032111016
B0915574744966N01225129EA0194202048097016
B0915584744945N01225129EA0194502056095016
B0915594744929N01225125EA0194502056092020
B0916004744912N01225120EA0194602056092016
B0916014744895N01225108EA0194702056100016
K091601342006
B0916024744879N01225095EA0194702056099016
B0916034744866N01225075EA0194702056096016
B0916044744858N01225054EA0194702056106016
B0916054744850N01225029EA0194702056103016
B0916064744841N01225004EA0194602056105016
B0916074744837N01224979EA0194602056103016
B0916084744829N01224950EA0194602056107016
B0916094744825N01224925EA0194702056108016
B0916134744804N01224816EA0196302072109016
B0916174744787N01224712EA0197002080100016
B0916214744791N01224604EA0196402072110016
K091621352007
K091621352007
B0916254744820N01224500EA0195602064121020
B0916294744858N01224391EA0196702080129016
B0916334744895N01224300EA0199202096106020
B0916374744879N01224204EA0199102104103020
B0916414744808N01224170EA0198002088116020
K091641352007
B0916454744737N01224241EA0196902080115020
B0916494744704N01224354EA0197602088104016
B0916504744700N01224383EA0198102088112016
B0916514744700N01224408EA0198602096111016
B0916524744700N01224437EA0199502104107016
B0916534744700N01224462EA0200202104106020
B0916544744700N01224487EA0200702112099016
B0916554744704N01224508EA0200702120094020
B0916564744712N01224529EA0200602120095020
B0916574744725N01224545EA0200302120101016
B0916584744737N01224558EA0199902120104016
B0916594744754N01224570EA0199602112107016
B0917004744770N01224570EA0198802104111016
B0917014744787N01224566EA0198802104113000
K091701352007
B0917054744845N01224500EA0199702104105008
B0917094744837N01224404EA0202002128093028
B0917134744783N01224358EA0201802136100016
B0917164744729N01224370EA0200902128107016
B0917174744712N01224387EA0200902128110024
B0917184744695N01224408EA0200902128114016
B0917194744683N01224429EA0201202128116016
B0917204744675N01224458EA0201702128113016
B0917214744670N01224483EA0202402136111016
B0917224744670N01224512EA0203102136107016
B0917234744670N01224537EA0203202144103016
B0917244744679N01224562EA0203302152101016
B0917254744687N01224583EA0203402152100016
B0917264744700N01224595EA0203402152098016
B0917274744712N01224608EA0203402152100016
B0917294744745N01224620EA0203002152102016
B0917334744808N01224575EA0202202136110016
B0917374744837N01224483EA0204102160106016
B0917414744816N01224395EA0205802176095016
K091741346005
B0917454744754N01224370EA0204602168098016
B0917494744683N01224416EA0203702160108016
B0917534744641N01224516EA0205302168108016
B0917574744645N01224612EA0206802184095016
B0918014744691N01224662EA0206702184096020
B0918054744750N01224641EA0206002176106016
B0918094744800N01224566EA0206302176103016
B0918134744808N01224470EA0206502184102016
B0918174744770N01224383EA0206702184105016
B0918214744708N01224329EA0205502168110016
K091821330007
B0918254744633N01224279EA0202402152131016
B0918294744541N01224212EA0199902120150016
B0918324744470N01224150EA0199002112166020
B0918334744450N01224129EA0199002104168016
B0918344744425N01224104EA0198802104166024
B0918354744404N01224083EA0198402104166024
B0918364744379N01224058EA0198402096161028
B0918374744358N01224037EA0198002096162024
B0918384744333N01224012EA0197502096162028
B0918394744312N01223991EA0197102088165028
B0918404744287N01223966EA0196702088163028
B0918414744262N01223945EA0196202080168028
K091841326007
B0918424744237N01223920EA0195702080169028
B0918434744216N01223900EA0195402080169028
B0918454744170N01223850EA0194702064172028
B0918494744075N01223758EA0193502056172028
B0918534743975N01223679EA0192202040173044
B0918574743862N01223633EA0190902032172036
B0919014743754N01223583EA0189502008172016
K091901330007
K091901330007
B0919054743658N01223491EA0189002008170032
B0919094743579N01223383EA0189002008165028
B0919134743504N01223275EA0189102008157024
B0919174743429N01223162EA0189002008157028
B0919214743362N01223050EA0189002000157028
K091921318010
B0919254743295N01222937EA0188902000155024
B0919294743233N01222820EA0188001992159024
B0919334743170N01222700EA0186701984160020
B0919374743125N01222570EA0186501976154024
B0919414743087N01222437EA0186501976153024
K091941318010
B0919454743050N01222304EA0186401976152024
B0919494743020N01222175EA0186501976146024
B0919534742995N01222045EA0187001976140024
B0919574742970N01221925EA0187201984132024
B0920014742950N01221804EA0186601976127024
K092001270003
B0920054742937N01221679EA0186401976127020
B0920094742933N01221554EA0185901968126024
B0920134742933N01221425EA0184901960130024
B0920174742929N01221291EA0185201960133024
B0920214742925N01221170EA0188301984117020
B0920254742916N01221066EA0189602008099024
B0920294742875N01220983EA0189002000106024
B0920334742800N01220979EA0186601976124024
B0920374742754N01221079EA0186501976122016
B0920414742770N01221195EA0187201984117020
K092041000002
B0920454742808N01221304EA0186601976118016
B0920494742829N01221416EA0186601976116016
B0920534742850N01221529EA0187001984115020
B0920574742870N01221637EA0187001984113016
B0921014742895N01221745EA0187001984110016
K092101000002
B0921054742933N01221837EA0187201984103016
B0921094742987N01221887EA0187801992100016
B0921134743050N01221875EA0187701992101016
B0921174743095N01221804EA0187101984112016
B0921214743100N01221704EA0186001976114016
K092121090001
K092121090001
B0921254743091N01221591EA0184901960129016
B0921294743083N01221475EA0184701960127016
B0921334743075N01221358EA0184201952128016
B0921374743066N01221233EA0184101952123016
B0921414743054N01221108EA0184101952132020
K092141090001
B0921454743029N01220979EA0184001952135016
B0921494743008N01220845EA0184101952140020
B0921534742995N01220708EA0184101952144020
B0921574742979N01220575EA0184101952142020
B0922014742950N01220454EA0184301960135020
K092201172007
B0922054742895N01220354EA0184601960129020
B0922094742829N01220275EA0185101968135020
B0922134742758N01220208EA0186201976128024
B0922174742691N01220145EA0186401984123024
B0922214742612N01220095EA0184601968132024
K092221146007
B0922254742529N01220045EA0183401952138024
B0922294742445N01219987EA0183301952130020
B0922334742366N01219950EA0185601968119024
B0922374742300N01219979EA0188801992096016
B0922414742266N01220062EA0187602000105016
K092241180001
K092241180001
B0922454742308N01220158EA0186001976120020
B0922494742391N01220145EA0187501992119016
B0922534742454N01220079EA0189802008106016
B0922574742512N01220062EA0192202040085016
B0923014742550N01220129EA0189702024104016
K092301180001
B0923054742508N01220233EA0187001984138016
B0923094742429N01220295EA0187301984120016
B0923134742354N01220333EA0189602000107016
B0923174742287N01220295EA0190702016101020
B0923214742291N01220191EA0189402000118016
K092321180001
B0923254742366N01220129EA0189302000122016
B0923294742445N01220116EA0191102016115016
B0923334742516N01220120EA0192602040111016
B0923374742583N01220091EA0191702032111016
B0923414742579N01219983EA0190002016117016
K092341032008
B0923454742516N01219912EA0188702000122016
B0923494742437N01219891EA0188802000114016
B0923534742362N01219920EA0190102008104016
B0923574742300N01219975EA0190702024107020
B0924014742233N01220000EA0192202032096016
K092401032008
K092401032008
B0924054742183N01219950EA0193302040093016
B0924094742200N01219862EA0192902040104016
B0924134742270N01219870EA0192502032113016
B0924174742283N01219979EA0193102040112016
B0924214742237N01220066EA0193502048108016
K092421032008
B0924254742166N01220066EA0194502056103016
B0924294742137N01219983EA0196002072098020
B0924334742179N01219916EA0195702064102016
B0924374742250N01219958EA0195402064116016
B0924414742245N01220066EA0196602072110016
K092441296008
B0924454742183N01220087EA0196902080103016
B0924494742154N01219995EA0197602080106016
B0924534742208N01219925EA0198102088108016
B0924574742270N01219975EA0198902096106016
B0925014742262N01220075EA0200102104097016
B0925054742200N01220100EA0199802104103016
B0925094742154N01220025EA0200702112097016
B0925134742170N01219941EA0201902128090016
B0925174742233N01219920EA0201102120106016
B0925214742283N01220004EA0200802112114016
K092521290002
B0925254742262N01220100EA0203602144085016
B0925294742208N01220133EA0203302144090016
B0925334742154N01220079EA0202002128108016
B0925374742141N01219987EA0205302160089016
B0925414742175N01219925EA0206502168085000
B0925454742241N01219933EA0204302152109008
B0925494742266N01220041EA0203802144119028
B0925534742212N01220133EA0203902144117016
B0925574742141N01220137EA0205302160111016
B0926014742095N01220066EA0206502176104024
B0926054742104N01219970EA0207802184098000
B0926094742162N01219925EA0208702192096008
B0926134742225N01219970EA0209402208102028
B0926174742229N01220070EA0210802216096016
B0926214742170N01220125EA0209302200111016
K092621200002
B0926254742108N01220066EA0209702200114024
B0926294742112N01219966EA0211902224099016
B0926334742170N01219916EA0212602232098016
B0926374742237N01219966EA0212202232117016
B0926414742237N01220079EA0213902248107016
K092641164005
K092641166005
B0926454742175N01220129EA0213802248112016
B0926494742120N01220066EA0214402248107016
B0926534742125N01219966EA0215502264104016
B0926574742183N01219908EA0215602264106016
B0927014742254N01219950EA0216602272111016
K092701210004
B0927054742254N01220062EA0216602272112016
B0927094742187N01220125EA0215302264121016
B0927134742120N01220062EA0216902280119016
B0927174742137N01219958EA0217702288114016
B0927214742216N01219937EA0218302296115016
K092721180002
B0927254742262N01220029EA0219002304112016
B0927294742233N01220137EA0218902296116016
B0927334742154N01220162EA0218802296124016
B0927374742104N01220083EA0220802312109016
B0927414742129N01219991EA0221302328108016
K092741254002
B0927454742204N01219975EA0221202320116016
B0927494742254N01220062EA0222602336106016
B0927534742233N01220170EA0222602336107016
B0927574742162N01220204EA0221702328121016
B0928014742100N01220145EA0223202344108016
K092801260005
B0928054742083N01220045EA0224702360097016
B0928094742116N01219958EA0224202352108016
B0928134742166N01219866EA0222802336122016
B0928174742200N01219754EA0223202344122016
B0928214742225N01219633EA0221702336135020
K092821266004
K092821266004
B0928254742241N01219491EA0220402320146016
B0928294742250N01219341EA0218902304151020
B0928334742262N01219183EA0218002296166020
B0928374742270N01219029EA0217902296159020
B0928414742287N01218883EA0217802296147020
K092841352007
B0928454742300N01218733EA0216502280148024
B0928494742316N01218587EA0215502272150024
B0928534742333N01218441EA0215502272145024
B0928574742350N01218295EA0215002264146024
B0929014742366N01218154EA0214602256145024
K092901180007
B0929054742383N01218016EA0214802256142024
B0929094742404N01217879EA0213702248145028
B0929134742425N01217741EA0213502248139024
B0929174742445N01217612EA0214102248133028
B0929214742470N01217487EA0214102248131028
K092921174010
B0929254742491N01217358EA0212802240138024
B0929294742508N01217229EA0212802240133024
B0929334742520N01217104EA0212902240129024
B0929374742520N01216983EA0213102248122024
B0929414742512N01216862EA0213102240120024
K092941180016
B0929454742495N01216750EA0212902240118024
B0929494742479N01216637EA0212302232115020
B0929534742470N01216520EA0211502224115024
B0929574742483N01216408EA0211002224113020
B0930014742512N01216300EA0210702216120020
K093001176017
B0930054742545N01216204EA0211802232114020
B0930094742591N01216120EA0214102256111020
B0930134742633N01216054EA0216402280088020
B0930174742654N01215975EA0216602280096020
B0930214742616N01215900EA0215302264110016
K093021176018
B0930254742545N01215941EA0215502264111016
B0930294742529N01216050EA0215302272093016
B0930334742579N01216125EA0214002256107016
B0930374742654N01216150EA0215502264106016
B0930414742716N01216129EA0217102288090016
K093041176018
B0930454742745N01216050EA0216802288102016
B0930494742725N01215958EA0217202288105016
B0930534742675N01215895EA0219102312095016
B0930574742612N01215904EA0220102320098016
B0931014742579N01216000EA0219602312113000
K093101286009
K093101276008
B0931054742629N01216091EA0218902312121008
B0931094742704N01216075EA0219802320110028
B0931134742729N01215987EA0221602336100016
B0931174742704N01215900EA0222702352095000
B0931214742645N01215854EA0224002368092016
K093121156002
B0931254742579N01215870EA0224502376100028
B0931294742529N01215954EA0224402368109016
B0931334742533N01216066EA0224402368114016
B0931374742595N01216133EA0223202360118024
B0931414742675N01216145EA0223302360114016
K093141276002
B0931454742754N01216150EA0225402376107016
B0931494742820N01216154EA0227102392099016
B0931534742887N01216145EA0227102392099016
B0931574742937N01216095EA0227202392095000
B0932014742954N01216004EA0226402384099008
K093201268001
B0932054742937N01215904EA0224602376105028
B0932094742912N01215800EA0222102344124016
B0932134742875N01215683EA0219402320135016
B0932174742837N01215562EA0217402304141024
B0932214742795N01215429EA0216502288145016
K093221266003
B0932254742754N01215295EA0215502280147016
B0932294742712N01215158EA0214002264152028
B0932334742675N01215016EA0213202256153024
B0932374742637N01214870EA0212302248158024
B0932414742600N01214725EA0211202232156024
K093241304003
B0932454742562N01214579EA0210702224154024
B0932494742525N01214437EA0210702224151024
B0932534742483N01214304EA0211502232141024
B0932574742445N01214179EA0211902240137024
B0933014742412N01214054EA0211202232140024
K093301146010
B0933054742383N01213925EA0210202224141024
B0933094742354N01213791EA0209302208145024
B0933134742325N01213658EA0208802208143024
B0933174742295N01213525EA0208302200145028
B0933214742266N01213391EA0208202200144024
K093321158005
K093321162006
B0933254742233N01213266EA0207402192143028
B0933294742195N01213137EA0207202192139028
B0933334742154N01213016EA0207202192139024
B0933374742112N01212895EA0206902184138024
B0933414742070N01212779EA0206702184136028
K093341158016
B0933454742029N01212662EA0206402184134024
B0933494741983N01212550EA0205702176135028
B0933534741941N01212437EA0205202168136028
B0933574741895N01212320EA0204702168135028
B0934014741850N01212208EA0204702168134028
K093401152011
B0934054741808N01212091EA0204102160136024
B0934094741766N01211975EA0203702152137024
B0934134741729N01211854EA0202402144142024
B0934174741691N01211729EA0201602128145024
B0934214741654N01211600EA0201102128146028
K093421252003
B0934254741616N01211475EA0200602120142024
B0934294741575N01211345EA0199302112148028
B0934334741533N01211216EA0198702104151028
B0934374741487N01211095EA0201102128132028
B0934414741450N01210987EA0202702136117028
K093441158008
B0934454741408N01210895EA0202702144115024
B0934494741362N01210800EA0201602128123024
B0934534741312N01210700EA0201102128124020
B0934574741266N01210604EA0201102128119024
B0935014741220N01210512EA0201402128115020
K093501142010
B0935054741175N01210420EA0201102120117020
B0935094741125N01210329EA0199302112125024
B0935134741079N01210229EA0198502096131024
B0935174741029N01210125EA0197702088132024
B0935214740979N01210020EA0197002088134024
K093521270003
B0935254740933N01209916EA0196502080133024
B0935294740883N01209812EA0195602072136024
B0935334740833N01209704EA0194602064135024
B0935374740787N01209595EA0194402056133024
B0935414740741N01209483EA0193402048137024
K093541270004
B0935454740695N01209370EA0192702040137024
B0935494740650N01209262EA0192702040134024
B0935534740604N01209150EA0192702040134024
B0935574740562N01209041EA0191702032136028
B0936014740520N01208929EA0191102024138024
K093601270004
B0936054740487N01208816EA0191102024130024
B0936094740458N01208704EA0190602016127024
B0936134740429N01208587EA0190402016125024
B0936174740395N01208470EA0188902008132024
B0936214740375N01208350EA0188502000126020
K093621300005
B0936254740362N01208229EA0187601992135024
B0936294740354N01208104EA0187501984129020
B0936334740345N01207983EA0186701976134020
B0936374740337N01207858EA0186401976133024
B0936414740320N01207737EA0185701968131024
K093641322010
B0936454740295N01207620EA0185201960129024
B0936494740262N01207500EA0184501952132024
B0936534740245N01207379EA0184201952128024
B0936574740237N01207254EA0183701944128024
B0937014740233N01207133EA0183601944118024
K093701330008
B0937054740225N01207016EA0183201944119024
B0937094740204N01206900EA0183001944119024
B0937134740179N01206783EA0182101928133024
B0937174740141N01206670EA0181601928130020
B0937214740095N01206562EA0180501920127024
K093721152006
B0937254740045N01206454EA0179201912134020
B0937294739991N01206345EA0178101888140020
B0937334739925N01206245EA0177501888145020
B0937374739862N01206145EA0177201880140020
B0937414739795N01206050EA0175801872145024
K093741148012
B0937454739725N01205950EA0174801856151024
B0937494739658N01205845EA0174101848151024
B0937534739587N01205750EA0173701848153024
B0937574739516N01205650EA0173201840146024
B0938014739450N01205550EA0172401832148024
K093801156007
B0938054739383N01205445EA0172201832146028
B0938094739320N01205337EA0171901824150024
B0938134739262N01205229EA0171601824146028
B0938174739204N01205120EA0171301824148028
B0938214739145N01205012EA0172101832139024
K093821180003
B0938254739087N01204900EA0172501832146024
B0938294739037N01204787EA0173201840140020
B0938334738991N01204670EA0172501832143024
B0938374738945N01204554EA0172201832142024
B0938414738895N01204437EA0172101832142024
K093841152002
B0938454738841N01204320EA0171701824137020
B0938494738791N01204200EA0171201824150024
B0938534738741N01204079EA0171201824144020
B0938574738695N01203962EA0171801824138020
B0939014738645N01203850EA0171801832138020
K093901134008
B0939054738600N01203737EA0172301832134020
B0939094738575N01203683EV0172200000130020
B0939134738575N01203683EV0171400000134020
B0939174738575N01203683EV0171800000132016
B0939214738575N01203683EV0172100000130016
K093921134012
B0939254738575N01203683EV0173700000123016
B0939294738575N01203683EV0174100000113016
B0939334738575N01203683EV0173300000108016
B0939374738575N01203683EV0172700000119016
B0939414738575N01203683EV0172700000122016
K093941134012
B0939454738575N01203683EV0173900000118016
B0939494738575N01203683EV0175900000103020
B0939534738575N01203683EV0177200000095016
B0939574738575N01203683EV0174800000113016
B0940014738575N01203683EV0173900000121016
K094001134012
B0940054738575N01203683EV0175200000106016
B0940094738575N01203683EV0174800000107016
B0940134738575N01203683EV0175100000104020
B0940174738575N01203683EV0175600000098016
B0940214738575N01203683EV0175100000106020
K094021134012
B0940254738575N01203683EV0174600000119020
B0940294738575N01203683EV0174100000116016
B0940334738575N01203683EV0174700000111016
B0940374738575N01203683EV0174700000116016
B0940414738575N01203683EV0174900000117016
K094041134012
B0940454738575N01203683EV0174900000121020
B0940494738575N01203683EV0174900000125016
B0940534738575N01203683EV0175100000120020
B0940574738575N01203683EV0175000000121020
B0941014738575N01203683EV0173500000136020
K094101134012
B0941054738575N01203683EV0171700000147020
B0941094738575N01203683EV0170300000150016
B0941134738575N01203683EV0168900000157016
B0941174738575N01203683EV0168900000159020
B0941214738575N01203683EV0168900000154016
K094121134012
B0941254738575N01203683EV0171000000145020
B0941294738575N01203683EV0175200000115020
B0941334738575N01203683EV0175400000102020
B0941374738575N01203683EV0173700000116020
B0941414738575N01203683EV0173300000115016
K094141134012
B0941454738575N01203683EV0175200000104016
B0941494738575N01203683EV0177700000089020
B0941534738575N01203683EV0177200000094016
B0941574738575N01203683EV0175500000117000
B0942014738575N01203683EV0174600000127008
K094201134012
B0942054738575N01203683EV0174900000122028
B0942094738575N01203683EV0176700000108016
B0942134738575N01203683EV0178800000104016
B0942174738575N01203683EV0179800000095024
B0942214738575N01203683EV0178300000110000
K094221134012
B0942254738575N01203683EV0177600000121008
B0942294738575N01203683EV0179300000116028
B0942334738575N01203683EV0180700000109016
B0942374738575N01203683EV0182000000112016
B0942414738575N01203683EV0181700000117024
K094241134012
B0942454738575N01203683EV0182200000113016
B0942494738575N01203683EV0182200000115016
B0942534738575N01203683EV0183600000110016
B0942574738575N01203683EV0186600000093016
B0943014738575N01203683EV0184400000106016
K094301134012
B0943054738575N01203683EV0182400000133016
B0943094738575N01203683EV0184700000129016
B0943134738575N01203683EV0187600000101016
B0943174738575N01203683EV0188100000104020
B0943214738575N01203683EV0189000000107016
K094321134012
B0943254738575N01203683EV0190300000093016
B0943294738575N01203683EV0189100000117016
B0943334738575N01203683EV0189100000119016
B0943374738575N01203683EV0191300000107016
B0943414738575N01203683EV0193200000091016
K094341134012
B0943454738575N01203683EV0193500000104016
B0943494738575N01203683EV0195300000092000
B0943534738575N01203683EV0194900000106008
B0943574738575N01203683EV0193400000112028
B0944014738575N01203683EV0194500000115016
K094401134012
B0944054738575N01203683EV0197700000086016
B0944094738575N01203683EV0197600000098024
B0944134738575N01203683EV0197600000114000
B0944174738575N01203683EV0199200000108008
B0944214738575N01203683EV0199200000106028
K094421134012
B0944254738575N01203683EV0199200000111016
B0944294738575N01203683EV0199500000113016
B0944334738575N01203683EV0200100000111024
B0944374738575N01203683EV0202600000097016
B0944414738575N01203683EV0204200000091016
K094441134012
B0944454738575N01203683EV0202800000101016
B0944494738575N01203683EV0201700000130016
B0944534738575N01203683EV0203100000111016
B0944574738575N01203683EV0204100000103016
B0945014738575N01203683EV0204300000104020
K094501134012
B0945054738575N01203683EV0205500000106016
B0945094738575N01203683EV0207600000088016
B0945134738575N01203683EV0206400000099016
B0945174738575N01203683EV0206600000110000
B0945214738575N01203683EV0207600000105008
K094521134012
B0945254738575N01203683EV0207400000110028
B0945294738575N01203683EV0207200000108016
B0945334738575N01203683EV0208200000104016
B0945374738575N01203683EV0209700000101024
B0945414738575N01203683EV0210800000091016
K094541134012
B0945454738575N01203683EV0209900000111016
B0945494738575N01203683EV0209700000117016
B0945534738575N01203683EV0209900000116016
B0945574738575N01203683EV0209900000116016
B0946014738575N01203683EV0211600000103016
K094601134012
B0946054738575N01203683EV0213300000089016
B0946094738575N01203683EV0214000000091016
B0946134738575N01203683EV0214100000101016
B0946174738575N01203683EV0215500000091016
B0946214738575N01203683EV0215500000089000
K094621134012
B0946254738575N01203683EV0215500000098008
B0946294738575N01203683EV0213500000112012
B0946334738575N01203683EV0213000000117008
B0946374738575N01203683EV0212200000122028
B0946414738575N01203683EV0211200000140020
K094641134012
B0946454738575N01203683EV0211200000139016
B0946494738575N01203683EV0211200000143024
B0946534738575N01203683EV0211200000145020
B0946574738575N01203683EV0210300000150016
B0947014738575N01203683EV0209900000149020
K094701134012
B0947054738575N01203683EV0210100000142020
B0947094738575N01203683EV0209400000149020
B0947134738575N01203683EV0209200000149020
B0947174738575N01203683EV0209900000134020
B0947214738575N01203683EV0211100000128020
K094721134012
B0947254738575N01203683EV0211800000131020
B0947294738575N01203683EV0212300000124020
B0947334738575N01203683EV0212300000125020
B0947374738575N01203683EV0211700000128020
B0947414738575N01203683EV0211200000129016
K094741134012
B0947454738575N01203683EV0210800000127016
B0947494738575N01203683EV0209400000134016
B0947534738575N01203683EV0208700000136016
B0947574738575N01203683EV0207800000141020
B0948014738575N01203683EV0205500000153016
K094801134012
B0948054738575N01203683EV0205300000154020
B0948094738575N01203683EV0204900000153020
B0948134738575N01203683EV0204300000153020
B0948174738575N01203683EV0203800000152020
B0948214738575N01203683EV0203600000150020
K094821134012
B0948254738575N01203683EV0202700000149020
B0948294738575N01203683EV0201800000155020
B0948334738575N01203683EV0203400000147020
B0948374738575N01203683EV0204600000140020
B0948414738575N01203683EV0205300000123020
K094841134012
B0948454738575N01203683EV0204900000133020
B0948494738575N01203683EV0204300000134020
B0948534738575N01203683EV0203500000136020
B0948574738575N01203683EV0203300000131020
B0949014738575N01203683EV0203400000133016
K094901134012
B0949054738575N01203683EV0203700000125016
B0949094738575N01203683EV0203600000128016
B0949134738575N01203683EV0203000000135016
B0949174738575N01203683EV0203200000130016
B0949214738575N01203683EV0203300000131016
K094921134012
B0949254738575N01203683EV0206800000119020
B0949294738575N01203683EV0210900000085016
B0949334738575N01203683EV0211300000093004
B0949374738575N01203683EV0210300000110012
B0949414738575N01203683EV0208600000122028
K094941134012
B0949454738575N01203683EV0209200000140016
B0949494738575N01203683EV0214900000099016
B0949534738575N01203683EV0213700000111024
B0949574738575N01203683EV0212100000133004
B0950014738575N01203683EV0214900000115008
K095001134012
B0950054738575N01203683EV0217700000101028
B0950094738575N01203683EV0217600000102016
B0950134738575N01203683EV0216500000125000
B0950174738575N01203683EV0219300000106016
B0950214738575N01203683EV0222400000080012
K095021134012
B0950254738575N01203683EV0221200000092008
B0950294738575N01203683EV0218500000129028
B0950334738575N01203683EV0221100000116020
B0950374738575N01203683EV0223800000099016
B0950414738575N01203683EV0223800000104024
K095041134012
B0950454738575N01203683EV0224500000103016
B0950494738575N01203683EV0226200000089016
B0950534738575N01203683EV0226200000098000
B0950574738575N01203683EV0225800000114008
B0951014738575N01203683EV0226900000110012
K095101134012
B0951054738575N01203683EV0227300000106008
B0951094738575N01203683EV0227400000119028
B0951134738575N01203683EV0230200000098020
B0951174738575N01203683EV0231000000099016
B0951214738575N01203683EV0229600000128024
K095121134012
B0951254738575N01203683EV0232300000111016
B0951294738575N01203683EV0233100000102016
B0951334738575N01203683EV0232800000117016
B0951374738575N01203683EV0234900000100016
B0951414738575N01203683EV0235500000107016
K095141134012
B0951454738575N01203683EV0236000000118016
B0951494738575N01203683EV0238700000092016
B0951534738575N01203683EV0238800000100016
B0951574738575N01203683EV0238000000112016
B0952014738575N01203683EV0239500000106016
K095201134012
B0952054738575N01203683EV0239100000119016
B0952094738575N01203683EV0240400000117016
B0952134738575N01203683EV0241500000110016
B0952174738575N01203683EV0242600000100016
B0952214738575N01203683EV0243100000103016
K095221134012
B0952254738575N01203683EV0244000000116016
B0952294738575N01203683EV0245400000100016
B0952334738575N01203683EV0244000000112016
B0952374738575N01203683EV0243400000118016
B0952414738575N01203683EV0245400000111016
K095241134012
B0952454738575N01203683EV0246700000105016
B0952494738575N01203683EV0245800000114016
B0952534738575N01203683EV0245500000117016
B0952574738575N01203683EV0244800000116016
B0953014738575N01203683EV0245900000116016
K095301134012
B0953054738575N01203683EV0247400000110016
B0953094738575N01203683EV0250700000094000
B0953134738575N01203683EV0251300000084008
B0953174738575N01203683EV0249000000116028
B0953214738575N01203683EV0248800000124016
K095321134012
B0953254738575N01203683EV0250000000112016
B0953294738575N01203683EV0251700000114024
B0953334738575N01203683EV0250400000128020
B0953374738575N01203683EV0250100000140016
B0953414738575N01203683EV0249500000138016
K095341134012
B0953454738575N01203683EV0249500000148016
B0953494738575N01203683EV0248300000149020
B0953534738575N01203683EV0247800000147016
B0953574738575N01203683EV0247900000131020
B0954014738575N01203683EV0248000000130020
K095401134012
B0954054738575N01203683EV0247600000136020
B0954094738575N01203683EV0246300000140020
B0954134738575N01203683EV0245700000145020
B0954174738575N01203683EV0245900000145020
B0954214738575N01203683EV0245900000144020
K095421134012
B0954254738575N01203683EV0246400000147020
B0954294738575N01203683EV0247000000141020
B0954334738575N01203683EV0247000000151020
B0954374738575N01203683EV0247000000151020
B0954414738575N01203683EV0246800000145020
K095441134012
B0954454738575N01203683EV0245800000146020
B0954494738575N01203683EV0244800000142020
B0954534738575N01203683EV0244800000144020
B0954574738575N01203683EV0244800000135020
B0955014738575N01203683EV0245900000130020
K095501134012
B0955054738575N01203683EV0245100000129020
B0955094738575N01203683EV0244400000135020
B0955134736170N01156200EA0243402488137020
B0955174736125N01156083EA0242802560145020
B0955214736079N01155958EA0242302552149020
K095521140007
B0955254736025N01155833EA0241402544147016
B0955294735966N01155712EA0240202536154016
B0955334735912N01155583EA0239402528151020
B0955374735858N01155454EA0238202512156016
B0955414735800N01155329EA0237302504156020
K095541180007
B0955454735741N01155200EA0232602456170020
B0955494735679N01155058EA0232002448174020
B0955534735620N01154933EA0235202472148020
B0955574735566N01154816EA0235902488138024
B0956014735516N01154700EA0234202472147024
K095601158010
B0956054735466N01154575EA0234002464143020
B0956094735420N01154454EA0234302472137024
B0956134735383N01154329EA0234702472143020
B0956174735337N01154212EA0234702472137020
B0956214735279N01154108EA0234602472134016
K095621148017
B0956254735216N01154012EA0234202464134016
B0956294735158N01153912EA0234002464134020
B0956334735095N01153816EA0233702456134016
B0956374735025N01153729EA0233802456135016
B0956414734954N01153650EA0235202480126016
K095641134024
B0956454734891N01153591EA0236802496109020
B0956494734829N01153533EA0236302480114016
B0956534734766N01153454EA0233202464129016
B0956574734708N01153354EA0231302440138016
B0957014734650N01153245EA0230402424139020
K095701308006
B0957054734591N01153133EA0227902408144016
B0957094734533N01153012EA0227202392155020
B0957134734475N01152891EA0227202392150020
B0957174734416N01152770EA0227202392147020
B0957214734354N01152654EA0225902376153020
K095721296004
B0957254734291N01152537EA0225202376152020
B0957294734229N01152420EA0224202368157020
B0957334734170N01152304EA0223802360150020
B0957374734108N01152191EA0226202368145020
B0957414734058N01152087EA0229602408126020
K095741152014
B0957454734008N01151987EA0230202424121020
B0957494733970N01151887EA0229802416125020
B0957534733925N01151783EA0228502408136020
B0957574733875N01151670EA0227902400139016
B0958014733825N01151562EA0227202392144016
K095801172007
B0958054733770N01151454EA0225902376141016
B0958094733716N01151337EA0225902376140016
B0958134733662N01151225EA0224902368143020
B0958174733604N01151108EA0224002360159016
B0958214733545N01150987EA0223702352150020
K095821194008
B0958254733491N01150866EA0223502352141020
B0958294733433N01150750EA0223802360146020
B0958334733375N01150637EA0224202360141020
B0958374733320N01150529EA0225202368131020
B0958414733262N01150420EA0225302376130020
K095841142016
B0958454733204N01150316EA0226202384127020
B0958494733150N01150212EA0225802384125020
B0958534733095N01150100EA0223802360136020
B0958574733050N01149979EA0223302352139020
B0959014733012N01149854EA0222702344134016
B0959054732983N01149729EA0222002336138016
B0959094732958N01149600EA0221202336136020
B0959134732929N01149475EA0220502328138016
B0959174732904N01149354EA0220202320133020
B0959214732879N01149233EA0220202320128020
K095921166004
B0959254732854N01149116EA0220002320128020
B0959294732837N01149000EA0219902320121020
B0959334732825N01148879EA0219702312128016
B0959374732816N01148754EA0219702312124016
B0959414732812N01148625EA0219702320137016
K095941198003
B0959454732812N01148500EA0221102328125016
B0959494732816N01148379EA0220402328133020
B0959534732812N01148254EA0218502304134016
B0959574732812N01148125EA0217402296138016
B1000014732800N01148000EA0217002288138016
K100001218006
B1000054732795N01147870EA0216402280139020
B1000094732795N01147754EA0216402288131016
B1000134732795N01147637EA0216602288118020
B1000174732783N01147529EA0217402296117020
B1000214732766N01147420EA0216902288117016
K100021220009
B1000254732779N01147304EA0216002280126016
B1000294732808N01147191EA0217602288122016
B1000334732829N01147091EA0218502304109016
B1000374732825N01146995EA0219502312091000
B1000414732779N01146929EA0218702312089008
K100041220009
B1000454732704N01146916EA0216602280101012
B1000494732633N01146979EA0215002272106008
B1000534732591N01147079EA0214502264109028
B1000574732583N01147191EA0214902264099020
B1001014732600N01147308EA0215402272113016
B1001054732600N01147420EA0217402288093024
B1001094732545N01147483EA0215002280113016
B1001134732500N01147391EA0213302248132016
B1001174732541N01147300EA0216502248116016
B1001214732604N01147341EA0217302264106016
K100121220009
B1001254732595N01147458EA0217602264107020
B1001294732525N01147504EA0219302288100016
B1001334732475N01147437EA0218102280108000
B1001374732500N01147325EA0216902264128008
B1001414732575N01147266EA0219502288118028
K100141288011
B1001454732641N01147316EA0220602304110016
B1001494732612N01147416EA0220802312122020
B1001534732550N01147379EA0224002336098024
B1001574732566N01147287EA0223102344114016
B1002014732645N01147304EA0222702336124016
K100201268008
K100201282009
B1002054732654N01147420EA0225202352107016
B1002094732587N01147475EA0226502376108016
B1002134732525N01147425EA0227502384103020
B1002174732550N01147329EA0226402384114016
B1002214732633N01147329EA0227002392122016
K100221286015
B1002254732691N01147395EA0230702416095016
B1002294732675N01147495EA0229402416115016
B1002334732591N01147500EA0228202400125016
B1002374732537N01147400EA0230902416117016
B1002414732537N01147300EA0234902456096016
K100241246001
K100241108000
B1002454732591N01147258EA0234202464106000
B1002494732637N01147350EA0231302448133008
B1002534732579N01147445EA0235102472118028
B1002574732512N01147412EA0237202512104016
B1003014732508N01147304EA0236402504118020
K100301008019
B1003054732583N01147262EA0237702504123024
B1003094732633N01147337EA0241102536099016
B1003134732595N01147416EA0241102544113016
B1003174732520N01147370EA0240902536116016
B1003214732520N01147258EA0244802568106016
K100321182007
B1003254732583N01147220EA0245302584107016
B1003294732637N01147291EA0245902584119016
B1003334732616N01147395EA0249302608105016
B1003374732550N01147400EA0249902624105016
B1003414732525N01147287EA0248102592129016
K100341014002
B1003454732591N01147204EA0249902608127016
B1003494732658N01147220EA0253902656096016
B1003534732675N01147308EA0252602656104016
B1003574732616N01147387EA0252902632135000
B1004014732550N01147337EA0257102680107008
K100401130010
B1004054732579N01147233EA0256302712120028
B1004094732658N01147262EA0255902712125016
B1004134732645N01147383EA0257602720132016
B1004174732566N01147383EA0260102752118024
B1004214732554N01147262EA0262402752110020
K100421344003
B1004254732616N01147216EA0263902768107016
B1004294732658N01147304EA0263502760126020
B1004334732608N01147391EA0266902792114020
B1004374732545N01147333EA0267102800117016
B1004414732575N01147225EA0269302792109016
K100441056007
B1004454732637N01147241EA0270102816104016
B1004494732645N01147350EA0270102816122016
B1004534732579N01147400EA0273302840106016
B1004574732529N01147320EA0273802856106016
B1005014732566N01147220EA0274302856114016
K100501040011
B1005054732633N01147225EA0276902872098016
B1005094732658N01147316EA0276802880111000
B1005134732600N01147395EA0276602880118008
B1005174732529N01147350EA0278902896106028
B1005214732508N01147245EA0280202920097016
K100521068010
B1005254732566N01147170EA0278902928114016
B1005294732637N01147208EA0279302928115024
B1005334732658N01147316EA0281502952112016
B1005374732620N01147400EA0282702968103016
B1005414732545N01147395EA0283002968103000
K100541042008
B1005454732495N01147316EA0284102976097008
B1005494732508N01147208EA0283402968113012
B1005534732587N01147187EA0283302960121008
B1005574732650N01147245EA0285902992106028
B1006014732670N01147337EA0286703000097020
B1006054732633N01147429EA0285602984107016
B1006094732554N01147462EA0285502992115024
B1006134732483N01147395EA0286903000110016
B1006174732437N01147295EA0287903008108016
B1006214732395N01147187EA0285603000125016
K100621028004
B1006254732341N01147054EA0278402936167016
B1006294732262N01146900EA0275402888191016
B1006334732175N01146754EA0275302888185016
B1006374732087N01146612EA0274702880182044
B1006414732000N01146483EA0274702880179032
K100641022003
B1006454731916N01146366EA0276002896160016
B1006494731829N01146250EA0274702888165032
B1006534731745N01146133EA0274002872172024
B1006574731662N01146016EA0274502880162020
B1007014731583N01145900EA0274302880155024
K100701120011
B1007054731504N01145787EA0273502864160024
B1007094731425N01145670EA0273102864155024
B1007134731350N01145554EA0272102848159024
B1007174731270N01145433EA0271402840161024
B1007214731195N01145316EA0271402848155024
K100721116013
K100721116013
B1007254731125N01145200EA0271402848154024
B1007294731050N01145079EA0271102840152024
B1007334730987N01144958EA0271402848146024
B1007374730929N01144841EA0271802848142024
B1007414730866N01144733EA0272002848136024
K100741114014
B1007454730808N01144633EA0272202848127024
B1007494730745N01144533EA0271402840131024
B1007534730679N01144429EA0269702832142024
B1007574730612N01144316EA0268302816147016
B1008014730545N01144200EA0268202816144020
K100801090005
B1008054730483N01144083EA0268202816134020
B1008094730420N01143966EA0267302800135016
B1008134730345N01143858EA0266202792144020
B1008174730270N01143754EA0265402784144020
B1008214730191N01143650EA0264302776148020
K100821102014
B1008254730112N01143545EA0262602760148020
B1008294730029N01143437EA0261102744156020
B1008334729950N01143329EA0261002736157020
B1008374729875N01143220EA0261302744147020
B1008414729800N01143116EA0260302736145020
K100841094012
B1008454729729N01143004EA0259402728143024
B1008494729658N01142895EA0259102720144024
B1008534729583N01142791EA0258302712141020
B1008574729504N01142695EA0258102712142024
B1009014729433N01142595EA0257502704140028
K100901100016
B1009054729358N01142500EA0256302696147024
B1009094729279N01142400EA0255602688152028
B1009134729204N01142300EA0254202672152028
B1009174729125N01142200EA0253802664150024
B1009214729050N01142100EA0253602664149024
K100921112010
B1009254728975N01142004EA0253702664143020
B1009294728904N01141908EA0253702664139024
B1009334728833N01141812EA0253002656135020
B1009374728766N01141716EA0252902656135020
B1009414728700N01141620EA0252202648134020
K100941108009
K100941102009
B1009454728637N01141520EA0251302640131020
B1009494728570N01141429EA0250602632124020
B1009534728508N01141337EA0251502640123020
B1009574728445N01141250EA0251502640114020
B1010014728387N01141162EA0252902648109020
K101001084009
B1010054728337N01141083EA0256402688094020
B1010094728279N01141037EA0258002704094020
B1010134728212N01141045EA0257202704098000
B1010174728179N01141150EA0255702680118008
B1010214728220N01141237EA0257102696106028
K101021090009
B1010254728291N01141237EA0257502704102016
B1010294728341N01141166EA0258702712098016
B1010334728354N01141075EA0260702736090024
B1010374728341N01140991EA0261602752079016
B1010414728300N01140925EA0260502736098016
K101041090009
B1010454728241N01140862EA0259902728102000
B1010494728175N01140816EA0260202736090008
B1010534728108N01140795EA0259902736091012
B1010574728037N01140766EA0258402712105008
B1011014727970N01140708EA0257002704117028
K101101168004
B1011054727904N01140629EA0256302696122020
B1011094727845N01140541EA0256102688117016
B1011134727795N01140450EA0255602688115024
B1011174727741N01140354EA0254702672123020
B1011214727683N01140262EA0254202672122016
K101121322005
B1011254727629N01140166EA0253602664119016
B1011294727570N01140070EA0253302664118016
B1011334727508N01139983EA0253202656117020
B1011374727441N01139900EA0251902648121016
B1011414727366N01139820EA0251802648129020
K101141096010
B1011454727295N01139733EA0252802656124020
B1011494727233N01139645EA0253902664119020
B1011534727166N01139562EA0253002656126020
B1011574727095N01139466EA0252602656133020
B1012014727029N01139366EA0252802656134020
K101201062008
B1012054726970N01139266EA0252102656127020
B1012094726904N01139162EA0250602632136020
B1012134726845N01139058EA0250602632133016
B1012174726787N01138950EA0249902632133016
B1012214726729N01138845EA0249002616134020
K101221062006
B1012254726670N01138741EA0247702608133016
B1012294726608N01138641EA0247402600133020
B1012334726550N01138537EA0247202600134020
B1012374726491N01138441EA0247202600128020
B1012414726429N01138350EA0246102592126020
K101241104008
B1012454726358N01138258EA0245602584135020
B1012494726291N01138162EA0244602576137020
B1012534726229N01138062EA0244202568134020
B1012574726175N01137954EA0244102568130020
B1013014726120N01137850EA0243502560131020
K101301034003
B1013054726058N01137754EA0243102560124020
B1013094725991N01137662EA0245302584113020
B1013134725920N01137608EA0250002616107020
B1013174725862N01137658EA0251102640103016
B1013214725870N01137766EA0252502648117016
K101321044004
B1013254725937N01137808EA0255002672109016
B1013294725975N01137720EA0256402696113016
B1013334725937N01137625EA0258002712107016
B1013374725862N01137629EA0260102728118016
B1013414725829N01137733EA0261802744112016
K101341336003
B1013454725870N01137825EA0263902768111016
B1013494725937N01137820EA0266302792108016
B1013534725970N01137733EA0266702800102016
B1013574725937N01137629EA0268502816107016
B1014014725862N01137608EA0271702840095016
K101401314006
B1014054725812N01137675EA0272402856097000
B1014094725829N01137787EA0271402856124008
B1014134725904N01137825EA0273702880111028
B1014174725945N01137750EA0275602896102016
B1014214725916N01137658EA0278002912094016
K101421066004
B1014254725850N01137625EA0279202928100024
B1014294725791N01137695EA0280002944101016
B1014334725791N01137812EA0280002944114016
B1014374725854N01137862EA0280402944111000
B1014414725916N01137808EA0281300000113008
K101441350007
B1014454725920N01137691EA0284702952102028
B1014494725875N01137620EA0287902992087016
B1014534725812N01137620EA0287903008083000
B1014574725754N01137691EA0286502992108016
B1015014725741N01137808EA0287503000106028
K101501012003
K101501012003
B1015054725783N01137891EA0288603016105016
B1015094725850N01137883EA0288603016100016
B1015134725891N01137808EA0289803024098024
B1015174725912N01137720EA0292903056092016
B1015214725908N01137629EA0294603080083016
K101521004004
K101521000004
B1015254725895N01137533EA0294403080092000
B1015294725879N01137420EA0291303056121008
B1015334725862N01137287EA0289003024142028
B1015374725845N01137145EA0289103032140016
B1015414725825N01137000EA0289303032139016
K101541358004
B1015454725800N01136854EA0289303024146024
B1015494725779N01136700EA0289303024151020
B1015534725762N01136550EA0289303032147016
B1015574725745N01136395EA0289203024149020
B1016014725725N01136241EA0289003024152020
K101601044001
B1016054725708N01136087EA0288703024151020
B1016094725695N01135929EA0288003016148020
B1016134725683N01135770EA0286303000149020
B1016174725666N01135612EA0285202992150020
B1016214725650N01135445EA0283902976157020
B1016254725645N01135283EA0283102968160020
B1016294725645N01135116EA0282902960156020
B1016334725650N01134954EA0282902960150020
B1016374725662N01134795EA0281902952153020
B1016414725662N01134637EA0280802944155020
K101641116006
B1016454725645N01134475EA0280402936154020
B1016494725604N01134333EA0280902944148020
B1016534725550N01134208EA0280902952145020
B1016574725495N01134083EA0279602936152020
B1017014725433N01133954EA0278402920154016
K101701134008
B1017054725370N01133825EA0278102912152016
B1017094725312N01133695EA0277902912151020
B1017134725258N01133562EA0277102904153016
B1017174725212N01133420EA0276002896158020
B1017214725166N01133275EA0275302888156020
K101721134011
B1017254725120N01133133EA0276702896148020
B1017294725075N01132995EA0279102920139020
B1017334725041N01132870EA0282202952120020
B1017374725041N01132750EA0284302976100020
B1017414725091N01132662EA0284802984107020
K101741134011
K101741134011
B1017454725170N01132654EA0284802984119020
B1017494725212N01132762EA0284202976130016
B1017534725179N01132887EA0284702976135016
B1017574725104N01132950EA0287603000123016
B1018014725020N01132929EA0290203032117016
K101801134011
K101801134011
B1018054724966N01132845EA0291503048097020
B1018094724958N01132733EA0290803040108016
B1018134724987N01132616EA0289703024115020
B1018174725025N01132487EA0289603024121020
B1018214725054N01132358EA0290203032114016
K101821048014
B1018254725075N01132220EA0290003032127016
B1018294725095N01132079EA0289603024132020
B1018334725104N01131937EA0289703032132016
B1018374725104N01131791EA0290203040130020
B1018414725104N01131645EA0290203040136020
K101841108012
B1018454725091N01131500EA0290203040137020
B1018494725070N01131354EA0289703032137020
B1018534725037N01131212EA0288903024142020
B1018574725000N01131070EA0288003016140020
B1019014724958N01130933EA0287603008141020
K101901136020
B1019054724912N01130795EA0287303008143020
B1019094724870N01130662EA0287003008140024
B1019134724825N01130529EA0286703000140024
B1019174724783N01130395EA0286503000147020
B1019214724737N01130275EA0288803024129024
K101921136020
B1019254724691N01130162EA0288903024128020
B1019294724645N01130045EA0287803016132020
B1019334724595N01129920EA0286103008138020
B1019374724541N01129791EA0285002992141020
B1019414724495N01129654EA0283602976143020
K101941106007
B1019454724445N01129516EA0282502968154020
B1019494724400N01129375EA0282502968147020
B1019534724350N01129241EA0283202976145020
B1019574724304N01129112EA0283302976147020
B1020014724258N01128987EA0284302984140020
K102001128011
B1020054724212N01128862EA0284202976137020
B1020094724170N01128733EA0282502968142020
B1020134724137N01128591EA0280902952146020
B1020174724112N01128441EA0279602936147020
B1020214724091N01128287EA0278702928148020
K102021008006
B1020254724083N01128133EA0278102920145020
B1020294724070N01127979EA0277902912144020
B1020334724054N01127825EA0277402904142020
B1020374724041N01127670EA0276402904149020
B1020414724025N01127516EA0276402896149020
K102041096008
B1020454724008N01127370EA0276202896145020
B1020494723991N01127220EA0275302888144020
B1020534723970N01127075EA0273802880146020
B1020574723954N01126920EA0273502864147020
B1021014723937N01126770EA0272402856146020
K102101126010
B1021054723920N01126616EA0271802848145020
B1021094723908N01126470EA0272202856139020
B1021134723895N01126333EA0273202864126020
B1021174723883N01126204EA0273202864125020
B1021214723870N01126075EA0273102864122020
K102121140019
B1021254723862N01125950EA0272402864123020
B1021294723858N01125820EA0271002848131020
B1021334723850N01125687EA0270202840129020
B1021374723845N01125554EA0269302832128020
B1021414723845N01125420EA0268702824130016
K102141128006
B1021454723845N01125283EA0268202816135016
B1021494723845N01125145EA0267602808133016
B1021534723841N01125012EA0266902808131016
B1021574723841N01124875EA0266902800129016
B1022014723841N01124741EA0267202808123016
K102201140006
B1022054723841N01124608EA0267702808127020
B1022094723841N01124479EA0267702808125016
B1022134723845N01124350EA0267702808126020
B1022174723845N01124225EA0267602808129020
B1022214723845N01124095EA0266702800124016
K102221148009
B1022254723845N01123966EA0265502792125016
B1022294723837N01123833EA0264502776128020
B1022334723833N01123695EA0263402768131016
B1022374723825N01123558EA0262602760131016
B1022414723820N01123420EA0262002752131016
K102241134007
B1022454723812N01123283EA0261702752128016
B1022494723800N01123150EA0261702752128016
B1022534723791N01123016EA0261702752124016
B1022574723775N01122891EA0261302744122016
B1023014723754N01122762EA0261302744123016
K102301142015
B1023054723729N01122637EA0261602752130016
B1023094723695N01122520EA0262802760125020
B1023134723658N01122416EA0264102768111016
B1023174723608N01122325EA0265202784112016
B1023214723554N01122245EA0267302800110016
K102321142036
B1023254723529N01122154EA0270002824091016
B1023294723562N01122070EA0270002832099016
B1023334723637N01122062EA0269802824103000
B1023374723679N01122150EA0272702856101008
B1023414723637N01122225EA0273802864099012
K102341148026
B1023454723570N01122187EA0273802864111008
B1023494723562N01122079EA0276102888099028
B1023534723620N01122025EA0277502904097020
B1023574723695N01122070EA0278302904103016
B1024014723716N01122175EA0280002920111024
K102401140008
B1024054723670N01122250EA0282002944098000
B1024094723600N01122233EA0282502952108008
B1024134723566N01122137EA0284102968103012
B1024174723595N01122045EA0285902984093008
B1024214723662N01122025EA0287202992095012
K102421124004
B1024254723725N01122079EA0288703008091012
B1024294723750N01122166EA0290803032083012
B1024334723729N01122245EA0291603040087012
B1024374723666N01122295EA0291903040092012
B1024414723595N01122275EA0294203064091012
K102441158005
B1024454723558N01122200EA0295503080087028
B1024494723575N01122104EA0295003080099020
B1024534723637N01122050EA0295403080096016
B1024574723708N01122083EA0296603088102024
B1025014723741N01122170EA0299103112092016
K102501168001
B1025054723708N01122250EA0299303120096016
B1025094723633N01122262EA0299103120108016
B1025134723583N01122179EA0300203128109016
B1025174723595N01122070EA0301503144106016
B1025214723666N01122029EA0302003144104016
K102521138010
B1025254723729N01122091EA0302403152105016
B1025294723725N01122195EA0303303160111016
B1025334723654N01122245EA0303703160116016
B1025374723583N01122195EA0304703176111016
B1025414723550N01122087EA0305803184109016
K102541118007
B1025454723533N01121970EA0304703176121016
B1025494723504N01121841EA0304703176135016
B1025534723462N01121708EA0303703168137016
B1025574723420N01121566EA0302803160150020
B1026014723366N01121429EA0301403144152016
K102601328005
B1026054723304N01121295EA0300303136155020
B1026094723237N01121158EA0299103120160020
B1026134723170N01121029EA0298503120152020
B1026174723095N01120904EA0296803104157020
B1026214723020N01120779EA0295203088160020
K102621132017
B1026254722937N01120650EA0292403064172020
B1026294722850N01120516EA0290803040177020
B1026334722762N01120387EA0290003032173020
B1026374722670N01120258EA0289003024178024
B1026414722575N01120129EA0288403016178024
K102641120023
B1026454722483N01120004EA0288003016175024
B1026494722383N01119891EA0288103016177024
B1026534722291N01119770EA0288003008171024
B1026574722200N01119645EA0287603008172024
B1027014722112N01119512EA0286803000175024
K102701112021
B1027054722025N01119383EA0286303000173024
B1027094721933N01119254EA0285602984174024
B1027134721845N01119129EA0284102976175024
B1027174721758N01119000EA0283602968171024
B1027214721670N01118875EA0283002960171024
K102721112023
B1027254721587N01118750EA0282002952169024
B1027294721500N01118629EA0280702944165024
B1027334721416N01118504EA0279702928170024
B1027374721333N01118375EA0279302920179024
B1027414721254N01118250EA0279402928166024
K102741114019
B1027454721179N01118125EA0278402912168024
B1027494721100N01117991EA0277102904172028
B1027534721029N01117858EA0277102904166024
B1027574720958N01117729EA0276402896168024
B1028014720883N01117600EA0275202880171024
K102801128017
B1028054720812N01117470EA0274202872168024
B1028094720741N01117345EA0274202872166024
B1028134720679N01117220EA0274302872159024
B1028174720616N01117100EA0273802864159024
B1028214720554N01116975EA0273802864156024
K102821142017
B1028254720491N01116850EA0273802864156024
B1028294720429N01116729EA0274702872158020
B1028334720366N01116608EA0275902888143024
B1028374720308N01116491EA0276902896140020
B1028414720250N01116383EA0277502904133020
K102841134019
B1028454720191N01116270EA0277302904135020
B1028494720137N01116150EA0276802896140020
B1028534720083N01116033EA0276702896135020
B1028574720033N01115916EA0276302888131020
B1029014719983N01115800EA0274802872137016
K102901124010
B1029054719933N01115679EA0274102864133016
B1029094719908N01115545EA0273502864132020
B1029134719908N01115412EA0272602856134016
B1029174719920N01115275EA0271402840138020
