AZAN5AL ZANDER/SDI GP941 V2.11
HFDTE260409
HFFXA050
HFPLT Pilot             :Bernhard Leitner                        
HFGTY Glider type       :Ventus 2cx                              
HFGID Glider ID         :D-4002    
HFDTM100 GPS Datum      :WGS84
HFRFW Firmware Version  :11
HFRHW Hardware version  :2
HFFTY FR Type           :ZANDER/SDI GP941
HFGPS                   :Garmin,GPS25,12,30000
HFPRS Press Alt Sensor  :Intersema,MS5534A,10000
HFCCL Competition Class :18m                                     
HFCID Competition ID    :IWQ       
I023638IAS3941ENL
J020810WDI1113WVE
LZAN 050503 PowerOn
C310808092046310808000102
C5002150N00524250E ST HUBERT   
C5002150N00524250E ST HUBERT   
C5027166N00647200E WERSHOFEN   
C4937400N00650400E KELL        
C5002150N00524250E ST HUBERT   
C5002150N00524250E ST HUBERT   
B0505074715720N01120741EV0057600000000000
B0505114715720N01120741EV0057700000000000
B0505154715720N01120741EV0057700000000000
B0505194715720N01120741EV0057700000000004
B0505234715720N01120741EV0057700000000000
B0505274715720N01120741EV0057700000000008
B0505314715720N01120741EV0057700000000008
B0505354715720N01120741EV0057700000000012
B0505394715720N01120741EV0057700000000008
B0505434715720N01120741EV0057700000000008
B0505474715720N01120741EV0057700000000008
B0505514715720N01120741EV0057700000000008
B0505554715720N01120741EV0057700000000008
B0505594715720N01120741EV0057700000000012
B0506034715720N01120741EV0057700000000008
B0506074715725N01120883EA0057700600000012
B0506114715725N01120883EA0057700600000012
B0506154715725N01120883EA0057700600000012
B0506194715729N01120883EA0057700600000012
B0506234715729N01120887EA0057700600000012
B0506274715729N01120887EA0057700600000012
B0506314715729N01120887EA0057700600000012
B0506354715729N01120887EA0057700600000012
B0506394715729N01120887EA0057700600000012
B0506434715729N01120887EA0057700592000012
B0506474715729N01120887EA0057700592000004
B0506514715729N01120887EA0057700592000008
B0506554715729N01120887EA0057700592000008
B0506594715729N01120887EA0057700592000008
B0507034715729N01120887EA0057700592000008
B0507074715729N01120887EA0057700592000008
B0507114715729N01120887EA0057700584000008
B0507154715729N01120887EA0057700584000008
B0507194715729N01120887EA0057700584000012
B0507234715729N01120887EA0057700584000008
B0507274715729N01120887EA0057700584000008
B0507314715729N01120887EA0057700584000008
B0507354715729N01120887EA0057700584000008
B0507394715729N01120887EA0057800584000008
B0507434715729N01120887EA0057800584000012
B0507474715729N01120887EA0057800584000008
B0507514715729N01120887EA0057800584000008
B0507554715729N01120887EA0057800584000008
B0507594715729N01120887EA0057800584000008
B0508034715729N01120887EA0057800584000008
B0508074715729N01120887EA0057800584000004
B0508114715729N01120887EA0057800584000008
B0508154715729N01120887EA0057800584000004
B0508194715729N01120887EA0057800584000004
B0508234715729N01120887EA0057800584000004
B0508274715729N01120887EA0057800584000004
B0508314715729N01120887EA0057700584000004
B0508354715729N01120887EA0057700584000004
B0508394715729N01120887EA0057700584000004
B0508434715729N01120887EA0057700584000004
B0508474715729N01120887EA0057700584000004
B0508514715729N01120887EA0057700592000004
B0508554715729N01120887EA0057700592000004
B0508594715729N01120887EA0057700592000004
B0509034715729N01120887EA0057700592000004
B0509074715729N01120887EA0057700592000004
B0509114715729N01120887EA0057700592000004
B0509154715729N01120887EA0057700592000004
B0509194715729N01120891EA0057700592000008
B0509234715729N01120891EA0057700584000008
B0509274715729N01120891EA0057700584000008
B0509314715729N01120891EA0057700584000008
B0509354715729N01120891EA0057700584000004
B0509394715729N01120891EA0057700584000008
B0509434715729N01120891EA0057700584000008
B0509474715729N01120891EA0057700584000008
B0509514715729N01120891EA0057700584000008
B0509554715729N01120891EA0057700584000008
B0509594715729N01120891EA0057700584000008
B0510034715729N01120891EA0057700584000008
B0510074715729N01120891EA0057700584000008
B0510114715729N01120891EA0057700584000008
B0510154715729N01120891EA0057700584000008
B0510194715729N01120891EA0057700584000008
B0510234715729N01120891EA0057700584000008
B0510274715729N01120891EA0057700584000008
B0510314715729N01120891EA0057700584000012
B0510354715729N01120887EA0057700584000008
B0510394715729N01120887EA0057700584000008
B0510434715729N01120887EA0057700584000008
B0510474715729N01120887EA0057700584000040
B0510514715729N01120887EA0057800584000024
B0510554715729N01120887EA0057800584000016
B0510594715729N01120887EA0057800584000028
B0511034715729N01120887EA0057800584000044
B0511074715729N01120887EA0057800584000032
B0511114715729N01120887EA0057800584000036
B0511154715729N01120887EA0057800576000040
B0511194715729N01120887EA0057800576000060
B0511234715729N01120887EA0057800576000048
B0511274715729N01120887EA0057800576000032
B0511314715729N01120887EA0057800576000048
B0511354715729N01120887EA0057800576000040
B0511394715729N01120887EA0057800576000036
B0511434715729N01120887EA0057800576000024
B0511474715729N01120887EA0057800576000032
B0511514715729N01120887EA0057800584000020
B0511554715729N01120887EA0057800584000024
B0511594715729N01120887EA0057800584000016
B0512034715729N01120887EA0057800584000016
B0512074715729N01120887EA0057800584000000
B0512114715729N01120887EA0057800584000008
B0512154715729N01120887EA0057800584000028
B0512194715729N01120887EA0057800584000016
B0512234715729N01120887EA0057800584000016
B0512274715729N01120887EA0057800584000024
B0512314715729N01120887EA0057800584000000
B0512354715729N01120887EA0057800584000008
B0512394715729N01120887EA0057800584000028
B0512434715729N01120887EA0057800584000016
B0512474715729N01120887EA0057800584000020
B0512514715729N01120887EA0057800584000024
B0512554715729N01120887EA0057800584013028
B0512594715729N01120887EA0057800584000024
B0513034715729N01120887EA0057800584000024
B0513074715729N01120887EA0057700584000024
B0513114715729N01120887EA0057700584000024
B0513154715729N01120887EA0057700584000024
B0513194715729N01120887EA0057700584000024
B0513234715729N01120887EA0057700584000024
B0513274715729N01120887EA0057700584000020
B0513314715729N01120887EA0057700584000024
B0513354715729N01120887EA0057700584000020
B0513394715729N01120887EA0057800584000020
B0513434715729N01120887EA0057800584000020
B0513474715729N01120887EA0057800584000020
B0513514715729N01120887EA0057800584000020
B0513554715729N01120887EA0057800584000020
B0513594715729N01120891EA0057700584000044
B0514034715729N01120891EA0057700584000032
B0514074715729N01120891EA0057700584000032
B0514114715729N01120891EA0057700584000040
B0514154715729N01120891EA0057700584000016
B0514194715729N01120891EA0057700584000024
B0514234715729N01120891EA0057700584000028
B0514274715729N01120891EA0057700584000024
B0514314715729N01120891EA0057700584000024
B0514354715729N01120891EA0057700584000024
B0514394715729N01120891EA0057700584000024
B0514434715729N01120891EA0057700584000024
B0514474715725N01120891EA0057700584000000
B0514514715725N01120891EA0057700576000012
B0514554715725N01120891EA0057700576000008
B0514594715725N01120891EA0057700576000004
B0515034715729N01120887EA0057700576000000
B0515074715729N01120887EA0057700576000004
B0515114715725N01120891EA0057700576000000
B0515154715720N01120895EA0057700576000000
B0515194715716N01120895EA0057700576000016
B0515234715708N01120895EA0057700576000008
B0515274715700N01120895EA0057700576000004
B0515314715695N01120900EA0057700576000008
B0515354715691N01120900EA0057700576000012
B0515394715683N01120900EA0057900576000008
B0515434715679N01120900EA0057900576000012
B0515474715670N01120900EA0057900576003012
B0515514715666N01120895EA0057900584000012
B0515554715662N01120895EA0057900584000012
B0515594715658N01120895EA0057900584000012
B0516034715654N01120895EA0057900584000012
B0516074715650N01120895EA0057900584000028
B0516114715641N01120891EA0057900584000020
B0516154715637N01120887EA0057900584000020
B0516194715637N01120887EA0057900584000024
B0516234715637N01120883EA0057900584000012
B0516274715637N01120883EA0057900584000016
B0516314715637N01120883EA0057900584000012
B0516354715637N01120883EA0057900584000012
B0516394715637N01120883EA0057900584000000
B0516434715637N01120883EA0057900584000008
B0516474715637N01120883EA0057900584000000
B0516514715637N01120883EA0057900584005000
B0516554715637N01120883EA0057900584001000
B0516594715637N01120883EA0057900584001000
B0517034715637N01120883EA0057900584004004
B0517074715637N01120879EA0057900584022000
B0517114715633N01120854EA0057900584051052
B0517154715629N01120812EA0057900584064028
B0517194715625N01120754EA0057900584085112
B0517234715616N01120679EA0057900584100180
B0517274715608N01120591EA0058300584109240
B0517314715595N01120491EA0058500584123204
K051731180000
B0517354715587N01120391EA0059700592135188
B0517394715575N01120295EA0062000608122180
B0517434715570N01120208EA0064000632113128
B0517474715558N01120125EA0065700656108128
B0517514715545N01120041EA0067200664108096
K051751000012
B0517554715545N01119950EA0067800680109112
B0517594715554N01119854EA0068500680109108
B0518034715570N01119758EA0069800696112104
B0518074715595N01119662EA0071500712118104
B0518114715620N01119570EA0072500720115104
K051811000003
B0518154715650N01119483EA0073700736113124
B0518194715679N01119395EA0075100744115112
B0518234715712N01119308EA0076300760118132
B0518274715741N01119208EA0077200768116136
B0518314715766N01119100EA0078300776124120
K051831180000
B0518354715787N01118987EA0079900800125136
B0518394715808N01118875EA0081700808126152
B0518434715820N01118758EA0083300832118136
B0518474715829N01118641EA0084900848118120
B0518514715833N01118525EA0086400864125132
K051851180009
B0518554715845N01118412EA0088500880119132
B0518594715850N01118300EA0090300904114132
B0519034715858N01118183EA0091100912117128
B0519074715862N01118062EA0091700912123144
B0519114715862N01117937EA0093500928118152
K051911180013
B0519154715858N01117816EA0095500952118144
B0519194715862N01117687EA0097300968123136
B0519234715866N01117562EA0098500984117144
B0519274715875N01117433EA0100100984132128
B0519314715887N01117300EA0101601008130156
K051931180018
B0519354715900N01117170EA0102401016131180
B0519394715912N01117045EA0104601040137180
B0519434715912N01116933EA0106501064126180
B0519474715879N01116833EA0108701088117144
B0519514715825N01116766EA0110301104114128
K051951180011
B0519554715754N01116745EA0111701112112132
B0519594715679N01116758EA0112501128125140
B0520034715620N01116820EA0114501144119140
B0520074715583N01116904EA0115201152120144
B0520114715575N01117000EA0116401160114156
K052011180011
B0520154715591N01117087EA0118001176117136
B0520194715620N01117170EA0120601200126140
B0520234715641N01117250EA0123101232120144
B0520274715666N01117329EA0124201240121144
B0520314715691N01117404EA0124801248120120
K052031180011
B0520354715725N01117479EA0126001256115132
B0520394715754N01117554EA0127301264113120
B0520434715783N01117633EA0128801288115120
B0520474715816N01117708EA0130301296115112
B0520514715841N01117779EA0133201320119116
K052051000021
B0520554715862N01117854EA0134001344115116
B0520594715891N01117925EA0135201352115112
B0521034715920N01118000EA0137701376118120
B0521074715941N01118066EA0140001392121136
B0521114715966N01118133EA0141101408117128
K052111000032
B0521154715995N01118204EA0141401416112128
B0521194716029N01118275EA0143101424114120
B0521234716070N01118350EA0144201440115124
B0521274716108N01118425EA0145701456119128
B0521314716137N01118508EA0147801472118136
K052131000020
B0521354716166N01118595EA0149201488122128
B0521394716195N01118679EA0150801512122128
B0521434716233N01118766EA0153301536118116
B0521474716266N01118845EA0155301552116120
B0521514716300N01118929EA0158301584115124
K052151000014
B0521554716333N01119008EA0161001608112120
B0521594716366N01119087EA0164001640113116
B0522034716400N01119170EA0166501656117120
B0522074716437N01119254EA0168901696120132
B0522114716475N01119337EA0170901712124156
K052211000016
B0522154716508N01119425EA0172701728120156
B0522194716558N01119500EA0173801744122132
B0522234716608N01119575EA0176301760122140
B0522274716650N01119633EA0178701784100128
B0522314716683N01119691EA0179501800095080
K052231000012
B0522354716716N01119754EA0179801800101104
B0522394716745N01119825EA0180001800107092
B0522434716770N01119900EA0180701816106088
B0522474716787N01119962EA0181101824093056
B0522514716816N01120041EA0181701824113072
K052251000019
B0522554716841N01120108EA0183401840095036
B0522594716875N01120183EA0183101840103048
B0523034716904N01120270EA0182101832109016
B0523074716937N01120358EA0181101824119024
B0523114716966N01120441EA0184201848105044
K052311000012
B0523154717000N01120516EA0185401864103032
B0523194717041N01120579EA0187901888102040
B0523234717079N01120637EA0187601888102040
B0523274717116N01120704EA0188501896108032
B0523314717150N01120766EA0190001904097036
K052331000013
B0523354717183N01120833EA0189501896107016
B0523394717200N01120916EA0189301896108024
B0523434717204N01121008EA0189001896111000
B0523474717191N01121100EA0191201912107008
B0523514717175N01121179EA0191501920118008
K052351000017
B0523554717150N01121245EA0192401936106004
B0523594717116N01121304EA0192401936095012
B0524034717075N01121358EA0190801912109008
B0524074717020N01121416EA0191401912113008
B0524114716970N01121470EA0194201936113008
K052411000017
B0524154716920N01121520EA0195901960112024
B0524194716875N01121483EA0198501992100016
B0524234716875N01121387EA0199102000110000
B0524274716937N01121312EA0201102008107012
B0524314717016N01121329EA0203202040104012
K052431000018
B0524354717066N01121400EA0205202056107008
B0524394717066N01121487EA0205702064105012
B0524434717025N01121529EA0206702072105012
B0524474716970N01121512EA0207602080101012
B0524514716941N01121429EA0209202096104012
K052451160020
B0524554716954N01121325EA0211702120103008
B0524594717008N01121250EA0213502144093008
B0525034717087N01121233EA0215002160101008
B0525074717145N01121279EA0215602168095008
B0525114717166N01121358EA0215702168101008
K052511150021
B0525154717145N01121429EA0216002168103008
B0525194717095N01121470EA0217002176103008
B0525234717045N01121466EA0218002192096008
B0525274717000N01121412EA0219202200098008
B0525314716954N01121358EA0219502208100008
K052531148021
B0525354716900N01121354EA0220702208102008
B0525394716862N01121404EA0222202224095008
B0525434716858N01121483EA0223002240097008
B0525474716895N01121566EA0223402240099008
B0525514716962N01121616EA0223902240106008
K052551000018
B0525554717041N01121612EA0224302256099008
B0525594717120N01121570EA0224902256105008
B0526034717195N01121504EA0225702264109008
B0526074717262N01121437EA0226902272100008
B0526114717320N01121366EA0226702272098008
K052611000018
B0526154717387N01121287EA0225102256107008
B0526194717458N01121204EA0224802248113008
B0526234717525N01121125EA0225402256108004
B0526274717587N01121045EA0225702256107008
B0526314717654N01120975EA0225702264113008
K052631180023
B0526354717729N01120916EA0227502272105008
B0526394717800N01120879EA0226702272112008
B0526434717883N01120875EA0225102256125008
B0526474717966N01120895EA0226202256124008
B0526514718041N01120920EA0228102280113008
K052651180021
B0526554718108N01120954EA0229002296097012
B0526594718175N01120995EA0228202280107008
B0527034718233N01121058EA0229102296111008
B0527074718287N01121116EA0230802312104008
B0527114718341N01121175EA0231702320104008
K052711180003
B0527154718387N01121241EA0233002328102008
B0527194718425N01121320EA0233702336101008
B0527234718466N01121400EA0234302344103008
B0527274718504N01121479EA0235202352103008
B0527314718545N01121562EA0235202352104008
K052731180001
B0527354718575N01121658EA0237602368111008
B0527394718595N01121741EA0237802384103008
B0527434718600N01121841EA0236702368119008
B0527474718604N01121941EA0238102376113008
B0527514718608N01122029EA0240502408102008
K052751000003
B0527554718616N01122108EA0241502416098008
B0527594718620N01122187EA0243002432100008
B0528034718629N01122270EA0244302440103008
B0528074718645N01122350EA0246202464095008
B0528114718666N01122437EA0247102472097008
K052811000011
B0528154718679N01122529EA0247902480101008
B0528194718691N01122620EA0248902488101008
B0528234718704N01122716EA0250102504102008
B0528274718708N01122812EA0251502520100008
B0528314718708N01122900EA0251502528098008
K052831000004
B0528354718712N01122991EA0251502520101008
B0528394718708N01123083EA0251502528101008
B0528434718704N01123170EA0252502528098008
B0528474718695N01123258EA0253102544099008
B0528514718687N01123341EA0253102536106008
K052851000010
B0528554718675N01123416EA0253102544103008
B0528594718654N01123479EA0252402536103008
B0529034718616N01123520EA0251002520111008
B0529074718583N01123587EA0249802504114008
B0529114718562N01123666EA0249302496109008
K052911000017
B0529154718554N01123750EA0248202496107008
B0529194718541N01123845EA0248302496105012
B0529234718533N01123933EA0249302504105008
B0529274718520N01124025EA0246702480115008
B0529314718504N01124137EA0246902472119008
K052931000016
B0529354718500N01124245EA0248002488108008
B0529394718525N01124354EA0248102488108008
B0529434718583N01124433EA0248702496103008
B0529474718654N01124487EA0248802496098008
B0529514718741N01124508EA0247002480108008
K052951000007
B0529554718841N01124504EA0247002472107008
B0529594718925N01124445EA0247102480112008
B0530034718975N01124345EA0248302488100008
B0530074718987N01124237EA0247502488102008
B0530114718970N01124137EA0245102456123008
K053011000007
B0530154718937N01124045EA0244202440129008
B0530194718900N01123958EA0244702456121008
B0530234718866N01123875EA0244002448121012
B0530274718829N01123795EA0243302440112008
B0530314718795N01123712EA0241402424107012
K053031000007
B0530354718762N01123608EA0240202400132012
B0530394718737N01123500EA0241302416123008
B0530434718729N01123387EA0242002424111008
B0530474718729N01123270EA0240802408118012
B0530514718720N01123154EA0240902408121008
K053051000008
B0530554718708N01123045EA0241102416119008
B0530594718691N01122925EA0240702408126008
B0531034718687N01122808EA0242602432122012
B0531074718687N01122695EA0244002440114008
B0531114718691N01122591EA0244702448113012
K053111180001
B0531154718691N01122479EA0245102456113012
B0531194718691N01122366EA0245602456117012
B0531234718687N01122245EA0246902464121012
B0531274718687N01122133EA0249402496109008
B0531314718691N01122020EA0250602512108008
K053131180005
B0531354718695N01121916EA0251902520104012
B0531394718691N01121812EA0252002520107008
B0531434718670N01121712EA0252302528109008
B0531474718637N01121616EA0252302528116008
B0531514718595N01121533EA0252302520119008
K053151180005
B0531554718550N01121462EA0252002520118008
B0531594718495N01121395EA0251602520122008
B0532034718437N01121329EA0252002520125008
B0532074718387N01121258EA0253102536120012
B0532114718341N01121187EA0253902544114008
K053211000014
B0532154718295N01121108EA0253502536120012
B0532194718245N01121029EA0253202528126012
B0532234718195N01120945EA0252602528129008
B0532274718145N01120850EA0253002536123008
B0532314718104N01120754EA0253702544120012
K053231000008
B0532354718075N01120650EA0255902552112008
B0532394718066N01120545EA0258102584100012
B0532434718070N01120445EA0259502592098012
B0532474718079N01120341EA0259702600097008
B0532514718075N01120229EA0259002592110008
K053251000003
B0532554718070N01120125EA0261202616096008
B0532594718070N01120025EA0262102624091008
B0533034718070N01119925EA0262102624097008
B0533074718075N01119816EA0262902632096008
B0533114718083N01119716EA0263202632093004
K053311180012
B0533154718091N01119608EA0263402640098008
B0533194718100N01119495EA0264002648097008
B0533234718112N01119391EA0265902664093008
B0533274718116N01119283EA0265502656092008
B0533314718112N01119166EA0264202640106008
K053331180018
B0533354718100N01119045EA0263202632107004
B0533394718095N01118925EA0262202624109008
B0533434718095N01118800EA0261602616109008
B0533474718108N01118675EA0260502608108008
B0533514718125N01118545EA0260002592123008
K053351180020
B0533554718145N01118429EA0261202608112008
B0533594718166N01118316EA0260902608119008
B0534034718195N01118208EA0261202616114008
B0534074718229N01118104EA0261202616115008
B0534114718270N01118004EA0261202616110008
K053411180009
B0534154718316N01117904EA0262902624110008
B0534194718354N01117812EA0263902640101008
B0534234718391N01117720EA0264602648101008
B0534274718429N01117637EA0264302640103008
B0534314718470N01117550EA0264202640103008
K053431180008
B0534354718516N01117458EA0263402632106008
B0534394718562N01117354EA0263102624114004
B0534434718600N01117250EA0263102632108008
B0534474718641N01117145EA0262302624109008
B0534514718679N01117033EA0260902600123008
K053451180013
B0534554718720N01116916EA0260702608123008
B0534594718758N01116808EA0261402608115008
B0535034718795N01116700EA0261102608110008
B0535074718825N01116591EA0260602600112008
B0535114718858N01116475EA0260402600117008
K053511180014
B0535154718883N01116354EA0259302584125008
B0535194718908N01116225EA0259502584124008
B0535234718929N01116108EA0260202592118008
B0535274718954N01115995EA0260502600113008
B0535314718979N01115879EA0261202608110008
K053531180011
B0535354719004N01115770EA0261102600111008
B0535394719029N01115650EA0260602600117008
B0535434719054N01115537EA0261202608111008
B0535474719075N01115425EA0261202608111008
B0535514719100N01115316EA0261102600113008
K053551180011
B0535554719125N01115204EA0260602600113008
B0535594719145N01115100EA0260402600109008
B0536034719170N01114995EA0259902592110008
B0536074719200N01114887EA0258502584114008
B0536114719229N01114779EA0257102568120008
K053611180004
B0536154719258N01114658EA0255702544130008
B0536194719283N01114533EA0254502536135008
B0536234719312N01114404EA0253502528135008
B0536274719341N01114275EA0252602512134008
B0536314719383N01114141EA0251002504139012
K053631180005
B0536354719429N01114008EA0250302488151008
B0536394719470N01113895EA0254902528128012
B0536434719508N01113804EA0255202544115012
B0536474719550N01113712EA0255202544117012
B0536514719591N01113620EA0255302544115012
K053651180000
B0536554719637N01113529EA0255002544122008
B0536594719683N01113441EA0255002544110008
B0537034719729N01113341EA0254302536110008
B0537074719775N01113237EA0253202528120008
B0537114719825N01113125EA0253202520118012
K053711180009
B0537154719875N01113016EA0254902544113008
B0537194719920N01112920EA0252902520116012
B0537234719966N01112800EA0249802488131012
B0537274720016N01112666EA0248102464140012
B0537314720066N01112525EA0246202448148012
K053731180014
B0537354720120N01112383EA0243802424154028
B0537394720179N01112233EA0241702408161020
B0537434720241N01112083EA0240402384166016
B0537474720316N01111945EA0241302400159024
B0537514720395N01111841EA0242002408145000
K053751180019
B0537554720475N01111737EA0242502416142008
B0537594720550N01111641EA0243002424132012
B0538034720620N01111541EA0243702432125008
B0538074720683N01111437EA0243402424122012
B0538114720745N01111320EA0242402408132012
K053811180022
B0538154720804N01111195EA0242402408132008
B0538194720862N01111075EA0242002408131008
B0538234720916N01110954EA0242402416126012
B0538274720970N01110837EA0242502416125008
B0538314721016N01110720EA0243002424122012
K053831180023
B0538354721058N01110612EA0243102424118012
B0538394721095N01110495EA0242402416120008
B0538434721133N01110375EA0241702408125008
B0538474721170N01110254EA0241302400125008
B0538514721208N01110129EA0241002392126008
K053851180017
B0538554721237N01110000EA0240202392127008
B0538594721262N01109870EA0240202384127008
B0539034721287N01109741EA0239702384127008
B0539074721304N01109612EA0239402384128008
B0539114721320N01109479EA0239302376129008
K053911180014
B0539154721337N01109345EA0238802376129008
B0539194721350N01109212EA0238502368131008
B0539234721362N01109075EA0237502360133008
B0539274721375N01108937EA0237502360132008
B0539314721387N01108800EA0237402360131008
K053931180011
B0539354721395N01108675EA0238302376122012
B0539394721408N01108554EA0238302368121008
B0539434721420N01108429EA0238302368121008
B0539474721429N01108308EA0237802368121008
B0539514721433N01108187EA0237202360121008
K053951180009
B0539554721437N01108062EA0236802360121008
B0539594721441N01107933EA0236102352123008
B0540034721441N01107808EA0235602344125008
B0540074721429N01107679EA0235002336127008
B0540114721416N01107554EA0234502328130008
K054011180008
B0540154721395N01107425EA0234102328131008
B0540194721375N01107300EA0233602320131008
B0540234721354N01107179EA0233402320130008
B0540274721329N01107054EA0233102320130008
B0540314721308N01106929EA0232902312128008
K054031180005
B0540354721279N01106808EA0232402312131008
B0540394721250N01106683EA0231902304132008
B0540434721216N01106566EA0232102312128008
B0540474721183N01106450EA0232202312122008
B0540514721154N01106345EA0232502320117008
K054051180006
B0540554721120N01106245EA0232402312115008
B0540594721083N01106145EA0232002312116008
B0541034721041N01106050EA0231402304119008
B0541074721004N01105954EA0231002304118008
B0541114720958N01105862EA0230302296119008
K054111180000
B0541154720908N01105770EA0228502280129008
B0541194720854N01105675EA0227702264133008
B0541234720804N01105575EA0227402264128008
B0541274720762N01105470EA0227202264129008
B0541314720720N01105375EA0228402272118008
K054131000002
B0541354720687N01105295EA0229302288106008
B0541394720645N01105212EA0228502280110008
B0541434720604N01105120EA0228202280112008
B0541474720562N01105029EA0228202272110008
B0541514720520N01104933EA0227102264112008
K054151180003
B0541554720487N01104816EA0226602256117008
B0541594720508N01104687EA0225002248117008
B0542034720566N01104575EA0223102232125008
B0542074720629N01104458EA0223002224145008
B0542114720670N01104337EA0224602240121008
K054211180006
B0542154720683N01104208EA0223102232128024
B0542194720691N01104070EA0221502216124016
B0542234720687N01103933EA0219502200129000
B0542274720716N01103787EA0218402184136012
B0542314720791N01103687EA0218102176146012
K054231180006
B0542354720866N01103612EA0219102192128008
B0542394720941N01103541EA0218602184130012
B0542434721020N01103479EA0218602184120012
B0542474721083N01103387EA0217702168135012
B0542514721129N01103275EA0218202176125012
K054251180006
B0542554721170N01103162EA0218502184120012
B0542594721212N01103045EA0218502184125012
B0543034721250N01102937EA0220202192114008
B0543074721279N01102829EA0220702208102008
B0543114721291N01102720EA0220702208101008
K054311180017
B0543154721287N01102612EA0220702208103008
B0543194721275N01102504EA0221002208103008
B0543234721262N01102400EA0221202208103008
B0543274721254N01102295EA0221802216103008
B0543314721241N01102195EA0222002216101008
K054331180011
B0543354721237N01102091EA0222202216102008
B0543394721220N01101995EA0222602224104008
B0543434721187N01101908EA0222702224101008
B0543474721145N01101825EA0222702224102008
B0543514721095N01101766EA0222202216107008
K054351180008
B0543554721037N01101804EA0222002216109008
B0543594721041N01101891EA0222502224101008
B0544034721087N01101954EA0222402216104008
B0544074721150N01102004EA0222102216106008
B0544114721200N01102062EA0222102216102008
K054411180008
B0544154721229N01102150EA0221602216105004
B0544194721241N01102245EA0221802216108008
B0544234721245N01102333EA0223402232094008
B0544274721258N01102416EA0223702240097008
B0544314721270N01102495EA0223602232102004
K054431000006
B0544354721258N01102575EA0223402232105008
B0544394721204N01102570EA0223202232103004
B0544434721187N01102475EA0223402232098004
B0544474721216N01102370EA0222602224105008
B0544514721254N01102266EA0223202232107008
K054451000008
B0544554721275N01102158EA0224302248101008
B0544594721258N01102062EA0225202256100008
B0545034721225N01101983EA0225402256098008
B0545074721187N01101904EA0224702248098008
B0545114721145N01101812EA0224302240108008
K054511000008
B0545154721108N01101720EA0224702248102008
B0545194721045N01101708EA0223102232115008
B0545234721029N01101795EA0223902240109008
B0545274721070N01101862EA0224302248099012
B0545314721129N01101912EA0224102240106008
K054531180007
B0545354721183N01101970EA0224302248099008
B0545394721229N01102037EA0224302240099008
B0545434721254N01102125EA0224802248100008
B0545474721262N01102212EA0225902256098008
B0545514721262N01102295EA0226702264092008
K054551180007
B0545554721270N01102379EA0227302272095008
B0545594721291N01102462EA0227102272105008
B0546034721275N01102525EA0227802272096008
B0546074721229N01102512EA0227402280092008
B0546114721208N01102416EA0226302264105008
K054611180007
B0546154721241N01102308EA0226702264105008
B0546194721279N01102208EA0227902280101008
B0546234721283N01102104EA0229002288099008
B0546274721258N01102020EA0229302296098008
B0546314721225N01101937EA0229902304095008
K054631180007
B0546354721187N01101858EA0229902296098008
B0546394721145N01101779EA0229302296104008
B0546434721079N01101783EA0228702288114008
B0546474721075N01101870EA0229502296103008
B0546514721120N01101929EA0229902296097008
K054651180004
B0546554721183N01101970EA0229802296101012
B0546594721241N01102029EA0229902296102008
B0547034721275N01102112EA0229902296106008
B0547074721279N01102212EA0231502304106008
B0547114721283N01102295EA0233002320098008
K054711180004
B0547154721300N01102379EA0232902320103008
B0547194721304N01102462EA0233002328101008
B0547234721283N01102525EA0233002328098008
B0547274721237N01102520EA0232502328096004
B0547314721208N01102425EA0231502312107008
K054731000009
B0547354721241N01102308EA0232002312109004
B0547394721275N01102204EA0233002328099004
B0547434721279N01102100EA0234202336094008
B0547474721262N01102008EA0234602344097008
B0547514721233N01101925EA0235302352095008
K054751000009
B0547554721200N01101841EA0235702352097008
B0547594721145N01101791EA0235102344107004
B0548034721095N01101841EA0235302344107008
B0548074721104N01101925EA0235902360100004
B0548114721154N01101995EA0235802360102004
K054811000009
B0548154721216N01102045EA0236102360101008
B0548194721266N01102116EA0236702360101008
B0548234721291N01102200EA0237902376093008
B0548274721295N01102279EA0238502384092008
B0548314721295N01102350EA0238802384091004
K054831000009
B0548354721291N01102416EA0238702384093008
B0548394721279N01102487EA0238502384095008
B0548434721250N01102541EA0237602376097008
B0548474721195N01102529EA0237002368104004
B0548514721175N01102429EA0236702368103008
K054851000015
B0548554721212N01102320EA0236602360105008
B0548594721254N01102220EA0236702368104008
B0549034721275N01102112EA0237902376099008
B0549074721270N01102012EA0238402384101008
B0549114721250N01101916EA0239502400097008
K054911000015
B0549154721233N01101825EA0239802400096008
B0549194721229N01101716EA0239802400100008
B0549234721254N01101612EA0240502408096008
B0549274721283N01101508EA0240802408098008
B0549314721316N01101412EA0241802416095008
K054931000015
B0549354721345N01101320EA0242402424093008
B0549394721362N01101220EA0242902432094008
B0549434721366N01101125EA0243702440094008
B0549474721350N01101033EA0244002440093008
B0549514721316N01100958EA0243602440095008
K054951180013
B0549554721270N01100879EA0243302432099008
B0549594721245N01100779EA0242602432103008
B0550034721245N01100670EA0242602432099008
B0550074721250N01100562EA0242602432097008
B0550114721241N01100450EA0242202424101008
K055011180013
B0550154721220N01100337EA0242502424104008
B0550194721208N01100225EA0243602432099008
B0550234721204N01100116EA0244702448098008
B0550274721195N01100016EA0246102464098008
B0550314721175N01059929EA0246702464097008
K055031180012
B0550354721137N01059854EA0246802472098008
B0550394721091N01059779EA0246702464107008
B0550434721045N01059704EA0246902472109008
B0550474721008N01059620EA0247302472100008
B0550514720958N01059562EA0246602464106008
K055051180002
B0550554720900N01059608EA0245102448115012
B0550594720904N01059712EA0244702448113008
B0551034720954N01059779EA0245302456104012
B0551074721020N01059812EA0245302456103012
B0551114721087N01059854EA0244902448104008
K055111180002
B0551154721141N01059920EA0245102456100008
B0551194721187N01100004EA0245102456102028
B0551234721212N01100095EA0246602464103016
B0551274721216N01100183EA0247402472103004
B0551314721170N01100212EA0247402472102016
K055131180002
B0551354721125N01100141EA0247302472104024
B0551394721137N01100033EA0248402480101016
B0551434721145N01059925EA0249302488100004
B0551474721129N01059837EA0250102504099016
B0551514721075N01059804EA0248802488106008
K055151180002
B0551554721025N01059870EA0249102488112008
B0551594721037N01059962EA0250302504100012
B0552034721091N01100020EA0250502504102008
B0552074721162N01100066EA0250602504106008
B0552114721212N01100137EA0251402512100008
K055211180002
B0552154721212N01100220EA0251602512103008
B0552194721166N01100250EA0251902520098008
B0552234721129N01100175EA0251302504107008
B0552274721145N01100054EA0251402512111008
B0552314721162N01059945EA0253102528102008
K055231180002
B0552354721137N01059850EA0253302536106008
B0552394721104N01059766EA0254602544101008
B0552434721070N01059683EA0254602544102008
B0552474721041N01059595EA0254102536107008
B0552514721025N01059487EA0253202528109008
K055251000001
B0552554721025N01059370EA0251902520116008
B0552594721020N01059245EA0251402512122008
B0553034721008N01059120EA0251002504120008
B0553074720995N01059000EA0251002504122008
B0553114720983N01058875EA0251002504119008
K055311180007
B0553154720983N01058745EA0249702488127008
B0553194721000N01058612EA0249602488129008
B0553234721008N01058483EA0250902504118008
B0553274721012N01058366EA0250902504116008
B0553314721012N01058241EA0250502496120008
K055331180010
B0553354721012N01058120EA0250602504118008
B0553394721012N01058000EA0250602504117008
B0553434721020N01057887EA0250902504113008
B0553474721033N01057770EA0250902496116008
B0553514721037N01057654EA0250902504119008
K055351180006
B0553554721029N01057550EA0252002512109008
B0553594721008N01057454EA0252202520103008
B0554034720983N01057366EA0251302512106008
B0554074720941N01057266EA0249802488122008
B0554114720891N01057170EA0249802488122008
K055411000002
B0554154720845N01057083EA0249802496119008
B0554194720795N01056991EA0249302488116008
B0554234720775N01056879EA0248702480121008
B0554274720783N01056754EA0248302480120008
B0554314720804N01056633EA0247702472116008
K055431180000
B0554354720804N01056500EA0247002464122008
B0554394720804N01056366EA0246802464121008
B0554434720820N01056233EA0246902464129008
B0554474720858N01056120EA0248502480118008
B0554514720891N01056016EA0249402488112008
K055451180000
B0554554720908N01055912EA0250502496107008
B0554594720904N01055812EA0251102504106008
B0555034720891N01055720EA0252202512102008
B0555074720870N01055633EA0252702520105008
B0555114720858N01055550EA0254602544092008
K055511180000
B0555154720845N01055466EA0255302552093008
B0555194720833N01055383EA0255502552097008
B0555234720812N01055295EA0255002544104008
B0555274720787N01055200EA0255302544107008
B0555314720795N01055095EA0255702560099008
K055531000005
B0555354720812N01054991EA0255702552099008
B0555394720825N01054887EA0255702552101008
B0555434720829N01054783EA0255502552107008
B0555474720833N01054691EA0256902560096008
B0555514720833N01054604EA0256302560099008
K055551180000
B0555554720829N01054512EA0255702552107008
B0555594720816N01054425EA0255002544112004
B0556034720795N01054341EA0253902536116008
B0556074720770N01054254EA0252602520119008
B0556114720741N01054166EA0250502496134008
K055611000022
B0556154720704N01054066EA0248802480138008
B0556194720666N01053962EA0246302456150008
B0556234720625N01053845EA0244502432160008
B0556274720579N01053729EA0243602424161008
B0556314720541N01053608EA0244002424156012
K055631000027
B0556354720508N01053491EA0244302432147008
B0556394720487N01053370EA0244302432144012
B0556434720466N01053250EA0244802440138012
B0556474720445N01053141EA0245302440132012
B0556514720425N01053045EA0246402456120012
K055651000016
B0556554720408N01052958EA0246702464114012
B0556594720383N01052883EA0246902464110012
B0557034720362N01052808EA0247302464109008
B0557074720337N01052733EA0247302472107008
B0557114720312N01052658EA0248002472105008
K055711000022
B0557154720295N01052591EA0248902488097008
B0557194720275N01052520EA0249102488095004
B0557234720258N01052450EA0249402488098008
B0557274720241N01052375EA0249902496098008
B0557314720225N01052304EA0250102496094008
K055731000019
B0557354720208N01052229EA0250302496098004
B0557394720195N01052150EA0250902504096008
B0557434720183N01052070EA0251002504099004
B0557474720170N01051987EA0251602512098004
B0557514720162N01051895EA0252202520096008
K055751000012
B0557554720154N01051812EA0252602520095008
B0557594720141N01051725EA0253202528094004
B0558034720125N01051645EA0253902536097008
B0558074720095N01051595EA0253702536099008
B0558114720054N01051608EA0253702536101008
K055811000008
B0558154720033N01051675EA0254402544100028
B0558194720041N01051762EA0255302552095016
B0558234720087N01051841EA0255302552097016
B0558274720141N01051916EA0255302552097024
B0558314720179N01052008EA0255302552103000
K055831000008
B0558354720170N01052091EA0255502552104008
B0558394720129N01052095EA0256002552103024
B0558434720104N01052025EA0256202560095012
B0558474720120N01051920EA0256202560100008
B0558514720154N01051820EA0257002568095016
K055851000008
B0558554720183N01051720EA0257402568093008
B0558594720195N01051620EA0257302568096008
B0559034720191N01051520EA0256102560103008
B0559074720179N01051425EA0255702552108008
B0559114720154N01051325EA0254802536115008
K055911000008
B0559154720129N01051225EA0253202520126008
B0559194720095N01051120EA0251802504134008
B0559234720054N01051025EA0251002496135008
B0559274720008N01050937EA0250502488139008
B0559314719962N01050854EA0249802488138008
K055931000019
B0559354719920N01050766EA0249802488136012
B0559394719875N01050679EA0249302488133008
B0559434719837N01050587EA0248802480135012
B0559474719791N01050495EA0248202472139012
B0559514719750N01050404EA0248202472136012
K055951000025
B0559554719704N01050320EA0247702464134012
B0559594719658N01050233EA0246702456135012
B0600034719612N01050141EA0246702456139012
B0600074719570N01050050EA0247102464129012
B0600114719533N01049970EA0247702472124012
K060011000021
B0600154719487N01049895EA0247802472123008
B0600194719441N01049829EA0247802472122008
B0600234719391N01049762EA0247902472123008
B0600274719341N01049695EA0248402480120008
B0600314719295N01049633EA0248702480116008
K060031000021
B0600354719254N01049562EA0248702480118008
B0600394719212N01049487EA0248902488115008
B0600434719175N01049412EA0248602480116008
B0600474719133N01049333EA0248102472121008
B0600514719091N01049250EA0247902472122008
K060051000019
B0600554719050N01049166EA0248202472119008
B0600594719012N01049091EA0248402480112008
B0601034718975N01049012EA0248102472116008
B0601074718933N01048929EA0247102464123008
B0601114718895N01048837EA0246802464121008
K060111000016
B0601154718862N01048741EA0246502456122008
B0601194718825N01048641EA0245502448128008
B0601234718787N01048541EA0245102440133008
B0601274718758N01048445EA0245902456121008
B0601314718725N01048350EA0245002448119008
K060131000013
B0601354718691N01048258EA0242802432129008
B0601394718645N01048158EA0241202408143008
B0601434718604N01048054EA0240202392147008
B0601474718558N01047958EA0240202392138008
B0601514718520N01047858EA0239402392134012
K060151000019
B0601554718475N01047758EA0237002360144008
B0601594718429N01047645EA0235502344154012
B0602034718387N01047537EA0236302352150012
B0602074718358N01047437EA0236802360132012
B0602114718329N01047341EA0236302360131012
K060211000020
B0602154718304N01047245EA0235602344131012
B0602194718275N01047145EA0235002336135012
B0602234718250N01047050EA0234702336134008
B0602274718220N01046954EA0234602336131008
B0602314718200N01046862EA0234002336128008
K060231000026
B0602354718183N01046766EA0233602328127008
B0602394718170N01046666EA0233402328125008
B0602434718154N01046570EA0232902320126008
B0602474718141N01046475EA0232902320126008
B0602514718129N01046383EA0233702328119008
K060251000024
B0602554718125N01046291EA0234502336113008
B0602594718120N01046195EA0234602344113008
B0603034718120N01046108EA0235902352107008
B0603074718133N01046029EA0237902368095008
B0603114718145N01045950EA0238102376094008
K060311000016
B0603154718162N01045870EA0239002392095008
B0603194718175N01045787EA0240002392093008
B0603234718179N01045700EA0240502400098008
B0603274718170N01045608EA0241002400109008
B0603314718179N01045516EA0242702424096008
K060331000009
B0603354718187N01045429EA0243202432096008
B0603394718187N01045337EA0244502440095008
B0603434718183N01045245EA0245302448102008
B0603474718150N01045179EA0246302456108008
B0603514718104N01045212EA0248302472099008
K060351000004
B0603554718104N01045308EA0248502488095008
B0603594718129N01045412EA0249102488096008
B0604034718162N01045516EA0250102496098008
B0604074718175N01045620EA0250902512096008
B0604114718150N01045700EA0251402512099008
K060411000004
B0604154718108N01045704EA0251902520095008
B0604194718091N01045637EA0252202520098008
B0604234718112N01045545EA0252502520104008
B0604274718154N01045458EA0253202528104008
B0604314718187N01045370EA0254602544097008
K060431000004
B0604354718212N01045279EA0255302552097008
B0604394718220N01045191EA0255302552097008
B0604434718225N01045104EA0255902560100008
B0604474718233N01045012EA0255702552104008
B0604514718258N01044908EA0255202544113008
K060451000006
B0604554718308N01044808EA0254302544115008
B0604594718370N01044712EA0253002520128008
B0605034718450N01044620EA0251902512134008
B0605074718533N01044537EA0252502520131008
B0605114718612N01044445EA0252502520132008
K060511180015
B0605154718679N01044354EA0253302528128008
B0605194718733N01044254EA0254702544119012
B0605234718766N01044150EA0255302552118008
B0605274718775N01044041EA0255702552118012
B0605314718775N01043933EA0256702568111012
K060531180014
B0605354718770N01043833EA0258102576104008
B0605394718762N01043737EA0259002584101008
B0605434718750N01043637EA0259502584102008
B0605474718737N01043537EA0260802600106008
B0605514718720N01043450EA0261802608103008
K060551000002
B0605554718700N01043366EA0262702624098008
B0605594718670N01043283EA0262502616111008
B0606034718637N01043208EA0264002632112008
B0606074718595N01043183EA0265102648105004
B0606114718566N01043237EA0265102648104008
K060611000012
B0606154718575N01043341EA0265102648104008
B0606194718625N01043437EA0265102648106008
B0606234718691N01043533EA0265402648109008
B0606274718737N01043633EA0266602664103008
B0606314718766N01043737EA0267702672101008
K060631000012
B0606354718779N01043837EA0268702680097008
B0606394718783N01043937EA0269202688105008
B0606434718754N01044004EA0270802704098008
B0606474718716N01043991EA0271702712093008
B0606514718708N01043916EA0271702712098008
K060651000012
B0606554718720N01043825EA0272602720099008
B0606594718729N01043729EA0272802720102008
B0607034718729N01043637EA0273802736097008
B0607074718720N01043558EA0274102736100008
B0607114718700N01043491EA0274102736102008
K060711000012
B0607154718666N01043437EA0274102736106008
B0607194718641N01043391EA0275502752093008
B0607234718612N01043341EA0275202744101008
B0607274718583N01043283EA0275202744106004
B0607314718558N01043216EA0275202744105008
K060731000032
B0607354718529N01043145EA0274802736114004
B0607394718500N01043075EA0275202744110004
B0607434718475N01043004EA0275502752108008
B0607474718454N01042929EA0276302752105008
B0607514718425N01042858EA0276402760103008
K060751000027
B0607554718395N01042787EA0275902752108008
B0607594718366N01042700EA0274802744119008
B0608034718333N01042608EA0274202736124008
B0608074718300N01042512EA0274402736123008
B0608114718270N01042416EA0275002744114008
K060811000018
B0608154718245N01042325EA0275002744114008
B0608194718204N01042258EA0277102752122008
B0608234718170N01042220EA0279202792091008
B0608274718129N01042187EA0277302768108008
B0608314718070N01042162EA0277402768126008
K060831000017
B0608354718020N01042137EA0279002792106008
B0608394717966N01042112EA0278602784115008
B0608434717912N01042091EA0279802800107008
B0608474717866N01042070EA0280302800102008
B0608514717816N01042054EA0280302800104008
K060851000031
B0608554717762N01042037EA0280302800107008
B0608594717708N01042020EA0280802808106008
B0609034717662N01042004EA0282002824097008
B0609074717616N01041983EA0282102824098008
B0609114717570N01041962EA0281602816105008
K060911000029
B0609154717516N01041937EA0281202816108008
B0609194717462N01041916EA0280002800113008
B0609234717400N01041891EA0278302784123008
B0609274717333N01041862EA0277302768128008
B0609314717270N01041833EA0276402760128008
K060931000031
B0609354717200N01041804EA0273702744137008
B0609394717125N01041783EA0271602704153008
B0609434717045N01041758EA0270702696156008
B0609474716966N01041737EA0269002688156008
B0609514716883N01041725EA0265302656170028
K060951000042
B0609554716791N01041712EA0261802608174016
B0609594716687N01041704EA0259402584179016
B0610034716583N01041691EA0258302568179024
B0610074716479N01041675EA0256902560177016
B0610114716379N01041662EA0255502544179016
K061011000033
B0610154716283N01041633EA0255502544172016
B0610194716204N01041579EA0257902560158016
B0610234716175N01041483EA0261202600132016
B0610274716183N01041379EA0262402616117016
B0610314716195N01041279EA0263902632108000
K061031000030
B0610354716212N01041195EA0265902656104008
B0610394716225N01041116EA0267202664096012
B0610434716237N01041037EA0268202672104008
B0610474716254N01040966EA0270002696090008
B0610514716262N01040891EA0268602680106008
K061051000017
B0610554716287N01040804EA0269402688101008
B0610594716304N01040720EA0269802696099008
B0611034716320N01040629EA0271402704101008
B0611074716350N01040554EA0272102720084008
B0611114716383N01040462EA0271802712110008
K061111000017
B0611154716412N01040370EA0272602720112008
B0611194716429N01040279EA0273202728104004
B0611234716433N01040187EA0273002720107008
B0611274716433N01040091EA0275302736104008
B0611314716433N01040012EA0275402744094008
K061131000017
B0611354716433N01039916EA0274602728118008
B0611394716425N01039816EA0275802744121008
B0611434716412N01039729EA0277102768107008
B0611474716387N01039658EA0276902760112008
B0611514716354N01039595EA0276202752115008
K061151000021
B0611554716320N01039529EA0275202752116008
B0611594716283N01039475EA0273602736118008
B0612034716237N01039441EA0270402696135008
B0612074716179N01039420EA0265802648133008
B0612114716100N01039425EA0261602608150008
K061211000036
B0612154716008N01039466EA0258802576176044
B0612194715912N01039495EA0259502576162024
B0612234715829N01039450EA0260102600141024
B0612274715754N01039383EA0258802576150032
B0612314715666N01039345EA0256102560155028
K061231000036
B0612354715562N01039345EA0254102528160024
B0612394715454N01039358EA0253202520168020
B0612434715345N01039379EA0251902504164024
B0612474715241N01039404EA0251802504166020
B0612514715141N01039420EA0251802512147020
K061251000006
B0612554715037N01039437EA0251502504148016
B0612594714937N01039450EA0251902512150016
B0613034714837N01039445EA0252302512143016
B0613074714754N01039404EA0255302528160016
B0613114714745N01039304EA0260702608128016
K061311180000
B0613154714804N01039225EA0263302632105016
B0613194714875N01039154EA0263302632113008
B0613234714945N01039083EA0264902648111012
B0613274714995N01039004EA0265702656107008
B0613314715000N01038929EA0267302672098008
K061331180000
B0613354714966N01038908EA0267302672096008
B0613394714929N01038950EA0267902680101008
B0613434714900N01039020EA0269502688096008
B0613474714875N01039104EA0269802696104008
B0613514714841N01039170EA0271702712102008
K061351180000
B0613554714804N01039183EA0273202728102008
B0613594714800N01039108EA0273602736101004
B0614034714866N01039029EA0274302744103008
B0614074714954N01038987EA0276002752100008
B0614114715033N01038929EA0276902768100008
K061411180000
B0614154715091N01038845EA0277702776099008
B0614194715137N01038758EA0277902776104008
B0614234715166N01038662EA0278302784109008
B0614274715183N01038566EA0279202792105008
B0614314715191N01038479EA0278902784107008
K061431180002
B0614354715183N01038387EA0277902776116008
B0614394715170N01038287EA0277502768124008
B0614434715150N01038187EA0276802760129008
B0614474715125N01038087EA0276402752136008
B0614514715095N01037991EA0276102752139008
K061451000025
B0614554715070N01037895EA0276602752139012
B0614594715045N01037804EA0277402768132008
B0615034715020N01037716EA0277702768130012
B0615074715000N01037620EA0277702768131012
B0615114714975N01037525EA0277502760139012
K061511000035
B0615154714950N01037429EA0278202768137012
B0615194714929N01037329EA0279602784129028
B0615234714916N01037229EA0279802792130020
B0615274714904N01037133EA0281002808126000
B0615314714900N01037041EA0282302824114016
K061531000030
B0615354714887N01036954EA0282402824114012
B0615394714862N01036870EA0282202816115008
B0615434714820N01036791EA0280302808119008
B0615474714762N01036729EA0278102768126008
B0615514714687N01036675EA0277802768133028
K061551000028
B0615554714600N01036633EA0278002768144016
B0615594714525N01036583EA0282302800148016
B0616034714487N01036525EA0286802864113024
B0616074714458N01036470EA0285302848120004
B0616114714408N01036437EA0281302800134008
K061611000028
B0616154714337N01036400EA0278602776151024
B0616194714258N01036362EA0276902760156016
B0616234714175N01036325EA0276302744177016
B0616274714095N01036279EA0277902768161020
B0616314714033N01036229EA0278302768145024
K061631000045
B0616354713970N01036166EA0276902752147020
B0616394713925N01036070EA0275802744155020
B0616434713929N01035941EA0276302752143024
B0616474713962N01035808EA0276302752144016
B0616514713991N01035670EA0275602744145016
K061651000045
B0616554714012N01035533EA0275002736148016
B0616594714025N01035395EA0274702736151016
B0617034714037N01035262EA0276602752149016
B0617074714050N01035150EA0279202784121016
B0617114714050N01035045EA0277502768131000
K061711000013
B0617154714037N01034933EA0276102752142008
B0617194714016N01034820EA0275802744147028
B0617234713995N01034712EA0277702760137016
B0617274713983N01034612EA0278702784122000
B0617314713962N01034512EA0276902760137016
K061731000026
B0617354713929N01034408EA0276802752143012
B0617394713904N01034304EA0278302776136008
B0617434713887N01034216EA0280802808115012
B0617474713866N01034133EA0279802800118012
B0617514713825N01034058EA0277502760145012
K061751000030
B0617554713775N01033983EA0277302760146012
B0617594713729N01033912EA0277302760143028
B0618034713683N01033841EA0276702752142020
B0618074713637N01033762EA0275202744143000
B0618114713591N01033675EA0273602728146016
K061811000044
B0618154713545N01033587EA0271302704154012
B0618194713495N01033495EA0269002680158008
B0618234713437N01033400EA0266702664146028
B0618274713370N01033295EA0265602640164020
B0618314713304N01033195EA0264302624161016
K061831000032
B0618354713229N01033108EA0263902624160024
B0618394713150N01033025EA0263802624155020
B0618434713075N01032929EA0264902640153016
B0618474712995N01032841EA0264802624161020
B0618514712895N01032800EA0266802656149020
K061851000014
B0618554712800N01032791EA0267902656157020
B0618594712716N01032775EA0275702744145020
B0619034712666N01032745EA0278602784112016
B0619074712608N01032729EA0278302768127016
B0619114712545N01032725EA0277902768129016
K061911000014
B0619154712479N01032750EA0279202776129016
B0619194712429N01032779EA0283202816115016
B0619234712391N01032808EA0283502832108016
B0619274712345N01032850EA0283002824123000
B0619314712304N01032904EA0283702832112008
K061931000040
B0619354712262N01032954EA0283402832114008
B0619394712216N01033016EA0282702816126004
B0619434712175N01033083EA0284202832122012
B0619474712141N01033141EA0285902856102008
B0619514712104N01033191EA0285702856108012
K061951000033
B0619554712058N01033237EA0285302848113012
B0619594712016N01033279EA0286302864110008
B0620034711970N01033316EA0287402872111008
B0620074711925N01033337EA0289602896099008
B0620114711887N01033345EA0290502904098008
K062011000036
B0620154711841N01033337EA0290702912104008
B0620194711791N01033320EA0291202912111008
B0620234711745N01033300EA0293102928101008
B0620274711708N01033270EA0292902936107008
B0620314711662N01033237EA0291102912125008
K062031000044
B0620354711604N01033200EA0290202904133008
B0620394711545N01033150EA0290202904135008
B0620434711483N01033108EA0290302904135008
B0620474711425N01033070EA0289702896133012
B0620514711366N01033029EA0288402888140008
K062051000044
B0620554711300N01032991EA0287402872146012
B0620594711229N01032958EA0285902864146012
B0621034711162N01032925EA0285002848147028
B0621074711091N01032900EA0281902816151020
B0621114711008N01032883EA0278102768175016
K062111000049
B0621154710916N01032866EA0276902760172024
B0621194710829N01032850EA0275702752170016
B0621234710745N01032829EA0273602720179016
B0621274710654N01032808EA0271202696178016
B0621314710570N01032779EA0269902688171016
K062131000051
B0621354710483N01032754EA0268302680160036
B0621394710395N01032708EA0267602664161024
B0621434710325N01032645EA0270602680168032
B0621474710295N01032562EA0274302744135032
B0621514710279N01032470EA0274802752134000
K062151000042
B0621554710275N01032370EA0276002760131016
B0621594710266N01032270EA0276502768132012
B0622034710258N01032166EA0276902768134008
B0622074710250N01032062EA0277702784132028
B0622114710262N01031958EA0279602800121020
K062211000033
B0622154710283N01031854EA0280902816114000
B0622194710308N01031745EA0281802824120016
B0622234710341N01031637EA0283702840113008
B0622274710375N01031529EA0284602856111004
B0622314710404N01031416EA0286802864118008
K062231180000
B0622354710429N01031300EA0287102872118008
B0622394710441N01031179EA0286402864124008
B0622434710437N01031050EA0285202848142008
B0622474710441N01030916EA0285002848142012
B0622514710450N01030779EA0285302848142008
K062251000005
B0622554710462N01030641EA0285802856140028
B0622594710470N01030495EA0286002856144020
B0623034710470N01030354EA0286002856141016
B0623074710475N01030216EA0287102864142024
B0623114710470N01030079EA0287502872139000
K062311000001
B0623154710454N01029950EA0288502880140008
B0623194710425N01029833EA0289202888134012
B0623234710391N01029720EA0289802896137008
B0623274710362N01029612EA0291402912129012
B0623314710333N01029508EA0291802920122012
K062331000008
B0623354710300N01029408EA0292302920127012
B0623394710270N01029300EA0293102936124012
B0623434710245N01029191EA0293402936118012
B0623474710208N01029091EA0293402936132012
B0623514710170N01028995EA0293602936131012
K062351000014
B0623554710133N01028904EA0294302944129012
B0623594710095N01028820EA0294502944122012
B0624034710058N01028737EA0294902952120012
B0624074710025N01028645EA0295402952124012
B0624114709987N01028558EA0295402960121012
K062411000020
B0624154709950N01028470EA0295402952122008
B0624194709912N01028379EA0295702960119008
B0624234709891N01028275EA0295202952127012
B0624274709887N01028145EA0293602936131008
B0624314709883N01028004EA0292302920136012
K062431000019
B0624354709875N01027858EA0292502920143012
B0624394709870N01027729EA0295402960121012
B0624434709862N01027620EA0296002960116012
B0624474709850N01027504EA0295802952125012
B0624514709837N01027387EA0296002968115012
K062451000001
B0624554709820N01027270EA0295802952130012
B0624594709804N01027145EA0298302976126012
B0625034709800N01027037EA0299503000102008
B0625074709808N01026908EA0295502960136008
B0625114709833N01026758EA0294902944149012
K062511000002
B0625154709887N01026620EA0296902960141008
B0625194709958N01026500EA0297602976136012
B0625234710033N01026383EA0296302960141012
B0625274710104N01026262EA0294902944145012
B0625314710175N01026137EA0294602944146012
K062531180017
B0625354710237N01026008EA0293502936144028
B0625394710295N01025875EA0292302920146020
B0625434710350N01025737EA0290702904150000
B0625474710400N01025591EA0289602896151016
B0625514710445N01025445EA0288602888151012
K062551180013
B0625554710479N01025291EA0287802880154008
B0625594710504N01025137EA0287302864156012
B0626034710508N01024979EA0287002864154012
B0626074710512N01024829EA0286802864150028
B0626114710512N01024679EA0286302856148020
K062611180006
B0626154710500N01024529EA0285702856144000
B0626194710487N01024383EA0285302848151016
B0626234710470N01024245EA0286602864141012
B0626274710470N01024112EA0286602864131008
B0626314710475N01023970EA0284502848138012
K062631180003
B0626354710491N01023816EA0283002824147012
B0626394710520N01023658EA0282002816151012
B0626434710562N01023512EA0281302808146012
B0626474710620N01023370EA0280702800141012
B0626514710687N01023237EA0279602792147012
K062651180017
B0626554710754N01023095EA0279002784150028
B0626594710808N01022958EA0279402784146020
B0627034710858N01022825EA0280302800138000
B0627074710904N01022695EA0281602808141016
B0627114710937N01022579EA0284202840119012
K062711180016
B0627154710962N01022475EA0284602848110008
B0627194710975N01022362EA0284602848109012
B0627234710983N01022241EA0285102848110012
B0627274710983N01022112EA0286002856123008
B0627314710950N01021995EA0287402872123008
K062731180009
B0627354710912N01021895EA0289802896111008
B0627394710879N01021800EA0290502904109008
B0627434710841N01021704EA0289102888125012
B0627474710795N01021608EA0288802888127008
B0627514710758N01021520EA0288902888123008
K062751000006
B0627554710716N01021429EA0287802872131008
B0627594710675N01021329EA0286702864135012
B0628034710641N01021216EA0286402856140008
B0628074710620N01021104EA0286402864129012
B0628114710604N01020991EA0284402840132012
K062811000015
B0628154710579N01020870EA0281102808146012
B0628194710554N01020737EA0279602784153012
B0628234710529N01020600EA0279802784155028
B0628274710508N01020470EA0280502792146020
B0628314710487N01020345EA0280902800145016
K062831000016
B0628354710470N01020220EA0281502800145024
B0628394710458N01020095EA0281802808137016
B0628434710450N01019970EA0282702816132016
B0628474710433N01019850EA0281802808134016
B0628514710400N01019725EA0282402808141016
K062851000010
B0628554710383N01019616EA0287002856124016
B0628594710383N01019525EA0287302872106016
B0629034710375N01019420EA0283302832129000
B0629074710354N01019300EA0281102800145008
B0629114710345N01019166EA0280302792144024
K062911000018
B0629154710333N01019025EA0280302792144012
B0629194710333N01018891EA0282302808139000
B0629234710337N01018770EA0283502832118012
B0629274710337N01018645EA0282002816126012
B0629314710333N01018516EA0281802808133008
K062931000003
B0629354710329N01018391EA0283702832120008
B0629394710320N01018275EA0284602840115008
B0629434710300N01018162EA0284502840119012
B0629474710262N01018062EA0284402840122008
B0629514710216N01017966EA0284402840126008
K062951180002
B0629554710175N01017866EA0284602840127008
B0629594710133N01017770EA0284602840128012
B0630034710095N01017666EA0283502832130008
B0630074710054N01017562EA0282702824137012
B0630114710008N01017454EA0281402808140012
K063011000012
B0630154709970N01017345EA0280502800145012
B0630194709929N01017233EA0279802792140012
B0630234709895N01017125EA0279402784137012
B0630274709862N01017012EA0278302776136012
B0630314709820N01016895EA0276802760139012
K063031000015
B0630354709783N01016775EA0276702752147012
B0630394709745N01016658EA0276702760138012
B0630434709716N01016545EA0276702760139012
B0630474709683N01016429EA0275902752141028
B0630514709650N01016316EA0275202744135020
K063051000014
B0630554709616N01016204EA0274202736136000
B0630594709579N01016083EA0273502728140016
B0631034709554N01015958EA0273402728142012
B0631074709529N01015837EA0273802728137008
B0631114709508N01015716EA0273702728133012
K063111000009
B0631154709483N01015604EA0273502728134012
B0631194709454N01015500EA0273502728131012
B0631234709425N01015395EA0273502728127012
B0631274709404N01015283EA0273202728128012
B0631314709387N01015162EA0273602728126012
K063131000010
B0631354709375N01015045EA0274202736122012
B0631394709366N01014937EA0276102752114012
B0631434709354N01014841EA0277502776101012
B0631474709341N01014745EA0277902776105012
B0631514709341N01014645EA0278602784103008
K063151000005
B0631554709337N01014545EA0279002792102008
B0631594709329N01014450EA0279802800097008
B0632034709312N01014354EA0279402792100008
B0632074709287N01014250EA0278702784118008
B0632114709266N01014145EA0279802792109008
K063211000002
B0632154709254N01014054EA0280802808106008
B0632194709241N01013958EA0281802816105008
B0632234709233N01013866EA0282502824099008
B0632274709204N01013795EA0281802816104008
B0632314709175N01013716EA0281802816109008
K063231000006
B0632354709158N01013620EA0281302808104008
B0632394709162N01013512EA0280302800115008
B0632434709187N01013395EA0280202800119008
B0632474709225N01013291EA0280502800116008
B0632514709266N01013191EA0281002808114008
K063251000006
B0632554709300N01013091EA0281402808113012
B0632594709320N01012995EA0281302808106008
B0633034709333N01012891EA0280902808112008
B0633074709329N01012795EA0280902808111008
B0633114709325N01012695EA0282002816105008
K063311000006
B0633154709320N01012600EA0282302816105008
B0633194709304N01012508EA0283702824108008
B0633234709295N01012425EA0285302848095008
B0633274709283N01012341EA0285202848102008
B0633314709275N01012245EA0285802856102008
K063331000010
B0633354709270N01012154EA0285902856105008
B0633394709266N01012054EA0286002856105008
B0633434709262N01011954EA0286302864106008
B0633474709262N01011850EA0286202856111008
B0633514709266N01011741EA0286102856112008
K063351000006
B0633554709275N01011633EA0286102856114008
B0633594709283N01011520EA0286102856114008
B0634034709291N01011404EA0286102856115008
B0634074709295N01011287EA0285702848118008
B0634114709295N01011166EA0284602840125008
K063411180000
B0634154709295N01011045EA0283002816134008
B0634194709291N01010920EA0282002808140008
B0634234709283N01010795EA0281802808136012
B0634274709270N01010675EA0280502800137008
B0634314709262N01010550EA0279102784141012
K063431000011
B0634354709250N01010420EA0278102768140012
B0634394709241N01010291EA0277802768139012
B0634434709233N01010162EA0277002760140012
B0634474709229N01010029EA0276702752143012
B0634514709225N01009895EA0276102752140012
K063451000009
B0634554709220N01009766EA0275602744138012
B0634594709216N01009629EA0273702736143012
B0635034709208N01009487EA0272402712151012
B0635074709195N01009345EA0272302712153012
B0635114709179N01009208EA0272302712145028
K063511000008
B0635154709170N01009070EA0272102712144020
B0635194709170N01008933EA0271502704144016
B0635234709175N01008795EA0271002704143024
B0635274709191N01008662EA0271402704143016
B0635314709212N01008541EA0272602720131016
K063531000005
B0635354709229N01008425EA0272702720124000
B0635394709241N01008312EA0272502720127008
B0635434709237N01008200EA0273002720128012
B0635474709233N01008100EA0274202744109008
B0635514709220N01008008EA0273102728112012
K063551000009
B0635554709208N01007904EA0271302712125012
B0635594709195N01007791EA0271302704123008
B0636034709187N01007683EA0270902704121008
B0636074709175N01007570EA0270702704119008
B0636114709150N01007462EA0269802696127008
K063611000009
B0636154709120N01007354EA0268602680130012
B0636194709095N01007241EA0267902672129008
B0636234709070N01007125EA0266902664133012
B0636274709058N01007000EA0266102656138012
B0636314709058N01006870EA0267002656141012
K063631000010
B0636354709070N01006766EA0270002696104012
B0636394709083N01006670EA0267102664118012
B0636434709091N01006550EA0265302648132012
B0636474709108N01006420EA0265702648136008
B0636514709133N01006304EA0266102656128008
K063651000006
B0636554709162N01006191EA0266002656128012
B0636594709187N01006079EA0266302656124008
B0637034709212N01005970EA0266302664122012
B0637074709241N01005858EA0265802656125012
B0637114709266N01005745EA0265902656123012
K063711000003
B0637154709295N01005637EA0266002656120012
B0637194709312N01005520EA0265302648121008
B0637234709316N01005404EA0264902648121008
B0637274709312N01005291EA0264402640125008
B0637314709308N01005170EA0263402632127008
K063731000003
B0637354709295N01005050EA0263202632132008
B0637394709291N01004937EA0264002640119008
B0637434709283N01004825EA0263302632123012
B0637474709275N01004708EA0262802624128008
B0637514709266N01004604EA0263502640116008
K063751000007
B0637554709258N01004504EA0263502632118008
B0637594709245N01004404EA0263502640115008
B0638034709237N01004304EA0263502632116008
B0638074709229N01004208EA0263402632112008
B0638114709216N01004112EA0262802632115008
K063811000012
B0638154709208N01004008EA0262302624119008
B0638194709200N01003908EA0261802616120008
B0638234709191N01003800EA0261402616119008
B0638274709191N01003691EA0261102608119008
B0638314709195N01003583EA0261102608121008
K063831000012
B0638354709179N01003483EA0260702600122008
B0638394709125N01003425EA0260402600124008
B0638434709062N01003450EA0260202600122008
B0638474709016N01003533EA0260202600118012
B0638514708987N01003641EA0259102592123008
K063851000012
B0638554708975N01003770EA0258302584128012
B0638594708970N01003908EA0257702576130012
B0639034708979N01004045EA0257402568131012
B0639074708987N01004183EA0257102568130012
B0639114708995N01004320EA0256702560134028
K063911000012
B0639154709004N01004462EA0256602560133020
B0639194709012N01004600EA0256202552133016
B0639234709020N01004737EA0255902552131024
B0639274709029N01004870EA0255702552129000
B0639314709037N01005008EA0255102544133008
K063931180011
B0639354709045N01005141EA0254802544130012
B0639394709058N01005275EA0255102544133008
B0639434709070N01005408EA0255002544127012
B0639474709079N01005537EA0254802544128012
B0639514709091N01005662EA0254802544123012
K063951180009
B0639554709095N01005795EA0254802544129012
B0639594709104N01005920EA0255702552120012
B0640034709100N01006045EA0255702552118012
B0640074709095N01006170EA0254802544121012
B0640114709083N01006291EA0254802544116012
K064011180010
B0640154709066N01006412EA0254702544119008
B0640194709050N01006533EA0254602544116008
B0640234709033N01006650EA0254602544115008
B0640274709016N01006770EA0254302536117008
B0640314709000N01006891EA0254102536116008
K064031180011
B0640354708991N01007012EA0254102536117008
B0640394708995N01007141EA0254402544115008
B0640434709020N01007254EA0255302552106008
B0640474709050N01007366EA0255302552101008
B0640514709083N01007479EA0253902536116008
K064051180014
B0640554709100N01007608EA0253502528126008
B0640594709116N01007729EA0254602544114008
B0641034709133N01007850EA0254302536109008
B0641074709145N01007983EA0252902520128008
B0641114709150N01008120EA0252902528126008
K064111180015
B0641154709145N01008250EA0253502536116008
B0641194709141N01008379EA0253702528119008
B0641234709145N01008500EA0255502552108008
B0641274709154N01008616EA0255902560101008
B0641314709158N01008741EA0255202544110008
K064131180020
B0641354709150N01008870EA0254502536116008
B0641394709129N01009000EA0252902520128008
B0641434709108N01009129EA0252802520131008
B0641474709083N01009245EA0253502528121008
B0641514709058N01009358EA0253002520125012
K064151180008
B0641554709033N01009475EA0253202528124008
B0641594709016N01009579EA0254602544112008
B0642034708991N01009679EA0254602544109008
B0642074708970N01009779EA0254302536114008
B0642114708958N01009879EA0254602544108008
K064211180000
B0642154708945N01009979EA0254602544107008
B0642194708937N01010087EA0253002528120008
B0642234708929N01010200EA0252302520126008
B0642274708925N01010320EA0251902512127008
B0642314708929N01010441EA0251902512126008
K064231000004
B0642354708933N01010558EA0252002512120008
B0642394708937N01010670EA0251902512116012
B0642434708941N01010783EA0251002504121008
B0642474708950N01010900EA0250502496123008
B0642514708966N01011016EA0250602504124008
K064251000002
B0642554708987N01011120EA0251502512116008
B0642594709012N01011225EA0252202520111008
B0643034709041N01011325EA0253702528109008
B0643074709066N01011416EA0254102536098008
B0643114709087N01011512EA0254102544099008
K064311180002
B0643154709095N01011616EA0253102528111008
B0643194709087N01011720EA0254102536111008
B0643234709041N01011754EA0255102552092008
B0643274708995N01011695EA0253902536101008
B0643314709000N01011591EA0252702528102008
K064331180001
B0643354709029N01011487EA0252402528109008
B0643394709054N01011383EA0253102536104008
B0643434709058N01011279EA0253202536101008
B0643474709012N01011220EA0253102528105008
B0643514708966N01011250EA0253102536100008
K064351180001
B0643554708962N01011329EA0252302528103008
B0643594708995N01011416EA0252702528102008
B0644034709037N01011495EA0252702528102008
B0644074709075N01011579EA0252602528106008
B0644114709095N01011675EA0253302536103008
K064411180001
B0644154709112N01011762EA0253702544095008
B0644194709112N01011854EA0253202536097008
B0644234709108N01011950EA0252302520106008
B0644274709087N01012050EA0251802520108008
B0644314709050N01012145EA0250502504114008
K064431000003
B0644354709000N01012229EA0248902488128008
B0644394708941N01012316EA0249602488126008
B0644434708883N01012395EA0249502488125008
B0644474708833N01012483EA0248902488127008
B0644514708791N01012579EA0249402488123008
K064451000006
B0644554708766N01012675EA0249802496114012
B0644594708750N01012775EA0249702496112008
B0645034708741N01012879EA0248802488114008
B0645074708733N01012987EA0248302480116008
B0645114708737N01013104EA0247202472120008
K064511000004
B0645154708745N01013225EA0246602456124008
B0645194708754N01013345EA0246702464119008
B0645234708762N01013458EA0246602464113008
B0645274708770N01013579EA0245702456120008
B0645314708783N01013695EA0245702448117008
K064531180005
B0645354708800N01013816EA0245702448117008
B0645394708820N01013929EA0245702448116008
B0645434708858N01014033EA0245102448115008
B0645474708900N01014137EA0244402440124008
B0645514708945N01014245EA0244102440122008
K064551180006
B0645554708991N01014345EA0244102440117008
B0645594709033N01014458EA0243602432123008
B0646034709066N01014570EA0243602432120008
B0646074709108N01014675EA0244202440119008
B0646114709141N01014779EA0244702448119008
K064611180007
B0646154709170N01014875EA0245302456105012
B0646194709200N01014970EA0246202464101008
B0646234709233N01015058EA0246002464098008
B0646274709258N01015162EA0245102448109008
B0646314709283N01015270EA0244802448111004
K064631180006
B0646354709312N01015379EA0244702448111008
B0646394709341N01015491EA0244502440115008
B0646434709366N01015600EA0245802456103008
B0646474709391N01015700EA0246002456100008
B0646514709412N01015804EA0247402464106008
K064651180012
B0646554709437N01015895EA0248302480094008
B0646594709458N01015983EA0248702480100008
B0647034709433N01016058EA0248702480103008
B0647074709383N01016037EA0248702488100008
B0647114709366N01015945EA0248902488108008
K064711180009
B0647154709383N01015845EA0249102488111008
B0647194709395N01015741EA0249602488112008
B0647234709370N01015654EA0249802496110008
B0647274709316N01015641EA0250502504098008
B0647314709266N01015687EA0250502504104008
K064731180009
B0647354709245N01015779EA0251702512098008
B0647394709254N01015875EA0251902520095008
B0647434709279N01015970EA0252002520096008
B0647474709312N01016070EA0251902520101008
B0647514709345N01016166EA0252502528100008
K064751180009
B0647554709370N01016266EA0253102536097008
B0647594709387N01016362EA0253202536099008
B0648034709408N01016462EA0252502528104008
B0648074709433N01016566EA0252202520117004
B0648114709458N01016650EA0254802552093008
K064811180006
B0648154709483N01016733EA0255602552095008
B0648194709512N01016812EA0255102552097008
B0648234709545N01016904EA0254202536109008
B0648274709575N01017004EA0253802536117008
B0648314709608N01017100EA0252002528110008
K064831000001
B0648354709641N01017212EA0249402488138008
B0648394709683N01017337EA0248802488143008
B0648434709725N01017450EA0252402520128008
B0648474709770N01017541EA0253802536110012
B0648514709804N01017629EA0253502536111008
K064851180002
B0648554709841N01017708EA0254202552099012
B0648594709879N01017783EA0254202544110012
B0649034709933N01017845EA0255202552103008
B0649074709995N01017887EA0255202560103008
B0649114710054N01017933EA0255702560098008
K064911000005
B0649154710108N01017995EA0255602552106008
B0649194710158N01018066EA0255602560103008
B0649234710200N01018154EA0255002552110008
B0649274710220N01018250EA0256202568106008
B0649314710237N01018341EA0257802576100008
K064931180000
B0649354710245N01018425EA0258602584096008
B0649394710258N01018516EA0258902592094008
B0649434710266N01018608EA0259502592098004
B0649474710266N01018691EA0259802600098008
B0649514710258N01018783EA0258702584113008
K064951000008
B0649554710262N01018875EA0259402592112008
B0649594710275N01018962EA0260102600107008
B0650034710283N01019045EA0261702616092008
B0650074710291N01019133EA0261502608103008
B0650114710295N01019225EA0261102608101008
K065011000011
B0650154710308N01019316EA0260502600110008
B0650194710316N01019412EA0260302600111008
B0650234710333N01019508EA0260302600107008
B0650274710350N01019608EA0258402584116008
B0650314710366N01019712EA0256802568121008
K065031000012
B0650354710391N01019820EA0256502560124008
B0650394710420N01019929EA0256502560129012
B0650434710445N01020033EA0258302576115008
B0650474710462N01020125EA0259402592105012
B0650514710462N01020220EA0259902600102012
K065051000006
B0650554710450N01020316EA0259902600108008
B0650594710437N01020412EA0259802600115008
B0651034710416N01020512EA0260002600119008
B0651074710400N01020604EA0261702616110008
B0651114710383N01020683EA0263402632108008
K065111000014
B0651154710366N01020754EA0264802648094008
B0651194710350N01020841EA0264102632114008
B0651234710341N01020929EA0264102640108008
B0651274710329N01021020EA0263702640108008
B0651314710320N01021116EA0262102624120008
K065131000018
B0651354710320N01021225EA0261502616128008
B0651394710345N01021329EA0261702624111008
B0651434710379N01021441EA0261502616120008
B0651474710433N01021541EA0262802632124008
B0651514710504N01021604EA0264202648106012
K065151000019
B0651554710579N01021654EA0263602632116008
B0651594710654N01021716EA0263302632120008
B0652034710712N01021795EA0265102648113008
B0652074710750N01021887EA0265102656109008
B0652114710770N01021987EA0264802648114008
K065211000019
B0652154710783N01022095EA0264602648114008
B0652194710800N01022195EA0264802648109008
B0652234710825N01022300EA0264802648108008
B0652274710850N01022408EA0264802648114008
B0652314710875N01022516EA0266002656111008
K065231180003
B0652354710879N01022620EA0267202672112008
B0652394710858N01022700EA0269902696096012
B0652434710829N01022762EA0270802712101008
B0652474710800N01022820EA0273502736091012
B0652514710766N01022866EA0273702736094012
K065251180002
B0652554710733N01022920EA0274102744096008
B0652594710700N01022979EA0274102744106008
B0653034710666N01023045EA0273502736110004
B0653074710637N01023129EA0272002712123008
B0653114710600N01023216EA0271102704134008
K065311000029
B0653154710562N01023304EA0270102696135008
B0653194710520N01023400EA0269602688138012
B0653234710483N01023491EA0269502688134008
B0653274710445N01023587EA0268902688132012
B0653314710420N01023691EA0268602680135012
K065331000028
B0653354710420N01023800EA0269102688130012
B0653394710429N01023908EA0268702688125012
B0653434710454N01024020EA0267302672128012
B0653474710479N01024137EA0265502648139012
B0653514710504N01024262EA0264902640142012
K065351000016
B0653554710520N01024387EA0264802640140012
B0653594710541N01024508EA0264702640137012
B0654034710558N01024637EA0263802632139012
B0654074710562N01024762EA0263702632141012
B0654114710554N01024883EA0263802640137012
K065411000012
B0654154710533N01025000EA0263802640134028
B0654194710504N01025108EA0263802640135020
B0654234710470N01025212EA0263702640131000
B0654274710437N01025320EA0262202624134016
B0654314710400N01025433EA0261102608142012
K065431000015
B0654354710366N01025558EA0259902600143008
B0654394710337N01025679EA0258902584139028
B0654434710300N01025804EA0258902592140020
B0654474710254N01025908EA0256802576139016
B0654514710175N01025962EA0254202544156024
K065451000008
B0654554710079N01025987EA0253402528159016
B0654594709983N01026000EA0252902520168016
B0655034709895N01026016EA0254602536168016
B0655074709833N01026045EA0260102592130016
B0655114709787N01026083EA0260302608118028
K065511000008
B0655154709750N01026150EA0259302600121024
B0655194709725N01026245EA0258702592127000
B0655234709700N01026350EA0259202592123016
B0655274709666N01026450EA0259202592125012
B0655314709620N01026525EA0260602608113008
K065531000008
B0655354709579N01026604EA0260902616114012
B0655394709545N01026700EA0260502608115012
B0655434709537N01026812EA0260602608117012
B0655474709554N01026920EA0261602624115012
B0655514709587N01027012EA0263302640103012
K065551000008
B0655554709625N01027087EA0263702648098012
B0655594709662N01027170EA0263502640110008
B0656034709687N01027266EA0264802648107008
B0656074709700N01027341EA0266402672089008
B0656114709708N01027420EA0266402672098008
K065611000006
B0656154709712N01027508EA0266902672094008
B0656194709708N01027595EA0266902672095008
B0656234709700N01027691EA0265402664103008
B0656274709670N01027791EA0263502640123008
B0656314709637N01027895EA0263102632128008
K065631000011
B0656354709604N01027987EA0263702640120008
B0656394709579N01028079EA0263802640121012
B0656434709554N01028170EA0263502640114008
B0656474709533N01028262EA0261502624117012
B0656514709508N01028370EA0259902600133012
K065651000017
B0656554709533N01028479EA0260702616124012
B0656594709583N01028558EA0262102624111012
B0657034709641N01028625EA0263102640107012
B0657074709691N01028691EA0264202648100012
B0657114709737N01028758EA0265002656098008
K065711000018
B0657154709779N01028825EA0265802672089008
B0657194709825N01028891EA0266202672091008
B0657234709870N01028954EA0266202672090008
B0657274709916N01029020EA0266402672092008
B0657314709970N01029083EA0266002664095008
K065731180004
B0657354710020N01029162EA0265202656100008
B0657394710062N01029254EA0265202656101008
B0657434710095N01029341EA0266002672095008
B0657474710125N01029429EA0266402672094008
B0657514710154N01029516EA0266402672095008
K065751180008
B0657554710187N01029600EA0266402672092008
B0657594710229N01029691EA0265902664099004
B0658034710283N01029770EA0265902664097008
B0658074710341N01029845EA0266002664100004
B0658114710387N01029933EA0266902672099004
K065811180016
B0658154710412N01030025EA0268302696089008
B0658194710416N01030116EA0269102696091008
B0658234710412N01030200EA0270302712084008
B0658274710395N01030287EA0270702712091008
B0658314710379N01030370EA0272202728089008
K065831180016
B0658354710370N01030454EA0272902736086008
B0658394710362N01030545EA0273002736092008
B0658434710366N01030645EA0273502744092008
B0658474710379N01030745EA0273702744093008
B0658514710391N01030854EA0273702744099008
K065851180009
B0658554710395N01030958EA0274902752097008
B0658594710387N01031054EA0275302760095008
B0659034710379N01031145EA0275902768096008
B0659074710370N01031237EA0276802768093008
B0659114710366N01031329EA0277502784089008
K065911180004
B0659154710362N01031420EA0278202792090008
B0659194710354N01031512EA0278602792091004
B0659234710345N01031608EA0279502800089008
B0659274710341N01031704EA0280202808090008
B0659314710333N01031800EA0281102816094008
K065931180006
B0659354710325N01031895EA0282802832088008
B0659394710320N01031991EA0283402840089008
B0659434710329N01032091EA0284102840092008
B0659474710308N01032183EA0284502840100008
B0659514710258N01032212EA0284102848102008
K065951180009
B0659554710233N01032145EA0284802856096008
B0659594710254N01032062EA0284402848102008
B0700034710300N01031979EA0285202856105008
B0700074710350N01031900EA0286502872099008
B0700114710383N01031820EA0287902888091008
K070011180009
B0700154710400N01031741EA0288302888095008
B0700194710408N01031662EA0289202896090008
B0700234710412N01031587EA0290002904091004
B0700274710416N01031516EA0291102920089008
B0700314710420N01031445EA0291802928085004
K070031000012
B0700354710425N01031370EA0292002928088004
B0700394710429N01031295EA0292802936090008
B0700434710429N01031216EA0292902936093008
B0700474710412N01031150EA0292902936098008
B0700514710375N01031125EA0294002944091008
K070051000015
B0700554710337N01031154EA0294202952086008
B0700594710312N01031220EA0294202952093008
B0701034710300N01031316EA0294602952093008
B0701074710300N01031420EA0295002960092008
B0701114710304N01031520EA0295602960092008
K070111000015
B0701154710308N01031620EA0295902968089008
B0701194710312N01031725EA0296202968092008
B0701234710312N01031825EA0296402968092008
B0701274710308N01031929EA0297102968091004
B0701314710304N01032029EA0297402976091008
K070131180011
B0701354710300N01032129EA0297802976091008
B0701394710295N01032229EA0298202984093008
B0701434710291N01032333EA0298202976101008
B0701474710295N01032445EA0298202984101008
B0701514710308N01032554EA0298202984099008
K070151180010
B0701554710329N01032666EA0298202984104008
B0701594710362N01032775EA0298402984100008
B0702034710395N01032883EA0297902976102008
B0702074710433N01032995EA0296902968109008
B0702114710475N01033112EA0296102960111008
K070211180019
B0702154710525N01033233EA0295002952114008
B0702194710575N01033350EA0293702944112008
B0702234710637N01033470EA0291702920127008
B0702274710691N01033604EA0291202912132008
B0702314710737N01033733EA0291102920122008
K070231180027
B0702354710783N01033858EA0290602912125008
B0702394710829N01033991EA0290002904132012
B0702434710875N01034120EA0290202912121008
B0702474710920N01034254EA0289002896134012
B0702514710975N01034391EA0289002896133012
K070251180023
B0702554711041N01034520EA0289202896130012
B0702594711108N01034645EA0289502896133012
B0703034711183N01034762EA0290402912130012
B0703074711262N01034875EA0291102912125012
B0703114711341N01034991EA0291002912130012
K070311180036
B0703154711416N01035104EA0290802912128012
B0703194711495N01035220EA0289602904126012
B0703234711570N01035345EA0287602872139012
B0703274711654N01035475EA0287202872141028
B0703314711737N01035604EA0286302864136020
K070331180041
B0703354711820N01035737EA0284002848146000
B0703394711912N01035875EA0283202832150016
B0703434712004N01036016EA0282202824152028
B0703474712100N01036145EA0281702816150016
B0703514712200N01036270EA0281102808152016
K070351180046
B0703554712295N01036395EA0281902824141024
B0703594712387N01036504EA0283402840133016
B0704034712483N01036604EA0283902848122016
B0704074712591N01036691EA0282902824130000
B0704114712712N01036758EA0283402832134008
K070411180056
B0704154712825N01036800EA0285702864117012
B0704194712937N01036833EA0284902856117008
B0704234713054N01036837EA0284302848128012
B0704274713170N01036812EA0284002840123012
B0704314713283N01036762EA0283502840127012
K070431180056
B0704354713391N01036695EA0283002832133012
B0704394713504N01036625EA0282902832138012
B0704434713608N01036558EA0283102832137012
B0704474713712N01036487EA0284502856123012
B0704514713816N01036425EA0285702856127012
K070451180049
B0704554713925N01036370EA0286902872128028
B0704594714041N01036345EA0288902880138020
B0705034714150N01036370EA0289402896112016
B0705074714258N01036429EA0284002832140024
B0705114714370N01036520EA0283002816174016
K070511180046
B0705154714470N01036612EA0285902848159016
B0705194714550N01036700EA0290002896122020
B0705234714620N01036787EA0289002888127016
B0705274714687N01036895EA0287802872142020
B0705314714741N01037025EA0289002880134020
K070531180017
B0705354714791N01037162EA0283402832130020
B0705394714833N01037325EA0282502808171020
B0705434714862N01037466EA0288402888144024
B0705474714879N01037587EA0290402904119024
B0705514714900N01037720EA0288302880126024
K070551180010
B0705554714929N01037875EA0287602872149024
B0705594714975N01038025EA0290002896139016
B0706034715025N01038154EA0293502936119020
B0706074715079N01038275EA0294102944116000
B0706114715145N01038395EA0295302952118008
K070611180028
B0706154715220N01038504EA0295702960112008
B0706194715304N01038612EA0295702952119004
B0706234715400N01038716EA0295702960123008
B0706274715508N01038808EA0296402960119008
B0706314715620N01038887EA0296402960125008
K070631180058
B0706354715729N01038970EA0297302976119008
B0706394715829N01039058EA0296902968118012
B0706434715916N01039162EA0296302960125008
B0706474715991N01039279EA0296302968119012
B0706514716054N01039404EA0295702960118012
K070651180054
B0706554716120N01039541EA0292802928135008
B0706594716187N01039683EA0291902920141008
B0707034716254N01039820EA0291102912143008
B0707074716308N01039966EA0291102912140008
B0707114716341N01040108EA0291102912138012
K070711180034
B0707154716345N01040245EA0291202912136008
B0707194716333N01040362EA0292202920127012
B0707234716320N01040466EA0294102944118012
B0707274716308N01040566EA0295302960111012
B0707314716329N01040679EA0296502968104012
K070731180000
B0707354716395N01040787EA0296702968108008
B0707394716491N01040866EA0296602968112008
B0707434716600N01040925EA0295402952121012
B0707474716720N01040983EA0294402944125008
B0707514716841N01041045EA0292202920138012
K070751180000
B0707554716975N01041091EA0290802904144012
B0707594717108N01041120EA0289902896144012
B0708034717237N01041141EA0289402888144012
B0708074717366N01041162EA0288002872139028
B0708114717491N01041195EA0286702864144020
K070811180057
B0708154717616N01041237EA0286102856143000
B0708194717733N01041283EA0284902848144016
B0708234717854N01041345EA0284002832138012
B0708274717958N01041441EA0283202824145008
B0708314718050N01041566EA0283002824145028
K070831180048
B0708354718125N01041700EA0282902824140020
B0708394718183N01041845EA0282902824144016
B0708434718225N01041995EA0282802824141024
B0708474718250N01042129EA0284702848130000
B0708514718262N01042241EA0286902872110008
K070851180025
B0708554718275N01042350EA0286702864110012
B0708594718291N01042470EA0285802856126008
B0709034718312N01042583EA0289502880108008
B0709074718329N01042670EA0290602912087008
B0709114718341N01042762EA0290102904104012
K070911180005
B0709154718358N01042862EA0291202920097008
B0709194718375N01042958EA0291702920098008
B0709234718391N01043058EA0291702920098008
B0709274718404N01043158EA0292002920101008
B0709314718425N01043262EA0292802928103008
K070931180004
B0709354718450N01043366EA0293002936102008
B0709394718479N01043475EA0293002928108008
B0709434718500N01043591EA0292602928111008
B0709474718512N01043708EA0292102920118008
B0709514718504N01043825EA0291202912124008
K070951180004
B0709554718487N01043937EA0290602904130008
B0709594718462N01044054EA0290702904130008
B0710034718437N01044162EA0291702912124008
B0710074718408N01044262EA0292202920124012
B0710114718383N01044362EA0292402920122008
K071011000010
B0710154718350N01044462EA0292102920125012
B0710194718316N01044562EA0291602912129012
B0710234718287N01044675EA0291102904134012
B0710274718262N01044795EA0291202904132012
B0710314718245N01044912EA0291702912126012
K071031000011
B0710354718233N01045037EA0291502912129012
B0710394718220N01045162EA0291502904130012
B0710434718212N01045287EA0291302904131012
B0710474718200N01045408EA0291302904128012
B0710514718191N01045533EA0291102904127012
K071051000005
B0710554718179N01045662EA0290102896132012
B0710594718179N01045800EA0289902888135012
B0711034718179N01045945EA0289302880142012
B0711074718187N01046095EA0288802880141012
B0711114718195N01046250EA0288302872149028
K071111180004
B0711154718204N01046404EA0288602880144020
B0711194718204N01046545EA0289002888137000
B0711234718204N01046675EA0289102888131016
B0711274718195N01046804EA0289402888129012
B0711314718183N01046929EA0287602872136008
K071131180001
B0711354718166N01047054EA0286902864139012
B0711394718145N01047183EA0286602864135012
B0711434718133N01047308EA0286502864131012
B0711474718129N01047433EA0286002856130012
B0711514718133N01047566EA0285402848128012
K071151000002
B0711554718154N01047700EA0284902848125012
B0711594718187N01047833EA0283402840129012
B0712034718229N01047975EA0281802816147012
B0712074718279N01048125EA0281302808153012
B0712114718333N01048254EA0283002824136012
K071211180012
B0712154718395N01048362EA0283202832125012
B0712194718462N01048487EA0279502784154012
B0712234718529N01048625EA0278502784155028
B0712274718600N01048758EA0277402768148020
B0712314718666N01048900EA0273602736164016
K071231180015
B0712354718729N01049054EA0272202712165024
B0712394718791N01049208EA0272402720160016
B0712434718854N01049354EA0272702728155016
B0712474718920N01049495EA0272402720149016
B0712514718979N01049641EA0270902712155016
K071251180021
B0712554719033N01049800EA0269802696167016
B0712594719091N01049945EA0271502712149016
B0713034719145N01050087EA0272002720146000
B0713074719208N01050212EA0273802736138008
B0713114719270N01050333EA0274702744131028
K071311180022
B0713154719337N01050450EA0274902752135016
B0713194719404N01050562EA0275202760130000
B0713234719470N01050679EA0275102752140016
B0713274719537N01050791EA0276202760130012
B0713314719600N01050895EA0277002776123008
K071331180021
B0713354719662N01051000EA0276802768126012
B0713394719720N01051112EA0276102760133012
B0713434719779N01051229EA0275502752130012
B0713474719833N01051354EA0274502744135012
B0713514719891N01051479EA0273102728139012
K071351180016
B0713554719945N01051608EA0272802720144012
B0713594720000N01051741EA0272802728136012
B0714034720041N01051875EA0272902728134012
B0714074720075N01052008EA0272902728135012
B0714114720104N01052137EA0272902728134012
K071411180014
B0714154720129N01052270EA0272402720132012
B0714194720154N01052408EA0271702712140012
B0714234720175N01052545EA0271502712141012
B0714274720195N01052683EA0271502712133012
B0714314720208N01052820EA0270802704143012
K071431180007
B0714354720208N01052954EA0270802704143012
B0714394720208N01053083EA0270802704137012
B0714434720204N01053212EA0270302696138012
B0714474720204N01053345EA0270402696142028
B0714514720212N01053470EA0271502712131020
K071451000005
B0714554720216N01053591EA0271502712133000
B0714594720225N01053720EA0270802696140016
B0715034720245N01053858EA0270802704138028
B0715074720270N01053991EA0270702704138016
B0715114720304N01054129EA0270002696138000
K071511180001
B0715154720337N01054270EA0269502688141016
B0715194720379N01054412EA0269502688141012
B0715234720429N01054545EA0269202688139008
B0715274720487N01054679EA0269002688141012
B0715314720550N01054804EA0269102688139012
K071531180016
B0715354720612N01054925EA0269402696132012
B0715394720679N01055041EA0269602696129012
B0715434720745N01055158EA0269602696129012
B0715474720816N01055279EA0269602696134012
B0715514720866N01055408EA0271302704126012
K071551180026
B0715554720891N01055529EA0273002736113012
B0715594720895N01055650EA0272202720126012
B0716034720891N01055766EA0272602728123012
B0716074720883N01055875EA0272702728120012
B0716114720870N01055987EA0272702728122012
K071611180001
B0716154720866N01056100EA0272902728123012
B0716194720870N01056220EA0273202736124012
B0716234720875N01056341EA0273802736124012
B0716274720883N01056466EA0273602736124012
B0716314720891N01056595EA0273402736129012
K071631000001
B0716354720900N01056720EA0273602736128012
B0716394720916N01056845EA0275102744122012
B0716434720941N01056966EA0276802768111012
B0716474720983N01057079EA0277002776111012
B0716514721037N01057187EA0277602784112012
K071651180015
B0716554721079N01057295EA0278502784108012
B0716594721112N01057408EA0279602800102012
B0717034721129N01057516EA0280802808100008
B0717074721137N01057625EA0281302816102008
B0717114721141N01057729EA0282002824101008
K071711180014
B0717154721145N01057829EA0282302824099008
B0717194721145N01057925EA0282802832099004
B0717234721145N01058025EA0282902832100008
B0717274721141N01058133EA0282102824109008
B0717314721137N01058245EA0282302824108008
K071731180003
B0717354721133N01058350EA0282902832104008
B0717394721137N01058454EA0283002832105008
B0717434721141N01058570EA0281902816117008
B0717474721133N01058683EA0281902816120008
B0717514721125N01058791EA0282602824109008
K071751180000
B0717554721120N01058900EA0282802832107008
B0717594721120N01059012EA0282902832114008
B0718034721120N01059120EA0283402832112008
B0718074721120N01059237EA0283402832114008
B0718114721116N01059358EA0283002832120008
K071811180001
B0718154721116N01059483EA0283002832124012
B0718194721116N01059608EA0284302840120008
B0718234721120N01059725EA0285002848112012
B0718274721137N01059845EA0284702848113012
B0718314721158N01059962EA0284502848116028
K071831180007
B0718354721183N01100083EA0283802840119020
B0718394721212N01100208EA0283002824126000
B0718434721241N01100337EA0282702824129016
B0718474721279N01100462EA0283002832121012
B0718514721320N01100583EA0283402840117008
K071851180013
B0718554721366N01100700EA0283402840118012
B0718594721404N01100816EA0284002840115012
B0719034721420N01100933EA0284302848112008
B0719074721420N01101045EA0284002840117008
B0719114721408N01101154EA0284002840119008
K071911180016
B0719154721387N01101266EA0283002824130008
B0719194721358N01101383EA0282102816136008
B0719234721333N01101504EA0281202808140008
B0719274721304N01101633EA0280102800146028
B0719314721275N01101762EA0279702792147016
K071931000011
B0719354721245N01101891EA0279302784147000
B0719394721220N01102020EA0279102784144016
B0719434721200N01102150EA0278602784144012
B0719474721179N01102279EA0278302784141008
B0719514721158N01102408EA0278002776139028
K071951000009
B0719554721137N01102533EA0277702776140020
B0719594721120N01102662EA0277202768140000
B0720034721104N01102795EA0276302760142016
B0720074721083N01102929EA0275502752145028
B0720114721062N01103062EA0275102744146016
K072011000008
B0720154721041N01103195EA0274502736145016
B0720194721020N01103329EA0274102736143024
B0720234721012N01103470EA0273502728142016
B0720274721004N01103608EA0273102728143016
B0720314720987N01103745EA0272902720144016
K072031000003
B0720354720958N01103870EA0272402720142016
B0720394720908N01103979EA0272202720141000
B0720434720862N01104079EA0272002720139008
B0720474720816N01104191EA0272002712137012
B0720514720783N01104308EA0271502712138008
K072051000009
B0720554720758N01104441EA0270802704140012
B0720594720745N01104583EA0270302696141012
B0721034720733N01104725EA0269702688143012
B0721074720720N01104862EA0269702696139012
B0721114720704N01105000EA0269702688137028
K072111180002
B0721154720687N01105133EA0269302688138020
B0721194720662N01105262EA0268502680136000
B0721234720633N01105387EA0268602680132016
B0721274720600N01105504EA0268602688130012
B0721314720570N01105620EA0268202680134008
K072131180000
B0721354720533N01105737EA0267802672136012
B0721394720487N01105841EA0267302672136012
B0721434720433N01105945EA0265802656143012
B0721474720375N01106050EA0264302640150012
B0721514720312N01106162EA0263002624155012
K072151000010
B0721554720250N01106279EA0262702624154012
B0721594720191N01106395EA0262202624154028
B0722034720133N01106516EA0262202616151020
B0722074720079N01106633EA0262202616149016
B0722114720033N01106754EA0261902616146024
K072211000006
B0722154719987N01106879EA0261102608151020
B0722194719941N01107008EA0260502600152016
B0722234719900N01107137EA0259802592151016
B0722274719858N01107270EA0259302592153016
B0722314719812N01107400EA0258402576160016
K072231000007
B0722354719762N01107525EA0258502576156016
B0722394719708N01107637EA0259402592141016
B0722434719654N01107741EA0259402592141016
B0722474719600N01107850EA0258902584142000
B0722514719545N01107954EA0258402584144008
K072251000007
B0722554719487N01108054EA0258402584144028
B0722594719429N01108154EA0258502584141016
B0723034719375N01108254EA0258402584141016
B0723074719320N01108350EA0258202576143024
B0723114719266N01108445EA0258202576142000
K072311000012
B0723154719216N01108545EA0258602584134008
B0723194719170N01108637EA0258702592132012
B0723234719129N01108733EA0257902576137008
B0723274719087N01108837EA0257202568139012
B0723314719045N01108945EA0255802560145012
K072331000017
B0723354719008N01109062EA0254702544149012
B0723394718970N01109183EA0253402536153012
B0723434718933N01109312EA0252902528152028
B0723474718895N01109433EA0252502520151020
B0723514718850N01109558EA0250902504157016
K072351000016
B0723554718804N01109687EA0249902496162024
B0723594718754N01109816EA0249202488162016
B0724034718708N01109945EA0248702480167016
B0724074718666N01110087EA0248002472171020
B0724114718629N01110229EA0247802472167016
K072411000016
B0724154718604N01110366EA0248402480156020
B0724194718583N01110504EA0248202472157020
B0724234718566N01110641EA0247402472157016
B0724274718545N01110783EA0247202472155016
B0724314718525N01110916EA0247402472148016
K072431000013
B0724354718508N01111045EA0246902464147016
B0724394718495N01111183EA0246402464150016
B0724434718487N01111320EA0245902456150016
B0724474718483N01111458EA0245402448149016
B0724514718483N01111600EA0244502440150016
K072451000010
B0724554718487N01111741EA0243002432156016
B0724594718487N01111891EA0242302416161016
B0725034718491N01112037EA0242302416158016
B0725074718491N01112170EA0242802424150016
B0725114718491N01112308EA0241302416154016
K072511000011
B0725154718487N01112445EA0239802392161016
B0725194718487N01112591EA0239002384160016
B0725234718487N01112737EA0237402368165016
B0725274718487N01112883EA0236402360165016
B0725314718495N01113025EA0235702352165016
K072531000017
B0725354718512N01113166EA0235402344161016
B0725394718533N01113300EA0234102336159016
B0725434718562N01113433EA0232502320159016
B0725474718604N01113566EA0229902296167016
B0725514718658N01113695EA0229602288167016
K072551000017
B0725554718720N01113812EA0229402288163016
B0725594718795N01113920EA0228602280159016
B0726034718870N01114020EA0228702280162016
B0726074718937N01114120EA0231402312142016
B0726114718995N01114208EA0232902336127016
K072611000003
B0726154719033N01114300EA0233902344126000
B0726194719054N01114395EA0235002352115008
B0726234719058N01114491EA0235202360114012
B0726274719054N01114587EA0234802352120008
B0726314719041N01114687EA0234802352132012
K072631000005
B0726354719020N01114775EA0235302360121012
B0726394719000N01114866EA0232402328144012
B0726434718979N01114975EA0229802296161012
B0726474718970N01115095EA0229202288165028
B0726514718979N01115212EA0230402304145020
K072651000038
B0726554718975N01115320EA0229602304137020
B0726594718950N01115433EA0227802280144024
B0727034718920N01115554EA0227102264149016
B0727074718891N01115675EA0229402264164016
B0727114718866N01115766EA0233102336118016
K072711000025
B0727154718841N01115850EA0231702320125016
B0727194718812N01115950EA0230802304145008
B0727234718779N01116041EA0232402320138012
B0727274718750N01116125EA0233302336124028
B0727314718712N01116204EA0231802312141016
K072731000032
B0727354718658N01116279EA0230402296151016
B0727394718600N01116345EA0231002312144024
B0727434718537N01116416EA0230402296155016
B0727474718475N01116483EA0231602312147016
B0727514718420N01116554EA0231102312144016
K072751000036
B0727554718358N01116637EA0230402296159016
B0727594718300N01116725EA0231802312148016
B0728034718250N01116812EA0231502312147016
B0728074718195N01116908EA0230202296156016
B0728114718145N01117016EA0229102288154016
K072811000030
B0728154718100N01117125EA0226002264161016
B0728194718037N01117233EA0223502224184016
B0728234717966N01117333EA0222302208192016
B0728274717900N01117425EA0221902208182016
B0728314717845N01117525EA0219502192181024
K072831000045
B0728354717791N01117629EA0216102152190020
B0728394717737N01117741EA0213602128190020
B0728434717687N01117854EA0211102096189024
B0728474717641N01117970EA0208602080192024
B0728514717604N01118091EA0207702064183024
K072851000055
B0728554717554N01118200EA0208202080172040
B0728594717512N01118304EA0207002064171032
B0729034717491N01118425EA0205202048174016
B0729074717487N01118550EA0203402024175028
B0729114717470N01118687EA0200402000179020
K072911000050
B0729154717445N01118825EA0198901984179016
B0729194717420N01118966EA0198901984177020
B0729234717408N01119100EA0198901992168020
B0729274717395N01119241EA0198301984168020
B0729314717387N01119379EA0198101976175020
K072931000030
