AZAN1KK ZANDER/SDI GP941 V2.06
HFDTE240503
HFFXA050
HFPLT Pilot             :Franz Bayerschmidt                      
HFGTY Glider type       :ventus 2cM                              
HFGID Glider ID         :D-KOFB    
HFDTM100 GPS Datum      :WGS84
HFRFW Firmware Version  :06
HFRHW Hardware version  :2
HFFTY FR Type           :ZANDER/SDI GP941
HFGPS                   :Garmin,GPS25,12,30000
HFPRS Press Alt Sensor  :Intersema,MS5534A,10000
HFCCL Competition Class :18 m                                    
HFCID Competition ID    :FB        
I023638IAS3941ENL
J020810WDI1113WVE
LZAN 090520 PowerOn
C070503100605070503000103
C4743750N01226300E UNTERWOSSEN 
C4744566N01228466E JAGDHAUS    
C4708950N01034650E LANDECK     
C4731250N01404716E TRAUTENFELS 
C4749133N01228766E UBERSEE KIRC
C4744566N01228466E JAGDHAUS    
C4743750N01226300E UNTERWOSSEN 
B0905244743837N01226316EV0058300000007000
B0905284743837N01226316EV0058300000007000
B0905324743712N01226212EA0058300000007000
B0905364743716N01226220EA0058300560007000
B0905404743712N01226225EA0058300576007000
B0905444743712N01226229EA0058300584000000
B0905484743712N01226229EA0058300584007000
B0905524743712N01226229EA0058300584007000
B0905564743712N01226229EA0058300584007000
B0906004743712N01226229EA0058300576007000
B0906044743712N01226229EA0058300576007000
B0906084743712N01226225EA0058300576007000
B0906124743716N01226225EA0058300576007000
B0906164743716N01226225EA0058300576000000
B0906204743716N01226225EA0058300576000000
B0906244743716N01226225EA0058300576000000
B0906284743716N01226225EA0058300576000000
B0906324743716N01226225EA0058300576000000
B0906364743716N01226225EA0058300576000000
B0906404743716N01226225EA0058300576000000
B0906444743716N01226225EA0058300576000000
B0906484743720N01226220EA0058200576000000
B0906524743716N01226220EA0058200576000000
B0906564743716N01226220EA0058200576000000
B0907004743716N01226220EA0058200576000000
B0907044743716N01226220EA0058200568000000
B0907084743716N01226220EA0058200568000000
B0907124743720N01226220EA0058200568007000
B0907164743716N01226220EA0058200568000000
B0907204743720N01226220EA0058200568000000
B0907244743720N01226220EA0058200576000000
B0907284743720N01226220EA0058200576000000
B0907324743720N01226220EA0058200576000000
B0907364743716N01226220EA0058200576000000
B0907404743720N01226220EA0058200576000000
B0907444743720N01226220EA0058200576000000
B0907484743720N01226220EA0058200576000000
B0907524743720N01226225EA0058300576000000
B0907564743720N01226225EA0058300576000000
B0908004743716N01226225EA0058300576000000
B0908044743716N01226225EA0058300576000000
B0908084743716N01226225EA0058300576000000
B0908124743716N01226225EA0058300576000000
B0908164743716N01226225EA0058300576000000
B0908204743716N01226225EA0058300576000000
B0908244743716N01226225EA0058300576000000
B0908274743716N01226225EA0058300576000000
B0908284743716N01226225EA0058300576000000
B0908294743716N01226225EA0058300576000000
B0908304743716N01226225EA0058300576000000
B0908314743716N01226225EA0058300576000000
B0908324743716N01226225EA0058300576000000
B0908334743716N01226225EA0058300576000000
B0908344743716N01226225EA0058300576000000
B0908354743712N01226225EA0058300576000000
B0908364743712N01226225EA0058300576000000
B0908374743712N01226225EA0058300576000000
B0908384743712N01226225EA0058300576000000
B0908404743712N01226225EA0058300576000000
C240503090839240503000103
C4743750N01226300E UNTERWOSSEN 
C4743816N01228433E WOSSENER SEE
C4704366N01354633E PREDLITZ    
C4700333N01130200E BRENNER ZOLL
C4749133N01228766E UBERSEE KIRC
C4743816N01228433E WOSSENER SEE
C4743750N01226300E UNTERWOSSEN 
B0908414743716N01226225EA0058300576000000
B0908424743716N01226225EA0058300576000000
B0908434743716N01226225EA0058300576000000
B0908444743716N01226225EA0058300576000000
B0908454743712N01226225EA0058300576000000
B0908464743712N01226225EA0058300576000000
B0908474743712N01226225EA0058300576000000
B0908484743716N01226225EA0058300576000000
B0908494743716N01226225EA0058300576000000
B0908504743716N01226225EA0058300576000000
B0908514743716N01226225EA0058300576000000
B0908524743716N01226225EA0058300576000000
B0908564743716N01226225EA0058200576000000
B0909004743716N01226225EA0058200576000000
B0909044743716N01226225EA0058300576000000
B0909084743716N01226225EA0058400568000000
B0909124743716N01226225EA0058300568000000
B0909164743716N01226220EA0058300568000000
B0909204743716N01226220EA0058300568000000
B0909244743716N01226220EA0058300568000000
B0909284743716N01226220EA0058300568000000
B0909324743716N01226220EA0058400568000000
B0909364743716N01226220EA0058400568000000
B0909404743716N01226220EA0058400568000000
B0909444743716N01226220EA0058400568000000
B0909484743716N01226220EA0058400568000000
B0909524743716N01226220EA0058400568000000
B0909564743716N01226220EA0058400568000000
B0910004743716N01226220EA0058400568000000
B0910044743716N01226220EA0058400568000000
B0910084743712N01226220EA0058400568000000
B0910124743716N01226220EA0058400568000000
B0910164743716N01226220EA0058400568000000
B0910204743712N01226220EA0058400568000000
B0910244743712N01226220EA0058400568000000
B0910284743716N01226220EA0058300568000000
B0910324743716N01226220EA0058400568000000
B0910364743720N01226229EA0058300568025000
B0910404743750N01226287EA0058100568098016
K091040144015
B0910444743791N01226354EA0060600584088008
B0910484743829N01226429EA0065900648103044
B0910524743870N01226512EA0073400720117032
B0910564743908N01226612EA0080400792125076
B0911004743950N01226720EA0086200856121060
K091100034003
B0911044743987N01226804EA0088700880088088
B0911084744008N01226891EA0089000888080080
B0911124743995N01226970EA0088600880083024
B0911164743945N01227016EA0088100872087056
B0911204743895N01227000EA0088000872089044
K091120140007
B0911244743854N01226950EA0086800864088032
B0911284743820N01226887EA0085500848092060
B0911324743791N01226820EA0084500840061052
B0911364743758N01226750EA0083600832086472
B0911404743720N01226670EA0083300832093928
K091140140007
B0911444743679N01226591EA0083200832104999
B0911484743637N01226508EA0083800832123999
B0911524743600N01226420EA0085500848118999
B0911564743566N01226337EA0087900880109999
B0912004743533N01226262EA0089600896101999
K091200164007
B0912044743495N01226195EA0091200912096999
B0912084743466N01226125EA0092400920093999
B0912124743441N01226054EA0093600936090999
B0912164743433N01225975EA0094700944090999
B0912204743450N01225895EA0095800960092999
K091220168009
B0912244743487N01225829EA0097200976088999
B0912284743533N01225783EA0098500984086999
B0912324743591N01225770EA0099601000088999
B0912364743645N01225787EA0101101016087999
B0912404743695N01225837EA0102401024085999
K091240168009
B0912444743725N01225908EA0103201032089999
B0912484743741N01225995EA0103901040089999
B0912524743737N01226091EA0104501048095999
B0912564743716N01226179EA0106201064095999
B0913004743683N01226254EA0107501080093999
K091300168009
B0913044743645N01226320EA0108301088092999
B0913084743604N01226383EA0109201096092999
B0913124743554N01226429EA0110201104091999
B0913164743500N01226462EA0111201112087999
B0913204743441N01226487EA0111801120093999
K091320168009
B0913244743383N01226508EA0113301136096999
B0913284743325N01226520EA0115601160086999
B0913324743270N01226550EA0116601176085999
B0913364743212N01226595EA0117001176094999
B0913404743162N01226658EA0117701184103999
K091340296002
B0913444743120N01226737EA0119601192096999
B0913484743104N01226825EA0121601224093999
B0913524743120N01226912EA0122801232088999
B0913564743162N01226983EA0123601248091999
B0914004743220N01227037EA0124701256095999
K091400248008
B0914044743279N01227070EA0125401264092999
B0914084743345N01227079EA0126201272086999
B0914124743404N01227058EA0127401288083999
B0914164743458N01227012EA0128501296086999
B0914204743500N01226945EA0129401304082999
K091420248008
B0914244743525N01226866EA0130601320081999
B0914284743537N01226783EA0131701328080999
B0914324743541N01226695EA0132201336082999
B0914364743533N01226608EA0133201344087999
B0914404743520N01226529EA0134601360081999
K091440248008
B0914444743508N01226450EA0135501368084999
B0914484743487N01226370EA0136401376079999
B0914524743458N01226304EA0137901392078999
B0914564743425N01226241EA0138901400085999
B0915004743387N01226187EA0139701408082999
K091500252006
B0915044743337N01226145EA0140601416082999
B0915084743283N01226116EA0142001432086999
B0915124743225N01226091EA0143101448084999
B0915164743166N01226079EA0145401472086999
B0915204743112N01226095EA0146801480083999
K091520258005
B0915244743066N01226129EA0147501496087999
B0915284743020N01226179EA0148401504084999
B0915324742991N01226250EA0149501512087999
B0915364742962N01226329EA0149801520090999
B0915404742929N01226400EA0151101528088999
K091540258005
B0915444742883N01226450EA0152101544084999
B0915484742833N01226475EA0153201552082999
B0915524742783N01226479EA0154201560080999
B0915564742733N01226458EA0155001568082999
B0916004742691N01226412EA0155801576081999
K091600258005
B0916044742662N01226345EA0157001592080999
B0916084742650N01226266EA0158201600081999
B0916124742645N01226183EA0158901608083999
B0916164742633N01226100EA0159001616088999
B0916204742608N01226016EA0160001624092999
K091620270003
B0916244742570N01225954EA0161501640087999
B0916284742520N01225916EA0162901648086999
B0916324742470N01225900EA0164101664087999
B0916364742416N01225908EA0164901672085999
B0916404742370N01225941EA0165701680088999
K091640270003
B0916444742325N01225991EA0166201688089999
B0916484742291N01226045EA0168301704083999
B0916524742258N01226108EA0168701712086999
B0916564742229N01226179EA0169201720089999
B0917004742212N01226262EA0170201728092999
K091700236003
B0917044742208N01226350EA0171401744088999
B0917084742216N01226441EA0172501752088999
B0917124742233N01226529EA0172901752091999
B0917164742266N01226616EA0174101768086999
B0917204742308N01226691EA0174801776086999
K091720194015
B0917244742358N01226754EA0176301792086999
B0917284742420N01226795EA0177301800084999
B0917324742483N01226820EA0178601816083999
B0917364742550N01226820EA0179001816087999
B0917404742620N01226804EA0179501824091999
K091740194016
B0917444742687N01226762EA0180801840088999
B0917484742741N01226700EA0181701848087999
B0917524742787N01226629EA0182601856088999
B0917564742825N01226545EA0183401864088999
B0918004742850N01226458EA0184701880086999
K091800194016
B0918044742870N01226366EA0186001888086999
B0918084742883N01226275EA0186501896084999
B0918124742887N01226183EA0187501904090999
B0918164742879N01226095EA0188901920085999
B0918204742870N01226016EA0191001936082999
K091820194016
B0918244742850N01225941EA0192001960079999
B0918284742820N01225875EA0193101968083999
B0918324742787N01225820EA0193901976084999
B0918364742741N01225775EA0195001984087999
B0918404742691N01225750EA0195601992088999
K091840194016
B0918444742637N01225750EA0197502008086999
B0918484742587N01225758EA0198202024084999
B0918524742537N01225783EA0199002024083999
B0918564742491N01225825EA0200102040083999
B0919004742458N01225883EA0200802048085999
K091900194016
B0919044742425N01225954EA0201102048088999
B0919084742400N01226033EA0202002056085999
B0919124742387N01226116EA0203102072085999
B0919164742379N01226204EA0204002080088999
B0919204742375N01226300EA0204002080095999
K091920204012
B0919244742379N01226395EA0205102088096999
B0919284742383N01226495EA0206702104091999
B0919324742391N01226587EA0207602112088999
B0919364742400N01226679EA0208702128086999
B0919404742420N01226766EA0209802136086999
K091940196024
B0919444742450N01226850EA0210702144086999
B0919484742491N01226929EA0211502152087999
B0919524742541N01227000EA0212402168086999
B0919564742591N01227062EA0214002184083999
B0920004742645N01227116EA0214502184086999
K092000180031
B0920044742708N01227170EA0215502200085999
B0920084742770N01227212EA0216402208083999
B0920124742833N01227245EA0217402216084999
B0920164742904N01227266EA0217802224085999
B0920204742975N01227266EA0218702232083999
K092020162034
B0920244743041N01227245EA0219602240083999
B0920284743108N01227204EA0220502248083999
B0920324743162N01227141EA0221202264083999
B0920364743212N01227070EA0222102272082999
B0920404743254N01226991EA0222802280082999
K092040166032
B0920444743287N01226908EA0223602288082999
B0920484743320N01226820EA0224702296081999
B0920524743345N01226729EA0226102304081999
B0920564743366N01226637EA0226902320080999
B0921004743375N01226545EA0228202328080999
K092100166032
B0921044743383N01226450EA0228902344081999
B0921084743383N01226358EA0229902352082999
B0921124743370N01226266EA0230902360082999
B0921164743354N01226179EA0231602368082999
B0921204743329N01226104EA0232602376082999
K092120152036
B0921244743295N01226029EA0233502384084999
B0921284743258N01225966EA0234502400083999
B0921324743216N01225912EA0235002400085999
B0921364743170N01225866EA0236102408085999
B0921404743120N01225825EA0236702424088999
K092140134036
B0921444743070N01225791EA0237602424086999
B0921484743016N01225758EA0238402440088999
B0921524742962N01225733EA0239402448089999
B0921564742912N01225704EA0240002456091999
B0922004742854N01225675EA0241002464090999
K092200126025
B0922044742800N01225650EA0241102464086999
B0922084742750N01225633EA0241102464083999
B0922124742700N01225612EA0241102464080999
B0922164742650N01225595EA0240902464082999
B0922204742604N01225575EA0240202456084999
K092220120019
B0922244742550N01225558EA0239302448089999
B0922284742495N01225537EA0238802440089999
B0922324742445N01225512EA0238502440089999
B0922364742391N01225487EA0237602424091999
B0922404742337N01225466EA0237102416093888
K092240130018
B0922444742279N01225441EA0236002408095500
B0922484742220N01225420EA0234402400097200
B0922524742166N01225400EA0233902384091200
B0922564742116N01225375EA0234202392078216
B0923004742070N01225354EA0233602384081172
K092300126018
B0923044742020N01225329EA0232502376086088
B0923084741970N01225304EA0231302360088128
B0923124741920N01225275EA0231302360081036
B0923164741870N01225245EA0231202360078064
B0923204741825N01225220EA0230202352081040
K092320128016
B0923244741775N01225191EA0229802344082040
B0923284741725N01225166EA0229502344083000
B0923324741675N01225141EA0229102336085020
B0923364741620N01225116EA0228202328093008
B0923404741562N01225091EA0226602312105004
K092340130016
B0923444741495N01225075EA0225502304112004
B0923484741425N01225062EA0224202296118008
B0923524741350N01225054EA0223102280123004
B0923564741270N01225041EA0221902272133004
B0924004741187N01225025EA0221602264131008
K092400146016
B0924044741108N01225000EA0221702264125008
B0924084741033N01224975EA0221702264122008
B0924124740958N01224950EA0221602264121008
B0924164740887N01224925EA0221102256121008
B0924204740812N01224895EA0220302256124008
K092420170011
B0924244740733N01224870EA0219902248123008
B0924284740658N01224837EA0219802240123008
B0924324740583N01224808EA0219402240123008
B0924364740512N01224779EA0219102240121008
B0924404740437N01224750EA0218702232119008
K092440158010
B0924444740362N01224720EA0217902224121008
B0924484740287N01224691EA0217202216128008
B0924524740208N01224658EA0216202208132008
B0924564740133N01224625EA0216202208127008
B0925004740054N01224591EA0214902200133008
K092500164011
B0925044739970N01224558EA0213702184141008
B0925084739887N01224525EA0213702184137008
B0925124739804N01224491EA0213402176135008
B0925164739720N01224458EA0212802168136008
B0925204739641N01224425EA0213002176130012
K092520162012
B0925244739566N01224391EA0213002176126008
B0925284739491N01224358EA0212902176125012
B0925324739416N01224329EA0212802168119012
B0925364739341N01224295EA0212702168119004
B0925404739270N01224266EA0212402168115008
K092540152011
B0925444739204N01224237EA0212402168117004
B0925484739137N01224204EA0212302168114004
B0925524739070N01224175EA0211902168109008
B0925564739008N01224145EA0211702160111008
B0926004738945N01224112EA0211402152110008
K092600152011
B0926044738879N01224083EA0211102152112008
B0926084738816N01224054EA0211102152112008
B0926124738754N01224025EA0211102152111008
B0926164738691N01224000EA0210702152111008
B0926204738629N01223979EA0210302144112008
K092620164015
B0926244738566N01223954EA0210002144117008
B0926284738495N01223933EA0209302136121008
B0926324738429N01223908EA0208802128122008
B0926364738358N01223883EA0208602128124008
B0926404738287N01223858EA0207602120127008
K092640182018
B0926444738216N01223833EA0207402112128008
B0926484738145N01223804EA0207302112126008
B0926524738079N01223775EA0207102112124008
B0926564738008N01223745EA0206802112122008
B0927004737941N01223716EA0206602104121008
K092700186019
B0927044737875N01223687EA0206102104121008
B0927084737812N01223658EA0205502096121008
B0927124737745N01223629EA0204902088121008
B0927164737679N01223600EA0204502088120008
B0927204737612N01223570EA0204002080121008
K092720182020
B0927244737545N01223541EA0203602080120008
B0927284737483N01223512EA0203502072118008
B0927324737416N01223483EA0202802072118008
B0927364737350N01223450EA0202602064118008
B0927404737287N01223425EA0201502056121008
K092740180021
B0927444737220N01223400EA0201502056121008
B0927484737150N01223379EA0201002048121008
B0927524737083N01223358EA0200502048121008
B0927564737016N01223337EA0200202040121008
B0928004736945N01223316EA0199702040121008
K092800180020
B0928044736879N01223291EA0199502032121008
B0928084736812N01223266EA0199402032119008
B0928124736745N01223241EA0199202032119008
B0928164736679N01223220EA0198502024121008
B0928204736612N01223195EA0197902016122008
K092820186019
B0928244736541N01223175EA0197102008123008
B0928284736470N01223154EA0196602008122008
B0928324736400N01223137EA0196302000122008
B0928364736329N01223116EA0195601992125008
B0928404736258N01223095EA0195401992126008
K092840182018
B0928444736187N01223075EA0194801984127008
B0928484736120N01223054EA0194501984124008
B0928524736050N01223029EA0194301984122008
B0928564735983N01223008EA0194001976123008
B0929004735916N01222983EA0193501976120008
K092900182019
B0929044735850N01222958EA0193301968118008
B0929084735787N01222933EA0192301960120008
B0929124735720N01222912EA0191901952125008
B0929164735650N01222887EA0191001944123008
B0929204735583N01222866EA0190901944121008
K092920182020
B0929244735512N01222841EA0190101936124008
B0929284735441N01222825EA0189501936126008
B0929324735370N01222808EA0189501928128008
B0929364735304N01222795EA0189501928120008
B0929404735237N01222779EA0189301928120008
K092940182020
B0929444735170N01222762EA0189101928122008
B0929484735104N01222745EA0188501920119008
B0929524735037N01222725EA0187601912123008
B0929564734970N01222704EA0186801904125008
B0930004734900N01222675EA0186101896129008
K093000196020
B0930044734833N01222650EA0186001896129008
B0930084734762N01222620EA0185001888131008
B0930124734691N01222591EA0184401872132008
B0930164734620N01222558EA0184001872133008
B0930204734550N01222525EA0183401872134008
K093020190023
B0930244734483N01222495EA0183101864129008
B0930284734412N01222458EA0182301856130008
B0930324734345N01222429EA0182001848125012
B0930364734275N01222395EA0181901848127008
B0930404734208N01222362EA0180801840130012
K093040182023
B0930444734133N01222333EA0180601840131012
B0930484734062N01222308EA0181001840123012
B0930524734000N01222287EA0181401848120012
B0930564733933N01222266EA0181401848116008
B0931004733870N01222245EA0181001840116008
K093100174020
B0931044733808N01222220EA0181001840119008
B0931084733745N01222204EA0180601840117008
B0931124733683N01222183EA0179901832117008
B0931164733620N01222150EA0180001832117008
B0931204733562N01222116EA0179301824116008
K093120188021
B0931244733504N01222075EA0179301824112008
B0931284733454N01222020EA0179301824110008
B0931324733404N01221966EA0178501816108008
B0931364733354N01221908EA0177601808111008
B0931404733304N01221845EA0177001800112008
K093140202018
B0931444733258N01221779EA0175901792112008
B0931484733216N01221704EA0175501784112008
B0931524733183N01221612EA0175101784120008
B0931564733166N01221516EA0175801792104008
B0932004733158N01221420EA0176101792095008
K093200198017
B0932044733158N01221325EA0175701784094008
B0932084733158N01221229EA0175501784090008
B0932124733150N01221141EA0175501784084008
B0932164733141N01221050EA0175501784092004
B0932204733129N01220958EA0175201776087008
K093220164019
B0932244733112N01220862EA0175301784097004
B0932284733104N01220770EA0176601792091004
B0932324733100N01220679EA0176601800087004
B0932364733095N01220587EA0177101800090004
B0932404733087N01220500EA0177201800086004
K093240154018
B0932444733079N01220412EA0176501792092004
B0932484733066N01220320EA0175901792092008
B0932524733054N01220225EA0175201784098008
B0932564733054N01220125EA0175501784091008
B0933004733066N01220029EA0177001800079008
K093300146016
B0933044733095N01219945EA0177301800085008
B0933084733129N01219870EA0178501816083008
B0933124733141N01219795EA0178701816079008
B0933164733100N01219741EA0177601808094008
B0933204733050N01219787EA0177501800103008
K093320152019
B0933244733041N01219879EA0177501800102008
B0933284733058N01219970EA0177801808090008
B0933324733058N01220062EA0178701816094008
B0933364733020N01220125EA0180101824088008
B0933404732966N01220112EA0180201832088008
K093340152019
B0933444732950N01220025EA0179601824094008
B0933484732991N01219950EA0179301824093008
B0933524733054N01219920EA0180101832085008
B0933564733116N01219900EA0180601832082008
B0934004733175N01219870EA0181601848078008
K093400152019
B0934044733208N01219808EA0182201856078008
B0934084733212N01219725EA0182201856083008
B0934124733175N01219654EA0180901840095008
B0934164733112N01219654EA0181001840093004
B0934204733075N01219729EA0181201840095008
K093420152019
B0934244733070N01219820EA0181301840095008
B0934284733075N01219912EA0181501848101008
B0934324733075N01220000EA0182101848090008
B0934364733066N01220083EA0183001864079008
B0934404733025N01220141EA0183201864091008
K093440152019
B0934444732970N01220145EA0183701872088008
B0934484732945N01220075EA0184001872091008
B0934524732975N01219991EA0183401864085008
B0934564733037N01219950EA0182001856095004
B0935004733104N01219920EA0182701856100008
K093500152019
B0935044733166N01219883EA0183901872085008
B0935084733216N01219837EA0184501880077008
B0935124733258N01219779EA0185401888077008
B0935164733266N01219704EA0185501888076008
B0935204733229N01219645EA0184001872089004
K093520152019
B0935244733170N01219666EA0183401864097008
B0935284733141N01219750EA0183401864101004
B0935324733133N01219841EA0183701872089004
B0935364733129N01219925EA0184501880094008
B0935404733129N01220008EA0185001888087008
K093540152019
B0935444733116N01220091EA0185401888093008
B0935484733070N01220141EA0185701888089008
B0935524733016N01220108EA0185901896090008
B0935564733020N01220016EA0185901896088008
B0936004733075N01219954EA0185401888086008
K093600152019
B0936044733137N01219912EA0185401888100008
B0936084733200N01219870EA0186401896088004
B0936124733254N01219820EA0187401904083008
B0936164733287N01219750EA0187501912083008
B0936204733291N01219658EA0186301896092008
K093620152019
B0936244733241N01219595EA0184401880105008
B0936284733175N01219620EA0184001880106008
B0936324733141N01219700EA0184901888103008
B0936364733133N01219795EA0185001888095008
B0936404733129N01219887EA0184901880102008
K093640152019
B0936444733125N01219979EA0184701880096008
B0936484733125N01220066EA0185001888089008
B0936524733104N01220145EA0185101888090008
B0936564733066N01220208EA0185401888085008
B0937004733016N01220245EA0185601888082008
K093700152019
B0937044732966N01220204EA0185101880088004
B0937084732962N01220112EA0184901880088008
B0937124733008N01220041EA0184901880085004
B0937164733070N01220004EA0184901888083004
B0937204733125N01219958EA0184901880083004
K093720152019
B0937244733179N01219900EA0184901880077004
B0937284733220N01219829EA0184901880080004
B0937324733258N01219758EA0184601880077004
B0937364733287N01219675EA0184601880083004
B0937404733304N01219591EA0185601888074004
K093740152019
B0937444733316N01219508EA0185601888076004
B0937484733320N01219425EA0185501888076004
B0937524733325N01219337EA0185101888077004
B0937564733325N01219245EA0184501880083004
B0938004733320N01219154EA0184401880084004
K093800150020
B0938044733316N01219058EA0183401864091004
B0938084733308N01218962EA0183501864091004
B0938124733291N01218875EA0183901872085004
B0938164733262N01218804EA0183901872089004
B0938204733225N01218737EA0184701880082004
K093820150020
B0938244733183N01218687EA0185101888073004
B0938284733133N01218691EA0183801872084004
B0938324733104N01218770EA0182301856095008
B0938364733145N01218845EA0182301856092008
B0938404733212N01218825EA0182301856092004
K093840150020
B0938444733258N01218750EA0183101864086008
B0938484733275N01218666EA0184301880072008
B0938524733233N01218604EA0182301864095008
B0938564733183N01218650EA0181701848097008
B0939004733195N01218741EA0181701848094008
K093900170011
B0939044733258N01218762EA0182001848097008
B0939084733312N01218712EA0184001872080008
B0939124733312N01218629EA0183901872089004
B0939164733258N01218587EA0183001864097008
B0939204733212N01218641EA0182101848100008
K093920176008
B0939244733233N01218733EA0182201856094008
B0939284733295N01218754EA0183501872088008
B0939324733350N01218708EA0184901880075008
B0939364733358N01218620EA0184301872088008
B0939404733312N01218566EA0184201872091008
K093940178010
B0939444733266N01218612EA0183601872095004
B0939484733279N01218708EA0183401864099008
B0939524733329N01218779EA0184701880090008
B0939564733375N01218841EA0185701896083008
B0940004733400N01218912EA0186101896076008
K094000162011
B0940044733375N01218983EA0184101880096008
B0940084733316N01218962EA0184101880096004
B0940124733312N01218866EA0184101880095008
B0940164733350N01218783EA0184101880085004
B0940204733375N01218695EA0183901872078004
K094020162011
B0940244733366N01218600EA0185001880084008
B0940284733341N01218525EA0186001896085008
B0940324733295N01218479EA0185401896079004
B0940364733241N01218491EA0183801872091008
B0940404733216N01218575EA0183801872088004
K094040162011
B0940444733237N01218654EA0183801872085004
B0940484733275N01218725EA0184701880078004
B0940524733312N01218783EA0185901896070004
B0940564733345N01218850EA0185101888077004
B0941004733362N01218937EA0183601872097004
K094100162011
B0941044733320N01219008EA0183701872097004
B0941084733258N01218983EA0183601864097004
B0941124733254N01218879EA0183101864100008
B0941164733304N01218795EA0184101880095008
B0941204733350N01218725EA0185701888082008
K094120162011
B0941244733358N01218637EA0186901904081008
B0941284733312N01218583EA0186401896090008
B0941324733262N01218620EA0185101888090008
B0941364733266N01218716EA0185101880098008
B0941404733312N01218795EA0187101896097008
K094140162011
B0941444733358N01218854EA0188201912083008
B0941484733383N01218929EA0188201912083008
B0941524733350N01219000EA0187501904092008
B0941564733295N01218954EA0186301896103008
B0942004733308N01218850EA0186001896098008
K094200162011
B0942044733358N01218775EA0188201904086008
B0942084733395N01218708EA0189101928071008
B0942124733412N01218620EA0188901920085008
B0942164733383N01218533EA0188601920095004
B0942204733325N01218520EA0189101928089008
K094220162011
B0942244733283N01218587EA0188501920103004
B0942284733291N01218687EA0188701912095004
B0942324733329N01218762EA0190001928093008
B0942364733375N01218829EA0191101944086008
B0942404733395N01218904EA0192001952080008
K094240162011
B0942444733370N01218979EA0190301944096008
B0942484733308N01218970EA0189401928104004
B0942524733295N01218870EA0189701936103008
B0942564733345N01218787EA0190101936096008
B0943004733404N01218720EA0191001952092008
K094300162011
B0943044733441N01218645EA0192601960084008
B0943084733445N01218558EA0193601976079008
B0943124733425N01218475EA0193701976087004
B0943164733375N01218445EA0193101968080008
B0943204733329N01218491EA0190801944096004
K094320162011
B0943244733320N01218591EA0190101928097004
B0943284733354N01218679EA0191001944088008
B0943324733387N01218750EA0192701960078008
B0943364733420N01218820EA0192701960079008
B0943404733437N01218895EA0193401968081008
K094340162011
B0943444733416N01218962EA0193101968079004
B0943484733362N01218983EA0192801960086008
B0943524733320N01218920EA0192801960083004
B0943564733341N01218829EA0192801960085004
B0944004733391N01218766EA0194201968077008
K094400162011
B0944044733429N01218695EA0194701984078008
B0944084733441N01218612EA0195101992079008
B0944124733408N01218537EA0195101984092008
B0944164733350N01218533EA0194401976092008
B0944204733320N01218612EA0193801976099008
K094420162011
K094420162011
B0944244733345N01218700EA0195001984090008
B0944284733387N01218758EA0196902000078008
B0944324733429N01218816EA0197502008071008
B0944364733450N01218891EA0196802008085008
B0944404733420N01218958EA0196302000090008
K094440162011
B0944444733362N01218941EA0196302000088008
B0944484733350N01218850EA0195902000089004
B0944524733391N01218766EA0196002000097008
B0944564733437N01218695EA0198102016080004
B0945004733454N01218616EA0199302032079004
K094500162011
B0945044733420N01218545EA0197902016093008
B0945084733362N01218579EA0196302000103008
B0945124733366N01218679EA0197502016096004
B0945164733408N01218758EA0199302032090008
B0945204733454N01218816EA0200602048083008
K094520162011
B0945244733487N01218879EA0201002048075008
B0945284733483N01218962EA0200002040092008
B0945324733425N01218995EA0198602024103008
B0945364733395N01218908EA0198802032097008
B0945404733433N01218825EA0199602032093008
B0945444733483N01218758EA0199602040089008
B0945484733520N01218675EA0200102040085008
B0945524733533N01218583EA0201102056080004
B0945564733525N01218500EA0202102056082008
B0946004733500N01218425EA0202602064078004
K094600162011
B0946044733462N01218375EA0201002056089004
B0946084733400N01218383EA0199902040093004
B0946124733366N01218458EA0199002032092004
B0946164733370N01218550EA0199302032093004
B0946204733395N01218629EA0200102040084004
K094620162011
B0946244733425N01218704EA0201602056077008
B0946284733450N01218775EA0202002056077008
B0946324733470N01218858EA0201602056082008
B0946364733458N01218937EA0201902056077008
B0946404733412N01218970EA0200502048091004
K094640162011
B0946444733366N01218908EA0200102040095008
B0946484733391N01218816EA0200102040088004
B0946524733445N01218754EA0200902048080004
B0946564733491N01218691EA0201502056083008
B0947004733520N01218616EA0202802064073008
K094700162011
B0947044733529N01218537EA0203102072078008
B0947084733500N01218470EA0202002064082008
B0947124733445N01218479EA0200502040091008
B0947164733420N01218566EA0200302040092008
B0947204733437N01218654EA0201302048085004
K094720162011
B0947244733458N01218737EA0201602056080008
B0947284733483N01218820EA0201302056085004
B0947324733508N01218900EA0202202056077004
B0947364733525N01218979EA0202002056079004
B0947404733512N01219058EA0201502056081004
K094740162011
B0947444733470N01219108EA0201502048083004
B0947484733416N01219083EA0200902048085004
B0947524733404N01219000EA0200502040083004
B0947564733429N01218916EA0200302040084004
B0948004733462N01218837EA0200202040081004
K094800162011
B0948044733495N01218762EA0200002040083004
B0948084733516N01218675EA0199902032079004
B0948124733520N01218583EA0200102040084004
B0948164733512N01218504EA0201502048072004
B0948204733487N01218433EA0201302048074004
K094820162011
B0948244733441N01218395EA0200002040082004
B0948284733387N01218425EA0199002024087004
B0948324733362N01218500EA0199102032077004
B0948364733375N01218583EA0199102024083004
B0948404733400N01218662EA0200102032078004
K094840162011
B0948444733433N01218733EA0201502048070004
B0948484733462N01218804EA0201602056073008
B0948524733475N01218887EA0200202048084008
B0948564733433N01218954EA0198602024096004
B0949004733375N01218929EA0198502024097008
K094900162011
B0949044733333N01218845EA0199302032097004
B0949084733295N01218770EA0200902040090004
B0949124733258N01218700EA0203002064084004
B0949164733220N01218637EA0204702080075004
B0949204733170N01218629EA0204402080076004
K094920162011
B0949244733133N01218691EA0201302064095004
B0949284733162N01218787EA0201502048102004
B0949324733229N01218770EA0202602064092004
B0949364733262N01218679EA0202602064102008
B0949404733245N01218583EA0204202080098008
K094940162011
B0949444733204N01218525EA0205702096078008
B0949484733150N01218541EA0204202080091008
B0949524733125N01218629EA0203602080095008
B0949564733170N01218704EA0203702080096008
B0950004733233N01218695EA0203502080093008
K095000174004
B0950044733266N01218616EA0204002080090008
B0950084733254N01218525EA0204302088089008
B0950124733220N01218450EA0204502088083008
B0950164733183N01218379EA0204402088086008
B0950204733145N01218304EA0203702080092008
B0950244733095N01218250EA0204002080085004
B0950284733037N01218270EA0203502080088008
B0950324733012N01218354EA0203202072091004
B0950364733041N01218433EA0203202080085004
B0950404733095N01218470EA0203102072090004
K095040164005
B0950444733158N01218487EA0203702080085004
B0950484733220N01218504EA0203702080081004
B0950524733275N01218554EA0204302088083004
B0950564733325N01218616EA0204702088083008
B0951004733375N01218675EA0205702104076008
K095100164005
B0951044733412N01218741EA0206402104081008
B0951084733412N01218820EA0206402112083008
B0951124733362N01218854EA0205102096102008
B0951164733325N01218770EA0205102096101008
B0951204733379N01218712EA0205302096096008
K095120164005
B0951244733433N01218770EA0204902096108008
B0951284733425N01218875EA0204902096105008
B0951324733366N01218916EA0205102096100008
B0951364733304N01218870EA0205102096104008
B0951404733283N01218779EA0205702104094008
K095140092002
B0951444733329N01218708EA0206602112093008
B0951484733395N01218720EA0206402104099008
B0951524733454N01218779EA0206402112096008
B0951564733500N01218845EA0207202120090008
B0952004733520N01218925EA0207602120086008
K095200148005
B0952044733487N01218995EA0206102104096008
B0952084733425N01218970EA0206002104091008
B0952124733412N01218883EA0206402112089008
B0952164733454N01218816EA0206402112085004
B0952204733516N01218816EA0205502096087008
K095220136006
B0952244733566N01218875EA0205102096091004
B0952284733604N01218950EA0205702104085004
B0952324733616N01219033EA0205702104081008
B0952364733595N01219108EA0205102096086008
B0952404733545N01219133EA0205002096086004
B0952444733495N01219091EA0204202088090008
B0952484733462N01219012EA0203902080088004
B0952524733450N01218920EA0203902088082004
B0952564733445N01218829EA0203602080088004
B0953004733420N01218741EA0202602072099004
K095300158006
B0953044733375N01218658EA0201202056105004
B0953084733316N01218583EA0202002064113004
B0953124733283N01218500EA0204902096086008
B0953164733312N01218425EA0205202096083008
B0953204733375N01218408EA0204902088090008
K095320158006
B0953244733433N01218466EA0206702112088008
B0953284733429N01218545EA0207702128082008
B0953324733383N01218575EA0207602128096008
B0953364733350N01218487EA0207402128099008
B0953404733395N01218416EA0208302136092008
K095340180012
B0953444733454N01218458EA0208702136098008
B0953484733466N01218554EA0209902152095008
B0953524733420N01218612EA0210702160093008
B0953564733358N01218595EA0211302168092008
B0954004733329N01218512EA0212002176087008
K095400164002
B0954044733362N01218437EA0212402176088008
B0954084733425N01218445EA0211602168095008
B0954124733445N01218541EA0211902168097008
B0954164733404N01218608EA0212702176093008
B0954204733354N01218558EA0212802176095008
K095420120001
B0954244733375N01218470EA0214202184087004
B0954284733437N01218470EA0214102192092008
B0954324733458N01218562EA0213802192098008
B0954364733408N01218616EA0215002200088008
B0954404733358N01218566EA0215102200091008
K095440114002
B0954444733375N01218475EA0215302200092008
B0954484733437N01218466EA0215402208093008
B0954524733466N01218550EA0215802208094008
B0954564733425N01218608EA0216002216093008
B0955004733370N01218566EA0216202216095008
K095500152006
B0955044733370N01218466EA0215402208101008
B0955084733425N01218395EA0216502216093008
B0955124733491N01218404EA0217402224087008
B0955164733525N01218475EA0217502224087008
B0955204733520N01218562EA0218002232088008
K095520166011
B0955244733479N01218620EA0217802224095008
B0955284733420N01218591EA0218002232094004
B0955324733400N01218500EA0218102232088008
B0955364733450N01218433EA0217902232092004
B0955404733508N01218479EA0217902232095004
K095540142006
B0955444733525N01218570EA0218702240092008
B0955484733487N01218641EA0218702240094008
B0955524733429N01218629EA0218402232098004
B0955564733416N01218533EA0219002240091008
B0956004733466N01218475EA0218902240089004
K095600148007
B0956044733529N01218520EA0218402232098004
B0956084733525N01218616EA0219202240097008
B0956124733475N01218658EA0219502248092008
B0956164733425N01218604EA0219202240099008
B0956204733425N01218504EA0220002248092008
K095620160006
B0956244733470N01218437EA0220302256083008
B0956284733537N01218454EA0219302248093008
B0956324733558N01218550EA0220002248097008
B0956364733520N01218616EA0221002264089008
B0956404733470N01218591EA0221002264087008
K095640164009
B0956444733466N01218500EA0220802264089008
B0956484733520N01218445EA0220402256087008
B0956524733579N01218504EA0220002248098008
B0956564733566N01218600EA0220502256092008
B0957004733520N01218654EA0221702272085008
K095700190009
B0957044733466N01218650EA0221602264090008
B0957084733433N01218575EA0222102272093008
B0957124733454N01218491EA0223302288079008
B0957164733512N01218454EA0223502288080008
B0957204733575N01218495EA0221902280090008
K095720166007
B0957244733600N01218591EA0223002280094008
B0957284733608N01218687EA0223702296083008
B0957324733575N01218758EA0222902288086008
B0957364733516N01218741EA0222102272104008
B0957404733491N01218650EA0223302288092008
K095740174013
B0957444733512N01218566EA0225202304082008
B0957484733579N01218545EA0224802304092008
B0957524733620N01218620EA0224602304093008
B0957564733591N01218700EA0224602296091008
B0958004733537N01218679EA0224202296096008
B0958044733520N01218591EA0225702304089008
B0958084733550N01218516EA0226602320078008
B0958124733616N01218500EA0226002312093008
B0958164733658N01218583EA0226102312088008
B0958204733629N01218666EA0226202320088008
B0958244733570N01218666EA0225702312096008
B0958284733529N01218604EA0226402320093008
B0958324733525N01218520EA0227302328084008
B0958364733570N01218458EA0227302328083008
B0958404733637N01218479EA0227002320095008
K095840180013
B0958444733658N01218579EA0227502328090008
B0958484733612N01218633EA0227302336098008
B0958524733566N01218575EA0227802336095008
B0958564733600N01218495EA0228602344089008
B0959004733666N01218529EA0227302336101008
K095900190009
B0959044733662N01218633EA0228202336101008
B0959084733604N01218662EA0229602352092008
B0959124733570N01218595EA0230002360090008
B0959164733591N01218512EA0229102344097008
B0959204733658N01218483EA0229302352089008
K095920216008
B0959244733700N01218562EA0228702344098008
B0959284733675N01218658EA0228902344102008
B0959324733620N01218695EA0229802352092008
B0959364733570N01218666EA0229802352086008
B0959404733562N01218583EA0229502352084008
K095940182007
B0959444733595N01218504EA0229302344087008
B0959484733654N01218445EA0230102352080008
B0959524733720N01218429EA0230802360076008
B0959564733779N01218470EA0232002368078008
B1000004733804N01218550EA0231702368085004
B1000044733775N01218620EA0231702368088008
B1000084733729N01218637EA0231702368083008
B1000124733679N01218604EA0231702368081008
B1000164733658N01218533EA0230902360081004
B1000204733695N01218454EA0229702352094008
K100020180014
B1000244733775N01218462EA0229802352092004
B1000284733820N01218533EA0231302368087004
B1000324733820N01218625EA0230202360094004
B1000364733779N01218691EA0229702352095004
B1000404733720N01218700EA0229502352100008
K100040176013
B1000444733670N01218654EA0229802352093008
B1000484733633N01218583EA0229302344095008
B1000524733616N01218487EA0229402352096008
B1000564733620N01218387EA0230802360087008
B1001004733629N01218291EA0231502368083008
K100100164013
B1001044733629N01218200EA0232102376078008
B1001084733616N01218116EA0232402376081008
B1001124733587N01218033EA0232502376084004
B1001164733550N01217958EA0232402376094008
B1001204733512N01217887EA0232002376097004
K100120166013
B1001244733470N01217820EA0231902368099004
B1001284733429N01217750EA0231902368092004
B1001324733391N01217675EA0231002360090004
B1001364733354N01217604EA0231002360085008
B1001404733320N01217529EA0230902360085008
K100140140021
B1001444733287N01217454EA0231502368082004
B1001484733245N01217391EA0231402368083008
B1001524733195N01217341EA0231802368084004
B1001564733150N01217300EA0232602384081004
B1002004733104N01217304EA0232902384077004
K100200140021
B1002044733075N01217370EA0232602376085004
B1002084733100N01217458EA0232602384087004
B1002124733162N01217475EA0232602384084004
B1002164733208N01217408EA0232202376089004
B1002204733191N01217320EA0231902368093004
K100220140021
B1002244733137N01217295EA0232102376089008
B1002284733095N01217354EA0232602384087008
B1002324733087N01217441EA0232902384082008
B1002364733129N01217512EA0232902384083008
B1002404733195N01217525EA0232902384088004
K100240212008
B1002444733258N01217491EA0232902384084008
B1002484733291N01217408EA0232902384081004
B1002524733275N01217320EA0231702376092004
B1002564733220N01217287EA0231702368093004
B1003004733175N01217337EA0232102376086004
K100300186011
B1003044733175N01217429EA0232102376093008
B1003084733208N01217512EA0232602384094008
B1003124733245N01217595EA0233202392085008
B1003164733283N01217675EA0233002384086008
B1003204733320N01217762EA0232502376095008
K100320170012
B1003244733362N01217854EA0231202368102008
B1003284733404N01217954EA0230702360104004
B1003324733450N01218045EA0230702368107008
B1003364733500N01218129EA0231502368098008
B1003404733550N01218195EA0231602376091008
K100340168028
B1003444733595N01218270EA0231602376090004
B1003484733637N01218345EA0231602376093008
B1003524733675N01218429EA0232702384089004
B1003564733683N01218516EA0233902400075004
B1004004733654N01218587EA0231002392097008
K100400168029
B1004044733604N01218541EA0229502368100008
B1004084733637N01218454EA0229102360095004
B1004124733708N01218425EA0230402368096008
B1004164733775N01218400EA0232202384073008
B1004204733841N01218404EA0231502376082008
K100420168029
B1004244733883N01218475EA0231402376090008
B1004284733850N01218533EA0230402376097008
B1004324733804N01218475EA0230502360102008
B1004364733829N01218383EA0232502384086008
B1004404733895N01218395EA0230402376098004
K100440156022
B1004444733900N01218495EA0230402360107008
B1004484733850N01218529EA0231602376093004
B1004524733804N01218487EA0232102376083004
B1004564733787N01218408EA0233002376090008
B1005004733783N01218320EA0233102384087008
K100500128008
B1005044733775N01218225EA0231902368100004
B1005084733762N01218129EA0232002376093008
B1005124733729N01218054EA0232102376091008
B1005164733679N01218004EA0231202360095008
B1005204733620N01218020EA0230002352102008
K100520128008
B1005244733575N01218095EA0229202344107008
B1005284733566N01218191EA0229302352096008
B1005324733570N01218283EA0230102352089008
B1005364733570N01218383EA0228802344098008
B1005404733579N01218495EA0227802336103008
K100540128008
B1005444733583N01218608EA0227302328110008
B1005484733583N01218725EA0226802320114008
B1005524733583N01218845EA0226702320116004
B1005564733575N01218962EA0226702320118008
B1006004733566N01219079EA0227402328113008
K100600188025
B1006044733558N01219183EA0228502344103008
B1006084733545N01219283EA0228902344095008
B1006124733520N01219379EA0228102328103008
B1006164733495N01219483EA0227302328109008
B1006204733470N01219591EA0227102320110008
K100620200035
B1006244733441N01219691EA0227102320107004
B1006284733408N01219791EA0226902320105008
B1006324733383N01219887EA0227402328096008
B1006364733362N01219983EA0228002328093008
B1006404733358N01220087EA0227702328097008
B1006444733362N01220191EA0228202336092008
B1006484733379N01220287EA0228802344087004
B1006524733404N01220383EA0228802344090008
B1006564733429N01220483EA0228902344092004
B1007004733445N01220583EA0229602352084004
K100700206030
B1007044733450N01220670EA0230502360072004
B1007084733420N01220741EA0229702344082004
B1007124733366N01220754EA0228402336090004
B1007164733350N01220679EA0228202336090004
B1007204733395N01220612EA0227902328098004
K100720214028
B1007244733445N01220537EA0228202336090004
B1007284733454N01220445EA0229302344088004
B1007324733416N01220387EA0229102344090004
B1007364733362N01220420EA0228102336100008
B1007404733366N01220525EA0229302344092008
K100740214028
B1007444733429N01220562EA0229402352096008
B1007484733475N01220487EA0228202336102008
B1007524733441N01220400EA0228502336104008
B1007564733383N01220425EA0228702336102008
B1008004733375N01220520EA0231002360086008
K100800228008
B1008044733433N01220566EA0230302360096008
B1008084733487N01220495EA0229802352099008
B1008124733458N01220408EA0230102352099008
B1008164733404N01220395EA0230902360090008
B1008204733366N01220454EA0230902360089008
K100820246004
K100820236004
B1008244733370N01220545EA0231502368084008
B1008284733420N01220595EA0231202360091008
B1008324733483N01220550EA0230502360098004
B1008364733479N01220445EA0231502360100008
B1008404733429N01220429EA0232902376087004
B1008444733395N01220504EA0232902376093004
B1008484733429N01220591EA0233002376090008
B1008524733495N01220583EA0233002376096008
B1008564733520N01220487EA0233102384096004
B1009004733483N01220420EA0234702392094008
K100900160010
B1009044733437N01220445EA0235102400083008
B1009084733425N01220541EA0233602384103008
B1009124733483N01220608EA0233702392095008
B1009164733545N01220545EA0234702392092008
B1009204733541N01220450EA0235302400105008
K100920156014
B1009244733491N01220425EA0236502416084008
B1009284733458N01220491EA0235502408092008
B1009324733491N01220587EA0235202400098008
B1009364733566N01220591EA0235702408093008
B1009404733608N01220504EA0236302416091008
K100940166019
B1009444733591N01220420EA0236902424090008
B1009484733541N01220412EA0236602416087008
B1009524733508N01220479EA0236002408093008
B1009564733520N01220570EA0236302416082008
B1010004733579N01220625EA0236302408088004
K101000180018
B1010044733654N01220604EA0235202400092008
B1010084733691N01220512EA0235302408092008
B1010124733666N01220429EA0235502408096008
B1010164733620N01220379EA0235202400088008
B1010204733570N01220345EA0232902384104008
K101020180019
B1010244733504N01220316EA0231202368118004
B1010284733445N01220250EA0230802360112008
B1010324733416N01220158EA0232202376104004
B1010364733416N01220058EA0232502376105004
B1010404733454N01219966EA0232902384103008
K101040180019
B1010444733508N01219887EA0232902376106008
B1010484733566N01219808EA0232502376107008
B1010524733629N01219745EA0232702376105008
B1010564733695N01219683EA0232702376104004
B1011004733741N01219595EA0232702384101008
K101100180019
B1011044733741N01219504EA0232502376106004
B1011084733687N01219445EA0231302368113004
B1011124733620N01219466EA0231002368112004
B1011164733566N01219533EA0231302368110004
B1011204733520N01219616EA0231502368110004
K101120180019
B1011244733483N01219712EA0231502368111004
B1011284733450N01219812EA0231402368112008
B1011324733416N01219916EA0231402368111008
B1011364733391N01220020EA0231502368108008
B1011404733370N01220133EA0231502368109008
K101140196017
B1011444733354N01220250EA0230902360114008
B1011484733350N01220375EA0230802360112008
B1011524733354N01220500EA0230502360113008
B1011564733366N01220625EA0230502360112008
B1012004733379N01220750EA0230202352115008
K101200208025
B1012044733391N01220875EA0229502352117008
B1012084733412N01221000EA0229802352118008
B1012124733437N01221120EA0230902360110008
B1012164733462N01221233EA0231502368091008
B1012204733470N01221341EA0232102368098008
K101220204028
B1012244733458N01221437EA0232502376087008
B1012284733425N01221512EA0232602376077008
B1012324733379N01221575EA0231002368091008
B1012364733325N01221604EA0231102360088008
B1012404733283N01221575EA0231302368082004
K101240204028
B1012444733279N01221500EA0230502352088008
B1012484733325N01221437EA0230302352089004
B1012524733391N01221420EA0230302352086004
B1012564733458N01221400EA0229502344089004
B1013004733508N01221337EA0228602336094004
K101300204028
B1013044733533N01221250EA0228302328098004
B1013084733525N01221158EA0228302336095004
B1013124733512N01221070EA0228302336097008
B1013164733495N01220983EA0229102344093008
B1013204733487N01220904EA0229402344087008
K101320204028
B1013244733483N01220825EA0230102352081008
B1013284733479N01220745EA0229702352087004
B1013324733479N01220662EA0229502352089008
B1013364733479N01220575EA0229802352085004
B1013404733479N01220491EA0228902344088004
K101340198022
B1013444733462N01220400EA0228702336092004
B1013484733450N01220312EA0229102344089004
B1013524733441N01220225EA0229302344096004
B1013564733416N01220150EA0230502360078004
B1014004733370N01220129EA0230902360076008
K101400204026
B1014044733325N01220166EA0228902344093008
B1014084733333N01220270EA0228102328099004
B1014124733404N01220279EA0228702336095008
B1014164733441N01220191EA0228702336101004
B1014204733466N01220091EA0229302344100004
K101420204026
B1014244733487N01220000EA0229902352090008
B1014284733512N01219916EA0230002352089008
B1014324733529N01219829EA0230802360084004
B1014364733575N01219766EA0231202360083008
B1014404733641N01219720EA0230502352093004
K101440204026
B1014444733695N01219654EA0230402352095004
B1014484733733N01219566EA0230202352096004
B1014524733758N01219475EA0229702352098004
B1014564733770N01219375EA0229202344101004
B1015004733779N01219275EA0229202344103004
K101500204026
B1015044733791N01219175EA0228902336104004
B1015084733804N01219075EA0228602336103004
B1015124733812N01218979EA0228702336096004
B1015164733808N01218883EA0228802336093004
B1015204733795N01218795EA0228702336096004
K101520182034
B1015244733779N01218704EA0228702336095004
B1015284733758N01218620EA0228702336093004
B1015324733737N01218537EA0229302344092004
B1015364733716N01218458EA0229602344083008
B1015404733695N01218383EA0229502344090008
K101540162034
K101540162034
B1015444733666N01218312EA0229502344086004
B1015484733637N01218237EA0229502344084008
B1015524733608N01218170EA0230402352079004
B1015564733570N01218100EA0230402352080004
B1016004733533N01218037EA0229702352084004
K101600148026
B1016044733495N01217975EA0229302344088004
B1016084733445N01217912EA0228702336095004
B1016124733404N01217837EA0228202336098004
B1016164733366N01217754EA0228802336093004
B1016204733329N01217683EA0229302344091004
K101620136019
B1016244733283N01217620EA0228802336097008
B1016284733225N01217579EA0228602336100008
B1016324733162N01217566EA0228702336097004
B1016364733112N01217520EA0229302344089008
B1016404733104N01217437EA0229102344091008
K101640142017
B1016444733145N01217358EA0228302336104008
B1016484733216N01217320EA0228302336098004
B1016524733291N01217295EA0228202328103008
B1016564733366N01217279EA0228202328102004
B1017004733450N01217254EA0227302320108004
K101700142017
B1017044733533N01217225EA0227502328106008
B1017084733604N01217179EA0228502336097008
B1017124733658N01217116EA0228902344088008
B1017164733691N01217037EA0229302344090008
B1017204733679N01216962EA0229602344080008
K101720142017
B1017244733625N01216950EA0229102344088008
B1017284733587N01217016EA0229602344086004
B1017324733591N01217108EA0230102352078008
B1017364733650N01217162EA0228802336092004
B1017404733708N01217112EA0228202328093004
K101740192013
B1017444733708N01217020EA0228302336094004
B1017484733691N01216933EA0228302336098004
B1017524733695N01216833EA0228302336100008
B1017564733700N01216733EA0228302336106008
B1018004733716N01216625EA0228302336104008
K101800192013
B1018044733725N01216516EA0228202328107008
B1018084733737N01216408EA0227902328110008
B1018124733745N01216300EA0227902328111008
B1018164733745N01216191EA0227902328114008
B1018204733741N01216087EA0228702336100008
K101820186020
B1018244733733N01215987EA0229302344103004
B1018284733725N01215887EA0229602352098008
B1018324733720N01215795EA0229602352099008
B1018364733712N01215695EA0229102344103008
B1018404733704N01215600EA0228702336103004
K101840174028
B1018444733695N01215504EA0228702336102008
B1018484733691N01215404EA0228302336101004
B1018524733675N01215312EA0228202328102004
B1018564733658N01215220EA0228202328099004
B1019004733633N01215137EA0228102328099004
K101900170032
B1019044733608N01215054EA0227602328100004
B1019084733583N01214966EA0227102320099004
B1019124733558N01214870EA0227002320101004
B1019164733529N01214779EA0227802328093004
B1019204733491N01214720EA0228902336079004
K101920168029
B1019244733445N01214741EA0228702344085004
B1019284733445N01214833EA0227002328100008
B1019324733520N01214845EA0225602304111008
B1019364733558N01214750EA0226402312102008
B1019404733562N01214645EA0227202320092008
K101940168029
B1019444733550N01214554EA0227202320088008
B1019484733520N01214487EA0227202320088008
B1019524733470N01214450EA0227202320092004
B1019564733420N01214408EA0228902344083008
B1020004733387N01214354EA0229902344076004
K102000164026
B1020044733350N01214320EA0229802352080004
B1020084733300N01214350EA0227902328096004
B1020124733316N01214454EA0227002320104004
B1020164733391N01214437EA0227302320104004
B1020204733404N01214337EA0228002328100004
K102020164026
B1020244733358N01214291EA0229102336089008
B1020284733316N01214337EA0228802336090008
B1020324733341N01214433EA0227302320104008
B1020364733420N01214412EA0227002320105008
B1020404733429N01214304EA0227302320107004
K102040154011
K102040156010
B1020444733375N01214254EA0228202328095008
B1020484733333N01214316EA0228702336090004
B1020524733350N01214408EA0228602336088004
B1020564733416N01214441EA0228602336089004
B1021004733466N01214375EA0228402328090004
K102100174009
B1021044733458N01214287EA0228302328092004
B1021084733408N01214254EA0228302328090004
B1021124733358N01214291EA0228302328091008
B1021164733337N01214379EA0228202328092008
B1021204733350N01214479EA0228202328095004
K102120194014
B1021244733375N01214575EA0228502336086008
B1021284733408N01214670EA0227702328095004
B1021324733450N01214770EA0226802312108004
B1021364733491N01214875EA0226302312111004
B1021404733525N01214987EA0226102312115004
K102140172024
B1021444733558N01215100EA0225802312113008
B1021484733587N01215212EA0227202320109008
B1021524733616N01215320EA0228402328103004
B1021564733629N01215420EA0230402352086008
B1022004733616N01215504EA0229702360087008
K102200176027
B1022044733562N01215495EA0227102328104008
B1022084733570N01215400EA0226902328108004
B1022124733637N01215358EA0228502344092008
B1022164733700N01215383EA0229302344083004
B1022204733729N01215466EA0229302344084004
K102220176027
B1022244733700N01215529EA0228302336092008
B1022284733658N01215475EA0227802328096008
B1022324733691N01215395EA0228202336088004
B1022364733758N01215412EA0228202328094008
B1022404733787N01215495EA0228502336084008
B1022444733766N01215558EA0228402336084008
B1022484733720N01215537EA0227602320095008
B1022524733708N01215458EA0228302336077008
B1022564733741N01215391EA0227802328081004
B1023004733816N01215395EA0226102312096008
K102300182019
B1023044733845N01215483EA0226902320091004
B1023084733833N01215570EA0226302320094004
B1023124733808N01215645EA0226102312089008
B1023164733791N01215737EA0224602304096008
B1023204733775N01215837EA0223602288104004
K102320180018
B1023244733762N01215945EA0222902280115008
B1023284733750N01216045EA0224402288100004
B1023324733737N01216137EA0226102312089004
B1023364733725N01216225EA0225802312088008
B1023404733712N01216316EA0225102304093008
K102340188021
B1023444733687N01216404EA0224602296101004
B1023484733658N01216495EA0224402296099008
B1023524733625N01216579EA0224002288102004
B1023564733587N01216658EA0223902288101004
B1024004733545N01216733EA0224202288098008
K102400206038
B1024044733504N01216808EA0224402296097008
B1024084733462N01216875EA0224202288102008
B1024124733416N01216941EA0224402296096008
B1024164733370N01217004EA0224402296098008
B1024204733325N01217070EA0224702296094008
K102420218033
K102420218033
B1024244733279N01217137EA0224602296094008
B1024284733229N01217195EA0223902288100008
B1024324733191N01217275EA0224202296096004
B1024364733175N01217370EA0224402296093008
B1024404733191N01217466EA0225602304090004
K102440218033
B1024444733233N01217545EA0226702320086004
B1024484733266N01217620EA0227902328082008
B1024524733287N01217695EA0228302336076008
B1024564733312N01217779EA0228302336083008
B1025004733333N01217862EA0228202328084008
K102500218032
B1025044733337N01217950EA0228402336084004
B1025084733304N01218025EA0227902328088008
B1025124733241N01218041EA0227102320099004
B1025164733191N01217987EA0227702320097004
B1025204733187N01217904EA0228002328087008
K102520220032
K102520220032
B1025244733220N01217833EA0227102320087008
B1025284733270N01217775EA0227402320083004
B1025324733333N01217758EA0227502320084008
B1025364733395N01217804EA0226102312101004
B1025404733429N01217887EA0226402304101004
K102540220032
B1025444733412N01217979EA0227502328094004
B1025484733354N01217991EA0226602320090004
B1025524733316N01217920EA0226402312092008
B1025564733337N01217837EA0225802312092008
B1026004733404N01217837EA0225102304096008
K102600180003
B1026044733445N01217920EA0225302304102008
B1026084733479N01218016EA0226102304098004
B1026124733520N01218095EA0228002328095008
B1026164733554N01218166EA0229402344081008
B1026204733558N01218245EA0228802344090008
B1026244733512N01218300EA0227002320099004
B1026284733450N01218275EA0226502312100008
B1026324733404N01218216EA0227502320082004
B1026364733391N01218133EA0227502320084004
B1026404733395N01218045EA0226602312084008
K102640180003
B1026444733395N01217958EA0226702312082008
B1026484733387N01217875EA0226902320079004
B1026524733358N01217800EA0226802312084008
B1026564733325N01217733EA0226502312082008
B1027004733275N01217683EA0226002304091008
K102700180003
K102700180003
B1027044733212N01217675EA0225802304092004
B1027084733166N01217729EA0227302312084008
B1027124733158N01217816EA0227802320079004
B1027164733200N01217887EA0226802312085004
B1027204733270N01217870EA0226102304093004
K102720180003
B1027244733304N01217791EA0227302320086004
B1027284733304N01217704EA0227802328081004
B1027324733275N01217625EA0228202328088004
B1027364733220N01217591EA0228502336086004
B1027404733175N01217645EA0228502336093004
B1027444733195N01217741EA0228502336093004
B1027484733266N01217737EA0227902328105004
B1027524733275N01217629EA0228402328101004
B1027564733225N01217562EA0228702336104004
B1028004733162N01217550EA0229902352091008
K102800218002
B1028044733108N01217579EA0230302352090008
B1028084733070N01217654EA0230302352095008
B1028124733058N01217750EA0231602360086008
B1028164733091N01217829EA0232602376077004
B1028204733154N01217866EA0231402360090008
K102820256006
B1028244733225N01217841EA0231402368092008
B1028284733258N01217762EA0232102376087008
B1028324733245N01217683EA0231902368085008
B1028364733191N01217645EA0230502360101008
B1028404733141N01217708EA0230802360101004
K102840208014
B1028444733154N01217816EA0231302368099008
B1028484733220N01217870EA0231702368092004
B1028524733291N01217841EA0231302360098004
B1028564733325N01217754EA0231302360095004
B1029004733320N01217654EA0231502368090004
B1029044733275N01217583EA0231402368101008
B1029084733216N01217591EA0232502376099008
B1029124733208N01217683EA0232602376089004
B1029164733270N01217737EA0231902368100008
B1029204733325N01217675EA0232202368093004
K102920170006
B1029244733312N01217579EA0232902376092004
B1029284733254N01217558EA0233002384100008
B1029324733233N01217641EA0234202392083008
B1029364733283N01217712EA0232602384101008
B1029404733341N01217658EA0233102384100008
K102940160006
B1029444733329N01217562EA0234502392089004
B1029484733270N01217550EA0235002400089008
B1029524733241N01217625EA0235702408083008
B1029564733262N01217720EA0235402408088008
B1030004733325N01217783EA0234602392099008
K103000158007
B1030044733391N01217750EA0235002400088008
B1030084733404N01217662EA0235002400080008
B1030124733370N01217583EA0233902392095008
B1030164733312N01217550EA0234502400100008
B1030204733254N01217512EA0235102408097008
K103020170012
B1030244733204N01217475EA0235902408088004
B1030284733150N01217491EA0236002416085008
B1030324733116N01217570EA0235402408090004
B1030364733129N01217675EA0235002400100004
B1030404733179N01217766EA0234602400111004
K103040170012
B1030444733233N01217850EA0235602416103004
B1030484733279N01217933EA0237402424090008
B1030524733295N01218025EA0237602432084008
B1030564733279N01218112EA0236902424085008
B1031004733220N01218141EA0236302416095008
K103100170012
B1031044733179N01218083EA0236302416095004
B1031084733158N01218004EA0236302416090008
B1031124733158N01217920EA0235702416091004
B1031164733175N01217833EA0235102408092004
B1031204733204N01217750EA0235102408089004
K103120170012
B1031244733233N01217670EA0235302408088004
B1031284733275N01217600EA0235702416083004
B1031324733341N01217570EA0235402408088004
B1031364733408N01217595EA0234902400094004
B1031404733458N01217670EA0235002400096004
K103140170012
B1031444733495N01217750EA0236402416088004
B1031484733525N01217825EA0236902424083004
B1031524733562N01217900EA0235602416080008
B1031564733604N01217983EA0233502384094008
B1032004733650N01218070EA0233302384097004
B1032044733687N01218158EA0233302384094008
B1032084733700N01218258EA0232902384092004
B1032124733704N01218358EA0232802384093004
B1032164733708N01218458EA0232902384093008
B1032204733712N01218558EA0233202384092008
K103220208014
B1032244733708N01218658EA0233502392096004
B1032284733704N01218754EA0234002392094008
B1032324733679N01218833EA0234402392084004
B1032364733625N01218837EA0232602376101004
B1032404733604N01218750EA0232602376100004
K103240204016
B1032444733633N01218662EA0232902376099004
B1032484733691N01218608EA0233502384088004
B1032524733758N01218620EA0233702392081004
B1032564733791N01218704EA0232202376096004
B1033004733766N01218800EA0232202376102004
K103300182018
B1033044733729N01218875EA0232002376100004
B1033084733687N01218954EA0231402368104004
B1033124733650N01219050EA0230402352113008
B1033164733620N01219158EA0230202352114008
B1033204733591N01219270EA0230002352112008
K103320182018
B1033244733558N01219379EA0229302344114008
B1033284733525N01219483EA0229202344118008
B1033324733491N01219595EA0228902344119008
B1033364733458N01219708EA0228802336122008
B1033404733429N01219829EA0228202328127008
K103340204026
B1033444733395N01219954EA0228102328130004
B1033484733370N01220079EA0228402328131008
B1033524733354N01220191EA0232702368100008
B1033564733329N01220270EA0234602400074008
B1034004733275N01220283EA0232802384090008
K103400206028
B1034044733245N01220212EA0232002368099008
B1034084733279N01220133EA0232402376089004
B1034124733345N01220120EA0232702376087008
B1034164733395N01220183EA0233202384088004
B1034204733433N01220270EA0235302408085004
K103420206028
B1034244733433N01220354EA0235402408080004
B1034284733383N01220370EA0232802392104004
B1034324733362N01220275EA0233102384107004
B1034364733416N01220216EA0234602400101004
B1034404733479N01220270EA0235102400099008
K103440182023
B1034444733462N01220362EA0235202408093008
B1034484733404N01220354EA0234902400093008
B1034524733379N01220270EA0235102408098008
B1034564733404N01220187EA0236102416087008
B1035004733454N01220133EA0236802424082008
K103500180016
B1035044733525N01220125EA0235202400092008
B1035084733575N01220212EA0234602392092008
B1035124733566N01220312EA0234802400095004
B1035164733541N01220400EA0235502408091008
B1035204733525N01220491EA0236202416092008
K103520182018
B1035244733512N01220575EA0237402424086008
B1035284733508N01220658EA0237602424081008
B1035324733516N01220745EA0237602424085008
B1035364733516N01220837EA0238102432078004
B1035404733495N01220912EA0238402432082008
K103540182018
B1035444733445N01220958EA0237502424085004
B1035484733400N01220925EA0236302408093004
B1035524733412N01220841EA0235902408092004
B1035564733462N01220787EA0235902408086004
B1036004733529N01220795EA0235702408079004
K103600182018
B1036044733575N01220870EA0235602400102004
B1036084733575N01220966EA0236502424086004
B1036124733516N01220975EA0235402408109004
B1036164733500N01220887EA0236202400097008
B1036204733570N01220866EA0236502400091008
K103620188012
B1036244733637N01220912EA0237102408098008
B1036284733695N01220975EA0238902432079008
B1036324733708N01221062EA0237502424088008
B1036364733662N01221112EA0235402400103008
B1036404733616N01221058EA0235502408097008
K103640200008
B1036444733608N01220966EA0236502416088008
B1036484733600N01220870EA0236702416096008
B1036524733575N01220787EA0237602424087008
B1036564733545N01220712EA0237802424090008
B1037004733495N01220687EA0237902432086008
K103700198008
B1037044733445N01220737EA0237602424091004
B1037084733420N01220820EA0237902432079008
B1037124733420N01220920EA0236902424084004
B1037164733445N01221025EA0235902408091004
B1037204733470N01221129EA0236102408086004
K103720198008
B1037244733483N01221237EA0235602408087004
B1037284733491N01221345EA0235402400090004
B1037324733495N01221458EA0234102392100004
B1037364733487N01221575EA0233502384101004
B1037404733450N01221662EA0234202392090004
K103740194009
B1037444733395N01221670EA0233902384090004
B1037484733383N01221595EA0232202376100004
B1037524733437N01221520EA0230502360115004
B1037564733500N01221450EA0229802344119004
B1038004733541N01221354EA0229702344115008
K103800194009
B1038044733562N01221250EA0229902344113008
B1038084733554N01221154EA0229702344109008
B1038124733525N01221066EA0229502344108008
B1038164733504N01220979EA0229502344100008
B1038204733487N01220891EA0229602344097008
K103820194009
K103820194009
B1038244733483N01220804EA0230002344089008
B1038284733487N01220716EA0229802344090008
B1038324733487N01220625EA0229702344093004
B1038364733475N01220537EA0229502336090008
B1038404733454N01220454EA0228302328095004
K103840176020
B1038444733425N01220366EA0227902328101004
B1038484733391N01220275EA0229302336102008
B1038524733366N01220195EA0232202368088008
B1038564733325N01220145EA0233202376081008
B1039004733279N01220183EA0232902376088008
K103900172023
B1039044733291N01220283EA0232202368103004
B1039084733362N01220279EA0232702376105008
B1039124733362N01220183EA0234202392097004
B1039164733308N01220187EA0235902416088004
B1039204733304N01220283EA0236102408094008
K103920184007
B1039244733370N01220325EA0235702408102008
B1039284733412N01220245EA0237802432095008
B1039324733375N01220187EA0239802448091008
B1039364733333N01220237EA0240302456087008
B1039404733354N01220337EA0240502456091008
K103940194011
B1039444733425N01220345EA0240802456096008
B1039484733441N01220254EA0241902464100008
B1039524733387N01220241EA0243202480100008
B1039564733387N01220341EA0243702488099008
B1040004733462N01220366EA0245302496094008
K104000204015
B1040044733483N01220283EA0245902512097008
B1040084733433N01220262EA0246602520099008
B1040124733408N01220350EA0248402536086008
B1040164733462N01220420EA0248802544091008
B1040204733525N01220387EA0248802536093008
K104020222017
B1040244733520N01220304EA0249302544098008
B1040284733466N01220304EA0250402560095008
B1040324733445N01220395EA0252702576083008
B1040364733491N01220475EA0253102584081008
B1040404733558N01220458EA0251302568097004
K104040232018
B1040444733566N01220362EA0250702560102008
B1040484733512N01220316EA0252502584103004
B1040524733466N01220362EA0254202600084004
B1040564733470N01220454EA0253102584094008
B1041004733537N01220516EA0252402576102008
K104100234010
B1041044733595N01220454EA0252502584096008
B1041084733587N01220362EA0252902584098008
B1041124733550N01220295EA0255102600088008
B1041164733500N01220300EA0254702608083008
B1041204733470N01220383EA0253302592091008
K104120192011
B1041244733512N01220475EA0252902584092008
B1041284733587N01220466EA0252602576096008
B1041324733629N01220379EA0253202584101008
B1041364733650N01220287EA0254202592087008
B1041404733637N01220212EA0254702600090008
K104140196013
B1041444733612N01220145EA0254702600081008
B1041484733570N01220108EA0254402592083008
B1041524733516N01220129EA0253302584087004
B1041564733483N01220208EA0253302584088008
B1042004733475N01220308EA0253302584088004
K104200206014
B1042044733483N01220408EA0253802592081004
B1042084733487N01220504EA0254202600078004
B1042124733495N01220604EA0254202600079004
B1042164733495N01220700EA0253302584086004
B1042204733504N01220808EA0251902576096004
K104220198024
B1042244733508N01220925EA0250302560108004
B1042284733508N01221050EA0248702544118004
B1042324733504N01221179EA0247502528126004
B1042364733500N01221316EA0245602512129004
B1042404733491N01221458EA0244502504131008
K104240198028
B1042444733487N01221600EA0244302496130008
B1042484733483N01221745EA0243602488131008
B1042524733475N01221895EA0242902488132008
B1042564733466N01222037EA0242002480132008
B1043004733454N01222183EA0241202472132008
K104300204045
B1043044733441N01222320EA0241202472130008
B1043084733425N01222458EA0240202456132008
B1043124733408N01222600EA0239302448135008
B1043164733395N01222741EA0238802448135008
B1043204733379N01222879EA0238802440133008
K104320206052
B1043244733366N01223016EA0238802440128008
B1043284733354N01223145EA0238802440125008
B1043324733345N01223279EA0238302432127008
B1043364733337N01223416EA0237302424128008
B1043404733329N01223550EA0236802424131008
K104340206053
B1043444733320N01223691EA0236502416131008
B1043484733316N01223825EA0236502416128008
B1043524733308N01223958EA0236302416125008
B1043564733300N01224087EA0236302416125008
B1044004733291N01224220EA0235602408126008
K104400202055
B1044044733279N01224354EA0234602400131008
B1044084733266N01224491EA0234102392132008
B1044124733254N01224625EA0234102392130008
B1044164733241N01224762EA0233902392130008
B1044204733225N01224895EA0233902392129008
K104420202053
B1044244733208N01225025EA0234002392127008
B1044284733191N01225154EA0233902392127008
B1044324733175N01225283EA0233602392126008
B1044364733154N01225412EA0233102384127008
B1044404733137N01225545EA0232502376130008
K104440206051
B1044444733120N01225679EA0232002376133008
B1044484733100N01225816EA0231502368134008
B1044524733083N01225950EA0231502368133008
B1044564733062N01226083EA0231202368134008
B1045004733037N01226216EA0231002360135008
K104500204050
B1045044733016N01226350EA0230902360133008
B1045084732991N01226479EA0230302360132008
B1045124732966N01226612EA0229802352134008
B1045164732937N01226745EA0229102344135008
B1045204732908N01226879EA0228702336138008
K104520206048
B1045244732879N01227016EA0227802328143008
B1045284732850N01227150EA0227302328143008
B1045324732816N01227291EA0227302320143008
B1045364732787N01227425EA0227102320143008
B1045404732758N01227562EA0226502312144008
K104540206045
B1045444732725N01227700EA0226302312144012
B1045484732691N01227837EA0226202312143008
B1045524732658N01227970EA0226402312141008
B1045564732629N01228108EA0226302312146008
B1046004732595N01228241EA0226002312149012
K104600206046
B1046044732558N01228370EA0226002312143008
B1046084732516N01228495EA0225102304147008
B1046124732470N01228625EA0224602296145008
B1046164732429N01228750EA0223702288150012
B1046204732387N01228875EA0224002288142008
K104620206044
B1046244732350N01228995EA0225902304122012
B1046284732320N01229108EA0227902328110012
B1046324732295N01229216EA0230502344094012
B1046364732291N01229316EA0232902376079012
B1046404732325N01229395EA0233502384078008
K104640208043
B1046444732387N01229420EA0232602376090008
B1046484732437N01229362EA0232402368087004
B1046524732437N01229283EA0233502384082008
B1046564732404N01229225EA0234702392081004
B1047004732354N01229225EA0235702408080004
K104700208043
B1047044732320N01229300EA0235902408084004
B1047084732333N01229400EA0236202416089004
B1047124732395N01229433EA0236702424086008
B1047164732441N01229387EA0237402424081008
B1047204732450N01229304EA0238402432087004
K104720236011
B1047244732404N01229262EA0239902448085008
B1047284732358N01229304EA0241002464081004
B1047324732354N01229400EA0240802456089004
B1047364732412N01229454EA0239902456095008
B1047404732470N01229408EA0241302464089008
K104740226007
B1047444732475N01229333EA0243002488083008
B1047484732433N01229291EA0244002488086008
B1047524732379N01229329EA0244002496090008
B1047564732370N01229433EA0244102496092008
B1048004732429N01229500EA0243902488102004
K104800228011
B1048044732495N01229479EA0244602496096008
B1048084732520N01229400EA0245602512084008
B1048124732495N01229329EA0246802520089008
B1048164732441N01229320EA0248402536084008
B1048204732395N01229379EA0248802536088008
K104820230009
B1048244732395N01229479EA0249002544083008
B1048284732445N01229554EA0248102536099008
B1048324732516N01229566EA0248902544085008
B1048364732558N01229504EA0249902552081008
B1048404732545N01229433EA0250302560087008
K104840228012
B1048444732487N01229437EA0250302560090008
B1048484732454N01229529EA0250802560090008
B1048524732487N01229620EA0251002560089008
B1048564732558N01229625EA0250302560094008
B1049004732608N01229562EA0251602568090008
K104900236013
B1049044732608N01229483EA0251902576086008
B1049084732558N01229458EA0251902576091008
B1049124732520N01229545EA0251702576094004
B1049164732554N01229641EA0252102576092008
B1049204732620N01229650EA0252502584090008
K104920220015
B1049244732654N01229575EA0252502584091008
B1049284732625N01229504EA0253002584088008
B1049324732570N01229520EA0252602584090008
B1049364732550N01229620EA0252602584090008
B1049404732591N01229704EA0253202592087008
K104940230015
B1049444732658N01229708EA0253002584093008
B1049484732687N01229633EA0252802584090008
B1049524732658N01229562EA0252802584089008
B1049564732600N01229566EA0253202584089008
B1050004732558N01229637EA0253502592087008
K105000244012
B1050044732545N01229741EA0253302592094008
B1050084732541N01229854EA0250802576105004
B1050124732529N01229983EA0248902552124008
B1050164732516N01230116EA0248102544132004
B1050204732504N01230254EA0248102536130004
K105020224011
B1050244732495N01230391EA0247602536133008
B1050284732491N01230533EA0247002528137008
B1050324732487N01230675EA0246502520138008
B1050364732487N01230816EA0246502520135008
B1050404732487N01230950EA0246602528131008
K105040196033
B1050444732491N01231083EA0246602528128008
B1050484732495N01231216EA0246502520127008
B1050524732504N01231345EA0246002520129008
B1050564732512N01231479EA0245402512126008
B1051004732516N01231612EA0245502512127008
K105100192041
B1051044732520N01231745EA0245402512121012
B1051084732525N01231875EA0244802504125008
B1051124732525N01232012EA0243402488122008
B1051164732525N01232150EA0242502480128008
B1051204732525N01232287EA0242502480123008
K105120196038
B1051244732520N01232425EA0242002480122008
B1051284732516N01232558EA0241402472124008
B1051324732508N01232695EA0241202472121008
B1051364732504N01232829EA0240702464121008
B1051404732500N01232962EA0240102456120008
K105140204043
B1051444732495N01233095EA0239302456123008
B1051484732491N01233233EA0238802448125008
B1051524732487N01233370EA0238802440125008
B1051564732487N01233508EA0239102448118008
B1052004732483N01233637EA0239402456117008
K105200208044
B1052044732483N01233770EA0239302448117008
B1052084732487N01233904EA0239302448118012
B1052124732487N01234033EA0238802440117008
B1052164732483N01234166EA0237302432123008
B1052204732479N01234304EA0236802424128008
K105220206043
B1052244732479N01234441EA0236902424122008
B1052284732479N01234575EA0236902424119008
B1052324732479N01234704EA0236602424118008
B1052364732483N01234837EA0236002416120008
B1052404732483N01234970EA0235602408120008
K105240204043
B1052444732475N01235095EA0235202408119008
B1052484732479N01235229EA0234602400119004
B1052524732491N01235354EA0234602400118008
B1052564732508N01235479EA0234402400116008
B1053004732533N01235600EA0234402400117008
K105300200041
B1053044732554N01235716EA0235602408113004
B1053084732579N01235816EA0236402424096008
B1053124732612N01235912EA0236702424088008
B1053164732650N01236004EA0236702424089008
B1053204732691N01236091EA0236702424096008
K105320190041
B1053244732737N01236170EA0238202432086008
B1053284732779N01236250EA0238202440087008
B1053324732820N01236333EA0238402440083008
B1053364732858N01236416EA0238402440087004
B1053404732879N01236508EA0238602440084008
K105340184039
B1053444732870N01236604EA0238002440089004
B1053484732833N01236675EA0238002432090004
B1053524732775N01236691EA0238002440086004
B1053564732729N01236645EA0237602432085004
B1054004732720N01236558EA0237102424088004
K105400184039
B1054044732737N01236466EA0237102424092004
B1054084732762N01236387EA0237702432086004
B1054124732775N01236304EA0237602432075004
B1054164732762N01236220EA0236602416089004
B1054204732725N01236145EA0236502416093004
K105420184039
B1054244732683N01236095EA0236302416090004
B1054284732625N01236062EA0236202416100004
B1054324732566N01236037EA0236702424095004
B1054364732508N01236016EA0236902424087004
B1054404732475N01235945EA0236902424088008
K105440184039
B1054444732495N01235866EA0236702416090008
B1054484732562N01235841EA0236302416089008
B1054524732620N01235900EA0236402408101008
B1054564732654N01235991EA0236902424086008
B1055004732704N01236058EA0237202424084008
K105500184039
B1055044732775N01236091EA0237702424095008
B1055084732845N01236075EA0239302440087008
B1055124732875N01235991EA0238102440093008
B1055164732841N01235912EA0237502424094008
B1055204732775N01235925EA0237202424103008
K105520184039
B1055244732766N01236016EA0239302440094008
B1055284732825N01236070EA0240302456092004
B1055324732887N01236020EA0240302456095008
B1055364732875N01235925EA0240302456097008
B1055404732808N01235912EA0239802456113008
K105540188012
B1055444732775N01235991EA0242502472096008
B1055484732804N01236075EA0243202488088008
B1055524732887N01236066EA0242002472108008
B1055564732904N01235970EA0242802472104008
B1056004732845N01235937EA0243702480101008
K105600190010
B1056044732808N01236008EA0245102496093008
B1056084732845N01236091EA0245302504100008
B1056124732925N01236070EA0245102496103008
B1056164732925N01235966EA0245102496106008
B1056204732862N01235945EA0245302504109008
K105620190012
B1056244732850N01236033EA0247302520097008
B1056284732916N01236079EA0247302520098008
B1056324732970N01236004EA0247302528097008
B1056364732937N01235920EA0247302520111008
B1056404732870N01235904EA0248902536103008
K105640186015
B1056444732820N01235933EA0250402552079008
B1056484732808N01236020EA0249802552089008
B1056524732845N01236108EA0249402544104008
B1056564732920N01236116EA0249502552089004
B1057004732975N01236041EA0249902552101008
K105700210014
B1057044733020N01235954EA0251102560091008
B1057084733041N01235862EA0251102568091008
B1057124733008N01235783EA0251602576096008
B1057164732954N01235800EA0251602576091008
B1057204732945N01235895EA0251602568105008
K105720166017
B1057244733008N01235958EA0252602584095008
B1057284733062N01235895EA0251502568106008
B1057324733025N01235812EA0249602552124008
B1057364732966N01235850EA0252602576103008
B1057404732958N01235941EA0253602592086008
K105740234019
B1057444733008N01236012EA0252602584099012
B1057484733083N01235987EA0252702584098008
B1057524733100N01235891EA0253202592103008
B1057564733050N01235845EA0254002592096008
B1058004733000N01235891EA0253902600091004
K105800196013
B1058044732983N01235979EA0254002600090008
B1058084732979N01236079EA0252302584111008
B1058124732983N01236195EA0251702576109008
B1058164732987N01236312EA0251702576107004
B1058204732991N01236429EA0251902576116008
K105820182028
B1058244732991N01236550EA0251902584116008
B1058284732987N01236666EA0251902576110008
B1058324732970N01236779EA0251202576113008
B1058364732950N01236891EA0251302576109008
B1058404732920N01237000EA0250802568110008
K105840196035
B1058444732887N01237100EA0251102568106008
B1058484732850N01237191EA0251502576099004
B1058524732804N01237279EA0251302568108008
B1058564732754N01237354EA0251202568103004
B1059004732700N01237416EA0251202568095004
K105900220046
B1059044732645N01237479EA0250802568104008
B1059084732583N01237537EA0250102560111008
B1059124732520N01237575EA0250302560104008
B1059164732462N01237608EA0250102560101008
B1059204732395N01237629EA0249302552101008
K105920228045
B1059244732333N01237625EA0248802544099008
B1059284732270N01237637EA0248702544092008
B1059324732220N01237691EA0248702544090008
B1059364732200N01237783EA0248502544093008
B1059404732212N01237891EA0248502544097008
K105940228045
B1059444732233N01237995EA0249402552096008
B1059484732245N01238087EA0251102568077008
B1059524732229N01238170EA0249802560086008
B1059564732166N01238179EA0248102544100008
B1100004732145N01238083EA0248402536110004
K110000228045
B1100044732204N01238012EA0250302552105008
B1100084732275N01238016EA0250802568088008
B1100124732320N01238100EA0250702568095008
B1100164732295N01238195EA0250102560097008
B1100204732229N01238208EA0249402552103008
K110020206015
B1100244732179N01238145EA0249902560100008
B1100284732170N01238054EA0252002576092008
B1100324732216N01237995EA0253302592087004
B1100364732275N01238045EA0252502584093008
B1100404732258N01238145EA0251302568108008
K110040148002
B1100444732191N01238170EA0252002584105008
B1100484732137N01238125EA0252902592100008
B1100524732133N01238041EA0253002592093008
B1100564732195N01238000EA0252802592098008
B1101004732262N01238058EA0253302592099008
K110100206005
B1101044732262N01238162EA0254202608098008
B1101084732204N01238175EA0254002608101008
B1101124732208N01238079EA0254102608105008
B1101164732279N01238083EA0256102624090008
B1101204732304N01238183EA0256002624094008
K110120214021
B1101244732254N01238245EA0255302616103008
B1101284732225N01238166EA0255902624104008
B1101324732287N01238120EA0256002624103008
B1101364732337N01238208EA0257202632097008
B1101404732300N01238283EA0257502640091008
K110140230017
B1101444732245N01238245EA0256002624113008
B1101484732283N01238166EA0257502632103008
B1101524732350N01238216EA0258002640096008
B1101564732345N01238316EA0258302648096008
B1102004732283N01238329EA0257902640104008
K110200218019
B1102044732275N01238237EA0258002640104008
B1102084732345N01238220EA0259102648095004
B1102124732383N01238312EA0258702648100008
B1102164732333N01238375EA0258702648100008
B1102204732287N01238320EA0259102648098008
K110220216014
B1102244732333N01238250EA0258402648097008
B1102284732404N01238312EA0257902632116008
B1102324732412N01238425EA0260002656097008
B1102364732379N01238500EA0260902664082008
B1102404732320N01238491EA0259502656096008
K110240244017
B1102444732283N01238420EA0260002664096008
B1102484732312N01238345EA0260102664093004
B1102524732387N01238345EA0259502656095008
B1102564732433N01238441EA0259302656101008
B1103004732412N01238537EA0260002664092008
K110300224016
B1103044732358N01238595EA0260102664093008
B1103084732304N01238650EA0259802656100008
B1103124732254N01238725EA0260302664093008
B1103164732216N01238804EA0260402664095008
B1103204732166N01238879EA0258102648112004
K110320226017
B1103244732100N01238945EA0256202632127008
B1103284732025N01239000EA0254902616132004
B1103324731945N01239045EA0253602600136004
B1103364731862N01239083EA0253102592133008
B1103404731779N01239120EA0252802592131008
K110340238035
B1103444731691N01239162EA0252602592129008
B1103484731608N01239208EA0252002584136008
B1103524731520N01239254EA0252002584129012
B1103564731437N01239304EA0251602576139008
B1104004731358N01239358EA0255702608119012
K110400242016
B1104044731295N01239391EA0259102656083012
B1104084731245N01239366EA0259802656081012
B1104124731233N01239283EA0258402648096012
B1104164731291N01239241EA0259402656099004
B1104204731337N01239316EA0260302664092008
K110420240024
B1104244731304N01239404EA0260302664096004
B1104284731241N01239395EA0260302664095004
B1104324731237N01239304EA0260302664101008
B1104364731300N01239270EA0261202672098008
B1104404731362N01239316EA0263202696086008
K110440234011
B1104444731370N01239412EA0263102696090008
B1104484731312N01239454EA0261502680103008
B1104524731287N01239366EA0260802664114008
B1104564731320N01239275EA0262802680102008
B1105004731375N01239237EA0265402712085008
K110500202015
B1105044731425N01239279EA0263602704086008
B1105084731404N01239383EA0261802680110008
B1105124731337N01239387EA0264902712091008
B1105164731316N01239308EA0265202712090008
B1105204731358N01239237EA0265902720092012
K110520008005
B1105244731416N01239241EA0265702720088008
B1105284731445N01239337EA0264902712098008
B1105324731395N01239412EA0265302720095008
B1105364731329N01239412EA0267102728088008
B1105404731283N01239366EA0268202744078008
K110540296007
B1105444731262N01239283EA0267302728092008
B1105484731300N01239216EA0267502736092008
B1105524731358N01239254EA0266902736091004
B1105564731358N01239358EA0266702728101008
B1106004731300N01239416EA0268002744094008
K110600334008
B1106044731254N01239358EA0267502744098008
B1106084731275N01239262EA0267102736101008
B1106124731341N01239262EA0267602744098008
B1106164731379N01239345EA0268202744092008
B1106204731358N01239445EA0268302752095008
K110620264010
B1106244731295N01239475EA0269102752098008
B1106284731254N01239412EA0269302760091008
B1106324731275N01239325EA0268102744102008
B1106364731341N01239316EA0268502752096008
B1106404731391N01239375EA0269702760082008
K110640254009
B1106444731412N01239462EA0270302768084008
B1106484731387N01239554EA0269302760091008
B1106524731329N01239595EA0269902760086008
B1106564731270N01239566EA0269902768083004
B1107004731254N01239483EA0269302760087008
K110700258010
B1107044731287N01239408EA0268702752092004
B1107084731350N01239404EA0269102760092004
B1107124731387N01239479EA0269602760088008
B1107164731358N01239575EA0269102760094008
B1107204731300N01239637EA0268702752103008
K110720266006
B1107244731233N01239679EA0268702752098008
B1107284731170N01239725EA0268102752097008
B1107324731100N01239766EA0265902728113008
B1107364731020N01239812EA0263602704122008
B1107404730937N01239862EA0263002696130008
K110740266006
B1107444730850N01239908EA0262802696128008
B1107484730770N01239958EA0262202696126008
B1107524730687N01240016EA0260702672139008
B1107564730600N01240075EA0259802664143008
B1108004730512N01240137EA0258702656143012
K110800250017
B1108044730425N01240204EA0257302640147008
B1108084730337N01240270EA0257102632144012
B1108124730250N01240341EA0256702632144012
B1108164730170N01240420EA0256002624146012
B1108204730087N01240500EA0255102616146012
K110820238017
B1108244730004N01240587EA0254902616147012
B1108284729929N01240679EA0254402608146012
B1108324729850N01240770EA0254202608144012
B1108364729770N01240854EA0253902600142012
B1108404729695N01240937EA0253502600140012
K110840236025
B1108444729620N01241025EA0253302592139012
B1108484729545N01241108EA0253102592136012
B1108524729475N01241191EA0252502592136012
B1108564729400N01241270EA0252002584135012
B1109004729329N01241354EA0252002584133012
K110900234031
B1109044729258N01241433EA0252002584130008
B1109084729187N01241512EA0251502576137008
B1109124729112N01241583EA0251002568135012
B1109164729037N01241650EA0250502568133008
B1109204728966N01241725EA0250102560132008
K110920236036
B1109244728895N01241787EA0249902560128008
B1109284728820N01241841EA0249802560127008
B1109324728745N01241887EA0249802560128008
B1109364728675N01241933EA0249802560124008
B1109404728612N01241987EA0250102560119008
K110940236036
B1109444728545N01242033EA0250802568115008
B1109484728483N01242054EA0251502576104008
B1109524728420N01242066EA0251602576099008
B1109564728370N01242116EA0251602576094008
B1110004728362N01242216EA0251302568095008
K111000236033
B1110044728416N01242291EA0251302568095008
B1110084728495N01242275EA0250102560104004
B1110124728545N01242183EA0249302552108008
B1110164728562N01242075EA0249302552105004
B1110204728583N01241966EA0249302552107004
K111020236033
B1110244728608N01241858EA0249102544108008
B1110284728616N01241754EA0249402552105008
B1110324728600N01241662EA0249902560101004
B1110364728570N01241583EA0249802552100008
B1110404728545N01241500EA0249302552100004
K111040236033
B1110444728508N01241429EA0249202552099004
B1110484728454N01241395EA0249202552097004
B1110524728395N01241412EA0248502544097004
B1110564728341N01241475EA0247002528109008
B1111004728308N01241570EA0246502520109008
K111100236033
B1111044728287N01241679EA0246602528105008
B1111084728283N01241783EA0246702528103008
B1111124728279N01241895EA0246502520105008
B1111164728279N01242004EA0246102520108008
B1111204728275N01242116EA0246002520109004
K111120224027
B1111244728287N01242225EA0246102520105008
B1111284728308N01242333EA0246102520104004
B1111324728345N01242433EA0246102528104004
B1111364728379N01242537EA0246602528102004
B1111404728395N01242641EA0247302528099004
K111140224028
B1111444728387N01242745EA0247202528101008
B1111484728358N01242837EA0247302536102008
B1111524728329N01242925EA0247302528099004
B1111564728304N01243020EA0246602528104008
B1112004728287N01243116EA0247802536093008
K111200214029
B1112044728270N01243204EA0247902536090008
B1112084728250N01243291EA0247902536089008
B1112124728225N01243370EA0247502536093008
B1112164728204N01243454EA0247502536090004
B1112204728191N01243537EA0247202536091008
K111220208033
B1112244728187N01243620EA0246702528089004
B1112284728183N01243708EA0246802528088004
B1112324728187N01243795EA0246702528087004
B1112364728195N01243879EA0246702528085004
B1112404728208N01243966EA0246502528086004
K111240190022
B1112444728204N01244054EA0246102520088004
B1112484728166N01244120EA0246002520089004
B1112524728108N01244125EA0245702520092004
B1112564728054N01244070EA0246102520090004
B1113004728008N01244004EA0246302520088004
K111300202026
B1113044727970N01243925EA0246302520088004
B1113084727941N01243837EA0245702520094004
B1113124727912N01243741EA0245702512093004
B1113164727891N01243645EA0245402512095004
B1113204727870N01243550EA0245002504097004
K111320198019
B1113244727854N01243450EA0244502504095004
B1113284727845N01243345EA0244502504095004
B1113324727833N01243245EA0244802504089004
B1113364727825N01243154EA0245202512086004
B1113404727820N01243058EA0245002504086004
K111340134016
B1113444727820N01242962EA0244802504088004
B1113484727825N01242862EA0244402504091004
B1113524727837N01242762EA0243402496094004
B1113564727850N01242662EA0243102496097004
B1114004727866N01242562EA0243102496094004
K111400148017
B1114044727883N01242466EA0242902488094004
B1114084727904N01242370EA0242402480097004
B1114124727937N01242275EA0242002480095004
B1114164727975N01242191EA0241802472095004
B1114204728029N01242116EA0241402472096004
K111420170025
B1114244728087N01242045EA0240702464098008
B1114284728154N01241987EA0239702456106008
B1114324728225N01241929EA0238602448109004
B1114364728300N01241870EA0238102440109008
B1114404728383N01241825EA0237602432113004
K111440190025
B1114444728462N01241783EA0236802424113004
B1114484728545N01241741EA0236502416114008
B1114524728633N01241704EA0236002416114008
B1114564728720N01241670EA0235502408111008
B1115004728804N01241641EA0235102408113008
K111500198024
B1115044728891N01241620EA0235902416103008
B1115084728970N01241595EA0236202416102008
B1115124729033N01241550EA0236702424090008
B1115164729075N01241483EA0236302416091008
B1115204729120N01241416EA0235402408090004
K111520198024
B1115244729183N01241366EA0233402392095008
B1115284729250N01241316EA0232502376103004
B1115324729320N01241262EA0231902376102004
B1115364729387N01241208EA0231502368105004
B1115404729458N01241150EA0231202360109004
K111540198019
B1115444729533N01241091EA0230902360111004
B1115484729600N01241037EA0231502368105004
B1115524729666N01240987EA0231502368104008
B1115564729729N01240929EA0231502368103008
B1116004729791N01240875EA0231402360104004
K111600210025
B1116044729854N01240816EA0230802360105008
B1116084729920N01240758EA0229502344107004
B1116124729983N01240695EA0228902344107004
B1116164730050N01240637EA0228602336110008
B1116204730112N01240570EA0227902328110008
K111620214020
B1116244730175N01240504EA0227002328109008
B1116284730241N01240433EA0226102312117008
B1116324730308N01240370EA0226902320116008
B1116364730370N01240312EA0229902344096008
B1116404730416N01240254EA0230602360074008
K111640216021
B1116444730437N01240179EA0229102344091008
B1116484730470N01240100EA0230002352090004
B1116524730529N01240062EA0231302360081008
B1116564730591N01240108EA0230302352092004
B1117004730579N01240216EA0228902336109004
K111700216021
B1117044730516N01240220EA0231502360093004
B1117084730508N01240137EA0232002376093004
B1117124730575N01240108EA0232002368099008
B1117164730620N01240195EA0232502376096008
B1117204730575N01240262EA0232602376103008
K111720222010
B1117244730533N01240200EA0235102392089008
B1117284730579N01240145EA0234402400092008
B1117324730641N01240200EA0234602392094008
B1117364730625N01240291EA0235502408083008
B1117404730566N01240266EA0236302416102008
K111740232009
B1117444730579N01240183EA0237902440085012
B1117484730645N01240183EA0237902432096008
B1117524730675N01240279EA0238402440091008
B1117564730625N01240333EA0238402440097008
B1118004730583N01240266EA0240402456095008
K111800214007
B1118044730625N01240204EA0240802472090008
B1118084730687N01240266EA0240302456105008
B1118124730666N01240354EA0243002488085008
B1118164730612N01240329EA0242302480104008
B1118204730620N01240237EA0244002496095008
K111820238014
B1118244730687N01240220EA0245302504081008
B1118284730729N01240300EA0245802512095008
B1118324730704N01240387EA0246602528089008
B1118364730650N01240370EA0246202520101008
B1118404730679N01240283EA0245702512111008
K111840226018
B1118444730754N01240308EA0249202544096008
B1118484730787N01240383EA0250902568080012
B1118524730762N01240470EA0250402560097008
B1118564730700N01240470EA0250802568095008
B1119004730704N01240383EA0250102560097008
K111900242015
B1119044730779N01240379EA0252402568100008
B1119084730816N01240458EA0255102600079008
B1119124730791N01240550EA0254902608095008
B1119164730733N01240591EA0254402600107008
B1119204730679N01240545EA0254702608097004
K111920232015
B1119244730687N01240450EA0254702608107008
B1119284730750N01240395EA0255402616101008
B1119324730812N01240462EA0256902632103008
B1119364730791N01240570EA0258402640106008
B1119404730725N01240587EA0259102648106008
K111940232011
B1119444730695N01240500EA0259402656111008
B1119484730729N01240412EA0260002664104008
B1119524730804N01240400EA0261502672110008
B1119564730858N01240487EA0262702688101008
B1120004730854N01240600EA0263202696106008
K112000230012
B1120044730795N01240675EA0263802704106008
B1120084730733N01240654EA0264202704100008
B1120124730708N01240562EA0264502712101008
B1120164730737N01240475EA0265602712095008
B1120204730808N01240441EA0266502728104008
K112020250008
B1120244730870N01240483EA0267502736093008
B1120284730900N01240579EA0267702736101008
B1120324730879N01240683EA0267002736107008
B1120364730812N01240725EA0267302736109008
B1120404730745N01240700EA0267302736105008
K112040236007
B1120444730716N01240616EA0267702744099008
B1120484730737N01240520EA0267102736107008
B1120524730804N01240470EA0268302752113008
B1120564730870N01240470EA0270302768090008
B1121004730920N01240525EA0270802776086008
K112100242006
B1121044730937N01240629EA0270102768106008
B1121084730912N01240737EA0269602760103008
B1121124730862N01240816EA0269302760107004
B1121164730791N01240845EA0268902752103008
B1121204730729N01240812EA0269102760093008
K112120270005
B1121244730691N01240745EA0268902760091008
B1121284730683N01240650EA0268102744100008
B1121324730720N01240566EA0267702736099008
B1121364730766N01240500EA0267102728100004
B1121404730816N01240437EA0267302736094008
K112140252003
B1121444730870N01240383EA0267302736094008
B1121484730925N01240325EA0267102728097008
B1121524730979N01240270EA0267302736095008
B1121564731037N01240212EA0267802744094008
B1122004731091N01240158EA0269302752091004
K112200216018
B1122044731150N01240108EA0270402768083008
B1122084731220N01240087EA0271002776090008
B1122124731275N01240137EA0271202776085008
B1122164731279N01240237EA0269302760095004
B1122204731220N01240287EA0268702752104008
K112220220018
B1122244731158N01240233EA0269302760107004
B1122284731120N01240145EA0271002768093004
B1122324731095N01240058EA0272902792091008
B1122364731079N01239975EA0272302784081008
B1122404731095N01239887EA0270702776088008
K112240220018
B1122444731154N01239829EA0269602760099008
B1122484731220N01239800EA0269702760098004
B1122524731291N01239779EA0269302760101008
B1122564731362N01239745EA0268402752106004
B1123004731433N01239704EA0267702744115004
K112300176006
B1123044731504N01239658EA0267702744114004
B1123084731575N01239608EA0267502736108004
B1123124731641N01239562EA0266502728107008
B1123164731712N01239508EA0266302728099008
B1123204731787N01239454EA0266302728109008
K112320212009
B1123244731862N01239404EA0266702736102008
B1123284731933N01239362EA0268702752096008
B1123324731991N01239316EA0269902760078008
B1123364732029N01239245EA0270202768086008
B1123404732062N01239166EA0271002776080008
K112340208010
B1123444732116N01239133EA0271102776083004
B1123484732175N01239183EA0269302760099008
B1123524732166N01239291EA0269102752103004
B1123564732108N01239287EA0268702752104004
B1124004732095N01239187EA0269602760103008
K112400208010
B1124044732141N01239108EA0270302768092008
B1124084732208N01239116EA0270502768095008
B1124124732250N01239208EA0271402776093008
B1124164732220N01239291EA0271802784097008
B1124204732162N01239283EA0271802784101008
K112420198014
B1124244732145N01239191EA0272102784093008
B1124284732175N01239100EA0272202792095008
B1124324732225N01239025EA0272602792089008
B1124364732270N01238954EA0273302800092008
B1124404732316N01238883EA0273302800078008
K112440204012
B1124444732362N01238808EA0272502784092008
B1124484732391N01238716EA0271702784098004
B1124524732404N01238620EA0271802784096008
B1124564732404N01238533EA0272002784091004
B1125004732400N01238445EA0270902776095004
K112500188012
B1125044732395N01238354EA0270102768098004
B1125084732391N01238258EA0269102760102004
B1125124732387N01238158EA0268402744103004
B1125164732387N01238054EA0268002744098004
B1125204732395N01237950EA0268102744104008
K112520188018
B1125244732404N01237850EA0268202744100008
B1125284732425N01237745EA0268202744100008
B1125324732445N01237641EA0267902744107008
B1125364732458N01237537EA0269102752094008
B1125404732445N01237445EA0269602760084008
K112540186019
B1125444732400N01237395EA0269602760089004
B1125484732341N01237416EA0270402768091008
B1125524732329N01237500EA0272402792083008
B1125564732375N01237566EA0272302784090008
B1126004732445N01237545EA0272102784092004
K112600186019
B1126044732462N01237454EA0271702784090008
B1126084732420N01237383EA0271602784094004
B1126124732366N01237383EA0273502792084004
B1126164732345N01237458EA0273702800095004
B1126204732404N01237520EA0273302792103004
K112620130012
B1126244732466N01237466EA0274602808088004
B1126284732475N01237370EA0275102816090004
B1126324732437N01237295EA0275402816089008
B1126364732375N01237304EA0275102816097008
B1126404732358N01237395EA0275802824091004
K112640136012
B1126444732408N01237475EA0276202824095008
B1126484732483N01237437EA0276302832100004
B1126524732491N01237333EA0277002840098004
B1126564732429N01237308EA0278102848095004
B1127004732400N01237387EA0279302864086004
K112700182010
B1127044732445N01237470EA0279602864092008
B1127084732520N01237454EA0280402872092008
B1127124732545N01237358EA0280702872092008
B1127164732504N01237283EA0281302872093008
B1127204732450N01237316EA0282202888090004
K112720172012
B1127244732454N01237416EA0282202888090008
B1127284732520N01237466EA0282802896091008
B1127324732583N01237404EA0283002896096008
B1127364732583N01237300EA0283402904098008
B1127404732529N01237254EA0284002912097008
K112740172012
B1127444732479N01237300EA0284502912092008
B1127484732475N01237395EA0284502920093008
B1127524732529N01237466EA0284502920093004
B1127564732604N01237454EA0285102920092008
