AZAN5BC ZANDER/SDI GP941 V2.06
HFDTE240803
HFFXA050
HFPLT Pilot             :Alfred Siegert                          
HFGTY Glider type       :DG 800 b                                
HFGID Glider ID         :D-KHJM    
HFDTM100 GPS Datum      :WGS84
HFRFW Firmware Version  :06
HFRHW Hardware version  :2
HFFTY FR Type           :ZANDER/SDI GP941
HFGPS                   :Garmin,GPS25,12,30000
HFPRS Press Alt Sensor  :Intersema,MS5534A,10000
HFCCL Competition Class :18 m                                    
HFCID Competition ID    :          
I023638IAS3941ENL
J020810WDI1113WVE
LZAN 084442 PowerOn
B0844464743837N01226320EV0051000000000000
B0844504743837N01226320EV0051100000000000
B0844544743837N01226320EV0051000000000000
B0844584743837N01226320EV0051000000000000
B0845024743837N01226320EV0051000000000000
B0845064743837N01226320EV0051000000000000
B0845104743837N01226320EV0051000000000000
B0845144743837N01226320EV0051000000000000
B0845184743837N01226320EV0051000000000000
B0845224743837N01226320EV0051100000000000
B0845264743837N01226320EV0051100000000000
B0845304743837N01226320EV0051000000000000
B0845344743837N01226320EV0051100000000000
B0845384743837N01226320EV0051100000000000
B0845424743837N01226320EV0051000000000000
B0845464743837N01226320EV0051000000000000
B0845504743837N01226320EV0051000000000000
B0845544743837N01226320EV0051000000000000
B0845584743837N01226320EV0051000000000000
B0846024743833N01226320EA0051000000000000
B0846064743833N01226320EA0051000000000000
B0846104743833N01226325EA0051000000000000
B0846144743837N01226325EV0051000000000000
B0846184743841N01226320EV0051000000000000
B0846224743841N01226320EV0051000000000000
B0846264743845N01226325EA0051000000000000
B0846304743845N01226325EV0051000000000000
B0846344743845N01226325EA0051000000000000
B0846384743845N01226325EV0051000000000000
B0846424743845N01226325EV0051000000000032
B0846464743845N01226325EV0051000000000016
B0846504743845N01226325EV0051100000000088
B0846544743845N01226325EV0051100000000060
B0846584743845N01226325EV0051100000000084
B0847024743845N01226325EA0051100000000088
B0847064743845N01226325EA0051100000000036
B0847104743845N01226325EV0051100000000060
B0847144743845N01226325EV0051100000000000
B0847184743845N01226325EA0051100000000016
B0847224743845N01226325EV0051100000000000
B0847264743845N01226325EV0051100000000000
B0847304743845N01226325EV0051100000000000
B0847344743845N01226325EV0051100000000000
B0847384743845N01226325EV0051100000000000
B0847424743845N01226325EV0051100000000000
B0847464743841N01226320EA0051100000000000
B0847504743841N01226320EV0051100000000000
B0847544743841N01226320EA0051100000000000
B0847584743841N01226320EA0051100000000000
B0848024743837N01226320EA0051100000000000
B0848064743833N01226320EA0051100000000000
B0848104743833N01226320EV0051100000000000
B0848144743833N01226320EV0051100000000000
B0848184743833N01226320EV0051100000000000
B0848224743833N01226320EA0051100000000000
B0848264743833N01226320EV0051100000000000
B0848304743833N01226320EV0051100000000000
B0848344743833N01226320EV0051100000000000
B0848384743829N01226316EA0051100000000000
B0848424743825N01226316EA0051100000000000
B0848464743825N01226316EV0051100000000000
B0848504743825N01226316EV0051100000000000
B0848544743825N01226316EV0051100000000000
B0848584743825N01226316EV0051200000000000
B0849024743825N01226316EV0051100000000000
B0849064743825N01226316EV0051100000000000
B0849104743825N01226316EV0051100000000000
B0849144743825N01226316EV0051100000000000
B0849184743825N01226316EV0051100000000000
B0849224743825N01226316EV0051100000000000
B0849264743825N01226316EV0051100000000000
B0849304743825N01226316EV0051100000000000
B0849344743825N01226316EV0051100000000000
B0849384743825N01226316EV0051100000000000
B0849424743825N01226316EV0051100000000000
B0849464743833N01226312EA0051100000000000
B0849504743804N01226308EA0051100000000000
B0849544743812N01226312EA0051100000000000
B0849584743829N01226316EA0051100000000000
B0850024743825N01226316EA0051100000000000
B0850064743825N01226316EV0051100000000000
B0850104743829N01226316EV0051100000000000
B0850144743829N01226316EA0051100000000000
B0850184743829N01226316EA0051100000000000
B0850224743829N01226316EA0051100000000000
B0850264743829N01226316EA0051100000000000
B0850304743833N01226316EA0051100000000000
B0850344743829N01226316EA0051100000000000
B0850384743829N01226316EA0051100000000000
B0850424743833N01226316EA0051100000000000
B0850464743837N01226320EA0051100000000000
B0850504743837N01226320EA0051100000000000
B0850544743837N01226320EA0051100000000000
B0850584743837N01226320EV0051100000000000
B0851024743833N01226316EA0051100552000000
B0851064743833N01226316EA0051100552000000
B0851104743833N01226316EA0051100552000000
B0851144743833N01226320EA0051100552000000
B0851184743837N01226320EA0051100000000000
B0851224743837N01226320EA0051100000000000
B0851264743837N01226320EA0051100552000000
B0851304743841N01226320EA0051100552000000
B0851344743837N01226316EA0051100552000000
B0851384743837N01226316EV0051100000000000
B0851424743829N01226316EA0051100000000000
B0851464743829N01226316EA0051100000000000
B0851504743825N01226316EA0051100000000000
B0851544743825N01226316EA0051100552000000
B0851584743829N01226316EA0051100552000000
B0852024743820N01226316EA0051100552000000
B0852064743825N01226316EA0051100000000000
B0852104743825N01226316EA0051100000000000
B0852144743816N01226312EV0051100000000000
B0852184743820N01226312EA0051100000000000
B0852224743825N01226316EA0051200000000000
B0852264743825N01226312EA0051200552000000
B0852304743825N01226312EA0051200544000000
B0852344743820N01226312EA0051200000000000
B0852384743820N01226312EA0051200544000000
B0852424743820N01226312EA0051200544000000
B0852464743816N01226312EA0051200000000000
B0852504743816N01226312EA0051100000000000
B0852544743816N01226312EA0051100544000000
B0852584743816N01226312EA0051100552000000
B0853024743820N01226312EA0051100552000000
B0853064743820N01226312EA0051100552000000
B0853104743825N01226312EA0051100552000000
B0853144743825N01226316EA0051100552000000
B0853184743825N01226316EA0051100552000000
B0853224743829N01226316EA0051100552000000
B0853264743829N01226316EA0051100552000000
B0853304743825N01226316EA0051100000000000
B0853344743825N01226316EA0051100544000000
B0853384743833N01226316EA0051100544000000
B0853424743833N01226316EA0051100544000000
B0853464743837N01226316EA0051100544000000
B0853504743833N01226316EA0051100000000000
B0853544743829N01226316EA0051100552000000
B0853584743829N01226316EA0051100552000000
B0854024743829N01226316EA0051100552000000
B0854064743829N01226316EA0051100560000000
B0854104743820N01226316EA0051100568000000
B0854144743820N01226316EA0051100568000000
B0854184743816N01226316EA0051100568000000
B0854224743820N01226316EA0051100568000000
B0854264743825N01226316EA0051100568000000
B0854304743820N01226316EA0051100576000000
B0854344743820N01226316EA0051200576000000
B0854384743825N01226320EA0051200576000000
B0854424743833N01226320EA0051200576000000
B0854464743837N01226320EA0051200576000000
B0854504743837N01226320EA0051200568000000
B0854544743837N01226320EA0051200560000000
B0854584743841N01226320EA0051200560000000
B0855024743845N01226320EA0051200560000000
B0855064743841N01226320EA0051200560000000
B0855104743837N01226320EA0051200552000000
B0855144743833N01226316EA0051200552000000
B0855184743833N01226316EA0051200552000000
B0855224743837N01226320EA0051200552000000
B0855264743837N01226320EA0051200552000000
B0855304743833N01226316EA0051200552000000
B0855344743829N01226316EA0051200552000000
B0855384743837N01226320EA0051200552000000
B0855424743833N01226320EA0051200000000000
B0855464743837N01226320EA0051200000000000
B0855504743833N01226316EA0051200000000000
B0855544743816N01226312EA0051100000000000
B0855584743808N01226312EA0051100000000000
B0856024743795N01226308EA0051100000000000
B0856064743791N01226308EA0051100000000000
B0856104743804N01226308EA0051100000000000
B0856144743804N01226308EV0051100000000000
B0856184743804N01226308EV0051100000000000
B0856224743804N01226308EV0051100000000000
B0856264743804N01226308EV0051100000000000
B0856304743804N01226308EV0051200000000000
B0856344743804N01226308EV0051200000000000
B0856384743808N01226312EA0051200560000000
B0856424743812N01226312EA0051200560000000
B0856464743812N01226312EA0051200560000000
B0856504743812N01226312EA0051200560000000
B0856544743816N01226312EA0051200560000000
B0856584743816N01226316EA0051200560000000
B0857024743816N01226316EA0051200568000000
B0857064743820N01226316EA0051200560000000
B0857104743820N01226316EA0051200560000000
B0857144743825N01226316EA0051200560000000
B0857184743825N01226316EA0051200560000000
B0857224743829N01226316EA0051200560000008
B0857264743825N01226316EA0051200560000004
B0857304743825N01226316EA0051200560000000
B0857344743825N01226316EA0051200560000004
B0857384743825N01226316EA0051200560000000
B0857424743825N01226316EA0051200560000000
B0857464743829N01226316EA0051200560000000
B0857504743829N01226316EA0051200560000000
B0857544743829N01226316EA0051200000000000
B0857584743829N01226316EA0051200560000000
B0858024743829N01226316EA0051200568000000
B0858064743829N01226320EA0051200568000000
B0858104743833N01226320EV0051200568000000
B0858144743833N01226320EA0051200568000000
B0858184743837N01226320EA0051200000000000
B0858224743837N01226320EA0051200568000000
B0858264743837N01226320EA0051200568000000
B0858304743837N01226320EA0051200560000000
B0858344743837N01226320EA0051200560000000
B0858384743837N01226320EA0051200560000000
B0858424743837N01226320EA0051200560000000
B0858464743837N01226320EA0051200552000000
B0858504743837N01226320EA0051200552000000
B0858544743837N01226316EA0051200552000000
B0858584743841N01226320EA0051200552000000
B0859024743841N01226320EA0051200552000000
B0859064743841N01226320EA0051200552000000
B0859104743837N01226320EA0051200560000000
B0859144743837N01226320EA0051200560000000
B0859184743833N01226320EA0051200560000000
B0859224743833N01226320EA0051200560000000
B0859264743833N01226320EA0051200560000000
B0859304743833N01226320EA0051200560000000
B0859344743833N01226320EA0051200560000000
B0859384743833N01226320EV0051200000000000
B0859424743833N01226320EA0051200560000000
B0859464743833N01226320EA0051200560000004
B0859504743829N01226320EA0051200000000000
B0859544743829N01226325EV0051200000000012
B0859584743829N01226325EA0051200000000008
B0900024743829N01226320EA0051200560000008
B0900064743829N01226316EA0051200560000008
B0900104743825N01226312EA0051200552000004
B0900144743820N01226308EA0051200552000008
B0900184743820N01226304EA0051200552000008
B0900224743820N01226300EA0051200552000008
B0900264743820N01226295EA0051200552000004
B0900304743816N01226291EA0051200552000008
B0900344743816N01226287EA0051200552000004
B0900384743816N01226287EA0051200552000004
B0900424743816N01226283EA0051200552000004
B0900464743816N01226283EA0051200544000004
B0900504743812N01226283EA0051200544000000
B0900544743812N01226283EA0051200544000000
B0900584743816N01226283EA0051200552000000
B0901024743816N01226283EA0051200552000000
B0901064743816N01226283EA0051200552000000
B0901104743816N01226287EA0051200552000000
B0901144743816N01226283EA0051200552000000
B0901184743816N01226279EA0051200552000000
B0901224743812N01226275EA0051200552000000
B0901264743812N01226270EA0051200552000000
B0901304743808N01226266EA0051200552000004
B0901344743808N01226262EA0051200552000000
B0901384743804N01226258EA0051200552000008
B0901424743804N01226254EA0051200552000008
B0901464743800N01226250EA0051200552000008
B0901504743800N01226245EA0051200552000008
B0901544743795N01226237EA0051200552000008
B0901584743795N01226233EA0051200544000008
B0902024743795N01226229EA0051200544000008
B0902064743791N01226225EA0051200544000008
B0902104743791N01226220EA0051200544000008
B0902144743787N01226216EA0051200544000008
B0902184743787N01226212EA0051200544000008
B0902224743783N01226208EA0051200544000008
B0902264743783N01226204EA0051200544000008
B0902304743783N01226200EA0051200544000008
B0902344743779N01226195EA0051200544000008
B0902384743779N01226191EA0051200544000008
B0902424743775N01226187EA0051200544000008
B0902464743775N01226183EA0051200544000008
B0902504743770N01226179EA0051200544000004
B0902544743770N01226175EA0051200544000008
B0902584743770N01226170EA0051200544000004
B0903024743766N01226166EA0051200544000004
B0903064743766N01226162EA0051200544000004
B0903104743762N01226158EA0051200544000004
B0903144743762N01226154EA0051200544000008
B0903184743758N01226154EA0051200544000008
B0903224743758N01226150EA0051200544000008
B0903264743754N01226145EA0051200544000008
B0903304743754N01226141EA0051200544000008
B0903344743754N01226141EA0051200544000008
B0903384743750N01226141EA0051200536000008
B0903424743750N01226141EA0051200544000008
B0903464743750N01226141EA0051200544000000
B0903504743754N01226145EA0051200544000004
B0903544743754N01226145EA0051200544000000
B0903584743754N01226141EA0051200544000000
B0904024743754N01226141EA0051200544000000
B0904064743758N01226145EA0051200552000000
B0904104743758N01226141EA0051200552000000
B0904144743754N01226141EA0051200552000000
B0904184743754N01226141EA0051200552000000
B0904224743750N01226137EA0051200552000000
B0904264743750N01226137EA0051200552000000
B0904304743750N01226137EA0051200552000000
B0904344743750N01226137EA0051200552000000
B0904384743750N01226133EA0051200544000000
B0904424743750N01226137EA0051200544000000
B0904464743750N01226133EA0051200552000000
B0904504743745N01226133EA0051200552000000
B0904544743745N01226129EA0051200552000000
B0904584743741N01226125EA0051200552000000
B0905024743741N01226120EA0051200552000000
B0905064743741N01226120EA0051200552000008
B0905104743737N01226120EA0051200552000004
B0905144743733N01226120EA0051200552000004
B0905184743729N01226125EA0051200552000008
B0905224743729N01226129EA0051200544000008
B0905264743725N01226133EA0051200544000008
B0905304743720N01226133EA0051200544000008
B0905344743716N01226137EA0051200544000008
B0905384743716N01226137EA0051200544000008
B0905424743712N01226141EA0051200544000008
B0905464743708N01226145EA0051200544000004
B0905504743708N01226145EA0051200544000008
B0905544743704N01226150EA0051200544000008
B0905584743704N01226154EA0051200544000008
B0906024743700N01226154EA0051400544000008
B0906064743700N01226158EA0051300544000008
B0906104743695N01226158EA0051300544000008
B0906144743695N01226162EA0051300544000008
B0906184743691N01226166EA0051300544000024
B0906224743691N01226170EA0051300544000016
B0906264743691N01226170EA0051300544000020
B0906304743687N01226175EA0051300000000024
B0906344743687N01226170EA0051300536000004
B0906384743687N01226170EA0051300536000012
B0906424743683N01226170EA0051300536000008
B0906464743687N01226170EA0051300536000008
B0906504743687N01226170EA0051300544000000
B0906544743687N01226175EA0051300544000004
B0906584743691N01226179EA0051300544000016
B0907024743691N01226183EA0051300544000008
B0907064743695N01226183EA0051300544000016
B0907104743695N01226187EA0051300544000016
B0907144743695N01226191EA0051200544000016
B0907184743695N01226195EA0051200544000016
B0907224743695N01226195EA0051300544000000
B0907264743695N01226195EA0051300544000008
B0907304743695N01226195EA0051300544000008
B0907344743695N01226195EA0051300544000004
B0907384743695N01226195EA0051300544000000
B0907424743695N01226195EA0051300544000004
B0907464743695N01226195EA0051300544000000
B0907504743695N01226195EA0051200552000000
B0907544743695N01226195EA0051200552000000
B0907584743695N01226195EA0051200552000000
B0908024743695N01226195EA0051200552000000
B0908064743695N01226195EA0051200552000000
B0908104743700N01226195EA0051200552000000
B0908144743700N01226195EA0051500552000000
B0908184743700N01226195EA0051400552000000
B0908224743700N01226200EA0051400552000000
B0908264743704N01226200EA0051400552000000
B0908304743704N01226200EA0051400552000000
B0908344743704N01226200EA0051400552000000
B0908384743704N01226195EA0051400552000000
B0908424743704N01226195EA0051500552000000
B0908464743700N01226195EA0051500544000000
B0908504743700N01226195EA0051500544000000
B0908544743700N01226195EA0051500544000000
B0908584743700N01226195EA0051500544000000
B0909024743700N01226195EA0051500544000000
B0909064743695N01226195EA0051400544000000
B0909104743700N01226195EA0051400544000000
B0909144743700N01226195EA0051400544000000
B0909184743695N01226195EA0051400544000000
B0909224743695N01226195EA0051400544000000
B0909264743695N01226195EA0051500544000000
B0909304743695N01226195EA0051500544000000
B0909344743700N01226195EA0051500544000000
B0909384743700N01226195EA0051500544000000
B0909424743700N01226195EA0051500544000000
B0909464743700N01226195EA0051500544000000
B0909504743700N01226195EA0051500544000000
B0909544743700N01226195EA0051400544000000
B0909584743700N01226195EA0051400544000000
B0910024743700N01226195EA0051400544000000
B0910064743700N01226195EA0051400544000000
B0910104743700N01226195EA0051400544000000
B0910144743700N01226195EA0051400544000000
B0910184743695N01226195EA0051400544000000
B0910224743700N01226195EA0051400544000000
B0910264743700N01226195EA0051400544000000
B0910304743700N01226195EA0051400544000000
B0910344743700N01226195EA0051300536000000
B0910384743700N01226195EA0051300536000000
B0910424743700N01226195EA0051400536000000
B0910464743700N01226195EA0051300536000000
B0910504743700N01226195EA0051300544000000
B0910544743700N01226195EA0051300544000000
B0910584743700N01226195EA0051300544000000
B0911024743700N01226195EA0051200552000000
B0911064743700N01226195EA0051200552000000
B0911104743700N01226195EA0051200552000000
B0911144743700N01226195EA0051200552000000
B0911184743700N01226195EA0051200552000000
B0911224743700N01226195EA0051400552000000
B0911264743700N01226195EA0051400552000000
B0911304743700N01226195EA0051400552000000
B0911344743700N01226195EA0051400552000000
B0911384743700N01226195EA0051400552000000
B0911424743700N01226195EA0051400544000000
B0911464743700N01226195EA0051400544000000
B0911504743700N01226195EA0051400544000000
B0911544743695N01226195EA0051400544000000
B0911584743695N01226195EA0051400544000000
B0912024743695N01226191EA0051400544000000
B0912064743695N01226195EA0051400544000000
B0912104743695N01226195EA0051400544000000
B0912144743695N01226195EA0051400544000000
B0912184743695N01226195EA0051400552000000
B0912224743695N01226195EA0051400552000000
B0912264743695N01226195EA0051400552000000
B0912304743700N01226195EA0051400552000000
B0912344743695N01226195EA0051300552000000
B0912384743700N01226195EA0051300552000000
B0912424743700N01226195EA0051400552000000
B0912464743700N01226195EA0051400552000000
B0912504743700N01226195EA0051400552000000
B0912544743700N01226195EA0051300552000000
B0912584743695N01226195EA0051300552000000
B0913024743695N01226195EA0051300552000000
B0913064743695N01226195EA0051300552000000
B0913104743695N01226195EA0051300552000000
B0913144743695N01226195EA0051300552000000
B0913184743700N01226195EA0051300552000000
B0913224743700N01226195EA0051300544000000
B0913264743700N01226195EA0051200544000000
B0913304743700N01226195EA0051200544000000
B0913344743700N01226195EA0051200544000000
B0913384743700N01226195EA0051200544000000
B0913424743700N01226195EA0051200544000000
B0913464743700N01226195EA0051200544000000
B0913504743700N01226195EA0051400544000000
B0913544743700N01226195EA0051400544000000
B0913584743700N01226195EA0051500552000000
B0914024743700N01226195EA0051500552000000
B0914064743700N01226195EA0051500552000000
B0914104743695N01226195EA0051500552000000
B0914144743700N01226195EA0051500552000000
B0914184743700N01226195EA0051500552000000
B0914224743700N01226195EA0051500552000000
B0914264743700N01226195EA0051500552000000
B0914304743700N01226195EA0051500552000000
B0914344743700N01226195EA0051500560000000
B0914384743700N01226195EA0051500552000000
B0914424743700N01226195EA0051500552000000
B0914464743700N01226195EA0051500552000000
B0914504743700N01226195EA0051500552000000
B0914544743700N01226195EA0051500552000000
B0914584743700N01226195EA0051500552000000
B0915024743700N01226195EA0051500552000000
B0915064743700N01226195EA0051400560000000
B0915104743700N01226195EA0051400560000000
B0915144743700N01226195EA0051400560000000
B0915184743700N01226195EA0051400560000000
B0915224743700N01226195EA0051400560000000
B0915264743700N01226195EA0051400560000000
B0915304743700N01226195EA0051500560000000
B0915344743700N01226195EA0051500560000000
B0915384743700N01226195EA0051500568000000
B0915424743700N01226200EA0051500568000000
B0915464743700N01226200EA0051500568000000
B0915504743704N01226195EA0051500568000000
B0915544743704N01226195EA0051500560000000
B0915584743700N01226195EA0051500560000000
B0916024743700N01226195EA0051500560000000
B0916064743700N01226195EA0051500560000000
B0916104743700N01226195EA0051500552000000
B0916144743700N01226195EA0051500552000000
B0916184743700N01226195EA0051500552000000
B0916224743700N01226195EA0051400544000000
B0916264743700N01226195EA0051300544000000
B0916304743700N01226195EA0051300544000000
B0916344743700N01226195EA0051300544000000
B0916384743700N01226195EA0051300552000000
B0916424743700N01226195EA0051300544000000
B0916464743700N01226195EA0051300544000000
B0916504743700N01226195EA0051400544000000
B0916544743700N01226195EA0051400544000000
B0916584743700N01226195EA0051300552000000
B0917024743700N01226195EA0051300552000000
B0917064743700N01226195EA0051400552000000
B0917104743700N01226195EA0051400552000000
B0917144743700N01226195EA0051400552000000
B0917184743700N01226195EA0051400552000000
B0917224743700N01226195EA0051400552000000
B0917264743700N01226195EA0051400552000000
B0917304743700N01226195EA0051400552000000
B0917344743700N01226195EA0051400552000000
B0917384743700N01226195EA0051400552000000
B0917424743700N01226195EA0051400544000000
B0917464743700N01226195EA0051300544000000
B0917504743700N01226195EA0051300544000000
B0917544743700N01226195EA0051300552000000
B0917584743700N01226195EA0051300544000000
B0918024743700N01226195EA0051300544000000
B0918064743700N01226195EA0051300544000000
B0918104743700N01226195EA0051300544000000
B0918144743700N01226195EA0051300544000000
B0918184743700N01226195EA0051300544000000
B0918224743700N01226195EA0051400544000000
B0918264743700N01226195EA0051400544000000
B0918304743700N01226195EA0051300544000000
B0918344743700N01226195EA0051300544000000
B0918384743700N01226195EA0051300552000000
B0918424743704N01226195EA0051300552000000
B0918464743704N01226195EA0051300552000000
B0918504743704N01226195EA0051300552000000
B0918544743704N01226195EA0051300552000000
B0918584743704N01226195EA0051400552000000
B0919024743704N01226195EA0051400552000000
B0919064743704N01226195EA0051400552000000
B0919104743704N01226195EA0051400552000000
B0919144743704N01226195EA0051400552000000
B0919184743704N01226195EA0051400552000000
B0919224743704N01226195EA0051400552000000
B0919264743704N01226195EA0051400552000000
B0919304743704N01226195EA0051400552000000
B0919344743704N01226195EA0051400552000000
B0919384743704N01226200EA0051300552000000
B0919424743704N01226200EA0051300552000000
B0919464743704N01226200EA0051200552000000
B0919504743704N01226200EA0051200552000000
B0919544743704N01226200EA0051200552000000
B0919584743704N01226200EA0051200552000000
B0920024743704N01226200EA0051200560000000
B0920064743704N01226200EA0051200552000000
B0920104743704N01226200EA0051200552000000
B0920144743704N01226200EA0051200552000000
B0920184743704N01226200EA0051400552000000
B0920224743704N01226195EA0051300552000000
B0920264743704N01226195EA0051300552000028
B0920304743704N01226195EA0051300552000016
B0920344743704N01226195EA0051400552000000
B0920384743704N01226195EA0051400552000016
B0920424743704N01226195EA0051400552000000
B0920464743704N01226195EA0051400552000000
B0920504743704N01226195EA0051400552000000
B0920544743704N01226195EA0051400552000000
B0920584743704N01226195EA0051400552000000
B0921024743704N01226195EA0051400552000000
B0921064743704N01226195EA0051400552000000
B0921104743704N01226195EA0051400552000000
B0921144743704N01226195EA0051400552000000
B0921184743704N01226195EA0051400552000000
B0921224743704N01226195EA0051400544000000
B0921264743704N01226195EA0051400544000000
B0921304743704N01226195EA0051400544000000
B0921344743704N01226195EA0051400544000000
B0921384743704N01226191EA0051400544000000
B0921424743704N01226191EA0051400544000000
B0921464743704N01226195EA0051400544000004
B0921504743704N01226195EA0051400544000000
B0921544743704N01226195EA0051400544000000
B0921584743704N01226195EA0051400544000000
B0922024743704N01226195EA0051400544000000
B0922064743704N01226195EA0051300536000000
B0922104743704N01226195EA0051300544000000
B0922144743704N01226195EA0051200544000000
B0922184743704N01226195EA0051200544000000
B0922224743704N01226195EA0051200544000000
B0922264743704N01226195EA0051200544000000
B0922304743704N01226195EA0051200544000000
B0922344743704N01226195EA0051200544000000
B0922384743704N01226195EA0051200544000000
B0922424743704N01226195EA0051200544000000
B0922464743704N01226195EA0051200544000000
B0922504743704N01226195EA0051200544000000
B0922544743704N01226195EA0051200544000000
B0922584743704N01226195EA0051200544000000
B0923024743704N01226195EA0051200544000000
B0923064743704N01226195EA0051200544000000
B0923104743704N01226195EA0051200544000000
B0923144743704N01226195EA0051200544000000
B0923184743704N01226195EA0051200544000000
B0923224743704N01226195EA0051200544000000
B0923264743704N01226195EA0051400544000000
B0923304743700N01226195EA0051400544000000
B0923344743704N01226195EA0051400552000000
B0923384743704N01226195EA0051400552000000
B0923424743704N01226195EA0051400552000000
B0923464743704N01226195EA0051400552000000
B0923504743704N01226195EA0051400552000000
B0923544743704N01226195EA0051400552000000
B0923584743704N01226195EA0051400552000000
B0924024743704N01226195EA0051300544000000
B0924064743704N01226195EA0051300544000000
B0924104743700N01226195EA0051300544000000
B0924144743700N01226195EA0051300544000000
B0924184743700N01226195EA0051300552000000
B0924224743700N01226195EA0051300552000000
B0924264743704N01226195EA0051400552000000
B0924304743704N01226195EA0051400552000000
B0924344743704N01226195EA0051400544000000
B0924384743704N01226195EA0051400544000000
B0924424743704N01226195EA0051400544000000
B0924464743700N01226195EA0051400544000000
B0924504743700N01226195EA0051400544000000
B0924544743700N01226195EA0051400544000000
B0924584743700N01226195EA0051400544000000
B0925024743700N01226195EA0051400544000000
B0925064743704N01226195EA0051400544000000
B0925104743704N01226195EA0051400544000000
B0925144743704N01226191EA0051400544000000
B0925184743704N01226191EA0051400544000000
B0925224743704N01226191EA0051400544000000
B0925264743704N01226191EA0051400552000000
B0925304743704N01226191EA0051300552000004
B0925344743704N01226195EA0051300552000000
B0925384743704N01226195EA0051300552000008
B0925424743704N01226195EA0051300552000008
B0925464743704N01226195EA0051300552000000
B0925504743704N01226195EA0051300552000004
B0925544743704N01226195EA0051200552000000
B0925584743704N01226195EA0051200552000000
B0926024743704N01226195EA0051200552000000
B0926064743704N01226195EA0051200552000000
B0926104743704N01226195EA0051200552000000
B0926144743704N01226195EA0051200552000000
B0926184743700N01226195EA0051200552000000
B0926224743700N01226195EA0051200552000000
B0926264743700N01226195EA0051200552000000
B0926304743700N01226195EA0051200552000000
B0926344743700N01226195EA0051200552000000
B0926384743704N01226195EA0051200552000000
B0926424743704N01226195EA0051200552000000
B0926464743704N01226195EA0051200552000000
B0926504743704N01226195EA0051200552000004
B0926544743704N01226195EA0051200552000000
B0926584743704N01226195EA0051200552000000
B0927024743704N01226195EA0051200552000000
B0927064743704N01226195EA0051200552000000
B0927104743704N01226195EA0051200552000000
B0927144743704N01226195EA0051200552000000
B0927184743704N01226195EA0051200552000000
B0927224743704N01226195EA0051200552000000
B0927264743704N01226195EA0051200552000000
B0927304743704N01226195EA0051200552000000
B0927344743704N01226195EA0051200552000000
B0927384743704N01226195EA0051200552000000
B0927424743704N01226200EA0051200552000000
B0927464743708N01226200EA0051200552000000
B0927504743708N01226204EA0051200552000000
B0927544743708N01226204EA0051200552000004
B0927584743708N01226208EA0051200552000000
B0928024743708N01226212EA0051200552000000
B0928064743708N01226212EA0051200552000000
B0928104743708N01226212EA0051500552000000
B0928144743708N01226212EA0051500552000000
B0928184743708N01226212EA0051500552000000
B0928224743708N01226212EA0051300552000000
B0928264743708N01226212EA0051300552000000
B0928304743708N01226212EA0051300552000000
B0928344743708N01226212EA0051300552000000
B0928384743708N01226212EA0051300552000000
B0928424743708N01226212EA0051300552000000
B0928464743708N01226212EA0051300552000000
B0928504743708N01226212EA0051400552000000
B0928544743708N01226212EA0051400552000000
B0928584743708N01226212EA0051400544000000
B0929024743708N01226212EA0051400544000000
B0929064743708N01226212EA0051400544000000
B0929104743708N01226212EA0051300544000000
B0929144743708N01226212EA0051300544000000
B0929184743708N01226216EA0051300544000000
B0929224743708N01226212EA0051300544000000
B0929264743708N01226212EA0051300552000000
B0929304743708N01226212EA0051300552000000
B0929344743708N01226212EA0051300552000000
B0929384743708N01226212EA0051300552000000
B0929424743708N01226212EA0051300552000000
B0929464743708N01226212EA0051300552000000
B0929504743708N01226212EA0051300552000000
B0929544743708N01226212EA0051300552000000
B0929584743712N01226212EA0051300552000000
B0930024743712N01226212EA0051300552000000
B0930064743712N01226212EA0051300552000000
B0930104743712N01226212EA0051200552000000
B0930144743712N01226212EA0051200552000000
B0930184743712N01226208EA0051200552000000
B0930224743708N01226212EA0051200552000000
B0930264743708N01226212EA0051200552000000
B0930304743708N01226212EA0051200552000000
B0930344743708N01226212EA0051200560000000
B0930384743708N01226212EA0051200560000000
B0930424743708N01226212EA0051200560000000
B0930464743708N01226212EA0051200560000000
B0930504743712N01226212EA0051200560000000
B0930544743712N01226212EA0051200560000000
B0930584743712N01226212EA0051200560000000
B0931024743712N01226212EA0051200560000000
B0931064743712N01226212EA0051200552000000
B0931104743712N01226212EA0051200552000000
B0931144743712N01226212EA0051400552000000
B0931184743712N01226212EA0051400552000000
B0931224743712N01226212EA0051400552000000
B0931264743712N01226208EA0051400552000000
B0931304743712N01226212EA0051400552000000
B0931344743712N01226212EA0051400552000000
B0931384743708N01226212EA0051400552000000
B0931424743708N01226212EA0051400552000000
B0931464743708N01226212EA0051400552000000
B0931504743708N01226212EA0051300552000000
B0931544743708N01226212EA0051300552000000
B0931584743712N01226212EA0051300552000000
B0932024743712N01226212EA0051300552000000
B0932064743708N01226212EA0051200544000000
B0932104743708N01226212EA0051200544000004
B0932144743708N01226212EA0051200544000000
B0932184743708N01226212EA0051200544000008
B0932224743708N01226212EA0051200544000008
B0932264743708N01226212EA0051200552000004
B0932304743708N01226208EA0051200552000008
B0932344743708N01226208EA0051200544000000
B0932384743708N01226208EA0051200544000000
B0932424743708N01226208EA0051200544000004
B0932464743708N01226212EA0051200552000000
B0932504743708N01226212EA0051200552000000
B0932544743708N01226216EA0051200552000000
B0932584743708N01226216EA0051200552000000
B0933024743708N01226216EA0051200552000000
B0933064743708N01226216EA0051400552000000
B0933104743708N01226216EA0051400552000000
B0933144743704N01226216EA0051400552000000
B0933184743708N01226216EA0051400552000000
B0933224743708N01226220EA0051400552000000
B0933264743708N01226220EA0051300552000000
B0933304743704N01226220EA0051300552000016
B0933344743708N01226220EA0051300560000008
B0933384743708N01226216EA0051300552000000
B0933424743708N01226216EA0051300560000008
B0933464743708N01226216EA0051300552000008
B0933504743708N01226216EA0051300552000004
B0933544743708N01226216EA0051300560000000
B0933584743708N01226220EA0051400560000004
B0934024743708N01226216EA0051400560000000
B0934064743708N01226216EA0051300560000000
B0934104743708N01226216EA0051300552000000
B0934144743708N01226216EA0051300552000000
B0934184743708N01226216EA0051400552000000
B0934224743708N01226216EA0051400552000000
B0934264743708N01226216EA0051500552000000
B0934304743708N01226212EA0051400552000000
B0934344743708N01226216EA0051400552000000
B0934384743708N01226212EA0051400552000000
B0934424743708N01226212EA0051400552000000
B0934464743708N01226212EA0051400552000000
B0934504743708N01226212EA0051500552000004
B0934544743708N01226212EA0051500552000000
B0934584743708N01226212EA0051500552000004
B0935024743712N01226208EA0051500552000004
B0935064743712N01226212EA0051400552000000
B0935104743708N01226212EA0051300552000000
B0935144743708N01226212EA0051400552000000
B0935184743708N01226216EA0051400552000000
B0935224743708N01226212EA0051400552000000
B0935264743708N01226212EA0051400552000000
B0935304743708N01226212EA0051400552000000
B0935344743708N01226212EA0051400552000000
B0935384743708N01226212EA0051400552000000
B0935424743708N01226212EA0051400552000000
B0935464743708N01226212EA0051400552000000
B0935504743708N01226212EA0051400552000000
B0935544743708N01226212EA0051400552000004
B0935584743708N01226212EA0051300552000000
B0936024743708N01226212EA0051400552000000
B0936064743708N01226212EA0051500552000000
B0936104743708N01226212EA0051500552000000
B0936144743708N01226212EA0051500552000000
B0936184743708N01226212EA0051500552000000
B0936224743708N01226212EA0051500552000000
B0936264743708N01226212EA0051500544000000
B0936304743708N01226208EA0051400544000000
B0936344743708N01226212EA0051400544000004
B0936384743708N01226212EA0051400544000000
B0936424743708N01226212EA0051400544000008
B0936464743708N01226212EA0051400552000008
B0936504743708N01226212EA0051400544000004
B0936544743708N01226212EA0051400552000008
B0936584743708N01226212EA0051400552000000
B0937024743708N01226212EA0051400552000000
B0937064743708N01226212EA0051400552000000
B0937104743708N01226212EA0051400552000000
B0937144743708N01226208EA0051400544000000
B0937184743712N01226208EA0051400544000000
B0937224743712N01226208EA0051400552000004
B0937264743708N01226212EA0051400552000000
B0937304743708N01226212EA0051400552000000
B0937344743708N01226212EA0051400552000000
B0937384743708N01226212EA0051400552000000
B0937424743712N01226212EA0051400552000000
B0937464743712N01226212EA0051400552000000
B0937504743712N01226212EA0051400552000000
B0937544743712N01226208EA0051400552000000
B0937584743712N01226208EA0051300552000000
B0938024743712N01226208EA0051300552000000
B0938064743712N01226208EA0051300552000000
B0938104743712N01226212EA0051300552000000
B0938144743708N01226208EA0051300544000000
B0938184743708N01226212EA0051300552000000
B0938224743708N01226212EA0051300544000000
B0938264743708N01226212EA0051300552000000
B0938304743708N01226212EA0051300552000000
B0938344743708N01226212EA0051300552000000
B0938384743708N01226212EA0051300552000000
B0938424743708N01226212EA0051300552000000
B0938464743708N01226212EA0051300552000000
B0938504743708N01226212EA0051300552000000
B0938544743708N01226212EA0051300552000000
B0938584743708N01226212EA0051300552000000
B0939024743708N01226212EA0051300552000000
B0939064743708N01226212EA0051300544000000
B0939104743708N01226212EA0051300544000000
B0939144743708N01226212EA0051300544000000
B0939184743708N01226212EA0051300544000000
B0939224743708N01226212EA0051300544000000
B0939264743708N01226212EA0051300544000000
B0939304743708N01226212EA0051400544000000
B0939344743708N01226212EA0051400544000000
B0939384743708N01226208EA0051300544000000
B0939424743708N01226208EA0051300544000000
B0939464743708N01226208EA0051300536000000
B0939504743708N01226208EA0051300536000000
B0939544743708N01226208EA0051200536000000
B0939584743708N01226208EA0051200544000000
B0940024743708N01226208EA0051200544000000
B0940064743708N01226208EA0051200544000000
B0940104743708N01226208EA0051200544000000
B0940144743708N01226208EA0051200536000000
B0940184743708N01226208EA0051200536000000
B0940224743708N01226208EA0051200536000000
B0940264743708N01226208EA0051200544000000
B0940304743708N01226208EA0051200544000000
B0940344743708N01226208EA0051200544000000
B0940384743708N01226208EA0051200544000000
B0940424743708N01226204EA0051200544000000
B0940464743712N01226204EA0051200544000000
B0940504743712N01226208EA0051200544000000
B0940544743712N01226208EA0051200544000000
B0940584743708N01226208EA0051200552000000
B0941024743708N01226208EA0051200552000000
B0941064743712N01226212EA0051200552000000
B0941104743712N01226212EA0051200552000000
B0941144743712N01226212EA0051200552000000
B0941184743712N01226212EA0051200560000000
B0941224743712N01226216EA0051400560000000
B0941264743712N01226212EA0051400560000000
B0941304743708N01226212EA0051400560000000
B0941344743708N01226216EA0051400560000000
B0941384743708N01226216EA0051400552000000
B0941424743708N01226216EA0051400552000000
B0941464743708N01226216EA0051400552000000
B0941504743708N01226212EA0051400552000000
B0941544743708N01226212EA0051400552000000
B0941584743708N01226212EA0051400552000000
B0942024743708N01226212EA0051300552000000
B0942064743708N01226216EA0051300552000000
B0942104743708N01226216EA0051300552000012
B0942144743708N01226212EA0051300552000008
B0942184743708N01226212EA0051300552000000
B0942224743708N01226216EA0051300552000008
B0942264743708N01226212EA0051300552000000
B0942304743708N01226212EA0051300552000000
B0942344743708N01226212EA0051300552000000
B0942384743708N01226212EA0051300552000000
B0942424743712N01226212EA0051300552000000
B0942464743712N01226212EA0051300552000000
B0942504743712N01226212EA0051300552000000
B0942544743712N01226212EA0051300544000000
B0942584743712N01226212EA0051300544000000
B0943024743712N01226212EA0051300544000000
B0943064743720N01226225EA0051300544000000
B0943104743750N01226287EA0052500544000000
B0943144743791N01226354EA0060300624000072
B0943184743833N01226433EA0068800712000036
B0943224743879N01226520EA0076700800000120
B0943264743925N01226620EA0082100880000164
B0943304743975N01226729EA0085400920000196
B0943344744016N01226816EA0089600952000196
B0943384744045N01226887EA0090300960000040
B0943424744066N01226966EA0089800952000120
B0943464744070N01227054EA0089000952000032
B0943504744045N01227141EA0088500944000036
B0943544744000N01227208EA0087600936000144
B0943584743937N01227225EA0086900928000520
B0944024743870N01227179EA0086200928000748
B0944064743829N01227100EA0086500928000832
B0944104743795N01227012EA0087800944000996
B0944144743762N01226920EA0089200960000999
B0944184743729N01226837EA0091300976000999
B0944224743700N01226758EA0093001000000999
B0944264743666N01226687EA0093901008000999
B0944304743625N01226612EA0095401024000999
B0944344743587N01226537EA0097001040000999
B0944384743545N01226466EA0098901064000999
B0944424743508N01226391EA0100401072000999
B0944464743470N01226312EA0101201088000999
B0944504743433N01226229EA0102501096000999
B0944544743404N01226145EA0103401112000999
B0944584743404N01226045EA0104101112000999
B0945024743437N01225966EA0105201128000999
B0945064743487N01225925EA0106201136000999
B0945104743545N01225925EA0107301144000999
B0945144743595N01225966EA0108501160000999
B0945184743625N01226041EA0109601176000999
B0945224743620N01226129EA0110301176000999
B0945264743591N01226208EA0111301192000999
B0945304743545N01226270EA0112201200000999
B0945344743487N01226316EA0113701216000999
B0945384743429N01226350EA0114601224000999
B0945424743370N01226379EA0116001240000999
B0945464743308N01226404EA0118301256000999
B0945504743245N01226429EA0119601280000999
B0945544743183N01226458EA0120701288000999
B0945584743120N01226475EA0121601296000999
B0946024743054N01226475EA0122601304000999
B0946064742987N01226466EA0123501312000999
B0946104742920N01226450EA0124501328000999
B0946144742858N01226450EA0125401336000999
B0946184742795N01226462EA0126601352000999
B0946224742733N01226487EA0127801360000999
B0946264742670N01226516EA0129201376000999
B0946304742616N01226550EA0130201392000999
B0946344742562N01226587EA0131301392000999
B0946384742508N01226633EA0132601408000999
B0946424742454N01226675EA0133801424000999
B0946464742400N01226716EA0135201440000999
B0946504742345N01226754EA0136301448000999
B0946544742291N01226795EA0137501464000999
B0946584742241N01226841EA0138601472000999
B0947024742187N01226891EA0139501480000999
B0947064742141N01226941EA0140401488000999
B0947104742091N01227000EA0141501504000999
B0947144742041N01227058EA0142401512000999
B0947184741995N01227116EA0143301520000999
B0947224741950N01227179EA0144501536000999
B0947264741904N01227241EA0145201544000999
B0947304741858N01227308EA0145801552000999
B0947344741812N01227375EA0147101560000999
B0947384741770N01227445EA0148201576000999
B0947424741729N01227512EA0149101584000999
B0947464741687N01227579EA0149601592000999
B0947504741645N01227654EA0150501600000999
B0947544741604N01227725EA0151401608000999
B0947584741570N01227808EA0151601616000999
B0948024741537N01227900EA0152401624000999
B0948064741516N01227991EA0154001632000999
B0948104741500N01228087EA0155401648000999
B0948144741495N01228183EA0156501664000999
B0948184741495N01228279EA0157301672000999
B0948224741504N01228370EA0158501680000999
B0948264741520N01228470EA0158901688000999
B0948304741537N01228566EA0159601696000999
B0948344741562N01228654EA0160401704000999
B0948384741587N01228741EA0161601720000999
B0948424741616N01228825EA0162701728000999
B0948464741641N01228908EA0163601736000999
B0948504741666N01228995EA0164401744000999
B0948544741695N01229079EA0165601752000999
B0948584741720N01229166EA0166501768000999
B0949024741745N01229250EA0167701776000999
B0949064741766N01229337EA0168501792000999
B0949104741791N01229425EA0169301800000999
B0949144741816N01229512EA0170001808000999
B0949184741841N01229600EA0171001816000999
B0949224741870N01229683EA0172301832000999
B0949264741904N01229762EA0173201840000999
B0949304741941N01229837EA0174101848000999
B0949344741983N01229904EA0175101856000999
B0949384742025N01229970EA0176001864000999
B0949424742070N01230037EA0176901872000999
B0949464742116N01230104EA0177901880000999
B0949504742162N01230170EA0178801896000999
B0949544742204N01230237EA0179801904000999
B0949584742254N01230304EA0180601912000999
B0950024742300N01230366EA0181701920000999
B0950064742350N01230420EA0182501936000999
B0950104742404N01230475EA0183801944000999
B0950144742458N01230520EA0184701952000999
B0950184742512N01230562EA0185501960000999
B0950224742566N01230604EA0186501976000999
B0950264742620N01230641EA0187301984000999
B0950304742679N01230679EA0188301992000999
B0950344742733N01230720EA0189302000000999
B0950384742791N01230762EA0190302008000999
B0950424742845N01230804EA0191202016000999
B0950464742900N01230845EA0192302032000999
B0950504742958N01230887EA0193202040000999
B0950544743012N01230929EA0193802048000999
B0950584743070N01230970EA0195002064000999
B0951024743125N01231008EA0196002072000999
B0951064743183N01231041EA0196802080000999
B0951104743241N01231066EA0197802088000999
B0951144743300N01231091EA0198802104000999
B0951184743362N01231104EA0199902112000999
B0951224743420N01231108EA0200702120000999
B0951264743479N01231100EA0201802136000999
B0951304743533N01231075EA0202802144000999
B0951344743579N01231033EA0204102160000999
B0951384743616N01230987EA0205502168000999
B0951424743650N01230933EA0206502176000999
B0951464743679N01230875EA0207202192000999
B0951504743712N01230816EA0208402200000999
B0951544743737N01230754EA0209202208000999
B0951584743766N01230695EA0210102216000999
B0952024743791N01230633EA0211302232000999
B0952064743812N01230566EA0212202240000999
B0952104743833N01230504EA0213102248000999
B0952144743854N01230437EA0214102256000999
B0952184743875N01230370EA0215302272000999
B0952224743895N01230300EA0216402288000999
B0952264743912N01230233EA0217402296000999
B0952304743929N01230166EA0218502312000999
B0952344743945N01230100EA0219902320000999
B0952384743962N01230033EA0221002328000999
B0952424743975N01229962EA0222402344000999
B0952464743987N01229891EA0223402352000999
B0952504743995N01229812EA0224402360000999
B0952544744000N01229737EA0225502368000999
B0952584744000N01229658EA0227002384000999
B0953024744004N01229583EA0228202392000999
B0953064744008N01229508EA0229202408000999
B0953104744008N01229433EA0230202424000999
B0953144744012N01229358EA0231302432000999
B0953184744016N01229287EA0232702440000999
B0953224744016N01229212EA0233502448000999
B0953264744020N01229137EA0234502464000999
B0953304744020N01229062EA0235402472000999
B0953344744025N01228987EA0236502480000999
B0953384744029N01228912EA0237502496000999
B0953424744037N01228837EA0238602504000999
B0953464744041N01228762EA0239602512000999
B0953504744045N01228687EA0240602528000999
B0953544744050N01228612EA0241102528000999
B0953584744058N01228533EA0242302536000999
B0954024744062N01228458EA0243002552000999
B0954064744066N01228379EA0244002560000999
B0954104744070N01228300EA0244502568000999
B0954144744079N01228220EA0245402576000999
B0954184744087N01228141EA0246102584000999
B0954224744095N01228066EA0247002592000999
B0954264744104N01227987EA0247902608000999
B0954304744116N01227908EA0248702608000999
B0954344744125N01227829EA0249302616000999
B0954384744133N01227750EA0250202624000999
B0954424744137N01227670EA0250902640000999
B0954464744141N01227595EA0251902648000999
B0954504744145N01227516EA0252702656000999
B0954544744145N01227437EA0253402664000999
B0954584744150N01227358EA0254502672000999
B0955024744154N01227283EA0255402680000999
B0955064744162N01227204EA0256102688000999
B0955104744166N01227129EA0255802680000999
B0955144744170N01227050EA0255302680000999
B0955184744170N01226975EA0254902672000999
B0955224744175N01226900EA0254502672000999
B0955264744179N01226825EA0254002664000999
B0955304744179N01226754EA0253702664000999
B0955344744183N01226679EA0253502664000999
B0955384744183N01226608EA0253202656000999
B0955424744183N01226541EA0253102656000724
B0955464744187N01226466EA0251302640000236
B0955504744187N01226383EA0249702624000236
B0955544744191N01226291EA0249002616000036
B0955584744191N01226208EA0249202616000136
B0956024744195N01226133EA0249302624000040
B0956064744195N01226058EA0249102616000040
B0956104744195N01225975EA0248102608000016
B0956144744195N01225891EA0248102608000028
B0956184744195N01225804EA0247902600000020
B0956224744195N01225720EA0247802600000016
B0956264744200N01225637EA0247502600000016
B0956304744200N01225554EA0247302600000016
B0956344744204N01225470EA0246802592000016
B0956384744208N01225383EA0246302584000016
B0956424744208N01225295EA0246002584000016
B0956464744208N01225212EA0245902576000016
B0956504744212N01225125EA0245802576000016
B0956544744216N01225041EA0245302576000016
B0956584744216N01224958EA0244902568000016
B0957024744220N01224875EA0244602568000016
B0957064744220N01224791EA0244402568000016
B0957104744220N01224708EA0244102560000016
B0957144744220N01224629EA0243902560000016
B0957184744220N01224550EA0243702560000016
B0957224744216N01224470EA0243202552000016
B0957264744212N01224387EA0242902552000016
B0957304744208N01224308EA0242702544000016
B0957344744204N01224225EA0242302544000016
B0957384744200N01224145EA0242202544000016
B0957424744195N01224066EA0242102544000016
B0957464744191N01223987EA0241702536000016
B0957504744183N01223912EA0241602536000016
B0957544744175N01223833EA0241302536000016
B0957584744170N01223754EA0241002528000016
B0958024744162N01223679EA0240402520000016
B0958064744158N01223595EA0240002520000016
B0958104744150N01223516EA0239502512000016
B0958144744145N01223437EA0239502512000016
B0958184744141N01223362EA0239102512000016
B0958224744137N01223283EA0238602504000016
B0958264744133N01223208EA0238102504000016
B0958304744125N01223133EA0237902496000016
B0958344744120N01223058EA0237502496000016
B0958384744116N01222983EA0237102488000016
B0958424744112N01222908EA0236502488000016
B0958464744108N01222833EA0236302480000016
B0958504744104N01222758EA0235502472000020
B0958544744100N01222683EA0235002472000016
B0958584744095N01222608EA0234802464000016
B0959024744087N01222533EA0234202456000016
B0959064744079N01222458EA0233702456000016
B0959104744066N01222383EA0233402448000016
B0959144744058N01222308EA0233202448000016
B0959184744054N01222233EA0232702440000016
B0959224744050N01222158EA0232002440000016
B0959264744050N01222083EA0231702432000016
B0959304744045N01222008EA0231202432000016
B0959344744041N01221933EA0231002424000016
B0959384744033N01221858EA0230302424000016
B0959424744020N01221783EA0230202416000016
B0959464744004N01221712EA0229802416000016
B0959504743991N01221641EA0229802416000016
B0959544743975N01221570EA0229502416000020
B0959584743958N01221495EA0229502408000016
B1000024743941N01221425EA0229502408000020
B1000064743925N01221350EA0229102408000020
B1000104743904N01221279EA0229002408000020
B1000144743887N01221208EA0229102408000020
B1000184743870N01221137EA0229102408000016
B1000224743854N01221062EA0229002408000016
B1000264743837N01220991EA0229102408000016
B1000304743820N01220920EA0229102408000016
B1000344743804N01220845EA0229102408000020
B1000384743787N01220779EA0229202416000016
B1000424743770N01220712EA0229402416000016
B1000464743754N01220641EA0229502416000016
B1000504743733N01220570EA0229502416000016
B1000544743712N01220500EA0229602416000016
B1000584743691N01220433EA0229702416000020
B1001024743670N01220366EA0229702416000016
B1001064743641N01220295EA0229702416000016
B1001104743616N01220229EA0229702416000016
B1001144743591N01220162EA0229802416000016
B1001184743566N01220095EA0229802416000016
B1001224743541N01220025EA0229502416000020
B1001264743516N01219958EA0229502416000016
B1001304743487N01219887EA0229302408000016
B1001344743458N01219820EA0229302408000016
B1001384743429N01219754EA0229002408000016
B1001424743404N01219683EA0228602400000016
B1001464743375N01219616EA0228402400000016
B1001504743350N01219550EA0227902400000016
B1001544743320N01219483EA0227602392000016
B1001584743295N01219416EA0226802384000016
B1002024743270N01219345EA0226302376000020
B1002064743241N01219270EA0225302368000016
B1002104743216N01219195EA0224602360000016
B1002144743187N01219120EA0224402360000016
B1002184743170N01219041EA0223302352000020
B1002224743158N01218954EA0222802344000016
B1002264743150N01218866EA0221902336000016
B1002304743145N01218775EA0221402328000016
B1002344743145N01218683EA0220602320000016
B1002384743145N01218587EA0219702312000016
B1002424743141N01218491EA0219702312000020
B1002464743141N01218400EA0219702312000016
B1002504743150N01218312EA0219702312000020
B1002544743162N01218220EA0218902304000020
B1002584743183N01218129EA0218702296000020
B1003024743204N01218041EA0218502296000020
B1003064743225N01217950EA0218702304000020
B1003104743245N01217866EA0219002304000020
B1003144743270N01217783EA0219502312000020
B1003184743287N01217700EA0220002320000020
B1003224743304N01217625EA0220302320000020
B1003264743320N01217550EA0220502320000020
B1003304743333N01217475EA0220302320000016
B1003344743341N01217395EA0220302320000016
B1003384743345N01217320EA0219702312000016
B1003424743345N01217241EA0218702304000016
B1003464743350N01217158EA0218702296000020
B1003504743354N01217083EA0218002288000016
B1003544743362N01217000EA0216702280000020
B1003584743370N01216920EA0215702272000020
B1004024743383N01216841EA0214702264000016
B1004064743391N01216758EA0213402248000016
B1004104743404N01216670EA0212002232000016
B1004144743416N01216583EA0211002224000016
B1004184743425N01216487EA0210102216000016
B1004224743433N01216391EA0209402208000016
B1004264743441N01216295EA0208602200000016
B1004304743450N01216195EA0208702200000016
B1004344743462N01216095EA0209902208000020
B1004384743487N01216016EA0210302216000016
B1004424743545N01215970EA0210102216000024
B1004464743612N01215983EA0210102208000024
B1004504743666N01216058EA0210802216000024
B1004544743687N01216166EA0210902216000024
B1004584743666N01216279EA0210702216000024
B1005024743604N01216358EA0210502216000024
B1005064743529N01216395EA0211002216000020
B1005104743458N01216362EA0210902216000024
B1005144743412N01216283EA0210702216000020
B1005184743375N01216208EA0212002232000020
B1005224743341N01216129EA0211402224000024
B1005264743304N01216041EA0211402224000024
B1005304743270N01215958EA0211702224000024
B1005344743237N01215879EA0212202232000024
B1005384743200N01215808EA0212202232000020
B1005424743166N01215733EA0212002232000024
B1005464743125N01215658EA0211002224000020
B1005504743087N01215583EA0210902216000020
B1005544743050N01215504EA0210902216000020
B1005584743016N01215429EA0210902216000020
B1006024742987N01215354EA0211002224000020
B1006064742958N01215279EA0211002224000020
B1006104742933N01215204EA0210902224000020
B1006144742908N01215133EA0211102224000020
B1006184742883N01215066EA0211102224000016
B1006224742854N01214995EA0210902216000016
B1006264742829N01214920EA0210702216000016
B1006304742804N01214850EA0210502216000016
B1006344742783N01214779EA0210402216000016
B1006384742758N01214708EA0210402208000016
B1006424742741N01214637EA0209902208000016
B1006464742720N01214562EA0209902208000016
B1006504742704N01214491EA0209902208000016
B1006544742683N01214420EA0209402200000016
B1006584742662N01214350EA0208802200000016
B1007024742637N01214275EA0208402192000016
B1007064742612N01214200EA0208002192000016
B1007104742583N01214125EA0207802184000016
B1007144742554N01214050EA0207602184000016
B1007184742525N01213975EA0207602184000016
B1007224742495N01213904EA0207202176000016
B1007264742470N01213829EA0206902176000016
B1007304742441N01213754EA0206402168000016
B1007344742408N01213679EA0206102168000016
B1007384742379N01213600EA0205402160000016
B1007424742354N01213520EA0205202160000016
B1007464742329N01213445EA0205102160000016
B1007504742312N01213362EA0204802152000016
B1007544742291N01213283EA0204402152000016
B1007584742270N01213204EA0204002144000016
B1008024742250N01213125EA0203802144000016
B1008064742229N01213045EA0203702144000016
B1008104742208N01212970EA0203302144000020
B1008144742183N01212895EA0202802136000016
B1008184742162N01212820EA0202802128000016
B1008224742137N01212741EA0202302128000016
B1008264742116N01212662EA0201802120000016
B1008304742091N01212587EA0201302120000016
B1008344742066N01212508EA0201002120000016
B1008384742041N01212433EA0201002120000016
B1008424742016N01212358EA0200702112000016
B1008464741991N01212283EA0200302104000016
B1008504741966N01212208EA0200002104000016
B1008544741941N01212137EA0199802104000016
B1008584741920N01212062EA0199302096000016
B1009024741895N01211983EA0198702088000016
B1009064741870N01211904EA0198302088000016
B1009104741850N01211829EA0198202080000016
B1009144741825N01211750EA0197402080000016
B1009184741800N01211670EA0197202072000016
B1009224741779N01211591EA0196702072000020
B1009264741758N01211516EA0196702072000016
B1009304741737N01211437EA0196302064000020
B1009344741716N01211358EA0195402064000020
B1009384741695N01211279EA0195302056000020
B1009424741670N01211200EA0194702056000020
B1009464741645N01211120EA0194402048000016
B1009504741620N01211045EA0194402048000016
B1009544741595N01210966EA0194202048000024
B1009584741575N01210887EA0194102040000020
B1010024741550N01210808EA0193902040000024
B1010064741529N01210729EA0193902040000024
B1010104741504N01210654EA0193802040000024
B1010144741479N01210575EA0193802048000024
B1010184741454N01210495EA0194002048000028
B1010224741433N01210416EA0194002040000024
B1010264741408N01210337EA0194002040000020
B1010304741383N01210258EA0193902040000024
B1010344741358N01210179EA0193902040000016
B1010384741333N01210100EA0193802040000016
B1010424741308N01210020EA0193702040000016
B1010464741283N01209945EA0193602040000016
B1010504741258N01209870EA0193402040000016
B1010544741233N01209795EA0193202032000016
B1010584741208N01209720EA0193202032000016
B1011024741183N01209645EA0192702032000016
B1011064741158N01209566EA0192702032000016
B1011104741133N01209491EA0192602024000016
B1011144741112N01209412EA0192402024000016
B1011184741091N01209337EA0192102024000016
B1011224741070N01209258EA0192102024000016
B1011264741054N01209183EA0191902024000016
B1011304741033N01209104EA0191802024000016
B1011344741016N01209029EA0191602016000016
B1011384741000N01208950EA0191302016000016
B1011424740987N01208870EA0190902008000016
B1011464740970N01208795EA0190802008000016
B1011504740958N01208716EA0190702008000016
B1011544740945N01208637EA0190302008000016
B1011584740933N01208558EA0190102000000016
B1012024740920N01208479EA0189602000000016
B1012064740900N01208400EA0189301992000016
B1012104740879N01208320EA0189201992000016
B1012144740858N01208245EA0189101992000016
B1012184740833N01208166EA0188601992000016
B1012224740812N01208087EA0188601984000016
B1012264740791N01208008EA0188101984000016
B1012304740770N01207929EA0187801976000016
B1012344740758N01207841EA0187301976000016
B1012384740750N01207754EA0187101976000016
B1012424740741N01207670EA0186701968000016
B1012464740741N01207587EA0186601968000016
B1012504740737N01207504EA0186101960000016
B1012544740737N01207416EA0185601960000016
B1012584740733N01207333EA0185301952000016
B1013024740729N01207250EA0185201952000016
B1013064740725N01207166EA0184701952000016
B1013104740716N01207083EA0184601944000016
B1013144740708N01207000EA0184601944000000
B1013184740700N01206920EA0184601944000008
B1013224740691N01206841EA0184401944000028
B1013264740683N01206758EA0184301944000016
B1013304740679N01206675EA0184301944000016
B1013344740679N01206595EA0184401944000024
B1013384740675N01206512EA0184401944000016
B1013424740675N01206433EA0184401944000016
B1013464740670N01206350EA0184401944000016
B1013504740666N01206270EA0184501952000016
B1013544740662N01206187EA0184701952000016
B1013584740658N01206108EA0184601944000016
B1014024740650N01206025EA0184301944000016
B1014064740641N01205945EA0184301936000016
B1014104740633N01205862EA0184201936000016
B1014144740625N01205783EA0184101936000016
B1014184740616N01205700EA0183801936000016
B1014224740604N01205620EA0183401928000016
B1014264740595N01205537EA0183101928000016
B1014304740583N01205458EA0183101928000016
B1014344740570N01205379EA0182801928000016
B1014384740558N01205295EA0182601920000016
B1014424740545N01205216EA0182101920000016
B1014464740533N01205133EA0181701912000016
B1014504740520N01205050EA0180401904000016
B1014544740504N01204962EA0179701896000016
B1014584740491N01204870EA0179201888000016
B1015024740483N01204779EA0178501880000016
B1015064740470N01204687EA0177801872000016
B1015104740458N01204595EA0177801872000016
B1015144740445N01204500EA0177401864000020
B1015184740429N01204408EA0177201864000016
B1015224740412N01204312EA0176901864000020
B1015264740387N01204220EA0177101864000020
B1015304740362N01204125EA0177401872000020
B1015344740337N01204029EA0178301880000020
B1015384740308N01203937EA0178001880000020
B1015424740275N01203841EA0177801872000020
B1015464740254N01203745EA0178601880000020
B1015504740229N01203650EA0178301880000020
B1015544740208N01203558EA0177801872000020
B1015584740183N01203462EA0177501872000020
B1016024740162N01203370EA0177501872000020
B1016064740141N01203283EA0176701864000020
B1016104740120N01203195EA0175901856000020
B1016144740100N01203104EA0175001848000020
B1016184740079N01203008EA0174301840000016
B1016224740058N01202908EA0173601832000016
B1016264740029N01202816EA0173601832000020
B1016304740000N01202725EA0173901840000016
B1016344739966N01202633EA0174101840000020
B1016384739929N01202545EA0175101848000020
B1016424739879N01202487EA0175501856000020
B1016464739816N01202504EA0176401856000020
B1016504739770N01202579EA0176601864000024
B1016544739779N01202679EA0177401864000024
B1016584739829N01202737EA0176701864000020
B1017024739891N01202716EA0175501856000024
B1017064739912N01202629EA0175401848000020
B1017104739908N01202533EA0175401856000020
B1017144739875N01202454EA0176101856000020
B1017184739825N01202408EA0176101856000020
B1017224739758N01202400EA0175901856000020
B1017264739691N01202416EA0175901856000020
B1017304739620N01202445EA0175201848000016
B1017344739550N01202479EA0175001848000016
B1017384739479N01202512EA0175001848000020
B1017424739412N01202554EA0174501840000016
B1017464739345N01202595EA0174301832000020
B1017504739283N01202645EA0173401832000020
B1017544739220N01202704EA0173101824000020
B1017584739166N01202770EA0172601824000020
B1018024739116N01202845EA0172401816000020
B1018064739070N01202929EA0172601816000020
B1018104739029N01203016EA0172601816000016
B1018144738995N01203108EA0172601824000016
B1018184738975N01203212EA0172301816000016
B1018224738958N01203316EA0171001808000016
B1018264738925N01203420EA0169701792000020
B1018304738870N01203508EA0168901784000016
B1018344738800N01203579EA0168201776000020
B1018384738716N01203608EA0168101768000020
B1018424738629N01203583EA0167801768000024
B1018464738554N01203520EA0167701768000024
B1018504738491N01203445EA0167401760000028
B1018544738433N01203366EA0167001760000024
B1018584738379N01203287EA0166701760000024
B1019024738320N01203216EA0166201752000024
B1019064738262N01203141EA0165701744000020
B1019104738204N01203062EA0165401744000024
B1019144738154N01202970EA0165401744000024
B1019184738116N01202870EA0164801736000024
B1019224738079N01202766EA0164601736000028
B1019264738054N01202654EA0164701736000024
B1019304738025N01202550EA0165701752000028
B1019344737966N01202491EA0165601744000028
B1019384737900N01202516EA0164301736000024
B1019424737866N01202604EA0164001728000024
B1019464737879N01202708EA0163201728000024
B1019504737920N01202800EA0163601728000024
B1019544737979N01202870EA0164701736000024
B1019584738050N01202858EA0166201752000024
B1020024738079N01202766EA0166201752000024
B1020064738037N01202670EA0166201752000024
B1020104737962N01202658EA0166201752000024
B1020144737916N01202729EA0167301768000024
B1020184737925N01202820EA0168501776000028
B1020224737979N01202875EA0168701784000024
B1020264738045N01202850EA0169601784000024
B1020304738070N01202754EA0170201800000024
B1020344738029N01202662EA0170401800000020
B1020384737954N01202645EA0170001792000024
B1020424737904N01202712EA0171001808000024
B1020464737904N01202804EA0171701808000024
B1020504737954N01202870EA0172301816000024
B1020544738020N01202862EA0172701816000024
B1020584738054N01202775EA0174601832000020
B1021024738037N01202679EA0174601840000024
B1021064737979N01202625EA0174301840000024
B1021104737916N01202658EA0174601840000024
B1021144737883N01202745EA0174801840000024
B1021184737900N01202837EA0174801840000024
B1021224737954N01202895EA0174901840000024
B1021264738020N01202862EA0176001856000024
B1021304738045N01202766EA0177101864000024
B1021344738012N01202683EA0178301880000024
B1021384737950N01202670EA0177701872000024
B1021424737900N01202737EA0177001864000024
B1021464737904N01202837EA0177401872000020
B1021504737950N01202904EA0177401872000024
B1021544738016N01202929EA0178801880000024
B1021584738079N01202908EA0179801896000024
B1022024738120N01202829EA0179601896000028
B1022064738116N01202725EA0180301904000024
B1022104738058N01202675EA0180801904000024
B1022144738000N01202704EA0181301912000024
B1022184737970N01202795EA0180401904000024
B1022224737995N01202891EA0181301912000024
B1022264738058N01202937EA0181801912000024
B1022304738120N01202900EA0182401920000024
B1022344738145N01202804EA0182401920000028
B1022384738120N01202716EA0182601928000024
B1022424738062N01202670EA0182701928000024
B1022464738000N01202700EA0183001936000024
B1022504737958N01202779EA0183001928000024
B1022544737970N01202879EA0183201936000024
B1022584738012N01202954EA0183801936000024
B1023024738079N01202979EA0183801936000024
B1023064738141N01202929EA0184401944000024
B1023104738162N01202837EA0184501944000024
B1023144738137N01202758EA0184901952000020
B1023184738079N01202725EA0184901952000024
B1023224738016N01202758EA0185001952000024
B1023264737983N01202845EA0185201952000024
B1023304737991N01202950EA0185701960000020
B1023344738033N01203029EA0186401968000024
B1023384738095N01203050EA0186501968000024
B1023424738154N01203008EA0186201968000024
B1023464738187N01202920EA0185901960000020
B1023504738175N01202820EA0186001968000024
B1023544738125N01202758EA0186501968000020
B1023584738058N01202766EA0187701976000020
B1024024738016N01202841EA0187101976000020
B1024064738029N01202941EA0187701984000020
B1024104738087N01202987EA0188001984000024
B1024144738154N01202987EA0188001984000024
B1024184738220N01202987EA0188001984000020
B1024224738291N01202987EA0188001984000024
B1024264738354N01202987EA0187701976000020
B1024304738420N01202979EA0186901968000020
B1024344738491N01202966EA0186101960000020
B1024384738562N01202945EA0185701960000020
B1024424738629N01202912EA0186001960000020
B1024464738695N01202883EA0185901960000020
B1024504738762N01202920EA0185801960000024
B1024544738779N01203025EA0185201952000024
B1024584738737N01203116EA0185101952000020
B1025024738662N01203137EA0185301952000024
B1025064738595N01203087EA0185701960000024
B1025104738554N01203000EA0186201968000024
B1025144738545N01202895EA0186401968000024
B1025184738537N01202791EA0186401968000024
B1025224738500N01202708EA0186401968000024
B1025264738433N01202695EA0186501968000024
B1025304738387N01202766EA0186501968000020
B1025344738387N01202870EA0186501968000024
B1025384738433N01202941EA0186501968000024
B1025424738500N01202954EA0186501968000024
B1025464738558N01202908EA0186501968000020
B1025504738608N01202837EA0186501968000024
B1025544738641N01202750EA0187001976000020
B1025584738662N01202654EA0187301976000020
B1026024738670N01202554EA0188401984000020
B1026064738658N01202458EA0189001992000020
B1026104738612N01202404EA0190302008000020
B1026144738554N01202429EA0190402008000020
B1026184738520N01202520EA0189602000000024
B1026224738550N01202616EA0189902000000024
B1026264738612N01202658EA0190402008000020
B1026304738683N01202629EA0191202016000024
B1026344738720N01202550EA0192502032000024
B1026384738708N01202458EA0193202040000024
B1026424738654N01202420EA0193502040000024
B1026464738595N01202470EA0193802040000024
B1026504738579N01202570EA0193902040000020
B1026544738616N01202654EA0195002056000024
B1026584738683N01202679EA0195302056000024
B1027024738741N01202633EA0195802064000024
B1027064738770N01202550EA0195702064000024
B1027104738770N01202454EA0196302064000024
B1027144738729N01202383EA0197902080000020
B1027184738670N01202366EA0198802096000024
B1027224738612N01202420EA0199402104000024
B1027264738591N01202525EA0199902104000024
B1027304738629N01202612EA0201402120000024
B1027344738695N01202629EA0202402128000024
B1027384738754N01202570EA0203002136000024
B1027424738766N01202483EA0203602144000024
B1027464738733N01202412EA0204902160000024
B1027504738670N01202400EA0204302152000024
B1027544738612N01202458EA0204902160000020
B1027584738591N01202566EA0206002168000024
B1028024738620N01202662EA0207202184000024
B1028064738683N01202704EA0207202184000024
B1028104738750N01202679EA0207402184000024
B1028144738791N01202595EA0207602184000024
B1028184738775N01202500EA0208602192000024
B1028224738720N01202462EA0209102200000024
B1028264738658N01202491EA0209102200000024
B1028304738612N01202579EA0209602208000024
B1028344738604N01202691EA0211002216000020
B1028384738641N01202783EA0211702224000024
B1028424738708N01202812EA0212002232000024
B1028464738766N01202770EA0212002232000024
B1028504738795N01202687EA0211402224000020
B1028544738795N01202595EA0211702232000024
B1028584738762N01202516EA0212502240000020
B1029024738708N01202479EA0213102240000020
B1029064738641N01202508EA0213102240000024
B1029104738587N01202591EA0213102240000024
B1029144738562N01202695EA0214502256000024
B1029184738566N01202804EA0215302264000024
B1029224738608N01202891EA0215802272000024
B1029264738675N01202920EA0216202272000024
B1029304738737N01202879EA0216002272000020
B1029344738762N01202795EA0215502264000024
B1029384738766N01202700EA0215302264000020
B1029424738762N01202608EA0215702272000020
B1029464738741N01202520EA0216202272000020
B1029504738687N01202479EA0218102288000020
B1029544738629N01202512EA0217802296000020
B1029584738591N01202608EA0217302288000020
B1030024738600N01202720EA0217902288000020
B1030064738645N01202804EA0218302296000020
B1030104738712N01202837EA0218302296000024
B1030144738775N01202804EA0217702288000024
B1030184738812N01202720EA0217502288000024
B1030224738808N01202620EA0218302296000024
B1030264738775N01202554EA0219502304000020
B1030304738716N01202537EA0220302312000024
B1030344738654N01202583EA0220302312000020
B1030384738612N01202670EA0220702320000020
B1030424738600N01202779EA0221302320000020
B1030464738616N01202883EA0220902320000020
B1030504738670N01202958EA0221002320000020
B1030544738737N01202983EA0220802320000020
B1030584738800N01202958EA0220302312000020
B1031024738845N01202887EA0219802312000020
B1031064738850N01202795EA0219902312000020
B1031104738829N01202708EA0220302320000020
B1031144738800N01202633EA0221302320000020
B1031184738762N01202562EA0221402328000020
B1031224738712N01202495EA0221402328000020
B1031264738654N01202437EA0221502328000020
B1031304738587N01202445EA0223602352000020
B1031344738533N01202516EA0224002360000020
B1031384738516N01202620EA0224002360000024
B1031424738545N01202720EA0224502360000024
B1031464738604N01202770EA0224402360000020
B1031504738666N01202758EA0224002360000024
B1031544738716N01202708EA0223702360000020
B1031584738741N01202625EA0223402344000020
B1032024738758N01202533EA0223402352000020
B1032064738770N01202441EA0222902344000020
B1032104738783N01202341EA0222702344000024
B1032144738795N01202237EA0222702344000024
B1032184738808N01202133EA0222402344000020
B1032224738820N01202020EA0222302344000024
B1032264738833N01201912EA0222302344000024
B1032304738841N01201804EA0221902336000024
B1032344738850N01201695EA0221102328000020
B1032384738858N01201579EA0220102320000024
B1032424738862N01201462EA0219502312000020
B1032464738866N01201345EA0219102304000020
B1032504738875N01201233EA0218002296000028
B1032544738883N01201116EA0217702296000024
B1032584738895N01201004EA0217502288000028
B1033024738908N01200891EA0217102288000028
B1033064738920N01200783EA0216802280000028
B1033104738937N01200675EA0216102280000028
B1033144738950N01200566EA0215702272000024
B1033184738962N01200458EA0215002264000024
B1033224738970N01200350EA0214202256000024
B1033264738975N01200233EA0213402248000024
B1033304738979N01200120EA0213002240000024
B1033344738975N01200008EA0212702240000024
B1033384738979N01159895EA0212102232000028
B1033424738983N01159783EA0212102232000024
B1033464738987N01159670EA0211502232000024
B1033504738991N01159558EA0211602232000024
B1033544738995N01159454EA0212002232000024
B1033584739000N01159354EA0212102232000024
B1034024739012N01159250EA0212002232000024
B1034064739020N01159145EA0212502240000024
B1034104739029N01159045EA0212702240000020
B1034144739041N01158945EA0213102248000024
B1034184739050N01158845EA0213102248000020
B1034224739054N01158750EA0213102240000020
B1034264739058N01158654EA0213002240000020
B1034304739066N01158558EA0212402240000020
B1034344739075N01158458EA0212002232000020
B1034384739087N01158362EA0211402224000020
B1034424739095N01158262EA0210902224000020
B1034464739100N01158162EA0210702216000020
B1034504739108N01158058EA0209602208000020
B1034544739116N01157954EA0209502208000020
B1034584739120N01157854EA0208802200000024
B1035024739120N01157754EA0208002192000024
B1035064739120N01157645EA0208102192000024
B1035104739116N01157541EA0207902192000024
B1035144739112N01157433EA0207402184000024
B1035184739104N01157325EA0207102184000024
B1035224739095N01157216EA0206902184000024
B1035264739091N01157108EA0206902184000024
B1035304739083N01157004EA0206902176000024
B1035344739075N01156895EA0206602176000024
B1035384739066N01156787EA0206102176000024
B1035424739058N01156679EA0205902168000024
B1035464739054N01156575EA0206202176000024
B1035504739054N01156470EA0207502184000024
B1035544739066N01156362EA0207802192000028
B1035584739116N01156291EA0208602200000024
B1036024739195N01156270EA0207802192000024
B1036064739266N01156329EA0207802192000024
B1036104739295N01156437EA0207802192000028
B1036144739275N01156541EA0207802192000024
B1036184739212N01156608EA0207102184000024
B1036224739133N01156616EA0207502184000024
B1036264739070N01156575EA0208202192000024
B1036304739029N01156500EA0210502216000024
B1036344739008N01156412EA0210502216000024
B1036384739045N01156320EA0212002232000024
B1036424739116N01156279EA0211702232000024
B1036464739195N01156320EA0211702232000024
B1036504739229N01156429EA0211502224000028
B1036544739216N01156545EA0211402224000024
B1036584739158N01156616EA0211402224000024
B1037024739079N01156637EA0211602224000024
B1037064739012N01156608EA0213502248000020
B1037104738975N01156533EA0214102256000024
B1037144739012N01156445EA0214302264000028
B1037184739087N01156450EA0215102264000024
B1037224739129N01156545EA0215802272000024
B1037264739108N01156650EA0216102280000024
B1037304739041N01156679EA0216402280000024
B1037344738991N01156620EA0216602280000024
B1037384739008N01156525EA0217202288000028
B1037424739070N01156483EA0217902296000024
B1037464739141N01156495EA0217602288000028
B1037504739200N01156579EA0217002288000028
B1037544739220N01156695EA0216702280000024
B1037584739175N01156787EA0216702280000024
B1038024739100N01156816EA0217402288000024
B1038064739033N01156808EA0219702312000024
B1038104738975N01156779EA0219602312000024
B1038144738954N01156695EA0218202304000024
B1038184738991N01156612EA0217602288000028
B1038224739062N01156600EA0218302304000024
B1038264739125N01156670EA0218302296000028
B1038304739150N01156783EA0218302304000028
B1038344739120N01156895EA0218302296000028
B1038384739058N01156945EA0218302304000028
B1038424738991N01156945EA0219702312000028
B1038464738929N01156920EA0220702320000028
B1038504738879N01156879EA0220702320000024
B1038544738854N01156795EA0220802328000024
B1038584738875N01156704EA0220802320000020
B1039024738937N01156654EA0221002328000024
B1039064739008N01156675EA0221002328000024
B1039104739066N01156754EA0221502328000024
B1039144739120N01156845EA0222002336000020
B1039184739187N01156900EA0222002336000024
B1039224739258N01156870EA0222302336000024
B1039264739287N01156779EA0222802344000024
B1039304739266N01156695EA0222202336000024
B1039344739212N01156654EA0221402328000024
B1039384739145N01156675EA0221102328000024
B1039424739079N01156712EA0221902336000024
B1039464739012N01156754EA0221902336000020
B1039504738950N01156808EA0222002336000024
B1039544738887N01156866EA0221102320000020
B1039584738825N01156929EA0220702320000020
B1040024738762N01156991EA0220102312000020
B1040064738695N01157062EA0219402304000020
B1040104738645N01157158EA0220702312000020
B1040144738625N01157279EA0220802320000020
B1040184738654N01157395EA0222002328000024
B1040224738712N01157466EA0222402336000024
B1040264738783N01157462EA0222802344000020
B1040304738829N01157391EA0222902344000024
B1040344738825N01157304EA0223102344000020
B1040384738770N01157262EA0223502352000020
B1040424738708N01157295EA0222902344000024
B1040464738683N01157416EA0223802344000024
B1040504738733N01157512EA0224502360000024
B1040544738808N01157512EA0224902368000024
B1040584738845N01157433EA0225002368000024
B1041024738812N01157366EA0226002376000024
B1041064738750N01157383EA0226302376000024
B1041104738704N01157479EA0224902368000024
B1041144738708N01157612EA0225702376000020
B1041184738766N01157700EA0227002384000024
B1041224738841N01157704EA0227702392000024
B1041264738891N01157637EA0227102384000024
B1041304738904N01157545EA0226902384000020
B1041344738875N01157470EA0227302392000024
B1041384738829N01157408EA0226402384000024
B1041424738762N01157408EA0226302376000024
B1041464738704N01157483EA0226502384000024
B1041504738679N01157600EA0226302376000024
B1041544738704N01157716EA0227102384000024
B1041584738758N01157791EA0227702392000024
B1042024738829N01157816EA0226902384000020
B1042064738895N01157783EA0227502392000024
B1042104738945N01157720EA0227602392000020
B1042144738983N01157645EA0227102384000020
B1042184739016N01157566EA0227102392000020
B1042224739045N01157495EA0226802384000020
B1042264739079N01157420EA0226302376000020
B1042304739108N01157345EA0224602368000020
B1042344739145N01157266EA0223202352000016
B1042384739170N01157183EA0223002344000016
B1042424739179N01157095EA0223002344000016
B1042464739179N01157008EA0224002352000016
B1042504739154N01156925EA0224002360000020
B1042544739100N01156904EA0225002368000016
B1042584739045N01156954EA0223802352000024
B1043024739025N01157070EA0223502352000024
B1043064739062N01157170EA0224402360000024
B1043104739129N01157204EA0223702352000024
B1043144739191N01157166EA0223802352000024
B1043184739237N01157095EA0225002368000024
B1043224739254N01157012EA0224402360000024
B1043264739216N01156945EA0224502368000024
B1043304739158N01156954EA0224902368000024
B1043344739112N01157037EA0224902360000024
B1043384739125N01157150EA0224902360000028
B1043424739187N01157220EA0226002368000024
B1043464739258N01157216EA0227302392000024
B1043504739304N01157154EA0227402392000024
B1043544739295N01157070EA0226602376000024
B1043584739245N01157033EA0226702384000024
B1044024739191N01157075EA0228002400000024
B1044064739170N01157175EA0227702392000024
B1044104739208N01157275EA0228602400000024
B1044144739279N01157312EA0229102408000024
B1044184739345N01157279EA0229402416000024
B1044224739383N01157208EA0229002408000024
B1044264739387N01157120EA0228902408000024
B1044304739358N01157058EA0228702408000024
B1044344739304N01157045EA0228602400000024
B1044384739250N01157095EA0228002400000024
B1044424739220N01157200EA0228102400000024
B1044464739237N01157308EA0228902408000024
B1044504739283N01157395EA0229202408000024
B1044544739350N01157433EA0229402416000024
B1044584739416N01157404EA0229402408000020
B1045024739458N01157337EA0228202400000024
B1045064739479N01157250EA0226402384000020
B1045104739475N01157150EA0225802376000020
B1045144739462N01157062EA0226202376000020
B1045184739450N01156979EA0226202376000020
B1045224739429N01156891EA0225302376000024
B1045264739404N01156804EA0224002360000024
B1045304739383N01156708EA0223702352000020
B1045344739362N01156616EA0223502352000024
B1045384739341N01156525EA0223402352000020
B1045424739316N01156433EA0223302344000020
B1045464739295N01156333EA0223002344000020
B1045504739279N01156229EA0223102344000020
B1045544739270N01156125EA0223302352000020
B1045584739254N01156020EA0223802360000020
B1046024739241N01155916EA0223802352000020
B1046064739225N01155820EA0224402360000020
B1046104739208N01155729EA0223002344000024
B1046144739191N01155633EA0221902336000024
B1046184739170N01155533EA0221702328000016
B1046224739154N01155433EA0221402328000020
B1046264739133N01155333EA0221402328000020
B1046304739116N01155237EA0220902328000016
B1046344739095N01155133EA0221502328000020
B1046384739070N01155029EA0221902336000020
B1046424739079N01154929EA0222002336000020
B1046464739133N01154870EA0222002336000020
B1046504739208N01154895EA0221702328000024
B1046544739250N01154991EA0221702328000024
B1046584739245N01155095EA0221702328000020
B1047024739204N01155183EA0220702320000024
B1047064739150N01155254EA0221302328000020
B1047104739095N01155320EA0222402336000020
B1047144739025N01155358EA0220402320000016
B1047184738954N01155308EA0220002312000016
B1047224738958N01155208EA0221502328000020
B1047264739016N01155158EA0221502328000016
B1047304739087N01155187EA0219802320000024
B1047344739116N01155304EA0220302312000024
B1047384739104N01155420EA0222302336000020
B1047424739070N01155520EA0222802344000024
B1047464739020N01155604EA0223102344000024
B1047504738962N01155679EA0223502352000024
B1047544738895N01155741EA0224502360000020
B1047584738833N01155800EA0223702352000024
B1048024738762N01155858EA0222802344000024
B1048064738691N01155920EA0222802336000024
B1048104738625N01155991EA0222402336000020
B1048144738554N01156054EA0222402336000024
B1048184738487N01156116EA0222202336000024
B1048224738420N01156179EA0221702328000024
B1048264738345N01156225EA0220902320000020
B1048304738262N01156270EA0220302312000024
B1048344738179N01156304EA0220302312000020
B1048384738100N01156325EA0221502320000020
B1048424738025N01156337EA0222002336000028
B1048464737954N01156341EA0222402336000024
B1048504737883N01156337EA0223002344000024
B1048544737816N01156329EA0223102344000024
B1048584737750N01156316EA0223102344000020
B1049024737683N01156295EA0223002344000024
B1049064737616N01156279EA0223302344000020
B1049104737550N01156262EA0224002352000020
B1049144737483N01156245EA0224702368000020
B1049184737420N01156229EA0225102368000020
B1049224737358N01156204EA0225502376000016
B1049264737291N01156179EA0225802376000016
B1049304737220N01156150EA0226202376000016
B1049344737150N01156116EA0226502384000016
B1049384737083N01156075EA0226702384000020
B1049424737016N01156029EA0227302392000016
B1049464736950N01155979EA0227302392000020
B1049504736891N01155929EA0227302392000020
B1049544736829N01155883EA0227102392000020
B1049584736770N01155833EA0226902392000020
B1050024736708N01155787EA0226902392000020
B1050064736650N01155737EA0227002384000020
B1050104736591N01155683EA0227502392000020
B1050144736537N01155629EA0227702400000020
B1050184736479N01155575EA0227702392000016
B1050224736420N01155508EA0227502392000016
B1050264736370N01155441EA0226902384000020
B1050304736320N01155370EA0226402384000016
B1050344736270N01155304EA0225502376000024
B1050384736216N01155237EA0225102368000024
B1050424736166N01155170EA0224902368000020
B1050464736116N01155100EA0224802368000024
B1050504736070N01155025EA0224802368000020
B1050544736020N01154950EA0224802368000020
B1050584735979N01154879EA0225002368000020
B1051024735933N01154808EA0225602376000020
B1051064735891N01154745EA0225702376000016
B1051104735845N01154683EA0225702376000016
B1051144735804N01154616EA0224902368000020
B1051184735762N01154545EA0224402360000016
B1051224735720N01154475EA0224402368000016
B1051264735683N01154400EA0224002360000016
B1051304735641N01154329EA0223002352000020
B1051344735595N01154258EA0222702344000016
B1051384735554N01154179EA0221902336000020
B1051424735512N01154100EA0221902336000020
B1051464735470N01154025EA0221702336000016
B1051504735437N01153945EA0220902328000016
B1051544735395N01153862EA0220102320000016
B1051584735358N01153775EA0219602312000016
B1052024735320N01153691EA0219102304000016
B1052064735287N01153600EA0217602288000016
B1052104735258N01153500EA0217102280000020
B1052144735229N01153395EA0217102288000016
B1052184735200N01153304EA0218502304000020
B1052224735175N01153216EA0218502304000020
B1052264735154N01153125EA0218702304000020
B1052304735133N01153037EA0218202296000020
B1052344735116N01152945EA0217702288000020
B1052384735095N01152854EA0217202288000020
B1052424735066N01152766EA0216802280000016
B1052464735029N01152683EA0216602280000016
B1052504734995N01152604EA0216802280000020
B1052544734962N01152529EA0216202280000016
B1052584734929N01152450EA0216202272000020
B1053024734895N01152375EA0216502280000020
B1053064734862N01152295EA0215502272000020
B1053104734825N01152216EA0215202272000020
B1053144734787N01152133EA0215002264000020
B1053184734745N01152054EA0214702264000020
B1053224734704N01151970EA0214702264000024
B1053264734662N01151887EA0214202264000024
B1053304734625N01151804EA0213602256000020
B1053344734583N01151720EA0213202248000024
B1053384734545N01151641EA0213102248000020
B1053424734504N01151558EA0212202240000020
B1053464734466N01151470EA0211202232000020
B1053504734425N01151375EA0211002232000020
B1053544734387N01151291EA0211002224000020
B1053584734350N01151208EA0210902224000020
B1054024734308N01151120EA0210102216000024
B1054064734270N01151033EA0210002216000024
B1054104734233N01150950EA0210002216000028
B1054144734191N01150870EA0209902216000024
B1054184734154N01150791EA0209602216000020
B1054224734116N01150708EA0209602216000024
B1054264734075N01150629EA0209102208000024
B1054304734033N01150550EA0209102208000024
B1054344733991N01150470EA0209102208000020
B1054384733945N01150395EA0209402208000024
B1054424733900N01150320EA0209902216000024
B1054464733858N01150254EA0209902216000024
B1054504733812N01150187EA0210502224000020
B1054544733766N01150120EA0211502232000024
B1054584733720N01150066EA0212202240000020
B1055024733670N01150008EA0212502240000020
B1055064733620N01149958EA0212502240000028
B1055104733570N01149912EA0212502240000024
B1055144733512N01149866EA0210902232000020
B1055184733441N01149820EA0210802224000024
B1055224733370N01149775EA0210902224000020
B1055264733300N01149733EA0210702216000020
B1055304733229N01149691EA0210002216000024
B1055344733158N01149654EA0209402208000024
B1055384733083N01149616EA0208502192000020
B1055424733008N01149583EA0208502192000024
B1055464732937N01149550EA0208602200000020
B1055504732862N01149512EA0208602200000020
B1055544732795N01149475EA0208402192000024
B1055584732720N01149437EA0208002192000024
B1056024732650N01149395EA0207902192000024
B1056064732583N01149350EA0207402184000024
B1056104732516N01149300EA0207402184000020
B1056144732450N01149245EA0207402184000024
B1056184732387N01149175EA0207202184000020
B1056224732333N01149100EA0207502184000020
B1056264732279N01149025EA0208402192000020
B1056304732233N01148954EA0210502208000020
B1056344732175N01148912EA0211702224000024
B1056384732120N01148945EA0212502240000024
B1056424732100N01149037EA0212602232000020
B1056464732133N01149120EA0215102264000024
B1056504732191N01149133EA0216602280000020
B1056544732250N01149079EA0216902280000020
B1056584732266N01148979EA0218302296000024
B1057024732237N01148900EA0220202320000024
B1057064732183N01148883EA0220802320000020
B1057104732137N01148945EA0221502336000024
B1057144732137N01149050EA0222302344000020
B1057184732179N01149125EA0224002352000020
B1057224732250N01149137EA0225702376000024
B1057264732308N01149075EA0226602384000024
B1057304732320N01148970EA0227802392000024
B1057344732283N01148904EA0229202408000024
B1057384732229N01148904EA0229002408000024
B1057424732179N01148983EA0229202408000024
B1057464732170N01149091EA0231902432000020
B1057504732204N01149179EA0233302448000024
B1057544732270N01149208EA0234002456000024
B1057584732329N01149141EA0235402472000024
B1058024732333N01149037EA0235902480000020
B1058064732291N01148979EA0237102488000024
B1058104732229N01148995EA0237902504000024
B1058144732187N01149075EA0237902504000024
B1058184732204N01149183EA0240102512000024
B1058224732266N01149225EA0242302544000024
B1058264732325N01149175EA0243702560000024
B1058304732337N01149079EA0244802568000024
B1058344732295N01149008EA0245502576000020
B1058384732233N01149025EA0245902584000024
B1058424732204N01149125EA0246102584000020
B1058464732237N01149225EA0248502608000020
B1058504732304N01149258EA0250202632000024
B1058544732366N01149208EA0251302640000024
B1058584732379N01149112EA0252002648000024
B1059024732337N01149058EA0253902672000024
B1059064732279N01149091EA0254502672000024
B1059104732258N01149187EA0255102680000024
B1059144732287N01149283EA0256802704000020
B1059184732345N01149333EA0257802712000024
B1059224732416N01149312EA0258902720000020
B1059264732458N01149233EA0258902720000020
B1059304732445N01149154EA0260102728000020
B1059344732391N01149141EA0261002744000020
B1059384732345N01149212EA0260702736000024
B1059424732354N01149316EA0262602752000024
B1059464732412N01149375EA0263202768000020
B1059504732479N01149358EA0263602768000024
B1059544732516N01149287EA0263602768000020
B1059584732508N01149204EA0264302768000020
B1100024732466N01149154EA0264302776000024
B1100064732408N01149170EA0265302784000024
B1100104732370N01149254EA0265702792000020
B1100144732379N01149350EA0266902800000024
B1100184732429N01149412EA0267502808000020
B1100224732500N01149420EA0266902808000020
B1100264732562N01149366EA0265302792000016
B1100304732600N01149279EA0265402784000016
B1100344732608N01149179EA0265402784000020
B1100384732595N01149079EA0265902792000016
B1100424732575N01148987EA0265302784000024
B1100464732545N01148900EA0263602768000024
B1100504732495N01148825EA0263002760000024
B1100544732425N01148800EA0262602752000024
B1100584732350N01148804EA0261402744000024
B1101024732275N01148825EA0261302744000024
B1101064732195N01148854EA0262402752000024
B1101104732120N01148895EA0263202760000024
B1101144732045N01148945EA0263702768000028
B1101184731995N01149037EA0266302792000024
B1101224731983N01149145EA0268102816000024
B1101264732020N01149229EA0270202840000024
B1101304732083N01149262EA0271202840000024
B1101344732141N01149233EA0272802856000024
B1101384732187N01149170EA0273302864000020
B1101424732204N01149070EA0274002872000024
B1101464732195N01148979EA0275602896000016
B1101504732179N01148887EA0276302896000016
B1101544732158N01148791EA0274302880000020
B1101584732125N01148683EA0271602856000016
B1102024732091N01148570EA0273402864000020
B1102064732066N01148475EA0274102880000020
B1102104732041N01148379EA0273802872000024
B1102144732016N01148283EA0273502872000024
B1102184731995N01148179EA0271802856000020
B1102224731970N01148070EA0271602848000024
B1102264731945N01147975EA0273902872000020
B1102304731925N01147900EA0275102888000020
B1102344731904N01147825EA0275202888000024
B1102384731883N01147750EA0275402888000024
B1102424731862N01147675EA0275602896000016
B1102464731841N01147600EA0276202896000020
B1102504731825N01147525EA0276502904000020
B1102544731812N01147454EA0276802904000016
B1102584731800N01147379EA0277302912000020
B1103024731787N01147308EA0277902920000020
B1103064731775N01147237EA0278802928000016
B1103104731762N01147170EA0279602936000016
B1103144731745N01147104EA0279802936000016
B1103184731737N01147037EA0280202944000016
B1103224731729N01146966EA0280402944000020
B1103264731725N01146891EA0280602944000016
B1103304731720N01146816EA0281102952000020
B1103344731720N01146745EA0281502952000020
B1103384731720N01146675EA0281502952000016
B1103424731720N01146604EA0281502952000016
B1103464731720N01146533EA0281302952000016
B1103504731725N01146462EA0281302952000016
B1103544731729N01146391EA0281302952000016
B1103584731733N01146320EA0281102944000016
B1104024731741N01146245EA0280402944000016
B1104064731750N01146166EA0280002936000016
B1104104731758N01146087EA0279402928000016
B1104144731762N01146000EA0278302920000016
B1104184731762N01145916EA0276902912000020
B1104224731758N01145825EA0276402904000016
B1104264731754N01145733EA0275402888000024
B1104304731741N01145637EA0273502872000024
B1104344731725N01145537EA0271802856000020
B1104384731704N01145437EA0270102832000024
B1104424731683N01145333EA0268902824000020
B1104464731658N01145225EA0267102808000020
B1104504731633N01145120EA0265802792000020
B1104544731608N01145008EA0265002784000020
B1104584731583N01144895EA0263102760000028
B1105024731554N01144783EA0262802760000024
B1105064731520N01144679EA0262402760000044
B1105104731487N01144575EA0261202744000036
B1105144731450N01144466EA0259902728000016
B1105184731408N01144350EA0259802728000032
B1105224731370N01144250EA0261502744000044
B1105264731341N01144158EA0262602760000032
B1105304731312N01144075EA0262402760000016
B1105344731279N01143987EA0262402752000032
B1105384731250N01143900EA0261902752000020
B1105424731220N01143812EA0261502752000016
B1105464731195N01143725EA0262402752000024
B1105504731170N01143641EA0261402752000024
B1105544731145N01143545EA0260502736000020
B1105584731120N01143454EA0260302736000024
B1106024731095N01143362EA0260602744000020
B1106064731070N01143275EA0260502736000020
B1106104731045N01143187EA0260202736000020
B1106144731025N01143100EA0260202736000020
B1106184731004N01143016EA0260202736000020
B1106224730983N01142933EA0260302736000020
B1106264730962N01142850EA0259302728000020
B1106304730945N01142758EA0258502712000020
B1106344730925N01142662EA0257702712000020
B1106384730904N01142566EA0257402704000020
B1106424730883N01142470EA0257402704000020
B1106464730866N01142375EA0257202704000020
B1106504730845N01142283EA0256502696000024
B1106544730829N01142191EA0255602688000024
B1106584730804N01142095EA0255102680000020
B1107024730775N01142004EA0255102680000024
B1107064730750N01141920EA0254502672000024
B1107104730725N01141829EA0253802664000024
B1107144730695N01141737EA0253402664000020
B1107184730666N01141650EA0253202664000024
B1107224730637N01141562EA0253102656000024
B1107264730612N01141475EA0252302648000024
B1107304730587N01141383EA0251102640000024
B1107344730562N01141291EA0250602632000024
B1107384730533N01141204EA0249502624000020
B1107424730504N01141108EA0248002608000024
B1107464730475N01141000EA0246802592000020
B1107504730445N01140887EA0246502592000020
B1107544730412N01140779EA0246302592000024
B1107584730383N01140683EA0247002600000024
B1108024730358N01140591EA0246302592000024
B1108064730329N01140491EA0245902584000024
B1108104730295N01140391EA0244602576000020
B1108144730266N01140287EA0244402568000024
B1108184730237N01140179EA0245302576000020
B1108224730208N01140079EA0245902584000020
B1108264730179N01139987EA0246102584000020
B1108304730150N01139900EA0248202608000020
B1108344730120N01139825EA0249102616000020
B1108384730095N01139754EA0249702624000020
B1108424730066N01139683EA0249002624000020
B1108464730037N01139595EA0248202608000020
B1108504730000N01139504EA0249902624000016
B1108544729970N01139416EA0251802648000016
B1108584729937N01139341EA0253502664000020
B1109024729904N01139275EA0253502664000016
B1109064729866N01139204EA0253602664000020
B1109104729829N01139133EA0253202664000020
B1109144729787N01139058EA0252402648000016
B1109184729750N01138979EA0251802648000016
B1109224729708N01138895EA0251302648000020
B1109264729670N01138808EA0251102640000016
B1109304729633N01138729EA0251102640000020
B1109344729591N01138654EA0251102640000020
B1109384729554N01138583EA0251302640000020
B1109424729512N01138516EA0250802640000020
B1109464729466N01138450EA0250602632000016
B1109504729420N01138387EA0250702640000016
B1109544729370N01138333EA0250702632000020
B1109584729320N01138275EA0250102632000016
B1110024729270N01138220EA0250102632000020
B1110064729220N01138166EA0250202632000020
B1110104729170N01138116EA0250102632000020
B1110144729120N01138062EA0249502624000020
B1110184729070N01138008EA0249002616000016
B1110224729020N01137954EA0248102616000016
B1110264728966N01137895EA0247402600000016
B1110304728912N01137837EA0247102600000016
B1110344728858N01137783EA0246302592000016
B1110384728808N01137720EA0246002584000016
B1110424728754N01137658EA0245802584000016
B1110464728704N01137591EA0245802584000016
B1110504728654N01137533EA0245902584000020
B1110544728604N01137475EA0245802584000016
B1110584728558N01137416EA0245702584000020
B1111024728512N01137354EA0245202576000020
B1111064728466N01137291EA0244302568000020
B1111104728412N01137229EA0244102568000020
B1111144728362N01137166EA0243202560000020
B1111184728312N01137100EA0242902552000020
B1111224728254N01137037EA0242802552000016
B1111264728204N01136979EA0243702560000016
B1111304728158N01136929EA0243602560000020
B1111344728108N01136875EA0242702552000016
B1111384728058N01136812EA0241602536000016
B1111424728008N01136741EA0241702544000016
B1111464727979N01136654EA0241802544000016
B1111504727962N01136550EA0241602536000016
B1111544727962N01136441EA0241002536000024
B1111584727975N01136329EA0240702528000020
B1112024727987N01136220EA0240502528000020
B1112064728004N01136108EA0239902520000024
B1112104728016N01135995EA0239002512000024
B1112144728029N01135879EA0238602512000024
B1112184728037N01135766EA0238602504000020
B1112224728045N01135654EA0237602504000024
B1112264728054N01135541EA0236602488000020
B1112304728058N01135429EA0236602488000020
B1112344728066N01135320EA0236502488000020
B1112384728075N01135216EA0236902496000020
B1112424728083N01135116EA0235902488000024
B1112464728091N01135008EA0235702480000024
B1112504728108N01134912EA0236202488000020
B1112544728120N01134812EA0236302488000024
B1112584728137N01134712EA0236002488000024
B1113024728158N01134608EA0235802480000024
B1113064728179N01134512EA0235402480000024
B1113104728200N01134408EA0234402472000024
B1113144728220N01134304EA0233202456000024
B1113184728241N01134191EA0232302440000024
B1113224728262N01134075EA0231502432000024
B1113264728279N01133958EA0231202432000024
B1113304728291N01133837EA0230602432000020
B1113344728300N01133716EA0229602424000024
B1113384728316N01133595EA0229702416000024
B1113424728333N01133479EA0229702424000024
B1113464728350N01133366EA0229802424000024
B1113504728370N01133258EA0229102416000024
B1113544728391N01133145EA0228702408000024
B1113584728416N01133037EA0228202400000024
B1114024728437N01132933EA0228202408000020
B1114064728458N01132833EA0227902400000024
B1114104728483N01132733EA0227102392000020
B1114144728508N01132625EA0227202392000020
B1114184728533N01132520EA0229102408000020
B1114224728554N01132425EA0230702432000020
B1114264728558N01132329EA0232002440000028
B1114304728516N01132262EA0233802456000024
B1114344728458N01132258EA0234502472000020
B1114384728416N01132320EA0234502472000024
B1114424728412N01132420EA0235102480000020
B1114464728450N01132495EA0236102488000020
B1114504728516N01132516EA0235502488000016
B1114544728579N01132466EA0235702480000016
B1114584728616N01132379EA0237602496000016
B1115024728620N01132287EA0238002504000016
B1115064728583N01132212EA0238602512000020
B1115104728520N01132225EA0241202536000016
B1115144728487N01132300EA0241302536000020
B1115184728512N01132395EA0241002528000020
B1115224728587N01132408EA0241702536000020
B1115264728633N01132333EA0242502552000020
B1115304728620N01132233EA0243502560000020
B1115344728575N01132170EA0245002576000020
B1115384728516N01132191EA0246102592000020
B1115424728491N01132279EA0245502584000020
B1115464728533N01132370EA0245302576000020
B1115504728604N01132379EA0246102576000020
B1115544728658N01132316EA0247902608000020
B1115584728683N01132225EA0248302608000020
B1116024728670N01132129EA0248102608000020
B1116064728616N01132083EA0249902624000020
B1116104728562N01132120EA0249702632000020
B1116144728541N01132216EA0249602624000020
B1116184728583N01132304EA0249202624000016
B1116224728654N01132316EA0250202632000016
B1116264728716N01132266EA0251402648000020
B1116304728745N01132175EA0250602640000016
B1116344728720N01132083EA0250602632000020
B1116384728670N01132025EA0251802648000020
B1116424728612N01132025EA0252702664000024
B1116464728570N01132087EA0252402656000024
B1116504728575N01132187EA0252202648000024
B1116544728633N01132250EA0252302656000024
B1116584728704N01132258EA0252502656000024
B1117024728766N01132204EA0252502656000024
B1117064728800N01132120EA0253302664000024
B1117104728812N01132029EA0254002672000024
B1117144728808N01131937EA0254502680000024
B1117184728791N01131845EA0255602688000024
B1117224728745N01131795EA0256302696000020
B1117264728687N01131820EA0256502696000024
B1117304728658N01131908EA0256702704000016
B1117344728683N01132008EA0257002704000016
B1117384728745N01132050EA0257802712000020
B1117424728812N01132012EA0257802712000016
B1117464728845N01131925EA0258202712000020
B1117504728854N01131829EA0259202728000020
B1117544728845N01131737EA0259702736000020
B1117584728795N01131687EA0261302736000020
B1118024728741N01131729EA0263802776000020
B1118064728729N01131825EA0264002776000020
B1118104728787N01131891EA0264602776000020
B1118144728850N01131850EA0265402792000020
B1118184728862N01131762EA0265902792000016
B1118224728820N01131695EA0267602808000016
B1118264728762N01131712EA0269102832000020
B1118304728725N01131795EA0269802840000016
B1118344728745N01131900EA0271102848000020
B1118384728812N01131937EA0272002856000020
B1118424728875N01131900EA0272502864000020
B1118464728904N01131816EA0272802864000020
