ACAM00267
HFDTE230404
HFFXA050
HFPLTPilot: Hamm (ET)
HFGTYGliderType: ASH 26E
HFGIDGliderID: ET
HFDTM100GPSDatum: WGS-84
HFRFWFirmwareVersion: 6.0
HFRHWHardwareVersion: 2.39
HFCIDCompetitionID: ET
HFCCLCompetitionClass: 18-Meter
HFSITSite: Unterw”ssen
HFTZOTimezone: 0
HFUNTUnits: km,km/h,m,m/s
I033638FXA3941ENL4247REX
LCAMMCambridge Aero Instruments  v5.884D  -  2001
LCAMN000014743750N01226300E005550TH      Unterwoessen122.3       
LCAMN000024735999N01445000E005000T       Hieflau                 
LCAMN000034629329N00953999E018000T       Pontresina              
LCAMN000044631909N00952749E017070A       Samedan                 
LCAMN000054709000N01014999E000000T       St.AntonArlb            
LCAMN000064736499N01423999E000000T       Zirnitz                 
LCAMN000074718999N01257500E000000T       Taxenbach               
LCAMN000084712999N01159999E000000T       Gmuend(Stau)            
LCAMN000094723000N01425000E000000T       BrudkglTrieb            
LCAMN000104645500N00959000E000000T       Fluela Pass             
LCAMN000114659000N01009000E000000T       Galtuer                 
LCAMN000124729999N01455999E000000T       Reichenstein            
LCAMN000134707999N01048998E000000T       Wildgrat                
LCAMN000144744259N01228410E007100T       Grub                    
LCAMN000154740999N01157830E008100TA      Geitau      123.4       
LCAMN000164737480N01111109E006280TA      Eschenlohe              
LCAMN000174744549N01206980E004610TA      Brannenburg 123.5       
LCAMN000184742999N01123500E006070TA      Benediktbeur123.5       
LCAMN000194557000N01135800E000000TA      Bad Toelz               
LCAMN000204814000N01259000E003470TA      KirchdorfInn118.625     
LCAMN000214727000N01346999E000000T       Aich                    
LCAMN000224728500N01352998E000000T       gr”bming                
LCAMN000234728749N01400509E006470TA      Niederoeblar            
LCAMN000244824250N01326658E000000TA      schaerding  122.7       
LCAMN000254717299N01243509E000000T       Schmittenh”h            
LCAMN000264649999N01351999E000000T       Turracherh              
LCAMN000274653999N01032999E000000T       Nauders                 
LCAMN010014727000N01346999E000000T       Aich        **          
LCAMN010024557000N01135800E000000TA      Bad Toelz   **          
LCAMN010034742999N01123500E006070TA      Benediktbeur**123.5     
LCAMN010044744549N01206980E004610TA      Brannenburg **123.5     
LCAMN010054723000N01425000E000000T       BrudkglTrieb**          
LCAMN010064737480N01111109E006280TA      Eschenlohe  **          
LCAMN010074645500N00959000E000000T       Fluela Pass **          
LCAMN010084659000N01009000E000000T       Galtuer     **          
LCAMN010094740999N01157830E008100TA      Geitau      **123.4     
LCAMN010104712999N01159999E000000T       Gmuend(Stau)**          
LCAMN010114744259N01228410E007100T       Grub        **          
LCAMN010124735999N01445000E005000T       Hieflau     **          
LCAMN010134814000N01259000E003470TA      KirchdorfInn**118.625   
LCAMN010144653999N01032999E000000T       Nauders     **          
LCAMN010154728749N01400509E006470TA      Niederoeblar**          
LCAMN010164629329N00953999E018000T       Pontresina  **          
LCAMN010174729999N01455999E000000T       Reichenstein**          
LCAMN010184717299N01243509E000000T       Schmittenh”h**          
LCAMN010194709000N01014999E000000T       St.AntonArlb**          
LCAMN010204718999N01257500E000000T       Taxenbach   **          
LCAMN010214649999N01351999E000000T       Turracherh  **          
LCAMN010224743750N01226300E005550TH      Unterwoessen**122.3     
LCAMN010234707999N01048998E000000T       Wildgrat    **          
LCAMN010244736499N01423999E000000T       Zirnitz     **          
LCAMN010254728500N01352998E000000T       gr”bming    **          
LCAMN010264824250N01326658E000000TA      schaerding  **122.7     
LCAMN012014727000N01346999E000000T       Aich        **          
LCAMN012024557000N01135800E000000TA      Bad Toelz   **          
LCAMN012034742999N01123500E006070TA      Benediktbeur**123.5     
LCAMN012044744549N01206980E004610TA      Brannenburg **123.5     
LCAMN012054723000N01425000E000000T       BrudkglTrieb**          
LCAMN012064737480N01111109E006280TA      Eschenlohe  **          
LCAMN012074645500N00959000E000000T       Fluela Pass **          
LCAMN012084659000N01009000E000000T       Galtuer     **          
LCAMN012094740999N01157830E008100TA      Geitau      **123.4     
LCAMN012104712999N01159999E000000T       Gmuend(Stau)**          
LCAMN012114744259N01228410E007100T       Grub        **          
LCAMN012124735999N01445000E005000T       Hieflau     **          
LCAMN012134814000N01259000E003470TA      KirchdorfInn**118.625   
LCAMN012144653999N01032999E000000T       Nauders     **          
LCAMN012154728749N01400509E006470TA      Niederoeblar**          
LCAMN012164629329N00953999E018000T       Pontresina  **          
LCAMN012174729999N01455999E000000T       Reichenstein**          
LCAMN012184717299N01243509E000000T       Schmittenh”h**          
LCAMN012194709000N01014999E000000T       St.AntonArlb**          
LCAMN012204718999N01257500E000000T       Taxenbach   **          
LCAMN012214649999N01351999E000000T       Turracherh  **          
LCAMN012224743750N01226300E005550TH      Unterwoessen**122.3     
LCAMN012234707999N01048998E000000T       Wildgrat    **          
LCAMN012244736499N01423999E000000T       Zirnitz     **          
LCAMN012254728500N01352998E000000T       gr”bming    **          
LCAMN012264824250N01326658E000000TA      schaerding  **122.7     
C-25699395410230404000100FFF/0.5/0.5/0.5///1000/
C4743710N01226209E0000Abheben zum Flug
C4743899N01226469E0000Landung
B0837244743889N01226459EA0042800559000005015000
B0837324743889N01226459EA0042800556000002015000
B0837404743889N01226459EA0042800557000002015000
B0837484743899N01226459EA0042800560000003015000
B0837564743889N01226459EA0042800562000006015000
B0838044743880N01226449EA0042800563000014015000
B0838124743880N01226440EA0042800564000014015000
B0838204743869N01226419EA0042800565000014015000
B0838284743859N01226399EA0042800565000015015000
B0838364743849N01226369EA0042800565000017015000
B0838444743840N01226339EA0042800565000019015000
B0838524743829N01226319EA0042800566000022015000
B0839004743819N01226300EA0042800567000015015000
B0839084743819N01226289EA0042800566000009015000
B0839164743819N01226289EA0042800567000009015000
B0839244743809N01226260EA0042800567000020015000
B0839284743798N01226249EA0042800568000022015000
B0839304743798N01226239EA0042800567000022015000
B0839344743789N01226229EA0042800567000020015000
B0839384743789N01226209EA0042800568000019015000
B0839424743779N01226199EA0042800568000020015000
B0839464743769N01226180EA0042800567000018015000
B0839504743769N01226170EA0042800566000018015000
B0839544743759N01226149EA0042800565000019015000
B0839584743750N01226140EA0042800565000017015000
B0840024743750N01226130EA0042800566000015015000
B0840064743750N01226119EA0042800566000011015000
B0840104743750N01226119EA0042800566000009015000
B0840144743750N01226119EA0042800567000006015000
B0840184743750N01226119EA0042800568000004015000
B0840224743750N01226119EA0042800566000003015000
B0840264743750N01226119EA0042800565015003015000
B0840304743750N01226119EA0042800563000003015000
B0840344743739N01226119EA0042800563000003015000
B0840384743739N01226119EA0042800562000002015000
B0840424743739N01226119EA0042800562000003015000
B0840464743739N01226119EA0042800562000003015000
B0840504743750N01226119EA0042800563000003015000
B0840544743750N01226119EA0042800563000003015000
B0840584743739N01226119EA0042800561015002015000
B0915224743710N01226209EA0044300579000001015000
B0915304743710N01226209EA0044300580000001015000
B0915384743710N01226209EA0044300573000001015000
B0915464743710N01226209EA0044300579000002015000
B0915544743710N01226209EA0044300575000001015000
B0916024743710N01226209EA0044300572000001015000
B0916104743710N01226209EA0044300569015014015000
B0916184743710N01226209EA0044300568000005015000
B0916264743710N01226209EA0044300566000003015000
B0916344743710N01226209EA0044300569000004015000
B0916424743710N01226209EA0044300570000006015000
B0916504743710N01226209EA0044300566000004015000
B0916584743710N01226209EA0044300568000002015000
B0917064743710N01226209EA0044300571000003015000
B0917144743710N01226209EA0044300571000002015000
B0917224743710N01226220EA0044300570000017015000
B0917264743739N01226289EA0047200569000064015000
B0917284743759N01226319EA0049700578000064015000
B0917324743798N01226399EA0056700642000055015000
B0917364743840N01226469EA0064300722000055015000
B0917404743880N01226560EA0070800798000063015000
B0917444743919N01226650EA0077100863000067015000
B0917484743970N01226740EA0078600905000070015000
B0917524743999N01226829EA0079900921000067015000
B0917564744010N01226919EA0079300924000054015000
B0918004743989N01227000EA0078600920000044015000
B0918044743939N01227049EA0078600918000040015000
B0918084743869N01227049EA0077900914000037015000
B0918124743819N01226990EA0077900903000036015000
B0918164743789N01226900EA0077100899000036015000
B0918204743759N01226820EA0076400895000041015000
B0918244743719N01226749EA0076400895000043015000
B0918284743689N01226669EA0075700888000047015000
B0918324743649N01226600EA0075000884000054015000
B0918364743619N01226520EA0074100876000052015000
B0918404743589N01226440EA0073500870000044015000
B0918444743559N01226359EA0073500863000050015000
B0918484743529N01226279EA0072900858000045015000
B0918524743498N01226189EA0072100853000043015000
B0918564743469N01226099EA0072100847000043015000
B0919004743450N01226010EA0071500843000044015000
B0919044743439N01225920EA0070800837000045015000
B0919084743469N01225840EA0070000830000045015000
B0919124743519N01225799EA0068600821000042015000
B0919164743569N01225769EA0067900807000040015000
B0919204743619N01225750EA0067100796000038015000
B0919244743679N01225719EA0066600792000039015000
B0919284743729N01225679EA0066600791000039015000
B0919324743759N01225599EA0065700789000035015000
B0919364743750N01225499EA0064300772000039015000
B0919404743710N01225400EA0063700767000041015000
B0919444743668N01225329EA0063700761000039015000
B0919484743609N01225280EA0062300757000044015000
B0919524743529N01225270EA0061600745000042015000
B0919564743469N01225309EA0061600742000041015000
B0920004743439N01225389EA0059500733000040015000
B0920044743439N01225469EA0057500715000041015000
B0920084743469N01225549EA0056100693000038015000
B0920124743498N01225620EA0055400675000036015000
B0920164743519N01225700EA0053300664000034015000
B0920204743549N01225769EA0051200647000034015000
B0920244743589N01225840EA0049700629000042015000
B0920284743619N01225920EA0049100614000051015000
B0920324743649N01225989EA0047800601000051015000
B0920364743689N01226069EA0046300590000046015000
B0920384743699N01226099EA0046300585000046015000
B0920424743729N01226170EA0045100575000043015000
B0920464743759N01226239EA0044300567000038015000
B0920504743789N01226300EA0044300565000049015000
B0920544743809N01226350EA0044300564000063015000
B0920584743840N01226399EA0044300563000053015000
B0921024743849N01226430EA0044300562000051015000
B0921064743869N01226459EA0044300561000101015002
B0921104743880N01226469EA0044300560000106015002
B0921144743889N01226469EA0044300560000094015002
B0921184743889N01226469EA0044300557015051030000
B0921224743889N01226469EA0044300557000032015000
B0921264743889N01226469EA0044300555000020015000
B0921304743889N01226469EA0044300554015012015000
B0921344743889N01226469EA0044300550015008015000
B0921384743889N01226469EA0044300550000005015000
B0921424743889N01226469EA0044300556000003015000
B0921464743889N01226469EA0044300560015003015000
B0921504743889N01226469EA0044300558015002030000
B0921544743889N01226469EA0044300556000003015000
B0921584743889N01226469EA0044300558000004015000
B0922024743889N01226469EA0044300561000016015000
B0922064743889N01226469EA0044300561015012015000
B0922104743889N01226469EA0044300562000010015000
B1039164743710N01226220EA0042800632015003030000
B1039244743710N01226220EA0042800611030002030000
B1039324743710N01226220EA0042800593015001030000
B1039404743710N01226229EA0042800616015002030000
B1039484743710N01226220EA0042800617015007045000
B1039564743710N01226220EA0042800597015004015000
B1040044743710N01226220EA0042800593015003015000
B1040124743710N01226220EA0042800588015003015000
B1040204743710N01226220EA0042800581015002015000
B1040284743710N01226220EA0042800578015003015000
B1040364743710N01226220EA0042800587015003015000
B1040444743710N01226220EA0042800578015004030000
B1040524743710N01226220EA0042800578015004015000
B1041004743710N01226220EA0042800583015003015000
B1041084743710N01226220EA0042800585000002015000
B1041164743710N01226220EA0042800584000002015000
B1041244743729N01226270EA0043600582000072015000
B1041264743750N01226310EA0045600581000072015000
B1041304743789N01226369EA0053900639000059015000
B1041344743819N01226440EA0061600722000055015000
B1041384743849N01226509EA0067100792000054015000
B1041424743880N01226579EA0071500842000051015000
B1041464743909N01226659EA0074100876000049015000
B1041504743949N01226730EA0076400901000047015000
B1041544743979N01226799EA0077100909000054015000
B1041584743989N01226879EA0076400914000049015000
B1042024743970N01226969EA0075000903000042015000
B1042064743919N01227030EA0075000897000039015000
B1042104743849N01227030EA0075000897000038015000
B1042144743789N01226969EA0075000897000035015000
B1042184743759N01226889EA0074100891000037015000
B1042224743719N01226799EA0074100884000076015002
B1042264743679N01226709EA0074100881000109015002
B1042304743639N01226610EA0074100883000126015002
B1042344743599N01226520EA0076400896000131015002
B1042384743569N01226440EA0077900913000140015002
B1042424743540N01226350EA0079300926000195015002
B1042464743509N01226260EA0080700939000195015002
B1042504743469N01226170EA0081400950000195015002
B1042544743429N01226079EA0082800965000195015002
B1042584743389N01226000EA0084100979000195015002
B1043024743368N01225899EA0085000990000195015002
B1043064743410N01225819EA0085701004000195015002
B1043104743459N01225830EA0087701014000195015002
B1043144743489N01225889EA0089101026000195015002
B1043184743489N01225979EA0090001040000195015002
B1043224743459N01226069EA0091301053000195015002
B1043264743429N01226140EA0092801067000195015002
B1043304743389N01226220EA0094201081000195015002
B1043344743349N01226289EA0095701095000195015002
B1043384743309N01226359EA0097101112000195015002
B1043424743259N01226430EA0097801127000195015002
B1043464743209N01226489EA0099801139000195015002
B1043504743150N01226529EA0101501156000195015002
B1043544743079N01226560EA0103001173000195015002
B1043584743020N01226589EA0103001182000195015002
B1044024742949N01226619EA0104301184000195015002
B1044064742879N01226650EA0105101196000195015002
B1044104742799N01226659EA0105901207000195015002
B1044144742729N01226659EA0105901213000195015002
B1044184742659N01226639EA0107301216000195015002
B1044224742579N01226619EA0108801224000195015002
B1044264742519N01226600EA0109401238000195015002
B1044304742449N01226589EA0109401244000195015002
B1044344742369N01226589EA0111001247000195015002
B1044384742299N01226619EA0111001257000195015002
B1044424742239N01226669EA0112401267000195015002
B1044464742179N01226730EA0113801281000195015002
B1044504742129N01226799EA0115401295000195015002
B1044544742080N01226879EA0116801308000195015002
B1044584742029N01226939EA0118301328000195015002
B1045024741979N01227000EA0119801344000195015002
B1045064741919N01227049EA0121301356000195015002
B1045104741849N01227069EA0121901370000195015002
B1045144741789N01227040EA0122801381000195015002
B1045184741738N01226959EA0123401386000195015002
B1045224741719N01226870EA0124101392000195015002
B1045264741709N01226780EA0125001402000195015002
B1045304741709N01226679EA0125701409000195015002
B1045344741719N01226589EA0125001412000195015002
B1045384741729N01226489EA0125701412000195015002
B1045424741738N01226399EA0126301417000195015002
B1045464741749N01226300EA0127101421000195015002
B1045504741759N01226209EA0127101425000195015002
B1045544741769N01226119EA0127901432000195015002
B1045584741799N01226039EA0127901438000195015002
B1046024741809N01225949EA0128501446000195015002
B1046064741799N01225849EA0129401449000195015002
B1046104741809N01225759EA0130301456000195015002
B1046144741849N01225689EA0130901463000195015002
B1046184741899N01225669EA0131601470000195015002
B1046224741950N01225700EA0132401479000195015002
B1046264741979N01225769EA0133801492000195015002
B1046304741999N01225840EA0135301507000195015002
B1046344742009N01225920EA0136801521000195015002
B1046384742019N01226010EA0136801529000195015002
B1046424742019N01226099EA0137601535000195015002
B1046464742009N01226189EA0139101547000195015002
B1046504741999N01226279EA0140501558000195015002
B1046544741959N01226350EA0141401573000195015002
B1046584741919N01226419EA0141401580000195015002
B1047024741869N01226489EA0142101584000195015002
B1047064741820N01226549EA0142901594000195015002
B1047104741759N01226610EA0143701600000195015002
B1047144741709N01226669EA0144501603000195015002
B1047184741659N01226719EA0145201614000195015002
B1047224741608N01226769EA0146801624000195015002
B1047264741569N01226820EA0145801627000195015002
B1047304741539N01226900EA0145201622000195015002
B1047344741509N01227000EA0143701607000195015002
B1047384741499N01227109EA0143701599000195015002
B1047424741499N01227229EA0144501603000195015002
B1047464741499N01227340EA0145801614000195015002
B1047504741509N01227439EA0146801629000195015002
B1047544741509N01227539EA0147401636000195015002
B1047584741520N01227649EA0148101639000195015002
B1048024741520N01227749EA0148901645000195015002
B1048064741520N01227860EA0148901652000195015002
B1048104741520N01227959EA0148901656000195015002
B1048144741529N01228060EA0148901657000195015002
B1048184741539N01228169EA0148901653000195015002
B1048224741560N01228289EA0148901653000195015002
B1048264741579N01228399EA0148901656000195015002
B1048304741599N01228519EA0148901655000195015002
B1048344741619N01228639EA0149801659000195015002
B1048384741639N01228750EA0150501663000195015002
B1048424741650N01228869EA0151301671000195015002
B1048464741659N01228979EA0151301678000181015002
B1048504741659N01229089EA0152001682000168015002
B1048544741669N01229199EA0152001685000157015002
B1048584741679N01229299EA0152001689000160015002
B1049024741679N01229409EA0152801690000160015002
B1049064741690N01229519EA0152001692000164015002
B1049104741690N01229629EA0152001690000165015002
B1049144741699N01229740EA0152001689000154015002
B1049184741709N01229849EA0152801690000171015002
B1049224741719N01229950EA0155001704000195015002
B1049264741719N01230040EA0155801722000195015002
B1049304741729N01230149EA0155001716000195015002
B1049344741738N01230260EA0154401710000195015002
B1049384741749N01230369EA0155001716000195015002
B1049424741759N01230480EA0155001722000195015002
B1049464741769N01230589EA0155801725000195015002
B1049504741778N01230690EA0155001723000195015002
B1049544741789N01230780EA0154401719000169015002
B1049584741799N01230879EA0153601709000149015002
B1050024741809N01230969EA0153601700000121015002
B1050064741820N01231049EA0152801700000083015002
B1050104741829N01231139EA0153601702000058015000
B1050144741839N01231229EA0153601707000047015000
B1050184741849N01231330EA0152001698000042015000
B1050224741869N01231420EA0151301689000037015000
B1050264741879N01231519EA0152001683000037015000
B1050304741879N01231599EA0152801693000033015000
B1050344741889N01231680EA0154401706000035015000
B1050384741889N01231760EA0155001716000037015000
B1050424741929N01231829EA0156501732000038015000
B1050464741979N01231850EA0155801737000034015000
B1050504742029N01231819EA0155801728000030015000
B1050544742038N01231729EA0155001723000027015000
B1050584742009N01231640EA0153601709000033015000
B1051024741959N01231569EA0153601700000035015000
B1051064741899N01231510EA0153601694000033015000
B1051104741849N01231439EA0154401700000040015000
B1051144741789N01231380EA0153601703000036015000
B1051184741719N01231359EA0152001691000033015000
B1051224741659N01231399EA0150501675000036015000
B1051264741599N01231469EA0150501670000035015000
B1051304741589N01231559EA0149801667000035015000
B1051344741608N01231649EA0149801659000036015000
B1051384741639N01231729EA0150501667000038015000
B1051424741669N01231819EA0150501667000035015000
B1051464741719N01231879EA0150501667000038015000
B1051504741769N01231930EA0151301679000038015000
B1051544741829N01231980EA0151301676000036015000
B1051584741889N01231980EA0150501674000037015000
B1052024741929N01231919EA0148901668000036015000
B1052064741990N01231850EA0148101654000036015000
B1052104742049N01231800EA0148101641000034015000
B1052144742120N01231769EA0147401637000033015000
B1052184742189N01231729EA0146801626000033015000
B1052224742259N01231699EA0145801616000032015000
B1052264742329N01231680EA0145201612000032015000
B1052304742409N01231659EA0145201607000033015000
B1052344742479N01231659EA0145801611000034015000
B1052384742550N01231670EA0144501611000034015000
B1052424742619N01231680EA0144501602000034015000
B1052464742699N01231699EA0143701593000034015000
B1052504742779N01231709EA0143701594000033015000
B1052544742850N01231729EA0145201598000034015000
B1052584742919N01231709EA0145801611000032015000
B1053024742959N01231640EA0145201613000032015000
B1053064742929N01231540EA0145201607000031015000
B1053104742859N01231510EA0146801618000031015000
B1053144742799N01231550EA0145801623000030015000
B1053184742759N01231649EA0146801616000030015000
B1053224742779N01231749EA0147401626000031015000
B1053264742829N01231819EA0147401631000032015000
B1053304742898N01231839EA0147401632000032015000
B1053344742969N01231819EA0146801628000033015000
B1053384743039N01231789EA0146801623000033015000
B1053424743099N01231760EA0146801626000033015000
B1053464743159N01231699EA0146801628000032015000
B1053504743219N01231630EA0146801630000034015000
B1053544743269N01231569EA0147401629000033015000
B1053584743329N01231500EA0148101635000032015000
B1054024743389N01231429EA0147401637000032015000
B1054064743439N01231349EA0147401633000032015000
B1054104743479N01231259EA0147401627000033015000
B1054144743529N01231179EA0146801623000032015000
B1054184743569N01231089EA0145801618000032015000
B1054224743589N01230990EA0145801617000033015000
B1054264743589N01230889EA0145201613000033015000
B1054304743580N01230789EA0144501606000032015000
B1054344743529N01230699EA0143701598000033015000
B1054384743459N01230669EA0142901588000033015000
B1054424743379N01230679EA0141401577000033015000
B1054464743309N01230719EA0141401571000031015000
B1054504743240N01230780EA0142901575000032015000
B1054544743189N01230849EA0144501592000034015000
B1054584743159N01230910EA0143701601000030015000
B1055024743119N01230999EA0142901592000029015000
B1055064743089N01231089EA0142101583000028015000
B1055104743049N01231179EA0141401572000032015000
B1055144743020N01231279EA0141401568000034015000
B1055184743009N01231380EA0140501566000037015000
B1055224742999N01231479EA0141401566000034015000
B1055264742989N01231579EA0140501568000032015000
B1055304742969N01231689EA0141401566000032015000
B1055344742949N01231789EA0142101572000034015000
B1055384742919N01231879EA0142901579000034015000
B1055424742889N01231959EA0142101584000031015000
B1055464742839N01232029EA0142101581000028015000
B1055504742789N01232060EA0142901584000026015000
B1055544742729N01232049EA0142101580000033015000
B1055584742680N01232020EA0142101579000030015000
B1056024742619N01231970EA0141401574000029015000
B1056064742569N01231909EA0142101570000033015000
B1056104742519N01231869EA0142901583000034015000
B1056144742468N01231829EA0142901587000041015000
B1056184742420N01231789EA0142901585000032015000
B1056224742359N01231739EA0142901581000030015000
B1056264742309N01231680EA0142901581000032015000
B1056304742269N01231619EA0143701586000030015000
B1056344742229N01231559EA0144501595000026015000
B1056384742189N01231500EA0143701593000024015000
B1056424742139N01231439EA0142901583000025015000
B1056464742089N01231380EA0142901585000025015000
B1056504742038N01231319EA0142901586000027015000
B1056544741990N01231259EA0142101583000027015000
B1056584741939N01231189EA0141401573000028015000
B1057024741879N01231120EA0139901562000031015000
B1057064741809N01231059EA0140501558000032015000
B1057104741738N01231009EA0141401570000033015000
B1057144741679N01230969EA0142101573000033015000
B1057184741608N01230990EA0142101578000033015000
B1057224741569N01231059EA0141401573000032015000
B1057264741560N01231160EA0141401571000032015000
B1057304741579N01231250EA0142101571000034015000
B1057344741599N01231339EA0142101582000033015000
B1057384741589N01231420EA0142901585000033015000
B1057424741529N01231469EA0142901588000032015000
B1057464741469N01231489EA0142101582000031015000
B1057504741409N01231469EA0142101578000029015000
B1057544741369N01231409EA0141401571000030015000
B1057584741369N01231330EA0141401571000030015000
B1058024741399N01231259EA0141401571000034015000
B1058064741439N01231210EA0142101575000032015000
B1058104741489N01231169EA0142901584000032015000
B1058144741539N01231139EA0144501594000034015000
B1058184741560N01231080EA0145201605000032015000
B1058224741529N01230999EA0144501600000036015000
B1058264741449N01230999EA0144501595000036015000
B1058304741409N01231080EA0143701593000036015000
B1058344741409N01231179EA0144501597000034015000
B1058384741449N01231250EA0145201600000032015000
B1058424741489N01231299EA0145201606000036015000
B1058464741549N01231330EA0145201611000034015000
B1058504741599N01231349EA0144501605000032015000
B1058544741659N01231339EA0143701599000031015000
B1058584741709N01231330EA0143701595000031015000
B1059024741759N01231349EA0142901592000032015000
B1059064741809N01231399EA0141401580000032015000
B1059104741849N01231460EA0140501571000035015000
B1059144741889N01231519EA0140501561000035015000
B1059184741939N01231579EA0139901559000034015000
B1059224741999N01231609EA0139101550000032015000
B1059264742059N01231599EA0138301540000034015000
B1059304742120N01231579EA0137601534000036015000
B1059344742189N01231540EA0137601530000037015000
B1059384742250N01231510EA0137601529000035015000
B1059424742309N01231469EA0138301535000035015000
B1059464742359N01231429EA0137601537000033015000
B1059504742420N01231370EA0136801529000035015000
B1059544742468N01231319EA0136801525000035015000
B1059584742519N01231250EA0137601530000035015000
B1100024742550N01231179EA0138301533000034015000
B1100064742559N01231099EA0139901549000030015000
B1100104742519N01231039EA0139101552000030015000
B1100144742459N01231070EA0138301541000032015000
B1100184742439N01231169EA0139101546000039015000
B1100224742479N01231240EA0139101550000038015000
B1100264742550N01231250EA0139901547000035015000
B1100304742579N01231189EA0140501555000032015000
B1100344742559N01231110EA0140501562000031015000
B1100384742489N01231120EA0141401560000033015000
B1100424742459N01231200EA0142101567000036015000
B1100464742489N01231279EA0142101580000035015000
B1100504742550N01231259EA0141401574000034015000
B1100544742559N01231169EA0142101578000022015000
B1100584742519N01231110EA0142901588000017015000
B1101024742449N01231129EA0142901593000013015000
B1101064742429N01231229EA0142101590000013015000
B1101104742468N01231299EA0142901590000011015000
B1101144742539N01231309EA0143701592000010015000
B1101184742599N01231279EA0145201607000009015000
B1101224742638N01231240EA0146801621000009015000
B1101264742638N01231160EA0146801631000011015000
B1101304742579N01231149EA0146801633000010015000
B1101344742550N01231229EA0147401639000011015000
B1101384742590N01231309EA0148901644000010015000
B1101424742649N01231279EA0149801656000009015000
B1101464742649N01231200EA0152001677000010015000
B1101504742599N01231160EA0152801693000011015000
B1101544742539N01231200EA0153601704000010015000
B1101584742529N01231290EA0154401708000011015000
B1102024742569N01231370EA0155801719000010015000
B1102064742619N01231359EA0156501732000009015000
B1102104742638N01231269EA0158201736000010015000
B1102144742590N01231219EA0158901756000010015000
B1102184742529N01231259EA0159601765000009015000
B1102224742519N01231349EA0160601772000009015000
B1102264742569N01231399EA0162101782000009015000
B1102304742619N01231349EA0162801794000009015000
B1102344742609N01231269EA0164301806000009015000
B1102384742539N01231250EA0165201815000009015000
B1102424742499N01231319EA0166701828000009015000
B1102464742508N01231409EA0168201846000008015000
B1102504742569N01231439EA0169001856000009015000
B1102544742609N01231380EA0169801870000008015000
B1102584742599N01231299EA0170601879000008015000
B1103024742539N01231259EA0172101883000009015000
B1103064742479N01231309EA0173701892000009015000
B1103104742468N01231409EA0175301908000009015000
B1103144742508N01231479EA0176001924000008015000
B1103184742569N01231479EA0176001927000008015000
B1103224742599N01231420EA0177701936000008015000
B1103264742579N01231339EA0178301949000008015000
B1103304742519N01231319EA0179301958000009015000
B1103344742468N01231380EA0180801971000009015000
B1103384742479N01231469EA0181501985000009015000
B1103424742529N01231510EA0182401996000009015000
B1103464742579N01231479EA0183802005000008015000
B1103504742590N01231389EA0183802010000008015000
B1103544742550N01231319EA0184702014000009015000
B1103584742479N01231330EA0185502028000009015000
B1104024742429N01231409EA0187102039000009015000
B1104064742429N01231500EA0188002054000009015000
B1104104742479N01231569EA0188002057000008015000
B1104144742550N01231569EA0188002055000009015000
B1104184742609N01231519EA0188702062000009015000
B1104224742619N01231429EA0189502068000008015000
B1104264742590N01231359EA0189502073000009015000
B1104304742519N01231339EA0190302071000009015000
B1104344742459N01231409EA0191802085000009015000
B1104384742459N01231500EA0193502101000009015000
B1104424742508N01231559EA0194202109000009015000
B1104464742559N01231540EA0194202116000008015000
B1104504742579N01231449EA0194202117000009015000
B1104544742539N01231389EA0193502118000009015000
B1104584742468N01231420EA0193502105000010015000
B1105024742449N01231529EA0195002111000010015000
B1105064742489N01231609EA0195802129000010015000
B1105104742550N01231599EA0196502136000009015000
B1105144742579N01231519EA0196502140000009015000
B1105184742550N01231429EA0195802139000008015000
B1105224742479N01231429EA0195802137000008015000
B1105264742420N01231500EA0196502138000008015000
B1105304742429N01231599EA0197502146000008015000
B1105344742489N01231659EA0197502150000008015000
B1105384742550N01231609EA0197502145000008015000
B1105424742559N01231510EA0197502148000008015000
B1105464742539N01231409EA0197502148000008015000
B1105504742489N01231339EA0198402152000007015000
B1105544742420N01231319EA0199902164000008015000
B1105584742349N01231349EA0200802178000008015000
B1106024742279N01231380EA0200802187000008015000
B1106064742208N01231420EA0200802182000007015000
B1106104742139N01231449EA0199902183000008015000
B1106144742059N01231469EA0198402164000007015000
B1106184741969N01231489EA0197502148000008015000
B1106224741879N01231479EA0196502143000008015000
B1106264741789N01231469EA0195002131000009015000
B1106304741690N01231460EA0195002120000009015000
B1106344741599N01231449EA0196502129000010015000
B1106384741509N01231439EA0197502138000010015000
B1106424741430N01231420EA0196502141000009015000
B1106464741339N01231389EA0196502139000009015000
B1106504741249N01231370EA0197502145000008015000
B1106544741159N01231359EA0197502147000009015000
B1106584741079N01231349EA0199002158000010015000
B1107024740989N01231359EA0198402163000009015000
B1107064740909N01231359EA0198402156000009015000
B1107104740819N01231370EA0197502150000009015000
B1107144740729N01231389EA0195002137000009015000
B1107184740639N01231389EA0194202119000009015000
B1107224740549N01231399EA0192602110000009015000
B1107264740448N01231399EA0191802096000009015000
B1107304740349N01231409EA0191802090000009015000
B1107344740259N01231409EA0191002087000009015000
B1107384740159N01231409EA0191002084000009015000
B1107424740069N01231399EA0191002079000010015000
B1107464739979N01231409EA0191002080000009015000
B1107504739888N01231420EA0190302075000009015000
B1107544739800N01231429EA0190302074000008015000
B1107584739709N01231429EA0189502070000008015000
B1108024739619N01231439EA0189502068000009015000
B1108064739529N01231449EA0190302070000009015000
B1108104739439N01231449EA0190302072000008015000
B1108144739359N01231449EA0191002074000008015000
B1108184739279N01231439EA0191802083000008015000
B1108224739200N01231429EA0192602092000008015000
B1108264739129N01231420EA0195002110000007015000
B1108304739070N01231409EA0195802130000006015000
B1108344739019N01231399EA0194202124000006015000
B1108384738949N01231389EA0193502111000006015000
B1108424738879N01231370EA0191802102000006015000
B1108464738810N01231339EA0191002086000006015000
B1108504738739N01231309EA0191002082000006015000
B1108544738669N01231279EA0191002080000006015000
B1108584738600N01231250EA0190302078000006015000
B1109024738519N01231219EA0188002065000006015000
B1109064738439N01231200EA0186202041000007015000
B1109104738349N01231179EA0184702029000007015000
B1109144738258N01231160EA0185502024000008015000
B1109184738170N01231139EA0185502025000008015000
B1109224738080N01231110EA0185502026000008015000
B1109264737998N01231080EA0183802022000008015000
B1109304737910N01231039EA0183202011000007015000
B1109344737819N01231009EA0183202003000008015000
B1109384737740N01230979EA0184702016000008015000
B1109424737650N01230959EA0185502024000008015000
B1109464737568N01230929EA0186202029000008015000
B1109504737499N01230889EA0187102041000008015000
B1109544737429N01230860EA0188002050000007015000
B1109584737359N01230829EA0186202046000007015000
B1110024737279N01230799EA0185502037000007015000
B1110064737199N01230770EA0184702024000007015000
B1110104737129N01230739EA0183802017000007015000
B1110144737050N01230699EA0183802015000007015000
B1110184736979N01230640EA0183202012000006015000
B1110224736909N01230589EA0181502002000006015000
B1110264736829N01230549EA0180801989000006015000
B1110304736750N01230510EA0180801983000006015000
B1110344736668N01230470EA0179301975000006015000
B1110384736589N01230439EA0178301962000007015000
B1110424736499N01230419EA0179301960000007015000
B1110464736429N01230390EA0179301967000007015000
B1110504736349N01230359EA0178301965000006015000
B1110544736269N01230329EA0177701957000006015000
B1110584736190N01230300EA0177701946000006015000
B1111024736108N01230269EA0176801942000006015000
B1111064736029N01230229EA0176001936000006015000
B1111104735938N01230199EA0176001931000006015000
B1111144735869N01230170EA0176001933000006015000
B1111184735789N01230139EA0176001932000006015000
B1111224735709N01230099EA0175301926000006015000
B1111264735629N01230069EA0175301923000006015000
B1111304735559N01230009EA0175301923000008015000
B1111344735519N01229920EA0176801931000009015000
B1111384735469N01229830EA0176001934000008015000
B1111424735420N01229769EA0177701939000007015000
B1111464735359N01229740EA0177701952000006015000
B1111504735299N01229729EA0178301956000007015000
B1111544735259N01229799EA0179301966000006015000
B1111584735309N01229879EA0177701965015006030000
B1112024735378N01229879EA0178301964000006015000
B1112064735409N01229790EA0180001977000007015000
B1112104735378N01229709EA0180001982000007015000
B1112144735319N01229689EA0180801979000007015000
B1112184735259N01229759EA0180801987000007015000
B1112224735229N01229839EA0181501989000007015000
B1112264735219N01229929EA0181501996000006015000
B1112304735248N01230009EA0180802000000006015000
B1112344735309N01230050EA0180801991000006015000
B1112384735369N01230040EA0180801987000006015000
B1112424735429N01230009EA0181501992000006015000
B1112464735489N01229969EA0180801994000006015000
B1112504735529N01229889EA0180801991000006015000
B1112544735569N01229799EA0181501991000007015000
B1112584735590N01229700EA0182402001000008015000
B1113024735609N01229599EA0182402002000007015000
B1113064735629N01229490EA0181501996000006015000
B1113104735629N01229379EA0180001986000006015000
B1113144735619N01229259EA0177701963000006015000
B1113184735619N01229129EA0176001941000007015000
B1113224735609N01228989EA0175301928000008015000
B1113264735590N01228849EA0175301924000009015000
B1113304735579N01228719EA0175301928000009015000
B1113344735559N01228590EA0176001929000009015000
B1113384735550N01228469EA0176001932000010015000
B1113424735539N01228349EA0174501926000009015000
B1113464735529N01228219EA0173001907000010015000
B1113504735519N01228089EA0172101895000010015000
B1113544735519N01227959EA0171401886000010015000
B1113584735508N01227819EA0169801872000010015000
B1114024735508N01227680EA0168201856000010015000
B1114064735499N01227539EA0168201850000010015000
B1114104735479N01227399EA0166701844000009015000
B1114144735469N01227269EA0165901834000009015000
B1114184735449N01227129EA0165201824000009015000
B1114224735439N01227000EA0165201818000010015000
B1114264735429N01226860EA0165201819000011015000
B1114304735429N01226730EA0167501831000012015000
B1114344735429N01226619EA0169801855000011015000
B1114384735378N01226560EA0170601875000009015000
B1114424735319N01226560EA0169801874000008015000
B1114464735269N01226619EA0169001863000008015000
B1114504735269N01226719EA0170601869000008015000
B1114544735309N01226769EA0169801872000008015000
B1114584735369N01226789EA0170601872000009015000
B1115024735429N01226799EA0171401883000009015000
B1115064735489N01226780EA0172101891000008015000
B1115104735519N01226700EA0173001895000008015000
B1115144735489N01226619EA0173701909000008015000
B1115184735420N01226610EA0174501909000008015000
B1115224735378N01226690EA0174501914000008015000
B1115264735409N01226769EA0175301916000008015000
B1115304735469N01226749EA0174501922000008015000
B1115344735489N01226659EA0176801928000009015000
B1115384735449N01226600EA0177701946000009015000
B1115424735378N01226610EA0177701946000008015000
B1115464735349N01226690EA0178301955000008015000
B1115504735369N01226780EA0177701956000008015000
B1115544735439N01226769EA0178301958000008015000
B1115584735469N01226690EA0179301966000008015000
B1116024735429N01226600EA0180801979000008015000
B1116064735369N01226589EA0181501986000008015000
B1116104735319N01226669EA0180801992000008015000
B1116144735339N01226759EA0181501989000008015000
B1116184735399N01226780EA0182402002000008015000
B1116224735439N01226700EA0183202004000008015000
B1116264735409N01226600EA0184702010000008015000
B1116304735349N01226589EA0186202029000007015000
B1116344735299N01226659EA0185502035000008015000
B1116384735309N01226749EA0185502029015008015000
B1116424735369N01226769EA0186202029000008015000
B1116464735409N01226700EA0187102037000008015000
B1116504735389N01226610EA0188002048000008015000
B1116544735319N01226600EA0188002052000008015000
B1116584735269N01226669EA0188002056000007015000
B1117024735299N01226759EA0188702061000008015000
B1117064735359N01226749EA0189502068000008015000
B1117104735369N01226659EA0189502070000008015000
B1117144735319N01226589EA0190302076000007015000
B1117184735259N01226639EA0190302081000008015000
B1117224735248N01226730EA0191002086000008015000
B1117264735309N01226780EA0190302094000008015000
B1117304735359N01226719EA0191002088000008015000
B1117344735378N01226629EA0192602104000008015000
B1117384735330N01226570EA0191802109000007015000
B1117424735259N01226610EA0191802099000007015000
B1117464735248N01226719EA0193502098000008015000
B1117504735290N01226769EA0193502113000008015000
B1117544735349N01226740EA0194202113000007015000
B1117584735359N01226650EA0194202122000007015000
B1118024735309N01226589EA0194202122000006015000
B1118064735229N01226600EA0194202120000007015000
B1118104735189N01226679EA0195002123000007015000
B1118144735169N01226780EA0195802129000008015000
B1118184735199N01226849EA0195802139000007015000
B1118224735259N01226839EA0195002130000007015000
B1118264735290N01226749EA0195002128000008015000
B1118304735290N01226650EA0196502138000008015000
B1118344735279N01226570EA0197502154000007015000
B1118384735229N01226509EA0197502156000008015000
B1118424735169N01226520EA0197502151000007015000
B1118464735120N01226579EA0196502152000008015000
B1118504735109N01226679EA0197502148000008015000
B1118544735139N01226759EA0197502153000007015000
B1118584735199N01226769EA0196502149000007015000
B1119024735248N01226719EA0198402152000007015000
B1119064735248N01226629EA0198402160000006015000
B1119104735208N01226560EA0198402160000006015000
B1119144735149N01226529EA0199002166000006015000
B1119184735089N01226560EA0199002174000007015000
B1119224735059N01226650EA0198402171000006015000
B1119264735089N01226730EA0198402168000006015000
B1119304735139N01226759EA0198402166000006015000
B1119344735199N01226719EA0199002167000006015000
B1119384735219N01226639EA0199002172000006015000
B1119424735199N01226560EA0199002175000006015000
B1119464735139N01226509EA0199902176000006015000
B1119504735078N01226520EA0199902183000006015000
B1119544735030N01226570EA0199902178000006015000
B1119584734979N01226639EA0199902175000006015000
B1120024734919N01226700EA0199002169000006015000
B1120064734860N01226749EA0199002165000006015000
B1120104734789N01226799EA0199002160000007015000
B1120144734730N01226860EA0198402159000007015000
B1120184734669N01226929EA0199002158000007015000
B1120224734619N01226990EA0200802172000006015000
B1120264734569N01227049EA0199902173000006015000
B1120304734509N01227099EA0198402162000006015000
B1120344734439N01227160EA0197502147000008015000
B1120384734369N01227210EA0199902160000008015000
B1120424734309N01227229EA0201602185000008015000
B1120464734260N01227250EA0200802186000008015000
B1120504734189N01227269EA0200802179000006015000
B1120544734130N01227279EA0200802182000006015000
B1120584734069N01227309EA0201602184000005015000
B1121024734009N01227349EA0200802184000005015000
B1121064733960N01227389EA0199902177000005015000
B1121104733899N01227439EA0200802177000006015000
B1121144733849N01227489EA0200802181000006015000
B1121184733799N01227550EA0199902179000006015000
B1121224733759N01227629EA0199902174000006015000
B1121264733709N01227699EA0199902176000006015000
B1121304733669N01227770EA0200802180000006015000
B1121344733639N01227860EA0199902180000005015000
B1121384733609N01227949EA0199002174000005015000
B1121424733579N01228039EA0197502161000005015000
B1121464733549N01228150EA0197502149000006015000
B1121504733519N01228249EA0196502144000006015000
B1121544733488N01228359EA0196502145000006015000
B1121584733449N01228450EA0195802143000006015000
B1122024733409N01228549EA0195002134000006015000
B1122064733369N01228649EA0195802131000006015000
B1122104733319N01228739EA0195002128000006015000
B1122144733289N01228840EA0193502120000006015000
B1122184733249N01228939EA0193502112000006015000
B1122224733219N01229029EA0193502109000006015000
B1122264733199N01229129EA0194202115000006015000
B1122304733169N01229220EA0193502117000006015000
B1122344733129N01229310EA0194202115000006015000
B1122384733100N01229389EA0195002124000006015000
B1122424733079N01229469EA0195002131000005015000
B1122464733049N01229539EA0195802132000005015000
B1122504733010N01229610EA0195002127000005015000
B1122544732970N01229689EA0194202124000005015000
B1122584732928N01229769EA0194202123000005015000
B1123024732888N01229849EA0194202120000005015000
B1123064732849N01229929EA0193502117000006015000
B1123104732809N01230019EA0193502115000006015000
B1123144732779N01230109EA0193502113000006015000
B1123184732739N01230199EA0194202115000006015000
B1123224732699N01230289EA0194202117000006015000
B1123264732670N01230390EA0194202121000006015000
B1123304732639N01230470EA0194202127000006015000
B1123344732589N01230549EA0194202122000006015000
B1123384732549N01230619EA0193502117000006015000
B1123424732498N01230690EA0191802107000006015000
B1123464732439N01230780EA0191802095000007015000
B1123504732379N01230879EA0192602100000007015000
B1123544732328N01230950EA0195002117000007015000
B1123584732269N01231009EA0197502140000007015000
B1124024732219N01231059EA0198402158000007015000
B1124064732189N01231149EA0198402153000007015000
B1124104732209N01231240EA0199002160000007015000
B1124144732269N01231250EA0199002167000007015000
B1124184732299N01231179EA0199002167000006015000
B1124224732269N01231089EA0199902165000007015000
B1124264732209N01231070EA0200802174000007015000
B1124304732149N01231129EA0201602183000007015000
B1124344732119N01231219EA0202302190000007015000
B1124384732089N01231299EA0203802206000007015000
B1124424732059N01231380EA0203802216000006015000
B1124464732070N01231469EA0203802213000006015000
B1124504732129N01231510EA0203802217000006015000
B1124544732179N01231469EA0204802217000006015000
B1124584732179N01231389EA0204802226000006015000
B1125024732129N01231330EA0204802222000006015000
B1125064732059N01231299EA0205502225000006015000
B1125104731999N01231319EA0207202240000007015000
B1125144731959N01231389EA0207202251000006015000
B1125184731969N01231469EA0207202254000006015000
B1125224732028N01231510EA0207202253000006015000
B1125264732079N01231460EA0208002257000006015000
B1125304732089N01231380EA0208802266000006015000
B1125344732059N01231290EA0208802268000006015000
B1125384731999N01231229EA0208802268000006015000
B1125424731940N01231179EA0208802267000006015000
B1125464731859N01231139EA0207202263000006015000
B1125504731768N01231089EA0205502237000007015000
B1125544731680N01231039EA0204802227000009015000
B1125584731589N01230979EA0204802224000009015000
B1126024731499N01230919EA0204802221000009015000
B1126064731409N01230860EA0203802220000009015000
B1126104731329N01230799EA0203802219000009015000
B1126144731239N01230739EA0203002214000009015000
B1126184731159N01230669EA0203002211000009015000
B1126224731089N01230600EA0203002212000008015000
B1126264731009N01230520EA0202302206000008015000
B1126304730939N01230449EA0200802193000008015000
B1126344730859N01230369EA0199902183000009015000
B1126384730780N01230279EA0199902175000009015000
B1126424730699N01230199EA0199002172000010015000
B1126464730619N01230119EA0199902171000011015000
B1126504730559N01230050EA0201602184000010015000
B1126544730499N01229979EA0202302196000009015000
B1126584730449N01229889EA0200802196000008015000
B1127024730399N01229799EA0199902186000008015000
B1127064730350N01229689EA0199002175000008015000
B1127104730299N01229579EA0199902176000008015000
B1127144730259N01229469EA0202302187000009015000
B1127184730209N01229389EA0204802215000008015000
B1127224730138N01229379EA0204802233000008015000
B1127264730090N01229440EA0203802225000006015000
B1127304730069N01229539EA0203802218000006015000
B1127344730090N01229639EA0203802219000006015000
B1127384730138N01229700EA0204802221000006015000
B1127424730209N01229709EA0205502232000007015000
B1127464730249N01229629EA0206402239000007015000
B1127504730229N01229519EA0207202247000008015000
B1127544730169N01229490EA0208802261000007015000
B1127584730109N01229549EA0207202262000007015000
B1128024730109N01229650EA0208002250000008015000
B1128064730178N01229700EA0209602257000009015000
B1128104730239N01229679EA0211302275000008015000
B1128144730269N01229589EA0212002292000008015000
B1128184730249N01229490EA0212902297000008015000
B1128224730178N01229459EA0213602302000007015000
B1128264730119N01229519EA0212902305000008015000
B1128304730109N01229639EA0212902300000008015000
B1128344730149N01229719EA0214502317000007015000
B1128384730209N01229750EA0216102335000008015000
B1128424730269N01229709EA0216902348000008015000
B1128464730299N01229620EA0217702354000007015000
B1128504730269N01229519EA0219402360000008015000
B1128544730209N01229490EA0220202374000008015000
B1128584730149N01229549EA0219402376000007015000
B1129024730149N01229660EA0220202372000007015000
B1129064730220N01229700EA0221102382000008015000
B1129104730269N01229629EA0222502398000009015000
B1129144730259N01229530EA0223402410000010015000
B1129184730199N01229490EA0224302419000009015000
B1129224730129N01229539EA0224302420000010015000
B1129264730119N01229650EA0226102424000009015000
B1129304730169N01229719EA0226902441000009015000
B1129344730239N01229709EA0227602452000009015000
B1129384730299N01229679EA0228402458000010015000
B1129424730329N01229599EA0229302475000009015000
B1129464730329N01229499EA0229302475000008015000
B1129504730279N01229429EA0230202478000008015000
B1129544730209N01229440EA0230802486000008015000
B1129584730159N01229519EA0230802493000007015000
B1130024730178N01229620EA0231802493000007015000
B1130064730229N01229679EA0233402509000008015000
B1130104730289N01229669EA0234202526000007015000
B1130144730329N01229589EA0234202527000007015000
B1130184730329N01229490EA0235102529000006015000
B1130224730269N01229429EA0235102535000006015000
B1130264730209N01229449EA0235802540000006015000
B1130304730169N01229539EA0235802541000007015000
B1130344730199N01229639EA0235802544000007015000
B1130384730269N01229669EA0237602558000007015000
B1130424730319N01229639EA0238402571000006015000
B1130464730350N01229549EA0238402576000006015000
B1130504730329N01229449EA0238402573000007015000
B1130544730279N01229350EA0237602571000007015000
B1130584730220N01229259EA0235802556000008015000
B1131024730149N01229159EA0233402529000010015000
B1131064730069N01229060EA0232602510000011015000
B1131104729999N01228949EA0231802502000010015000
B1131144729920N01228840EA0231802500000011015000
B1131184729849N01228729EA0231802499000010015000
B1131224729790N01228630EA0230802498000009015000
B1131264729719N01228529EA0230802498000009015000
B1131304729660N01228429EA0230802495000009015000
B1131344729589N01228339EA0229302487000009015000
B1131384729519N01228249EA0229302479000009015000
B1131424729439N01228179EA0229302476000009015000
B1131464729360N01228110EA0228402478000009015000
B1131504729278N01228049EA0228402469000008015000
B1131544729199N01227980EA0226902457000008015000
B1131584729109N01227919EA0226902451000008015000
B1132024729029N01227860EA0226902450000008015000
B1132064728949N01227799EA0226902448000008015000
B1132104728869N01227739EA0226102445000008015000
B1132144728789N01227669EA0226102440000008015000
B1132184728709N01227619EA0226102440000008015000
B1132224728630N01227559EA0225202438000008015000
B1132264728539N01227499EA0225202433000009015000
B1132304728469N01227439EA0225202436000010015000
B1132344728389N01227389EA0225202440000009015000
B1132384728319N01227340EA0224302437000008015000
B1132424728239N01227290EA0224302429000008015000
B1132464728169N01227229EA0223402424000008015000
B1132504728099N01227170EA0222502413000008015000
B1132544728019N01227099EA0221802403000009015000
B1132584727949N01227040EA0221102396000009015000
B1133024727879N01226969EA0220202389000008015000
B1133064727809N01226910EA0220202385000008015000
B1133104727739N01226839EA0219402381000008015000
B1133144727669N01226769EA0219402375000008015000
B1133184727600N01226709EA0219402371000008015000
B1133224727529N01226639EA0217702369000008015000
B1133264727470N01226570EA0217702359000008015000
B1133304727399N01226499EA0216902357000008015000
B1133344727340N01226419EA0216902356000008015000
B1133384727279N01226339EA0216102347000007015000
B1133424727219N01226260EA0215202337000008015000
B1133464727159N01226170EA0216102335000008015000
B1133504727088N01226079EA0216902345000008015000
B1133544727029N01226010EA0220202369000008015000
B1133584726979N01225949EA0221802399000008015000
B1134024726939N01225889EA0221802404000008015000
B1134064726919N01225790EA0221102396000006015000
B1134104726958N01225710EA0221102395000006015000
B1134144727009N01225679EA0220202393000006015000
B1134184727079N01225719EA0220202384000006015000
B1134224727119N01225799EA0221102388000007015000
B1134264727149N01225889EA0222502399000008015000
B1134304727170N01225979EA0226102422000008015000
B1134344727139N01226050EA0227602446000007015000
B1134384727079N01226069EA0227602458000006015000
B1134424727040N01226010EA0228402461000007015000
B1134464727029N01225920EA0229302473000007015000
B1134504727069N01225849EA0229302476000007015000
B1134544727128N01225840EA0230802485000006015000
B1134584727170N01225909EA0231802500000006015000
B1135024727170N01225989EA0233402513000006015000
B1135064727109N01226029EA0234202525000006015000
B1135104727059N01225969EA0234202526000006015000
B1135144727049N01225870EA0235802535000008015000
B1135184727079N01225799EA0237602550000007015000
B1135224727139N01225790EA0238402563000008015000
B1135264727170N01225849EA0239202574000007015000
B1135304727149N01225939EA0239202579000007015000
B1135344727088N01225949EA0240102587000006015000
B1135384727049N01225880EA0241702598000006015000
B1135424727059N01225790EA0241702604000006015000
B1135464727109N01225740EA0242702611000007015000
B1135504727170N01225769EA0243502621000007015000
B1135544727189N01225859EA0245202628000007015000
B1135584727149N01225929EA0245202636000006015000
B1136024727088N01225939EA0246902644000006015000
B1136064727040N01225880EA0247702655000007015000
B1136104727049N01225779EA0248602663000007015000
B1136144727088N01225729EA0249402670000008015000
B1136184727149N01225750EA0250202679000008015000
B1136224727170N01225840EA0251102691000007015000
B1136264727128N01225899EA0251102698000007015000
B1136304727059N01225899EA0252002697000006015000
B1136344727000N01225870EA0252702710000007015000
B1136384726969N01225790EA0253502723000007015000
B1136424726969N01225700EA0252702721000006015000
B1136464727000N01225609EA0252702715000006015000
B1136504727000N01225509EA0252702716000006015000
B1136544726958N01225429EA0254502723000006015000
B1136584726910N01225369EA0255402744000007015000
B1137024726839N01225329EA0254502740000008015000
B1137064726759N01225289EA0253502734000008015000
B1137104726669N01225239EA0252702720000008015000
B1137144726579N01225190EA0252002711000009015000
B1137184726480N01225140EA0252702711000009015000
B1137224726379N01225089EA0252702717000011015000
B1137264726289N01225049EA0252002713000010015000
B1137304726189N01224999EA0251102702000009015000
B1137344726098N01224930EA0249402691000010015000
B1137384725999N01224850EA0250202682000010015000
B1137424725909N01224769EA0250202685000010015000
B1137464725829N01224699EA0250202691000010015000
B1137504725739N01224630EA0250202694000009015000
B1137544725649N01224559EA0250202690000010015000
B1137584725549N01224509EA0248602684000009015000
B1138024725450N01224460EA0247702673000010015000
B1138064725359N01224399EA0248602671000009015000
B1138104725269N01224339EA0248602676000009015000
B1138144725179N01224290EA0248602675000008015000
B1138184725089N01224240EA0248602671000008015000
B1138224724999N01224200EA0247702671000008015000
B1138264724909N01224169EA0247702668000008015000
B1138304724829N01224129EA0247702667000007015000
B1138344724739N01224079EA0246902660000007015000
B1138384724659N01224039EA0246002653000007015000
B1138424724569N01223990EA0245202650000007015000
B1138464724479N01223950EA0245202643000008015000
B1138504724389N01223919EA0244402636000008015000
B1138544724299N01223900EA0243502629000008015000
B1138584724208N01223889EA0243502629000008015000
B1139024724120N01223869EA0243502625000008015000
B1139064724029N01223860EA0242702616000008015000
B1139104723939N01223839EA0242702612000008015000
B1139144723860N01223829EA0241702612000008015000
B1139184723769N01223810EA0241702605000008015000
B1139224723679N01223779EA0241702601000009015000
B1139264723608N01223730EA0241702607000008015000
B1139304723539N01223669EA0241702609000008015000
B1139344723478N01223609EA0241702608000008015000
B1139384723419N01223550EA0241002601000007015000
B1139424723348N01223479EA0240102592000008015000
B1139464723279N01223409EA0240102592000009015000
B1139504723209N01223349EA0244402606000009015000
B1139544723159N01223300EA0246902648000008015000
B1139584723109N01223269EA0248602672000006015000
B1140024723059N01223229EA0247702677000006015000
B1140064723009N01223189EA0247702667000006015000
B1140104722949N01223139EA0246902661000006015000
B1140144722899N01223090EA0246902661000006015000
B1140184722839N01223029EA0245202653000006015000
B1140224722779N01222969EA0243502634000006015000
B1140264722709N01222899EA0243502622000007015000
B1140304722639N01222830EA0243502618000007015000
B1140344722559N01222769EA0243502625000008015000
B1140384722488N01222709EA0246002634000008015000
B1140424722429N01222669EA0248602665000008015000
B1140464722379N01222639EA0248602678000006015000
B1140504722318N01222619EA0248602679000005015000
B1140544722249N01222610EA0249402685000005015000
B1140584722188N01222610EA0250202692000005015000
B1141024722119N01222610EA0250202697000005015000
B1141064722049N01222610EA0249402692000005015000
B1141104721979N01222579EA0248602680000005015000
B1141144721930N01222499EA0246902667000005015000
B1141184721930N01222390EA0246902661000006015000
B1141224721949N01222279EA0246002652000006015000
B1141264721979N01222169EA0244402639000007015000
B1141304722018N01222039EA0241702616000008015000
B1141344722069N01221909EA0241002604000008015000
B1141384722109N01221790EA0241002599000009015000
B1141424722159N01221660EA0240102593000009015000
B1141464722199N01221519EA0239202582000009015000
B1141504722239N01221379EA0237602570000009015000
B1141544722279N01221240EA0237602562000009015000
B1141584722309N01221100EA0237602561000009015000
B1142024722349N01220959EA0236702556000009015000
B1142064722389N01220829EA0237602556000009015000
B1142104722429N01220699EA0235802556000009015000
B1142144722459N01220569EA0235102539000009015000
B1142184722488N01220439EA0235102536000009015000
B1142224722530N01220309EA0234202529000008015000
B1142264722569N01220170EA0232602517000009015000
B1142304722609N01220030EA0231802505000010015000
B1142344722639N01219900EA0232602505000011015000
B1142384722679N01219770EA0234202519000010015000
B1142424722709N01219650EA0233402522000009015000
B1142464722748N01219529EA0232602517000009015000
B1142504722790N01219399EA0232602510000009015000
B1142544722819N01219269EA0232602504000009015000
B1142584722849N01219139EA0234202515000011015000
B1143024722878N01219019EA0235102529000009015000
B1143064722918N01218910EA0234202532000009015000
B1143104722949N01218779EA0233402526000009015000
B1143144722989N01218649EA0232602517000010015000
B1143184723029N01218519EA0231802505000009015000
B1143224723069N01218389EA0230802497000009015000
B1143264723119N01218259EA0230202493000009015000
B1143304723169N01218140EA0229302483000009015000
B1143344723220N01218010EA0228402471000010015000
B1143384723269N01217880EA0230802472000014015000
B1143424723308N01217789EA0235802523000011015000
B1143464723329N01217710EA0236702557000008015000
B1143504723369N01217639EA0236702559000006015000
B1143544723399N01217569EA0236702557000006015000
B1143584723439N01217489EA0235802555000006015000
B1144024723478N01217399EA0234202540000006015000
B1144064723539N01217309EA0232602522000007015000
B1144104723589N01217209EA0230802506000008015000
B1144144723648N01217110EA0230202494000009015000
B1144184723709N01217009EA0230202490000009015000
B1144224723769N01216900EA0230202490000008015000
B1144264723820N01216810EA0230202485000008015000
B1144304723879N01216720EA0229302480000008015000
B1144344723939N01216619EA0228402473000008015000
B1144384723999N01216519EA0228402470000008015000
B1144424724049N01216430EA0227602464000008015000
B1144464724109N01216329EA0226902456000008015000
B1144504724160N01216239EA0226902452000009015000
B1144544724219N01216139EA0226102447000009015000
B1144584724279N01216049EA0225202436000008015000
B1145024724329N01215959EA0226102441000008015000
B1145064724389N01215879EA0226102444000008015000
B1145104724439N01215799EA0225202442000007015000
B1145144724489N01215719EA0224302436000007015000
B1145184724539N01215629EA0223402422000007015000
B1145224724590N01215549EA0224302422000008015000
B1145264724638N01215480EA0226102437000008015000
B1145304724669N01215400EA0226902450000007015000
B1145344724709N01215339EA0227602454000006015000
B1145384724759N01215319EA0227602462000009015000
B1145424724819N01215329EA0228402470000007015000
B1145464724850N01215390EA0227602469000008015000
B1145504724839N01215489EA0227602464000007015000
B1145544724799N01215549EA0227602468000007015000
B1145584724749N01215579EA0227602462000008015000
B1146024724680N01215560EA0228402464000007015000
B1146064724629N01215520EA0228402470000006015000
B1146104724599N01215449EA0228402469000006015000
B1146144724599N01215369EA0227602467000006015000
B1146184724638N01215310EA0227602460000007015000
B1146224724699N01215279EA0226102453000006015000
B1146264724768N01215260EA0226902447000006015000
B1146304724829N01215239EA0229302467000007015000
B1146344724889N01215239EA0230802488000007015000
B1146384724929N01215229EA0230802503000006015000
B1146424724989N01215239EA0230802496000008015000
B1146464725049N01215260EA0229302489000006015000
B1146504725119N01215270EA0226902467000006015000
B1146544725189N01215270EA0226102450000006015000
B1146584725269N01215270EA0225202440000007015000
B1147024725359N01215260EA0225202433000008015000
B1147064725429N01215229EA0226102438000008015000
B1147104725509N01215189EA0225202439000008015000
B1147144725580N01215149EA0225202431000008015000
B1147184725659N01215100EA0224302431000008015000
B1147224725729N01215050EA0224302428000008015000
B1147264725789N01214979EA0224302427000008015000
B1147304725859N01214909EA0224302426000007015000
B1147344725909N01214830EA0224302425000007015000
B1147384725959N01214750EA0223402421000007015000
B1147424726019N01214670EA0222502414000008015000
B1147464726069N01214589EA0221802407000008015000
B1147504726129N01214509EA0222502407000008015000
B1147544726180N01214429EA0222502404000008015000
B1147584726228N01214349EA0222502405000008015000
B1148024726279N01214280EA0221802403000007015000
B1148064726329N01214199EA0220202393000007015000
B1148104726389N01214129EA0220202384000008015000
B1148144726449N01214049EA0219402377000008015000
B1148184726509N01213970EA0218502372000008015000
B1148224726559N01213890EA0218502368000008015000
B1148264726599N01213800EA0217702364000008015000
B1148304726658N01213720EA0216902356000007015000
B1148344726709N01213649EA0216102351000007015000
B1148384726769N01213569EA0215202342000008015000
B1148424726839N01213489EA0216102338000008015000
B1148464726910N01213410EA0216102341000008015000
B1148504726969N01213339EA0217702348000008015000
B1148544727019N01213259EA0219402368000008015000
B1148584727059N01213200EA0221102387000008015000
B1149024727109N01213139EA0221102393000007015000
B1149064727149N01213080EA0221802398000007015000
B1149104727189N01213030EA0223402413000006015000
B1149144727229N01212959EA0225202428000006015000
B1149184727269N01212900EA0226102442000006015000
B1149224727309N01212849EA0227602459000007015000
B1149264727359N01212799EA0229302473000006015000
B1149304727399N01212749EA0230802495000007015000
B1149344727430N01212680EA0230802499000007015000
B1149384727439N01212589EA0229302486000007015000
B1149424727449N01212489EA0230202482000008015000
B1149464727489N01212419EA0232602504000008015000
B1149504727549N01212399EA0234202523000007015000
B1149544727609N01212439EA0235102537000006015000
B1149584727629N01212520EA0235102537000007015000
B1150024727609N01212609EA0235802539000008015000
B1150064727558N01212650EA0235802545000008015000
B1150104727509N01212609EA0234202532000008015000
B1150144727459N01212529EA0234202527000009015000
B1150184727430N01212449EA0235802534000009015000
B1150224727430N01212369EA0238402560000008015000
B1150264727459N01212300EA0237602578000008015000
B1150304727509N01212229EA0238402569000008015000
B1150344727569N01212159EA0240102581000008015000
B1150384727619N01212130EA0241002594000007015000
B1150424727679N01212109EA0241702605000007015000
B1150464727730N01212109EA0243502623000006015000
B1150504727789N01212119EA0241702623000008015000
B1150544727839N01212149EA0241002604000008015000
B1150584727889N01212210EA0241702604000007015000
B1151024727909N01212300EA0241702606000008015000
B1151064727900N01212380EA0241002605000009015000
B1151104727839N01212419EA0241002595000010015000
B1151144727770N01212409EA0242702600000009015000
B1151184727719N01212350EA0245202625000008015000
B1151224727709N01212269EA0246002650000009015000
B1151264727739N01212189EA0246902652000008015000
B1151304727789N01212149EA0247702661000007015000
B1151344727849N01212139EA0247702664000006015000
B1151384727909N01212179EA0246902662000010015000
B1151424727969N01212210EA0245202652000008015000
B1151464728039N01212189EA0243502635000007015000
B1151504728109N01212139EA0241702615000007015000
B1151544728179N01212059EA0241002598000007015000
B1151584728248N01211979EA0240102592000007015000
B1152024728319N01211910EA0240102591000007015000
B1152064728379N01211819EA0240102588000006015000
B1152104728449N01211729EA0238402579000007015000
B1152144728509N01211639EA0238402572000007015000
B1152184728579N01211539EA0237602568000008015000
B1152224728639N01211449EA0236702559000008015000
B1152264728709N01211350EA0235802549000008015000
B1152304728769N01211249EA0235102547000008015000
B1152344728839N01211149EA0235102539000008015000
B1152384728899N01211039EA0234202535000008015000
B1152424728939N01210930EA0234202531000008015000
B1152464728978N01210800EA0233402526000008015000
B1152504729009N01210670EA0233402519000008015000
B1152544729039N01210549EA0232602518000008015000
B1152584729069N01210419EA0232602513000008015000
B1153024729089N01210289EA0231802511000008015000
B1153064729099N01210150EA0232602509000008015000
B1153104729119N01210030EA0232602510000008015000
B1153144729139N01209900EA0232602508000007015000
B1153184729159N01209779EA0232602507000007015000
B1153224729190N01209659EA0231802507000007015000
B1153264729219N01209539EA0231802505000008015000
B1153304729249N01209420EA0230802501000008015000
B1153344729269N01209309EA0230802495000007015000
B1153384729299N01209189EA0230802490000008015000
B1153424729320N01209080EA0230202492000008015000
B1153464729349N01208969EA0230202483000008015000
B1153504729369N01208849EA0230202480000008015000
B1153544729389N01208740EA0230202486000008015000
B1153584729419N01208639EA0230802488000008015000
B1154024729469N01208570EA0232602499000008015000
B1154064729539N01208570EA0234202521000007015000
B1154104729589N01208629EA0234202533000007015000
B1154144729629N01208719EA0234202529000008015000
B1154184729679N01208829EA0234202521000009015000
B1154224729719N01208929EA0234202527000009015000
B1154264729769N01209030EA0234202526000008015000
B1154304729819N01209120EA0232602516000008015000
B1154344729878N01209219EA0230802499000008015000
B1154384729929N01209319EA0230802495000008015000
B1154424729989N01209420EA0230202495000008015000
B1154464730039N01209519EA0230202485000008015000
B1154504730109N01209619EA0229302477000009015000
B1154544730169N01209720EA0228402468000009015000
B1154584730229N01209810EA0229302467000009015000
B1155024730289N01209900EA0230202482000009015000
B1155064730339N01209989EA0230802492000008015000
B1155104730409N01210070EA0230202489000008015000
B1155144730480N01210150EA0229302479000008015000
B1155184730539N01210219EA0230202479000008015000
B1155224730608N01210289EA0229302482000007015000
B1155264730669N01210370EA0228402473000006015000
B1155304730729N01210450EA0226102457000006015000
B1155344730799N01210549EA0224302434000008015000
B1155384730868N01210639EA0223402417000008015000
B1155424730950N01210739EA0222502410000009015000
B1155464731029N01210829EA0221802403000009015000
B1155504731109N01210909EA0221802400000009015000
B1155544731189N01210999EA0221802396000009015000
B1155584731269N01211079EA0221802395000009015000
B1156024731338N01211169EA0221102393000009015000
B1156064731419N01211249EA0221102385000009015000
B1156104731499N01211339EA0220202382000009015000
B1156144731569N01211419EA0221102383000009015000
B1156184731629N01211499EA0221102388000009015000
B1156224731689N01211589EA0221802392000008015000
B1156264731749N01211669EA0221802398000008015000
B1156304731810N01211749EA0221102395000008015000
B1156344731859N01211839EA0221102393000007015000
B1156384731879N01211950EA0221102391000007015000
B1156424731898N01212069EA0220202385000007015000
B1156464731898N01212189EA0219402379000007015000
B1156504731898N01212319EA0219402376000007015000
B1156544731898N01212439EA0218502372000008015000
B1156584731909N01212569EA0217702358000008015000
B1157024731909N01212699EA0218502362000008015000
B1157064731909N01212820EA0218502369000008015000
B1157104731919N01212940EA0219402366000008015000
B1157144731929N01213049EA0219402371000008015000
B1157184731959N01213160EA0218502368000008015000
B1157224731980N01213269EA0217702358000007015000
B1157264732019N01213380EA0216902352000008015000
B1157304732059N01213489EA0216102348000008015000
B1157344732110N01213590EA0214502338000008015000
B1157384732158N01213699EA0214502325000008015000
B1157424732219N01213800EA0213602319000008015000
B1157464732289N01213899EA0212902311000008015000
B1157504732359N01213980EA0212002306000008015000
B1157544732429N01214049EA0211302298000008015000
B1157584732519N01214119EA0209602285000008015000
B1158024732599N01214169EA0208802273000009015000
B1158064732689N01214230EA0208002261000009015000
B1158104732769N01214289EA0207202256000009015000
B1158144732859N01214339EA0206402246000009015000
B1158184732959N01214379EA0205502234000009015000
B1158224733049N01214389EA0204802225000009015000
B1158264733149N01214389EA0203002218000009015000
B1158304733249N01214379EA0203002209000009015000
B1158344733339N01214400EA0203802212000010015000
B1158384733419N01214429EA0204802224000010015000
B1158424733488N01214499EA0204802229000009015000
B1158464733539N01214589EA0203802222000009015000
B1158504733589N01214689EA0203802214000008015000
B1158544733629N01214799EA0203002210000008015000
B1158584733679N01214909EA0202302206000008015000
B1159024733719N01215019EA0202302200000008015000
B1159064733759N01215119EA0201602193000008015000
B1159104733809N01215229EA0200802188000008015000
B1159144733859N01215339EA0200802184000008015000
B1159184733909N01215440EA0199902181000008015000
B1159224733960N01215549EA0200802179000008015000
B1159264734000N01215659EA0199902180000008015000
B1159304734039N01215769EA0199002177000008015000
B1159344734088N01215879EA0199002168000008015000
B1159384734139N01215990EA0198402162000008015000
B1159424734189N01216089EA0197502158000008015000
B1159464734260N01216189EA0197502154000009015000
B1159504734319N01216279EA0197502149000008015000
B1159544734390N01216369EA0197502148000008015000
B1159584734449N01216459EA0197502152000008015000
B1200024734509N01216550EA0198402154000008015000
B1200064734569N01216640EA0197502153000008015000
B1200104734629N01216720EA0196502148000008015000
B1200144734699N01216810EA0196502140000008015000
B1200184734759N01216909EA0195802137000008015000
B1200224734809N01217020EA0196502140000008015000
B1200264734829N01217129EA0196502141000008015000
B1200304734849N01217249EA0195802138000008015000
B1200344734879N01217370EA0195002131000008015000
B1200384734900N01217500EA0195002125000008015000
B1200424734929N01217609EA0195002127000008015000
B1200464734959N01217720EA0195002130000008015000
B1200504734990N01217829EA0194202127000007015000
B1200544735019N01217939EA0193502118000007015000
B1200584735049N01218060EA0193502110000007015000
B1201024735069N01218169EA0193502111000008015000
B1201064735109N01218279EA0193502111000008015000
B1201104735160N01218369EA0192602108000008015000
B1201144735208N01218459EA0192602102000008015000
B1201184735269N01218549EA0192602103000008015000
B1201224735330N01218629EA0192602101000008015000
B1201264735378N01218719EA0191802098000008015000
B1201304735429N01218809EA0191802095000007015000
B1201344735499N01218880EA0191002091000007015000
B1201384735579N01218929EA0190302084000007015000
B1201424735659N01218949EA0190302080000008015000
B1201464735739N01218960EA0191002081000008015000
B1201504735819N01218969EA0191002083000008015000
B1201544735909N01218979EA0191002087000008015000
B1201584735978N01218979EA0191802090000008015000
B1202024736049N01218969EA0193502103000008015000
B1202064736108N01218960EA0194202116000006015000
B1202104736169N01218960EA0193502114000005015000
B1202144736229N01218949EA0193502109000005015000
B1202184736299N01218939EA0192602107000006015000
B1202224736359N01218939EA0192602105000006015000
B1202264736419N01218939EA0191002096000007015000
B1202304736490N01218920EA0189502078000007015000
B1202344736549N01218899EA0189502070000007015000
B1202384736620N01218880EA0189502069000006015000
B1202424736679N01218859EA0189502070000007015000
B1202464736729N01218849EA0189502073000007015000
B1202504736789N01218819EA0188702072000007015000
B1202544736849N01218809EA0188702064000006015000
B1202584736909N01218790EA0188702061000006015000
B1203024736959N01218750EA0189502067000007015000
B1203064736999N01218709EA0190302077000007015000
B1203104737050N01218689EA0191002078000008015000
B1203144737098N01218740EA0192602092000007015000
B1203184737098N01218830EA0193502109000007015000
B1203224737050N01218880EA0194202121000007015000
B1203264736989N01218839EA0194202125000008015000
B1203304736979N01218750EA0194202120000008015000
B1203344737019N01218689EA0195802130000007015000
B1203384737079N01218700EA0197502143000008015000
B1203424737109N01218779EA0198402158000008015000
B1203464737089N01218880EA0199002167000008015000
B1203504737019N01218920EA0200802181000008015000
B1203544736968N01218880EA0202302195000008015000
B1203584736959N01218799EA0202302197000008015000
B1204024736999N01218750EA0203802207000007015000
B1204064737050N01218799EA0205502221000008015000
B1204104737039N01218899EA0206402237000008015000
B1204144736968N01218920EA0207202242000008015000
B1204184736929N01218849EA0208802253000009015000
B1204224736949N01218769EA0209602269000009015000
B1204264737010N01218779EA0211302283000008015000
B1204304737029N01218870EA0212902297000008015000
B1204344736989N01218960EA0215202316000008015000
B1204384736920N01218960EA0215202330000008015000
B1204424736880N01218899EA0215202334000008015000
B1204464736909N01218819EA0215202332000009015000
B1204504736968N01218769EA0214502333000008015000
B1204544737039N01218719EA0215202331000009015000
B1204584737119N01218669EA0214502330000010015000
B1205024737189N01218599EA0214502327000010015000
B1205064737259N01218509EA0214502327000009015000
B1205104737310N01218409EA0216102332000009015000
B1205144737369N01218329EA0216102344000009015000
B1205184737440N01218270EA0214502336000008015000
B1205224737519N01218219EA0213602322000008015000
B1205264737599N01218209EA0212902312000008015000
B1205304737689N01218219EA0212902308000008015000
B1205344737780N01218239EA0212902305000008015000
B1205384737868N01218249EA0211302300000008015000
B1205424737959N01218270EA0210402286000008015000
B1205464738059N01218289EA0209602280000009015000
B1205504738149N01218320EA0209602277000009015000
B1205544738239N01218349EA0210402277000009015000
B1205584738329N01218379EA0209602277000009015000
B1206024738419N01218409EA0209602275000008015000
B1206064738510N01218440EA0209602273000008015000
B1206104738600N01218469EA0208802270000008015000
B1206144738679N01218509EA0208802265000008015000
B1206184738759N01218549EA0209602267000008015000
B1206224738829N01218599EA0208802271000007015000
B1206264738909N01218639EA0208802265000008015000
B1206304738979N01218679EA0207202259000007015000
B1206344739059N01218729EA0205502245000007015000
B1206384739149N01218779EA0203802224000008015000
B1206424739240N01218830EA0203802216000008015000
B1206464739319N01218880EA0203002210000009015000
B1206504739409N01218939EA0203002207000009015000
B1206544739500N01218989EA0202302200000009015000
B1206584739588N01219040EA0201602191000010015000
B1207024739670N01219079EA0200802184000010015000
B1207064739749N01219139EA0200802185000010015000
B1207104739819N01219220EA0199902182000010015000
B1207144739888N01219310EA0198402169000009015000
B1207184739949N01219399EA0197502158000009015000
B1207224740018N01219480EA0196502150000009015000
B1207264740089N01219579EA0195802140000009015000
B1207304740159N01219669EA0195002124000011015000
B1207344740230N01219759EA0194202120000011015000
B1207384740299N01219839EA0194202115000011015000
B1207424740379N01219910EA0194202116000011015000
B1207464740448N01219969EA0193502114000011015000
B1207504740519N01220019EA0192602107000010015000
B1207544740599N01220059EA0192602100000009015000
B1207584740669N01220109EA0191802095000009015000
B1208024740729N01220170EA0191802093000009015000
B1208064740790N01220229EA0191002090000009015000
B1208104740849N01220279EA0190302083000008015000
B1208144740920N01220330EA0189502071000008015000
B1208184740989N01220389EA0188002060000008015000
B1208224741039N01220470EA0188002052000008015000
B1208264741090N01220569EA0187102045000008015000
B1208304741119N01220669EA0186202043000008015000
B1208344741169N01220770EA0185502036000008015000
B1208384741220N01220839EA0184702029000008015000
B1208424741289N01220890EA0183802020000008015000
B1208464741359N01220919EA0183202010000009015000
B1208504741439N01220940EA0182402004000009015000
B1208544741509N01220949EA0182402001000008015000
B1208584741579N01220959EA0181501997000009015000
B1209024741650N01220959EA0180801990000008015000
B1209064741729N01220949EA0180801985000009015000
B1209104741809N01220940EA0180001979000009015000
B1209144741889N01220930EA0179301970000009015000
B1209184741979N01220940EA0179301967000009015000
B1209224742059N01220949EA0180801970000010015000
B1209264742129N01220949EA0182401984000010015000
B1209304742189N01220959EA0185502011000010015000
B1209344742239N01220969EA0185502033000008015000
B1209384742299N01220980EA0184702028000007015000
B1209424742359N01220989EA0184702023000008015000
B1209464742420N01221009EA0184702023000008015000
B1209504742489N01221020EA0184702018000007015000
B1209544742569N01221039EA0183802020000009015000
B1209584742638N01221070EA0184702018000009015000
B1210024742709N01221079EA0184702020000009015000
B1210064742779N01221100EA0187102031000009015000
B1210104742850N01221110EA0188002051000008015000
B1210144742909N01221119EA0188002056000007015000
B1210184742980N01221139EA0184702042000007015000
B1210224743059N01221150EA0181502008000008015000
B1210264743159N01221169EA0180001985000009015000
B1210304743259N01221190EA0179301971000011015000
B1210344743349N01221219EA0178301960000012015000
B1210384743450N01221240EA0178301958000012015000
B1210424743549N01221269EA0177701951000013015000
B1210464743659N01221309EA0176801942000013015000
B1210504743759N01221330EA0176801939000014015000
B1210544743849N01221360EA0177701943000014015000
B1210584743949N01221389EA0176801944000012015000
B1211024744039N01221419EA0176001940000011015000
B1211064744129N01221459EA0175301927000011015000
B1211104744228N01221490EA0174501923000011015000
B1211144744319N01221519EA0174501917000011015000
B1211184744409N01221559EA0173701912000011015000
B1211224744499N01221580EA0173701909000011015000
B1211264744589N01221609EA0173001906000011015000
B1211304744679N01221639EA0172101897000011015000
B1211344744769N01221660EA0171401889000011015000
B1211384744859N01221679EA0171401886000011015000
B1211424744949N01221699EA0172101889000012015000
B1211464745029N01221689EA0174501899000011015000
B1211504745088N01221689EA0175301926000009015000
B1211544745149N01221679EA0175301930000008015000
B1211584745199N01221670EA0175301930000007015000
B1212024745249N01221649EA0175301926000008015000
B1212064745309N01221649EA0175301927000007015000
B1212104745359N01221649EA0174501922000006015000
B1212144745419N01221670EA0173001912000006015000
B1212184745479N01221699EA0173001902000006015000
B1212224745539N01221759EA0173701901000007015000
B1212264745579N01221819EA0174501916000007015000
B1212304745619N01221880EA0175301922000007015000
B1212344745669N01221939EA0175301926000007015000
B1212384745709N01221989EA0176001931000007015000
B1212424745759N01222029EA0175301934000007015000
B1212464745809N01222069EA0174501924000007015000
B1212504745860N01222100EA0174501919000006015000
B1212544745919N01222129EA0175301924000007015000
B1212584745959N01222169EA0175301930000006015000
B1213024746019N01222199EA0176001932000010015000
B1213064746070N01222220EA0176001933000008015000
B1213104746129N01222239EA0176001939000007015000
B1213144746179N01222260EA0174501932000006015000
B1213184746248N01222299EA0173001908000006015000
B1213224746309N01222350EA0171401895000006015000
B1213264746378N01222400EA0171401892000006015000
B1213304746449N01222449EA0171401889000007015000
B1213344746509N01222499EA0170601882000006015000
B1213384746579N01222559EA0169801875000007015000
B1213424746649N01222619EA0169001867000007015000
B1213464746709N01222690EA0168201861000007015000
B1213504746769N01222749EA0169801863000008015000
B1213544746829N01222820EA0171401877000008015000
B1213584746879N01222870EA0171401885000008015000
B1214024746939N01222870EA0171401892000008015000
B1214064746969N01222790EA0170601887000006015000
B1214104746959N01222700EA0170601882000006015000
B1214144746909N01222639EA0169801879000005015000
B1214184746839N01222650EA0169801876000006015000
B1214224746799N01222709EA0169801873000006015000
B1214264746789N01222799EA0169001870000006015000
B1214304746809N01222889EA0168201868000007015000
B1214344746848N01222969EA0169001863000006015000
B1214384746879N01223059EA0168201864000006015000
B1214424746909N01223139EA0167501852000006015000
B1214464746939N01223239EA0165901840000006015000
B1214504746978N01223329EA0165201834000006015000
B1214544747020N01223430EA0165201828000006015000
B1214584747049N01223520EA0164301822000006015000
B1215024747079N01223619EA0163501812000007015000
B1215064747119N01223730EA0162801807000008015000
B1215104747148N01223820EA0162801802000008015000
B1215144747190N01223909EA0162801807000008015000
B1215184747230N01223990EA0162801808000008015000
B1215224747259N01224079EA0162801807000007015000
B1215264747289N01224160EA0163501807000006015000
B1215304747320N01224240EA0163501810000006015000
B1215344747349N01224330EA0163501811000006015000
B1215384747369N01224420EA0163501813000006015000
B1215424747399N01224509EA0163501812000006015000
B1215464747419N01224599EA0162101807000006015000
B1215504747450N01224699EA0161201798000006015000
B1215544747469N01224800EA0160601787000006015000
B1215584747499N01224909EA0159601779000006015000
B1216024747538N01225020EA0159601769000008015000
B1216064747569N01225119EA0158901766000007015000
B1216104747609N01225230EA0158901763000008015000
B1216144747639N01225329EA0158901757000009015000
B1216184747669N01225429EA0158901763000008015000
B1216224747699N01225530EA0158901762000008015000
B1216264747729N01225639EA0157401754000007015000
B1216304747750N01225740EA0157401745000009015000
B1216344747790N01225840EA0158201746000009015000
B1216384747809N01225939EA0158901758000009015000
B1216424747838N01226039EA0158901763000009015000
B1216464747869N01226130EA0158201758000008015000
B1216504747899N01226229EA0156501747000007015000
B1216544747929N01226339EA0155801736000007015000
B1216584747959N01226449EA0155001729000007015000
B1217024747989N01226560EA0155801727000007015000
B1217064748008N01226659EA0155001729000007015000
B1217104748039N01226759EA0155001726000007015000
B1217144748069N01226860EA0155001723000006015000
B1217184748099N01226950EA0154401718000006015000
B1217224748129N01227049EA0153601710000006015000
B1217264748169N01227149EA0152801704000007015000
B1217304748209N01227250EA0152801701000007015000
B1217344748249N01227340EA0152001697000007015000
B1217384748289N01227430EA0152001692000007015000
B1217424748319N01227529EA0151301686000007015000
B1217464748359N01227629EA0150501680000007015000
B1217504748390N01227730EA0150501673000007015000
B1217544748419N01227829EA0150501675000007015000
B1217584748438N01227919EA0151301679000007015000
B1218024748459N01228009EA0151301685000007015000
B1218064748480N01228099EA0149801677000006015000
B1218104748499N01228200EA0149801669000007015000
B1218144748520N01228280EA0150501673000007015000
B1218184748529N01228359EA0151301680000006015000
B1218224748549N01228450EA0150501681000006015000
B1218264748568N01228529EA0150501678000005015000
B1218304748589N01228599EA0149801672000005015000
B1218344748629N01228670EA0148901667000006015000
B1218384748679N01228739EA0148101660000006015000
B1218424748729N01228800EA0147401649000006015000
B1218464748780N01228880EA0148101645000006015000
B1218504748820N01228959EA0148101651000006015000
B1218544748849N01229050EA0147401646000006015000
B1218584748879N01229140EA0146801637000007015000
B1219024748899N01229239EA0145801631000007015000
B1219064748929N01229329EA0146801634000008015000
B1219104748950N01229419EA0147401639000008015000
B1219144748969N01229499EA0148101646000007015000
B1219184748989N01229570EA0147401645000007015000
B1219224748998N01229660EA0145801637000007015000
B1219264749029N01229750EA0145201627000007015000
B1219304749049N01229839EA0145801625000007015000
B1219344749049N01229939EA0145201626000008015000
B1219384749038N01230029EA0145801626000008015000
B1219424749009N01230119EA0146801629000007015000
B1219464748989N01230199EA0148101642000007015000
B1219504748959N01230279EA0148901653000007015000
B1219544748969N01230350EA0149801662000007015000
B1219584749009N01230380EA0149801668000007015000
B1220024749059N01230340EA0148901660000007015000
B1220064749069N01230239EA0149801660000007015000
B1220104749029N01230159EA0149801661000007015000
B1220144748969N01230139EA0150501667000007015000
B1220184748919N01230170EA0150501675000007015000
B1220224748899N01230249EA0152001686000007015000
B1220264748939N01230300EA0152001688000006015000
B1220304748989N01230289EA0152801695000006015000
B1220344749019N01230220EA0152801699000006015000
B1220384748998N01230130EA0152001692000006015000
B1220424748950N01230069EA0153601699000006015000
B1220464748879N01230059EA0154401708000006015000
B1220504748839N01230119EA0154401713000007015000
B1220544748849N01230199EA0155001720000006015000
B1220584748899N01230220EA0155801723000007015000
B1221024748950N01230159EA0156501733000006015000
B1221064748939N01230069EA0156501737000006015000
B1221104748889N01230000EA0156501739000006015000
B1221144748829N01230009EA0157401742000006015000
B1221184748799N01230080EA0158901752000006015000
B1221224748829N01230149EA0158901763000008015000
B1221264748879N01230149EA0159601765000008015000
B1221304748910N01230080EA0159601770000008015000
B1221344748889N01229979EA0158901767000007015000
B1221384748829N01229929EA0159601764000006015000
B1221424748769N01229969EA0160601773000007015000
B1221464748759N01230050EA0160601778000008015000
B1221504748809N01230080EA0160601777000008015000
B1221544748859N01230029EA0162101786000008015000
B1221584748879N01229939EA0162101795000008015000
B1222024748849N01229849EA0162101794000008015000
B1222064748789N01229790EA0162801799000008015000
B1222104748729N01229809EA0162801803000008015000
B1222144748699N01229879EA0163501806000007015000
B1222184748709N01229950EA0163501809000008015000
B1222224748759N01229979EA0165201814000008015000
B1222264748809N01229939EA0165201826000008015000
B1222304748829N01229839EA0165201827000008015000
B1222344748809N01229740EA0165901829000007015000
B1222384748749N01229679EA0166701834000007015000
B1222424748689N01229679EA0165901838000006015000
B1222464748650N01229740EA0165901836000006015000
B1222504748659N01229809EA0165901836000006015000
B1222544748709N01229830EA0165901836000007015000
B1222584748749N01229759EA0166701834000007015000
B1223024748738N01229660EA0166701840000007015000
B1223064748689N01229599EA0166701847000008015000
B1223104748629N01229610EA0166701846000007015000
B1223144748599N01229689EA0166701839000007015000
B1223184748619N01229759EA0167501846000007015000
B1223224748669N01229759EA0166701848000007015000
B1223264748699N01229669EA0167501845000007015000
B1223304748689N01229570EA0167501848000007015000
B1223344748629N01229509EA0168201854000006015000
B1223384748568N01229530EA0167501855000006015000
B1223424748539N01229599EA0167501854000006015000
B1223464748559N01229679EA0167501850000006015000
B1223504748610N01229750EA0166701843000006015000
B1223544748629N01229830EA0168201853000006015000
B1223584748629N01229899EA0169801870000009015000
B1224024748610N01229969EA0169801879000017015000
B1224064748599N01230050EA0169801872000013015000
B1224104748619N01230130EA0171401878000010015000
B1224144748669N01230130EA0171401886000008015000
B1224184748699N01230050EA0170601880000007015000
B1224224748669N01229960EA0171401882000007015000
B1224264748610N01229920EA0172101892000006015000
B1224304748549N01229950EA0173001901000008015000
B1224344748539N01230029EA0172101902000007015000
B1224384748579N01230099EA0173001897000007015000
B1224424748639N01230090EA0173001906000007015000
B1224464748669N01230000EA0173001909000007015000
B1224504748639N01229910EA0173001907000007015000
B1224544748568N01229879EA0173701910000007015000
B1224584748520N01229929EA0174501921000007015000
B1225024748520N01230019EA0175301929000007015000
B1225064748568N01230050EA0176001933000007015000
B1225104748610N01230000EA0176801942000007015000
B1225144748610N01229899EA0176001942000007015000
B1225184748559N01229839EA0176801938000006015000
B1225224748499N01229859EA0177701946000006015000
B1225264748459N01229939EA0178301955000007015000
B1225304748449N01230009EA0179301968000007015000
B1225344748480N01230080EA0179301973000006015000
B1225384748529N01230080EA0178301966000006015000
B1225424748559N01230000EA0178301960000006015000
B1225464748549N01229910EA0179301971000006015000
B1225504748480N01229859EA0178301970000007015000
B1225544748419N01229910EA0179301964000008015000
B1225584748399N01229989EA0180801977000008015000
B1226024748429N01230059EA0180801983000008015000
B1226064748480N01230069EA0180801989000007015000
B1226104748520N01230009EA0180801989000006015000
B1226144748509N01229910EA0181501990000006015000
B1226184748459N01229849EA0182401996000006015000
B1226224748399N01229879EA0181502003000006015000
B1226264748390N01229969EA0181501993000007015000
B1226304748438N01230019EA0183202000000007015000
B1226344748489N01229969EA0182402009000007015000
B1226384748499N01229870EA0183202007000007015000
B1226424748459N01229790EA0183802015000007015000
B1226464748390N01229780EA0184702028000007015000
B1226504748350N01229839EA0183802021000007015000
B1226544748359N01229929EA0184702018000007015000
B1226584748409N01229969EA0184702027000007015000
B1227024748459N01230000EA0184702029000007015000
B1227064748520N01230029EA0183202017000006015000
B1227104748589N01230050EA0182402009000007015000
B1227144748659N01230080EA0182402002000007015000
B1227184748729N01230099EA0182401999000007015000
B1227224748789N01230119EA0182402003000008015000
B1227264748859N01230149EA0182402004000007015000
B1227304748929N01230179EA0181501999000007015000
B1227344748989N01230220EA0180801995000007015000
B1227384749059N01230260EA0180801984000007015000
B1227424749139N01230300EA0180001979000008015000
B1227464749210N01230350EA0180801982000008015000
B1227504749279N01230390EA0180801985000008015000
B1227544749359N01230430EA0180001982000008015000
B1227584749439N01230459EA0180001979000008015000
B1228024749510N01230489EA0180801980000008015000
B1228064749589N01230520EA0180801983000008015000
B1228104749669N01230549EA0180801984000008015000
B1228144749739N01230579EA0180801983000007015000
B1228184749810N01230609EA0180801982000007015000
B1228224749879N01230650EA0180001978000007015000
B1228264749959N01230690EA0179301972000007015000
B1228304750028N01230730EA0178301964000007015000
B1228344750110N01230770EA0178301961000007015000
B1228384750189N01230810EA0178301958000008015000
B1228424750259N01230849EA0178301960000008015000
B1228464750328N01230900EA0178301964000008015000
B1228504750399N01230950EA0178301962000007015000
B1228544750469N01231009EA0178301957000007015000
B1228584750529N01231070EA0178301957000008015000
B1229024750599N01231120EA0178301960000008015000
B1229064750659N01231169EA0178301963000008015000
B1229104750719N01231229EA0179301963000008015000
B1229144750779N01231279EA0179301969000008015000
B1229184750829N01231330EA0178301967000007015000
B1229224750888N01231380EA0177701959000006015000
B1229264750959N01231439EA0177701952000006015000
B1229304751009N01231500EA0177701947000008015000
B1229344751069N01231559EA0178301953000008015000
B1229384751119N01231609EA0177701957000008015000
B1229424751179N01231659EA0177701949000008015000
B1229464751219N01231720EA0177701951000008015000
B1229504751259N01231800EA0178301953000008015000
B1229544751289N01231859EA0179301965000009015000
B1229584751329N01231909EA0179301973000009015000
B1230024751369N01231959EA0179301968000009015000
B1230064751369N01232029EA0179301964000012015000
B1230104751329N01232079EA0179301968000011015000
B1230144751270N01232049EA0178301964000011015000
B1230184751230N01231959EA0180001965000009015000
B1230224751239N01231859EA0180001975000008015000
B1230264751279N01231800EA0180801983000008015000
B1230304751329N01231749EA0180801985000007015000
B1230344751379N01231699EA0180801986000007015000
B1230384751419N01231619EA0180801983000006015000
B1230424751419N01231529EA0180001977000006015000
B1230464751389N01231439EA0180001976000006015000
B1230504751339N01231389EA0179301975000007015000
B1230544751270N01231409EA0177701966000006015000
B1230584751219N01231469EA0177701953000007015000
B1231024751169N01231540EA0176801946000007015000
B1231064751119N01231599EA0176801946000007015000
B1231104751058N01231670EA0176001937000008015000
B1231144750999N01231739EA0176801936000008015000
B1231184750949N01231800EA0178301948000007015000
B1231224750909N01231850EA0179301965000008015000
B1231264750869N01231899EA0180001971000007015000
B1231304750829N01231949EA0180001976000007015000
B1231344750789N01232009EA0180001980000007015000
B1231384750789N01232079EA0180001976000006015000
B1231424750819N01232139EA0180001976000007015000
B1231464750859N01232179EA0180001975000008015000
B1231504750909N01232219EA0180001977000008015000
B1231544750970N01232249EA0179301973000007015000
B1231584751029N01232270EA0179301967000008015000
B1232024751100N01232270EA0179301965000007015000
B1232064751159N01232270EA0180801971000008015000
B1232104751209N01232259EA0181501987000007015000
B1232144751270N01232259EA0180801989000006015000
B1232184751318N01232249EA0180001981000006015000
B1232224751389N01232249EA0178301967000006015000
B1232264751459N01232249EA0176801947000007015000
B1232304751539N01232259EA0176001933000008015000
B1232344751618N01232259EA0175301928000008015000
B1232384751700N01232259EA0175301929000008015000
B1232424751779N01232259EA0175301924000007015000
B1232464751849N01232259EA0174501922000007015000
B1232504751929N01232270EA0174501918000007015000
B1232544752000N01232280EA0173701912000008015000
B1232584752069N01232289EA0173701908000007015000
B1233024752149N01232309EA0173001907000007015000
B1233064752218N01232329EA0172101901000007015000
B1233104752289N01232349EA0172101895000007015000
B1233144752348N01232379EA0173001895000008015000
B1233184752419N01232389EA0173001898000008015000
B1233224752478N01232400EA0173701904000008015000
B1233264752539N01232410EA0174501915000007015000
B1233304752600N01232410EA0175301922000006015000
B1233344752648N01232410EA0176001925000007015000
B1233384752709N01232410EA0176001937000007015000
B1233424752759N01232400EA0176001935000006015000
B1233464752820N01232400EA0176801935000007015000
B1233504752879N01232400EA0178301949000008015000
B1233544752929N01232410EA0178301959000009015000
B1233584752979N01232410EA0178301960000008015000
B1234024753039N01232400EA0177701954000008015000
B1234064753099N01232389EA0176801946000007015000
B1234104753160N01232370EA0176001939000007015000
B1234144753229N01232360EA0175301930000006015000
B1234184753290N01232349EA0175301927000006015000
B1234224753349N01232349EA0174501924000006015000
B1234264753420N01232349EA0174501920000006015000
B1234304753489N01232339EA0174501919000006015000
B1234344753550N01232339EA0174501921000007015000
B1234384753619N01232339EA0174501921000007015000
B1234424753669N01232329EA0174501927000008015000
B1234464753729N01232289EA0175301924000007015000
B1234504753779N01232249EA0176801933000007015000
B1234544753819N01232199EA0176801943000007015000
B1234584753859N01232129EA0177701947000007015000
B1235024753899N01232060EA0178301956000009015000
B1235064753949N01232020EA0179301962000012015000
B1235104753999N01232049EA0180001971000012015000
B1235144753999N01232119EA0178301973000017015000
B1235184753949N01232190EA0179301959000013015000
B1235224753879N01232179EA0179301968000010015000
B1235264753839N01232110EA0180801976000011015000
B1235304753850N01232020EA0181501985000009015000
B1235344753899N01231970EA0181501992000008015000
B1235384753949N01231999EA0182401996000009015000
B1235424753969N01232070EA0183202006000012015000
B1235464753938N01232139EA0182402004000011015000
B1235504753879N01232169EA0183202000000008015000
B1235544753819N01232129EA0183202006000010015000
B1235584753789N01232039EA0183202007000009015000
B1236024753819N01231949EA0183802012000008015000
B1236064753879N01231930EA0185502023000010015000
B1236104753919N01231970EA0186202032000009015000
B1236144753919N01232049EA0185502035000013015000
B1236184753869N01232110EA0185502031000011015000
B1236224753808N01232100EA0186202033000009015000
B1236264753760N01232039EA0186202037000010015000
B1236304753739N01231930EA0187102035000009015000
B1236344753769N01231850EA0188002046000008015000
B1236384753819N01231829EA0188002050000008015000
B1236424753859N01231879EA0188702058000008015000
B1236464753859N01231959EA0188702059000008015000
B1236504753808N01232020EA0188702058000016015000
B1236544753739N01232009EA0188702063000011015000
B1236584753669N01231989EA0188002051000009015000
B1237024753590N01231949EA0188702051000008015000
B1237064753508N01231909EA0189502064000009015000
B1237104753429N01231879EA0190302070000010015000
B1237144753359N01231829EA0191002083000009015000
B1237184753290N01231789EA0191002093000008015000
B1237224753208N01231749EA0190302086000008015000
B1237264753129N01231699EA0190302083000008015000
B1237304753049N01231659EA0190302081000008015000
B1237344752979N01231619EA0191002086000008015000
B1237384752908N01231569EA0190302084000008015000
B1237424752839N01231529EA0188002071000008015000
B1237464752759N01231479EA0187102056000008015000
B1237504752679N01231429EA0186202051000008015000
B1237544752600N01231370EA0186202045000008015000
B1237584752509N01231330EA0186202043000008015000
B1238024752430N01231299EA0186202046000008015000
B1238064752359N01231259EA0187102047000008015000
B1238104752279N01231210EA0186202047000007015000
B1238144752199N01231160EA0185502044000007015000
B1238184752119N01231110EA0184702031000006015000
B1238224752039N01231059EA0183202021000007015000
B1238264751949N01231009EA0182402007000007015000
B1238304751859N01230950EA0181501997000008015000
B1238344751779N01230879EA0180801989000008015000
B1238384751700N01230799EA0180801989000008015000
B1238424751618N01230730EA0180001987000008015000
B1238464751539N01230669EA0180001980000008015000
B1238504751459N01230600EA0179301975000008015000
B1238544751379N01230529EA0177701963000008015000
B1238584751299N01230459EA0177701954000008015000
B1239024751219N01230390EA0177701954000007015000
B1239064751149N01230329EA0177701955000008015000
B1239104751069N01230269EA0177701954000008015000
B1239144750999N01230210EA0177701953000007015000
B1239184750919N01230149EA0177701952000007015000
B1239224750849N01230099EA0176801950000008015000
B1239264750789N01230040EA0177701949000007015000
B1239304750719N01229979EA0176801951000007015000
B1239344750649N01229929EA0176001945000007015000
B1239384750579N01229879EA0175301939000007015000
B1239424750500N01229830EA0175301932000007015000
B1239464750429N01229790EA0174501925000006015000
