AZANB53 ZANDER GP940 V1.25
HFDTE180504
HFFXA050
HFPLT Pilot             :Bostjan Pristavec                       
HFGTY Glider type       :LAK-17a                                 
HFGID Glider ID         :D-7417    
HFDTM100 GPS Datum      :WGS84
HFRFW Firmware Version  :1.25
HFRHW Hardware version  :A
HFFTY FR Type           :ZANDER GP940
HFGPS                   :Motorola,VP ONCORE,8,30000
HFPRS Press Alt Sensor  :Motorola,MPX100A,10000
HFCCL Competition Class :18m                                     
HFCID Competition ID    :BG        
I023638IAS3941ENL
J020810WDI1113WVE
LZAN 072444 PowerOn
C090803094522090803000103
C5150000N01632016E 096LESZ     
C5154333N01641000E 136OSIE     
C5243550N01531850E 098LIPK     
C5322050N01701783E 238ZLOT     
C5210100N01741666E 150PYZD     
C5150366N01631700E 243.FL1     
C5150000N01632016E 096LESZ     
B0724484749741N01128054EV0049100000000000
B0724524749741N01128054EV0049000000000000
B0724564749741N01128054EV0048900000000000
B0725004749741N01128054EV0048800000000000
B0725044749741N01128054EV0048800000000000
B0725084749741N01128054EV0048800000000000
B0725124749741N01128054EV0048700000000000
B0725164749741N01128054EV0048700000000000
B0725204749741N01128054EV0048700000000000
B0725244749741N01128054EV0048700000000000
B0725284749741N01128054EV0048700000000000
B0725324749058N01125966EA0048700000000000
B0725364749737N01128529EA0048700000000000
B0725404749670N01128287EA0048800592000000
B0725444749670N01128291EA0048800592007000
B0725484749670N01128287EA0048800592007000
B0725524749670N01128287EA0048800592007000
B0725564749670N01128287EA0048800592000000
B0726004749670N01128291EA0048700592007000
B0726044749670N01128291EA0048800592007000
B0726084749670N01128291EA0048700592007000
B0726124749670N01128291EA0048800592007000
B0726164749670N01128291EA0048800592007000
B0726204749670N01128287EA0048700592007000
B0726244749670N01128287EA0048800592007000
B0726284749670N01128291EA0048800592007000
B0726324749670N01128291EA0048800592000000
C180504072631180504000103
C4749716N01127900E KOENIGSDORF 
C4749700N01128200E KDF END 28  
C4617533N01432066E GRINTAVEC   
C4635416N00840650E UNTERALP    
C4754750N01127516E PUPPLINGERAU
C4749700N01128200E KDF END 28  
C4749716N01127900E KOENIGSDORF 
B0726364749670N01128291EA0048800592007000
B0726404749670N01128291EA0048800592007000
B0726444749670N01128287EA0048800592007000
B0726484749670N01128287EA0048800592007000
B0726524749670N01128287EA0048800592000000
B0726564749670N01128287EA0048800592007000
B0727004749670N01128287EA0048800592007000
B0727044749670N01128287EA0048800592007000
B0727084749670N01128287EA0048800592000000
B0727124749670N01128287EA0048900592000000
B0727164749670N01128287EA0048700592007000
B0727204749670N01128287EA0048800592007000
B0727244749670N01128287EA0048800592007000
B0727284749670N01128287EA0048800592000000
B0727324749670N01128287EA0048900592007000
B0727364749670N01128287EA0048800592007000
B0727404749670N01128287EA0048800592007000
B0727444749670N01128287EA0048800600000000
B0727484749670N01128287EA0048800600007000
B0727524749670N01128287EA0048900592000000
B0727564749670N01128287EA0048600600000000
B0728004749670N01128287EA0048800600000000
B0728044749670N01128287EA0048900592000000
B0728084749670N01128287EA0048900592000000
B0728124749670N01128287EA0048900600000000
B0728164749670N01128287EA0048700600007000
B0728204749670N01128287EA0048700600000000
B0728244749670N01128287EA0048700600000000
B0728284749670N01128287EA0048700600007000
B0728324749670N01128287EA0048700600000000
B0728364749670N01128287EA0048800600007000
B0728404749670N01128287EA0048900600007000
B0728444749670N01128287EA0048700600007000
B0728484749670N01128287EA0048800600000000
B0728524749670N01128287EA0048800600000000
B0728564749670N01128287EA0048800600007000
B0729004749670N01128287EA0048800600000000
B0729044749670N01128287EA0048800600007000
B0729084749670N01128287EA0048700600000000
B0729124749670N01128287EA0048800600000000
B0729164749670N01128287EA0048800600007000
B0729204749670N01128287EA0048800592007000
B0729244749670N01128287EA0048800592007000
B0729284749670N01128287EA0048800600000000
B0729324749670N01128287EA0048800600007000
B0729364749670N01128287EA0048800600000000
B0729404749670N01128287EA0048800600007000
B0729444749670N01128287EA0048800600007000
B0729484749670N01128287EA0048800600007000
B0729524749670N01128287EA0048800600000000
B0729564749670N01128287EA0048800600007000
B0730004749670N01128287EA0048900600007000
B0730044749670N01128287EA0048800600007000
B0730084749670N01128287EA0048900600000000
B0730124749675N01128287EA0048800600000000
B0730164749675N01128287EA0048900600007000
B0730204749675N01128287EA0048800600007000
B0730244749675N01128287EA0048800600007000
B0730284749675N01128287EA0048800600000000
B0730324749675N01128287EA0048800600007000
B0730364749675N01128287EA0048800600007000
B0730404749675N01128287EA0048900600007000
B0730444749675N01128287EA0048900600000000
B0730484749675N01128287EA0048900600000000
B0730524749675N01128287EA0048900600007000
B0730564749675N01128287EA0048800600007000
B0731004749675N01128287EA0048800600007000
B0731044749675N01128287EA0048900600007000
B0731084749675N01128287EA0048900600007000
B0731124749675N01128287EA0048900600007000
B0731164749675N01128287EA0048800600007000
B0731204749675N01128287EA0048900600000000
B0731244749675N01128287EA0048900600000000
B0731284749675N01128287EA0048900600007000
B0731324749675N01128287EA0048900600007000
B0731364749675N01128287EA0048900600007000
B0731404749675N01128287EA0048900600000000
B0731444749675N01128287EA0048900600007000
B0731484749675N01128287EA0048900600007000
B0731524749675N01128287EA0048800600000000
B0731564749675N01128287EA0048800600000000
B0732004749675N01128287EA0048900600007000
B0732044749675N01128287EA0048900600000000
B0732084749675N01128287EA0048900600007000
B0732124749675N01128287EA0048900600000000
B0732164749675N01128287EA0048900600007000
B0732204749675N01128287EA0048900600000000
B0732244749675N01128287EA0048900600000000
B0732284749675N01128287EA0048900600007000
B0732324749675N01128287EA0048900600000000
B0732364749675N01128287EA0048900600000000
B0732404749675N01128287EA0048900600000000
B0732444749675N01128287EA0048900600000000
B0732484749675N01128287EA0048900600000000
B0732524749675N01128287EA0048900600000000
B0732564749675N01128287EA0048900600000000
B0733004749675N01128287EA0048900600000000
B0733044749675N01128287EA0048900600000000
B0733084749675N01128287EA0048900600000000
B0733124749675N01128287EA0048900600000000
B0733164749675N01128287EA0048900600000000
B0733204749675N01128287EA0048900600000000
B0733244749675N01128287EA0048900600000000
B0733284749675N01128287EA0048900600000000
B0733324749675N01128287EA0048900600000000
B0733364749675N01128287EA0048900600000000
B0733404749675N01128287EA0048900600000000
B0733444749675N01128287EA0048900600000000
B0733484749675N01128287EA0048900600000000
B0733524749675N01128287EA0048900600000000
B0733564749675N01128287EA0048900600000000
B0734004749675N01128287EA0048900600000000
B0734044749675N01128287EA0048900600000000
B0734084749675N01128287EA0048900600000000
B0734124749675N01128287EA0048900592000000
B0734164749675N01128287EA0048900592000000
B0734204749675N01128287EA0049000592000000
B0734244749675N01128287EA0048900592000000
B0734284749675N01128287EA0048900592000000
B0734324749675N01128287EA0048900592000000
B0734364749675N01128287EA0048900592000000
B0734404749675N01128287EA0049000592000000
B0734444749675N01128287EA0049000592000000
B0734484749675N01128287EA0048900592000000
B0734524749675N01128287EA0049000592000000
B0734564749675N01128287EA0048900592000000
B0735004749675N01128287EA0048900592000000
B0735044749675N01128287EA0049000592000000
B0735084749675N01128287EA0048900592000000
B0735124749675N01128287EA0048900592000000
B0735164749675N01128287EA0049000592000000
B0735204749675N01128287EA0049000592000000
B0735244749675N01128291EA0048900592000000
B0735284749675N01128287EA0049000592000000
B0735324749675N01128287EA0048900592000000
B0735364749675N01128287EA0049000592000000
B0735404749675N01128287EA0048900592000000
B0735444749675N01128287EA0048900592000000
B0735474749675N01128287EA0049000592007000
B0735484749675N01128287EA0049100592000000
B0735494749675N01128287EA0049000592000000
B0735504749675N01128287EA0049000592000000
B0735514749675N01128287EA0048900592000000
B0735524749675N01128287EA0048900592000000
B0735534749675N01128287EA0048900592000000
B0735544749675N01128287EA0048900592000000
B0735554749675N01128287EA0049000592000000
B0735564749675N01128287EA0049000592000000
B0736004749675N01128287EA0049000592000000
B0736044749675N01128287EA0049000592000000
B0736084749675N01128287EA0049000592007000
B0736124749675N01128287EA0049000592007000
B0736164749675N01128287EA0048900592007000
B0736204749675N01128287EA0049000592000000
B0736244749675N01128287EA0049000592007000
B0736284749675N01128287EA0049000592000000
B0736324749675N01128287EA0049000592000000
B0736364749670N01128287EA0048900592007000
B0736404749670N01128287EA0049000592000000
B0736444749670N01128287EA0049000592007000
B0736484749675N01128287EA0048900592000000
B0736524749670N01128287EA0049000592000000
B0736564749670N01128287EA0048900592000000
B0737004749670N01128287EA0048900592007000
B0737044749670N01128287EA0048900592000000
B0737084749670N01128287EA0048900592007000
B0737124749670N01128287EA0049100592007000
B0737164749670N01128287EA0048900592000000
B0737204749670N01128287EA0049000592000000
B0737244749670N01128287EA0048900592000000
B0737284749670N01128287EA0048900592000000
B0737324749670N01128287EA0048900592000000
B0737364749670N01128287EA0049000592000000
B0737404749670N01128287EA0048900592000000
B0737444749670N01128287EA0049100592000000
B0737484749670N01128287EA0049000592007000
B0737524749670N01128287EA0049000592000000
B0737564749670N01128287EA0049000592000000
B0738004749670N01128287EA0049000592000000
B0738044749670N01128287EA0049000592000000
B0738084749670N01128287EA0049000592000000
B0738124749675N01128291EA0049100592000000
B0738164749675N01128291EA0049000592000000
B0738204749675N01128291EA0049000592000000
B0738244749675N01128291EA0049000592000000
B0738284749675N01128291EA0049000592000000
B0738324749675N01128291EA0049000592000000
B0738364749675N01128291EA0049100592000000
B0738404749675N01128291EA0049000592000000
B0738444749675N01128291EA0049000592000000
B0738484749675N01128291EA0049100592007000
B0738524749675N01128291EA0049100592000000
B0738564749675N01128291EA0049100592007000
B0739004749675N01128291EA0049000592007000
B0739044749675N01128291EA0049000592000000
B0739084749675N01128291EA0049100592000000
B0739124749675N01128291EA0049100592007000
B0739164749675N01128291EA0049000592000000
B0739204749675N01128291EA0049100592000000
B0739244749675N01128291EA0049000592000000
B0739284749675N01128291EA0049000592000000
B0739324749675N01128291EA0049100592007000
B0739364749675N01128291EA0049000592007000
B0739404749675N01128291EA0049100592007000
B0739444749675N01128291EA0049000592000000
B0739484749675N01128291EA0049000592007000
B0739524749675N01128291EA0049000592000000
B0739564749675N01128287EA0049000592000000
B0740004749675N01128287EA0049000592007010
B0740044749675N01128287EA0049000592007000
B0740084749675N01128287EA0049000592000000
B0740124749675N01128287EA0049100592000000
B0740164749675N01128287EA0049000592000000
B0740204749675N01128287EA0049000592000000
B0740244749675N01128287EA0049100592000000
B0740284749675N01128287EA0049000592000000
B0740324749675N01128287EA0049100592000000
B0740364749675N01128287EA0049100592000000
B0740404749675N01128287EA0049000592000000
B0740444749675N01128287EA0049100592007000
B0740484749675N01128287EA0049000592000000
B0740524749675N01128287EA0049100592007000
B0740564749675N01128287EA0049000592007000
B0741004749675N01128287EA0049000592007000
B0741044749675N01128287EA0049100592007000
B0741084749675N01128287EA0049100592007000
B0741124749675N01128287EA0049100592000000
B0741164749675N01128287EA0049100592007000
B0741204749675N01128287EA0049100592000000
B0741244749675N01128287EA0048900592007000
B0741284749675N01128287EA0049100592007000
B0741324749675N01128287EA0048900592000000
B0741364749675N01128287EA0048900592000000
B0741404749675N01128287EA0048900592000000
B0741444749675N01128287EA0048900592007000
B0741484749675N01128287EA0048900592007000
B0741524749675N01128287EA0048900592007000
B0741564749675N01128287EA0048900600007000
B0742004749675N01128287EA0048900600000000
B0742044749675N01128287EA0048900600000000
B0742084749675N01128287EA0048900600000000
B0742124749675N01128287EA0048900600000000
B0742164749675N01128287EA0049000600000000
B0742204749675N01128287EA0049000600007000
B0742244749675N01128287EA0049000600007000
B0742284749675N01128287EA0049000600007000
B0742324749675N01128287EA0049000600000000
B0742364749675N01128287EA0049000600000000
B0742404749675N01128287EA0049000600007000
B0742444749675N01128287EA0049000600007000
B0742484749675N01128287EA0049000600000000
B0742524749675N01128287EA0049000600007000
B0742564749675N01128287EA0048900600000000
B0743004749675N01128287EA0049000600007000
B0743044749675N01128287EA0049000600000000
B0743084749675N01128287EA0049000600000000
B0743124749675N01128287EA0049000592007000
B0743164749675N01128287EA0049000592000000
B0743204749675N01128287EA0049000600000000
B0743244749675N01128287EA0049100592000000
B0743284749675N01128287EA0049000600000000
B0743324749675N01128287EA0049000592007000
B0743364749675N01128287EA0049000600000000
B0743404749675N01128287EA0049000600000000
B0743444749675N01128287EA0049000600000000
B0743484749675N01128287EA0049000592000000
B0743524749675N01128287EA0049000600000000
B0743564749675N01128287EA0049000600000000
B0744004749675N01128287EA0049000600000000
B0744044749675N01128287EA0049000600000000
B0744084749675N01128287EA0049000600000000
B0744124749675N01128287EA0049000600000000
B0744164749675N01128287EA0049000600007000
B0744204749675N01128287EA0049100600000000
B0744244749675N01128287EA0049100600000000
B0744284749675N01128287EA0049000600000000
B0744324749675N01128287EA0049100592040000
B0744364749675N01128287EA0049100600015000
B0744404749675N01128287EA0049000600021000
B0744444749675N01128287EA0049000600028000
B0744484749675N01128287EA0049000600033000
B0744524749675N01128287EA0049000592032000
B0744564749675N01128287EA0049000592034000
B0745004749675N01128287EA0049000592017000
B0745044749675N01128287EA0049000592034000
B0745084749675N01128287EA0049000592028000
B0745124749675N01128287EA0049000600021000
B0745164749675N01128287EA0049000592029000
B0745204749675N01128287EA0049000592020000
B0745244749675N01128287EA0049000592023000
B0745284749675N01128287EA0049100592017000
B0745324749675N01128287EA0049000592034000
B0745364749675N01128287EA0049100592015000
B0745404749675N01128287EA0049100592012000
B0745444749675N01128287EA0049000592021000
B0745484749675N01128287EA0049000592007000
B0745524749675N01128287EA0049100592000000
B0745564749675N01128287EA0049100592000000
B0746004749675N01128287EA0049100592000000
B0746044749675N01128287EA0049100592000000
B0746084749675N01128283EA0049000592022000
B0746124749675N01128262EA0049000592068020
B0746164749683N01128212EA0048900592076100
B0746204749691N01128141EA0048900592108010
K074620166004
B0746244749704N01128050EA0049000600114000
B0746284749716N01127941EA0049300600121000
B0746324749729N01127829EA0050500608126000
B0746364749754N01127716EA0051700624127000
B0746404749800N01127625EA0053400640127000
K074640292007
B0746444749866N01127554EA0055100648136000
B0746484749937N01127508EA0056300664136000
B0746524750020N01127479EA0056800672134000
B0746564750104N01127462EA0058200680135000
B0747004750187N01127450EA0060100704131000
K074700276008
B0747044750270N01127441EA0061100712132000
B0747084750358N01127441EA0062200728132000
B0747124750441N01127441EA0063200736131000
B0747164750529N01127441EA0065000752135000
B0747204750612N01127450EA0065800760136000
K074720252022
B0747244750700N01127454EA0067100776136000
B0747284750791N01127462EA0068000784137000
B0747324750879N01127470EA0069400800140000
B0747364750970N01127479EA0070400808142000
B0747404751062N01127487EA0072100824140000
K074740254019
B0747444751154N01127495EA0073700840137000
B0747484751241N01127504EA0075600864139000
B0747524751333N01127512EA0077300880137000
B0747564751420N01127525EA0079400904135000
B0748004751508N01127541EA0081100920134000
K074800252019
B0748044751591N01127554EA0082300928136000
B0748084751679N01127575EA0083300944135000
B0748124751770N01127595EA0085000960138000
B0748164751858N01127616EA0086200968136000
B0748204751945N01127637EA0088000984136000
K074820254019
B0748244752033N01127654EA0089401000138000
B0748284752120N01127658EA0090901016136000
B0748324752208N01127658EA0092301032136000
B0748364752291N01127650EA0093701048136000
B0748404752375N01127629EA0094901056137000
K074840254007
B0748444752458N01127600EA0095901072138000
B0748484752537N01127562EA0097101080139000
B0748524752616N01127525EA0098101088136000
B0748564752695N01127475EA0099501104139000
B0749004752770N01127416EA0100601120139000
K074900296004
B0749044752841N01127358EA0102501136138000
B0749084752916N01127304EA0104101152138000
B0749124752987N01127250EA0105201160140000
B0749164753062N01127195EA0106601176140000
B0749204753133N01127141EA0108201192138000
K074920264020
B0749244753204N01127083EA0109601208137000
B0749284753270N01127016EA0111001224136000
B0749324753333N01126950EA0112201240136000
B0749364753395N01126879EA0113301248137000
B0749404753454N01126804EA0114601264136000
K074940272020
B0749444753512N01126725EA0116001272135000
B0749484753562N01126637EA0117501288134000
B0749524753612N01126550EA0118801304135000
B0749564753658N01126458EA0120001312135000
B0750004753700N01126366EA0121401328134000
K075000264021
B0750044753741N01126266EA0122601344134000
B0750084753779N01126170EA0123901360134000
B0750124753816N01126066EA0125401368135000
B0750164753850N01125966EA0126501384135000
B0750204753883N01125862EA0127701392135000
K075020252023
B0750244753912N01125754EA0128901408135000
B0750284753941N01125650EA0130001416135000
B0750324753966N01125541EA0131001432136000
B0750364753991N01125429EA0132101440136000
B0750404754012N01125320EA0133401456135000
K075040250021
B0750444754033N01125208EA0134501464135000
B0750484754050N01125095EA0135601472135000
B0750524754062N01124983EA0136801488136000
B0750564754079N01124866EA0138101496135000
B0751004754087N01124754EA0139401512135000
K075100252018
B0751044754091N01124637EA0140901528133000
B0751084754087N01124520EA0142301544132000
B0751124754075N01124408EA0143701560133000
B0751164754058N01124295EA0145001568133000
B0751204754025N01124187EA0146401584132000
K075120234017
B0751244753983N01124087EA0147801600132000
B0751284753933N01123995EA0149201616131000
B0751324753875N01123912EA0150701632130000
B0751364753804N01123841EA0151801640132000
B0751404753733N01123779EA0152801648133000
K075140188015
B0751444753654N01123725EA0154001664133000
B0751484753575N01123679EA0155401680132000
B0751524753495N01123637EA0156901688131000
B0751564753412N01123616EA0158301704130000
B0752004753325N01123600EA0159801720130000
K075200146007
B0752044753237N01123604EA0161001736132000
B0752084753150N01123616EA0162001744133000
B0752124753062N01123637EA0163301760132000
B0752164752975N01123675EA0164601768132000
B0752204752891N01123720EA0165801784132000
K075220044001
B0752244752808N01123779EA0166801792133000
B0752284752725N01123845EA0168001808134000
B0752324752645N01123916EA0168901816134000
B0752364752566N01124000EA0170001824134000
B0752404752495N01124091EA0171201840134000
K075240306008
B0752444752425N01124187EA0172401848134000
B0752484752362N01124295EA0173501864134000
B0752524752300N01124408EA0174601872133000
B0752564752245N01124520EA0175901888131000
B0753004752200N01124645EA0177301896131000
K075300282014
B0753044752154N01124770EA0178101904133000
B0753084752112N01124900EA0179001920136000
B0753124752070N01125033EA0180201928133000
B0753164752033N01125166EA0181401944133000
B0753204752000N01125300EA0182301952132000
K075320266017
B0753244751970N01125437EA0183601960133000
B0753284751941N01125575EA0184501976134000
B0753324751908N01125712EA0185501984134000
B0753364751883N01125854EA0186801992132000
B0753404751858N01125991EA0188102008131000
K075340260017
B0753444751833N01126133EA0188902016133000
B0753484751812N01126275EA0190002024134000
B0753524751787N01126416EA0191602040132000
B0753564751766N01126558EA0192802056131000
B0754004751750N01126700EA0194102072132000
K075400258018
B0754044751733N01126845EA0195202080133000
B0754084751712N01126987EA0196302088133000
B0754124751679N01127125EA0197502104129000
B0754164751637N01127258EA0198902120130000
B0754204751583N01127383EA0199402128129000
K075420236031
B0754244751520N01127495EA0200802136128000
B0754284751450N01127595EA0202302152124000
B0754324751370N01127679EA0202902160126000
B0754364751287N01127754EA0204102168124000
B0754404751195N01127812EA0204802184126000
K075440250039
B0754444751100N01127850EA0206002192129000
B0754484751004N01127879EA0206702200130000
B0754524750904N01127895EA0207402208137000
B0754564750800N01127904EA0208102216141000
B0755004750700N01127908EA0208902224140000
K075500278053
B0755044750591N01127904EA0209902232145000
B0755084750487N01127895EA0210502240149000
B0755124750379N01127883EA0211402248151000
B0755164750270N01127870EA0212502256151000
B0755204750166N01127837EA0213802272149000
K075520290050
B0755244750070N01127779EA0215202288147000
B0755284749987N01127691EA0216302296148000
B0755324749925N01127583EA0217502304148000
B0755364749883N01127458EA0218202320148000
B0755404749866N01127325EA0219302328148000
K075540288046
B0755444749862N01127187EA0220502336147000
B0755484749875N01127058EA0221302352146000
B0755524749904N01126933EA0222502360144000
B0755564749950N01126825EA0223602368143000
B0756004750008N01126725EA0224502384145000
K075600288047
B0756044750087N01126662EA0225002384147000
B0756084750179N01126641EA0225802392144000
B0756124750270N01126675EA0226202400135010
B0756164750350N01126733EA0225502392137000
B0756204750437N01126795EA0223002368155000
K075620288047
B0756244750516N01126900EA0220702344165000
B0756284750550N01127075EA0218102312177000
B0756324750504N01127258EA0215502288186000
B0756364750400N01127404EA0210702232208000
B0756404750266N01127520EA0205002176229000
K075640288047
B0756444750116N01127633EA0196202080269000
B0756484749945N01127754EA0189101992295000
B0756524749775N01127908EA0186901976290000
B0756534749737N01127954EA0186901976288000
B0756544749695N01128000EA0187001976283000
B0756554749658N01128041EA0187201976281000
B0756564749620N01128087EA0187601976278000
B0756574749587N01128133EA0188401984272000
B0756584749554N01128183EA0189101992265000
B0756594749525N01128237EA0190102008255000
B0757004749504N01128291EA0191502024246000
B0757014749487N01128350EA0192402040237000
B0757024749470N01128404EA0193602048229000
B0757044749441N01128512EA0196202080209000
B0757084749379N01128687EA0202402152161000
B0757124749320N01128820EA0206602200127000
B0757164749262N01128929EA0207902216114000
B0757204749204N01129025EA0207302208117000
K075720260072
B0757244749137N01129120EA0207102208116000
B0757284749075N01129216EA0207102208114000
B0757324749012N01129308EA0206802208114000
B0757364748950N01129400EA0206602200113000
B0757404748887N01129487EA0206302200113000
K075740260050
B0757444748820N01129579EA0206102200114000
B0757484748758N01129675EA0205902192113000
B0757524748700N01129766EA0205802192112000
B0757564748637N01129862EA0205102192113000
B0758004748579N01129962EA0205002184113000
K075800266035
B0758044748525N01130062EA0204702184112000
B0758084748466N01130162EA0204302176115000
B0758124748404N01130262EA0203302168118000
B0758164748341N01130366EA0202902160120000
B0758204748279N01130470EA0202502160121000
K075820268031
B0758244748216N01130575EA0201902152122000
B0758284748154N01130683EA0201802152119000
B0758324748095N01130787EA0201902152115000
B0758364748037N01130887EA0202102160111000
B0758404747975N01130979EA0202102160109000
K075840268034
B0758444747912N01131066EA0201802152108000
B0758484747850N01131154EA0201602152109000
B0758524747787N01131241EA0201202144110000
B0758564747729N01131333EA0200502144113000
B0759004747666N01131425EA0200202136114000
K075900274030
B0759044747604N01131516EA0200002136113000
B0759084747537N01131604EA0199502128115000
B0759124747470N01131691EA0199302128115000
B0759164747404N01131775EA0199002128115000
B0759204747341N01131858EA0198802120113000
K075920270032
B0759244747279N01131945EA0198502120114000
B0759284747216N01132033EA0198202120112000
B0759324747154N01132120EA0197902112113000
B0759364747095N01132212EA0197302104115000
B0759404747033N01132300EA0197002104114000
K075940270028
B0759444746975N01132395EA0196602096114000
B0759484746916N01132491EA0196302096115000
B0759524746858N01132587EA0195902096115000
B0759564746804N01132687EA0195502088116000
B0800004746745N01132787EA0195202088117000
K080000268026
B0800044746695N01132887EA0195002080116000
B0800084746641N01132987EA0194902080115000
B0800124746587N01133087EA0194502080115000
B0800164746529N01133183EA0194202072115000
B0800204746475N01133279EA0194002072115000
K080020260028
B0800244746420N01133375EA0193702072114000
B0800284746370N01133475EA0193402064114000
B0800324746320N01133575EA0193102064114000
B0800364746270N01133675EA0192602056114000
B0800404746216N01133775EA0192402056114000
K080040256027
B0800444746166N01133875EA0192002056114000
B0800484746116N01133970EA0191802048114000
B0800524746062N01134066EA0191502048115000
B0800564746012N01134162EA0191202048114000
B0801004745962N01134258EA0191102048111000
K080100250028
B0801044745916N01134354EA0190902040111000
B0801084745866N01134445EA0190702040110000
B0801124745820N01134541EA0190502040110000
B0801164745775N01134637EA0190202032110000
B0801204745725N01134733EA0189502024112000
K080120244028
B0801244745675N01134829EA0189102024112000
B0801284745625N01134925EA0188702016113000
B0801324745575N01135020EA0188302016112000
B0801364745525N01135116EA0187902016111000
B0801404745475N01135208EA0187602008111000
K080140246029
B0801444745420N01135304EA0187302008111000
B0801484745370N01135400EA0187202008110000
B0801524745325N01135495EA0187002000109000
B0801564745275N01135591EA0186702000109000
B0802004745225N01135687EA0186301992111000
K080200248029
B0802044745179N01135787EA0185901992113000
B0802084745129N01135887EA0185701992113000
B0802124745083N01135991EA0185601984112000
B0802164745037N01136091EA0185301984111000
B0802204744987N01136191EA0184901984111000
K080220248031
B0802244744941N01136295EA0184501976112000
B0802284744891N01136395EA0184101976112000
B0802324744845N01136500EA0183801968112000
B0802364744800N01136604EA0183501968111000
B0802404744754N01136708EA0183401968110000
K080240250031
B0802444744712N01136812EA0183201960110000
B0802484744670N01136920EA0182901960111000
B0802524744629N01137029EA0182601960111000
B0802564744587N01137141EA0182301952112000
B0803004744545N01137250EA0182101952112000
K080300248031
B0803044744504N01137354EA0181801952112000
B0803084744458N01137462EA0181501944115000
B0803124744408N01137566EA0181101944116000
B0803164744362N01137670EA0181001936115000
B0803204744312N01137770EA0180801936114000
K080320242037
B0803244744266N01137870EA0180301936112000
B0803284744220N01137975EA0180001928112000
B0803324744170N01138075EA0179701928112000
B0803364744125N01138175EA0179301928112000
B0803404744079N01138279EA0179101920111000
K080340246033
B0803444744033N01138379EA0178501920111000
B0803484743987N01138483EA0178101912110000
B0803524743945N01138587EA0177901912108000
B0803564743904N01138687EA0177701912106000
B0804004743862N01138787EA0176901904109000
K080400248032
B0804044743816N01138891EA0176301896113000
B0804084743766N01138991EA0176001888113000
B0804124743720N01139095EA0175401888116000
B0804164743675N01139200EA0174701880115000
B0804204743620N01139295EA0174001872117000
K080420246031
B0804244743562N01139387EA0173601864118000
B0804284743504N01139475EA0173401864112000
B0804324743437N01139554EA0173601864115000
B0804364743375N01139633EA0174001872116000
B0804404743312N01139720EA0175501888112000
K080440250035
B0804444743258N01139804EA0176401896099000
B0804484743208N01139891EA0176901904096000
B0804524743158N01139962EA0176501896100000
B0804564743104N01140037EA0176201888103000
B0805004743050N01140116EA0175601888108000
K080500258030
B0805044743000N01140208EA0175101880108000
B0805084742954N01140308EA0174501872112000
B0805124742912N01140416EA0173901872113000
B0805164742870N01140520EA0173701864113000
B0805204742825N01140625EA0174101872106000
K080520276017
B0805244742787N01140729EA0174701880103000
B0805284742754N01140837EA0176501896104000
B0805324742708N01140912EA0178301912092000
B0805364742645N01140908EA0178001912096000
B0805404742608N01140845EA0177701912092000
K080540276017
B0805444742604N01140758EA0176901904094000
B0805484742629N01140683EA0176401896095000
B0805524742683N01140620EA0175801888109000
B0805564742745N01140579EA0174701880112000
B0806004742812N01140562EA0174101872114000
K080600276017
B0806044742887N01140579EA0173801872110000
B0806084742954N01140633EA0173401864111000
B0806124743004N01140725EA0173301864111000
B0806164743033N01140833EA0173001864113000
B0806204743045N01140958EA0173401864111000
K080620276017
B0806244743045N01141079EA0173601864112000
B0806284743041N01141204EA0173501864108000
B0806324743033N01141320EA0173401864108000
B0806364743016N01141437EA0173901872109000
B0806404742979N01141529EA0173801872106000
K080640276017
B0806444742920N01141587EA0174501872102000
B0806484742854N01141587EA0174201872093000
B0806524742804N01141529EA0172601856104000
B0806564742775N01141433EA0170801840117000
B0807004742779N01141320EA0168501816131000
K080700276017
B0807044742804N01141195EA0166201792148000
B0807084742837N01141062EA0166801792147000
B0807124742804N01140945EA0171501840117000
B0807164742729N01140970EA0174201864096000
B0807204742708N01141070EA0175001880103000
K080720276017
B0807244742758N01141133EA0175801888100000
B0807284742808N01141095EA0177001896101000
B0807324742800N01141016EA0177801904094000
B0807364742741N01140987EA0177901904101000
B0807404742683N01141062EA0178001912102000
K080740292012
B0807444742695N01141166EA0179401920101000
B0807484742750N01141195EA0180901936090000
B0807524742795N01141141EA0180901936102000
B0807564742787N01141058EA0181801944099000
B0808004742729N01141033EA0182101952101000
K080800292013
B0808044742666N01141091EA0182501952105000
B0808084742662N01141200EA0183201960108000
B0808124742716N01141262EA0184001968103000
B0808164742783N01141237EA0184401976112000
B0808204742816N01141154EA0185601984105000
K080820298009
B0808244742787N01141070EA0186101992101000
B0808284742725N01141045EA0186401992096000
B0808324742662N01141104EA0186401992103000
B0808364742654N01141216EA0187402000110000
B0808404742708N01141275EA0189002016096000
K080840298007
B0808444742762N01141237EA0189902032095000
B0808484742754N01141154EA0190002032098000
B0808524742691N01141120EA0190002032100000
B0808564742633N01141187EA0190702040103000
B0809004742637N01141291EA0192102048096000
K080900282011
K080900280011
B0809044742695N01141325EA0192802056098000
B0809084742737N01141266EA0193802072098000
B0809124742716N01141187EA0194402072093000
B0809164742654N01141170EA0194502080096000
B0809204742604N01141245EA0194402072112000
K080920294006
B0809244742625N01141345EA0195402080100000
B0809284742687N01141366EA0196302096099000
B0809324742733N01141316EA0197502104097000
B0809364742716N01141233EA0197802104095000
B0809404742654N01141216EA0197602104093000
K080940280008
B0809444742600N01141283EA0197502104105000
B0809484742604N01141391EA0197902112100000
B0809524742658N01141437EA0198402112098000
B0809564742716N01141395EA0199302120102000
B0810004742716N01141312EA0200002128092000
K081000288008
B0810044742666N01141258EA0199802128090000
B0810084742600N01141283EA0199302120096000
B0810124742558N01141370EA0199402128107000
B0810164742541N01141479EA0199502128109000
B0810204742529N01141595EA0199102120104000
K081020298008
B0810244742512N01141708EA0197702104113000
B0810284742495N01141829EA0196902096118000
B0810324742470N01141950EA0197102096115000
B0810364742437N01142062EA0198302112111000
B0810404742395N01142158EA0198802120103000
K081040314009
B0810444742341N01142233EA0198002112106000
B0810484742275N01142291EA0197302104109000
B0810524742204N01142341EA0196202096110000
B0810564742129N01142387EA0195702088116000
B0811004742050N01142433EA0195602088118000
K081100276016
B0811044741979N01142479EA0195902088115000
B0811084741908N01142525EA0196302088111000
B0811124741837N01142570EA0196202096112000
B0811164741766N01142612EA0196202096110000
B0811204741700N01142662EA0195602088111000
K081120264025
B0811244741629N01142720EA0195502088108000
B0811284741562N01142779EA0195502088114010
B0811324741495N01142841EA0195702088114000
B0811364741425N01142900EA0194902080114000
B0811404741354N01142954EA0194402072116000
K081140258025
B0811444741283N01143008EA0194202072115000
B0811484741208N01143062EA0193902072116000
B0811524741137N01143116EA0194002072113000
B0811564741070N01143175EA0193702072112000
B0812004741004N01143233EA0193202064114000
K081200260027
B0812044740933N01143287EA0193102064114000
B0812084740866N01143345EA0193402064111000
B0812124740800N01143404EA0193902072112000
B0812164740737N01143466EA0194402072108000
B0812204740679N01143525EA0195102080100000
K081220260019
B0812244740616N01143570EA0195702088094000
B0812284740554N01143595EA0196002088095000
B0812324740491N01143600EA0196402096091000
B0812364740425N01143608EA0196802096093000
B0812404740358N01143633EA0197002104098000
K081240262020
B0812444740295N01143687EA0197702112098000
B0812484740250N01143766EA0198802120087000
B0812524740225N01143858EA0198002112092000
B0812564740191N01143954EA0196902104102000
B0813004740141N01144037EA0196302096107000
K081300262020
B0813044740079N01144112EA0195402088111000
B0813084740016N01144195EA0194402072118000
B0813124739950N01144283EA0194002072115000
B0813164739891N01144379EA0193602064118000
B0813204739829N01144470EA0192902064119000
K081320270018
B0813244739762N01144558EA0192502056119000
B0813284739695N01144645EA0192402056119000
B0813324739633N01144733EA0191802048120000
B0813364739562N01144825EA0192102048123000
B0813404739500N01144908EA0192202048117000
K081340266026
B0813444739437N01144987EA0191702048117000
B0813484739370N01145070EA0191302040116000
B0813524739308N01145154EA0190802040116000
B0813564739250N01145241EA0190802040114000
B0814004739191N01145329EA0190702040112000
K081400264025
B0814044739129N01145412EA0190102032113000
B0814084739066N01145491EA0189502024116000
B0814124739004N01145570EA0189102016118000
B0814164738933N01145645EA0188402016120000
B0814204738866N01145725EA0188302016120000
K081420260026
B0814244738800N01145804EA0188302016115000
B0814284738733N01145879EA0188102008117000
B0814324738670N01145958EA0187802008115000
B0814364738608N01146033EA0187702008113000
B0814404738545N01146112EA0187602008113000
K081440264023
B0814444738487N01146191EA0187102000111000
B0814484738429N01146275EA0186802000113000
B0814524738370N01146358EA0186601992111000
B0814564738316N01146445EA0186201992110000
B0815004738258N01146529EA0185801984109000
K081500264020
B0815044738200N01146608EA0185501984110000
B0815084738141N01146687EA0186001984112000
B0815124738091N01146766EA0187302000097000
B0815164738045N01146850EA0187702008097000
B0815204738000N01146933EA0187702008096000
K081520270018
B0815244737950N01147012EA0187602008097000
B0815284737887N01147079EA0187702008097000
B0815324737845N01147170EA0187502000103000
B0815364737850N01147275EA0186501992101000
B0815404737891N01147354EA0185301984108000
K081540264021
B0815444737954N01147379EA0185101984106000
B0815484738020N01147375EA0184401976110000
B0815524738087N01147358EA0184001968108000
B0815564738141N01147304EA0183901968105000
B0816004738170N01147216EA0183501960113000
K081600264021
B0816044738154N01147112EA0183001960113000
B0816084738112N01147020EA0183101960108000
B0816124738054N01146958EA0183401960100000
B0816164737979N01146950EA0183501968094000
B0816204737916N01147016EA0183101960103000
K081620332012
B0816244737895N01147129EA0182201952102000
B0816284737904N01147250EA0182101952108000
B0816324737920N01147358EA0183001960104000
B0816364737933N01147458EA0183001960098000
B0816404737954N01147562EA0181301936106000
K081640328014
B0816444737983N01147670EA0180901936112000
B0816484738008N01147779EA0181901944103000
B0816524738020N01147891EA0183301960103000
B0816564738037N01147995EA0184401976100000
B0817004738083N01148070EA0184801976098000
K081700320014
B0817044738150N01148075EA0184701976108000
B0817084738187N01147991EA0185501984101000
B0817124738166N01147904EA0185401984093000
B0817164738112N01147858EA0185001976097000
B0817204738041N01147875EA0186101984101000
K081720320014
B0817244738004N01147962EA0186902000100000
B0817284738025N01148062EA0187702008097000
B0817324738083N01148095EA0188302016098000
B0817364738137N01148050EA0189002016096000
B0817404738141N01147962EA0189302024095000
K081740294008
B0817444738095N01147895EA0189402024098000
B0817484738029N01147908EA0191002040095000
B0817524738004N01148004EA0191502048100000
B0817564738054N01148075EA0191702048104000
B0818004738112N01148029EA0192202048103000
K081800312006
B0818044738112N01147933EA0192602056098000
B0818084738066N01147862EA0193102064095010
B0818124737995N01147870EA0194002072101000
B0818164737962N01147970EA0194602072102000
B0818204737991N01148062EA0195702088097000
K081820320006
B0818244738054N01148070EA0195502080102000
B0818284738083N01147987EA0195502080105000
B0818324738033N01147916EA0196902096097000
B0818364737966N01147950EA0197702104098000
B0818404737941N01148045EA0198802120089000
K081840318011
B0818444737979N01148125EA0198602112098000
B0818484738041N01148120EA0198702112101000
B0818524738070N01148041EA0199402128092000
B0818564738041N01147962EA0199902128088000
B0819004737979N01147941EA0199702128097000
K081900324007
B0819044737920N01148012EA0199602128097000
B0819084737929N01148112EA0200102128103000
B0819124737987N01148166EA0200702136099000
B0819164738045N01148162EA0201102144097010
B0819204738079N01148087EA0201202144092000
K081920310008
B0819244738050N01148008EA0201002144101000
B0819284737979N01147995EA0201302144098000
B0819324737920N01148066EA0201302144107000
B0819364737895N01148175EA0201202144114000
B0819404737900N01148295EA0200902136116000
K081940302008
B0819444737908N01148416EA0200302136117000
B0819484737912N01148541EA0199702128121000
B0819524737908N01148670EA0199002120120010
B0819564737908N01148804EA0199102120129000
B0820004737908N01148933EA0198502112125000
K082000330013
B0820044737912N01149062EA0198002112122000
B0820084737912N01149183EA0198102112122000
B0820124737908N01149304EA0197902104123000
B0820164737904N01149429EA0198002112117000
B0820204737904N01149545EA0199202120111000
K082020270006
B0820244737908N01149658EA0200502136106000
B0820284737912N01149766EA0201202144105000
B0820324737925N01149866EA0201702152103000
B0820364737933N01149970EA0202502152103000
B0820404737929N01150075EA0202902160103000
K082040224007
B0820444737925N01150183EA0203502168105000
B0820484737925N01150291EA0204802176102000
B0820524737925N01150395EA0205002184099000
B0820564737925N01150504EA0204402176101000
B0821004737916N01150616EA0203302160117000
K082100270005
B0821044737916N01150741EA0202702160119000
B0821084737925N01150866EA0202702160117000
B0821124737941N01150987EA0202702160114000
B0821164737958N01151108EA0202002152115000
B0821204737970N01151229EA0202002152113000
K082120300005
B0821244737954N01151350EA0202202152110000
B0821284737933N01151462EA0202102152109000
B0821324737908N01151570EA0201702152103000
B0821364737895N01151683EA0200902144106000
B0821404737895N01151804EA0199902128115000
K082140292007
B0821444737908N01151929EA0200102128120000
B0821484737925N01152050EA0201102144107000
B0821524737941N01152158EA0201302144102000
B0821564737966N01152262EA0200602136106000
B0822004737991N01152375EA0199502128117000
K082200258010
B0822044738012N01152495EA0198502112120000
B0822084738029N01152620EA0197702112121000
B0822124738045N01152750EA0197202104125000
B0822164738058N01152883EA0196702096126000
B0822204738066N01153016EA0196702096129000
K082220302012
B0822244738079N01153150EA0197402104117000
B0822284738087N01153275EA0198502120117000
B0822324738087N01153400EA0198602120108000
B0822364738087N01153529EA0198202112111000
B0822404738091N01153658EA0198702120117000
K082240274014
B0822444738100N01153779EA0199802128106000
B0822484738108N01153887EA0200402144097000
B0822524738108N01153995EA0200302136100000
B0822564738100N01154112EA0200302136117000
B0823004738095N01154225EA0201202144103000
K082300250014
B0823044738108N01154329EA0202102160092000
B0823084738137N01154420EA0201002144095000
B0823124738175N01154520EA0199202128107000
B0823164738216N01154620EA0198502120111000
B0823204738250N01154725EA0197902112107000
K082320250014
B0823244738283N01154833EA0197302104105000
B0823284738316N01154945EA0196302096111000
B0823324738345N01155058EA0195702088112000
B0823364738370N01155179EA0195202088109000
B0823404738387N01155300EA0195002088113000
K082340274016
B0823444738395N01155420EA0194902080108000
B0823484738395N01155545EA0194502080108000
B0823524738387N01155666EA0194102072113000
B0823564738375N01155787EA0193602072109000
B0824004738358N01155908EA0193402072110000
K082400252016
B0824044738337N01156029EA0192902064113000
B0824084738320N01156158EA0192402056120000
B0824124738320N01156287EA0191802056116000
B0824164738333N01156412EA0191202048109000
B0824204738362N01156529EA0191002048107000
K082420272017
B0824244738387N01156641EA0190102032119000
B0824284738408N01156762EA0190202032120000
B0824324738425N01156883EA0190702040113000
B0824364738429N01157000EA0189802032109000
B0824404738433N01157120EA0189402032113000
K082440286013
B0824444738433N01157241EA0189602032116000
B0824484738420N01157354EA0189502032112000
B0824524738395N01157466EA0188802024112000
B0824564738366N01157575EA0187802016112000
B0825004738341N01157687EA0186101992112000
K082500238012
B0825044738316N01157804EA0184901984114000
B0825084738287N01157920EA0184001976118000
B0825124738258N01158037EA0184301976124000
B0825164738225N01158154EA0184801984110000
B0825204738191N01158258EA0185101984109000
K082520238017
B0825244738145N01158358EA0184301976111000
B0825284738095N01158454EA0183201968107000
B0825324738062N01158570EA0181901952116000
B0825364738079N01158695EA0182501960113000
B0825404738120N01158795EA0183601968107000
K082540238017
B0825444738183N01158862EA0184201976105000
B0825484738250N01158887EA0185201992099000
B0825524738295N01158825EA0185801992097000
B0825564738287N01158737EA0186001992098000
B0826004738229N01158700EA0186402000096000
K082600238017
B0826044738162N01158712EA0187002008089000
B0826084738108N01158770EA0186402000095000
B0826124738075N01158858EA0186802000096000
B0826164738066N01158962EA0187102008096000
B0826204738070N01159066EA0187302008098000
K082620270008
B0826244738087N01159170EA0187002008112000
B0826284738104N01159279EA0187602008103000
B0826324738120N01159387EA0187702008104000
B0826364738137N01159500EA0188002016109000
B0826404738150N01159616EA0188102016105000
K082640258010
B0826444738162N01159729EA0187802016106000
B0826484738179N01159845EA0187002000122000
B0826524738187N01159966EA0187202008121000
B0826564738191N01200083EA0187102008117000
B0827004738195N01200200EA0186802000110000
K082700256008
B0827044738195N01200316EA0186902000103000
B0827084738195N01200425EA0187102008108000
B0827124738204N01200533EA0187602008101000
B0827164738212N01200637EA0187202008102000
B0827204738220N01200745EA0186402000107000
K082720264009
B0827244738225N01200858EA0186101992104000
B0827284738229N01200970EA0185601992107000
B0827324738233N01201083EA0185201984109000
B0827364738237N01201195EA0184701976108000
B0827404738237N01201308EA0184301976109000
K082740286007
B0827444738220N01201420EA0183701968111000
B0827484738175N01201529EA0183101960118000
B0827524738125N01201625EA0183201960117000
B0827564738070N01201720EA0183401968119000
B0828004738016N01201812EA0183901968120000
K082800260011
B0828044737970N01201908EA0184001976114000
B0828084737920N01202004EA0183601968113000
B0828124737875N01202100EA0183201960115000
B0828164737820N01202191EA0182301952117000
B0828204737766N01202283EA0181001944118000
K082820242017
B0828244737716N01202379EA0180001928123000
B0828284737658N01202475EA0178701920125000
B0828324737595N01202562EA0177501904127000
B0828364737525N01202654EA0176101888130000
B0828404737454N01202745EA0174901880134000
K082840246017
B0828444737379N01202837EA0173501864136000
B0828484737304N01202933EA0172601856130000
B0828524737229N01203029EA0171501840140000
B0828564737154N01203125EA0170901832143000
B0829004737079N01203229EA0170701832140000
K082900274016
B0829044737008N01203329EA0170501832139000
B0829084736937N01203425EA0170501832134000
B0829124736870N01203529EA0171701840137000
B0829164736812N01203625EA0173501856118000
B0829204736754N01203700EA0175301880099000
K082920264023
B0829244736700N01203750EA0176901896089000
B0829284736645N01203762EA0177501904089000
B0829324736595N01203716EA0177501904096000
B0829364736579N01203637EA0178301912088000
B0829404736612N01203566EA0177901912093000
K082940270019
B0829444736670N01203525EA0178301912093000
B0829484736729N01203504EA0178701920087000
B0829524736791N01203500EA0178801920092000
B0829564736854N01203512EA0179101920093000
B0830004736891N01203587EA0179101920095000
K083000270019
B0830044736879N01203691EA0179501928092000
B0830084736825N01203745EA0179601928092000
B0830124736762N01203750EA0180001928093000
B0830164736708N01203704EA0180401936090000
B0830204736687N01203620EA0180301928099000
K083020288006
B0830244736704N01203529EA0180901936093000
B0830284736758N01203483EA0182101952088000
B0830324736816N01203504EA0182401952094000
B0830364736833N01203591EA0182401952093000
B0830404736795N01203679EA0182301952098000
K083040274002
B0830444736733N01203708EA0183201960091000
B0830484736675N01203675EA0183701968089000
B0830524736645N01203600EA0184101968092000
B0830564736650N01203516EA0185001976090000
B0831004736691N01203454EA0185301984089000
K083100292005
B0831044736745N01203433EA0185901992089000
B0831084736800N01203475EA0185901984093000
B0831124736825N01203575EA0186101992099000
B0831164736808N01203679EA0186902000095000
B0831204736762N01203758EA0187102000103000
K083120296009
B0831244736691N01203775EA0187602000105000
B0831284736637N01203708EA0188001992101000
B0831324736633N01203612EA0189102008093000
B0831364736670N01203537EA0189902024095000
B0831404736733N01203520EA0190502024098000
K083140296009
B0831444736783N01203583EA0190802032097000
B0831484736775N01203691EA0190802032101000
B0831524736725N01203762EA0191202040106000
B0831564736658N01203783EA0192002048098000
B0832004736600N01203754EA0192702048095000
K083200296009
B0832044736562N01203687EA0193102056096000
B0832084736562N01203600EA0193502064091000
B0832124736600N01203529EA0193802064092000
B0832164736662N01203520EA0193802064099000
B0832204736716N01203579EA0194402072094000
K083220276005
B0832244736733N01203675EA0194702072096000
B0832284736704N01203762EA0194702080097000
B0832324736641N01203800EA0194902080097000
B0832364736583N01203783EA0195502080094000
B0832404736537N01203725EA0196102088090000
K083240254005
B0832444736525N01203641EA0196502096098000
B0832484736570N01203579EA0196702096094000
B0832524736633N01203587EA0196602096100000
B0832564736675N01203666EA0197202104096000
B0833004736666N01203766EA0197202104095000
K083300268007
B0833044736616N01203833EA0197402104099000
B0833084736554N01203845EA0198002112098000
B0833124736504N01203791EA0199002120091000
B0833164736508N01203708EA0199402128093000
B0833204736558N01203666EA0199302120102000
K083320274008
B0833244736620N01203712EA0199902128099000
B0833284736629N01203812EA0200702136093000
B0833324736583N01203883EA0201102144093000
B0833364736525N01203879EA0201902152092000
B0833404736500N01203800EA0201902152095000
K083340278010
B0833444736541N01203733EA0202002152093000
B0833484736604N01203754EA0202002152102000
B0833524736633N01203845EA0202802160093000
B0833564736600N01203933EA0202502160095000
B0834004736537N01203958EA0203402168094000
K083400270010
B0834044736491N01203912EA0204502168084000
B0834084736491N01203833EA0204102168094000
B0834124736533N01203775EA0204302168092000
B0834164736595N01203787EA0204702168093000
B0834204736625N01203870EA0204802176091000
K083420278010
B0834244736600N01203966EA0204602176095000
B0834284736545N01204016EA0205402184093000
B0834324736487N01203995EA0205502184096000
B0834364736462N01203920EA0206102192087000
B0834404736483N01203841EA0206102192094000
K083440274008
B0834444736541N01203812EA0206202200095000
B0834484736600N01203858EA0207002200096000
B0834524736620N01203954EA0207502208086000
B0834564736600N01204041EA0207302208089000
B0835004736550N01204100EA0207102200098000
K083500262008
B0835044736487N01204100EA0207902216093000
B0835084736429N01204070EA0207802216094000
B0835124736370N01204037EA0207802208094000
B0835164736308N01204016EA0207802216097000
B0835204736241N01204000EA0207202208097000
K083520266008
B0835244736170N01203995EA0206402200101000
B0835284736095N01204025EA0205102184109000
B0835324736025N01204091EA0204202176115000
B0835364735966N01204187EA0203202160119000
B0835404735920N01204295EA0202502160124000
K083540266008
B0835444735879N01204412EA0203002160119000
B0835484735845N01204529EA0203502168113000
B0835524735816N01204641EA0203402168115000
B0835564735779N01204754EA0203802168106000
B0836004735741N01204862EA0203002160112000
K083600274013
B0836044735700N01204970EA0202202152112000
B0836084735658N01205079EA0201002136121000
B0836124735616N01205195EA0200602136119000
B0836164735583N01205312EA0200202128118000
B0836204735550N01205433EA0199602128117000
K083620262016
B0836244735516N01205550EA0199602128116000
B0836284735479N01205662EA0199202120115000
B0836324735445N01205779EA0198902120113000
B0836364735408N01205895EA0198202112113000
B0836404735375N01206012EA0197902112117000
K083640252020
B0836444735341N01206125EA0197402104117000
B0836484735308N01206241EA0197502104114000
B0836524735270N01206350EA0197302104112000
B0836564735237N01206462EA0197102104113000
B0837004735208N01206575EA0196802096114000
K083700250020
B0837044735179N01206691EA0196602096113000
B0837084735150N01206808EA0196402096113000
B0837124735120N01206925EA0196502096113000
B0837164735091N01207037EA0196402096111000
B0837204735062N01207150EA0196102096111000
K083720244020
B0837244735029N01207266EA0195302080118000
B0837284734995N01207383EA0194602080120000
B0837324734958N01207500EA0194402072119000
B0837364734920N01207616EA0194202072117000
B0837404734883N01207737EA0193802064119000
K083740246020
B0837444734845N01207854EA0193402064120000
B0837484734808N01207970EA0193002064121000
B0837524734770N01208087EA0193202064119000
B0837564734733N01208204EA0193202064117000
B0838004734700N01208320EA0193002064117000
K083800250021
B0838044734666N01208437EA0192602056118000
B0838084734633N01208554EA0192602056118000
B0838124734595N01208670EA0192502056117000
B0838164734562N01208783EA0192402056115000
B0838204734529N01208900EA0192202048113000
K083820250020
B0838244734495N01209012EA0191902048114000
B0838284734458N01209125EA0191602048113000
B0838324734425N01209241EA0191402040113000
B0838364734395N01209358EA0191102040114000
B0838404734362N01209475EA0190602032114000
K083840254018
B0838444734333N01209595EA0190202032115000
B0838484734304N01209712EA0189702024115000
B0838524734275N01209833EA0189402024115000
B0838564734245N01209954EA0189202024115000
B0839004734216N01210075EA0188802016117000
K083900254019
K083900254019
B0839044734183N01210195EA0188602016117000
B0839084734150N01210312EA0188102008116000
B0839124734112N01210433EA0187702008117000
B0839164734079N01210550EA0187602000118000
B0839204734045N01210675EA0187202000117000
K083920252022
B0839244734016N01210795EA0187102000117000
B0839284733987N01210916EA0187002000115000
B0839324733958N01211037EA0186601992115000
B0839364733933N01211158EA0186401992118000
B0839404733908N01211279EA0186201992116000
K083940252023
B0839444733879N01211400EA0186001992115000
B0839484733854N01211520EA0185901984115000
B0839524733820N01211637EA0185301984114000
B0839564733795N01211754EA0185101984114000
B0840004733762N01211866EA0184901976113000
K084000246021
B0840044733737N01211983EA0184501976111000
B0840084733708N01212100EA0184001968114000
B0840124733683N01212220EA0183701968115000
B0840164733658N01212337EA0183601968113000
B0840204733629N01212454EA0183301960112000
K084020248021
B0840244733595N01212566EA0183301960112000
B0840284733566N01212683EA0183101960112000
B0840324733537N01212795EA0183201960110000
B0840364733512N01212908EA0182901960112000
B0840404733487N01213020EA0182501952111000
K084040246020
B0840444733462N01213133EA0182301952111000
B0840484733445N01213245EA0181701944111000
B0840524733425N01213354EA0181201936111000
B0840564733400N01213466EA0181501944117000
B0841004733379N01213583EA0182101952114000
K084100242014
B0841044733358N01213691EA0183101960110000
B0841084733350N01213800EA0183701968102000
B0841124733350N01213904EA0184701976104000
B0841164733341N01214004EA0186201992093000
B0841204733287N01214058EA0186601992098000
K084120242013
B0841244733233N01214020EA0187102000093000
B0841284733220N01213937EA0186501992092000
B0841324733250N01213862EA0186001992095000
B0841364733316N01213858EA0186902000101000
B0841404733358N01213937EA0188402016097000
K084140242013
B0841444733333N01214020EA0189302024093000
B0841484733270N01214020EA0188602016098000
B0841524733237N01213937EA0189302024098000
B0841564733266N01213858EA0190602032097000
B0842004733325N01213854EA0191002040096000
K084200258004
B0842044733366N01213925EA0191902048099000
B0842084733341N01214012EA0191702048100000
B0842124733275N01214025EA0191502048100000
B0842164733229N01213950EA0192102048103000
B0842204733250N01213862EA0193302064096000
K084220332004
B0842244733304N01213845EA0193302064099000
B0842284733350N01213916EA0193902064103000
B0842324733325N01214004EA0194102072102000
B0842364733258N01214008EA0193902072105000
B0842404733225N01213920EA0194602072100000
K084240358006
B0842444733250N01213837EA0195302088090000
B0842484733312N01213825EA0194102072108000
B0842524733362N01213891EA0195302080103000
B0842564733366N01213987EA0195902088097000
B0843004733316N01214054EA0195602088099000
K084300340006
B0843044733245N01214037EA0195502088101000
B0843084733220N01213950EA0195902088108000
B0843124733250N01213866EA0196902096097000
B0843164733304N01213845EA0197502104093000
B0843204733354N01213895EA0197802112097000
K084320318005
B0843244733375N01213983EA0197602112100000
B0843284733370N01214087EA0196902104106000
B0843324733362N01214191EA0196202096111000
B0843364733358N01214304EA0196002088109000
B0843404733354N01214416EA0195502088112000
K084340336005
B0843444733354N01214537EA0195202080110000
B0843484733370N01214654EA0195502088121000
B0843524733400N01214762EA0196002088115000
B0843564733433N01214862EA0195802088108000
B0844004733466N01214962EA0195702088108000
K084400314005
B0844044733487N01215070EA0195402088109000
B0844084733508N01215179EA0194502072118000
B0844124733537N01215287EA0195302080117000
B0844164733570N01215391EA0196002088113000
B0844204733608N01215495EA0196902096116000
K084420292005
B0844244733641N01215591EA0196802104102000
B0844284733658N01215695EA0195902088107000
B0844324733650N01215808EA0195302080108000
B0844364733625N01215916EA0194902080116000
B0844404733591N01216020EA0194702080114000
K084440308006
B0844444733558N01216116EA0195002080118000
B0844484733520N01216212EA0195502088107000
B0844524733479N01216308EA0195902088112000
B0844564733429N01216391EA0195902088112000
B0845004733379N01216475EA0195502080110000
K084500230014
B0845044733325N01216554EA0195002080113000
B0845084733266N01216633EA0194802080111000
B0845124733212N01216712EA0194102072107000
B0845164733158N01216795EA0193102064111000
B0845204733100N01216879EA0192402048115000
K084520236016
B0845244733041N01216966EA0191402040113000
B0845284733000N01217070EA0190602032114000
B0845324732966N01217183EA0189902032117000
B0845364732950N01217304EA0189302024115000
B0845404732941N01217420EA0188402016117000
K084540234017
B0845444732933N01217541EA0187902008122000
B0845484732920N01217666EA0188402016125000
B0845524732904N01217783EA0189302024116000
B0845564732891N01217895EA0190002032108000
B0846004732891N01218012EA0190802032115000
K084600248010
B0846044732895N01218129EA0191602048114000
B0846084732900N01218245EA0192202048114000
B0846124732866N01218350EA0191002040112000
B0846164732825N01218450EA0189502024116000
B0846204732812N01218566EA0189702024115000
K084620242011
B0846244732820N01218683EA0189702024114000
B0846284732845N01218787EA0188702016126000
B0846324732891N01218895EA0187602000129000
B0846364732916N01219016EA0190002024122000
B0846404732879N01219108EA0192502056101000
K084640242011
B0846444732816N01219112EA0193202064095000
B0846484732775N01219033EA0193802072095000
B0846524732779N01218937EA0194002072090000
B0846564732825N01218858EA0193402064098000
B0847004732883N01218812EA0194002072098000
K084700242011
B0847044732950N01218812EA0194702080097000
B0847084733004N01218862EA0194902080101000
B0847124733025N01218954EA0195202080107000
B0847164732991N01219041EA0196202096099000
B0847204732929N01219075EA0196802104096000
K084720084005
B0847244732866N01219050EA0196902104095000
B0847284732820N01218979EA0197102104099000
B0847324732816N01218879EA0197302104096000
B0847364732854N01218791EA0197302104096000
B0847404732912N01218745EA0197502104102000
K084740076003
B0847444732975N01218754EA0197902112100000
B0847484733016N01218829EA0198602120096000
B0847524733000N01218916EA0198902120100000
B0847564732933N01218929EA0198902120105000
B0848004732895N01218837EA0199802128100000
K084800086006
B0848044732933N01218754EA0200102136100000
B0848084732995N01218758EA0200602136101000
B0848124733029N01218841EA0201502152094000
B0848164733004N01218920EA0201802152095000
B0848204732941N01218937EA0202402160093000
K084820066004
B0848244732887N01218879EA0202802160093000
B0848284732887N01218783EA0202602160094000
B0848324732929N01218716EA0202502160100000
B0848364732991N01218704EA0203802176093000
B0848404733041N01218741EA0205002184090000
K084840056003
B0848444733066N01218825EA0204102176096000
B0848484733037N01218908EA0204002176102000
B0848524732975N01218920EA0205002184089000
B0848564732920N01218866EA0205502192089000
B0849004732904N01218775EA0204502184091000
K084900048006
B0849044732941N01218691EA0204002176098000
B0849084733008N01218654EA0205102184104000
B0849124733075N01218633EA0206502200097000
B0849164733133N01218608EA0206802200086000
B0849204733200N01218583EA0206502200095000
K084920042005
B0849244733262N01218562EA0207002200089000
B0849284733316N01218575EA0206702200093000
B0849324733362N01218637EA0206202200097000
B0849364733375N01218725EA0206102192097000
B0849404733358N01218820EA0206702200098000
K084940042005
B0849444733333N01218904EA0207602208091000
B0849484733283N01218966EA0207802216092000
B0849524733216N01218983EA0207202208101000
B0849564733150N01218954EA0206602200105000
B0850004733083N01218908EA0207002208105000
K085000042005
B0850044733033N01218833EA0208002216103000
B0850084733016N01218729EA0209802232096000
B0850124733045N01218654EA0210702248092000
B0850164733100N01218670EA0210102240102000
B0850204733112N01218762EA0210202240099000
K085020020011
B0850244733066N01218833EA0210402240102000
B0850284732995N01218820EA0212102256103000
B0850324732958N01218745EA0214602280086000
B0850364732966N01218658EA0214102280095000
B0850404733020N01218616EA0213902272094000
K085040004010
B0850444733075N01218650EA0214002272095000
B0850484733087N01218745EA0214202280102000
B0850524733054N01218837EA0214402280104000
B0850564732991N01218875EA0216302296097000
B0851004732933N01218833EA0218102312086000
K085100004011
B0851044732912N01218741EA0218002312099000
B0851084732945N01218658EA0218402320100000
B0851124733000N01218650EA0219402328095000
B0851164733041N01218712EA0219402328089000
B0851204733050N01218804EA0218302320105000
K085120012008
B0851244733050N01218912EA0218302320110000
B0851284733045N01219025EA0217302312112000
B0851324733041N01219145EA0216602296115000
B0851364733037N01219266EA0215702296120000
B0851404733041N01219391EA0215602288117000
K085140016008
B0851444733045N01219516EA0215402288121000
B0851484733054N01219641EA0215402288119000
B0851524733054N01219766EA0215002288120000
B0851564733045N01219895EA0214902280125000
B0852004733029N01220020EA0215102288119000
K085200270004
B0852044733016N01220141EA0214602280121000
B0852084733008N01220266EA0214802280121000
B0852124733000N01220391EA0214702280119000
B0852164733000N01220516EA0214502280121000
B0852204732995N01220641EA0213502272127000
K085220254007
B0852244732987N01220779EA0211602248139000
B0852284732979N01220920EA0210102232143000
B0852324732962N01221066EA0209202224150000
B0852364732941N01221212EA0209302224144000
B0852404732908N01221354EA0209602232140000
K085240248005
B0852444732854N01221475EA0209302224142000
B0852484732787N01221583EA0208702224140000
B0852524732720N01221695EA0208502216140000
B0852564732654N01221804EA0208702224136000
B0853004732600N01221916EA0208602216133000
K085300250014
B0853044732545N01222033EA0208602224134000
B0853084732500N01222145EA0209202232125000
B0853124732458N01222258EA0208302216122000
B0853164732416N01222370EA0206602200116000
B0853204732387N01222500EA0205702192131000
K085320280011
B0853244732362N01222629EA0206002200127000
B0853284732345N01222758EA0206302200122000
B0853324732325N01222887EA0206402200118000
B0853364732308N01223012EA0206502200121000
B0853404732291N01223137EA0206802208116000
K085340256013
B0853444732283N01223262EA0206002192124000
B0853484732275N01223387EA0205202192118000
B0853524732262N01223516EA0204802184121000
B0853564732245N01223641EA0204202176121000
B0854004732225N01223770EA0203602168128000
K085400234017
B0854044732208N01223904EA0202602160122000
B0854084732187N01224033EA0202302160127000
B0854124732166N01224166EA0202302160128000
B0854164732141N01224300EA0202002160128000
B0854204732120N01224429EA0202102160126000
K085420226020
B0854244732100N01224558EA0201902160125000
B0854284732083N01224683EA0201702152124000
B0854324732066N01224812EA0201202152123000
B0854364732054N01224937EA0200502144125000
B0854404732041N01225070EA0199902136128000
K085440228018
B0854444732025N01225200EA0199302128130000
B0854484732012N01225333EA0199002128129000
B0854524731995N01225470EA0198502120130000
B0854564731983N01225604EA0197902120131000
B0855004731966N01225741EA0197502112133000
K085500228014
B0855044731950N01225879EA0197002104132000
B0855084731929N01226016EA0196502104132000
B0855124731912N01226154EA0196102096132000
B0855164731895N01226291EA0195702096133000
B0855204731883N01226429EA0195202088133000
K085520234015
B0855244731875N01226570EA0194302080136000
B0855284731862N01226716EA0193602072137000
B0855324731854N01226862EA0193002064137000
B0855364731845N01227004EA0192802064135000
B0855404731841N01227150EA0192602064134000
K085540238015
B0855444731837N01227291EA0192302056133000
B0855484731833N01227429EA0191602048133000
B0855524731829N01227570EA0191402048131000
B0855564731829N01227712EA0191302048133000
B0856004731825N01227850EA0191002048134000
K085600234015
B0856044731812N01227987EA0191002048131000
B0856084731800N01228120EA0190702040130000
B0856124731779N01228254EA0190402040127000
B0856164731754N01228383EA0189802032131000
B0856204731733N01228516EA0189602032128000
K085620226017
B0856244731716N01228650EA0189302032129000
B0856284731700N01228783EA0189102024126000
B0856324731683N01228912EA0188402016129000
B0856364731670N01229045EA0188002016131000
B0856404731654N01229179EA0187702008128000
K085640240013
B0856444731645N01229308EA0187602008125000
B0856484731637N01229437EA0187402008124000
B0856524731629N01229566EA0186602000121000
B0856564731629N01229695EA0185601992123000
B0857004731637N01229825EA0185001984122000
K085700260011
B0857044731650N01229950EA0184401976123000
B0857084731658N01230079EA0183301968125000
B0857124731666N01230212EA0181701952136000
B0857164731679N01230354EA0180601936140000
B0857204731695N01230500EA0179801928141000
K085720296011
B0857244731704N01230645EA0179101928139000
B0857284731700N01230795EA0178501920139000
B0857324731700N01230937EA0178201912140000
B0857364731704N01231075EA0179701928140000
B0857404731708N01231200EA0181301944112000
K085740234013
B0857444731712N01231312EA0182601960096000
B0857484731716N01231416EA0181901952103000
B0857524731716N01231525EA0181301944107000
B0857564731716N01231641EA0180601936112000
B0858004731720N01231754EA0179701928116000
K085800222014
B0858044731733N01231875EA0179301928110000
B0858084731754N01231991EA0179001928110000
B0858124731775N01232108EA0179701928114000
B0858164731791N01232220EA0180101936111000
B0858204731808N01232333EA0180501944106000
K085820248010
B0858244731820N01232441EA0180601944102000
B0858284731829N01232545EA0180501944105000
B0858324731841N01232650EA0180201936099000
B0858364731866N01232745EA0178901928106000
B0858404731912N01232833EA0177901912117000
K085840242011
B0858444731970N01232908EA0177801912114000
B0858484732029N01232966EA0178101920099000
B0858524732095N01233012EA0177501912104000
B0858564732162N01233062EA0176901904110000
B0859004732220N01233133EA0176901904115000
K085900232010
B0859044732250N01233237EA0177301904110000
B0859084732245N01233345EA0178101912100000
B0859124732225N01233450EA0179401928105000
B0859164732175N01233529EA0181501952088000
B0859204732104N01233525EA0181601952103000
K085920232010
B0859244732054N01233450EA0182601960098000
B0859284732066N01233362EA0183101968094000
B0859324732120N01233312EA0181901952111000
B0859364732195N01233287EA0181501944120000
B0859404732275N01233258EA0182601960112000
K085940232010
B0859444732350N01233241EA0184801976115000
B0859484732395N01233187EA0187402008093000
B0859524732383N01233112EA0188002016093000
B0859564732320N01233100EA0187702008109000
B0900004732270N01233175EA0189402032095000
K090000232010
B0900044732283N01233262EA0190402040090000
B0900084732337N01233308EA0190102032101000
B0900124732400N01233283EA0191102048095000
B0900164732416N01233208EA0191302048099000
B0900204732383N01233141EA0192602064092000
K090020270012
B0900244732316N01233141EA0194002080097000
B0900284732279N01233216EA0194802088095000
B0900324732304N01233308EA0195202088097000
B0900364732370N01233329EA0195202088103000
B0900404732416N01233266EA0196102096100000
K090040272009
B0900444732408N01233179EA0196602104101000
B0900484732354N01233112EA0197902112110000
B0900524732291N01233137EA0200002136097000
B0900564732279N01233225EA0200002136094000
B0901004732329N01233295EA0199402128105000
K090100304002
B0901044732404N01233291EA0201002144103000
B0901084732437N01233212EA0202302160100000
B0901124732412N01233125EA0203202168102000
B0901164732362N01233066EA0205202184097000
B0901204732308N01233100EA0206302192090000
K090120198001
B0901244732304N01233195EA0205902184104000
B0901284732366N01233245EA0205902184105000
B0901324732429N01233200EA0208202208097000
B0901364732433N01233112EA0209602224094000
B0901404732387N01233050EA0210402224099000
K090140154005
B0901444732325N01233079EA0211902240097000
B0901484732304N01233162EA0212502248095000
B0901524732337N01233245EA0212302248102000
B0901564732404N01233270EA0213302256101000
B0902004732462N01233225EA0215002272096000
K090200184003
B0902044732466N01233137EA0215502280093000
B0902084732420N01233083EA0216402288096000
B0902124732362N01233108EA0217602296102000
B0902164732350N01233200EA0218102304087000
B0902204732387N01233279EA0218102304105000
K090220212005
B0902244732458N01233279EA0219402320097000
B0902284732487N01233200EA0220002328093000
B0902324732454N01233129EA0219802320102000
B0902364732387N01233116EA0220102320117000
B0902404732312N01233154EA0219702320119000
K090240220010
B0902444732250N01233220EA0219502328117000
B0902484732187N01233300EA0219502336122000
B0902524732120N01233375EA0219302336122000
B0902564732045N01233441EA0220002344125000
B0903004731975N01233516EA0219802344123000
K090300224007
B0903044731908N01233591EA0219402336127000
B0903084731837N01233675EA0218902328130000
B0903124731766N01233762EA0218102320125000
B0903164731700N01233858EA0217602312131000
B0903204731633N01233954EA0217102312124000
K090320276008
B0903244731562N01234041EA0217102312125000
B0903284731491N01234125EA0216402304127000
B0903324731416N01234208EA0214702288137000
B0903364731333N01234295EA0214002280145000
B0903404731250N01234375EA0213602272138000
K090340258023
B0903444731166N01234454EA0213602272150000
B0903484731083N01234537EA0212902264145000
B0903524730995N01234616EA0212002256146000
B0903564730912N01234704EA0211402248144000
B0904004730825N01234791EA0210702248145000
K090400258023
B0904044730733N01234870EA0210702248147000
B0904084730645N01234950EA0210602248150000
B0904124730554N01235020EA0210502240147000
B0904164730466N01235091EA0210102240140000
B0904204730375N01235162EA0210302240143000
K090420258034
B0904244730287N01235225EA0211402256138000
B0904284730204N01235275EA0213202272118000
B0904324730129N01235333EA0213802280113000
B0904364730054N01235404EA0213102272131000
B0904404729975N01235483EA0211402256130000
K090440274023
B0904444729891N01235566EA0210102240138000
B0904484729804N01235641EA0209602232136000
B0904524729712N01235708EA0209002232142000
B0904564729620N01235770EA0208302224144000
B0905004729525N01235837EA0208202224146000
K090500270030
B0905044729429N01235908EA0208602224141000
B0905084729341N01235979EA0209102232135000
B0905124729258N01236054EA0208702224135000
B0905164729175N01236129EA0208202224133000
B0905204729087N01236204EA0207502216137000
K090520280025
B0905244729000N01236275EA0207802216138000
B0905284728908N01236337EA0207702216134000
B0905324728820N01236400EA0207602216133000
B0905364728733N01236458EA0207702216133000
B0905404728645N01236520EA0208102224133000
K090540276031
B0905444728562N01236575EA0208502232123000
B0905484728479N01236641EA0208702224128000
B0905524728400N01236716EA0208302224128000
B0905564728320N01236783EA0207802216128000
B0906004728237N01236850EA0207002208128000
K090600280026
B0906044728150N01236912EA0207002208127000
B0906084728066N01236970EA0206802208125000
B0906124727983N01237033EA0206302200128000
B0906164727904N01237100EA0205502192129000
B0906204727820N01237166EA0205002192130000
K090620278026
B0906244727737N01237237EA0204602184131000
B0906284727654N01237304EA0204102184129000
B0906324727570N01237375EA0203802176131000
B0906364727487N01237441EA0203202176132000
B0906404727404N01237508EA0202702168134000
K090640274028
B0906444727316N01237575EA0202302160134000
B0906484727233N01237637EA0201902160133000
B0906524727145N01237691EA0201702160133000
B0906564727058N01237745EA0201202152134000
B0907004726970N01237795EA0201002152133000
K090700268035
B0907044726883N01237841EA0200602144132000
B0907084726800N01237887EA0200202144131000
B0907124726712N01237929EA0200002136129000
B0907164726625N01237966EA0199702136128000
B0907204726541N01238008EA0199402136127000
K090720270033
B0907244726458N01238050EA0199002128127000
B0907284726370N01238095EA0198502120127000
B0907324726287N01238145EA0197702120129000
B0907364726204N01238200EA0197502112129000
B0907404726116N01238254EA0197002112127000
K090740278022
B0907444726033N01238308EA0196502104125000
B0907484725945N01238358EA0196402104129000
B0907524725858N01238404EA0196302104131000
B0907564725779N01238462EA0196902112127000
B0908004725695N01238516EA0196602104123000
K090800284022
B0908044725612N01238570EA0195702096124000
B0908084725529N01238625EA0194002080127000
B0908124725441N01238683EA0192802064134000
B0908164725358N01238750EA0192402064130000
B0908204725275N01238816EA0192202056130000
K090820286020
B0908244725195N01238879EA0191902056130000
B0908284725116N01238950EA0191402056131000
B0908324725037N01239025EA0191102048131000
B0908364724962N01239104EA0190902048135000
B0908404724887N01239187EA0190502040135000
K090840278018
B0908444724812N01239275EA0190202040137000
B0908484724741N01239366EA0190002040132000
B0908524724675N01239462EA0189802040128000
B0908564724612N01239554EA0189502032129000
B0909004724545N01239654EA0189002024126000
K090900270017
B0909044724487N01239762EA0188602024134000
B0909084724437N01239875EA0189102032124000
B0909124724391N01239991EA0189002024128000
B0909164724350N01240112EA0188402024126000
B0909204724308N01240233EA0188202024125000
K090920288012
B0909244724266N01240354EA0189002024131000
B0909284724216N01240458EA0191502056111000
B0909324724158N01240525EA0194402088098000
B0909364724095N01240508EA0194402088102000
B0909404724075N01240416EA0192902064107000
K090940288012
B0909444724125N01240345EA0192902064118000
B0909484724191N01240387EA0194002080105000
B0909524724229N01240483EA0194902088112000
B0909564724225N01240591EA0195402096108000
B0910004724175N01240683EA0197202112117000
K091000280010
B0910044724112N01240733EA0199302136101000
B0910084724075N01240812EA0200302144096000
B0910124724100N01240895EA0200402144098000
B0910164724158N01240912EA0200202144108000
B0910204724208N01240845EA0201502152105000
K091020270016
B0910244724204N01240750EA0203102168092000
B0910284724158N01240691EA0203502176099000
B0910324724091N01240700EA0204102184103000
B0910364724045N01240770EA0204602176096000
B0910404724075N01240862EA0204502176104000
K091040036006
B0910444724141N01240891EA0205602192101000
B0910484724187N01240833EA0207802216095000
B0910524724195N01240754EA0208202224095000
B0910564724150N01240691EA0208102216100000
B0911004724079N01240708EA0209002232103000
K091100254002
B0911044724050N01240791EA0210202240095000
B0911084724079N01240875EA0210402232101000
B0911124724141N01240900EA0211202248099000
B0911164724191N01240850EA0211702248099000
B0911204724208N01240766EA0211902256100000
K091120294008
B0911244724187N01240683EA0212902264098000
B0911284724133N01240637EA0214202280093000
B0911324724066N01240645EA0214502280093000
B0911364724016N01240720EA0214402280104000
B0911404723991N01240820EA0214102272114000
K091140314003
B0911444723962N01240933EA0214202280113000
B0911484723929N01241041EA0214302280117000
B0911524723891N01241145EA0214702280116000
B0911564723850N01241250EA0214602280107000
B0912004723800N01241345EA0214302280114000
K091200314003
B0912044723762N01241458EA0213902280113000
B0912084723733N01241570EA0213702272110000
B0912124723700N01241683EA0213502272111000
B0912164723670N01241800EA0213602272112000
B0912204723637N01241916EA0214302280114000
K091220270010
B0912244723600N01242025EA0214502280108000
B0912284723545N01242125EA0214302280113000
B0912324723491N01242220EA0214102280116000
B0912364723441N01242325EA0213502272119000
B0912404723395N01242433EA0213102272116000
K091240256020
B0912444723354N01242545EA0212102264117000
B0912484723312N01242662EA0211302256120000
B0912524723270N01242779EA0210302240127000
B0912564723229N01242900EA0209802240125000
B0913004723183N01243025EA0208502224130000
K091300274015
B0913044723137N01243154EA0207002208137000
B0913084723091N01243287EA0206102200141000
B0913124723045N01243420EA0205502200137000
B0913164723004N01243558EA0205002192137000
B0913204722962N01243691EA0204602184134000
K091320262017
B0913244722920N01243825EA0203602176134000
B0913284722900N01243966EA0203102176137000
B0913324722900N01244108EA0203502176132000
B0913364722900N01244245EA0203602176134000
B0913404722925N01244375EA0205002192123000
K091340266016
B0913444722966N01244470EA0207702224103000
B0913484722991N01244554EA0208702232093000
B0913524722987N01244654EA0207302216107000
B0913564722962N01244758EA0206302208111000
B0914004722929N01244866EA0205802200116000
K091400266016
B0914044722891N01244970EA0206902216114000
B0914084722862N01245070EA0208702232097000
B0914124722829N01245154EA0209402240095000
B0914164722783N01245233EA0209602240102000
B0914204722733N01245312EA0210202248109000
K091420248016
B0914244722679N01245391EA0211102256103000
B0914284722629N01245475EA0211102256107000
B0914324722587N01245570EA0211502264113000
B0914364722558N01245670EA0211502264101000
B0914404722541N01245779EA0210902256104000
K091440284008
B0914444722537N01245895EA0210302248110000
B0914484722537N01246012EA0210102248110000
B0914524722537N01246133EA0210002248115000
B0914564722520N01246250EA0209702248112000
B0915004722495N01246362EA0209302240113000
K091500246009
B0915044722462N01246479EA0208202232119000
B0915084722433N01246604EA0207402216123000
B0915124722404N01246725EA0207202216128000
B0915164722370N01246850EA0207602224122000
B0915204722337N01246966EA0207202216119000
K091520242013
B0915244722300N01247083EA0206302208118000
B0915284722258N01247200EA0205402200121000
B0915324722220N01247320EA0204702192121000
B0915364722183N01247445EA0204102184125000
B0915404722145N01247566EA0204202192120000
K091540252016
B0915444722116N01247683EA0204202192113000
B0915484722083N01247800EA0203902184110000
B0915524722045N01247912EA0203102176115000
B0915564722004N01248029EA0202502168119000
B0916004721966N01248150EA0202202168120000
K091600252022
B0916044721925N01248270EA0201902168119000
B0916084721891N01248395EA0201802160119000
B0916124721862N01248520EA0201602160118000
B0916164721829N01248645EA0201602160119000
B0916204721804N01248775EA0201302160121000
K091620262021
B0916244721779N01248908EA0201202160122000
B0916284721754N01249041EA0200802152126000
B0916324721729N01249175EA0200502152124000
B0916364721695N01249304EA0200602152118000
B0916404721662N01249429EA0200602152120000
K091640258023
B0916444721629N01249550EA0200602152115000
B0916484721595N01249666EA0200602152114000
B0916524721562N01249783EA0200402152111000
B0916564721529N01249900EA0199202136122000
B0917004721495N01250020EA0198702128124000
K091700258021
B0917044721458N01250141EA0198402128124000
B0917084721420N01250258EA0198402128127000
B0917124721383N01250375EA0197602120132000
B0917164721350N01250504EA0196802112134000
B0917204721312N01250633EA0196102104131000
K091720262014
B0917244721270N01250758EA0195202096131000
B0917284721237N01250891EA0193902080133000
B0917324721212N01251029EA0192902072135000
B0917364721187N01251170EA0192402072135000
B0917404721166N01251308EA0192002064134000
K091740262014
B0917444721145N01251450EA0191502056133000
B0917484721120N01251587EA0191002056140000
B0917524721095N01251725EA0191802064134000
B0917564721062N01251850EA0192802072128000
B0918004721029N01251962EA0193702080118000
K091800228026
B0918044720987N01252062EA0194502088110000
B0918084720950N01252158EA0195002096107000
B0918124720916N01252262EA0194502088111000
B0918164720883N01252370EA0194202088118000
B0918204720845N01252479EA0195302096109000
K091820232021
B0918244720808N01252579EA0194402088122000
B0918284720770N01252687EA0194702088116000
B0918324720737N01252795EA0194702096110000
B0918364720700N01252900EA0194202088115000
B0918404720658N01252995EA0194002088114000
K091840232017
B0918444720612N01253091EA0194102088109000
B0918484720566N01253191EA0194002088109000
B0918524720516N01253283EA0194402088110000
B0918564720462N01253366EA0194402088109000
B0919004720404N01253441EA0195002096108000
K091900238025
B0919044720345N01253508EA0195302096101000
B0919084720279N01253566EA0195602104105000
B0919124720208N01253608EA0196902112111000
B0919164720137N01253608EA0199002136100000
B0919204720108N01253537EA0199802144100000
K091920242026
B0919244720154N01253470EA0199702144111000
B0919284720216N01253516EA0200602152098000
B0919324720220N01253620EA0201802160103000
B0919364720162N01253675EA0202902168106000
B0919404720104N01253641EA0204502184098000
K091940272015
B0919444720095N01253562EA0204902192096000
B0919484720145N01253512EA0205102192109000
B0919524720200N01253562EA0206702208096000
B0919564720200N01253662EA0207702216097000
B0920004720141N01253712EA0208402224098000
K092000278011
B0920044720087N01253675EA0209502232096000
B0920084720087N01253587EA0210002240099000
B0920124720137N01253550EA0211502256093000
B0920164720191N01253587EA0213102272091000
B0920204720208N01253679EA0214102280090000
K092020280009
B0920244720179N01253762EA0214502288094000
B0920284720116N01253795EA0214702288102000
B0920324720062N01253741EA0216002304094000
B0920364720062N01253658EA0217202312099000
B0920404720112N01253625EA0218102328095000
K092040292008
B0920444720162N01253683EA0218602328094000
B0920484720158N01253787EA0219302336097000
B0920524720104N01253858EA0220402352098000
B0920564720037N01253841EA0221002360096000
B0921004720008N01253762EA0221402360099000
K092100310014
B0921044720037N01253683EA0221602360101000
B0921084720095N01253662EA0222602368106000
B0921124720154N01253704EA0224102384097000
B0921164720179N01253791EA0225502400091000
B0921204720162N01253891EA0225702400096000
K092120302013
B0921244720100N01253950EA0225802400101000
B0921284720033N01253941EA0226802408098000
B0921324719991N01253870EA0226602408098000
B0921364719995N01253779EA0227002408105000
B0921404720050N01253733EA0227602416103000
K092140302011
B0921444720108N01253762EA0228802424101000
B0921484720141N01253854EA0230402440101000
B0921524720125N01253954EA0231002448088000
B0921564720075N01254037EA0230802448104000
B0922004720008N01254108EA0231202456102000
K092200302013
B0922044719950N01254195EA0230202440111000
B0922084719891N01254287EA0229202432113000
B0922124719825N01254375EA0229102432115000
B0922164719758N01254458EA0228902424120000
B0922204719687N01254537EA0228902432116000
K092220302012
B0922244719616N01254616EA0228902432110000
B0922284719545N01254695EA0228102424113000
B0922324719479N01254783EA0227802416115000
B0922364719408N01254870EA0227202416114000
B0922404719341N01254962EA0226602408115000
K092240278025
B0922444719270N01255054EA0226202416119000
B0922484719200N01255145EA0225702408113000
B0922524719133N01255237EA0224902400115000
B0922564719062N01255329EA0224402392116000
B0923004718991N01255420EA0224202392115000
K092300282030
B0923044718916N01255508EA0224502392117000
B0923084718841N01255591EA0224802400115000
B0923124718766N01255670EA0224202392115000
B0923164718691N01255754EA0223902392120000
B0923204718616N01255833EA0223702384119000
K092320286032
B0923244718537N01255912EA0223002384120000
B0923284718462N01255991EA0222702376121000
B0923324718391N01256070EA0223002376124000
B0923364718320N01256150EA0223302384116000
B0923404718254N01256229EA0224002392114000
K092340286027
B0923444718187N01256304EA0224102392107000
B0923484718129N01256391EA0223202384110000
B0923524718066N01256479EA0222502376117000
B0923564718004N01256566EA0221502368112000
B0924004717933N01256662EA0219102336132000
K092400288021
B0924044717854N01256762EA0217402320144000
B0924084717775N01256866EA0216602312148000
B0924124717691N01256970EA0216402312146000
B0924164717612N01257075EA0217202320133000
B0924204717545N01257179EA0217902328125000
K092420282022
B0924244717491N01257295EA0217902328124000
B0924284717441N01257412EA0218002328120000
B0924324717395N01257529EA0217502328125000
B0924364717345N01257650EA0217602328123000
B0924404717300N01257770EA0217702328122000
K092440286020
B0924444717250N01257887EA0217802328120000
B0924484717200N01258004EA0217302320126000
B0924524717145N01258125EA0217002320129000
B0924564717095N01258241EA0217102320124000
B0925004717041N01258354EA0216902320121000
K092500272023
B0925044716991N01258470EA0216702312124000
B0925084716933N01258587EA0215802304130000
B0925124716875N01258704EA0215302296131000
B0925164716816N01258825EA0214802296131000
B0925204716758N01258937EA0214502288130000
K092520268024
B0925244716700N01259054EA0214302288130000
B0925284716641N01259170EA0214002288126000
B0925324716579N01259279EA0214002288123000
B0925364716525N01259391EA0214002288124000
B0925404716470N01259504EA0213502280123000
K092540274023
B0925444716412N01259625EA0213302296127000
B0925484716350N01259733EA0213102296123000
B0925524716291N01259845EA0214102304129000
B0925564716237N01259962EA0214402312127000
B0926004716183N01300079EA0214202312125000
K092600274024
B0926044716137N01300200EA0213502304124000
B0926084716087N01300316EA0213602304122000
B0926124716037N01300433EA0213302296117000
B0926164715983N01300541EA0212802296116000
B0926204715920N01300650EA0212702288119000
K092620262031
B0926244715866N01300758EA0212702288117000
B0926284715816N01300870EA0213002288115000
B0926324715770N01300983EA0213302296111000
B0926364715716N01301083EA0214002304105000
B0926404715658N01301175EA0214002296108000
K092640262035
B0926444715600N01301258EA0214002296108000
B0926484715533N01301333EA0214002296110000
B0926524715466N01301404EA0214602304108000
B0926564715404N01301475EA0214602304102000
B0927004715337N01301541EA0214102296101000
K092700264036
B0927044715275N01301612EA0213002288106000
B0927084715204N01301687EA0212402280111000
B0927124715133N01301754EA0211602272111000
B0927164715062N01301825EA0211102264124000
B0927204714991N01301895EA0213202288104000
K092720270032
B0927244714925N01301945EA0214802304097000
B0927284714854N01301966EA0213802296097000
B0927324714779N01301995EA0212702280105000
B0927364714712N01302054EA0211502272106000
B0927404714654N01302145EA0210502264107000
K092740270032
B0927444714604N01302245EA0209602248113000
B0927484714558N01302358EA0209402248116000
B0927524714512N01302475EA0210102256118000
B0927564714466N01302587EA0212602280113000
B0928004714425N01302675EA0213802296087000
K092800276028
B0928044714358N01302716EA0211302264099000
B0928084714283N01302762EA0210202256121000
B0928124714229N01302850EA0210902264105000
B0928164714187N01302945EA0210902264103000
B0928204714137N01303037EA0210202256104000
K092820276028
B0928244714070N01303112EA0209402248105000
B0928284713995N01303145EA0209002240104000
B0928324713916N01303141EA0208702240105000
B0928364713841N01303116EA0207502224106000
B0928404713766N01303091EA0206802216116000
K092840276028
B0928444713691N01303070EA0206302216109000
B0928484713612N01303050EA0205402200111000
B0928524713537N01303025EA0205202200106000
B0928564713462N01303004EA0205102200102000
B0929004713387N01302991EA0205002200107000
K092900296026
B0929044713308N01302983EA0205002200108000
B0929084713229N01302966EA0204802200112000
B0929124713154N01302945EA0205102200111000
B0929164713079N01302933EA0205402208102000
B0929204713000N01302925EA0205102200102000
K092920306022
B0929244712920N01302925EA0205402200105000
B0929284712841N01302958EA0207102224107000
B0929324712783N01303041EA0208402232105000
B0929364712770N01303158EA0208502232101000
B0929404712787N01303275EA0208202232111000
K092940302024
B0929444712804N01303391EA0208202232122000
B0929484712833N01303500EA0208502232121000
B0929524712879N01303591EA0209402240106000
B0929564712929N01303670EA0209102240105000
B0930004712979N01303758EA0207402224107000
K093000302024
B0930044713029N01303854EA0205302200125000
B0930084713100N01303937EA0202902176134000
B0930124713179N01304012EA0200702152149000
B0930164713266N01304079EA0199302136150000
B0930204713354N01304141EA0197502112154000
K093020306020
B0930244713441N01304191EA0196702104149000
B0930284713533N01304233EA0196502104155000
B0930324713620N01304266EA0195702096140000
B0930364713704N01304308EA0196602112123000
B0930404713770N01304379EA0197502120121000
K093040314014
B0930444713795N01304487EA0195902104118000
B0930484713775N01304608EA0196402104115000
B0930524713712N01304675EA0198202120092000
B0930564713641N01304670EA0199902144107000
B0931004713608N01304583EA0200702152091000
K093100314014
B0931044713629N01304491EA0199902144105000
B0931084713695N01304437EA0200302152103000
B0931124713754N01304479EA0202102168100000
B0931164713779N01304558EA0202702168092000
B0931204713787N01304658EA0200902152095000
K093120290005
B0931244713737N01304754EA0200602152104000
B0931284713666N01304779EA0202002160111000
B0931324713595N01304754EA0204302192093000
B0931364713562N01304675EA0203302176103000
B0931404713591N01304566EA0203202176115000
K093140268006
B0931444713666N01304541EA0204802192110000
B0931484713712N01304612EA0206002200109000
B0931524713687N01304716EA0206702208113000
B0931564713625N01304766EA0208402232098000
B0932004713562N01304737EA0208602232097000
K093200130002
B0932044713537N01304641EA0209002232112000
B0932084713579N01304554EA0210202248097000
B0932124713645N01304550EA0211002256098000
B0932164713691N01304625EA0210702248102000
B0932204713687N01304737EA0210802256111000
K093220128002
B0932244713637N01304812EA0212602272103000
B0932284713570N01304800EA0213102272103000
B0932324713533N01304720EA0213902280096000
B0932364713537N01304620EA0214602288103000
B0932404713591N01304554EA0215902304108000
K093240124002
B0932444713658N01304579EA0216002304101000
B0932484713695N01304675EA0216302312101000
B0932524713662N01304766EA0217202320107000
B0932564713600N01304766EA0217602320100000
B0933004713566N01304683EA0217602320104000
K093300182005
B0933044713591N01304587EA0217902328101000
B0933084713662N01304550EA0218202336105000
B0933124713729N01304595EA0219002336096000
B0933164713750N01304691EA0217502320091000
B0933204713720N01304783EA0216202312109000
K093320184010
B0933244713658N01304820EA0215802304102000
B0933284713595N01304783EA0215102296097000
B0933324713566N01304683EA0216602312105000
B0933364713583N01304583EA0219702344088000
B0933404713641N01304545EA0220502352101000
K093340156010
B0933444713704N01304595EA0218802336106000
B0933484713704N01304700EA0218402328102000
B0933524713650N01304758EA0217602320096000
B0933564713587N01304733EA0217202320108000
B0934004713545N01304641EA0218902336107000
K093400124003
B0934044713537N01304533EA0220402352105000
B0934084713537N01304429EA0222302368095000
B0934124713579N01304350EA0222302368103000
B0934164713645N01304362EA0222102368113000
B0934204713670N01304462EA0222302368099000
K093420124003
B0934244713625N01304541EA0221702360111000
B0934284713545N01304541EA0224002384102000
B0934324713487N01304479EA0226402408095000
B0934364713475N01304387EA0227002416095000
B0934404713525N01304320EA0226502408108000
K093440346009
B0934444713587N01304337EA0227502424101000
B0934484713608N01304429EA0226502408102000
B0934524713570N01304533EA0226002400118000
B0934564713500N01304587EA0229602440103000
B0935004713437N01304550EA0232302464089000
K093500348015
B0935044713416N01304462EA0231902464100000
B0935084713454N01304379EA0231202456099000
B0935124713516N01304391EA0231502456103000
B0935164713554N01304479EA0232702472113000
B0935204713533N01304583EA0234002480102000
K093520334014
B0935244713458N01304625EA0235702496115000
B0935284713404N01304545EA0237702520108000
B0935324713420N01304450EA0239102536099000
B0935364713483N01304437EA0240302544095000
B0935404713525N01304504EA0241702560096000
K093540356009
B0935444713516N01304604EA0241902560106000
B0935484713445N01304666EA0243802576112000
B0935524713379N01304612EA0246502608093000
B0935564713370N01304512EA0247002616100000
B0936004713420N01304450EA0247402616109000
K093600002012
B0936044713483N01304491EA0248802632109000
B0936084713491N01304591EA0250002648096000
B0936124713437N01304679EA0251902656115000
B0936164713366N01304679EA0254702688093000
B0936204713320N01304591EA0255502696096000
K093620350013
B0936244713337N01304495EA0255402696107000
B0936284713395N01304450EA0255702696120000
B0936324713458N01304508EA0256802704111000
B0936364713458N01304612EA0257502712104000
B0936404713400N01304700EA0258902728106000
K093640344015
B0936444713320N01304708EA0260502744104000
B0936484713250N01304641EA0261502752104000
B0936524713212N01304537EA0262202760111000
B0936564713208N01304437EA0263702776097000
B0937004713241N01304362EA0263102776097000
K093700354016
B0937044713304N01304333EA0262802776107000
B0937084713354N01304400EA0263302776108000
B0937124713354N01304508EA0263902784101000
B0937164713287N01304583EA0264002784113000
B0937204713195N01304591EA0265102792115000
K093720000016
B0937244713120N01304541EA0266202808102000
B0937284713075N01304462EA0267202816092000
B0937324713062N01304366EA0266902816092000
B0937364713087N01304275EA0266002800114000
B0937404713145N01304254EA0266102808107000
K093740352018
B0937444713191N01304320EA0266302808106000
B0937484713191N01304429EA0266302808100000
B0937524713129N01304512EA0265402792112000
B0937564713041N01304562EA0264702784125000
B0938004712941N01304591EA0264002776125000
K093800346019
B0938044712841N01304620EA0262902768136000
B0938084712737N01304637EA0262602768137000
B0938124712633N01304650EA0263202768134000
B0938164712529N01304666EA0263102768139000
B0938204712425N01304683EA0262902768140000
K093820346018
B0938244712320N01304708EA0262602768137000
B0938284712216N01304720EA0262302760137000
B0938324712112N01304733EA0261702760137000
B0938364712004N01304741EA0260702744142000
B0938404711900N01304737EA0259302736141000
K093840296033
B0938444711791N01304712EA0256802704157000
B0938484711679N01304670EA0253302672159000
B0938524711562N01304620EA0251302648173000
B0938564711445N01304566EA0251402656167000
B0939004711329N01304516EA0250202640165000
K093900298045
B0939044711212N01304470EA0249702640162000
B0939084711100N01304420EA0249502632160000
B0939124710991N01304366EA0249802640152000
B0939164710887N01304320EA0250202640148000
B0939204710783N01304275EA0250602648139000
K093920314029
B0939244710687N01304229EA0250502648146000
B0939284710591N01304170EA0250502648137000
B0939324710504N01304100EA0249402640137000
B0939364710416N01304025EA0249102632141000
B0939404710333N01303950EA0249102632136000
K093940318030
B0939444710250N01303875EA0249002632137000
B0939484710170N01303795EA0248002624134000
B0939524710095N01303712EA0247702616135000
B0939564710020N01303637EA0247802624127000
B0940004709941N01303570EA0247402616125000
K094000340014
B0940044709862N01303508EA0247302616127000
B0940084709783N01303437EA0246802608129000
B0940124709708N01303366EA0246202608133000
B0940164709633N01303295EA0246202608127000
B0940204709558N01303225EA0245802608125000
K094020346008
B0940244709479N01303162EA0245102592127000
B0940284709391N01303116EA0244502592124000
B0940324709304N01303079EA0243802584125000
B0940364709212N01303041EA0242802576129000
B0940404709116N01303012EA0242102568129000
K094040048009
B0940444709020N01302987EA0241202560130000
B0940484708920N01302970EA0240302544132000
B0940524708820N01302962EA0239402536134000
B0940564708716N01302958EA0239002536132000
B0941004708616N01302962EA0239002536131000
K094100010015
B0941044708512N01302966EA0238802536135000
B0941084708412N01302987EA0238802536133000
B0941124708316N01303016EA0240502552132000
B0941164708225N01303025EA0241102560127000
B0941204708129N01303029EA0241002552120000
K094120330019
B0941244708033N01303050EA0239302544134000
B0941284707933N01303070EA0239002536139000
B0941324707833N01303091EA0239502544133000
B0941364707741N01303120EA0240202552131000
B0941404707654N01303162EA0240602552124000
K094140342013
B0941444707570N01303208EA0240402552127000
B0941484707483N01303262EA0240502552120000
B0941524707395N01303316EA0240202544126000
B0941564707304N01303358EA0239502544132000
B0942004707216N01303400EA0239102536126000
K094200296017
B0942044707129N01303441EA0239102536120000
B0942084707041N01303495EA0238102528122000
B0942124706962N01303566EA0237202512130000
B0942164706887N01303645EA0237002512132000
B0942204706812N01303733EA0237002512124000
K094220330012
B0942244706750N01303820EA0236702512121000
B0942284706691N01303916EA0235902504117000
B0942324706637N01304020EA0234302488122000
B0942364706583N01304133EA0233402480125000
B0942404706525N01304241EA0232202464131000
K094240314011
B0942444706470N01304358EA0231902464127000
B0942484706416N01304470EA0232102464127000
B0942524706366N01304579EA0232002464119000
B0942564706312N01304679EA0232302472113000
B0943004706262N01304770EA0232902472111000
K094300260022
B0943044706204N01304850EA0233202480108000
B0943084706150N01304929EA0233802488108000
B0943124706104N01305012EA0233602480102000
B0943164706054N01305104EA0232402472104000
B0943204706008N01305200EA0231902464112000
K094320266016
B0943244705962N01305295EA0232102464107000
B0943284705891N01305354EA0231802464109000
B0943324705812N01305370EA0230902456121000
B0943364705729N01305358EA0231002456108000
B0943404705654N01305333EA0230902456111000
K094340254021
B0943444705570N01305312EA0231302456110000
B0943484705491N01305300EA0232002464113000
B0943524705412N01305283EA0232602472109000
B0943564705341N01305237EA0232502472106000
B0944004705266N01305216EA0232202472096000
K094400270015
B0944044705191N01305237EA0231202456108000
B0944084705120N01305295EA0230702448109000
B0944124705070N01305379EA0230502448109000
B0944164705037N01305475EA0229702440108000
B0944204705008N01305570EA0229202440105000
K094420270015
B0944244704983N01305670EA0229402440102000
B0944284704966N01305762EA0229502440093000
B0944324704975N01305854EA0228802432098000
B0944364705016N01305929EA0227902424109000
B0944404705087N01305929EA0227102416112000
K094440258020
B0944444705145N01305862EA0227402416114000
B0944484705183N01305775EA0228602432105000
B0944524705225N01305691EA0229502440095000
B0944564705262N01305616EA0229802440093000
B0945004705283N01305525EA0229302440092000
K094500258020
B0945044705283N01305420EA0228902432102000
B0945084705275N01305316EA0229602440101000
B0945124705270N01305208EA0229502440105000
B0945164705270N01305104EA0229402440111000
B0945204705258N01305000EA0229502440106000
K094520258020
B0945244705241N01304900EA0229202440107000
B0945284705220N01304800EA0229202440100000
B0945324705191N01304700EA0229302440103000
B0945364705158N01304604EA0229802440102000
B0945404705116N01304512EA0230802456107000
K094540278012
B0945444705079N01304429EA0232302472097000
B0945484705033N01304362EA0233102480100000
B0945524704966N01304366EA0232702472103000
B0945564704929N01304458EA0231702464106000
B0946004704958N01304554EA0230902456108000
K094600254014
B0946044705020N01304591EA0231402456103000
B0946084705083N01304558EA0231902464102000
B0946124705120N01304483EA0232302472102000
B0946164705137N01304383EA0232402472107000
B0946204705137N01304279EA0232802472105000
K094620254014
B0946244705129N01304179EA0234002488100000
B0946284705091N01304095EA0234702496093000
B0946324705025N01304054EA0234102488100000
B0946364704945N01304079EA0233302480101000
B0946404704887N01304166EA0233102480107000
K094640348010
B0946444704875N01304283EA0233502480105000
B0946484704908N01304379EA0233202472111000
B0946524704966N01304441EA0233502480117000
B0946564705033N01304479EA0234102488103000
B0947004705091N01304516EA0234302488102000
K094700336013
B0947044705158N01304554EA0234102488101000
B0947084705225N01304591EA0233502480114000
B0947124705279N01304625EA0233702480115000
B0947164705358N01304695EA0234602488105000
B0947204705416N01304758EA0235302496104000
K094720304014
B0947244705462N01304829EA0236102512098000
B0947284705462N01304933EA0235202496103000
B0947324705420N01304991EA0234402488108000
B0947364705325N01304991EA0234502488100000
B0947404705283N01304912EA0233902480107000
K094740326010
B0947444705283N01304812EA0233502472112000
B0947484705320N01304720EA0233602480114000
B0947524705358N01304670EA0234502488108000
B0947564705437N01304633EA0234702488106000
B0948004705500N01304658EA0235302496100000
K094800326010
B0948044705545N01304729EA0235102496097000
B0948084705550N01304833EA0234402488105000
B0948124705525N01304904EA0234402488105000
B0948164705433N01304941EA0233902488103000
B0948204705362N01304891EA0232702472109000
K094820304009
B0948244705300N01304820EA0231802464122000
