AZANA92 ZANDER GP940 V1.25
HFDTE200504
HFFXA050
HFPLT Pilot             :Hans Trautenberg                        
HFGTY Glider type       :Std Cirrus                              
HFGID Glider ID         :D-3267    
HFDTM100 GPS Datum      :WGS84
HFRFW Firmware Version  :1.25
HFRHW Hardware version  :A
HFFTY FR Type           :ZANDER GP940
HFGPS                   :Motorola,VP ONCORE,8,30000
HFPRS Press Alt Sensor  :Motorola,MPX100A,10000
HFCCL Competition Class :Club                                    
HFCID Competition ID    :SC        
I023638IAS3941ENL
J020810WDI1113WVE
LZAN 091215 PowerOn
E091218PEV MARKER BUTTON PRESSED
B0912184745787N01135595EV0052800000000000
C180304110707090803000101
C4926350N01148383E RAMMERTSHOF 
C4926350N01148383E RAMMERTSHOF 
C4737983N00756500E HUETTEN HOTZ
C4926350N01148383E RAMMERTSHOF 
C4926350N01148383E RAMMERTSHOF 
B0912194745787N01135595EV0052800000000000
B0912204745787N01135595EV0052800000000000
B0912214745787N01135595EV0052800000000000
B0912224745787N01135595EV0052700000000000
B0912234745787N01135595EV0052800000000000
B0912244745787N01135595EV0052800000000000
B0912254745787N01135595EV0052700000000000
B0912264745787N01135595EV0052700000000000
B0912274745787N01135595EV0052600000000000
B0912314745787N01135595EV0052600000000000
B0912354745787N01135595EV0052700000000000
B0912394745787N01135595EV0052500000000000
B0912434745787N01135595EV0052500000007000
B0912474745787N01135595EV0052700000000000
B0912514745787N01135595EV0052700000000000
B0912554745787N01135595EV0052700000000000
B0912594745787N01135595EV0052600000000000
B0913034745787N01135595EV0052600000000000
B0913074745787N01135595EV0052600000000000
B0913114749754N01128079EA0052600608000000
B0913154749754N01128079EA0052600608000000
B0913194749754N01128075EA0052500608000000
B0913234749754N01128075EA0052600608000000
B0913274749754N01128075EA0052600608000000
B0913314749754N01128075EA0052800608000000
B0913354749754N01128075EA0052800608000000
B0913394749754N01128075EA0052800608000000
B0913434749754N01128075EA0052700608000000
B0913474749754N01128075EA0052700608000000
B0913514749754N01128075EA0052700608000000
B0913554749754N01128075EA0052600608000000
B0913594749754N01128075EA0052700608000000
B0914034749754N01128075EA0052700608000000
B0914074749754N01128075EA0052700608000000
B0914114749754N01128075EA0052700608007000
B0914154749754N01128075EA0052700608000000
B0914194749754N01128075EA0052800608000000
B0914234749754N01128075EA0052700608000000
B0914274749754N01128075EA0052800608000000
B0914314749754N01128075EA0052800608000000
B0914354749754N01128075EA0052700608000000
B0914394749754N01128075EA0052800608000000
B0914434749754N01128075EA0052800608000000
B0914474749754N01128075EA0052800608000000
B0914514749754N01128075EA0052700608000000
B0914554749754N01128075EA0052700608000000
B0914594749754N01128075EA0052800608000000
B0915034749754N01128075EA0052700608000000
B0915074749754N01128075EA0052700608000000
B0915114749754N01128075EA0052700608000000
B0915154749754N01128075EA0052700608000000
B0915194749754N01128075EA0052800608000000
B0915234749754N01128075EA0052700608000000
B0915274749754N01128075EA0052800608000000
B0915314749754N01128075EA0052700608000000
B0915354749754N01128075EA0052700608000000
B0915394749754N01128075EA0052800608000000
B0915434749754N01128075EA0052800608000000
B0915474749754N01128075EA0052700608000000
B0915514749754N01128075EA0052800608000000
B0915554749754N01128075EA0052700608000000
B0915594749754N01128075EA0052700608000000
B0916034749754N01128075EA0052700608000000
B0916074749750N01128075EA0052700608000000
B0916114749750N01128070EA0052700608007000
B0916154749745N01128070EA0052700608007000
B0916194749741N01128070EA0052800608000000
B0916234749741N01128075EA0052800608007000
B0916274749741N01128075EA0052800608007000
B0916314749737N01128079EA0052800608007000
B0916354749737N01128083EA0052700608000000
B0916394749737N01128087EA0052700608000000
B0916434749737N01128095EA0052700608000000
B0916474749733N01128100EA0052700608000000
B0916514749733N01128104EA0052700608000000
B0916554749733N01128112EA0052700608000000
B0916594749733N01128116EA0052700608007000
B0917034749733N01128120EA0052600608000000
B0917074749733N01128125EA0052700608000000
B0917114749729N01128133EA0052700608000000
B0917154749729N01128137EA0052700608000000
B0917194749729N01128141EA0052800608007000
B0917234749729N01128145EA0052800608000000
B0917274749729N01128154EA0052800608007000
B0917314749729N01128158EA0052700608000000
B0917354749729N01128162EA0052700608000000
B0917394749725N01128166EA0052800608000000
B0917434749725N01128175EA0052800608000000
B0917474749725N01128179EA0052800608007000
B0917514749725N01128183EA0052800608000000
B0917554749725N01128187EA0052700608000000
B0917594749725N01128191EA0052800608007000
B0918034749725N01128195EA0052700608000000
B0918074749725N01128200EA0052700608000000
B0918114749725N01128204EA0052700608000000
B0918154749725N01128208EA0052800608007000
B0918194749720N01128208EA0052800608007000
B0918234749725N01128208EA0052800608007000
B0918274749720N01128208EA0052800608000000
B0918314749720N01128208EA0052800608007000
B0918354749725N01128208EA0052800608007000
B0918394749725N01128208EA0052700608007000
B0918434749725N01128208EA0052700608007000
B0918474749720N01128208EA0052800608000000
B0918514749720N01128208EA0052800608007000
B0918554749720N01128208EA0052900608007000
B0918594749725N01128208EA0052700608007000
B0919034749725N01128208EA0052800608007000
B0919074749725N01128208EA0052700608007000
B0919114749720N01128208EA0052700608007000
B0919154749720N01128208EA0052700608007000
B0919194749720N01128208EA0052800608007000
B0919234749720N01128208EA0052700608000000
B0919274749720N01128208EA0052800608007000
B0919314749720N01128208EA0052800608007000
B0919354749720N01128208EA0052800608000000
B0919394749720N01128208EA0052800608007000
B0919434749720N01128208EA0052700608007000
B0919474749720N01128208EA0052800608000000
B0919514749720N01128208EA0052800608000000
B0919554749720N01128208EA0052800608007000
B0919594749720N01128208EA0052800608007000
B0920034749720N01128208EA0052700608000000
B0920074749720N01128208EA0052700608007000
B0920114749720N01128208EA0052700608000000
B0920154749720N01128208EA0052700608007000
B0920194749720N01128208EA0052700608007000
B0920234749720N01128208EA0052700608000000
B0920274749720N01128208EA0052800608007000
B0920314749720N01128208EA0052800608007000
B0920354749720N01128208EA0052800608007000
B0920394749720N01128208EA0052800608007000
B0920434749720N01128208EA0052800608007000
B0920474749720N01128208EA0052800600007000
B0920514749720N01128208EA0052800608007000
B0920554749720N01128208EA0052700608007000
B0920594749720N01128208EA0052700608007000
B0921034749720N01128208EA0052800608007000
B0921074749720N01128208EA0052800608007000
B0921114749720N01128208EA0052800608000000
B0921154749720N01128208EA0052800608007000
B0921194749720N01128208EA0052800608000000
B0921234749720N01128208EA0052700608007000
B0921274749720N01128208EA0052700608007000
B0921314749720N01128208EA0052700608007000
B0921354749720N01128208EA0052800608007000
B0921394749720N01128208EA0052800608000000
B0921434749720N01128208EA0052800608007000
B0921474749720N01128208EA0052800608007000
B0921514749720N01128208EA0052800608000000
B0921554749720N01128208EA0052700608000000
B0921594749720N01128208EA0052800608007010
B0922034749720N01128208EA0052800608007000
B0922074749720N01128208EA0052800608007000
B0922114749720N01128208EA0052800608007000
B0922154749720N01128208EA0052900608007000
B0922194749720N01128208EA0052800608007000
B0922234749720N01128208EA0052800608000000
B0922274749720N01128208EA0052700608000000
B0922314749720N01128208EA0052800608000000
B0922354749720N01128208EA0052700608007000
B0922394749720N01128208EA0052800608000000
B0922434749720N01128208EA0052800608007000
B0922474749720N01128208EA0052900608007000
B0922514749720N01128208EA0052800608000000
B0922554749720N01128208EA0052800608000000
B0922594749720N01128208EA0052800608000000
B0923034749720N01128208EA0052800608000000
B0923074749720N01128208EA0052800608000000
B0923114749720N01128208EA0052800608007000
B0923154749720N01128208EA0052800608000000
B0923194749720N01128208EA0052900608007000
B0923234749720N01128208EA0052800608007000
B0923274749720N01128208EA0052800608007000
B0923314749720N01128208EA0052700608009000
B0923354749720N01128208EA0052700608007000
B0923394749720N01128208EA0052700608009000
B0923434749720N01128208EA0052700608000000
B0923474749720N01128208EA0052700608007000
B0923514749720N01128208EA0052800608007000
B0923554749720N01128208EA0052800608007000
B0923594749720N01128208EA0052800608000000
B0924034749720N01128208EA0052800608000000
B0924074749720N01128208EA0052700608007000
B0924114749720N01128208EA0052800608000000
B0924154749720N01128208EA0052800608007000
B0924194749720N01128208EA0052800608007000
B0924234749720N01128208EA0052800608000000
B0924274749720N01128208EA0052800608000000
B0924314749720N01128208EA0052900608007000
B0924354749720N01128208EA0052800608000000
B0924394749720N01128208EA0052900608007000
B0924434749720N01128208EA0052800608000000
B0924474749720N01128208EA0052700608000000
B0924514749720N01128208EA0052700608007000
B0924554749720N01128208EA0052800608007000
B0924594749720N01128208EA0052900608000000
B0925034749720N01128208EA0052800608000000
B0925074749720N01128208EA0052800608000000
B0925114749720N01128208EA0052800608007000
B0925154749720N01128208EA0052800608007000
B0925194749720N01128208EA0052800608000000
B0925234749720N01128208EA0052800608007000
B0925274749720N01128208EA0052800608007000
B0925314749720N01128208EA0052800608000000
B0925354749720N01128208EA0052900608000000
B0925394749720N01128208EA0052900608000000
B0925434749720N01128208EA0052900608007000
B0925474749720N01128208EA0052900608000000
B0925514749720N01128208EA0052800608007000
B0925554749720N01128208EA0052800608000000
B0925594749720N01128208EA0052800608007000
B0926034749720N01128208EA0052800608000000
B0926074749720N01128204EA0052800608000000
B0926114749725N01128204EA0052800608000000
B0926154749725N01128204EA0052800608000000
B0926194749725N01128204EA0052800608000000
B0926234749725N01128204EA0052800608007000
B0926274749725N01128204EA0052900608007000
B0926314749725N01128204EA0052900608000000
B0926354749725N01128204EA0052900608007000
B0926394749725N01128204EA0052900608007000
B0926434749725N01128204EA0052800608000000
B0926474749725N01128204EA0052800608000000
B0926514749725N01128204EA0052800608000000
B0926554749720N01128204EA0052800608000000
B0926594749720N01128204EA0052800608000000
B0927034749720N01128204EA0052800608000000
B0927074749720N01128204EA0052900608000000
B0927114749720N01128204EA0052800608000000
B0927154749720N01128204EA0052800608000000
B0927194749720N01128204EA0052800608000000
B0927234749720N01128204EA0052900608000000
B0927274749720N01128204EA0052800608000000
B0927314749720N01128204EA0052800608000000
B0927354749720N01128204EA0052800608000000
B0927394749720N01128204EA0052800608000000
B0927434749720N01128204EA0052800608000000
B0927474749720N01128204EA0052800608000000
B0927514749720N01128204EA0052900608000000
B0927554749720N01128204EA0052800608000000
B0927594749720N01128204EA0052800608000000
B0928034749720N01128204EA0052800608000000
B0928074749720N01128204EA0052900608000000
B0928114749720N01128204EA0052900608000000
B0928154749720N01128204EA0052800608000000
B0928194749720N01128204EA0052800608000000
B0928234749720N01128204EA0052800608000000
B0928274749720N01128204EA0052800608000000
B0928314749720N01128204EA0052800608000000
B0928354749720N01128204EA0052800608000000
B0928394749720N01128204EA0052800608000000
B0928434749720N01128204EA0052800608000000
B0928474749720N01128204EA0052900608000000
B0928514749720N01128204EA0052800608000000
B0928554749720N01128204EA0052800608000000
B0928594749720N01128204EA0052800608000000
B0929034749720N01128204EA0052800608000000
B0929074749720N01128204EA0052800608000000
B0929114749720N01128204EA0052900608000000
B0929154749720N01128204EA0052900608000000
B0929194749720N01128204EA0052800608000000
B0929234749720N01128204EA0052800608000000
B0929274749720N01128204EA0052800608000000
B0929314749720N01128204EA0052900608000000
B0929354749720N01128204EA0052800608000000
B0929394749720N01128204EA0052900608000000
B0929434749720N01128204EA0052900608000000
B0929474749720N01128204EA0052900608000000
B0929514749720N01128204EA0052900608000000
B0929554749720N01128204EA0052900608000000
B0929594749720N01128204EA0052900608000000
B0930034749720N01128204EA0052900608000000
B0930074749725N01128204EA0052800608000000
B0930114749725N01128204EA0052900608000000
B0930154749725N01128204EA0052900608000000
B0930194749725N01128204EA0052800608000000
B0930234749725N01128204EA0052800608000000
B0930274749725N01128204EA0052800608000000
B0930314749725N01128204EA0052900608000000
B0930354749725N01128204EA0052900608000000
B0930394749725N01128204EA0052800608000000
B0930434749720N01128204EA0052800608000000
B0930474749720N01128212EA0052900608000000
B0930514749720N01128216EA0052900608000000
B0930554749720N01128220EA0052900608000000
B0930594749720N01128220EA0052800608000000
B0931034749720N01128220EA0052900608000000
B0931074749720N01128220EA0052900608000000
B0931114749720N01128220EA0052900608000000
B0931154749720N01128220EA0052900608000000
B0931194749720N01128220EA0052900608000000
B0931234749720N01128220EA0052900608000000
B0931274749720N01128220EA0052900608000000
B0931314749720N01128220EA0052900608000000
B0931354749720N01128220EA0052900608000000
B0931394749720N01128220EA0052900608000000
B0931434749720N01128220EA0052900608000000
B0931474749720N01128220EA0052900608000000
B0931514749720N01128220EA0052900608000000
B0931554749720N01128220EA0052900608000000
B0931594749720N01128220EA0052900608000000
B0932034749720N01128220EA0052900608000000
B0932074749720N01128220EA0052900608000000
B0932114749720N01128220EA0052900608000000
B0932154749716N01128220EA0052900608000000
B0932194749720N01128220EA0052900608000000
B0932234749716N01128220EA0052900608000000
B0932274749716N01128220EA0052900608000000
B0932314749716N01128220EA0052900608000000
B0932354749716N01128220EA0052900608000000
B0932394749716N01128220EA0052900608000000
B0932434749716N01128220EA0052900608000000
B0932474749716N01128220EA0052900608000000
B0932514749716N01128220EA0052900608000000
B0932554749716N01128220EA0052900608000000
B0932594749716N01128220EA0052900608000000
B0933034749716N01128220EA0052900608000000
B0933074749716N01128220EA0052900608000000
B0933114749716N01128220EA0052900608000000
B0933154749716N01128220EA0052900608000000
B0933194749716N01128220EA0052900608000000
B0933234749716N01128220EA0052900608000000
B0933274749716N01128220EA0052900608000000
B0933314749716N01128220EA0052900608000000
B0933354749716N01128220EA0052900608000000
B0933394749716N01128220EA0052900608000000
B0933434749716N01128220EA0052900608000000
B0933474749716N01128220EA0052900608000000
B0933514749716N01128220EA0052900608000000
B0933554749716N01128220EA0052900608000000
B0933594749716N01128220EA0052900608000000
B0934034749716N01128220EA0052900608000000
B0934074749716N01128220EA0052900608000000
B0934114749716N01128220EA0052900608000000
B0934154749716N01128220EA0052900608000000
B0934194749716N01128220EA0052900608000000
B0934234749716N01128220EA0052900608000000
B0934274749716N01128220EA0052900608000000
B0934314749716N01128220EA0052900608000000
B0934354749716N01128220EA0052900608000000
B0934394749716N01128220EA0052900608000000
B0934434749716N01128220EA0052900608000000
B0934474749716N01128220EA0052900608000000
B0934514749716N01128220EA0052900608000000
B0934554749716N01128220EA0052900608000000
B0934594749716N01128220EA0052900608000000
B0935034749716N01128220EA0052900608000000
B0935074749716N01128220EA0052900608000000
B0935114749716N01128220EA0052900608000000
B0935154749716N01128220EA0052900608000000
B0935194749716N01128220EA0052900608000000
B0935234749716N01128220EA0052900608000000
B0935274749716N01128220EA0052900608000000
B0935314749716N01128220EA0052900608000000
B0935354749716N01128220EA0052900608000000
B0935394749716N01128220EA0052900608000000
B0935434749716N01128220EA0052900608000000
B0935474749716N01128220EA0052900608000000
B0935514749716N01128220EA0052900608000000
B0935554749716N01128220EA0052900608000000
B0935594749716N01128220EA0052900608000000
B0936034749716N01128220EA0052900608000000
B0936074749716N01128220EA0052900608000000
B0936114749716N01128220EA0052900608000000
B0936154749716N01128225EA0052900608000000
B0936194749716N01128229EA0053000608000000
B0936234749716N01128229EA0052900608000000
B0936274749716N01128233EA0052900608000000
B0936314749716N01128233EA0052900608000000
B0936354749716N01128233EA0053000608000000
B0936394749716N01128233EA0052900608000000
B0936434749716N01128233EA0053000608000000
B0936474749716N01128233EA0053000608007000
B0936514749716N01128233EA0053000608000000
B0936554749716N01128233EA0052900608009000
B0936594749716N01128233EA0052900608007000
B0937034749716N01128233EA0052900608000000
B0937074749716N01128233EA0052900608000000
B0937114749716N01128233EA0052900608000000
B0937154749716N01128233EA0052900608000000
B0937194749716N01128233EA0052900608000000
B0937234749716N01128233EA0052900608000000
B0937274749716N01128233EA0053000608000000
B0937314749716N01128233EA0052900608000000
B0937354749716N01128233EA0052900608000000
B0937394749716N01128233EA0053000608000000
B0937434749716N01128233EA0052900608000000
B0937474749716N01128233EA0053000608000000
B0937514749716N01128233EA0052900608000000
B0937554749716N01128233EA0052900608000000
B0937594749716N01128233EA0052900608000000
B0938034749716N01128233EA0053000608000000
B0938074749716N01128233EA0053000608000000
B0938114749716N01128233EA0053000608000000
B0938154749716N01128233EA0052900608000000
B0938194749716N01128233EA0053000608000000
B0938234749716N01128233EA0053000608000000
B0938274749716N01128233EA0053000608000000
B0938314749716N01128233EA0053000608000000
B0938354749716N01128233EA0053000608000000
B0938394749716N01128233EA0052900608000000
B0938434749716N01128233EA0053000608000000
B0938474749716N01128233EA0053000608000000
B0938514749716N01128233EA0052900608000000
B0938554749716N01128233EA0053000608000000
B0938594749716N01128233EA0053000608000000
B0939034749716N01128233EA0053000608000000
B0939074749716N01128233EA0053000608000000
B0939114749716N01128233EA0053000608000000
B0939154749716N01128233EA0053000608000000
B0939194749716N01128233EA0053000608007000
B0939234749716N01128233EA0053000608000000
B0939274749716N01128233EA0053000608000000
B0939314749716N01128233EA0053000608000000
B0939354749716N01128233EA0053000608000000
B0939394749716N01128233EA0053000608000000
B0939434749716N01128233EA0053000608000000
B0939474749716N01128233EA0053000608000000
B0939514749716N01128233EA0053000608000000
B0939554749716N01128233EA0053000608000000
B0939594749716N01128233EA0053000608000000
B0940034749716N01128233EA0053000608000000
B0940074749716N01128233EA0053000608000000
B0940114749716N01128233EA0053000608000000
B0940154749716N01128233EA0053000608000000
B0940194749716N01128233EA0053000608000000
B0940234749716N01128233EA0053000608000000
B0940274749716N01128233EA0053000608000000
B0940314749716N01128233EA0053000608000000
B0940354749716N01128233EA0053000608000000
B0940394749716N01128233EA0053100608000000
B0940434749716N01128233EA0053000608000000
B0940474749716N01128233EA0053000608000000
B0940514749716N01128233EA0053000608000000
B0940554749716N01128233EA0053000608000000
B0940594749716N01128233EA0053000608000000
B0941034749716N01128233EA0053000608000000
B0941074749716N01128233EA0053000608000000
B0941114749716N01128233EA0053100608000000
B0941154749716N01128233EA0053100608000000
B0941194749716N01128233EA0052900608000000
B0941234749716N01128233EA0053000608000000
B0941274749716N01128233EA0053000608000000
B0941314749716N01128233EA0053000608000000
B0941354749716N01128233EA0053000608000000
B0941394749716N01128233EA0053000608000000
B0941434749720N01128233EA0053000608000000
B0941474749720N01128233EA0053000608000000
B0941514749720N01128233EA0053000608000000
B0941554749720N01128233EA0053000608000000
B0941594749720N01128233EA0053000608000000
B0942034749720N01128233EA0053000608000000
B0942074749716N01128233EA0053000608000000
B0942114749716N01128233EA0053000608000000
B0942154749716N01128233EA0053000608000000
B0942194749716N01128233EA0053000608000000
B0942234749716N01128233EA0053000608000000
B0942274749716N01128233EA0053000608000000
B0942314749716N01128233EA0053000608000000
B0942354749716N01128233EA0053000608000000
B0942394749716N01128233EA0053000608000000
B0942434749716N01128233EA0053000608000000
B0942474749716N01128233EA0053000608000000
B0942514749716N01128233EA0053000608000000
B0942554749716N01128233EA0053000608000000
B0942594749716N01128233EA0053000608007000
B0943034749716N01128233EA0053000608000000
B0943074749716N01128233EA0053000608000000
B0943114749716N01128233EA0053000608000000
B0943154749716N01128233EA0053000608007000
B0943194749716N01128233EA0053000608000000
B0943234749716N01128233EA0053000608000000
B0943274749716N01128233EA0053000608000000
B0943314749716N01128233EA0053000608000000
B0943354749716N01128233EA0053000608007000
B0943394749716N01128233EA0053000608007000
B0943434749716N01128233EA0053000608007000
B0943474749716N01128233EA0053000608007000
B0943514749716N01128233EA0053000608000000
B0943554749716N01128233EA0053000608000000
B0943594749716N01128233EA0053000608000000
B0944034749716N01128233EA0053000608000000
B0944074749716N01128233EA0053000608000000
B0944114749716N01128233EA0053000608000000
B0944154749716N01128233EA0053100608000000
B0944194749716N01128233EA0053000608000000
B0944234749716N01128233EA0053100608000000
B0944274749716N01128233EA0053000608000000
B0944314749716N01128233EA0053000608000000
B0944354749716N01128233EA0053000608000000
B0944394749716N01128233EA0053100608000000
B0944434749716N01128233EA0053000608000000
B0944474749716N01128233EA0053100608000000
B0944514749716N01128233EA0053100608000000
B0944554749716N01128233EA0053100608000000
B0944594749716N01128233EA0053100608000000
B0945034749716N01128233EA0053100608000000
B0945074749716N01128233EA0053100608007000
B0945114749716N01128233EA0053100608000000
B0945154749716N01128233EA0053100608000000
B0945194749716N01128233EA0053000608000020
B0945234749716N01128233EA0053100608000010
B0945274749716N01128233EA0053100608000010
B0945314749716N01128233EA0053100608000020
B0945354749716N01128233EA0053100608000010
B0945394749716N01128233EA0053100608000000
B0945434749716N01128233EA0053100608000000
B0945474749716N01128233EA0053100608000010
B0945514749716N01128233EA0053100608000000
B0945554749716N01128233EA0053100608000000
B0945594749716N01128233EA0053100608000000
B0946034749716N01128233EA0053100608000000
B0946074749716N01128233EA0053100608000000
B0946114749716N01128233EA0053100608000000
B0946154749716N01128233EA0053100608000000
B0946194749716N01128233EA0053100608000030
B0946234749716N01128233EA0053100608000020
B0946274749716N01128233EA0053100608000000
B0946314749716N01128233EA0053100608000000
B0946354749716N01128233EA0053100608000000
B0946394749716N01128233EA0053200608000000
B0946434749716N01128233EA0053100608000000
B0946474749716N01128233EA0053200608000000
B0946514749716N01128233EA0053100608000000
B0946554749716N01128233EA0053200608000000
B0946594749716N01128233EA0053200608000000
B0947034749716N01128233EA0053100608000000
B0947074749716N01128233EA0053100608000000
B0947114749716N01128233EA0053100608000000
B0947154749716N01128233EA0053100608000000
B0947194749716N01128233EA0053100608000000
B0947234749716N01128233EA0053100608000000
B0947274749716N01128233EA0053100608000000
B0947314749716N01128233EA0053100608000000
B0947354749716N01128233EA0053100608000000
B0947394749716N01128233EA0053100608000000
B0947434749716N01128233EA0053200608000000
B0947474749716N01128233EA0053100608000000
B0947514749716N01128233EA0053100608000000
B0947554749716N01128233EA0053100608000000
B0947594749716N01128233EA0053100608000000
B0948034749716N01128233EA0053100608000000
B0948074749716N01128233EA0053100608000020
B0948114749716N01128233EA0053100608000000
B0948154749716N01128233EA0053100608000000
B0948194749716N01128233EA0053200608000000
B0948234749716N01128233EA0053100608000000
B0948274749716N01128233EA0053100608000000
B0948314749716N01128233EA0053100608000000
B0948354749716N01128233EA0053200608000000
B0948394749716N01128233EA0053200608000000
B0948434749716N01128233EA0053200608000000
B0948474749716N01128233EA0053100608000000
B0948514749716N01128229EA0053100608000000
B0948554749716N01128229EA0053100608000000
B0948594749716N01128229EA0053200608000000
B0949034749716N01128229EA0053200608000000
B0949074749716N01128229EA0053200608000000
B0949114749716N01128229EA0053100608000010
B0949154749716N01128229EA0053100608000000
B0949194749716N01128229EA0053100608000000
B0949234749716N01128229EA0053100608000000
B0949274749716N01128229EA0053200608000000
B0949314749716N01128229EA0053200608000000
B0949354749716N01128229EA0053200608000000
B0949394749716N01128229EA0053200608000000
B0949434749716N01128229EA0053200608000000
B0949474749716N01128229EA0053200608000000
B0949514749716N01128229EA0053200608000000
B0949554749716N01128229EA0053200608000000
B0949594749716N01128229EA0053200608000000
B0950034749716N01128229EA0053200608000000
B0950074749716N01128229EA0053200608000000
B0950114749716N01128229EA0053200608000000
B0950154749716N01128229EA0053100608000000
B0950194749716N01128229EA0053100608000000
B0950234749716N01128229EA0053100608000000
B0950274749716N01128229EA0053200608000000
B0950314749716N01128229EA0053200608000000
B0950354749716N01128229EA0053200608000000
B0950394749716N01128229EA0053200608000000
B0950434749716N01128229EA0053200608000000
B0950474749716N01128229EA0053200608000000
B0950514749716N01128229EA0053200608000000
B0950554749716N01128229EA0053200608000000
B0950594749716N01128229EA0053100608000000
B0951034749716N01128229EA0053200608000000
B0951074749716N01128229EA0053200608000000
B0951114749716N01128229EA0053200608000000
B0951154749716N01128229EA0053200608000000
B0951194749716N01128229EA0053000600000000
B0951234749716N01128229EA0053200608000000
B0951274749716N01128229EA0053200608000000
B0951314749716N01128229EA0053200608000000
B0951354749716N01128229EA0053200608000000
B0951394749716N01128229EA0053100608000000
B0951434749716N01128229EA0053100608000000
B0951474749716N01128229EA0053100608000000
B0951514749716N01128229EA0053200608000000
B0951554749716N01128229EA0053100608000000
B0951594749716N01128229EA0053100608000000
B0952034749716N01128229EA0053100600000000
B0952074749716N01128229EA0053100600000000
B0952114749716N01128229EA0053000600000000
B0952154749716N01128229EA0053100600000000
B0952194749716N01128229EA0053100600000000
B0952234749716N01128229EA0053100608000000
B0952274749716N01128229EA0053100608000000
B0952314749716N01128229EA0053000608000000
B0952354749716N01128229EA0053100600000000
B0952394749716N01128229EA0053100600000000
B0952434749716N01128229EA0053100600000000
B0952474749716N01128229EA0053100600000000
B0952514749716N01128229EA0053100600000000
B0952554749716N01128229EA0053100600000000
B0952594749716N01128229EA0053000600000000
B0953034749716N01128229EA0053100600000000
B0953074749716N01128229EA0053000600000000
B0953114749716N01128229EA0053100600000000
B0953154749716N01128229EA0053000600007000
B0953194749716N01128229EA0053100600007000
B0953234749716N01128229EA0053100600000000
B0953274749716N01128229EA0053100600000000
B0953314749716N01128229EA0053100600007000
B0953354749716N01128229EA0053100600007000
B0953394749716N01128229EA0053000600009000
B0953434749716N01128229EA0053100600007000
B0953474749716N01128229EA0053000600009000
B0953514749716N01128229EA0053000600012000
B0953554749716N01128229EA0053000600009000
B0953594749716N01128229EA0053000600012000
B0954034749716N01128229EA0053000600007000
B0954074749716N01128229EA0053000600000000
B0954114749716N01128229EA0053000600000000
B0954154749716N01128229EA0053100600000000
B0954194749716N01128229EA0053000600000000
B0954234749716N01128229EA0053000600000000
B0954274749716N01128229EA0053100600000000
B0954314749716N01128229EA0053100600007000
B0954354749716N01128229EA0053100600007000
B0954394749716N01128229EA0053100600000000
B0954434749716N01128229EA0053100600000000
B0954474749716N01128229EA0053100608000000
B0954514749716N01128229EA0053100600000000
B0954554749716N01128229EA0053100608000000
B0954594749716N01128229EA0053100608000000
B0955034749716N01128229EA0053100600000000
B0955074749716N01128233EA0053100608000100
B0955114749716N01128237EA0053100608000100
B0955154749716N01128241EA0053100608000100
B0955194749716N01128245EA0053200608000100
B0955234749716N01128245EA0053200608000010
B0955274749716N01128250EA0053200608000010
B0955314749716N01128250EA0053200608000010
B0955354749716N01128250EA0053100608000000
B0955394749716N01128250EA0053100608000000
B0955434749716N01128250EA0053100608000000
B0955474749716N01128250EA0053100608000000
B0955514749716N01128250EA0053100608000000
B0955554749716N01128250EA0053100608000000
B0955594749716N01128250EA0053100608000000
B0956034749716N01128250EA0053100608000000
B0956074749716N01128250EA0053100608000000
B0956114749716N01128250EA0053100608000000
B0956154749716N01128250EA0053100608000000
B0956194749716N01128250EA0053100608000000
B0956234749716N01128250EA0053200608000000
B0956274749716N01128250EA0053200608000000
B0956314749716N01128250EA0053200608000000
B0956354749716N01128250EA0053200608000000
B0956394749716N01128250EA0053200608000000
B0956434749716N01128250EA0053200608000000
B0956474749716N01128250EA0053100608000000
B0956514749716N01128250EA0053100608000000
B0956554749716N01128250EA0053100608000000
B0956594749716N01128250EA0053100608000000
B0957034749716N01128250EA0053100608000000
B0957074749716N01128250EA0053200608000000
B0957114749716N01128250EA0053200608000000
B0957154749716N01128250EA0053200608000000
B0957194749716N01128250EA0053200608000000
B0957234749716N01128250EA0053100608007000
B0957274749716N01128250EA0053100608000000
B0957314749716N01128250EA0053100608000000
B0957354749716N01128250EA0053000608000000
B0957394749716N01128250EA0053100608000000
B0957434749716N01128250EA0053100608000000
B0957474749716N01128250EA0053100608000000
B0957514749716N01128250EA0053100608000000
B0957554749716N01128250EA0053100608000000
B0957594749716N01128250EA0053100608000000
B0958034749716N01128250EA0053200608000000
B0958074749716N01128250EA0053200608000000
B0958114749716N01128250EA0053200608000000
B0958154749716N01128250EA0053200608000000
B0958194749716N01128250EA0053200608000000
B0958234749716N01128250EA0053200608000000
B0958274749716N01128250EA0053200608000000
B0958314749716N01128250EA0053100608000000
B0958354749716N01128250EA0053200608000000
B0958394749716N01128250EA0053200608000000
B0958434749716N01128250EA0053200608000000
B0958474749716N01128250EA0053200608000000
B0958514749716N01128250EA0053200608000000
B0958554749716N01128250EA0053200608000000
B0958594749716N01128250EA0053200608000000
B0959034749716N01128250EA0053200608000000
B0959074749716N01128250EA0053200608000000
B0959114749716N01128250EA0053200608000000
B0959154749716N01128250EA0053100608000000
B0959194749716N01128250EA0053100608000000
B0959234749716N01128250EA0053100608000000
B0959274749716N01128250EA0053200608000000
B0959314749716N01128250EA0053200608000000
B0959354749716N01128250EA0053300608000000
B0959394749716N01128250EA0053200608000000
B0959434749716N01128250EA0053200608000000
B0959474749716N01128250EA0053200608000000
B0959514749716N01128250EA0053200608000000
B0959554749716N01128250EA0053200608000000
B0959594749716N01128250EA0053200608000000
B1000034749716N01128250EA0053300608000000
B1000074749716N01128250EA0053300608000000
B1000114749716N01128250EA0053200608000000
B1000154749716N01128250EA0053200608000000
B1000194749716N01128250EA0053200608000000
B1000234749716N01128250EA0053200608000000
B1000274749716N01128250EA0053200608000000
B1000314749716N01128250EA0053300608000000
B1000354749716N01128250EA0053200608000000
B1000394749716N01128250EA0053200608000000
B1000434749716N01128250EA0053200608000000
B1000474749716N01128250EA0053200608000000
B1000514749716N01128250EA0053200608000000
B1000554749716N01128250EA0053200608000000
B1000594749716N01128250EA0053200608000000
B1001034749716N01128250EA0053200608000000
B1001074749716N01128250EA0053200608000000
B1001114749716N01128250EA0053200608000000
B1001154749716N01128250EA0053200608000000
B1001194749716N01128250EA0053200608000000
B1001234749716N01128250EA0053200608000000
B1001274749716N01128250EA0053200608000000
B1001314749716N01128250EA0053200608000000
B1001354749716N01128250EA0053200608000000
B1001394749716N01128250EA0053200608000000
B1001434749716N01128250EA0053200608000000
B1001474749716N01128250EA0053300608000000
B1001514749716N01128250EA0053200608000000
B1001554749716N01128250EA0053300608000000
B1001594749716N01128250EA0053300608000000
B1002034749716N01128250EA0053300608000000
B1002074749716N01128250EA0053200608000000
B1002114749716N01128250EA0053300608000000
B1002154749716N01128250EA0053200608000000
B1002194749716N01128250EA0053200608000000
B1002234749716N01128250EA0053200608000000
B1002274749716N01128250EA0053300608000000
B1002314749716N01128250EA0053300608000000
B1002354749716N01128250EA0053300608000000
B1002394749716N01128250EA0053300608000000
B1002434749716N01128250EA0053200608000000
B1002474749716N01128250EA0053300608000000
B1002514749716N01128250EA0053200608000000
B1002554749716N01128250EA0053200608000000
B1002594749716N01128250EA0053200608000000
B1003034749716N01128250EA0053200608000000
B1003074749716N01128250EA0053200608000000
B1003114749716N01128250EA0053300608000000
B1003154749716N01128250EA0053300608000000
B1003194749716N01128250EA0053300608000000
B1003234749716N01128250EA0053300608000000
B1003274749716N01128250EA0053200608000000
B1003314749716N01128250EA0053300608007000
B1003354749716N01128250EA0053300608000000
B1003394749716N01128250EA0053200608000000
B1003434749716N01128250EA0053300608000000
B1003474749716N01128250EA0053300608000000
B1003514749716N01128250EA0053300608000000
B1003554749716N01128250EA0053300608000000
B1003594749716N01128250EA0053300608000000
B1004034749716N01128250EA0053300608009000
B1004074749716N01128250EA0053300608000000
B1004114749716N01128250EA0053200608009000
B1004154749716N01128250EA0053200608000000
B1004194749716N01128250EA0053300608000000
B1004234749716N01128250EA0053300608000000
B1004274749716N01128250EA0053300608007000
B1004314749716N01128250EA0053300608007000
B1004354749716N01128250EA0053300608009000
B1004394749716N01128250EA0053300608007000
B1004434749716N01128250EA0053300608007000
B1004474749716N01128250EA0053300608007000
B1004514749716N01128250EA0053300608000000
B1004554749716N01128250EA0053300608000000
B1004594749716N01128250EA0053300608000000
B1005034749716N01128250EA0053300608000000
B1005074749716N01128250EA0053300608000000
B1005114749716N01128250EA0053300608000000
B1005154749716N01128250EA0053300608000000
B1005194749716N01128250EA0053300608007000
B1005234749716N01128250EA0053300608007000
B1005274749716N01128250EA0053300608000000
B1005314749716N01128250EA0053300608000000
B1005354749716N01128250EA0053300608007000
B1005394749716N01128250EA0053300608000000
B1005434749716N01128250EA0053300608000000
B1005474749716N01128250EA0053300608000000
B1005514749716N01128250EA0053300608000000
B1005554749716N01128250EA0053300608000000
B1005594749716N01128250EA0053300608000000
B1006034749716N01128254EA0053300608000010
B1006074749716N01128254EA0053300608000010
B1006114749712N01128258EA0053300608000100
B1006154749712N01128258EA0053300608000000
B1006194749712N01128258EA0053300608000000
B1006234749712N01128258EA0053300608000000
B1006274749712N01128258EA0053300608000000
B1006314749712N01128258EA0053300608000010
B1006354749712N01128258EA0053400608000000
B1006394749712N01128258EA0053300608000000
B1006434749712N01128258EA0053300608007000
B1006474749712N01128258EA0053300608007000
B1006514749712N01128258EA0053300608009000
B1006554749712N01128258EA0053300608007000
B1006594749712N01128258EA0053400608000000
B1007034749712N01128258EA0053400608007000
B1007074749712N01128258EA0053400608007000
B1007114749712N01128258EA0053300608000000
B1007154749712N01128258EA0053300608000000
B1007194749712N01128258EA0053200608000000
B1007234749712N01128258EA0053300608000000
B1007274749712N01128258EA0053300608000000
B1007314749712N01128258EA0053300608000000
B1007354749712N01128258EA0053300608000000
B1007394749712N01128258EA0053300608007000
B1007434749712N01128258EA0053300608007000
B1007474749712N01128258EA0053300608000000
B1007514749712N01128258EA0053300608000000
B1007554749712N01128258EA0053400608007000
B1007594749712N01128258EA0053400608000000
B1008034749712N01128258EA0053300608000000
B1008074749712N01128258EA0053300608000000
B1008114749712N01128258EA0053300608000000
B1008154749712N01128258EA0053300608000000
B1008194749712N01128258EA0053300608000000
B1008234749712N01128258EA0053300608000000
B1008274749712N01128258EA0053300608007000
B1008314749712N01128258EA0053400608007000
B1008354749712N01128258EA0053400608000000
B1008394749712N01128258EA0053300608007000
B1008434749712N01128258EA0053300608009000
B1008474749712N01128258EA0053300608000000
B1008514749712N01128258EA0053400608000000
B1008554749712N01128258EA0053300608007000
B1008594749712N01128258EA0053500608007000
B1009034749712N01128258EA0053400608000000
B1009074749712N01128258EA0053300608007000
B1009114749712N01128258EA0053300608009000
B1009154749712N01128258EA0053300608007000
B1009194749712N01128258EA0053300608007000
B1009234749712N01128258EA0053400608007000
B1009274749712N01128258EA0053400608007000
B1009314749712N01128258EA0053400608007000
B1009354749712N01128258EA0053400608007000
B1009394749712N01128258EA0053400608000000
B1009434749712N01128262EA0053400608000100
B1009474749712N01128266EA0053300608000100
B1009514749712N01128270EA0053400608000100
B1009554749712N01128270EA0053500608000100
B1009594749712N01128275EA0053400608000100
B1010034749712N01128279EA0053300608000010
B1010074749712N01128279EA0053300608007010
B1010114749712N01128279EA0053300608007010
B1010154749712N01128279EA0053300608000000
B1010194749712N01128279EA0053300608007000
B1010234749712N01128279EA0053300608007000
B1010274749712N01128279EA0053400608007000
B1010314749712N01128279EA0053400608007000
B1010354749712N01128279EA0053400608000000
B1010394749712N01128279EA0053400608000000
B1010434749712N01128279EA0053400608007000
B1010474749712N01128279EA0053400608000000
B1010514749712N01128279EA0053400608000000
B1010554749712N01128279EA0053400608000000
B1010594749712N01128279EA0053400608000000
B1011034749712N01128279EA0053400608000000
B1011074749712N01128279EA0053300608000000
B1011114749712N01128279EA0053400608007000
B1011154749712N01128279EA0053400608007000
B1011194749712N01128279EA0053500608007000
B1011234749712N01128279EA0053500608007000
B1011274749712N01128279EA0053500608007000
B1011314749712N01128279EA0053400608000000
B1011354749712N01128279EA0053300608000000
B1011394749712N01128279EA0053300608007000
B1011434749712N01128279EA0053300608007000
B1011474749712N01128279EA0053400608007000
B1011514749712N01128279EA0053300608000000
B1011554749712N01128279EA0053400608007000
B1011594749712N01128279EA0053400608007000
B1012034749712N01128279EA0053400608007000
B1012074749712N01128279EA0053400608007000
B1012114749712N01128279EA0053400608007000
B1012154749712N01128279EA0053300608007000
B1012194749712N01128279EA0053400608007000
B1012234749712N01128279EA0053400608007000
B1012274749712N01128279EA0053500608007000
B1012314749712N01128279EA0053500608007000
B1012354749712N01128279EA0053500608009000
B1012394749712N01128279EA0053500608007000
B1012434749712N01128279EA0053400608007000
B1012474749712N01128279EA0053400608007000
B1012514749712N01128279EA0053300608000000
B1012554749712N01128279EA0053300608007000
B1012594749712N01128279EA0053300608000000
B1013034749712N01128279EA0053300608007000
B1013074749712N01128279EA0053400608000000
B1013114749712N01128279EA0053400608007000
B1013154749712N01128279EA0053400608000000
B1013194749712N01128279EA0053400608000000
B1013234749712N01128279EA0053400608000000
B1013274749712N01128279EA0053400608000000
B1013314749712N01128279EA0053400608007000
B1013354749712N01128279EA0053400608007000
B1013394749712N01128279EA0053400608000000
B1013434749712N01128279EA0053400608000000
B1013474749712N01128279EA0053500608000000
B1013514749712N01128279EA0053500608000010
B1013554749712N01128279EA0053500608000010
B1013594749712N01128279EA0053400608000000
B1014034749712N01128279EA0053300608000000
B1014074749712N01128279EA0053400608000000
B1014114749712N01128279EA0053300608000000
B1014154749712N01128279EA0053300608007000
B1014194749712N01128279EA0053400608000000
B1014234749712N01128279EA0053500608007000
B1014274749712N01128279EA0053500608000000
B1014314749712N01128279EA0053500608000000
B1014354749712N01128279EA0053400608000000
B1014394749712N01128279EA0053400608000000
B1014434749712N01128279EA0053400608000000
B1014474749712N01128279EA0053400608007000
B1014514749712N01128279EA0053400608000000
B1014554749712N01128279EA0053500608000000
B1014594749712N01128279EA0053400608007000
B1015034749712N01128279EA0053400608000000
B1015074749712N01128279EA0053400608000000
B1015114749712N01128279EA0053300608007000
B1015154749712N01128279EA0053400608000000
B1015194749712N01128279EA0053300608007000
B1015234749712N01128279EA0053500608000000
B1015274749712N01128279EA0053400608000000
B1015314749712N01128279EA0053400608000000
B1015354749712N01128279EA0053400608000000
B1015394749712N01128279EA0053400608000000
B1015434749712N01128279EA0053400608000000
B1015474749712N01128279EA0053400608000000
B1015514749712N01128279EA0053300608000000
B1015554749712N01128279EA0053400608007000
B1015594749712N01128279EA0053400608000000
B1016034749712N01128279EA0053400608000000
B1016074749712N01128279EA0053500608000000
B1016114749712N01128279EA0053500608007000
B1016154749712N01128279EA0053400608000000
B1016194749712N01128279EA0053400608009000
B1016234749712N01128279EA0053400608009000
B1016274749712N01128279EA0053400608007000
B1016314749712N01128279EA0053500608000000
B1016354749712N01128279EA0053400608007000
B1016394749712N01128279EA0053400608000000
B1016434749712N01128279EA0053400608000000
B1016474749712N01128279EA0053500608000000
B1016514749712N01128279EA0053400608000000
B1016554749712N01128279EA0053600608000000
B1016594749712N01128279EA0053500608000000
B1017034749712N01128283EA0053500608000100
B1017074749712N01128287EA0053600608000100
B1017114749712N01128287EA0053500608000100
B1017154749712N01128291EA0053400608000010
B1017194749712N01128291EA0053400608000000
B1017234749708N01128291EA0053400608007000
B1017274749708N01128291EA0053400608000000
B1017314749712N01128291EA0053400608007000
B1017354749712N01128291EA0053400608007000
B1017394749712N01128291EA0053400608007000
B1017434749712N01128291EA0053500608007000
B1017474749712N01128291EA0053500608000000
B1017514749712N01128291EA0053500608000000
B1017554749712N01128291EA0053600608009000
B1017594749712N01128291EA0053600608007000
B1018034749712N01128291EA0053400608007000
B1018074749712N01128291EA0053500608007000
B1018114749712N01128291EA0053400608000000
B1018154749712N01128291EA0053500608000000
B1018194749712N01128291EA0053400608000000
B1018234749712N01128291EA0053400608000000
B1018274749712N01128291EA0053300608007000
B1018314749712N01128291EA0053400608000000
B1018354749712N01128291EA0053400608007000
B1018394749712N01128291EA0053400608000000
B1018434749712N01128291EA0053400608007000
B1018474749712N01128291EA0053400608000000
B1018514749712N01128291EA0053600608000000
B1018554749712N01128291EA0053400608000000
B1018594749712N01128291EA0053500608000000
B1019034749712N01128291EA0053600608000000
B1019074749712N01128291EA0053600608000000
B1019114749712N01128291EA0053400608000000
B1019154749712N01128291EA0053400608000000
B1019194749708N01128291EA0053400608000010
B1019234749708N01128295EA0053400608000100
B1019274749708N01128300EA0053400608000100
B1019314749708N01128304EA0053500608000100
B1019354749704N01128308EA0053500608000125
B1019394749704N01128308EA0053500608000100
B1019434749700N01128312EA0053500608000125
B1019474749695N01128312EA0053500608000125
B1019514749691N01128308EA0053500608000100
B1019554749687N01128308EA0053600608000100
B1019594749687N01128308EA0053600608000100
B1020034749683N01128308EA0053600608000100
B1020074749679N01128304EA0053600608000100
B1020114749675N01128304EA0053400608000100
B1020154749675N01128304EA0053500608000100
B1020194749670N01128304EA0053400608000010
B1020234749670N01128304EA0053500608000010
B1020274749670N01128304EA0053400608007000
B1020314749670N01128304EA0053500608000000
B1020354749670N01128304EA0053500608007010
B1020394749675N01128300EA0053400608012100
B1020434749675N01128295EA0053500608007100
B1020474749675N01128295EA0053500608000000
B1020514749675N01128295EA0053500608000000
B1020554749675N01128295EA0053600608000000
B1020594749675N01128295EA0053600608000000
B1021034749675N01128295EA0053600608000000
B1021074749675N01128295EA0053500608000000
B1021114749675N01128295EA0053500608000000
B1021154749675N01128295EA0053500608000000
B1021194749675N01128295EA0053500608000000
B1021234749675N01128295EA0053500608000000
B1021274749675N01128295EA0053500608000000
B1021314749675N01128295EA0053600608000000
B1021354749675N01128295EA0053600608000000
B1021394749675N01128295EA0053600608007000
B1021434749675N01128295EA0053500608000000
B1021474749675N01128295EA0053500608000000
B1021514749675N01128295EA0053400608000000
B1021554749675N01128295EA0053500608000000
B1021594749675N01128295EA0053500608007000
B1022034749675N01128295EA0053500608007000
B1022074749675N01128295EA0053500608000000
B1022114749675N01128295EA0053600608000000
B1022154749675N01128295EA0053500608000000
B1022194749675N01128295EA0053500608000000
B1022234749675N01128295EA0053400608000000
B1022274749675N01128295EA0053500608000000
B1022314749675N01128295EA0053500608007000
B1022354749675N01128295EA0053600608000000
B1022394749675N01128295EA0053500608000000
B1022434749675N01128295EA0053500608007000
B1022474749675N01128295EA0053500608007000
B1022514749675N01128295EA0053500608000000
B1022554749675N01128295EA0053500608007000
B1022594749675N01128295EA0053500608000000
B1023034749675N01128295EA0053600608007000
B1023074749675N01128295EA0053500608000000
B1023114749675N01128295EA0053500608000000
B1023154749675N01128295EA0053500608009000
B1023194749675N01128295EA0053600608000000
B1023234749675N01128295EA0053600608007000
B1023274749675N01128295EA0053600608000000
B1023314749675N01128295EA0053600608000000
B1023354749675N01128295EA0053500608009000
B1023394749675N01128295EA0053500608007000
B1023434749675N01128295EA0053500608007000
B1023474749675N01128295EA0053600608007000
B1023514749675N01128295EA0053500608000000
B1023554749675N01128295EA0053500608012000
B1023594749675N01128295EA0053500608015000
B1024034749675N01128295EA0053600608012000
B1024074749675N01128295EA0053600608009000
B1024114749675N01128295EA0053600608007000
B1024154749675N01128295EA0053600608000000
B1024194749675N01128295EA0053500608009000
B1024234749675N01128295EA0053500608007000
B1024274749675N01128295EA0053500608014000
B1024314749675N01128295EA0053500608012000
B1024354749670N01128295EA0053500608012000
B1024394749670N01128295EA0053600608014000
B1024434749670N01128295EA0053500608012000
B1024474749670N01128295EA0053500608009000
B1024514749670N01128295EA0053500608018010
B1024554749675N01128291EA0053500608015125
B1024594749675N01128291EA0053600608012100
B1025034749675N01128291EA0053500608007000
B1025074749675N01128291EA0053600608007000
B1025114749675N01128291EA0053600608000000
B1025154749675N01128291EA0053600608000000
B1025194749675N01128291EA0053600608000000
B1025234749675N01128291EA0053600608007000
B1025274749675N01128291EA0053600608000000
B1025314749675N01128291EA0053600608000000
B1025354749675N01128291EA0053500608000000
B1025394749675N01128291EA0053600608000000
B1025434749675N01128291EA0053600608007000
B1025474749670N01128291EA0053600608000000
B1025514749670N01128291EA0053600608000000
B1025554749670N01128291EA0053600608000000
B1025594749670N01128291EA0053600608000000
B1026034749670N01128291EA0053600608000000
B1026074749670N01128291EA0053500608000000
B1026114749670N01128291EA0053500608007000
B1026154749670N01128291EA0053600608000000
B1026194749670N01128291EA0053600608000000
B1026234749670N01128291EA0053600608009000
B1026274749670N01128291EA0053600608000000
B1026314749670N01128291EA0053600608000000
B1026354749670N01128291EA0053600608000000
B1026394749670N01128291EA0053600608000000
B1026434749670N01128291EA0053600608000000
B1026474749670N01128291EA0053600608000000
B1026514749670N01128291EA0053600608000000
B1026554749670N01128291EA0053600608007000
B1026594749670N01128291EA0053600608007000
B1027034749670N01128291EA0053600608000000
B1027074749670N01128291EA0053600608000000
B1027114749670N01128291EA0053600608000000
B1027154749670N01128291EA0053600608000000
B1027194749670N01128291EA0053600608000000
B1027234749670N01128291EA0053600608000000
B1027274749670N01128291EA0053600608000000
B1027314749670N01128291EA0053600608000000
B1027354749670N01128291EA0053600608000000
B1027394749670N01128291EA0053600608000000
B1027434749670N01128291EA0053600608000000
B1027474749670N01128291EA0053600608000000
B1027514749670N01128291EA0053600608007000
B1027554749670N01128291EA0053600608000000
B1027594749670N01128291EA0053600608000000
B1028034749670N01128291EA0053600608000010
B1028074749670N01128291EA0053600608000030
B1028114749670N01128291EA0053700608000000
B1028154749670N01128291EA0053700608000000
B1028194749670N01128291EA0053700608000000
B1028234749670N01128291EA0053700608000000
B1028274749670N01128291EA0053600608000000
B1028314749670N01128291EA0053700608000000
B1028354749670N01128291EA0053700608000000
B1028394749670N01128291EA0053700608000000
B1028434749670N01128291EA0053600608000000
B1028474749670N01128291EA0053700608000000
B1028514749670N01128291EA0053600608000000
B1028554749670N01128291EA0053600608000000
B1028594749670N01128291EA0053600608000000
B1029034749670N01128291EA0053600608000000
B1029074749670N01128291EA0053600608000000
B1029114749670N01128291EA0053600608000000
B1029154749670N01128291EA0053700608000000
B1029194749670N01128291EA0053700608000000
B1029234749670N01128291EA0053700608000000
B1029274749670N01128291EA0053700608000000
B1029314749670N01128291EA0053700600000000
B1029354749670N01128291EA0053700600000000
B1029394749670N01128291EA0053700600000000
B1029434749670N01128291EA0053700600000000
B1029474749670N01128291EA0053600600000000
B1029514749670N01128291EA0053600600000000
B1029554749670N01128291EA0053600600000000
B1029594749670N01128291EA0053700600000000
B1030034749670N01128291EA0053700600000000
B1030074749670N01128291EA0053700600000000
B1030114749670N01128291EA0053700600000000
B1030154749670N01128291EA0053700600000000
B1030194749670N01128291EA0053700600000000
B1030234749670N01128291EA0053700600000000
B1030274749670N01128291EA0053700600000000
B1030314749670N01128291EA0053700600000000
B1030354749670N01128291EA0053700600000000
B1030394749670N01128291EA0053700600000000
B1030434749670N01128291EA0053700600000000
B1030474749670N01128291EA0053700600000000
B1030514749670N01128291EA0053700600000000
B1030554749670N01128291EA0053700600000000
B1030594749670N01128291EA0053700600000000
B1031034749670N01128291EA0053700600000000
B1031074749670N01128291EA0053700600007000
B1031114749670N01128291EA0053700600000000
B1031154749670N01128291EA0053700600000000
B1031194749670N01128291EA0053700600000000
B1031234749670N01128291EA0053700600000000
B1031274749670N01128291EA0053700600000000
B1031314749670N01128291EA0053700600000000
B1031354749670N01128291EA0053700600000000
B1031394749670N01128291EA0053700600000000
B1031434749670N01128291EA0053700600000000
B1031474749670N01128291EA0053700600007000
B1031514749670N01128291EA0053700600000000
B1031554749670N01128291EA0053700600000000
B1031594749670N01128291EA0053700600000000
B1032034749670N01128291EA0053700600000000
B1032074749670N01128291EA0053700600000000
B1032114749670N01128291EA0053700600000000
B1032154749670N01128291EA0053700600000000
B1032194749670N01128291EA0053700600000000
B1032234749670N01128291EA0053700600000000
B1032274749670N01128291EA0053700600000000
B1032314749670N01128291EA0053700600000000
B1032354749670N01128291EA0053700600000000
B1032394749670N01128291EA0053700600000000
B1032434749670N01128291EA0053700600007000
B1032474749670N01128291EA0053700600000000
B1032514749670N01128291EA0053700600000000
B1032554749670N01128291EA0053600600000000
B1032594749670N01128291EA0053600600000000
B1033034749670N01128291EA0053700600000000
B1033074749670N01128291EA0053700600000000
B1033114749670N01128291EA0053700600000000
B1033154749670N01128291EA0053700600000000
B1033194749670N01128291EA0053700600000000
B1033234749670N01128291EA0053700600000000
B1033274749670N01128291EA0053700600000000
B1033314749670N01128291EA0053700600000000
B1033354749670N01128291EA0053700600000000
B1033394749670N01128291EA0053700600000000
B1033434749670N01128291EA0053700600009000
B1033474749670N01128291EA0053700600007000
B1033514749670N01128291EA0053700600007000
B1033554749670N01128291EA0053700600009000
B1033594749670N01128291EA0053600600012000
B1034034749670N01128291EA0053700600009000
B1034074749670N01128291EA0053700600009000
B1034114749670N01128291EA0053700600014000
B1034154749670N01128291EA0053700600015000
B1034194749670N01128291EA0053700600012000
B1034234749670N01128291EA0053700600014000
B1034274749670N01128291EA0053700600009000
B1034314749670N01128291EA0053600600009000
B1034354749670N01128291EA0053700600007000
B1034394749670N01128291EA0053700600007000
B1034434749670N01128291EA0053700600007000
B1034474749670N01128291EA0053700600007000
B1034514749670N01128291EA0053700600007000
B1034554749670N01128291EA0053600600012000
B1034594749670N01128291EA0053700600009000
B1035034749670N01128291EA0053700600018000
B1035074749670N01128291EA0053700600017000
B1035114749670N01128291EA0053700600017000
B1035154749670N01128291EA0053700600015000
B1035194749670N01128291EA0053700600014000
B1035234749670N01128291EA0053700600020000
B1035274749670N01128291EA0053700600014000
B1035314749670N01128291EA0053700600014000
B1035354749670N01128291EA0053700600014000
B1035394749670N01128291EA0053700600014000
B1035434749670N01128291EA0053700600014000
B1035474749670N01128291EA0053700600018000
B1035514749670N01128291EA0053700600015000
B1035554749670N01128291EA0053700600017000
B1035594749670N01128291EA0053700600017000
B1036034749670N01128291EA0053700600014000
B1036074749670N01128291EA0053700600015000
B1036114749670N01128291EA0053700600012000
B1036154749670N01128291EA0053700600007000
B1036194749670N01128291EA0053700600000000
B1036234749670N01128291EA0053700600015000
B1036274749670N01128291EA0053700600015000
B1036314749670N01128291EA0053700600017000
B1036354749670N01128291EA0053700600014000
B1036394749670N01128291EA0053700600015000
B1036434749670N01128291EA0053700600015000
B1036474749670N01128291EA0053700600017000
B1036514749670N01128291EA0053700600017000
B1036554749670N01128291EA0053700600009000
B1036594749670N01128291EA0053700600007000
B1037034749670N01128291EA0053700600007000
B1037074749670N01128291EA0053700600012000
B1037114749670N01128291EA0053700600007000
B1037154749670N01128291EA0053700600012000
B1037194749670N01128291EA0053700600012000
B1037234749670N01128291EA0053700600009000
B1037274749670N01128291EA0053700600012000
B1037314749670N01128291EA0053700600014000
B1037354749670N01128291EA0053700600015000
B1037394749670N01128291EA0053700600015000
B1037434749670N01128291EA0053700600014000
B1037474749670N01128291EA0053700600009000
B1037514749670N01128291EA0053700600007000
B1037554749670N01128291EA0053700600007000
B1037594749670N01128291EA0053700600012000
B1038034749670N01128291EA0053700600012000
B1038074749670N01128291EA0053800600017000
B1038114749670N01128291EA0053700600018000
B1038154749670N01128291EA0053700600014000
B1038194749670N01128291EA0053800600026000
B1038234749670N01128291EA0053700600022000
B1038274749670N01128291EA0053700600000000
B1038314749670N01128291EA0053700600018000
B1038354749670N01128291EA0053700600012000
B1038394749670N01128291EA0053700600009000
B1038434749670N01128291EA0053700600009000
B1038474749670N01128291EA0053800600009000
B1038514749670N01128291EA0053800600014000
B1038554749670N01128291EA0053700600007000
B1038594749670N01128291EA0053700600012000
B1039034749670N01128291EA0053700600009000
B1039074749670N01128291EA0053700600007000
B1039114749670N01128291EA0053600600027000
B1039154749670N01128291EA0053700600020000
B1039194749670N01128291EA0053700600018000
B1039234749670N01128291EA0053700600012000
B1039274749670N01128291EA0053800600012000
B1039314749670N01128291EA0053700600009000
B1039354749670N01128291EA0053700600009000
B1039394749670N01128291EA0053700600007000
B1039434749670N01128291EA0053700600012000
B1039474749670N01128287EA0053700600012000
B1039514749670N01128283EA0053700600015000
B1039554749675N01128283EA0053700600009000
B1039594749675N01128283EA0053700600009000
B1040034749675N01128279EA0053700600012000
B1040074749675N01128279EA0053700600009000
B1040114749675N01128279EA0053700600012000
B1040154749675N01128275EA0053700600007000
B1040194749675N01128275EA0053700600000000
B1040234749675N01128275EA0053700600000000
B1040274749675N01128275EA0053700600007000
B1040314749675N01128275EA0053800600007000
B1040354749675N01128275EA0053700600012000
B1040394749675N01128275EA0053800600000000
B1040434749675N01128275EA0053900600000000
B1040474749675N01128275EA0053800600000000
B1040514749675N01128275EA0053700600000000
B1040554749675N01128275EA0053700600000000
B1040594749675N01128275EA0053700600007000
B1041034749675N01128275EA0053700600009000
B1041074749675N01128275EA0053700600009000
B1041114749675N01128275EA0053700600000000
B1041154749675N01128275EA0053700600000000
B1041194749675N01128275EA0053700600000000
B1041234749675N01128275EA0053700600000000
B1041274749675N01128270EA0053800600000000
B1041314749675N01128270EA0053800600000000
B1041354749675N01128270EA0053800600000000
B1041394749675N01128266EA0053800600000000
B1041434749675N01128266EA0053800600000000
B1041474749675N01128266EA0053800600000000
B1041514749675N01128266EA0053800600000000
B1041554749675N01128266EA0053700600000000
B1041594749675N01128266EA0053800600000000
B1042034749675N01128266EA0053700600009000
B1042074749675N01128266EA0053700600000000
B1042114749675N01128266EA0053700600007000
B1042154749675N01128266EA0053700600000000
B1042194749675N01128266EA0053700600000000
B1042234749675N01128266EA0053600600000000
B1042274749675N01128266EA0053800600000000
B1042314749675N01128266EA0053800600000000
B1042354749675N01128266EA0053700600000000
B1042394749675N01128266EA0053700600000000
B1042434749675N01128266EA0053700600000000
B1042474749675N01128266EA0053700600000000
B1042514749675N01128266EA0053700600000000
B1042554749675N01128266EA0053800600000000
B1042594749675N01128266EA0053800600000000
B1043034749675N01128266EA0053900600000000
B1043074749675N01128266EA0053800600000000
B1043114749675N01128266EA0053800600000000
B1043154749675N01128266EA0053600600000000
B1043194749675N01128266EA0053700600007000
B1043234749675N01128266EA0053700600012000
B1043274749675N01128266EA0053800600007000
B1043314749675N01128270EA0053800600007000
B1043354749675N01128270EA0053800600007000
B1043394749675N01128270EA0053800600000000
B1043434749675N01128270EA0053700600009000
B1043474749675N01128270EA0053700600000000
B1043514749675N01128270EA0053700600000000
B1043554749675N01128270EA0053700608009000
B1043594749675N01128270EA0053800608000000
B1044034749675N01128270EA0053700608000000
B1044074749675N01128270EA0053800608000000
B1044114749675N01128270EA0053800608000000
B1044154749675N01128270EA0053800608000000
B1044194749675N01128270EA0053700608000000
B1044234749675N01128270EA0053700608000000
B1044274749675N01128270EA0053700608000000
B1044314749675N01128270EA0053700608000000
B1044354749675N01128270EA0053800608000000
B1044394749675N01128270EA0053700608007000
B1044434749675N01128270EA0053700608000000
B1044474749675N01128270EA0053700608000000
B1044514749675N01128270EA0053700600000000
B1044554749675N01128270EA0053700608000000
B1044594749675N01128270EA0053700608000000
B1045034749675N01128266EA0053700608000000
B1045074749675N01128266EA0053700600000000
B1045114749675N01128266EA0053700600000000
B1045154749675N01128266EA0053700600000000
B1045194749675N01128258EA0053700608044020
K104519304014
B1045234749679N01128229EA0053500608066100
B1045274749683N01128187EA0053500608068000
B1045314749691N01128129EA0053600608078000
B1045354749700N01128058EA0053800608090000
B1045394749708N01127975EA0054000608096000
K104539296015
B1045434749720N01127887EA0054600608112000
B1045474749733N01127795EA0055200616126000
B1045514749762N01127704EA0055400624117000
B1045554749800N01127633EA0056500632116000
B1045594749845N01127570EA0057400640119000
K104559292016
B1046034749900N01127520EA0057700648116000
B1046074749958N01127483EA0058200648112000
B1046114750020N01127454EA0059100656116000
B1046154750079N01127429EA0059500664111000
B1046194750137N01127391EA0060200672110000
K104619306013
B1046234750191N01127341EA0060900680109000
B1046274750229N01127279EA0062300696105000
B1046314750258N01127200EA0063500704104000
B1046354750279N01127112EA0064600720114000
B1046394750291N01127016EA0065400720122000
K104639296015
B1046434750287N01126912EA0065000720115000
B1046474750258N01126812EA0065100720117000
B1046514750208N01126729EA0065400728116000
B1046554750145N01126654EA0065800728114000
B1046594750079N01126595EA0067100736122000
K104659296015
B1047034750004N01126550EA0067500744121000
B1047074749925N01126512EA0068500752118000
B1047114749850N01126483EA0070300776114000
B1047154749775N01126454EA0070500776124000
B1047194749691N01126425EA0071500784126000
K104719074007
B1047234749608N01126404EA0071300784126000
B1047274749529N01126387EA0073300800116000
B1047314749450N01126370EA0073700808119000
B1047354749366N01126383EA0074600816117000
B1047394749295N01126420EA0076200832116000
K104739084010
B1047434749233N01126487EA0076300840116000
B1047474749179N01126570EA0076300840113000
B1047514749141N01126679EA0076400840122000
B1047554749133N01126795EA0077600848119000
B1047594749145N01126912EA0079300864123000
K104759084010
B1048034749175N01127012EA0081400888120000
B1048074749233N01127083EA0082000896129000
B1048114749300N01127129EA0083100904132000
B1048154749375N01127137EA0084700928129000
B1048194749441N01127133EA0086000944119000
K104819084010
B1048234749512N01127129EA0086700944128000
B1048274749579N01127125EA0088000960121000
B1048314749645N01127116EA0089600976119000
B1048354749712N01127108EA0090300984114000
B1048394749779N01127104EA0090800992117000
K104839350006
B1048434749850N01127116EA0091200992117000
B1048474749920N01127125EA0091801000117000
B1048514749987N01127129EA0092101000115000
B1048554750058N01127137EA0092301008118000
B1048594750120N01127141EA0093101016112000
K104859310015
B1049034750187N01127145EA0093501016113000
B1049074750254N01127141EA0093701024124000
B1049114750320N01127137EA0094201024119000
B1049154750387N01127133EA0094801032116000
B1049194750454N01127125EA0095001032115000
K104919320016
B1049234750525N01127116EA0095101032117000
B1049274750591N01127108EA0095301040113000
B1049314750658N01127091EA0096101048118000
B1049354750725N01127075EA0097101056120000
B1049394750787N01127054EA0097701064112000
K104939310015
B1049434750854N01127033EA0097801064112000
B1049474750916N01127008EA0098201064111000
B1049514750983N01126983EA0099601080115000
B1049554751041N01126958EA0100201088117000
B1049594751104N01126929EA0100901096112000
K104959306015
B1050034751162N01126904EA0101801104111000
B1050074751225N01126875EA0103101112112000
B1050114751283N01126841EA0103101120119000
B1050154751350N01126808EA0103901128118000
B1050194751412N01126775EA0104501136111000
K105019310015
B1050234751475N01126737EA0105601144116000
B1050274751537N01126695EA0105601144124000
B1050314751600N01126654EA0106201152118000
B1050354751662N01126604EA0106601152122000
B1050394751712N01126541EA0107101160121000
K105039304015
B1050434751750N01126458EA0106901160117000
B1050474751766N01126366EA0107901168118000
B1050514751775N01126270EA0108801176116000
B1050554751775N01126179EA0109901184110000
B1050594751775N01126083EA0109701184115000
K105059304015
B1051034751770N01125983EA0110001192117000
B1051074751762N01125879EA0110201192114000
B1051114751750N01125779EA0111001200113000
B1051154751737N01125687EA0111701208112000
B1051194751725N01125595EA0112401216113000
K105119260012
B1051234751708N01125504EA0112601216114000
B1051274751679N01125416EA0112301208109000
B1051314751629N01125345EA0112701216118000
B1051354751562N01125300EA0113201216120000
B1051394751491N01125270EA0115001240115000
K105139270012
B1051434751416N01125258EA0116101248111000
B1051474751345N01125250EA0117401264113000
B1051514751279N01125241EA0118401272096000
B1051554751233N01125191EA0118601280088000
B1051594751254N01125112EA0117901264100000
K105159256012
B1052034751320N01125116EA0117801264091000
B1052074751375N01125158EA0117801264095000
B1052114751425N01125220EA0118301272094000
B1052154751441N01125316EA0117801264090000
B1052194751404N01125395EA0117401264089000
K105219256012
B1052234751345N01125433EA0117601264095000
B1052274751287N01125475EA0117301264093000
B1052314751233N01125516EA0116601256097000
B1052354751179N01125562EA0115501240100000
B1052394751125N01125612EA0114601232102000
K105239256012
B1052434751066N01125666EA0113501224102000
B1052474751004N01125716EA0112601216110000
B1052514750937N01125770EA0112401208111000
B1052554750870N01125820EA0112301208113000
B1052594750804N01125875EA0112901216103000
K105259264012
B1053034750741N01125925EA0113101216101000
B1053074750679N01125975EA0112901216101000
B1053114750616N01126029EA0112801216105000
B1053154750554N01126075EA0112801216103000
B1053194750491N01126120EA0112801224097000
K105319284012
B1053234750433N01126162EA0112601216096000
B1053274750370N01126204EA0111901208095000
B1053314750308N01126250EA0111101200103000
B1053354750245N01126295EA0110701200105000
B1053394750183N01126345EA0110101192108000
K105339290008
B1053434750125N01126395EA0109401184105000
B1053474750062N01126445EA0108501176105000
B1053514750004N01126504EA0107701168107000
B1053554749941N01126562EA0107301160110000
B1053594749879N01126616EA0107201160106000
K105359276008
B1054034749820N01126666EA0107401160102000
B1054074749758N01126720EA0107101160106000
B1054114749695N01126766EA0106701160101000
B1054154749633N01126816EA0106201152102000
B1054194749566N01126866EA0105901144102000
K105419278012
B1054234749504N01126912EA0106001152102000
B1054274749437N01126958EA0106201152106000
B1054314749375N01127000EA0107501168096000
B1054354749312N01127004EA0108501176086000
B1054394749279N01126937EA0109501184089000
K105439278012
B1054434749304N01126875EA0109701184088000
B1054474749358N01126891EA0109901184082000
B1054514749379N01126975EA0110201184083000
B1054554749354N01127058EA0110901192083000
B1054594749325N01127137EA0110901200083000
K105459278012
B1055034749270N01127162EA0110301192087000
B1055074749233N01127108EA0110601184089000
B1055114749245N01127033EA0111401192085000
B1055154749300N01127029EA0112401208086000
B1055194749320N01127108EA0113501216077000
K105519258006
B1055234749279N01127170EA0113601216081000
B1055274749225N01127150EA0113501216086000
B1055314749220N01127070EA0114101224084000
B1055354749266N01127050EA0115201240082000
B1055394749304N01127112EA0116101240076000
K105539282008
B1055434749279N01127195EA0116201248083000
B1055474749220N01127212EA0116701248088000
B1055514749187N01127145EA0116901248092000
B1055554749216N01127083EA0118201264085000
B1055594749266N01127108EA0119401272086000
K105559276007
B1056034749275N01127195EA0119701272085000
B1056074749229N01127254EA0120601288081000
B1056114749179N01127220EA0120501280085000
B1056154749183N01127141EA0121201288090000
B1056194749233N01127129EA0122901304077000
K105619276011
B1056234749262N01127204EA0123101312081000
B1056274749225N01127283EA0123801312084000
B1056314749170N01127275EA0124001320083000
B1056354749162N01127195EA0123901320089000
B1056394749216N01127175EA0125301336085000
K105639282009
B1056434749254N01127241EA0126301344078000
B1056474749233N01127329EA0126601344081000
B1056514749175N01127341EA0126701352085000
B1056554749141N01127275EA0126601344090000
B1056594749166N01127212EA0127201352089000
K105659274011
B1057034749225N01127229EA0128501368085000
B1057074749237N01127320EA0128901376086000
B1057114749195N01127387EA0128801376093000
B1057154749137N01127366EA0129301384086000
B1057194749129N01127291EA0129301384085000
K105719288012
B1057234749170N01127250EA0130301392083000
B1057274749225N01127241EA0131201400081000
B1057314749275N01127266EA0131801408086000
B1057354749295N01127354EA0132401408084000
B1057394749254N01127425EA0132701416083000
K105739298011
B1057434749195N01127404EA0132801416093000
B1057474749191N01127333EA0133301424088000
B1057514749241N01127308EA0134201432085000
B1057554749283N01127379EA0135401440084000
B1057594749262N01127466EA0136101448086000
K105759276012
B1058034749204N01127487EA0136301448085000
B1058074749170N01127416EA0136501448084000
B1058114749200N01127354EA0137301456087000
B1058154749254N01127366EA0138201472087000
B1058194749279N01127450EA0139401480082000
K105819286011
B1058234749250N01127533EA0140101488086000
B1058274749191N01127529EA0140101488091000
B1058314749170N01127458EA0140901496086000
B1058354749212N01127412EA0141501496089000
B1058394749262N01127470EA0142201504091000
K105839286012
B1058434749241N01127570EA0143001512090000
B1058474749183N01127579EA0143501520095000
B1058514749175N01127500EA0144101528089000
B1058554749225N01127475EA0145101536084000
B1058594749266N01127550EA0146001544087000
K105859270010
B1059034749241N01127637EA0147101552083000
B1059074749183N01127641EA0147501560086000
B1059114749154N01127575EA0148001568094000
B1059154749170N01127508EA0148701576086000
B1059194749225N01127491EA0148801576084000
K105919266015
B1059234749275N01127554EA0149301584086000
B1059274749279N01127650EA0149601584089000
B1059314749237N01127725EA0150001584090000
B1059354749175N01127729EA0150801592088000
B1059394749141N01127670EA0151101600094000
K105939270012
B1059434749154N01127595EA0152101608093000
B1059474749204N01127562EA0151901616086000
B1059514749258N01127612EA0152301616088000
B1059554749270N01127708EA0152901624088000
B1059594749233N01127783EA0153101624086000
K105959262014
B1100034749175N01127795EA0153601624088000
B1100074749129N01127745EA0153901632087000
B1100114749116N01127675EA0154301632085000
B1100154749154N01127616EA0154501640091000
B1100194749216N01127620EA0154701640086000
K110019260014
B1100234749262N01127687EA0154401640089000
B1100274749262N01127787EA0154201632088000
B1100314749225N01127870EA0154401640092000
B1100354749170N01127937EA0154901640092000
B1100394749116N01127995EA0155301648094000
K110039262012
B1100434749058N01128054EA0154801648100000
B1100474748995N01128112EA0154101632105000
B1100514748937N01128170EA0153401632109000
B1100554748875N01128229EA0151801616114000
B1100594748808N01128283EA0150601600116000
K110059256012
B1101034748741N01128333EA0149701592112000
B1101074748666N01128379EA0149001584114000
B1101114748595N01128433EA0149101584116000
B1101154748525N01128495EA0150301592116000
B1101194748458N01128550EA0150901608107000
K110119270014
B1101234748395N01128616EA0150801600111000
B1101274748333N01128666EA0151601616108000
B1101314748266N01128720EA0152201616103000
B1101354748208N01128766EA0153601632091000
B1101394748150N01128812EA0153801640090000
K110139270015
B1101434748087N01128854EA0154201640095000
B1101474748020N01128891EA0153801640094000
B1101514747958N01128929EA0153101632100000
B1101554747891N01128962EA0152601624105000
B1101594747820N01129000EA0151601616103000
K110159278013
B1102034747750N01129033EA0150701608118000
B1102074747675N01129070EA0149901600118000
B1102114747600N01129108EA0149101584125000
B1102154747525N01129141EA0148501584122000
B1102194747450N01129175EA0148401584119000
K110219260012
B1102234747370N01129212EA0148101576122000
B1102274747295N01129250EA0148901584118000
B1102314747220N01129287EA0149601592115000
B1102354747145N01129316EA0150201600108000
B1102394747075N01129345EA0150301600110000
K110239274015
B1102434747000N01129370EA0149901600111000
B1102474746925N01129404EA0149401592114000
B1102514746850N01129441EA0148701584116000
B1102554746775N01129475EA0148101584112000
B1102594746695N01129508EA0147601576115000
K110259290011
B1103034746620N01129550EA0146701568121000
B1103074746541N01129591EA0145901560128000
B1103114746462N01129629EA0145901560127000
B1103154746383N01129666EA0146501568120000
B1103194746312N01129700EA0146301560117000
K110319270013
B1103234746241N01129729EA0145501560117000
B1103274746166N01129762EA0144701544118000
B1103314746091N01129795EA0143701536119000
B1103354746012N01129825EA0142401520127000
B1103394745929N01129850EA0142201520125000
K110339262014
B1103434745850N01129870EA0142901528124000
B1103474745770N01129900EA0143201528118000
B1103514745691N01129920EA0143701536112000
B1103554745616N01129950EA0143501536112000
B1103594745541N01129975EA0142901528116000
K110359286010
B1104034745462N01130000EA0143201536118000
B1104074745383N01130020EA0142901528117000
B1104114745300N01130041EA0142701528117000
B1104154745225N01130066EA0142201520116000
B1104194745145N01130083EA0141701520119000
K110419292010
B1104234745066N01130075EA0141301512121000
B1104274744991N01130054EA0141101512118000
B1104314744916N01130029EA0141101512109000
B1104354744845N01130000EA0141201512114000
B1104394744770N01129966EA0141401512114000
K110439288015
B1104434744700N01129929EA0141901520113000
B1104474744629N01129891EA0143301536103000
B1104514744566N01129854EA0143801544097000
B1104554744512N01129795EA0144001544097000
B1104594744466N01129729EA0143601536103000
K110459292016
B1105034744408N01129679EA0142901528102000
B1105074744341N01129654EA0142101520106000
B1105114744275N01129625EA0141401512107000
B1105154744204N01129604EA0140201504111000
B1105194744133N01129579EA0139101496111000
K110519296004
B1105234744058N01129554EA0137601480116000
B1105274743979N01129533EA0136601464118000
B1105314743895N01129508EA0136001456118000
B1105354743816N01129479EA0135301448115000
B1105394743737N01129458EA0135101448116000
K110539350006
B1105434743654N01129437EA0134701448116000
B1105474743575N01129408EA0134601440110000
B1105514743500N01129387EA0135001448108000
B1105554743429N01129362EA0135401456104000
B1105594743354N01129345EA0135901456099000
K110559000010
B1106034743283N01129337EA0137001464104000
B1106074743229N01129291EA0137801480093000
B1106114743233N01129204EA0137801472093000
B1106154743300N01129191EA0138701480101000
B1106194743337N01129279EA0140101496102000
K110619348010
B1106234743291N01129358EA0140801512097000
B1106274743229N01129333EA0141301512098000
B1106314743225N01129241EA0141901520097000
B1106354743283N01129204EA0143001528093000
B1106394743329N01129275EA0144301536092000
K110639254008
B1106434743300N01129362EA0145301552092000
B1106474743237N01129354EA0146101552102000
B1106514743233N01129262EA0146901568088000
B1106554743295N01129241EA0147701576096000
B1106594743329N01129320EA0149401592102000
K110659302003
B1107034743295N01129404EA0150401600088000
B1107074743229N01129387EA0150901600105000
B1107114743225N01129300EA0151401608088000
B1107154743287N01129270EA0151901608100000
B1107194743329N01129345EA0153901632093000
K110719274007
B1107234743308N01129429EA0154701648092000
B1107274743245N01129445EA0154901648089000
B1107314743204N01129379EA0155801656096000
B1107354743237N01129308EA0156001664095000
B1107394743300N01129337EA0156801664104000
K110739288008
B1107434743325N01129429EA0158501680097000
B1107474743295N01129512EA0159801696094000
B1107514743229N01129516EA0160201704089000
B1107554743200N01129433EA0160501704096000
B1107594743241N01129375EA0161401712103000
K110759292007
B1108034743300N01129412EA0162901728086000
B1108074743300N01129500EA0164201744081000
B1108114743241N01129537EA0164901752086000
B1108154743195N01129479EA0165301752087000
B1108194743216N01129408EA0165601760095000
K110819294008
B1108234743283N01129412EA0167201776092000
B1108274743325N01129470EA0168601784083000
B1108314743316N01129562EA0169001792088000
B1108354743262N01129612EA0169901800091000
B1108394743212N01129562EA0170701808085000
K110839300009
B1108434743225N01129475EA0171201808088000
B1108474743279N01129458EA0172201824088000
B1108514743308N01129537EA0173201832086000
B1108554743275N01129616EA0173901840089000
B1108594743208N01129604EA0174801848086000
K110859312007
B1109034743191N01129525EA0175301848085000
B1109074743229N01129458EA0176401864091000
B1109114743283N01129487EA0177701872097000
B1109154743295N01129575EA0179201888083000
B1109194743250N01129637EA0179401896087000
K110919310005
B1109234743195N01129612EA0180201896088000
B1109274743187N01129525EA0181001912087000
B1109314743241N01129487EA0182001920093000
B1109354743291N01129545EA0183901936084000
B1109394743283N01129633EA0184201944088000
K110939284006
B1109434743225N01129675EA0184701944100000
B1109474743175N01129620EA0186501960088000
B1109514743183N01129537EA0187101968089000
B1109554743241N01129512EA0188401984087000
B1109594743279N01129579EA0189902000085000
K110959292004
B1110034743254N01129662EA0190202008087000
B1110074743191N01129666EA0191002008096000
B1110114743170N01129579EA0192702032083000
B1110154743212N01129525EA0194002040087000
B1110194743266N01129562EA0195102056086000
K111019308001
B1110234743275N01129654EA0195802064081000
B1110274743225N01129708EA0196002056096000
B1110314743175N01129654EA0197902080090000
B1110354743175N01129570EA0199002096089000
B1110394743225N01129525EA0200002104085000
K111039230003
B1110434743275N01129575EA0201302112088000
B1110474743270N01129662EA0201502120085000
B1110514743212N01129700EA0201402120097000
B1110554743170N01129641EA0202602128088000
B1110594743183N01129558EA0203102136094000
K111059228004
B1111034743245N01129537EA0204502152091000
B1111074743291N01129600EA0205302160085000
B1111114743270N01129687EA0205302160088000
B1111154743208N01129712EA0205702160086000
B1111194743170N01129650EA0206902176089000
K111119222004
B1111234743170N01129566EA0207902184083000
B1111274743212N01129508EA0208202184090000
B1111314743270N01129541EA0209402200084000
B1111354743275N01129633EA0209502200092000
B1111394743220N01129687EA0210002208096000
K111139276006
B1111434743175N01129633EA0211202216091000
B1111474743187N01129550EA0212002232088000
B1111514743245N01129533EA0212802232093000
B1111554743283N01129616EA0213602240094000
B1111594743262N01129708EA0214202248088000
K111159286008
B1112034743200N01129712EA0215102256093000
B1112074743175N01129637EA0216402272096000
B1112114743208N01129566EA0217302280094000
B1112154743266N01129583EA0218402288094000
B1112194743283N01129679EA0218802296091000
K111219276005
B1112234743237N01129745EA0218702296101000
B1112274743183N01129704EA0219902304100000
B1112314743187N01129608EA0221002320097000
B1112354743241N01129570EA0221902328092000
B1112394743295N01129629EA0223102336102000
K111239226003
B1112434743295N01129729EA0223702344094000
B1112474743250N01129787EA0223802352084000
B1112514743200N01129741EA0224102352098000
B1112554743195N01129654EA0225402368091000
B1112594743233N01129575EA0225602368093000
K111259226008
B1113034743300N01129570EA0227002384090000
B1113074743341N01129645EA0228102392091000
B1113114743333N01129737EA0228202400094000
B1113154743279N01129775EA0227502392093000
B1113194743229N01129733EA0227602392090000
K111319214009
B1113234743233N01129650EA0227702392088000
B1113274743275N01129583EA0228302400086000
B1113314743337N01129541EA0229402408093000
B1113354743404N01129529EA0228702408089000
B1113394743454N01129600EA0227602384101000
K111339206007
B1113434743454N01129708EA0227602392103000
B1113474743433N01129808EA0227702392114000
B1113514743412N01129916EA0226302376112000
B1113554743391N01130033EA0225102368120000
B1113594743370N01130158EA0224802360125000
K111359186005
B1114034743345N01130275EA0225002360122000
B1114074743325N01130400EA0224202360120000
B1114114743304N01130520EA0224302360123000
B1114154743279N01130645EA0223802352127000
B1114194743250N01130779EA0223202344134000
K111419186005
B1114234743225N01130916EA0222202336135000
B1114274743200N01131054EA0221402328136000
B1114314743170N01131195EA0220602320141000
B1114354743145N01131337EA0220002312136000
B1114394743120N01131483EA0219502312144000
K111439248008
B1114434743095N01131625EA0218602304143000
B1114474743066N01131766EA0217802296141000
B1114514743037N01131908EA0217002288139000
B1114554743012N01132050EA0216102272139000
B1114594742991N01132187EA0215702272139000
K111459230014
B1115034742966N01132329EA0215502272141000
B1115074742945N01132466EA0215002264137000
B1115114742925N01132604EA0214302256139000
B1115154742912N01132745EA0213802256139000
B1115194742904N01132887EA0212702240143000
K111519216013
B1115234742895N01133029EA0211902232140000
B1115274742887N01133175EA0210602224143000
B1115314742870N01133316EA0210202216144000
B1115354742850N01133454EA0210002216142000
B1115394742829N01133587EA0209702216139000
K111539196024
B1115434742804N01133716EA0209502208134000
B1115474742779N01133845EA0209202208133000
B1115514742758N01133975EA0208802200134000
B1115554742733N01134104EA0208302200136000
B1115594742708N01134233EA0207602192139000
K111559198023
B1116034742675N01134362EA0206902184141000
B1116074742645N01134495EA0206302176142000
B1116114742616N01134625EA0205802176142000
B1116154742587N01134758EA0205402168144000
B1116194742562N01134891EA0204602160144000
K111619190021
B1116234742533N01135025EA0203702152146000
B1116274742504N01135154EA0203202144145000
B1116314742475N01135287EA0202702144146000
B1116354742441N01135416EA0202402136147000
B1116394742408N01135541EA0202602144139000
K111639188026
B1116434742375N01135662EA0202302136136000
B1116474742345N01135783EA0201802136136000
B1116514742312N01135900EA0201002128138000
B1116554742279N01136016EA0200202120141000
B1116594742237N01136133EA0199402112140000
K111659190029
B1117034742200N01136250EA0198802104141000
B1117074742158N01136362EA0198102096140000
B1117114742120N01136479EA0197702096139000
B1117154742079N01136591EA0197002088140000
B1117194742037N01136704EA0196202080141000
K111719186026
B1117234741995N01136820EA0195402072141000
B1117274741958N01136933EA0194702064138000
B1117314741916N01137045EA0193802056142000
B1117354741875N01137162EA0193002048141000
B1117394741833N01137279EA0192902040135000
K111739186024
B1117434741787N01137391EA0192902040133000
B1117474741741N01137500EA0192802040136000
B1117514741700N01137608EA0191802032139000
B1117554741654N01137716EA0190202016135000
B1117594741612N01137825EA0189202000133000
K111759192022
B1118034741562N01137925EA0189002000132000
B1118074741512N01138029EA0189202000126000
B1118114741470N01138137EA0188802000125000
B1118154741429N01138245EA0189202008123000
B1118194741387N01138354EA0188201992129000
K111819194011
B1118234741350N01138458EA0188001992118000
B1118274741316N01138562EA0187201984118000
B1118314741275N01138666EA0186101968124000
B1118354741229N01138766EA0186101968119000
B1118394741183N01138866EA0187001976116000
K111839216015
B1118434741141N01138962EA0187701984106000
B1118474741104N01139054EA0189202000100000
B1118514741058N01139133EA0190602016092000
B1118554740995N01139150EA0191802032087000
B1118594740958N01139087EA0193002040091000
K111859216015
B1119034740987N01139008EA0194202048087000
B1119074741050N01139033EA0195802072095000
B1119114741066N01139125EA0197802096087000
B1119154741025N01139187EA0198502096085000
B1119194740970N01139158EA0199202104091000
K111919248008
B1119234740966N01139070EA0200802120092000
B1119274741020N01139041EA0201702128094000
B1119314741062N01139120EA0203202144092000
B1119354741033N01139208EA0204602160083000
B1119394740975N01139220EA0205002160085000
K111939292009
B1119434740941N01139150EA0206202176089000
B1119474740970N01139075EA0207202184093000
B1119514741033N01139108EA0208302192093000
B1119554741041N01139200EA0209602208091000
B1119594740991N01139266EA0210202216091000
K111959278006
B1120034740937N01139225EA0211002224092000
B1120074740941N01139133EA0212502232093000
B1120114741004N01139120EA0213702248095000
B1120154741029N01139208EA0214902264089000
B1120194740987N01139283EA0216102272086000
K112019286007
B1120234740925N01139266EA0217502288088000
B1120274740916N01139175EA0218302296087000
B1120314740970N01139129EA0219602304094000
B1120354741016N01139187EA0221102320089000
B1120394740987N01139275EA0221902336086000
K112039284006
B1120434740925N01139262EA0222902344097000
B1120474740916N01139166EA0224202352089000
B1120514740970N01139120EA0225102368095000
B1120554741020N01139183EA0226702384093000
B1120594740995N01139275EA0227502392090000
K112059242002
B1121034740929N01139266EA0228602400092000
B1121074740916N01139179EA0230202416083000
B1121114740966N01139129EA0231502432090000
B1121154741016N01139187EA0232402440092000
B1121194740995N01139279EA0233302448089000
K112119340004
B1121234740933N01139283EA0234702464086000
B1121274740920N01139195EA0235502472092000
B1121314740979N01139150EA0236802488093000
B1121354741025N01139212EA0237702496092000
B1121394740995N01139304EA0238202496092000
K112139314004
B1121434740933N01139300EA0239502512090000
B1121474740920N01139212EA0240002512092000
B1121514740979N01139166EA0241202520096000
B1121554741029N01139225EA0242602536088000
B1121594741016N01139316EA0242902536089000
K112159268003
B1122034740954N01139341EA0243602544088000
B1122074740925N01139270EA0244602560083000
B1122114740958N01139195EA0244502552093000
B1122154741025N01139216EA0245702568091000
B1122194741037N01139308EA0246802584086000
K112219272003
B1122234741008N01139395EA0247102584091000
B1122274740979N01139479EA0247102584085000
B1122314740945N01139575EA0246202576103000
B1122354740904N01139679EA0245902576114000
B1122394740862N01139783EA0245902568118000
K112239270003
B1122434740816N01139887EA0245602568117000
B1122474740770N01139987EA0245002568120000
B1122514740720N01140087EA0244802560124000
B1122554740675N01140191EA0243502552127000
B1122594740625N01140300EA0243102544125000
K112259238005
B1123034740579N01140408EA0242902544120000
B1123074740529N01140516EA0241902536120000
B1123114740487N01140633EA0241102528125000
B1123154740445N01140750EA0240602520127000
B1123194740404N01140870EA0240202520128000
K112319230012
B1123234740366N01140983EA0240202520127000
B1123274740333N01141100EA0240002520126000
B1123314740287N01141208EA0240002520124000
B1123354740229N01141295EA0239802512125000
B1123394740166N01141375EA0239302512124000
K112339228013
B1123434740100N01141454EA0239102504126000
B1123474740037N01141529EA0238602504127000
B1123514739966N01141595EA0238302504126000
B1123554739895N01141662EA0238302504125000
B1123594739829N01141725EA0238202504128000
K112359228031
B1124034739762N01141791EA0237802496124000
B1124074739695N01141854EA0237602496120000
B1124114739629N01141925EA0236702488124000
B1124154739562N01141995EA0236202480129000
B1124194739491N01142066EA0236002472127000
K112419224022
B1124234739420N01142141EA0235802472120000
B1124274739350N01142216EA0235402472125000
B1124314739279N01142300EA0235402464127000
B1124354739208N01142375EA0236602480115000
B1124394739141N01142450EA0237502496115000
K112439252015
B1124434739079N01142525EA0238902504107000
B1124474739025N01142595EA0239802520100000
B1124514738966N01142641EA0239802520093000
B1124554738912N01142695EA0238002504102000
B1124594738866N01142791EA0236202480112000
K112459248017
B1125034738837N01142912EA0235102472120000
B1125074738812N01143041EA0234202456129000
B1125114738795N01143179EA0233402448137000
B1125154738783N01143316EA0232502440133000
B1125194738770N01143454EA0231502432121000
K112519276010
B1125234738762N01143595EA0230802424133000
B1125274738754N01143733EA0231102424128000
B1125314738745N01143866EA0230802424121000
B1125354738733N01144000EA0229902416127000
B1125394738720N01144133EA0229402416124000
K112539230015
B1125434738708N01144266EA0228902408122000
B1125474738704N01144400EA0228202400126000
B1125514738695N01144533EA0227702400128000
B1125554738683N01144670EA0226402384131000
B1125594738670N01144804EA0225602376131000
K112559222014
B1126034738662N01144941EA0225002368129000
B1126074738650N01145075EA0224602368134000
B1126114738637N01145208EA0223902360131000
B1126154738625N01145341EA0223002352132000
B1126194738612N01145470EA0221902336133000
K112619204017
B1126234738595N01145608EA0220902328134000
B1126274738587N01145745EA0219802320137000
B1126314738575N01145883EA0219002312138000
B1126354738562N01146020EA0218302304138000
B1126394738541N01146154EA0217802296140000
K112639196018
B1126434738525N01146287EA0217302288134000
B1126474738495N01146412EA0216602288130000
B1126514738462N01146533EA0215802280129000
B1126554738429N01146650EA0215602272129000
B1126594738391N01146766EA0215602272138000
K112659198026
B1127034738354N01146875EA0217202288118000
B1127074738316N01146975EA0219202312109000
B1127114738283N01147066EA0221002328092000
B1127154738241N01147145EA0222502344102000
B1127194738179N01147162EA0224702368090000
K112719200026
B1127234738145N01147091EA0225602376099000
B1127274738187N01147020EA0226102384101000
B1127314738250N01147062EA0227602400089000
B1127354738258N01147162EA0229802424089000
B1127394738204N01147204EA0232102448089000
K112739244014
B1127434738166N01147137EA0232602448097000
B1127474738216N01147070EA0233602464096000
B1127514738275N01147125EA0235202480097000
B1127554738258N01147220EA0236702488096000
B1127594738195N01147220EA0238302512097000
K112759238011
B1128034738183N01147133EA0239502520092000
B1128074738245N01147100EA0240702528097000
B1128114738291N01147170EA0242202544089000
B1128154738266N01147262EA0243002552101000
B1128194738204N01147262EA0245002568096000
K112819278005
B1128234738200N01147170EA0246102576093000
B1128274738262N01147141EA0247702592102000
B1128314738320N01147204EA0249402608096000
B1128354738312N01147304EA0250202616094000
B1128394738254N01147329EA0251802640092000
K112839262007
B1128434738220N01147258EA0253402648089000
B1128474738266N01147195EA0254702664095000
B1128514738329N01147241EA0256302680097000
B1128554738316N01147341EA0257602696095000
B1128594738254N01147341EA0258902704100000
K112859246008
B1129034738245N01147254EA0260602720100000
B1129074738312N01147229EA0262402744100000
B1129114738350N01147312EA0263502752096000
B1129154738308N01147383EA0264702768098000
B1129194738254N01147341EA0266002776096000
K112919222008
B1129234738275N01147250EA0267502792099000
B1129274738345N01147270EA0269102808098000
B1129314738358N01147362EA0270402824094000
B1129354738304N01147408EA0271202832097000
B1129394738262N01147345EA0272402848095000
K112939210008
B1129434738295N01147262EA0273602856096000
B1129474738366N01147283EA0274802864101000
B1129514738387N01147383EA0275702880097000
B1129554738333N01147437EA0276102880095000
B1129594738275N01147404EA0277402896094000
K112959218009
B1130034738229N01147350EA0279502920090000
B1130074738216N01147266EA0280402928091000
B1130114738266N01147200EA0280702936094000
B1130154738337N01147220EA0281802944085000
B1130194738375N01147304EA0282002944086000
K113019212012
B1130234738354N01147400EA0281702944096000
B1130274738291N01147429EA0283502960088000
B1130314738250N01147379EA0285002976081000
B1130354738254N01147295EA0284902976088000
B1130394738312N01147245EA0285902984081000
K113039214009
B1130434738370N01147254EA0286802992068010
B1130474738420N01147308EA0285702984079000
B1130514738450N01147400EA0285402984081000
B1130554738437N01147491EA0285702984079000
B1130594738391N01147529EA0286302992080000
K113059218011
B1131034738350N01147487EA0287003000079000
B1131074738358N01147408EA0287703008079000
B1131114738416N01147375EA0287603008078000
B1131154738470N01147429EA0286903000083000
B1131194738479N01147529EA0286202992093000
K113119208012
B1131234738458N01147625EA0285902992098000
B1131274738429N01147716EA0286803000100000
B1131314738395N01147800EA0287203008093000
B1131354738358N01147883EA0287203008096000
B1131394738320N01147975EA0286403000103000
K113139200011
B1131434738283N01148070EA0285602992115000
B1131474738245N01148170EA0285302984115000
B1131514738208N01148279EA0284902984117000
B1131554738175N01148391EA0284402984119000
B1131594738137N01148504EA0283602968116000
K113159204009
B1132034738095N01148612EA0282102960118000
B1132074738062N01148733EA0281002944124000
B1132114738020N01148850EA0280202936122000
B1132154737975N01148962EA0279202928125000
B1132194737925N01149070EA0278402920128000
K113219214018
B1132234737875N01149183EA0278102912129000
B1132274737820N01149291EA0277502912130000
B1132314737770N01149404EA0277302904133000
B1132354737720N01149516EA0277102904128000
B1132394737666N01149629EA0277102904138000
K113239212016
B1132434737616N01149741EA0276202896132000
B1132474737562N01149854EA0275302888132000
B1132514737508N01149966EA0274102872131000
B1132554737462N01150083EA0272902864136000
B1132594737408N01150204EA0271702848135000
K113259216017
B1133034737358N01150320EA0271102840137000
B1133074737300N01150437EA0270602840139000
B1133114737245N01150545EA0269702832137000
B1133154737187N01150654EA0268502816144000
B1133194737129N01150758EA0267502808139000
K113319216030
B1133234737070N01150862EA0267002800138000
B1133274737012N01150966EA0266702800135000
B1133314736954N01151062EA0268802816129000
B1133354736908N01151150EA0271602848113000
B1133394736870N01151237EA0273102864104000
K113339216032
B1133434736833N01151325EA0273302872106000
B1133474736795N01151420EA0273002864114000
B1133514736758N01151520EA0273002864114000
B1133554736720N01151625EA0273202864113000
B1133594736683N01151733EA0273102864121000
K113359200011
B1134034736645N01151841EA0272902864118000
B1134074736612N01151954EA0272402856124000
B1134114736575N01152070EA0272202856125000
B1134154736541N01152195EA0271902848127000
B1134194736508N01152316EA0271902848126000
K113419202005
B1134234736470N01152441EA0271102840124000
B1134274736437N01152570EA0270302832134000
B1134314736395N01152700EA0269402824129000
B1134354736358N01152829EA0268502816132000
B1134394736320N01152962EA0267802808130000
K113439240008
B1134434736304N01153100EA0267702808128000
B1134474736312N01153237EA0267102800132000
B1134514736329N01153379EA0265502784132000
B1134554736341N01153520EA0263502760133000
B1134594736350N01153670EA0262302752136000
K113459240008
B1135034736358N01153816EA0262102752133000
B1135074736366N01153958EA0262002752126000
B1135114736379N01154091EA0260902736128000
B1135154736383N01154229EA0259602728130000
B1135194736383N01154366EA0258702712133000
K113519216017
B1135234736370N01154504EA0258802712131000
B1135274736350N01154637EA0259202720129000
B1135314736320N01154762EA0259702728112000
B1135354736291N01154883EA0259202720124000
B1135394736262N01155012EA0258902720124000
K113539214019
B1135434736225N01155137EA0258802720132000
B1135474736187N01155262EA0259302720129000
B1135514736162N01155383EA0260502736123000
B1135554736141N01155508EA0261202744115000
B1135594736116N01155625EA0260502736117000
K113559224014
B1136034736095N01155745EA0259502728120000
B1136074736075N01155866EA0258302712122000
B1136114736050N01155991EA0257102704123000
B1136154736037N01156116EA0255802688120000
B1136194736029N01156250EA0254902680124000
K113619248005
B1136234736020N01156375EA0255202680127000
B1136274736012N01156500EA0256602696126000
B1136314736012N01156616EA0258002712104000
B1136354736012N01156729EA0257302704108000
B1136394736016N01156841EA0257002704114000
K113639202010
B1136434736025N01156950EA0257302704104000
B1136474736033N01157062EA0256702696113000
B1136514736041N01157179EA0256202696122000
B1136554736050N01157304EA0257302704126000
B1136594736058N01157420EA0260502736108000
K113659186008
B1137034736070N01157516EA0261702752090000
B1137074736083N01157612EA0262402760093000
B1137114736095N01157712EA0263002760099000
B1137154736116N01157816EA0263402768104000
B1137194736133N01157920EA0263402768115000
K113719180012
B1137234736150N01158029EA0263802776107000
B1137274736166N01158133EA0263502768114000
B1137314736183N01158241EA0263702768109000
B1137354736204N01158354EA0264302776111000
B1137394736216N01158470EA0264702784110000
K113739166008
B1137434736225N01158591EA0264602784121000
B1137474736233N01158712EA0264402776123000
B1137514736241N01158829EA0264102776110000
B1137554736254N01158950EA0263502768118000
B1137594736262N01159070EA0264802784121000
K113759172008
B1138034736275N01159191EA0266202800123000
B1138074736287N01159308EA0266702800120000
B1138114736295N01159425EA0267302808114000
B1138154736295N01159541EA0268502816117000
B1138194736304N01159662EA0269102824112000
K113819176016
B1138234736312N01159787EA0268802824116000
B1138274736320N01159916EA0268102816117000
B1138314736329N01200050EA0268402816132000
B1138354736341N01200175EA0267102808122000
B1138394736350N01200300EA0266802800115000
K113839182017
B1138434736354N01200425EA0266602800121000
B1138474736358N01200554EA0266302792126000
B1138514736354N01200683EA0266302800123000
B1138554736354N01200812EA0265902792124000
B1138594736350N01200941EA0264802784127000
K113859192009
B1139034736345N01201079EA0263102760129000
B1139074736345N01201220EA0262602760132000
B1139114736358N01201358EA0261902752130000
B1139154736366N01201500EA0261802752131000
B1139194736375N01201637EA0261402744126000
K113919202015
B1139234736370N01201775EA0261402744136000
B1139274736358N01201908EA0261502744137000
B1139314736341N01202037EA0260902744130000
B1139354736329N01202158EA0260002736129000
B1139394736316N01202287EA0259202728130000
K113939186019
B1139434736304N01202412EA0258202712129000
B1139474736287N01202537EA0258002712129000
B1139514736266N01202662EA0258002712122000
B1139554736245N01202791EA0258402720120000
B1139594736229N01202920EA0259302728125000
K113959188007
B1140034736212N01203041EA0260402736117000
B1140074736191N01203158EA0260902736118000
B1140114736175N01203270EA0261902752111000
B1140154736162N01203379EA0262702760107000
B1140194736150N01203487EA0263002760105000
K114019202010
B1140234736129N01203591EA0263102768108000
B1140274736104N01203700EA0263202768110000
B1140314736083N01203812EA0262802760111000
B1140354736054N01203925EA0262402760111000
B1140394736020N01204041EA0261502752124000
K114039210005
B1140434735983N01204158EA0259702728122000
B1140474735945N01204283EA0258202712126000
B1140514735908N01204416EA0257502704131000
B1140554735875N01204550EA0257502704134000
B1140594735837N01204679EA0258802712127000
K114059246007
B1141034735808N01204804EA0259402720123000
B1141074735779N01204925EA0259102720117000
B1141114735750N01205045EA0258402712120000
B1141154735716N01205175EA0257702704125000
B1141194735679N01205300EA0257302704126000
K114119232016
B1141234735641N01205420EA0257502704125000
B1141274735604N01205537EA0257302704127000
B1141314735566N01205658EA0257202704124000
B1141354735533N01205779EA0256902696122000
