AZANG24 ZANDER GP940 V1.25
HFDTE080604
HFFXA050
HFPLT Pilot             :Mathias Schunk                          
HFGTY Glider type       :LS 8-18                                 
HFGID Glider ID         :D-2366(PM)
HFDTM100 GPS Datum      :WGS84
HFRFW Firmware Version  :1.25
HFRHW Hardware version  :A
HFFTY FR Type           :ZANDER GP940
HFGPS                   :Motorola,VP ONCORE,8,30000
HFPRS Press Alt Sensor  :Motorola,MPX100A,10000
HFCCL Competition Class :18 Meter                                
HFCID Competition ID    :PM        
I023638IAS3941ENL
J020810WDI1113WVE
LZAN 074857 PowerOn
C070604073934070604000103
C4749716N01127900E KOENIGSDORF 
C4749700N01128200E KDF END 28  
C4617533N01432066E GRINTAVEC   
C4635416N00840650E UNTERALP    
C4754750N01127516E PUPPLINGERAU
C4749700N01128200E KDF END 28  
C4749716N01127900E KOENIGSDORF 
B0749014749762N01128050EV0048400000017000
B0749054749762N01128050EV0048400000017000
B0749094749762N01128050EV0048400000017000
B0749134749762N01128050EV0048300000017000
B0749174749762N01128050EV0048300000017000
B0749214749762N01128050EV0048200000015000
B0749254749762N01128050EV0048100000018000
B0749294749762N01128050EV0048100000017000
B0749334749762N01128050EV0048100000014000
B0749374749762N01128050EV0048100000017000
B0749414749666N01128275EA0048100000015000
B0749454749616N01128287EA0048200000015000
B0749494749616N01128287EA0048200000015000
B0749534749616N01128287EA0048200000018000
B0749574749620N01128291EA0048200000000000
B0750014749620N01128291EA0048100000000000
C080604075001080604000100
C4749716N01127900E KOENIGSDORF 
C4623166N01418650E @BOJE 132507
C4631816N00928133E B.PIZGRISCH 
C4749700N01128200E KDF END 28  
B0750054749620N01128291EA0048200000000000
B0750094749679N01128279EA0048200616000000
B0750134749679N01128279EA0048200616000000
B0750174749679N01128279EA0048200616000000
B0750214749679N01128279EA0048200616000000
B0750254749679N01128279EA0048200616000000
B0750294749679N01128279EA0048200616000000
B0750334749679N01128275EA0048200616000000
B0750374749679N01128275EA0048200616000000
B0750414749679N01128275EA0048200616000000
B0750454749679N01128275EA0048200616000000
B0750494749679N01128275EA0048300616000000
B0750534749679N01128275EA0048200616000000
B0750574749679N01128275EA0048200616000000
B0751014749679N01128275EA0048300616000000
B0751054749679N01128275EA0048200616000000
B0751094749679N01128275EA0048200616000000
B0751134749679N01128275EA0048200616000000
B0751174749679N01128275EA0048200616000000
B0751214749679N01128275EA0048200616000000
B0751254749679N01128275EA0048300616000000
B0751294749679N01128275EA0048300616000000
B0751334749679N01128275EA0048300616000000
B0751374749679N01128275EA0048300616000000
B0751414749679N01128275EA0048300616000000
B0751454749679N01128275EA0048200616000000
B0751494749679N01128275EA0048300616000000
B0751534749679N01128275EA0048300616000000
B0751574749679N01128275EA0048300616007000
B0752014749679N01128275EA0048300616007000
B0752054749679N01128275EA0048300616000000
B0752094749679N01128275EA0048300616000000
B0752134749679N01128275EA0048200616000000
B0752174749679N01128275EA0048200616000000
B0752214749679N01128275EA0048200616000000
B0752254749679N01128275EA0048200616000000
B0752294749679N01128275EA0048300616000000
B0752334749679N01128275EA0048200616000000
B0752374749679N01128275EA0048200616000000
B0752414749679N01128275EA0048200616000000
B0752454749679N01128275EA0048200616000000
B0752494749679N01128275EA0048200616000000
B0752534749679N01128275EA0048200616000000
B0752574749679N01128275EA0048200616000000
B0753014749679N01128275EA0048200616000000
B0753054749679N01128275EA0048200616000000
B0753094749679N01128275EA0048200616000000
B0753134749679N01128275EA0048200616000000
B0753174749675N01128275EA0048200616000000
B0753214749675N01128275EA0048100616000000
B0753254749675N01128275EA0048100616000000
B0753294749675N01128275EA0048100616000000
B0753334749675N01128275EA0048200616000000
B0753374749679N01128275EA0048200616000000
B0753414749675N01128275EA0048200616000000
B0753454749675N01128275EA0048100616000000
B0753494749675N01128275EA0048100616000000
B0753534749675N01128275EA0048100616000000
B0753574749675N01128275EA0048100616000000
B0754014749675N01128275EA0048100616000000
B0754054749675N01128275EA0048100616000000
B0754094749675N01128275EA0048200616007000
B0754134749675N01128275EA0048100616000000
B0754174749675N01128275EA0048000616000000
B0754214749675N01128275EA0048000616000000
B0754254749675N01128275EA0048000616000000
B0754294749675N01128275EA0048000616000000
B0754334749675N01128275EA0048000616000000
B0754374749675N01128275EA0048000616000000
B0754414749675N01128275EA0048100616000000
B0754454749675N01128275EA0048100616000000
B0754494749675N01128275EA0048100616000000
B0754534749675N01128275EA0048000616000000
B0754574749675N01128275EA0048000616000000
B0755014749675N01128275EA0048100616000000
B0755054749675N01128275EA0048000616000000
B0755094749675N01128275EA0048000616000000
B0755134749675N01128275EA0048000616000000
B0755174749675N01128275EA0048000616000000
B0755214749675N01128275EA0048000616000000
B0755254749675N01128275EA0048000616000000
B0755294749675N01128275EA0048000616000000
B0755334749675N01128275EA0048000616000000
B0755374749675N01128275EA0048000616000000
B0755414749675N01128275EA0048000616000000
B0755454749675N01128275EA0048000616000000
B0755494749675N01128275EA0048000616000000
B0755534749675N01128275EA0048000616000000
B0755574749675N01128275EA0048000616000000
B0756014749675N01128275EA0048000616000000
B0756054749675N01128275EA0048000616000000
B0756094749675N01128275EA0048000616000000
B0756134749675N01128275EA0048000616000000
B0756174749675N01128275EA0048000616000000
B0756214749675N01128275EA0048000616000000
B0756254749675N01128275EA0048000616000000
B0756294749675N01128275EA0048000616007000
B0756334749675N01128275EA0048000616000000
B0756374749675N01128275EA0048000616000000
B0756414749675N01128275EA0048000616000000
B0756454749675N01128275EA0048000616000000
B0756494749675N01128275EA0048000616000000
B0756534749675N01128275EA0048000616000000
B0756574749675N01128275EA0048000616000000
C080604075657080604000103
C4749716N01127900E KOENIGSDORF 
C4749700N01128200E KDF END 28  
C4617533N01432066E GRINTAVEC   
C4635416N00840650E UNTERALP    
C4754750N01127516E PUPPLINGERAU
C4749700N01128200E KDF END 28  
C4749716N01127900E KOENIGSDORF 
B0757014749675N01128275EA0048000616000000
B0757024749675N01128275EA0048000616000000
B0757034749675N01128275EA0048000616000000
B0757044749675N01128275EA0048000616000000
B0757054749675N01128275EA0048000616000000
B0757064749675N01128275EA0048000616000000
B0757074749675N01128275EA0048000616000000
B0757084749675N01128275EA0048000616000000
B0757094749675N01128275EA0048000616000000
B0757104749675N01128275EA0048000616000000
B0757134749675N01128275EA0048000616000000
B0757174749675N01128275EA0048000616000000
B0757214749675N01128275EA0048000616007000
B0757254749675N01128275EA0048000616000000
B0757294749675N01128275EA0048000616000000
B0757334749675N01128275EA0048000608000000
B0757374749675N01128275EA0048000608000000
B0757414749675N01128275EA0048000608000000
B0757454749675N01128275EA0048000608000000
B0757494749675N01128275EA0048000608000000
B0757534749675N01128275EA0048100608000000
B0757574749675N01128275EA0048100608000000
B0758014749675N01128275EA0048000608007000
B0758054749675N01128275EA0048000608000000
B0758094749675N01128275EA0048000608000000
B0758134749675N01128275EA0048000608007000
B0758174749675N01128275EA0048000608007000
B0758214749675N01128275EA0048000608007000
B0758254749675N01128275EA0048000608000000
B0758294749675N01128275EA0048000608007000
B0758334749675N01128275EA0048000608007000
B0758374749675N01128275EA0048000608000000
B0758414749675N01128275EA0048000608007000
B0758454749675N01128275EA0048000608000000
B0758494749675N01128275EA0048000608000000
B0758534749675N01128275EA0048000608007000
B0758574749675N01128275EA0048000608007000
B0759014749675N01128275EA0048000608000000
B0759054749675N01128275EA0048000608000000
B0759094749675N01128275EA0048000608000000
B0759134749675N01128275EA0047900616007000
B0759174749675N01128275EA0047900616000000
B0759214749675N01128275EA0047900616007000
B0759254749675N01128275EA0047900616000000
B0759294749675N01128275EA0047900616000000
B0759334749675N01128275EA0048000616000000
B0759374749675N01128275EA0047900616000000
B0759414749675N01128275EA0048000616000000
B0759454749675N01128275EA0047900616007000
B0759494749675N01128275EA0047900616000000
B0759534749675N01128275EA0047900616000000
B0759574749675N01128275EA0047900616000000
B0800014749675N01128279EA0048000608000000
B0800054749675N01128279EA0047900608000000
B0800094749675N01128279EA0048000608000000
B0800134749675N01128279EA0048000608000000
B0800174749675N01128279EA0048000608000000
B0800214749675N01128279EA0048000608000000
B0800254749675N01128279EA0048000608000000
B0800294749675N01128279EA0047900608000000
B0800334749675N01128279EA0048000608000000
B0800374749675N01128279EA0048000608000000
B0800414749675N01128279EA0047900608000000
B0800454749675N01128279EA0048000608000000
B0800494749675N01128279EA0048000608000000
B0800534749675N01128279EA0048000608000000
B0800574749675N01128279EA0048000608000000
B0801014749675N01128279EA0047900608000000
B0801054749675N01128279EA0047800608000000
B0801094749675N01128275EA0047800616000000
B0801134749679N01128275EA0047800616000000
B0801174749679N01128275EA0047900616000000
B0801214749679N01128275EA0047900616000000
B0801254749679N01128275EA0047900616000000
B0801294749679N01128275EA0047900616000000
B0801334749679N01128275EA0047900616000000
B0801374749679N01128275EA0047900616000000
B0801414749679N01128275EA0047900616000000
B0801454749679N01128275EA0048000616000000
B0801494749675N01128275EA0047900616000000
B0801534749675N01128275EA0047900616000000
B0801574749675N01128275EA0047900616000000
B0802014749675N01128275EA0047900616000000
B0802054749675N01128275EA0048000616000000
B0802094749675N01128275EA0048000616000000
B0802134749675N01128275EA0048000616000000
B0802174749675N01128275EA0047900616000000
B0802214749675N01128275EA0047900616000000
B0802254749675N01128275EA0048000616000000
B0802294749675N01128275EA0047900616000000
B0802334749675N01128275EA0047900616000000
B0802374749675N01128275EA0047900616000000
B0802414749675N01128275EA0047900616000000
B0802454749675N01128275EA0048000616000000
B0802494749675N01128275EA0048000616000000
B0802534749675N01128275EA0047900616000000
B0802574749675N01128275EA0047900616000000
B0803014749675N01128275EA0048000616000000
B0803054749675N01128275EA0048000616000000
B0803094749675N01128275EA0048000616000000
B0803134749675N01128275EA0048000616000000
B0803174749675N01128275EA0048000616000000
B0803214749675N01128275EA0048000616000000
B0803254749675N01128275EA0048000616000000
B0803294749675N01128275EA0048000616000000
B0803334749675N01128275EA0048000616000000
B0803374749675N01128275EA0048000616000000
B0803414749675N01128275EA0048000616000000
B0803454749675N01128275EA0048000616000000
B0803494749675N01128275EA0048000616000000
B0803534749675N01128275EA0048000616000000
B0803574749675N01128262EA0048000616000020
B0804014749679N01128233EA0048100616057125
K080401270006
B0804054749687N01128179EA0048300616078100
B0804094749695N01128112EA0048300616095150
B0804134749704N01128025EA0048600616096100
B0804174749716N01127925EA0048800616118100
B0804214749733N01127816EA0049600624118100
K080421332019
B0804254749750N01127708EA0049800640120010
B0804294749783N01127612EA0051500656113000
B0804334749829N01127533EA0052900672114010
B0804374749891N01127475EA0053700680116000
B0804414749962N01127441EA0054600688121100
K080441310010
B0804454750037N01127425EA0056300704118010
B0804494750112N01127408EA0057100704116010
B0804534750187N01127391EA0058000712117010
B0804574750262N01127375EA0059200728110000
B0805014750333N01127350EA0059900736115000
K080501258014
B0805054750408N01127320EA0060500744118000
B0805094750483N01127291EA0061900752125010
B0805134750558N01127262EA0063000768120010
B0805174750633N01127233EA0064300776122010
B0805214750712N01127200EA0065200792120000
K080521248010
B0805254750783N01127158EA0066200800119000
B0805294750862N01127125EA0067300808120000
B0805334750937N01127087EA0068100816122010
B0805374751016N01127054EA0070000840121010
B0805414751095N01127029EA0071000848123000
K080541228012
B0805454751170N01127000EA0072400864126010
B0805494751250N01126975EA0074200880126000
B0805534751329N01126954EA0074300888122000
B0805574751408N01126933EA0075100896124000
B0806014751487N01126912EA0076200912123000
K080601238015
B0806054751562N01126895EA0077400920122000
B0806094751641N01126879EA0078500936122000
B0806134751716N01126858EA0079300944120000
B0806174751791N01126837EA0081300952119000
B0806214751866N01126812EA0081600960122000
K080621246013
B0806254751941N01126787EA0082900968123010
B0806294752020N01126758EA0084100984123010
B0806334752095N01126720EA0085200992121000
B0806374752166N01126683EA0086601008121010
B0806414752237N01126641EA0088001024115000
K080641246007
B0806454752308N01126595EA0089001032115000
B0806494752375N01126554EA0090401048115000
B0806534752441N01126508EA0091601056118000
B0806574752508N01126462EA0092201064121000
B0807014752575N01126408EA0093001072121000
K080701258009
B0807054752645N01126358EA0094001080117000
B0807094752712N01126308EA0095101096121010
B0807134752779N01126254EA0096301112119000
B0807174752841N01126200EA0097401120119000
B0807214752904N01126145EA0098301128119000
K080721256012
B0807254752966N01126091EA0099401136117000
B0807294753020N01126029EA0100501152117000
B0807334753079N01125962EA0101601160116000
B0807374753133N01125895EA0102101168118000
B0807414753183N01125820EA0102601176120000
K080741270011
B0807454753237N01125745EA0103801184121000
B0807494753291N01125675EA0104501192121000
B0807534753341N01125595EA0105101200120000
B0807574753391N01125520EA0106001208117000
B0808014753441N01125450EA0107201224116000
K080801270013
B0808054753487N01125375EA0108101232115000
B0808094753533N01125300EA0109101240117000
B0808134753579N01125220EA0109801248116000
B0808174753625N01125145EA0110801256117000
B0808214753670N01125070EA0111301264118000
K080821274014
B0808254753720N01124991EA0112301272117010
B0808294753766N01124916EA0113401288114000
B0808334753808N01124841EA0114701304111000
B0808374753850N01124766EA0115701312114000
B0808414753895N01124687EA0116301312119000
K080841278013
B0808454753945N01124608EA0117001320122000
B0808494753995N01124525EA0117801328123000
B0808534754045N01124441EA0118701336123000
B0808574754095N01124358EA0119701352123000
B0809014754150N01124279EA0120401360122010
K080901266014
B0809054754200N01124195EA0121501368123000
B0809094754250N01124112EA0122501376123010
B0809134754300N01124029EA0123401384123010
B0809174754345N01123941EA0124201392123010
B0809214754391N01123854EA0124901408124000
K080921264012
B0809254754437N01123766EA0125901416124000
B0809294754483N01123679EA0126801424123000
B0809334754529N01123591EA0127601432122000
B0809374754575N01123504EA0128601440121000
B0809414754612N01123412EA0129401448120000
K080941256013
B0809454754650N01123320EA0130401456122000
B0809494754687N01123225EA0130801464125000
B0809534754716N01123120EA0131801472125000
B0809574754745N01123016EA0132801480125000
B0810014754766N01122908EA0133601496125000
K081001284011
B0810054754783N01122804EA0134601504125000
B0810094754795N01122691EA0135401512123000
B0810134754804N01122587EA0136601520122000
B0810174754808N01122479EA0137501536122000
B0810214754808N01122366EA0138201544122000
K081021274011
B0810254754808N01122258EA0139101552123000
B0810294754804N01122145EA0139801560123000
B0810334754795N01122037EA0140901568122000
B0810374754783N01121929EA0141701576122000
B0810414754766N01121825EA0142801592121000
K081041264011
B0810454754745N01121720EA0143601600121010
B0810494754720N01121620EA0144401608121000
B0810534754691N01121525EA0145201616120000
B0810574754654N01121429EA0146101624121000
B0811014754616N01121333EA0146801632122000
K081101274013
B0811054754575N01121241EA0147701640121000
B0811094754525N01121158EA0148601648120000
B0811134754479N01121070EA0149401656121000
B0811174754425N01120991EA0150201664121010
B0811214754370N01120916EA0151101672118000
K081121270012
B0811254754312N01120845EA0152001688116000
B0811294754250N01120787EA0152601688119000
B0811334754183N01120729EA0153201696120000
B0811374754112N01120679EA0153901704120000
B0811414754037N01120637EA0154801712119000
K081141230006
B0811454753962N01120604EA0155901720116000
B0811494753887N01120579EA0156501728117000
B0811534753804N01120566EA0156901736119000
B0811574753720N01120554EA0157701744120000
B0812014753637N01120554EA0158201744122000
K081201116004
B0812054753554N01120558EA0158901752122000
B0812094753466N01120562EA0159801760122000
B0812134753383N01120579EA0160501768122000
B0812174753300N01120604EA0161301776122000
B0812214753212N01120629EA0162401792119000
K081221036005
B0812254753133N01120654EA0163301800119000
B0812294753050N01120679EA0164001808120000
B0812334752966N01120704EA0164701816120000
B0812374752883N01120729EA0165801824118000
B0812414752804N01120762EA0166601832117000
K081241310009
B0812454752725N01120800EA0167501840117000
B0812494752645N01120845EA0167901848119000
B0812534752570N01120904EA0168601856122000
B0812574752495N01120975EA0169301864121000
B0813014752425N01121054EA0170201872120000
K081301010010
B0813054752358N01121141EA0170901880120000
B0813094752300N01121241EA0171801888122000
B0813134752245N01121350EA0172501896122000
B0813174752200N01121466EA0173401904121010
B0813214752158N01121587EA0174401912120010
K081321002017
B0813254752125N01121712EA0175001920120000
B0813294752100N01121837EA0175601928117000
B0813334752079N01121966EA0176101936115000
B0813374752062N01122100EA0176801936114000
B0813414752054N01122229EA0177301944114000
K081341330019
B0813454752050N01122362EA0177901952114000
B0813494752054N01122495EA0178601960115000
B0813534752058N01122629EA0179001960117000
B0813574752070N01122758EA0179801968116000
B0814014752087N01122891EA0180501976116000
K081401300019
B0814054752112N01123016EA0181501984115000
B0814094752141N01123141EA0182201992116000
B0814134752175N01123258EA0183002000117000
B0814174752212N01123375EA0183802008116000
B0814214752258N01123483EA0184602016116000
K081421282017
B0814254752308N01123583EA0185302024116000
B0814294752366N01123679EA0186102032117000
B0814334752429N01123758EA0186802040116000
B0814374752495N01123829EA0187502048118000
B0814414752570N01123891EA0188102056119010
K081441254011
B0814454752645N01123941EA0188802064118000
B0814494752720N01123987EA0189902072117000
B0814534752791N01124029EA0189702080116010
B0814574752862N01124083EA0190802088115000
B0815014752933N01124141EA0191502096113000
K081501274016
B0815054752995N01124212EA0192402104114000
B0815094753058N01124291EA0193002112116000
B0815134753112N01124387EA0193502120117000
B0815174753162N01124495EA0194102128118000
B0815214753204N01124608EA0194902136118000
K081521292037
B0815254753237N01124733EA0195702144118000
B0815294753254N01124866EA0196202152122000
B0815334753254N01125004EA0196502152125000
B0815374753245N01125145EA0197302160124000
B0815414753225N01125279EA0198402168121000
K081541296042
B0815454753195N01125412EA0199502184120000
B0815494753154N01125533EA0200102184121000
B0815534753104N01125650EA0200902192121000
B0815574753045N01125754EA0201602200121000
B0816014752979N01125850EA0202502208118000
K081601298040
B0816054752904N01125933EA0203102216119000
B0816094752829N01126008EA0204002224118000
B0816134752750N01126070EA0204802232119000
B0816174752666N01126129EA0205402240120000
B0816214752579N01126183EA0205902248122000
K081621288029
B0816254752491N01126229EA0206602256122000
B0816294752404N01126270EA0207402264121000
B0816334752316N01126312EA0208102272123000
B0816374752225N01126350EA0208602272123000
B0816414752133N01126379EA0209502280123000
K081641290024
B0816454752041N01126408EA0210402296122000
B0816494751950N01126437EA0210902296122000
B0816534751858N01126458EA0211702304122000
B0816574751762N01126483EA0212502312122000
B0817014751670N01126508EA0213202320121000
K081701306021
B0817054751579N01126533EA0214002328121000
B0817094751487N01126554EA0214602336121000
B0817134751395N01126575EA0215502344120000
B0817174751304N01126591EA0216102352119000
B0817214751212N01126608EA0216802360119000
K081721308022
B0817254751120N01126620EA0217302368121000
B0817294751025N01126633EA0217702368122000
B0817334750933N01126645EA0218402376121000
B0817374750841N01126662EA0219102384119000
B0817414750750N01126679EA0219602392118000
K081741316021
B0817454750658N01126695EA0220202392118000
B0817494750570N01126725EA0220702400108000
B0817534750491N01126766EA0220702400103000
B0817574750416N01126833EA0219902392105000
B0818014750350N01126908EA0219102384108000
K081801318021
B0818054750283N01126995EA0218702384109000
B0818094750225N01127095EA0217902376111000
B0818134750166N01127204EA0216402352123000
B0818174750100N01127320EA0213402312151000
B0818214750020N01127458EA0207702240188000
K081821000025
E081824PEV MARKER BUTTON PRESSED
B0818244749954N01127579EA0201902176218000
E081825PEV MARKER BUTTON PRESSED
B0818254749933N01127625EA0199602152227000
E081826PEV MARKER BUTTON PRESSED
B0818264749908N01127670EA0197402128235000
E081827PEV MARKER BUTTON PRESSED
B0818274749883N01127720EA0195502104244000
E081828PEV MARKER BUTTON PRESSED
B0818284749858N01127770EA0193402080251000
E081829PEV MARKER BUTTON PRESSED
B0818294749833N01127825EA0191202056258000
E081830PEV MARKER BUTTON PRESSED
B0818304749804N01127879EA0189302032265000
E081831PEV MARKER BUTTON PRESSED
B0818314749779N01127933EA0187302016271000
E081832PEV MARKER BUTTON PRESSED
B0818324749750N01127991EA0185902000275000
E081833PEV MARKER BUTTON PRESSED
B0818334749720N01128050EA0184401984278000
E081834PEV MARKER BUTTON PRESSED
B0818344749695N01128112EA0183101968281000
E081835PEV MARKER BUTTON PRESSED
B0818354749666N01128170EA0182101952284000
E081836PEV MARKER BUTTON PRESSED
B0818364749637N01128229EA0180901944285000
E081837PEV MARKER BUTTON PRESSED
B0818374749608N01128291EA0180201936285000
E081838PEV MARKER BUTTON PRESSED
B0818384749579N01128350EA0179801928286000
B0818394749541N01128416EA0181101944274000
B0818404749516N01128466EA0183601976256000
B0818414749495N01128512EA0187402024237000
B0818424749475N01128550EA0190702064216000
K081842020083
B0818434749454N01128587EA0193902104196000
B0818444749437N01128620EA0196702136177000
B0818454749420N01128650EA0199302160160000
B0818464749408N01128679EA0201502192143000
B0818474749391N01128704EA0203302208124000
B0818494749366N01128745EA0206002240095000
B0818534749325N01128820EA0206202240087000
B0818574749270N01128904EA0204602224102000
B0819014749216N01128995EA0203802216106000
K081901020073
B0819054749158N01129083EA0203602216106000
B0819094749095N01129170EA0202502208106000
B0819134749037N01129254EA0202202208105000
B0819174748975N01129341EA0202102208104000
B0819214748916N01129425EA0202002208103000
K081921352027
B0819254748858N01129508EA0202002208101000
B0819294748800N01129587EA0202002208098000
B0819334748745N01129662EA0202002208096000
B0819374748691N01129737EA0201902208094000
B0819414748637N01129812EA0201902208093000
K081941348024
B0819454748583N01129883EA0202002208090000
B0819494748529N01129954EA0201602200092000
B0819534748475N01130029EA0201202200093000
B0819574748420N01130100EA0200302192099000
B0820014748362N01130179EA0199902184101000
K082001354024
B0820054748300N01130254EA0199502184102000
B0820094748241N01130333EA0199202176102000
B0820134748183N01130412EA0199002176101000
B0820174748125N01130491EA0198702176102000
B0820214748062N01130570EA0198502168102000
K082021332015
B0820254748004N01130650EA0198302168101000
B0820294747945N01130729EA0198002168100000
B0820334747883N01130804EA0197502160101000
B0820374747825N01130883EA0196902160103000
B0820414747762N01130962EA0196502152105000
K082041306015
B0820454747700N01131041EA0195902144106000
B0820494747637N01131125EA0195602144107000
B0820534747575N01131208EA0195302136107000
B0820574747512N01131291EA0195102136107000
B0821014747450N01131375EA0195002136106000
K082101308016
B0821054747387N01131454EA0194802136106000
B0821094747329N01131537EA0194702136106000
B0821134747266N01131620EA0194402128106000
B0821174747204N01131704EA0194102128105000
B0821214747141N01131787EA0194002128106000
K082121298018
B0821254747079N01131870EA0193902128104000
B0821294747020N01131954EA0193702120103000
B0821334746958N01132033EA0193602120102000
B0821374746900N01132116EA0193302120101000
B0821414746841N01132195EA0192702112102000
K082141294018
B0821454746783N01132279EA0191802104105000
B0821494746725N01132370EA0190902096109000
B0821534746662N01132458EA0190402088111000
B0821574746600N01132550EA0189902080111000
B0822014746537N01132641EA0189602080109000
K082201306017
B0822054746475N01132729EA0189402080108000
B0822094746416N01132820EA0189202080107000
B0822134746354N01132908EA0189002072106000
B0822174746295N01132995EA0188802072106000
B0822214746237N01133087EA0188602072106000
K082221296020
B0822254746183N01133175EA0188402064104000
B0822294746125N01133266EA0188202064103000
B0822334746070N01133354EA0187902064103000
B0822374746016N01133445EA0187502056103000
B0822414745958N01133537EA0187102056104000
K082241298019
B0822454745904N01133629EA0186402048106000
B0822494745845N01133725EA0186002040107000
B0822534745787N01133816EA0185802040107000
B0822574745729N01133904EA0185702040106000
B0823014745675N01133995EA0185502040107000
K082301298018
B0823054745616N01134083EA0185502040105000
B0823094745558N01134166EA0185502040103000
B0823134745504N01134254EA0185402032102000
B0823174745445N01134337EA0185302032101000
B0823214745391N01134425EA0184902032102000
K082321288018
B0823254745333N01134512EA0184702032102000
B0823294745275N01134595EA0184502024101000
B0823334745220N01134683EA0184602024098000
B0823374745166N01134766EA0184302024098000
B0823414745108N01134845EA0183902024097000
K082341288021
B0823454745054N01134929EA0183202016100000
B0823494744995N01135012EA0182502008103000
B0823534744937N01135095EA0181702000105000
B0823574744875N01135183EA0181201992107000
B0824014744816N01135266EA0180801992107000
K082401294018
B0824054744754N01135350EA0180601984107000
B0824094744695N01135437EA0180301984106000
B0824134744633N01135520EA0180201984106000
B0824174744575N01135608EA0180001984106000
B0824214744516N01135700EA0179601976107000
K082421300017
B0824254744458N01135787EA0179401976107000
B0824294744400N01135875EA0179001968106000
B0824334744341N01135958EA0178201960107000
B0824374744279N01136045EA0177201952111000
B0824414744216N01136137EA0176201944116000
K082441306017
B0824454744154N01136229EA0175401936116000
B0824494744087N01136325EA0174901928116000
B0824534744025N01136416EA0174301920118000
B0824574743958N01136508EA0173801920122000
B0825014743895N01136608EA0173601920121000
K082501308017
B0825054743837N01136708EA0173801920118000
B0825094743779N01136808EA0173801920116000
B0825134743725N01136908EA0173801920113000
B0825174743670N01137008EA0173701920116000
B0825214743616N01137108EA0173701920114000
K082521310016
B0825254743562N01137208EA0173701920113000
B0825294743508N01137304EA0173601920112000
B0825334743458N01137404EA0173301912112000
B0825374743408N01137504EA0172901912114000
B0825414743358N01137608EA0172601904112000
K082541288015
B0825454743308N01137708EA0172401904109000
B0825494743262N01137808EA0171901896112000
B0825534743212N01137908EA0171601896112000
B0825574743162N01138008EA0171001888112000
B0826014743112N01138112EA0170701888111000
K082601290014
B0826054743062N01138212EA0170301880111000
B0826094743012N01138312EA0169901880111000
B0826134742958N01138412EA0169401872114000
B0826174742904N01138512EA0169101872113000
B0826214742850N01138608EA0168801864112000
K082621284016
B0826254742795N01138708EA0168501864111000
B0826294742741N01138804EA0168301864111000
B0826334742687N01138900EA0167801856113000
B0826374742629N01138995EA0167701856113000
B0826414742575N01139091EA0167701856112000
K082641278018
B0826454742516N01139183EA0168001856111000
B0826494742458N01139275EA0168301864111000
B0826534742404N01139366EA0168801864107000
B0826574742354N01139458EA0169101872108000
B0827014742300N01139541EA0170001880101000
K082701272020
B0827054742245N01139616EA0169901872098000
B0827094742191N01139691EA0169301872100000
B0827134742137N01139783EA0168401864108000
B0827174742087N01139879EA0167501856111000
B0827214742041N01139979EA0167201848111000
K082721286014
B0827254741995N01140087EA0167201848109000
B0827294741954N01140191EA0167201848107000
B0827334741916N01140295EA0167001848106000
B0827374741875N01140400EA0166401840111000
B0827414741833N01140500EA0166001840112000
K082741292013
B0827454741787N01140600EA0165501832113000
B0827494741737N01140700EA0164401824119000
B0827534741679N01140791EA0164201816117000
B0827574741620N01140875EA0164201816114000
B0828014741558N01140954EA0164601816114000
K082801258015
B0828054741512N01141054EA0164201816109000
B0828094741545N01141162EA0163301808111000
B0828134741612N01141225EA0162301800113000
B0828174741687N01141262EA0162201800120000
B0828214741770N01141287EA0161901800120000
K082821274012
B0828254741850N01141308EA0161301792122000
B0828294741933N01141316EA0160901792129000
B0828334742008N01141320EA0162801808116000
B0828374742079N01141320EA0163401808101000
B0828414742145N01141312EA0163401816105000
K082841278007
B0828454742204N01141266EA0164201816100000
B0828494742233N01141183EA0163901816103000
B0828534742237N01141087EA0163901816096000
B0828574742216N01140995EA0163701816104000
B0829014742175N01140925EA0163701816102000
K082901262014
B0829054742120N01140879EA0163101808103000
B0829094742050N01140866EA0162601800107000
B0829134741975N01140875EA0161701800112000
B0829174741904N01140900EA0161201792116000
B0829214741829N01140933EA0161201792111000
K082921262014
B0829254741758N01140970EA0161001784114000
B0829294741687N01141016EA0160301784116000
B0829334741616N01141058EA0160401784112000
B0829374741545N01141100EA0160001776113000
B0829414741475N01141150EA0159401768115000
K082941254007
B0829454741404N01141200EA0158401760122000
B0829494741329N01141254EA0157601752123000
B0829534741254N01141304EA0157201744115000
B0829574741179N01141358EA0157101752127000
B0830014741104N01141408EA0157601752121000
K083001258009
B0830054741029N01141458EA0157301752115000
B0830094740950N01141500EA0157101744120000
B0830134740875N01141541EA0158101760115000
B0830174740804N01141583EA0159301768107000
B0830214740737N01141616EA0159801768103000
K083021274012
B0830254740670N01141645EA0159901776097000
B0830294740600N01141670EA0159401768103000
B0830334740533N01141708EA0159001768104000
B0830374740466N01141754EA0158201752105000
B0830414740395N01141804EA0157301744111000
K083041292005
B0830454740329N01141858EA0157001744109000
B0830494740258N01141908EA0156501736114000
B0830534740187N01141962EA0155801728118000
B0830574740112N01142008EA0156301736117000
B0831014740041N01142050EA0156401736109000
K083101270008
B0831054739975N01142091EA0156101736109000
B0831094739900N01142125EA0155701728109000
B0831134739829N01142154EA0155401728110000
B0831174739754N01142179EA0154901720110000
B0831214739683N01142195EA0154601720108000
K083121262017
B0831254739608N01142183EA0155001720101000
B0831294739537N01142145EA0156201736106000
B0831334739475N01142112EA0157001744101000
B0831374739412N01142150EA0156501728097000
B0831414739391N01142245EA0155001720103000
K083141264012
B0831454739429N01142341EA0153901712103000
B0831494739504N01142370EA0152101688112000
B0831534739583N01142370EA0152601696122000
B0831574739633N01142441EA0154801712107000
B0832014739587N01142516EA0154800000104000
K083201264012
B0832054739525N01142470EA0155100000108000
B0832094739541N01142375EA0155200000098000
B0832134739600N01142345EA0155501720101000
B0832174739645N01142416EA0155401720097000
B0832214739625N01142516EA0155001720109000
K083221338001
B0832254739562N01142570EA0155601720107000
B0832294739525N01142504EA0155501720103000
B0832334739558N01142425EA0154501712103000
B0832374739629N01142425EA0154601712106000
B0832414739675N01142495EA0155001720098000
K083241274006
B0832454739695N01142595EA0155401720101000
B0832494739708N01142695EA0155701728099000
B0832534739687N01142795EA0155301720112000
B0832574739637N01142875EA0155201720120000
B0833014739575N01142945EA0155401720112000
K083301268005
B0833054739529N01143025EA0156601728107000
B0833094739537N01143133EA0157201744111000
B0833134739604N01143100EA0158201752110000
B0833174739579N01143004EA0159901768109000
B0833214739516N01143012EA0161101784095000
K083321272006
B0833254739491N01143104EA0161201784100000
B0833294739533N01143187EA0162601792101000
B0833334739591N01143154EA0163201800096000
B0833374739595N01143058EA0163801808106000
B0833414739537N01143016EA0164801824090000
K083341322000
B0833454739483N01143075EA0165001824101000
B0833494739491N01143175EA0165701832105000
B0833534739550N01143191EA0166501840094000
B0833574739587N01143120EA0166701840101000
B0834014739566N01143029EA0167701856100000
K083401346001
B0834054739504N01143025EA0168501856088000
B0834094739470N01143104EA0167701848100000
B0834134739495N01143204EA0167801848109000
B0834174739550N01143254EA0170001864093000
B0834214739604N01143220EA0169701864089000
K083421242001
B0834254739612N01143120EA0170101864103000
B0834294739550N01143095EA0170901880099000
B0834334739512N01143179EA0170301864098000
B0834374739550N01143275EA0171001872106000
B0834414739612N01143258EA0172201888097000
K083441294003
B0834454739625N01143166EA0173101896096000
B0834494739570N01143125EA0173701904095000
B0834534739516N01143179EA0173401896094000
B0834574739520N01143283EA0173001896106000
B0835014739587N01143308EA0173701904097000
K083501256004
B0835054739633N01143245EA0174501912101000
B0835094739625N01143154EA0175801928094000
B0835134739566N01143137EA0176001928090000
B0835174739516N01143208EA0175501928105000
B0835214739537N01143308EA0175701928100000
K083521272005
B0835254739604N01143320EA0175901928103000
B0835294739658N01143262EA0176201936111000
B0835334739700N01143187EA0177401944102000
B0835374739675N01143116EA0175701928106000
B0835414739604N01143116EA0174601920111000
K083541242010
B0835454739541N01143175EA0175001920107000
B0835494739487N01143250EA0175201920106000
B0835534739433N01143333EA0175701928105000
B0835574739387N01143425EA0175901928105000
B0836014739341N01143516EA0175501928111000
K083601280005
B0836054739295N01143612EA0174801920113000
B0836094739250N01143708EA0174201912113000
B0836134739208N01143808EA0173601912111000
B0836174739162N01143912EA0172501904116000
B0836214739120N01144020EA0171301888121000
K083621014011
B0836254739079N01144133EA0170601880120000
B0836294739037N01144254EA0169701872124000
B0836334738987N01144375EA0168501864128000
B0836374738937N01144491EA0167801856133000
B0836414738883N01144612EA0168201856128000
K083641336012
B0836454738833N01144729EA0168401864124000
B0836494738783N01144841EA0168901864124000
B0836534738733N01144958EA0169201864126000
B0836574738687N01145075EA0169601872125000
B0837014738645N01145187EA0170301880117000
K083701300013
B0837054738604N01145295EA0170301880116000
B0837094738562N01145404EA0170301880114000
B0837134738520N01145512EA0169801872117000
B0837174738483N01145625EA0169401872115000
B0837214738450N01145737EA0169001864117000
K083721284012
B0837254738416N01145854EA0168401856117000
B0837294738387N01145975EA0167601848120000
B0837334738358N01146100EA0166501840125000
B0837374738333N01146229EA0166001832124000
B0837414738308N01146354EA0165601832127000
K083741290011
B0837454738291N01146487EA0165601832131000
B0837494738275N01146616EA0166101832124000
B0837534738258N01146741EA0166401840118000
B0837574738250N01146862EA0166701840115000
B0838014738237N01146979EA0166501840111000
K083801246013
B0838054738225N01147095EA0166201832112000
B0838094738216N01147212EA0166401840110000
B0838134738208N01147329EA0166101840114000
B0838174738204N01147445EA0166401840112000
B0838214738204N01147558EA0166501840109000
K083821236010
B0838254738204N01147675EA0167101848108000
B0838294738212N01147787EA0168401856107000
B0838334738229N01147895EA0169901872105000
B0838374738241N01148004EA0170901880107000
B0838414738233N01148112EA0171701896097000
K083841228010
B0838454738183N01148183EA0172501896093000
B0838494738125N01148166EA0171501888100000
B0838534738104N01148075EA0170501880108000
B0838574738150N01147991EA0170701880112000
B0839014738220N01147958EA0171101888109000
K083901228010
B0839054738291N01147991EA0172601904106000
B0839094738316N01148087EA0173801920095000
B0839134738287N01148179EA0173501912095000
B0839174738225N01148220EA0173901920106000
B0839214738179N01148158EA0174501928093000
K083921256008
B0839254738200N01148075EA0173701920102000
B0839294738266N01148033EA0173901920106000
B0839334738333N01148062EA0175201928102000
B0839374738350N01148162EA0174301920101000
B0839414738300N01148250EA0173201912114000
K083941272010
B0839454738229N01148266EA0175001928105000
B0839494738179N01148212EA0176301944091000
B0839534738170N01148125EA0176101936098000
B0839574738212N01148054EA0176301944098000
B0840014738279N01148054EA0176801944100000
K084001266009
B0840054738325N01148125EA0177301944096000
B0840094738320N01148229EA0176801952095000
B0840134738270N01148304EA0176901952096000
B0840174738208N01148304EA0177701960088000
B0840214738162N01148233EA0177401952101000
K084021284007
B0840254738170N01148141EA0178201960096000
B0840294738216N01148083EA0178901968094000
B0840334738279N01148104EA0178301960101000
B0840374738304N01148191EA0179101968095000
B0840414738287N01148287EA0179201968092000
K084041306007
B0840454738266N01148391EA0178301960107000
B0840494738262N01148504EA0178701968103000
B0840534738258N01148612EA0178701968101000
B0840574738258N01148720EA0178201960102000
B0841014738258N01148833EA0177201952108000
K084101304007
B0841054738258N01148958EA0175801936115000
B0841094738262N01149083EA0175201928127000
B0841134738258N01149208EA0177601952108000
B0841174738241N01149316EA0180301976100000
B0841214738179N01149345EA0180801984088000
K084121306007
B0841254738133N01149270EA0180801984097000
B0841294738162N01149183EA0181801992109000
B0841334738229N01149191EA0183002008101000
B0841374738266N01149266EA0183602016096000
B0841414738266N01149366EA0183802016098000
K084141306007
B0841454738225N01149445EA0184602024099000
B0841494738158N01149458EA0185202024095000
B0841534738120N01149375EA0184602016109000
B0841574738158N01149287EA0185702032108000
B0842014738225N01149304EA0186902040102000
K084201272007
B0842054738250N01149400EA0187602048100000
B0842094738212N01149487EA0188202056100000
B0842134738145N01149479EA0188102048097000
B0842174738120N01149391EA0188202048102000
B0842214738154N01149308EA0189002064106000
K084221276007
B0842254738216N01149291EA0190302072101000
B0842294738262N01149366EA0189902072097000
B0842334738250N01149470EA0190002072111000
B0842374738187N01149533EA0191302088094000
B0842414738129N01149508EA0191102080096000
K084241286006
B0842454738108N01149416EA0190602080104000
B0842494738145N01149337EA0191902088102000
B0842534738212N01149329EA0192902104096000
B0842574738254N01149404EA0192202096103000
B0843014738229N01149508EA0191802096108000
K084301296005
B0843054738162N01149550EA0193502112098000
B0843094738108N01149508EA0193502112100000
B0843134738100N01149412EA0193202104103000
B0843174738145N01149341EA0193402112109000
B0843214738212N01149320EA0194702120098000
K084321298007
B0843254738275N01149362EA0194802128097000
B0843294738316N01149445EA0194102120106000
B0843334738354N01149550EA0193602120105000
B0843374738383N01149658EA0193202112104000
B0843414738412N01149775EA0191302096118000
K084341290009
B0843454738429N01149908EA0190402088127000
B0843494738445N01150045EA0190202080124000
B0843534738458N01150183EA0189502072131000
B0843574738470N01150320EA0189002072132000
B0844014738483N01150458EA0189402080126000
K084401296011
B0844054738491N01150595EA0189002072125000
B0844094738500N01150733EA0188602072131000
B0844134738504N01150870EA0188702072127000
B0844174738508N01151004EA0188802072122000
B0844214738512N01151141EA0188402064123000
K084421274012
B0844254738512N01151275EA0188402064125000
B0844294738512N01151412EA0188502064121000
B0844334738508N01151541EA0189002072117000
B0844374738504N01151666EA0188402064120000
B0844414738504N01151800EA0187502056127000
K084441274012
B0844454738500N01151937EA0186802048130000
B0844494738504N01152075EA0186802048126000
B0844534738504N01152208EA0186602048126000
B0844574738508N01152345EA0186102040127000
B0845014738512N01152483EA0185502040128000
K084501284011
B0845054738516N01152620EA0184802032131000
B0845094738520N01152762EA0183902024131000
B0845134738525N01152904EA0183302016130000
B0845174738525N01153050EA0182802008134000
B0845214738525N01153200EA0182302008135000
K084521292013
B0845254738525N01153345EA0181702000130000
B0845294738525N01153495EA0181001992137000
B0845334738520N01153645EA0181602000136000
B0845374738525N01153795EA0181802000139000
B0845414738525N01153941EA0182702008131000
K084541274015
B0845454738533N01154083EA0183302016129000
B0845494738537N01154220EA0182602008130000
B0845534738541N01154362EA0181702000129000
B0845574738545N01154504EA0181001992136000
B0846014738550N01154645EA0180901992131000
K084601262014
B0846054738554N01154787EA0180501984132000
B0846094738558N01154929EA0179701984131000
B0846134738562N01155070EA0179201976131000
B0846174738575N01155208EA0178601968130000
B0846214738587N01155350EA0177901960131000
K084621266013
B0846254738600N01155487EA0177501960132000
B0846294738616N01155629EA0177101952136000
B0846334738629N01155762EA0176901952132000
B0846374738650N01155895EA0177001952132000
B0846414738670N01156020EA0178401968119000
K084641260011
B0846454738695N01156137EA0177901960115000
B0846494738708N01156258EA0176001944120000
B0846534738708N01156391EA0174901928131000
B0846574738695N01156516EA0176201944114000
B0847014738675N01156633EA0177801960110000
K084701306013
B0847054738658N01156741EA0180201976108000
B0847094738700N01156812EA0179201968104000
B0847134738758N01156762EA0177501952107000
B0847174738762N01156662EA0177101952101000
B0847214738708N01156587EA0177201952108000
K084721304014
B0847254738637N01156562EA0177901960103000
B0847294738562N01156562EA0178601968096000
B0847334738495N01156608EA0178001960097000
B0847374738458N01156704EA0176001944105000
B0847414738445N01156825EA0174201920111000
K084741304014
B0847454738454N01156950EA0173001912114000
B0847494738475N01157075EA0172201904116000
B0847534738500N01157200EA0171901904115000
B0847574738520N01157325EA0171201888135000
B0848014738533N01157458EA0171901896128000
K084801332008
B0848054738550N01157579EA0174501920117000
B0848094738558N01157683EA0176701944103000
B0848134738562N01157783EA0177901960096000
B0848174738579N01157879EA0176901952107000
B0848214738608N01157970EA0175601936102000
K084821322010
B0848254738650N01158058EA0174201920105000
B0848294738691N01158150EA0173201912115000
B0848334738700N01158254EA0174801928103000
B0848374738666N01158337EA0175901944101000
B0848414738612N01158379EA0177901960096000
K084841314008
B0848454738554N01158354EA0179101976092000
B0848494738533N01158270EA0178701968096000
B0848534738570N01158183EA0178501968110000
B0848574738629N01158187EA0180001984097000
B0849014738658N01158275EA0179801976097000
K084901314008
B0849054738616N01158362EA0180901992095000
B0849094738554N01158337EA0183102016093000
B0849134738537N01158250EA0182802008092000
B0849174738583N01158179EA0182402008108000
B0849214738637N01158208EA0183902024093000
K084921306007
B0849254738662N01158295EA0184402032096000
B0849294738616N01158370EA0185402040106000
B0849334738554N01158337EA0186702056094000
B0849374738545N01158250EA0187202056090000
B0849414738591N01158179EA0187002056101000
K084941328002
B0849454738650N01158200EA0187402056091000
B0849494738679N01158295EA0187102056103000
B0849534738654N01158391EA0189202080103000
B0849574738600N01158437EA0191502096088000
B0850014738550N01158387EA0191302088098000
K085001280001
B0850054738562N01158287EA0191602096109000
B0850094738620N01158275EA0194202120089000
B0850134738654N01158354EA0193602112103000
B0850174738620N01158437EA0194202120102000
B0850214738558N01158420EA0194902128103000
K085021180005
B0850254738541N01158325EA0195602136103000
B0850294738600N01158275EA0196202144104000
B0850334738654N01158337EA0197002152097000
B0850374738662N01158441EA0198202168104000
B0850414738633N01158529EA0199302176095000
K085041248005
B0850454738570N01158516EA0199102176105000
B0850494738554N01158420EA0200602192097000
B0850534738600N01158350EA0201502200095000
B0850574738666N01158379EA0201802200095000
B0851014738683N01158483EA0202502208100000
K085101180006
B0851054738637N01158550EA0203402216091000
B0851094738579N01158529EA0203802216099000
B0851134738550N01158441EA0204802232101000
B0851174738587N01158362EA0206202240094000
B0851214738650N01158358EA0207702256094000
K085121228006
B0851254738683N01158408EA0208302264095000
B0851294738675N01158525EA0209102272093000
B0851334738616N01158558EA0208502272102000
B0851374738562N01158508EA0209302280096000
B0851414738545N01158416EA0210402288099000
K085141192003
B0851454738575N01158358EA0211302296097000
B0851494738654N01158370EA0212002304095000
B0851534738675N01158466EA0212102312101000
B0851574738629N01158537EA0213002320104000
B0852014738575N01158500EA0214200000098000
K085201192003
B0852054738570N01158425EA0214602328101000
B0852094738641N01158375EA0215702336091000
B0852134738691N01158445EA0215602336102000
B0852174738670N01158541EA0216402344098000
B0852214738608N01158550EA0216802352102000
K085221202006
B0852254738579N01158487EA0217902360098000
B0852294738625N01158387EA0218602368100000
B0852334738691N01158408EA0218802368100000
B0852374738716N01158504EA0219202368101000
B0852414738679N01158587EA0220102376101000
K085241180002
B0852454738629N01158587EA0220502384099000
B0852494738587N01158495EA0221002392098000
B0852534738616N01158408EA0221702400100000
B0852574738683N01158395EA0221902400097000
B0853014738729N01158466EA0221502392096000
K085301234004
B0853054738725N01158545EA0221602392096000
B0853094738675N01158658EA0220902384108000
B0853134738629N01158758EA0220702384118000
B0853174738587N01158850EA0221302392109000
B0853214738550N01158941EA0221402392107000
K085321234004
B0853254738529N01159020EA0219902384111000
B0853294738504N01159166EA0219602376122000
B0853334738491N01159291EA0219102368113000
B0853374738483N01159416EA0217502360120000
B0853414738479N01159550EA0216302344125000
K085341234004
B0853454738475N01159650EA0215902344123000
B0853494738470N01159820EA0215202336116000
B0853534738466N01159966EA0213402320128000
B0853574738458N01200112EA0213002312130000
B0854014738454N01200258EA0212502312131000
K085401292010
B0854054738450N01200366EA0211402304127000
B0854094738441N01200550EA0210502288126000
B0854134738433N01200700EA0209002272130000
B0854174738429N01200854EA0207202256144000
B0854214738420N01201012EA0206602256141000
K085421286016
B0854254738412N01201129EA0206402248141000
B0854294738400N01201325EA0206502256136000
B0854334738387N01201470EA0206702256133000
B0854374738379N01201616EA0206902256130000
B0854414738366N01201762EA0207202256131000
K085441276018
B0854454738358N01201870EA0207202256130000
B0854494738345N01202041EA0207902272124000
B0854534738333N01202175EA0207902264122000
B0854574738325N01202312EA0207502264126000
B0855014738312N01202445EA0207402264127000
K085501276016
B0855054738304N01202545EA0207702264123000
B0855094738291N01202712EA0207902272116000
B0855134738279N01202841EA0207402264119000
B0855174738266N01202975EA0206702256121000
B0855214738250N01203108EA0206502256125000
K085521296015
B0855254738237N01203200EA0207602264107000
B0855294738216N01203345EA0206802256110000
B0855334738187N01203466EA0205302240114000
B0855374738154N01203591EA0204002232122000
B0855414738112N01203716EA0203202224128000
K085541306015
B0855454738079N01203808EA0202702216130000
B0855494738020N01203958EA0202102208121000
B0855534737970N01204075EA0201402200120000
B0855574737916N01204191EA0200502192122000
B0856014737862N01204304EA0200002192126000
K085601296015
B0856054737816N01204387EA0199802184130000
B0856094737750N01204516EA0201702208109000
B0856134737700N01204620EA0200102192114000
B0856174737645N01204725EA0198202168124000
B0856214737587N01204841EA0196602152130000
K085621300016
B0856254737541N01204929EA0195702144130000
B0856294737462N01205070EA0195202144130000
B0856334737395N01205187EA0195002136132000
B0856374737333N01205300EA0195002136131000
B0856414737270N01205408EA0195202144127000
K085641308017
B0856454737225N01205491EA0195602144121000
B0856494737150N01205629EA0195302144125000
B0856534737091N01205741EA0195502144122000
B0856574737033N01205845EA0196102152117000
B0857014736975N01205954EA0196502152113000
K085701292020
B0857054736933N01206029EA0196702152112000
B0857094736870N01206162EA0196902152111000
B0857134736816N01206270EA0196802152111000
B0857174736766N01206375EA0196802152112000
B0857214736716N01206479EA0196902160108000
K085721284022
B0857254736679N01206554EA0196802152104000
B0857294736616N01206683EA0196602152109000
B0857334736566N01206783EA0196502152109000
B0857374736516N01206883EA0196402152109000
B0857414736466N01206975EA0196002144104000
K085741284020
B0857454736429N01207050EA0194802136107000
B0857494736362N01207175EA0193202120112000
B0857534736308N01207283EA0191402096122000
B0857574736250N01207400EA0189802080130000
B0858014736187N01207516EA0189002080129000
K085801324017
B0858054736141N01207600EA0188802080127000
B0858094736062N01207737EA0188602072126000
B0858134736000N01207845EA0188402072124000
B0858174735937N01207958EA0187702064126000
B0858214735875N01208070EA0187202056128000
K085821300019
B0858254735829N01208154EA0187102056127000
B0858294735750N01208295EA0186902056127000
B0858334735687N01208412EA0186402048129000
B0858374735625N01208525EA0186302048130000
B0858414735562N01208641EA0186602048126000
K085841296022
B0858454735516N01208729EA0186602048128000
B0858494735445N01208870EA0186502048125000
B0858534735387N01208983EA0186802056119000
B0858574735333N01209091EA0186802048119000
B0859014735279N01209195EA0186402048116000
K085901278025
B0859054735237N01209275EA0185702040119000
B0859094735166N01209404EA0185502040117000
B0859134735116N01209512EA0185002032117000
B0859174735058N01209616EA0184002024120000
B0859214735000N01209720EA0183502016120000
K085921280021
B0859254734958N01209800EA0182902016122000
B0859294734883N01209929EA0182602008121000
B0859334734820N01210029EA0182402008121000
B0859374734762N01210133EA0182102008119000
B0859414734700N01210233EA0182002000118000
K085941276020
B0859454734658N01210308EA0181802000116000
B0859494734587N01210433EA0181402000116000
B0859534734529N01210533EA0181001992116000
B0859574734475N01210637EA0180601992115000
B0900014734416N01210741EA0180101984117000
K090001280020
B0900054734375N01210816EA0179701984117000
B0900094734300N01210945EA0179401976118000
B0900134734241N01211050EA0179201976118000
B0900174734187N01211154EA0178901976118000
B0900214734133N01211258EA0178701968116000
K090021286020
B0900254734091N01211337EA0178301968116000
B0900294734025N01211470EA0178001968116000
B0900334733970N01211583EA0177801960116000
B0900374733920N01211691EA0177301960118000
B0900414733870N01211800EA0176601952121000
K090041282021
B0900454733829N01211887EA0176301944122000
B0900494733766N01212025EA0176001944121000
B0900534733712N01212137EA0176001944120000
B0900574733662N01212245EA0175701936119000
B0901014733616N01212362EA0175201936119000
K090101278020
B0901054733583N01212445EA0174801936118000
B0901094733529N01212591EA0174501928117000
B0901134733491N01212708EA0174301928117000
B0901174733454N01212829EA0174101928115000
B0901214733425N01212950EA0174001920114000
K090121282018
B0901254733404N01213041EA0174001928113000
B0901294733370N01213191EA0173901920110000
B0901334733350N01213312EA0173501920111000
B0901374733333N01213433EA0173201920110000
B0901414733320N01213554EA0172901912113000
K090141280017
B0901454733312N01213645EA0172601912115000
B0901494733304N01213800EA0172301904118000
B0901534733304N01213920EA0172301912115000
B0901574733300N01214041EA0173101920110000
B0902014733300N01214158EA0173001912108000
K090201274012
B0902054733295N01214245EA0173501920106000
B0902094733291N01214387EA0174801936104000
B0902134733295N01214495EA0175701944097000
B0902174733304N01214608EA0176001944107000
B0902214733325N01214720EA0176301952118000
K090221240010
B0902254733350N01214791EA0178101968109000
B0902294733404N01214908EA0178601968108000
B0902334733445N01215004EA0178401968113000
B0902374733479N01215112EA0178201968112000
B0902414733504N01215220EA0178801976119000
K090241236007
B0902454733500N01215304EA0181001992094000
B0902494733420N01215316EA0180801992100000
B0902534733387N01215225EA0181402008108000
B0902574733395N01215120EA0180501992116000
B0903014733412N01215012EA0180501992111000
K090301236010
B0903054733412N01214929EA0180501992109000
B0903094733391N01214795EA0181002000109000
B0903134733366N01214691EA0180602000117000
B0903174733345N01214579EA0181102000118000
B0903214733329N01214470EA0183502024114000
K090321236010
B0903254733291N01214420EA0184102024097000
B0903294733229N01214516EA0182402008107000
B0903334733245N01214637EA0182302016111000
B0903374733270N01214754EA0182802016108000
B0903414733312N01214858EA0182702016112000
K090341248008
B0903454733354N01214929EA0182502016118000
B0903494733420N01215045EA0183002024115000
B0903534733466N01215141EA0182702016112000
B0903574733508N01215250EA0182802024121000
B0904014733550N01215354EA0183602032123000
K090401256008
B0904054733579N01215429EA0184402040118000
B0904094733620N01215558EA0184502040113000
B0904134733645N01215666EA0184002032117000
B0904174733662N01215783EA0183802032116000
B0904214733658N01215900EA0183602032114000
K090421224005
B0904254733650N01215987EA0183102024115000
B0904294733612N01216125EA0182702024120000
B0904334733575N01216233EA0183602032114000
B0904374733533N01216320EA0185502048111000
B0904414733466N01216354EA0187202064105000
K090441224005
B0904454733420N01216316EA0188702072094000
B0904494733420N01216212EA0188302072097000
B0904534733479N01216162EA0187402064102000
B0904574733533N01216187EA0187902064109000
B0905014733562N01216287EA0189202080110000
K090501224005
B0905054733537N01216387EA0190102088102000
B0905094733495N01216466EA0190402088101000
B0905134733429N01216475EA0189702088104000
B0905174733391N01216387EA0189502080107000
B0905214733420N01216287EA0190202088108000
K090521254003
B0905254733487N01216300EA0190402096103000
B0905294733529N01216387EA0190802096102000
B0905334733533N01216491EA0191702104098000
B0905374733500N01216579EA0190802104106000
B0905414733445N01216650EA0189902088114000
K090541180002
B0905454733383N01216712EA0189102088114000
B0905494733316N01216779EA0188002072119000
B0905534733245N01216841EA0186902064126000
B0905574733175N01216908EA0187002064122000
B0906014733108N01216979EA0187202064121000
K090601176003
B0906054733045N01217058EA0187602064115000
B0906094733000N01217150EA0187002064109000
B0906134732975N01217254EA0185402040111000
B0906174732962N01217375EA0184102032122000
B0906214732958N01217500EA0183602024124000
K090621176003
B0906254732975N01217620EA0185602040114000
B0906294733016N01217712EA0187102056108000
B0906334733045N01217795EA0186602056103000
B0906374733070N01217891EA0185302048108000
B0906414733095N01218000EA0184102032115000
K090641176003
B0906454733120N01218112EA0182702024117000
B0906494733137N01218233EA0180502000128000
B0906534733162N01218358EA0179301984132000
B0906574733187N01218475EA0180301992120000
B0907014733208N01218587EA0181002000115000
K090701342003
B0907054733225N01218691EA0182702016103000
B0907094733241N01218795EA0184202024103000
B0907134733283N01218875EA0184002024097000
B0907174733354N01218850EA0182302008108000
B0907214733383N01218750EA0182402008104000
K090721332002
B0907254733362N01218654EA0183602024100000
B0907294733312N01218579EA0184202032097000
B0907334733254N01218541EA0184802032094000
B0907374733187N01218545EA0184502032096000
B0907414733125N01218579EA0184802040097000
K090741332002
B0907454733070N01218629EA0185302040098000
B0907494733033N01218704EA0185702048088000
B0907534733025N01218795EA0185302040099000
B0907574733037N01218895EA0185102040107000
B0908014733050N01219000EA0184402032105000
K090801314001
B0908054733062N01219108EA0183402024113000
B0908094733070N01219220EA0182302016109000
B0908134733079N01219337EA0181002000118000
B0908174733087N01219462EA0180501992125000
B0908214733091N01219587EA0180401992122000
K090821000004
B0908254733100N01219708EA0179901984118000
B0908294733108N01219829EA0179201976121000
B0908334733116N01219950EA0179001976110000
B0908374733133N01220066EA0180601984122000
B0908414733150N01220170EA0182702008097000
K090841188006
B0908454733175N01220262EA0182702016094000
B0908494733191N01220358EA0181702000102000
B0908534733204N01220466EA0180901992110000
B0908574733216N01220575EA0180101984109000
B0909014733229N01220687EA0178701968115000
K090901224001
B0909054733237N01220808EA0177801960118000
B0909094733237N01220929EA0177001952121000
B0909134733237N01221054EA0177301952123000
B0909174733233N01221175EA0177601952115000
B0909214733229N01221291EA0177501952110000
K090921242002
B0909254733220N01221404EA0177301952115000
B0909294733225N01221520EA0177801952107000
B0909334733254N01221620EA0179201968101000
B0909374733304N01221700EA0180501984097000
B0909414733366N01221750EA0180901984096000
K090941270002
B0909454733429N01221791EA0182101992099000
B0909494733458N01221866EA0181802000094000
B0909534733416N01221941EA0179401976114000
B0909574733354N01221879EA0178800000110000
B0910014733337N01221770EA0179001976107000
K091001270002
B0910054733320N01221666EA0179901984111000
B0910094733295N01221575EA0182002000103000
B0910134733262N01221495EA0182802016088000
B0910174733204N01221470EA0181502000100000
B0910214733162N01221550EA0180501992108000
K091021270002
B0910254733195N01221650EA0180802000112000
B0910294733275N01221666EA0182302008109000
B0910334733354N01221675EA0184000000095000
B0910374733408N01221737EA0184002008098000
B0910414733391N01221829EA0182301984108000
K091041270002
B0910454733325N01221816EA0181301976111000
B0910494733304N01221712EA0182301984108000
B0910534733300N01221608EA0183402000100000
B0910574733275N01221520EA0184902016096000
B0911014733220N01221466EA0185502024095000
K091101270002
B0911054733166N01221504EA0184502016107000
B0911094733175N01221616EA0183702000117000
B0911134733250N01221620EA0184402024104000
B0911174733279N01221520EA0186002040098000
B0911214733250N01221433EA0186902048096000
K091121166010
B0911254733187N01221441EA0186002048097000
B0911294733154N01221529EA0185902040101000
B0911334733179N01221633EA0186502048104000
B0911374733250N01221650EA0187302056100000
B0911414733295N01221570EA0188602072096000
K091141158006
B0911454733270N01221483EA0189302080097000
B0911494733208N01221470EA0189502080101000
B0911534733175N01221554EA0189802080101000
B0911574733195N01221650EA0190702088098000
B0912014733266N01221658EA0190902096100000
K091201194008
B0912054733308N01221570EA0191902104103000
B0912094733270N01221491EA0193302120095000
B0912134733208N01221516EA0193202120095000
B0912174733195N01221616EA0193202120104000
B0912214733258N01221670EA0193702120109000
K091221166003
B0912254733312N01221604EA0195402144097000
B0912294733283N01221516EA0196002144094000
B0912334733220N01221516EA0196302144101000
B0912374733179N01221591EA0196902152097000
B0912414733183N01221691EA0198102160095000
K091241182004
B0912454733237N01221733EA0197702168097000
B0912494733300N01221675EA0197902168107000
B0912534733295N01221575EA0199602176090000
B0912574733245N01221533EA0199402176091000
B0913014733187N01221566EA0199702176092000
K091301150003
B0913054733162N01221658EA0200502184094000
B0913094733195N01221737EA0200102184100000
B0913134733266N01221729EA0200202184098000
B0913174733308N01221650EA0201302200097000
B0913214733295N01221566EA0201502200066000
K091321116002
B0913254733233N01221537EA0200002184105000
B0913294733175N01221600EA0201202200097000
B0913334733133N01221679EA0202302208091000
B0913374733095N01221754EA0202802216086000
B0913414733058N01221837EA0201702208098000
K091341100000
B0913454733020N01221929EA0201102200103000
B0913494732987N01222033EA0199802192107000
B0913534732954N01222145EA0198402176119000
B0913574732925N01222266EA0197702168123000
B0914014732895N01222387EA0197102160125000
K091401012013
B0914054732870N01222512EA0194802144122000
B0914094732841N01222645EA0194302128132000
B0914134732812N01222783EA0193602128139000
B0914174732783N01222912EA0194202128133000
B0914214732754N01223041EA0194902136129000
K091421328009
B0914254732725N01223166EA0194702136119000
B0914294732700N01223295EA0193702128117000
B0914334732670N01223425EA0192702112132000
B0914374732645N01223558EA0192702112133000
B0914414732620N01223691EA0193102120127000
K091441300011
B0914454732604N01223825EA0192702120125000
B0914494732583N01223954EA0191902112126000
B0914534732558N01224091EA0190502096133000
B0914574732533N01224233EA0189502080138000
B0915014732508N01224379EA0189402080142000
K091501314014
B0915054732483N01224525EA0189902088138000
B0915094732458N01224662EA0189502080134000
B0915134732437N01224800EA0189602080128000
B0915174732416N01224933EA0188802080135000
B0915214732391N01225070EA0189002080129000
K091521292013
B0915254732366N01225204EA0188902080129000
B0915294732345N01225337EA0187802072135000
B0915334732325N01225475EA0187302064137000
B0915374732308N01225608EA0187202056128000
B0915414732287N01225741EA0186702056132000
K091541292010
B0915454732266N01225875EA0186102048130000
B0915494732245N01226012EA0185202040133000
B0915534732229N01226154EA0184302032139000
B0915574732216N01226295EA0184302032139000
B0916014732204N01226437EA0184402032136000
K091601296008
B0916054732195N01226575EA0184402032134000
B0916094732183N01226708EA0184102024128000
B0916134732175N01226841EA0183602016133000
B0916174732166N01226979EA0183702024129000
B0916214732158N01227108EA0183902024124000
K091621258009
B0916254732145N01227233EA0183502016127000
B0916294732137N01227362EA0183102016126000
B0916334732125N01227495EA0182502008131000
B0916374732112N01227629EA0181902000133000
B0916414732100N01227762EA0181502000134000
K091641288006
B0916454732091N01227900EA0181102000133000
B0916494732079N01228033EA0180901992131000
B0916534732066N01228166EA0180801992129000
B0916574732054N01228295EA0180401992130000
B0917014732045N01228429EA0179601984133000
K091701278006
B0917054732037N01228562EA0179601984129000
B0917094732029N01228695EA0179601984129000
B0917134732020N01228829EA0179601984129000
B0917174732016N01228958EA0179201976131000
B0917214732012N01229087EA0179101976125000
K091721270006
B0917254732008N01229216EA0178901976125000
B0917294732004N01229345EA0178701968126000
B0917334732000N01229479EA0178001968126000
B0917374732000N01229608EA0177801960125000
B0917414731995N01229741EA0177501960129000
K091741288006
B0917454732000N01229875EA0177201952129000
B0917494732000N01230008EA0176501952134000
B0917534732000N01230141EA0177201952130000
B0917574732004N01230266EA0177801960121000
B0918014732008N01230391EA0177201952124000
K091801242006
B0918054732016N01230516EA0176401944125000
B0918094732025N01230641EA0175601936115000
B0918134732033N01230775EA0175901936126000
B0918174732041N01230900EA0178401960108000
B0918214732045N01231008EA0178701968099000
K091821216013
B0918254732050N01231120EA0177401960108000
B0918294732050N01231237EA0176201944117000
B0918334732050N01231362EA0176601952118000
B0918374732050N01231483EA0177601960111000
B0918414732045N01231604EA0178201968109000
K091841242008
B0918454732041N01231712EA0179001976106000
B0918494732033N01231825EA0179701984098000
B0918534732029N01231937EA0179601984102000
B0918574732025N01232050EA0179101976109000
B0919014732020N01232170EA0177701968116000
K091901276008
B0919054732016N01232295EA0177801968110000
B0919094732012N01232425EA0177501960116000
B0919134732008N01232554EA0177401960121000
B0919174732008N01232675EA0177601960111000
B0919214732004N01232800EA0177101960107000
K091921292010
B0919254732000N01232929EA0175901944117000
B0919294732000N01233058EA0177501960120000
B0919334731995N01233175EA0181201992097000
B0919374731991N01233279EA0182102000092000
B0919414731941N01233345EA0181202000104000
K091941298012
B0919454731875N01233308EA0180801992103000
B0919494731854N01233212EA0181302000109000
B0919534731866N01233108EA0183702016111000
B0919574731916N01233062EA0185102040100000
B0920014731970N01233129EA0185302032104000
K092001298012
B0920054731966N01233241EA0186902048101000
B0920094731904N01233279EA0187702064095000
B0920134731854N01233216EA0186902056107000
B0920174731850N01233116EA0188802072112000
B0920214731887N01233045EA0189402080100000
K092021286012
B0920254731950N01233083EA0190100000106000
B0920294731950N01233187EA0191502096101000
B0920334731887N01233237EA0193102112099000
B0920374731845N01233170EA0193702120094000
B0920414731870N01233087EA0193902120107000
K092041296012
B0920454731933N01233120EA0194602128108000
B0920494731925N01233229EA0195402136106000
B0920534731854N01233229EA0196802152100000
B0920574731833N01233137EA0197802160113000
B0921014731883N01233083EA0199602176103000
K092101294008
B0921054731925N01233162EA0200002184103000
B0921094731883N01233254EA0201302192102000
B0921134731820N01233241EA0202502208094000
B0921174731800N01233150EA0202302208114000
B0921214731845N01233079EA0204102224108000
K092121304007
B0921254731908N01233112EA0205002240103000
B0921294731929N01233212EA0204302232115000
B0921334731891N01233308EA0206602256103000
B0921374731825N01233308EA0206402256105000
B0921414731791N01233216EA0206102256109000
K092141298009
B0921454731816N01233120EA0207502264115000
B0921494731866N01233058EA0208502280108000
B0921534731929N01233058EA0209502288104000
B0921574731975N01233125EA0210802304100000
B0922014731954N01233225EA0212402320100000
K092201302009
B0922054731887N01233254EA0213602328102000
B0922094731845N01233183EA0213702336103000
B0922134731866N01233100EA0214002336096000
B0922174731916N01233058EA0214402336096000
B0922214731975N01233058EA0215202344100000
K092221318011
B0922254732020N01233129EA0215502352097000
B0922294732012N01233233EA0215602352099000
B0922334731950N01233300EA0216102360100000
B0922374731883N01233275EA0217502368097000
B0922414731870N01233183EA0217602368103000
K092241320013
B0922454731912N01233116EA0218202376106000
B0922494731975N01233129EA0219602392095000
B0922534732004N01233220EA0219802392089000
B0922574731970N01233320EA0220002392099000
B0923014731900N01233354EA0220702400104000
K092301302012
B0923054731841N01233300EA0221502408097000
B0923094731825N01233208EA0221102408101000
B0923134731854N01233125EA0221002400103000
B0923174731920N01233100EA0222102416100000
B0923214731966N01233166EA0223302424093000
K092321294010
B0923254731975N01233266EA0223702432092000
B0923294731941N01233362EA0223202432098000
B0923334731879N01233429EA0222202416116000
B0923374731800N01233470EA0222702424120000
B0923414731725N01233508EA0222402424109000
K092341292009
B0923454731650N01233545EA0220702408118000
B0923494731566N01233587EA0218702384126000
B0923534731475N01233629EA0217702376128000
B0923574731379N01233670EA0216902368125000
B0924014731283N01233720EA0216602360131000
K092401292009
B0924054731187N01233770EA0215702360128000
B0924094731095N01233825EA0214602344132000
B0924134731000N01233883EA0213902336131000
B0924174730904N01233937EA0212902328135000
B0924214730808N01234000EA0212302320144000
K092421308019
B0924254730712N01234062EA0212302320145000
B0924294730616N01234129EA0212802328138000
B0924334730520N01234187EA0212802328134000
B0924374730429N01234254EA0212402320138000
B0924414730337N01234316EA0212602320135000
K092441304021
B0924454730245N01234379EA0213402328124000
B0924494730158N01234437EA0213502328125000
B0924534730070N01234500EA0213002328125000
B0924574729983N01234562EA0212702328125000
B0925014729900N01234625EA0212402320122000
K092501304024
B0925054729812N01234691EA0211902320121000
B0925094729729N01234754EA0211202312126000
B0925134729645N01234825EA0210602304123000
B0925174729558N01234895EA0210102296131000
B0925214729475N01234966EA0210202296126000
K092521304021
B0925254729395N01235037EA0210002296126000
B0925294729312N01235112EA0209602296126000
B0925334729233N01235183EA0209502296124000
B0925374729150N01235254EA0209202288123000
B0925414729070N01235325EA0209002288122000
K092541294020
B0925454728995N01235395EA0208902288121000
B0925494728920N01235470EA0208802288118000
B0925534728845N01235541EA0208402280117000
B0925574728766N01235608EA0208002280118000
B0926014728691N01235679EA0207502272117000
K092601290019
B0926054728612N01235745EA0207202264117000
B0926094728537N01235816EA0206802264118000
B0926134728462N01235887EA0206402256118000
B0926174728383N01235954EA0206202256116000
B0926214728304N01236016EA0205902256117000
K092621290020
B0926254728229N01236083EA0205602248117000
B0926294728150N01236150EA0205702248115000
B0926334728070N01236212EA0205802248116000
B0926374727991N01236270EA0205802256117000
B0926414727912N01236329EA0205802256117000
K092641288023
B0926454727833N01236387EA0205602248118000
B0926494727754N01236445EA0205302248120000
B0926534727675N01236504EA0204802248122000
B0926574727591N01236562EA0204702240124000
B0927014727508N01236616EA0204502240124000
K092701278024
B0927054727425N01236675EA0204202240122000
B0927094727341N01236725EA0203702232125000
B0927134727254N01236775EA0203902232122000
B0927174727166N01236825EA0203702232126000
B0927214727083N01236875EA0203602232126000
K092721278026
B0927254727000N01236925EA0203402232123000
B0927294726916N01236970EA0203302232119000
B0927334726833N01237020EA0202802224121000
B0927374726750N01237070EA0202302216120000
B0927414726670N01237125EA0201602216121000
K092741284020
B0927454726587N01237179EA0201102208120000
B0927494726508N01237237EA0200402200120000
B0927534726425N01237295EA0199902192119000
B0927574726345N01237358EA0199902192123000
B0928014726262N01237416EA0199702192118000
K092801298016
B0928054726183N01237483EA0199302184122000
B0928094726104N01237545EV0198900000122000
B0928134726025N01237612EA0198602184122000
B0928174725945N01237670EA0198400000120000
B0928214725866N01237733EA0198400000117000
K092821292018
B0928254725787N01237800EA0197902176117000
B0928294725712N01237870EA0197102168118000
B0928334725637N01237950EA0196402160125000
B0928374725558N01238029EA0195702152121000
B0928414725483N01238116EA0194802144123000
K092841306017
B0928454725408N01238200EA0193602136123000
B0928494725329N01238287EA0192802128128000
B0928534725250N01238375EA0192502120130000
B0928574725175N01238466EA0192702120128000
B0929014725104N01238554EA0193202128123000
K092901304019
B0929054725037N01238641EA0193102128121000
B0929094724975N01238737EA0192802120121000
B0929134724912N01238833EA0192602120122000
B0929174724854N01238933EA0193302128119000
B0929214724800N01239033EA0192002120121000
K092921282018
B0929254724741N01239137EA0191602112127000
B0929294724687N01239245EA0191602112118000
B0929334724637N01239354EA0191802112117000
B0929374724587N01239462EA0192102112127000
B0929414724537N01239566EA0193502128117000
K092941272017
B0929454724495N01239662EA0195002144111000
B0929494724454N01239754EA0196702160096000
B0929534724412N01239833EA0196802160099000
B0929574724375N01239920EA0196802160093000
B0930014724333N01240012EA0196202152110000
K093001274011
B0930054724291N01240112EA0197302168102000
B0930094724262N01240216EA0197902176098000
B0930134724250N01240325EA0197602168107000
B0930174724229N01240437EA0197702176108000
B0930214724208N01240545EA0198302176105000
K093021264012
B0930254724183N01240654EA0198902184105000
B0930294724162N01240758EA0199502192103000
B0930334724141N01240862EA0200702200107000
B0930374724120N01240958EA0203002224095000
B0930414724083N01241029EA0202802224089000
K093041270009
B0930454724020N01241029EA0200902208101000
B0930494723979N01240950EA0200402200108000
B0930534723991N01240845EA0200702200104000
B0930574724037N01240779EA0201202208101000
B0931014724100N01240750EA0201102208100000
K093101270009
B0931054724166N01240775EA0201202208103000
B0931094724225N01240837EA0202002216097000
B0931134724270N01240920EA0202802224097000
B0931174724291N01241025EA0204402240096000
B0931214724250N01241116EA0204002232104000
K093121248012
B0931254724175N01241104EA0204102232102000
B0931294724162N01241012EA0204702240097000
B0931334724208N01240954EA0205102248103000
B0931374724270N01240991EA0205702256094000
B0931414724295N01241091EA0206402256102000
K093141320012
B0931454724279N01241200EA0207902272092000
B0931494724216N01241245EA0206902264107000
B0931534724162N01241183EA0207302264097000
B0931574724175N01241095EA0207502272100000
B0932014724229N01241066EA0207902272103000
K093201296010
B0932054724283N01241125EA0208802280100000
B0932094724300N01241233EA0209402288100000
B0932134724308N01241345EA0209502288098000
B0932174724304N01241454EA0209602288099000
B0932214724283N01241562EA0209602288101000
K093221300009
B0932254724254N01241666EA0208802280105000
B0932294724212N01241766EA0207902272108000
B0932334724162N01241866EA0207302272113000
B0932374724108N01241958EA0207102264115000
B0932414724050N01242045EA0207102264109000
K093241300009
B0932454723987N01242133EA0205902256116000
B0932494723925N01242233EA0205102248123000
B0932534723866N01242337EA0204602248122000
B0932574723812N01242445EA0204402240125000
B0933014723758N01242554EA0204502248122000
K093301330012
B0933054723712N01242666EA0204302240113000
B0933094723666N01242779EA0202702232125000
B0933134723620N01242900EA0202102216125000
B0933174723583N01243025EA0202002216132000
B0933214723545N01243141EA0204302240116000
K093321330013
B0933254723516N01243250EA0206002256105000
B0933294723487N01243354EA0204802248109000
B0933334723458N01243458EA0207102264102000
B0933374723437N01243558EA0207702280094000
B0933414723408N01243658EA0206402264112000
K093341270010
B0933454723379N01243762EA0208602280098000
B0933494723345N01243854EA0208602288092000
B0933534723312N01243945EA0208702280097000
B0933574723275N01244037EA0209002288104000
B0934014723237N01244120EA0210002296093000
K093401246009
B0934054723200N01244200EA0208802288099000
B0934094723158N01244291EA0207302272110000
B0934134723120N01244387EA0206002256125000
B0934174723083N01244495EA0206102264117000
B0934214723045N01244600EA0205602256116000
K093421044004
B0934254723012N01244712EA0205402248118000
B0934294722979N01244825EA0206102256120000
B0934334722950N01244933EA0207302272111000
B0934374722916N01245037EA0210902296103000
B0934414722904N01245129EA0213302328090000
K093441018006
B0934454722941N01245195EA0213002328093000
B0934494723008N01245191EA0213602336103000
B0934534723045N01245125EA0215202352089000
B0934574723033N01245037EA0214602344098000
B0935014722975N01244983EA0214002336102000
K093501018006
B0935054722900N01245000EA0215102344105000
B0935094722841N01245054EA0216902368101000
B0935134722812N01245133EA0217502376093000
B0935174722841N01245212EA0216902368104000
B0935214722908N01245237EA0218002376098000
K093521002005
B0935254722966N01245204EA0219102392091000
B0935294722987N01245116EA0219102392101000
B0935334722950N01245037EA0219602392095000
B0935374722883N01245000EA0220202400098000
B0935414722816N01245025EA0221302416092000
K093541008007
B0935454722770N01245091EA0221702416092000
B0935494722737N01245170EA0220902408093000
B0935534722708N01245266EA0220302408105000
B0935574722683N01245366EA0220602408098000
B0936014722662N01245470EA0218702392106000
K093601024014
B0936054722641N01245591EA0217702376117000
B0936094722616N01245716EA0217102376118000
B0936134722595N01245841EA0216802368119000
B0936174722575N01245970EA0216402368124000
B0936214722550N01246100EA0216302360119000
K093621354018
B0936254722529N01246225EA0216002360118000
B0936294722500N01246350EA0215102352121000
B0936334722466N01246475EA0214002344127000
B0936374722433N01246600EA0213802336129000
B0936414722400N01246725EA0213702336126000
K093641322010
B0936454722366N01246850EA0213102328122000
B0936494722329N01246975EA0211802320132000
B0936534722283N01247100EA0211602312130000
B0936574722237N01247220EA0211102312124000
B0937014722195N01247341EA0209902296132000
K093701298010
B0937054722150N01247470EA0209402288132000
B0937094722108N01247600EA0209002288127000
B0937134722066N01247725EA0208802288126000
B0937174722020N01247854EA0208802288124000
B0937214721979N01247983EA0208602280126000
K093721302015
B0937254721937N01248112EA0208302280127000
B0937294721895N01248241EA0207602272122000
B0937334721854N01248370EA0207102272127000
B0937374721812N01248500EA0207102272127000
B0937414721766N01248629EA0207002272127000
K093741294018
B0937454721725N01248762EA0207102272129000
B0937494721679N01248891EA0207702280127000
B0937534721641N01249012EA0208802288117000
B0937574721608N01249133EA0208802288112000
B0938014721583N01249262EA0207602272119000
K093801286020
B0938054721562N01249400EA0206402264124000
B0938094721541N01249537EA0205402256130000
B0938134721529N01249679EA0204902248129000
B0938174721516N01249820EA0204502240127000
B0938214721508N01249962EA0203902240129000
K093821292018
B0938254721500N01250100EA0203502232131000
B0938294721495N01250237EA0202802224133000
B0938334721491N01250375EA0202502224130000
B0938374721487N01250512EA0202302216127000
B0938414721483N01250650EA0201702216129000
K093841270013
B0938454721479N01250791EA0200802208132000
B0938494721470N01250929EA0200302200139000
B0938534721466N01251070EA0200702200133000
B0938574721462N01251208EA0201102208126000
B0939014721458N01251345EA0202702224126000
K093901264011
B0939054721458N01251475EA0204302240116000
B0939094721454N01251591EA0205202248107000
B0939134721450N01251704EA0205002248105000
B0939174721441N01251820EA0203502232114000
B0939214721425N01251941EA0202002216123000
K093921262008
B0939254721400N01252066EA0201002208124000
B0939294721370N01252187EA0201102200121000
B0939334721337N01252304EA0201702208119000
B0939374721295N01252416EA0201802208116000
B0939414721254N01252520EA0202202216108000
K093941276008
B0939454721208N01252616EA0203502224111000
B0939494721166N01252708EA0206202248102000
B0939534721125N01252783EA0207702264089000
B0939574721066N01252795EA0206502256103000
B0940014721025N01252720EA0206702264100000
K094001270009
B0940054721029N01252629EA0206002256098000
B0940094721075N01252562EA0205502248108000
B0940134721141N01252533EA0206502256111000
B0940174721208N01252541EA0209002280088000
B0940214721262N01252583EA0209702288086000
K094021270009
B0940254721295N01252675EA0208502280101000
B0940294721270N01252770EA0208402280099000
B0940334721220N01252845EA0207602272109000
B0940374721158N01252912EA0208502280103000
B0940414721100N01252979EA0209902288107000
K094041248013
B0940454721045N01253045EA0211802304096000
B0940494720983N01253087EA0212202312091000
B0940534720912N01253083EA0210802304103000
B0940574720837N01253095EA0210802304116000
B0941014720758N01253116EA0213602328099000
K094101238007
B0941054720691N01253141EA0214002336089000
B0941094720641N01253212EA0213202328096000
B0941134720625N01253329EA0212302320102000
B0941154720633N01253383EA0212502320101000
B0941164720641N01253412EA0212502320097000
B0941174720650N01253433EA0212402320097000
B0941184720662N01253458EA0212502320098000
B0941194720679N01253475EA0212402320100000
B0941204720695N01253487EA0212502320105000
B0941214720716N01253495EA0212602320105000
B0941224720733N01253500EA0213202320108000
B0941234720754N01253504EA0213602328106000
K094123238007
B0941244720770N01253500EA0214102336105000
B0941254720791N01253500EA0214802344103000
B0941294720862N01253491EA0217102368101000
B0941334720900N01253412EA0217802376098000
B0941374720854N01253337EA0218102376106000
B0941414720787N01253387EA0219502384106000
K094141260011
B0941454720800N01253500EA0220702400106000
B0941494720870N01253520EA0222702416102000
B0941534720912N01253445EA0224302432095000
B0941574720887N01253366EA0225302448099000
B0942014720816N01253375EA0226402456091000
K094201232007
B0942054720795N01253475EA0227102464107000
B0942094720850N01253554EA0228502480104000
B0942134720912N01253512EA0230202496098000
B0942174720920N01253420EA0231202504101000
B0942214720866N01253362EA0233202528095000
K094221228006
B0942254720804N01253400EA0234602544090000
B0942294720783N01253500EA0235302552092000
B0942334720833N01253579EA0235902560106000
B0942374720904N01253550EA0237502576094000
B0942414720925N01253462EA0238302576103000
K094241262008
B0942454720883N01253387EA0240202608087000
B0942494720816N01253395EA0240302608074000
B0942534720766N01253475EA0240402608101000
B0942574720779N01253579EA0242002624095000
B0943014720841N01253629EA0243202632095000
K094301258008
B0943054720900N01253587EA0243702640092000
B0943094720925N01253500EA0244602648109000
B0943134720916N01253412EA0246302664090000
B0943174720875N01253358EA0245802664083000
B0943214720812N01253350EA0244302648095000
K094321254010
B0943254720741N01253400EA0243802648099000
B0943294720683N01253470EA0244302648095000
B0943334720629N01253554EA0243602640107000
B0943374720579N01253654EA0243702648114000
B0943414720541N01253758EA0244902656100000
K094341256011
B0943454720500N01253858EA0244602656104000
B0943494720458N01253966EA0243102640118000
B0943534720412N01254083EA0242702632124000
B0943574720366N01254195EA0244802656111000
B0944014720325N01254291EA0244702656103000
K094401328009
B0944054720283N01254395EA0242102632119000
B0944094720233N01254512EA0241002616123000
B0944134720187N01254629EA0241102616123000
B0944174720137N01254745EA0241602624127000
B0944214720091N01254850EA0243602640105000
K094421336012
B0944254720054N01254954EA0243102640103000
B0944294720012N01255058EA0242102632111000
B0944334719970N01255170EA0241202616124000
B0944374719929N01255287EA0241902624111000
B0944414719883N01255395EA0240902616126000
K094441334014
B0944454719833N01255508EA0240102608119000
B0944494719779N01255612EA0238302592126000
B0944534719716N01255725EA0236902576129000
B0944574719658N01255841EA0236802576133000
B0945014719595N01255950EA0236802576135000
K094501322011
B0945054719533N01256054EA0238202584128000
B0945094719470N01256145EA0238402592117000
B0945134719408N01256237EA0238302592118000
B0945174719341N01256329EA0239202600122000
B0945214719279N01256420EA0241702624108000
K094521284012
B0945254719225N01256504EA0243402640096000
B0945294719158N01256541EA0244502648088000
B0945334719100N01256495EA0244302648097000
B0945374719083N01256412EA0243802640092000
B0945414719120N01256350EA0242102624105000
K094541278013
B0945454719187N01256366EA0242102624099000
B0945494719229N01256450EA0242502624093000
B0945534719241N01256558EA0242702624102000
B0945574719220N01256666EA0242602624101000
B0946014719183N01256770EA0241702624106000
K094601278013
B0946054719141N01256870EA0241502616113000
B0946094719095N01256970EA0241802616112000
B0946134719050N01257066EA0242602624104000
B0946174719000N01257162EA0243202632108000
B0946214718954N01257250EA0244402648101000
K094621278013
B0946254718904N01257333EA0244602648096000
B0946294718854N01257412EA0243102632099000
B0946334718800N01257500EA0241502616109000
B0946374718737N01257591EA0240202600113000
B0946414718675N01257687EA0239802600112000
K094641340011
B0946454718612N01257783EA0239702600116000
B0946494718550N01257883EA0239302592118000
B0946534718487N01257991EA0239502600121000
B0946574718429N01258095EA0239802600121000
B0947014718366N01258191EA0239702600119000
K094701344017
B0947054718300N01258287EA0239902600115000
B0947094718237N01258379EA0239602600115000
B0947134718175N01258466EA0238902592120000
B0947174718108N01258554EA0238102584118000
B0947214718037N01258641EA0236402568123000
K094721312013
B0947254717966N01258729EA0234802552128000
B0947294717891N01258825EA0233102536132000
B0947334717812N01258920EA0231902520135000
B0947374717729N01259016EA0230102504141000
B0947414717645N01259112EA0229302496142000
K094741332013
B0947454717558N01259208EA0228402488140000
B0947494717475N01259304EA0227202480139000
B0947534717383N01259400EA0225602456150000
B0947574717287N01259491EA0225802456146000
B0948014717195N01259579EA0225702456139000
K094801298020
B0948054717100N01259662EA0226302464141000
B0948094717012N01259741EA0228002480127000
B0948134716929N01259808EA0228802488121000
B0948174716850N01259875EA0229002488119000
B0948214716766N01259937EA0228802488119000
K094821284031
B0948254716687N01259995EA0228302488122000
B0948294716608N01300054EA0228302480117000
B0948334716529N01300116EA0228202488114000
B0948374716450N01300179EA0227802480116000
B0948414716370N01300241EA0227302472118000
K094841290022
B0948454716287N01300308EA0226902472120000
B0948494716204N01300366EA0226802472121000
B0948534716125N01300425EA0226902472114000
B0948574716041N01300483EA0226502464115000
B0949014715962N01300545EA0226202464115000
K094901288024
B0949054715879N01300604EA0226402464115000
B0949094715800N01300666EA0226302464116000
B0949134715720N01300725EA0226302464112000
B0949174715641N01300783EA0226402464110000
B0949214715562N01300845EA0226002464109000
K094921292024
B0949254715487N01300904EA0225302456111000
B0949294715408N01300966EA0224602448113000
B0949334715329N01301029EA0224002440113000
B0949374715250N01301087EA0223102432115000
B0949414715166N01301150EA0222402424115000
K094941298022
B0949454715087N01301216EA0221502416119000
B0949494715004N01301283EA0220802408118000
B0949534714925N01301358EA0220002400119000
B0949574714845N01301437EA0219502392119000
B0950014714770N01301520EA0218502384122000
K095001320020
B0950054714700N01301625EA0217202376123000
B0950094714633N01301737EA0216102360133000
B0950134714579N01301862EA0216302360131000
B0950174714533N01301995EA0216602368132000
B0950214714487N01302125EA0217502376121000
K095021344024
B0950254714454N01302250EA0220102400121000
B0950294714466N01302362EA0222402424096000
B0950334714525N01302400EA0219902400109000
B0950374714575N01302345EA0218902384112000
B0950414714570N01302254EA0218802384106000
K095041350026
B0950454714512N01302195EA0218002376108000
B0950494714433N01302229EA0218002376121000
B0950534714366N01302312EA0219102392115000
B0950574714308N01302400EA0218602384114000
B0951014714250N01302487EA0217502368117000
K095101350026
B0951054714175N01302566EA0218402376126000
B0951094714104N01302637EA0221102400112000
B0951134714045N01302712EA0222502416095000
B0951174714033N01302816EA0222402416094000
B0951214714058N01302908EA0221702408104000
K095121350026
B0951254714050N01303016EA0221402408103000
B0951294713979N01303079EA0221602408103000
B0951334713895N01303087EA0220302400111000
B0951374713812N01303079EA0219502392111000
B0951414713725N01303058EA0217202368128000
K095141350026
B0951454713637N01303033EA0216302360128000
B0951494713550N01303008EA0215902360127000
B0951534713458N01302987EA0216202360126000
B0951574713370N01302966EA0215502352124000
B0952014713287N01302941EA0215402352121000
K095201314025
B0952054713204N01302920EA0214902344124000
B0952094713120N01302895EA0214602344124000
B0952134713037N01302870EA0213902336121000
B0952174712954N01302841EA0213302328122000
B0952214712866N01302825EA0213002328119000
K095221300019
B0952254712775N01302812EA0212102320124000
B0952294712683N01302800EA0212102320128000
B0952334712591N01302787EA0212802320131000
B0952374712504N01302775EA0213502336119000
B0952414712416N01302758EA0213602336120000
K095241312014
B0952454712333N01302745EA0213302328117000
B0952494712250N01302725EA0212902328118000
B0952534712162N01302700EA0212002320122000
B0952574712079N01302679EA0211802312121000
B0953014711991N01302658EA0211702312117000
K095301308016
B0953054711904N01302645EA0211602312117000
B0953094711812N01302633EA0211502312124000
B0953134711720N01302625EA0211702312123000
B0953174711633N01302616EA0212102320119000
B0953214711545N01302625EA0212602320113000
K095321354011
B0953254711462N01302645EA0212202320124000
B0953294711375N01302666EA0211502312116000
B0953334711287N01302679EA0211002304123000
B0953374711204N01302683EA0210802304119000
B0953414711120N01302695EA0209102288115000
K095341348010
B0953454711033N01302712EA0206302256129000
B0953494710937N01302733EA0206502256133000
B0953534710845N01302745EA0206602256125000
B0953574710758N01302758EA0207702272120000
B0954014710679N01302770EA0209902288107000
K095401342010
B0954054710612N01302795EA0211402304093000
B0954094710558N01302850EA0211502304101000
B0954134710541N01302941EA0212502312095000
B0954174710554N01303033EA0213002320094000
B0954214710612N01303066EA0213302320103000
K095421348010
B0954254710658N01303000EA0214702336096000
B0954294710625N01302904EA0215202344103000
B0954334710554N01302900EA0217002360099000
B0954374710529N01302983EA0217102368098000
B0954414710570N01303058EA0216702360103000
K095441026009
B0954454710633N01303045EA0217802376108000
B0954494710654N01302954EA0219402392100000
B0954534710612N01302875EA0220602400104000
B0954574710545N01302883EA0222302416080000
B0955014710520N01302962EA0222202416090000
K095501028008
B0955054710562N01303037EA0221502408097000
B0955094710625N01303033EA0222702424103000
B0955134710666N01302966EA0224002440092000
B0955174710654N01302870EA0224902448095000
B0955214710595N01302816EA0225902456100000
K095521040009
B0955254710533N01302854EA0226502464094000
B0955294710520N01302945EA0226202464098000
B0955334710566N01303012EA0226002456100000
B0955374710633N01303016EA0227702472095000
B0955414710683N01302958EA0229002488095000
K095541040006
B0955454710687N01302858EA0229902504093000
B0955494710637N01302791EA0231002512094000
B0955534710570N01302808EA0230902512092000
B0955574710537N01302900EA0230602504100000
B0956014710570N01302987EA0232202520095000
K095601034006
B0956054710633N01302995EA0233802544089000
B0956094710670N01302920EA0234502552096000
B0956134710658N01302825EA0235102552096000
B0956174710600N01302775EA0235902560087000
B0956214710537N01302808EA0235102560091000
K095621358004
B0956254710500N01302891EA0234902552098000
B0956294710508N01302987EA0236302568097000
B0956334710554N01303050EA0237002576094000
B0956374710612N01303083EA0238302584091000
B0956414710662N01303050EA0238602592094000
K095641022006
B0956454710670N01302958EA0239102592092000
B0956494710633N01302879EA0240202608094000
B0956534710570N01302862EA0240802616088000
B0956574710520N01302920EA0240502616095000
B0957014710516N01303016EA0241002616095000
K095701020003
B0957054710554N01303087EA0242002624095000
B0957094710616N01303100EA0242402632096000
B0957134710675N01303066EA0243002632091000
B0957174710695N01302979EA0242902640097000
B0957214710687N01302879EA0243402640097000
K095721032004
B0957254710637N01302820EA0244302648094000
B0957294710570N01302829EA0244502656098000
B0957334710533N01302908EA0245102656097000
B0957374710554N01303000EA0245102664098000
B0957414710616N01303033EA0245902664099000
K095741352003
B0957454710679N01303000EA0246602672097000
B0957494710708N01302916EA0247102680093000
B0957534710695N01302825EA0247302680099000
B0957574710658N01302745EA0248702696096000
B0958014710608N01302687EA0249702712089000
K095801270000
B0958054710541N01302679EA0249202704095000
B0958094710483N01302733EA0248902696099000
B0958134710445N01302833EA0249202704106000
B0958174710441N01302937EA0250402712096000
B0958214710466N01303025EA0250502720093000
K095821284001
B0958254710520N01303083EA0249802712106000
B0958294710587N01303066EA0250802720099000
B0958334710633N01302995EA0251402728096000
B0958374710625N01302900EA0252102736094000
B0958414710575N01302841EA0252402736101000
K095841292002
B0958454710504N01302858EA0252902744103000
B0958494710462N01302941EA0254302752099000
B0958534710487N01303033EA0254302760096000
B0958574710558N01303045EA0254802760103000
B0959014710604N01302975EA0255802776099000
K095901302003
B0959054710587N01302883EA0256102776098000
B0959094710525N01302837EA0256102784101000
B0959134710450N01302837EA0256402784104000
B0959174710375N01302862EA0257102784101000
B0959214710300N01302904EA0257602792104000
K095921302002
B0959254710225N01302954EA0257102792107000
B0959294710150N01303008EA0256302784114000
B0959334710070N01303066EA0255402776115000
B0959374709987N01303133EA0254102760123000
B0959414709900N01303200EA0251802736130000
K095941026011
B0959454709804N01303270EA0250402720142000
B0959494709708N01303333EA0250302720138000
B0959534709608N01303383EA0250402728137000
B0959574709508N01303420EA0250902728134000
B1000014709412N01303450EA0251202728122000
K100001290025
B1000054709316N01303470EA0250602728125000
B1000094709216N01303479EA0249202712132000
B1000134709116N01303479EA0248002696132000
B1000174709016N01303458EA0247102688129000
B1000214708916N01303420EA0245002664139000
K100021292048
B1000254708812N01303370EA0243202656142000
B1000294708708N01303316EA0241202632149000
B1000334708604N01303258EA0240602624153000
B1000374708504N01303195EA0240802624144000
B1000414708404N01303133EA0241002632154000
K100041310037
B1000454708312N01303066EA0243202648142000
B1000494708233N01303004EA0245002664128000
B1000534708154N01302937EA0244502664123000
B1000574708079N01302870EA0243202648129000
B1001014708000N01302791EA0241302632131000
K100101326018
B1001054707912N01302708EA0239802616145000
B1001094707829N01302629EA0240202616136000
B1001134707741N01302545EA0239802616141000
B1001174707658N01302462EA0239702616148000
B1001214707579N01302387EA0239402608143000
K100121332013
B1001254707495N01302312EA0239302608144000
B1001294707412N01302245EA0239702616134000
B1001334707329N01302183EA0239502616134000
B1001374707245N01302129EA0239202608127000
B1001414707154N01302075EA0239002608133000
K100141052005
B1001454707062N01302020EA0240302616130000
B1001494706975N01301975EA0243002640114000
B1001534706895N01301945EA0246102672100000
B1001574706829N01301891EA0247202688093000
B1002014706812N01301800EA0247602688091000
K100201038006
B1002054706862N01301754EA0247202688102000
B1002094706916N01301812EA0246902680110000
B1002134706925N01301920EA0248302696109000
B1002174706891N01302020EA0250902720094000
B1002214706829N01302050EA0251002728095000
K100221038006
B1002254706770N01301975EA0250302720110000
B1002294706775N01301866EA0251602728110000
B1002334706841N01301854EA0252802744103000
B1002374706862N01301962EA0253302752114000
B1002414706795N01302045EA0254202760114000
K100241336008
B1002454706720N01302008EA0255300000103000
B1002494706712N01301904EA0255702768111000
B1002534706775N01301883EA0257202784098000
B1002574706804N01301962EA0256502776101000
B1003014706770N01302062EA0257802792104000
K100301356013
B1003054706695N01302100EA0258702800097000
B1003094706629N01302054EA0258002792107000
B1003134706620N01301950EA0258102792107000
B1003174706670N01301887EA0259002800107000
B1003214706733N01301883EA0260002808101000
K100321348015
B1003254706775N01301958EA0260302816088000
B1003294706750N01302062EA0260302816105000
B1003334706670N01302095EA0260002808108000
B1003374706579N01302100EA0259502808111000
B1003414706495N01302104EA0260902824107000
K100341334012
B1003454706408N01302108EA0261102824118000
B1003494706325N01302116EA0263202840101000
B1003534706250N01302116EA0265002864091000
B1003574706175N01302112EA0265002864097000
B1004014706095N01302120EA0264702864103000
K100401332011
B1004054706016N01302141EA0263502848102000
B1004094705929N01302166EA0261602832114000
B1004134705833N01302200EA0260702824117000
B1004174705733N01302233EA0260402816127000
B1004214705637N01302275EA0259902816128000
K100421338016
B1004254705541N01302316EA0260002816124000
B1004294705450N01302362EA0260402816121000
B1004334705354N01302404EA0260502816117000
B1004374705262N01302450EA0260602816114000
B1004414705170N01302495EA0259502808117000
K100441322024
B1004454705075N01302533EA0258402800122000
B1004494704979N01302562EA0258502800121000
B1004534704883N01302575EA0258102792118000
B1004574704787N01302575EA0257502792120000
B1005014704691N01302566EA0257902792119000
K100501296042
B1005054704604N01302545EA0259302800111000
B1005094704520N01302529EA0259802816114000
B1005134704441N01302520EA0260502816096000
B1005174704362N01302516EA0259302808104000
B1005214704279N01302512EA0258002792111000
K100521312023
B1005254704187N01302520EA0256602784120000
B1005294704091N01302541EA0256302776131000
B1005334704000N01302566EA0257602792117000
B1005374703912N01302587EA0257902792113000
B1005414703825N01302608EA0258202800110000
K100541336015
B1005454703737N01302645EA0257802792112000
B1005494703658N01302704EA0257502792112000
B1005534703579N01302783EA0256402784124000
B1005574703508N01302879EA0258602800120000
B1006014703462N01302975EA0260802824096000
K100601340014
B1006054703437N01303075EA0259502808102000
B1006094703400N01303191EA0257502792118000
B1006134703354N01303312EA0256502776121000
B1006174703304N01303433EA0257102784121000
B1006214703250N01303550EA0256302776123000
K100621342015
B1006254703195N01303666EA0254702760127000
B1006294703133N01303787EA0254002752128000
B1006334703070N01303904EA0253502752134000
B1006374703004N01304016EA0253402752130000
B1006414702937N01304125EA0253602752126000
K100641332020
B1006454702866N01304229EA0253102744126000
B1006494702800N01304333EA0253202752125000
B1006534702729N01304433EA0253202752127000
B1006574702654N01304529EA0253902752124000
B1007014702587N01304620EA0255802776112000
K100701312020
B1007054702529N01304704EA0256902784105000
B1007094702466N01304779EA0257402784103000
B1007134702400N01304854EA0257402784102000
B1007174702333N01304929EA0256902784109000
B1007214702262N01305004EA0257302784110000
K100721300017
B1007254702187N01305075EA0257602792108000
B1007294702116N01305141EA0257502792109000
B1007334702041N01305208EA0257502792112000
B1007374701966N01305283EA0257102784114000
B1007414701891N01305362EA0257002784114000
K100741320015
B1007454701820N01305450EA0256702784117000
B1007494701750N01305545EA0256302776119000
B1007534701683N01305650EA0255902776121000
B1007574701620N01305762EA0255502768123000
B1008014701575N01305891EA0255702776125000
K100801352020
B1008054701550N01306020EA0257002784114000
B1008094701533N01306154EA0257102784121000
B1008134701529N01306283EA0256902784124000
B1008174701529N01306416EA0256002776125000
B1008214701533N01306554EA0254702760131000
K100821340020
B1008254701550N01306691EA0253402752135000
B1008294701550N01306841EA0252402736139000
B1008334701533N01306995EA0251202728145000
B1008374701500N01307154EA0249802712147000
B1008414701450N01307312EA0249002704152000
K100841342025
B1008454701391N01307462EA0248102696157010
B1008494701333N01307612EA0247402688149010
B1008534701266N01307750EA0245302664147000
B1008574701200N01307891EA0242102632156000
B1009014701129N01308041EA0239502608169000
K100901326022
B1009054701058N01308191EA0237402584172000
B1009094700987N01308341EA0236502576173000
B1009134700920N01308495EA0236402576159000
B1009174700854N01308645EA0235602568164000
B1009214700791N01308795EA0233602552165000
K100921318019
B1009254700729N01308954EA0231502528169000
B1009294700666N01309112EA0229502504170000
B1009334700604N01309270EA0227902488176000
B1009374700545N01309433EA0229602504168010
B1009414700491N01309583EA0232302528153000
K100941330019
B1009454700441N01309720EA0232202528140000
B1009494700383N01309858EA0228202496159000
B1009534700325N01310008EA0225602464154000
B1009574700262N01310158EA0222902440158000
B1010014700195N01310304EA0221202424170000
K101001328018
B1010054700125N01310454EA0220002408174000
B1010094700062N01310595EA0220602416163000
