AZAN1KF ZANDER/SDI GP941 V2.06
HFDTE080508
HFFXA050
HFPLT Pilot             :FSG DaimlerChrysler                     
HFGTY Glider type       :                                        
HFGID Glider ID         :          
HFDTM100 GPS Datum      :WGS84
HFRFW Firmware Version  :06
HFRHW Hardware version  :2
HFFTY FR Type           :ZANDER/SDI GP941
HFGPS                   :Garmin,GPS25,12,30000
HFPRS Press Alt Sensor  :Intersema,MS5534A,10000
HFCCL Competition Class :                                        
HFCID Competition ID    :          
I023638IAS3941ENL
J020810WDI1113WVE
LZAN 075826 PowerOn
C230707091930230707000103
C5129383N01352766E SCHWARZHEIDE
C5129383N01352766E SCHWARZHEIDE
C5153950N01303350E OEHNA JUETER
C5211833N01435133E EISENHUETTEN
C5116416N01430383E KLIX        
C5129383N01352766E SCHWARZHEIDE
C5129383N01352766E SCHWARZHEIDE
B0758304749745N01128108EV0055500000000000
B0758344749745N01128108EV0055500000000000
B0758384749745N01128108EV0055500000000000
B0758424749745N01128108EV0055500000007000
B0758464749745N01128108EV0055500000000000
B0758504749745N01128108EV0055500000000000
B0758544749745N01128108EV0055500000000000
B0758584749745N01128108EV0055500000000000
B0759024749745N01128108EV0055500000000000
B0759064749745N01128108EV0055500000000000
B0759104749745N01128108EV0055500000000000
B0759144749745N01128108EV0055500000007000
B0759184749745N01128108EV0055500000000000
LZAN 075918 PowerOff
LZAN 080102 PowerOn
B0801064749745N01128108EV0055500000009000
B0801104749745N01128108EV0055500000007000
B0801144749745N01128108EV0055500000009000
B0801184749745N01128108EV0055500000000000
B0801224749745N01128108EV0055500000009000
B0801264749745N01128108EV0055500000012000
B0801304749745N01128108EV0055500000007016
B0801344749745N01128108EV0055500000007008
B0801384749745N01128108EV0055500000000000
B0801424749745N01128108EV0055500000009008
B0801464749745N01128108EV0055600000009000
B0801504749745N01128108EV0055600000009000
B0801544749754N01128104EA0055600000007000
B0801584749750N01128104EA0055600000009000
B0802024749754N01128100EA0055600000009000
B0802064749754N01128100EA0055600000009000
B0802104749754N01128104EA0055600000000000
B0802144749754N01128104EA0055600000009000
B0802184749754N01128104EA0055600000000000
B0802224749754N01128104EA0055600000009000
B0802264749754N01128104EA0055600624009000
B0802304749754N01128104EA0055600624012000
B0802344749754N01128104EA0055600616012000
B0802384749754N01128104EA0055600616009000
B0802424749754N01128104EA0055600616009000
B0802464749754N01128104EA0055600616009000
B0802504749754N01128104EA0055600616009000
B0802544749754N01128104EA0055600624009000
B0802584749754N01128104EA0055600624009000
B0803024749754N01128104EA0055600624009000
B0803064749754N01128104EA0055600624007000
B0803104749750N01128104EA0055600624009000
B0803144749750N01128104EA0055600624009000
B0803184749750N01128104EA0055600624009000
B0803224749750N01128104EA0055600616009000
B0803264749750N01128104EA0055600616009000
LZAN 080329 PowerOff
LZAN 080336 PowerOn
B0803384749750N01128104EV0055600000009000
B0803424749750N01128104EV0055600000009000
B0803464749750N01128104EV0055600000009000
B0803504749750N01128104EV0055600000009000
B0803544749750N01128104EV0055600000009000
B0803584749741N01128104EA0055600000009000
B0804024749750N01128104EA0055600608009000
B0804064749750N01128100EA0055600608012000
B0804104749745N01128104EA0055600616009000
B0804144749741N01128112EA0055600632009000
B0804184749741N01128112EA0055600632012000
B0804224749737N01128116EA0055500632009000
B0804264749741N01128112EA0055500632012000
B0804304749741N01128112EA0055500632012000
B0804344749737N01128112EA0055500632012000
B0804384749741N01128112EA0055500632000000
B0804424749741N01128108EA0055500624000000
B0804464749741N01128108EA0055500624000000
B0804504749741N01128108EA0055500624000000
B0804544749741N01128108EA0055500624000000
B0804584749741N01128108EA0055500624000036
B0805024749745N01128108EA0055500624000016
B0805064749745N01128108EA0055500616000032
B0805104749745N01128104EA0055500616000032
B0805144749745N01128104EA0055500616000000
B0805184749745N01128104EA0055500616000016
B0805224749745N01128104EA0055500616000000
B0805264749750N01128104EA0055500616000000
B0805304749750N01128104EA0055500616000000
B0805344749750N01128104EA0055500616000000
B0805384749750N01128104EA0055500616000000
B0805424749750N01128104EA0055500616000000
B0805464749750N01128104EA0055500624000000
B0805504749750N01128104EA0055500616000000
B0805544749750N01128104EA0055500616000000
B0805584749754N01128100EA0055500616000000
B0806024749754N01128100EA0055500616000000
B0806064749754N01128100EA0055500616000000
B0806104749754N01128100EA0055500616000000
B0806144749754N01128100EA0055500616000000
B0806184749754N01128104EA0055500616000000
B0806224749754N01128104EA0055500616000000
B0806264749754N01128104EA0055500616000000
B0806304749754N01128104EA0055500616000000
B0806344749754N01128100EA0055500616000000
B0806384749754N01128100EA0055500616000000
B0806424749754N01128100EA0055500616000000
B0806464749754N01128100EA0055500616000000
B0806504749754N01128100EA0055500616000000
B0806544749754N01128100EA0055500616000000
B0806584749754N01128100EA0055500616000000
B0807024749754N01128100EA0055500616000000
B0807064749754N01128100EA0055500608000000
B0807104749754N01128100EA0055500616000000
B0807144749754N01128100EA0055500608000000
B0807184749754N01128100EA0055500608000000
B0807224749754N01128100EA0055500608000000
B0807264749754N01128100EA0055500608000000
B0807304749758N01128095EA0055500608000000
B0807344749758N01128095EA0055500608000000
B0807384749758N01128095EA0055500608007000
B0807424749758N01128095EA0055500608000000
B0807464749758N01128100EA0055500608000000
B0807504749758N01128100EA0055500608000000
B0807544749758N01128100EA0055500608000000
B0807584749758N01128100EA0055500608000000
B0808024749758N01128100EA0055500608000000
B0808064749758N01128100EA0055500608000000
B0808104749758N01128100EA0055500608000000
B0808144749758N01128100EA0055500608007000
B0808184749758N01128100EA0055500600000000
B0808224749758N01128100EA0055500600000000
B0808264749758N01128100EA0055500600000000
B0808304749758N01128100EA0055500600007000
B0808344749758N01128100EA0055500608007000
B0808384749758N01128100EA0055500608007000
B0808424749758N01128100EA0055500608000000
B0808464749758N01128100EA0055500608007000
B0808504749758N01128100EA0055500608007000
B0808544749758N01128100EA0055500608000000
B0808584749758N01128100EA0055500608000000
B0809024749758N01128100EA0055500616007000
B0809064749758N01128100EA0055500616007000
B0809104749758N01128100EA0055500616007000
B0809144749758N01128100EA0055500616007000
B0809184749758N01128100EA0055500616000000
B0809224749758N01128100EA0055500616000000
B0809264749758N01128100EA0055500616000000
B0809304749758N01128100EA0055500616007000
B0809344749758N01128100EA0055500616000000
B0809384749758N01128100EA0055500616007000
B0809424749758N01128100EA0055500616007000
B0809464749758N01128100EA0055500616007000
B0809504749758N01128100EA0055500616007000
B0809544749758N01128100EA0055500616000000
B0809584749758N01128100EA0055500608007000
B0810024749758N01128100EA0055500608007000
B0810064749758N01128100EA0055500608007000
B0810104749758N01128100EA0055500608007000
B0810144749758N01128095EA0055500600007000
B0810184749758N01128095EA0055500600007000
B0810224749758N01128095EA0055500600007000
B0810264749758N01128095EA0055500600007000
B0810304749758N01128095EA0055500600009000
B0810344749758N01128095EA0055500592007000
B0810384749758N01128095EA0055500592007000
B0810424749758N01128095EA0055500592009000
B0810464749758N01128091EA0055500592000000
B0810504749758N01128091EA0055500592007000
B0810544749758N01128095EA0055500592007000
B0810584749754N01128095EA0055400600007000
B0811024749754N01128095EA0055400600007000
B0811064749754N01128095EA0055400600007000
B0811104749754N01128095EA0055400600009000
B0811144749754N01128095EA0055400600000000
B0811184749754N01128095EA0055400600009000
B0811224749754N01128095EA0055400600012000
B0811264749754N01128095EA0055400600009000
B0811304749754N01128095EA0055400600012000
B0811344749754N01128095EA0055400600009000
B0811384749754N01128095EA0055400608009000
B0811424749754N01128095EA0055400608009000
B0811464749754N01128095EA0055400608012000
B0811504749754N01128095EA0055400608009000
B0811544749754N01128095EA0055400608009000
B0811584749754N01128095EA0055400608009000
B0812024749754N01128095EA0055400608014032
B0812064749754N01128095EA0055400608014016
B0812104749754N01128095EA0055400608012032
B0812144749754N01128095EA0055400608012032
B0812184749754N01128095EA0055400608014016
B0812224749754N01128095EA0055400608009024
B0812264749754N01128095EA0055400608012016
B0812304749754N01128095EA0055400608009016
B0812344749754N01128095EA0055400608009000
B0812384749754N01128095EA0055400608009008
B0812424749754N01128095EA0055400600012000
B0812464749754N01128095EA0055400600012000
B0812504749754N01128095EA0055400600009000
B0812544749754N01128095EA0055400600015000
B0812584749754N01128095EA0055400600012000
B0813024749750N01128095EA0055400608014000
B0813064749750N01128100EA0055400608012000
B0813104749750N01128100EA0055400608012000
B0813144749750N01128100EA0055400608009000
B0813184749750N01128100EA0055400608015000
B0813224749750N01128100EA0055400608014000
B0813264749750N01128100EA0055400608014000
B0813304749750N01128100EA0055400608012000
B0813344749750N01128100EA0055400608000000
B0813384749750N01128100EA0055400608012000
B0813424749750N01128100EA0055400608014000
B0813464749750N01128100EA0055400608014000
B0813504749750N01128100EA0055400608012000
B0813544749754N01128100EA0055400608012000
B0813584749754N01128100EA0055400608009000
B0814024749754N01128100EA0055400608014000
B0814064749754N01128095EA0055400608014000
B0814104749754N01128095EA0055400608015000
B0814144749754N01128095EA0055400608014000
B0814184749754N01128095EA0055400608014000
B0814224749758N01128095EA0055400600014000
B0814264749758N01128095EA0055400600009000
B0814304749758N01128095EA0055400600012000
B0814344749758N01128095EA0055400600009000
B0814384749758N01128095EA0055400600000000
B0814424749758N01128095EA0055400600000000
B0814464749758N01128095EA0055400600000000
B0814504749758N01128095EA0055400600000000
B0814544749758N01128095EA0055400600007000
B0814584749758N01128095EA0055400600007000
B0815024749758N01128095EA0055400608000000
B0815064749758N01128095EA0055400608000000
B0815104749758N01128095EA0055400608000000
B0815144749758N01128095EA0055400608000000
B0815184749758N01128095EA0055400608000000
B0815224749758N01128095EA0055400608000000
B0815264749758N01128095EA0055400608000000
B0815304749758N01128095EA0055400608000000
B0815344749758N01128095EA0055400608000000
B0815384749758N01128095EA0055400600000000
B0815424749758N01128095EA0055400600000000
B0815464749758N01128095EA0055400608000000
B0815504749758N01128095EA0055400608000000
B0815544749758N01128095EA0055400608000000
B0815584749754N01128100EA0055400608000000
B0816024749754N01128100EA0055400616000000
B0816064749754N01128100EA0055400616000000
B0816104749754N01128100EA0055400616000000
B0816144749754N01128100EA0055400616000000
B0816184749754N01128100EA0055400616000000
B0816224749754N01128100EA0055400616000000
B0816264749754N01128100EA0055400616000000
B0816304749754N01128100EA0055400608000000
B0816344749754N01128100EA0055400616000000
B0816384749754N01128095EA0055400608000000
B0816424749754N01128095EA0055400608000000
B0816464749754N01128095EA0055400608000000
B0816504749754N01128095EA0055400608000000
B0816544749754N01128095EA0055400608000000
B0816584749754N01128095EA0055400608000000
B0817024749758N01128100EA0055400608000000
B0817064749758N01128100EA0055400608000000
B0817104749758N01128100EA0055500608000000
B0817144749758N01128095EA0055500608000000
B0817184749758N01128100EA0055500608000000
B0817224749758N01128095EA0055500608000000
B0817264749758N01128095EA0055500608000000
B0817304749758N01128100EA0055500608000000
B0817344749758N01128095EA0055500608007000
B0817384749758N01128100EA0055500616007016
B0817424749758N01128100EA0055500608000008
B0817464749758N01128100EA0055500608007048
B0817504749758N01128100EA0055500608009032
B0817544749758N01128100EA0055500608000048
B0817584749758N01128095EA0055500608000048
B0818024749758N01128095EA0055600608000032
B0818064749758N01128095EA0055500608007040
B0818104749758N01128095EA0055600608000000
B0818144749758N01128095EA0055600600009016
B0818184749758N01128095EA0055500600007000
B0818224749758N01128095EA0055500600007000
B0818264749758N01128095EA0055600600000000
B0818304749758N01128095EA0055600600000000
B0818344749758N01128095EA0055600600007016
B0818384749758N01128095EA0055600600009008
B0818424749758N01128095EA0055600600007000
B0818464749758N01128095EA0055600600007008
B0818504749758N01128095EA0055600592007000
B0818544749758N01128095EA0055600600007000
B0818584749758N01128095EA0055600600007000
B0819024749758N01128095EA0055600600007000
B0819064749758N01128095EA0055600600009000
B0819104749758N01128095EA0055500600007000
B0819144749758N01128095EA0055500600007000
B0819184749758N01128095EA0055500600000000
B0819224749758N01128095EA0055500600007000
B0819264749754N01128095EA0055500600009000
B0819304749754N01128095EA0055500600007032
B0819344749754N01128095EA0055500608000016
B0819384749754N01128100EA0055500608007016
B0819424749754N01128100EA0055500608007024
B0819464749754N01128100EA0055500608007016
B0819504749754N01128100EA0055500608007016
B0819544749750N01128100EA0055500608007000
B0819584749750N01128100EA0055500608007008
B0820024749750N01128100EA0055500608007000
B0820064749750N01128100EA0055500608007000
B0820104749750N01128100EA0055500608007000
B0820144749750N01128100EA0055500608007000
B0820184749750N01128100EA0055500608000000
B0820224749754N01128100EA0055500608007000
B0820264749754N01128100EA0055500608000000
B0820304749754N01128100EA0055500608007000
B0820344749754N01128100EA0055500608007000
B0820384749754N01128100EA0055500608007000
B0820424749754N01128095EA0055500608007000
B0820464749754N01128095EA0055500608007000
B0820504749754N01128095EA0055500608007000
B0820544749754N01128108EA0055500600007000
B0820584749762N01128091EA0055500600007000
B0821024749758N01128095EA0055500600007000
B0821064749762N01128091EA0055500600007000
B0821104749762N01128091EA0055500600007000
B0821144749766N01128091EA0055500600007000
B0821184749766N01128091EA0055500600000000
B0821224749766N01128091EA0055500600007000
B0821264749766N01128091EA0055500600007000
B0821304749762N01128091EA0055500600007000
B0821344749762N01128095EA0055500600007000
B0821384749762N01128095EA0055500600007000
B0821424749762N01128095EA0055500600007000
B0821464749762N01128095EA0055500600007000
B0821504749758N01128095EA0055500608007000
B0821544749762N01128095EA0055500608007000
B0821584749758N01128095EA0055500608009000
B0822024749758N01128095EA0055500608007000
B0822064749758N01128095EA0055500608009000
B0822104749758N01128095EA0055500608007000
B0822144749758N01128095EA0055500608009000
B0822184749758N01128095EA0055500608007000
B0822224749758N01128095EA0055500608009000
B0822264749758N01128095EA0055500608009000
B0822304749758N01128095EA0055500608007000
B0822344749758N01128095EA0055500608007000
B0822384749758N01128095EA0055500608007000
B0822424749758N01128095EA0055500608009000
B0822464749758N01128095EA0055500608007000
B0822504749758N01128095EA0055500608009000
B0822544749758N01128100EA0055500608009000
B0822584749758N01128100EA0055500608009000
B0823024749758N01128100EA0055500608007000
B0823064749758N01128100EA0055500608007000
B0823104749758N01128100EA0055500608007000
B0823144749758N01128100EA0055500608007000
B0823184749758N01128100EA0055500608007000
B0823224749758N01128100EA0055500608007000
B0823264749758N01128100EA0055500608007000
B0823304749758N01128100EA0055500608000000
B0823344749758N01128100EA0055500608000000
B0823384749758N01128100EA0055500608000000
B0823424749758N01128100EA0055500608007000
B0823464749758N01128100EA0055500608009000
B0823504749758N01128100EA0055500608007000
B0823544749758N01128100EA0055500608007000
B0823584749758N01128100EA0055500608007000
B0824024749758N01128100EA0055500608007000
B0824064749758N01128100EA0055500608007000
B0824104749758N01128100EA0055500608007000
B0824144749758N01128100EA0055500608000000
B0824184749758N01128100EA0055500608007000
B0824224749758N01128100EA0055500608007000
B0824264749758N01128100EA0055500608000000
B0824304749758N01128100EA0055500608009000
B0824344749758N01128100EA0055500608000000
B0824384749758N01128100EA0055500608000000
B0824424749758N01128100EA0055500608000000
B0824464749758N01128100EA0055500608000000
B0824504749758N01128100EA0055500608000000
B0824544749758N01128100EA0055500608000000
B0824584749758N01128100EA0055500608000000
B0825024749758N01128100EA0055500608000000
B0825064749758N01128100EA0055500608000000
B0825104749758N01128100EA0055500608000000
B0825144749758N01128100EA0055500608000000
B0825184749758N01128100EA0055500608000000
B0825224749758N01128100EA0055500608000000
B0825264749758N01128100EA0055500608000000
B0825304749758N01128095EA0055500608000000
B0825344749758N01128095EA0055500608000000
B0825384749754N01128091EA0055500608000016
B0825424749754N01128087EA0055500608000008
B0825464749750N01128083EA0055500608000048
B0825504749750N01128079EA0055500608000032
B0825544749745N01128079EA0055500608000032
B0825584749745N01128075EA0055500600000040
B0826024749741N01128070EA0055500600000032
B0826064749741N01128066EA0055500600000032
B0826104749741N01128062EA0055500600000004
B0826144749741N01128058EA0055500600007016
B0826184749741N01128054EA0055500600000020
B0826224749741N01128050EA0055500600000012
B0826264749741N01128045EA0055500600000020
B0826304749741N01128041EA0055500600000020
B0826344749741N01128037EA0055500600000004
B0826384749741N01128029EA0055500600000012
B0826424749741N01128025EA0055500600000004
B0826464749741N01128020EA0055500600000004
B0826504749745N01128016EA0055500600000020
B0826544749745N01128012EA0055500600000012
B0826584749745N01128008EA0055500600000020
B0827024749745N01128004EA0055500600000020
B0827064749745N01128000EA0055500600000004
B0827104749745N01127995EA0055500600000012
B0827144749745N01127991EA0055500600000004
B0827184749745N01127991EA0055500600007004
B0827224749745N01127991EA0055500600000016
B0827264749745N01127987EA0055500600000008
B0827304749745N01127983EA0055500600000016
B0827344749750N01127975EA0055500600000016
B0827384749750N01127970EA0055500600000020
B0827424749750N01127966EA0055500600000016
B0827464749750N01127962EA0055500600000036
B0827504749750N01127958EA0055500600000028
B0827544749750N01127950EA0055500600000020
B0827584749750N01127945EA0055500600000028
B0828024749750N01127941EA0055500600000020
B0828064749754N01127937EA0055500600000020
B0828104749754N01127933EA0055500600000004
B0828144749754N01127929EA0055500600000012
B0828184749754N01127920EA0055500600000004
B0828224749754N01127916EA0055500600000004
B0828264749754N01127912EA0055500600009020
B0828304749754N01127908EA0055500600007012
B0828344749758N01127904EA0055500600000004
B0828384749758N01127900EA0055500600000012
B0828424749758N01127895EA0055500600000020
B0828464749758N01127887EA0055500600007012
B0828504749758N01127883EA0055500600007004
B0828544749758N01127883EA0055500600000012
B0828584749758N01127883EA0055500600009032
B0829024749758N01127879EA0055500600000016
B0829064749758N01127879EA0055500600000000
B0829104749762N01127875EA0055500600000016
B0829144749762N01127870EA0055500600000032
B0829184749762N01127866EA0055500600000016
B0829224749762N01127862EA0055500600007048
B0829264749762N01127858EA0055300600000040
B0829304749762N01127854EA0055300600000004
B0829344749762N01127845EA0055300600000024
B0829384749762N01127845EA0055300600000004
B0829424749766N01127837EA0055300600000004
B0829464749766N01127833EA0055300600000004
B0829504749766N01127829EA0055300600000004
B0829544749766N01127825EA0055300600000004
B0829584749766N01127820EA0055300600000004
B0830024749766N01127816EA0055300600000004
B0830064749766N01127812EA0055300600007004
B0830104749766N01127808EA0055300600000004
B0830144749770N01127804EA0055300600000004
B0830184749770N01127800EA0055300600007004
B0830224749770N01127795EA0055300600000004
B0830264749770N01127795EA0055300600000048
B0830304749770N01127791EA0055300600000024
B0830344749770N01127787EA0055300600000032
B0830384749770N01127787EA0055300600000040
B0830424749770N01127783EA0055300600000032
B0830464749770N01127783EA0055300600007032
B0830504749770N01127783EA0055300600007000
B0830544749770N01127783EA0055300600007016
B0830584749770N01127783EA0055300600000032
B0831024749770N01127783EA0055300600000016
B0831064749770N01127779EA0055300600000048
B0831104749770N01127775EA0055300600000040
B0831144749770N01127770EA0055300600000032
B0831184749770N01127770EA0055300600000040
B0831224749770N01127766EA0055300600000004
B0831264749775N01127762EA0055300600007016
B0831304749775N01127762EA0055300600009048
B0831344749770N01127762EA0055300600007024
B0831384749770N01127762EA0055300600007000
B0831424749770N01127762EA0055300600000024
B0831464749770N01127762EA0055300600000000
B0831504749770N01127762EA0055300600000000
B0831544749770N01127762EA0055300600007000
B0831584749770N01127762EA0055300600007000
B0832024749770N01127762EA0055300600007000
B0832064749770N01127762EA0055300600007000
B0832104749770N01127762EA0055300600007000
B0832144749770N01127762EA0055300600000000
B0832184749770N01127762EA0055300600000000
B0832224749770N01127762EA0055300600000000
B0832264749770N01127762EA0055300600000000
B0832304749770N01127762EA0055300600009000
B0832344749770N01127762EA0055300600007000
B0832384749770N01127762EA0055300600007000
B0832424749770N01127762EA0055300600007000
B0832464749770N01127762EA0055300600007000
B0832504749770N01127762EA0055300600007000
B0832544749770N01127762EA0055300600000000
B0832584749770N01127762EA0055300600000000
B0833024749770N01127762EA0055300600007000
B0833064749770N01127762EA0055300600007000
B0833104749770N01127762EA0055300600000000
B0833144749770N01127762EA0055300600007000
B0833184749770N01127762EA0055300600007000
B0833224749770N01127762EA0055300600000000
B0833264749770N01127762EA0055300600000000
B0833304749770N01127762EA0055300600000008
B0833344749770N01127762EA0055300600000004
B0833384749770N01127762EA0055300600000004
B0833424749770N01127762EA0055300600000008
B0833464749770N01127762EA0055300600012000
B0833504749770N01127762EA0055300600000000
B0833544749770N01127762EA0055300600000000
B0833584749770N01127762EA0055300600014000
B0834024749770N01127762EA0055300600012000
B0834064749770N01127762EA0055300600009000
B0834104749770N01127762EA0055300600014000
B0834144749770N01127762EA0055300600009000
B0834184749770N01127762EA0055300600009000
B0834224749770N01127762EA0055300600009000
B0834264749770N01127762EA0055300600009000
B0834304749770N01127762EA0055300600012000
B0834344749770N01127762EA0055300600007000
B0834384749770N01127762EA0055300600007000
B0834424749770N01127762EA0055300600007000
B0834464749770N01127762EA0055300600007000
B0834504749770N01127762EA0055300600007000
B0834544749770N01127762EA0055300600000000
B0834584749770N01127762EA0055300600000000
B0835024749770N01127762EA0055300600000000
B0835064749770N01127762EA0055300600000000
B0835104749770N01127762EA0055300600007000
B0835144749770N01127762EA0055300600014000
B0835184749770N01127762EA0055300600007000
B0835224749770N01127762EA0055300600000000
B0835264749770N01127762EA0055300600009000
B0835304749770N01127762EA0055300600007000
B0835344749770N01127762EA0055300600007000
B0835384749770N01127762EA0055300600007000
B0835424749770N01127762EA0055300600000000
B0835464749770N01127762EA0055300600007000
B0835504749770N01127762EA0055300600000000
B0835544749770N01127762EA0055300600007000
B0835584749770N01127762EA0055300600000000
B0836024749770N01127762EA0055300600000000
B0836064749770N01127762EA0055300600000000
B0836104749770N01127762EA0055300600000000
B0836144749770N01127762EA0055300600000000
B0836184749770N01127762EA0055300600000000
B0836224749770N01127762EA0055300600000000
B0836264749770N01127762EA0055300600000000
B0836304749770N01127762EA0055300600007000
B0836344749770N01127762EA0055300600000000
B0836384749770N01127762EA0055400600000000
B0836424749770N01127762EA0055400600000000
B0836464749770N01127762EA0055400600000000
B0836504749770N01127762EA0055600600000000
B0836544749770N01127762EA0055600600000000
B0836584749770N01127762EA0055600600000000
B0837024749770N01127762EA0055600600000000
B0837064749770N01127762EA0055600600000000
B0837104749770N01127762EA0055600600000000
B0837144749770N01127762EA0055500600000000
B0837184749770N01127762EA0055500600000000
B0837224749770N01127762EA0055500600000000
B0837264749770N01127762EA0055500600000000
B0837304749770N01127762EA0055500600000000
B0837344749770N01127762EA0055500600000000
B0837384749770N01127762EA0055500600000000
B0837424749770N01127762EA0055500600000000
B0837464749770N01127762EA0055500600000000
B0837504749770N01127762EA0055500600000000
B0837544749770N01127762EA0055500600000000
B0837584749770N01127762EA0055500600000000
B0838024749770N01127762EA0055500600000000
B0838064749770N01127762EA0055500600000000
B0838104749770N01127762EA0055500600000000
B0838144749770N01127762EA0055500600007000
B0838184749770N01127762EA0055600600009000
B0838224749770N01127762EA0055600600007000
B0838264749770N01127762EA0055600600007000
B0838304749770N01127762EA0055600600009000
B0838344749770N01127762EA0055600600000000
B0838384749770N01127762EA0055500600007000
B0838424749770N01127762EA0055500600000000
B0838464749770N01127762EA0055500600007000
B0838504749770N01127762EA0055500600000000
B0838544749770N01127762EA0055500600000000
B0838584749770N01127762EA0055500600000000
B0839024749770N01127762EA0055500600000000
B0839064749770N01127762EA0055500600000000
B0839104749770N01127762EA0055500600000000
B0839144749770N01127762EA0055500600000000
B0839184749770N01127762EA0055500600000000
B0839224749770N01127762EA0055500600000000
B0839264749770N01127762EA0055500600000000
B0839304749770N01127762EA0055500600000000
B0839344749770N01127762EA0055500600000000
B0839384749770N01127762EA0055500600000000
B0839424749770N01127762EA0055500600000000
B0839464749770N01127762EA0055500600000000
B0839504749770N01127762EA0055500600000000
B0839544749770N01127762EA0055500600000000
B0839584749770N01127762EA0055500600000000
B0840024749770N01127762EA0055500600007000
B0840064749770N01127762EA0055500600000000
B0840104749770N01127762EA0055500600000000
B0840144749770N01127762EA0055500600007000
B0840184749770N01127762EA0055500600007000
B0840224749770N01127762EA0055500600000000
B0840264749770N01127762EA0055600600000000
B0840304749770N01127762EA0055600600007000
B0840344749770N01127762EA0055500600000000
B0840384749770N01127762EA0055500600000000
B0840424749770N01127762EA0055600600000000
B0840464749770N01127762EA0055600600000000
B0840504749770N01127762EA0055600600000000
B0840544749770N01127762EA0055500600000000
B0840584749770N01127762EA0055500600000000
B0841024749775N01127758EA0055500600000000
B0841064749775N01127754EA0055500600000016
B0841104749775N01127750EA0055500600000008
B0841144749775N01127745EA0055500600000036
B0841184749775N01127745EA0055500600000024
B0841224749775N01127745EA0055500600007016
B0841264749775N01127745EA0055500600009024
B0841304749775N01127745EA0055500600012000
B0841344749775N01127745EA0055600600007008
B0841384749775N01127745EA0055600600000000
B0841424749775N01127745EA0055600600000000
B0841464749775N01127745EA0055600600000048
B0841504749775N01127745EA0055600600000024
B0841544749775N01127745EA0055600600000000
B0841584749775N01127745EA0055600600000024
B0842024749775N01127745EA0055600600000000
B0842064749775N01127745EA0055600600000000
B0842104749770N01127750EA0055600600000000
B0842144749775N01127750EA0055600600000000
B0842184749775N01127750EA0055600600000000
B0842224749775N01127750EA0055600600000000
B0842264749775N01127750EA0055600600000000
B0842304749775N01127750EA0055600600000000
B0842344749775N01127754EA0055600608000000
B0842384749775N01127750EA0055600608000000
B0842424749775N01127750EA0055600600000000
B0842464749775N01127750EA0055600600000000
B0842504749775N01127750EA0055600608000000
B0842544749775N01127750EA0055600608000000
B0842584749775N01127750EA0055600608000000
B0843024749775N01127754EA0055600608000000
B0843064749775N01127754EA0055600608000000
B0843104749775N01127750EA0055600608000000
B0843144749775N01127750EA0055600608000000
B0843184749775N01127750EA0055600608000000
B0843224749775N01127750EA0055600600000000
B0843264749775N01127750EA0055600600000000
B0843304749775N01127750EA0055600600000000
B0843344749775N01127750EA0055600600000000
B0843384749770N01127750EA0055600600000000
B0843424749770N01127750EA0055600600000000
B0843464749770N01127750EA0055600600000000
B0843504749770N01127750EA0055600600000000
B0843544749770N01127750EA0055600600000000
B0843584749770N01127750EA0055600600000000
B0844024749775N01127750EA0055600600007000
B0844064749775N01127750EA0055600600000000
B0844104749775N01127750EA0055600600007000
B0844144749775N01127750EA0055600600000000
B0844184749775N01127750EA0055600600000000
B0844224749775N01127750EA0055600600000000
B0844264749775N01127750EA0055500600000000
B0844304749775N01127750EA0055500600000000
B0844344749775N01127750EA0055500600000000
B0844384749775N01127750EA0055500600000000
B0844424749775N01127750EA0055500600000000
B0844464749775N01127750EA0055500600000000
B0844504749775N01127750EA0055500600000000
B0844544749775N01127750EA0055500600000000
B0844584749775N01127750EA0055500600000000
B0845024749775N01127750EA0055500600000000
B0845064749775N01127750EA0055500600007000
B0845104749775N01127750EA0055500600007000
B0845144749775N01127750EA0055500600007000
B0845184749775N01127750EA0055500600007000
B0845224749775N01127750EA0055500600007000
B0845264749775N01127750EA0055500600007000
B0845304749775N01127750EA0055500600000000
B0845344749775N01127750EA0055500600000000
B0845384749775N01127750EA0055500600000000
B0845424749775N01127750EA0055500600000000
B0845464749775N01127750EA0055500600007000
B0845504749775N01127750EA0055500600007000
B0845544749775N01127750EA0055500600000000
B0845584749775N01127750EA0055500600000000
B0846024749775N01127750EA0055500600000000
B0846064749775N01127750EA0055500600000000
B0846104749775N01127750EA0055500600000000
B0846144749775N01127750EA0055500600007000
B0846184749775N01127750EA0055500600007000
B0846224749775N01127750EA0055500600007000
B0846264749775N01127750EA0055500600000000
B0846304749775N01127750EA0055500592000000
B0846344749775N01127750EA0055500592000000
B0846384749775N01127750EA0055500600000000
B0846424749775N01127750EA0055500600000000
B0846464749770N01127750EA0055500592000000
B0846504749770N01127750EA0055500592000000
B0846544749775N01127750EA0055500592000000
B0846584749775N01127750EA0055500600000000
B0847024749775N01127750EA0055500600000000
B0847064749775N01127750EA0055500600000000
B0847104749775N01127750EA0055500600000000
B0847144749775N01127750EA0055500600000000
B0847184749775N01127750EA0055500600000000
B0847224749775N01127750EA0055500600000000
B0847264749775N01127750EA0055600600000000
B0847304749775N01127750EA0055600600000000
B0847344749775N01127750EA0055600600000000
B0847384749775N01127750EA0055600600000000
B0847424749775N01127750EA0055600600007000
B0847464749775N01127750EA0055600600007000
B0847504749775N01127750EA0055600600007000
B0847544749775N01127750EA0055600600000000
B0847584749775N01127750EA0055600600000000
B0848024749775N01127750EA0055500600000000
B0848064749775N01127750EA0055600600000000
B0848104749775N01127750EA0055600600000000
B0848144749775N01127750EA0055500600000000
B0848184749775N01127750EA0055500600007000
B0848224749775N01127750EA0055600600009000
B0848264749775N01127750EA0055600600000000
B0848304749775N01127750EA0055600600000000
B0848344749775N01127750EA0055600600007000
B0848384749775N01127750EA0055600600007000
B0848424749775N01127750EA0055600600007000
B0848464749775N01127750EA0055600600000000
B0848504749775N01127750EA0055600600000000
B0848544749775N01127750EA0055600600000000
B0848584749775N01127750EA0055600600000000
B0849024749775N01127750EA0055600600000000
B0849064749775N01127750EA0055600600000000
B0849104749775N01127750EA0055600600007000
B0849144749775N01127750EA0055600600000016
B0849184749775N01127750EA0055600600000008
B0849224749775N01127750EA0055600600000032
B0849264749775N01127750EA0055600600007024
B0849304749775N01127750EA0055600600000032
B0849344749775N01127750EA0055600600000032
B0849384749775N01127750EA0055500600007032
B0849424749775N01127750EA0055600600000032
B0849464749775N01127750EA0055600600000032
B0849504749775N01127750EA0055600600000032
B0849544749775N01127750EA0055600600000016
B0849584749775N01127750EA0055600608000024
B0850024749775N01127750EA0055600600000000
B0850064749775N01127750EA0055600600000008
B0850104749775N01127750EA0055600600000016
B0850144749775N01127754EA0055600600000008
B0850184749775N01127754EA0055600608000000
B0850224749775N01127754EA0055600600000008
B0850264749775N01127754EA0055600600007000
B0850304749775N01127750EA0055600600000000
B0850344749775N01127750EA0055600600000000
B0850384749775N01127750EA0055600600000000
B0850424749770N01127750EA0055600600000000
B0850464749770N01127750EA0055600600000000
B0850504749770N01127750EA0055600600000016
B0850544749770N01127750EA0055600600000008
B0850584749770N01127750EA0055600600000016
B0851024749770N01127750EA0055500600007016
B0851064749770N01127750EA0055500600000000
B0851104749770N01127750EA0055500600000008
B0851144749770N01127750EA0055500600000016
B0851184749775N01127750EA0055500600000008
B0851224749770N01127750EA0055500600000016
B0851264749770N01127754EA0055500600000016
B0851304749770N01127754EA0055500600007016
B0851344749775N01127754EA0055500600000016
B0851384749775N01127754EA0055500600000016
B0851424749775N01127754EA0055500600007016
B0851464749775N01127754EA0055500608000032
B0851504749775N01127754EA0055500608007024
B0851544749775N01127754EA0055500608000032
B0851584749775N01127754EA0055500608007032
B0852024749775N01127754EA0055500608000048
B0852064749775N01127754EA0055500608000040
B0852104749775N01127754EA0055500608000016
B0852144749775N01127754EA0055500608000032
B0852184749775N01127754EA0055500608000016
B0852224749775N01127754EA0055500608000016
B0852264749775N01127754EA0055500608007016
B0852304749775N01127754EA0055500608000016
B0852344749775N01127754EA0055500608000016
B0852384749775N01127754EA0055500600000016
B0852424749775N01127754EA0055500600000032
B0852464749775N01127750EA0055500600000024
B0852504749775N01127750EA0055500600000024
B0852544749775N01127750EA0055500600000028
B0852584749775N01127750EA0055500600000008
B0853024749775N01127750EA0055500600000016
B0853064749775N01127750EA0055500600000032
B0853104749775N01127750EA0055500600000020
B0853144749775N01127750EA0055500600000032
B0853184749775N01127750EA0055500608007032
B0853224749775N01127750EA0055500608000032
B0853264749775N01127750EA0055500600000032
B0853304749775N01127750EA0055500600000032
B0853344749775N01127750EA0055600600000032
B0853384749775N01127750EA0055600600000032
B0853424749775N01127750EA0055600600000032
B0853464749775N01127750EA0055600600000032
B0853504749775N01127750EA0055600600000032
B0853544749775N01127750EA0055600600000032
B0853584749775N01127750EA0055600608000032
B0854024749775N01127750EA0055600600000032
B0854064749775N01127750EA0055600608000032
B0854104749775N01127750EA0055600608000032
B0854144749775N01127750EA0055600608000032
B0854184749775N01127750EA0055600600000032
B0854224749775N01127750EA0055600600000032
B0854264749775N01127750EA0055600608000048
B0854304749775N01127750EA0055600608000040
B0854344749775N01127750EA0055600608000068
B0854384749775N01127754EA0055600608000056
B0854424749775N01127750EA0055600608000032
B0854464749775N01127750EA0055600608000048
B0854504749775N01127750EA0055600608000048
B0854544749775N01127750EA0055600608000040
B0854584749775N01127750EA0055600608000048
B0855024749775N01127750EA0055600608000048
B0855064749775N01127750EA0055600608000048
B0855104749775N01127750EA0055600608000048
B0855144749775N01127750EA0055600600000032
B0855184749775N01127750EA0055600600000040
B0855224749775N01127750EA0055600600000032
B0855264749775N01127750EA0055600600000032
B0855304749775N01127750EA0055600600007004
B0855344749775N01127750EA0055600608000016
B0855384749775N01127750EA0055600608007032
B0855424749775N01127750EA0055600608007016
B0855464749775N01127750EA0055600608000020
B0855504749775N01127750EA0055600600007024
B0855544749775N01127750EA0055600608000048
B0855584749775N01127750EA0055600608000032
B0856024749775N01127750EA0055600608000008
B0856064749775N01127750EA0055600608000028
B0856104749775N01127750EA0055600608000032
B0856144749775N01127754EA0055600608000020
B0856184749775N01127754EA0055600608000032
B0856224749775N01127754EA0055600608000032
B0856264749775N01127754EA0055600608000004
B0856304749775N01127754EA0055600608007016
B0856344749775N01127754EA0055600608000004
B0856384749775N01127754EA0055600608000004
B0856424749775N01127754EA0055600608000056
B0856464749775N01127754EA0055600608000032
B0856504749775N01127754EA0055600608000008
B0856544749775N01127754EA0055600608000032
B0856584749775N01127754EA0055600608007016
B0857024749770N01127754EA0055600608007012
B0857064749770N01127754EA0055600608000000
B0857104749775N01127754EA0055600608000008
B0857144749770N01127754EA0055600608000000
B0857184749770N01127754EA0055600608000000
B0857224749770N01127754EA0055600608007000
B0857264749770N01127754EA0055600608007000
B0857304749770N01127754EA0055600608007000
B0857344749775N01127754EA0055600608000000
B0857384749775N01127754EA0055600608000000
B0857424749775N01127754EA0055600608000000
B0857464749775N01127754EA0055600608000000
B0857504749775N01127754EA0055600608000000
B0857544749775N01127754EA0055600608007000
B0857584749775N01127754EA0055600608000000
B0858024749775N01127754EA0055600608007016
B0858064749775N01127754EA0055600608007008
B0858104749775N01127754EA0055600608009000
B0858144749775N01127754EA0055600608009008
B0858184749770N01127754EA0055600608012000
B0858224749770N01127754EA0055600608007000
B0858264749770N01127754EA0055600608007000
B0858304749775N01127754EA0055600608007000
B0858344749775N01127754EA0055600608007000
B0858384749775N01127754EA0055600608000000
B0858424749775N01127754EA0055600608000000
B0858464749775N01127754EA0055600608009000
B0858504749775N01127750EA0055600608000000
B0858544749775N01127745EA0055600600007000
B0858584749775N01127737EA0055600600009048
B0859024749775N01127733EA0055600600007024
B0859064749775N01127733EA0055600600012048
B0859104749775N01127733EA0055600600007048
B0859144749775N01127733EA0055600600007000
B0859184749775N01127733EA0055600600014024
B0859224749775N01127733EA0055600600007000
B0859264749779N01127733EA0055600600007000
B0859304749779N01127733EA0055600600009000
B0859344749779N01127733EA0055600600007000
B0859384749779N01127733EA0055600600009000
B0859424749779N01127733EA0055600600007000
B0859464749779N01127733EA0055600600000000
B0859504749779N01127733EA0055600600000000
B0859544749779N01127733EA0055600600000000
B0859584749779N01127733EA0055600600000000
B0900024749779N01127733EA0055600600007000
B0900064749779N01127733EA0055600600000000
B0900104749779N01127733EA0055600600000000
B0900144749779N01127733EA0055600600007000
B0900184749779N01127733EA0055600600000000
B0900224749779N01127733EA0055500600009000
B0900264749779N01127729EA0055500600000000
B0900304749779N01127729EA0055500600000000
B0900344749779N01127729EA0055500600007000
B0900384749779N01127729EA0055500600007000
B0900424749779N01127729EA0055500600000000
B0900464749779N01127729EA0055500600000000
B0900504749779N01127729EA0055500600007000
B0900544749779N01127729EA0055500600000000
B0900584749779N01127729EA0055500600000000
B0901024749779N01127729EA0055500600000000
B0901064749779N01127729EA0055500600000000
B0901104749779N01127733EA0055500600000000
B0901144749779N01127729EA0055500600000000
B0901184749779N01127729EA0055500600007000
B0901224749775N01127729EA0055500600012000
B0901264749779N01127729EA0055500600000000
B0901304749779N01127729EA0055500600007000
B0901344749779N01127729EA0055500600009000
B0901384749779N01127729EA0055500600000000
B0901424749779N01127729EA0055500600000000
B0901464749779N01127729EA0055500600000000
B0901504749779N01127729EA0055500600007000
B0901544749779N01127729EA0055500600000000
B0901584749779N01127729EA0055500600000000
B0902024749779N01127733EA0055500600000000
B0902064749779N01127733EA0055500600000000
B0902104749779N01127733EA0055500600000000
B0902144749779N01127733EA0055500600007000
B0902184749779N01127733EA0055500600000000
B0902224749779N01127733EA0055500600009000
B0902264749779N01127733EA0055500600009000
B0902304749779N01127733EA0055500600000000
B0902344749779N01127733EA0055500600000000
B0902384749779N01127733EA0055500600000000
B0902424749779N01127733EA0055500600000000
B0902464749779N01127729EA0055500600007000
B0902504749779N01127729EA0055500600007000
B0902544749779N01127729EA0055500592000000
B0902584749779N01127729EA0055500600000000
B0903024749779N01127729EA0055500600000000
B0903064749779N01127729EA0055500600000000
B0903104749779N01127729EA0055500600000000
B0903144749779N01127729EA0055500600000000
B0903184749779N01127733EA0055500600000000
B0903224749779N01127733EA0055500600000000
B0903264749779N01127733EA0055500600000000
B0903304749779N01127733EA0055500600000000
B0903344749779N01127733EA0055500608000000
B0903384749779N01127733EA0055500608000000
B0903424749779N01127733EA0055500608000000
B0903464749779N01127737EA0055500608000000
B0903504749779N01127733EA0055500608000000
B0903544749779N01127733EA0055500608000000
B0903584749779N01127737EA0055500608000000
B0904024749779N01127733EA0055500600000000
B0904064749779N01127733EA0055500600000000
B0904104749779N01127733EA0055500600000000
B0904144749779N01127733EA0055600600000000
B0904184749779N01127729EA0055600600000000
B0904224749779N01127729EA0055600592000000
B0904264749779N01127729EA0055600600000000
B0904304749779N01127729EA0055600600000000
B0904344749779N01127729EA0055600600000000
B0904384749779N01127729EA0055600600000000
B0904424749779N01127733EA0055600600000000
B0904464749779N01127733EA0055600600000000
B0904504749779N01127733EA0055600600000000
C080508090434080508000101
C4749700N01128200E KDFEND28    
C4749700N01128200E KDFEND28    
C4646583N01012066E ARDEZKIRCHE 
C4718250N01302750E BOENDLSEE   
C4749700N01128200E KDFEND28    
B0904544749779N01127733EA0055600600000000
B0904584749779N01127733EA0055600600000000
B0905024749779N01127733EA0055600600000000
B0905064749779N01127733EA0055600600000000
B0905104749779N01127733EA0055600600000000
B0905144749779N01127733EA0055600600000000
B0905184749779N01127733EA0055600600000000
B0905224749779N01127733EA0055600600000000
B0905264749779N01127729EA0055600600000000
B0905304749779N01127729EA0055600600000000
B0905344749779N01127729EA0055600600000000
B0905384749779N01127729EA0055600600000000
B0905424749779N01127729EA0055600600000000
B0905464749779N01127729EA0055600600000000
B0905504749779N01127729EA0055600600000000
B0905544749779N01127729EA0055600600000000
B0905584749779N01127729EA0055600592000000
B0906024749779N01127729EA0055600592000000
B0906064749779N01127729EA0055600592000000
B0906104749779N01127729EA0055600592000000
B0906144749779N01127729EA0055600592000000
B0906184749779N01127729EA0055600592000000
B0906224749779N01127725EA0055600592000000
B0906264749779N01127729EA0055600592000000
B0906304749779N01127729EA0055600592000000
B0906344749779N01127729EA0055600592000000
B0906384749779N01127725EA0055600592000000
B0906424749779N01127725EA0055600592000000
B0906464749779N01127725EA0055600592000000
B0906504749779N01127725EA0055600592000000
B0906544749779N01127725EA0055600592000000
B0906584749779N01127725EA0055600592007000
B0907024749779N01127729EA0055600592007000
B0907064749779N01127729EA0055600592007000
B0907104749779N01127729EA0055600592007000
B0907144749779N01127729EA0055600592007000
B0907184749779N01127729EA0055600600007000
B0907224749779N01127729EA0055600600007000
B0907264749779N01127729EA0055600600007000
B0907304749779N01127729EA0055600600007016
B0907344749779N01127729EA0055600600000008
B0907384749779N01127729EA0055600600007032
B0907424749779N01127729EA0055600600000024
B0907464749779N01127729EA0055600600007032
B0907504749779N01127733EA0055600608000032
B0907544749779N01127733EA0055600608000032
B0907584749779N01127733EA0055600608007032
B0908024749779N01127733EA0055600608007048
B0908064749779N01127733EA0055600608000040
B0908104749779N01127733EA0055600608007048
B0908144749779N01127733EA0055600608007048
B0908184749779N01127733EA0055600608009048
B0908224749779N01127733EA0055600608000048
B0908264749779N01127733EA0055600608000004
B0908304749779N01127733EA0055600608015024
B0908344749779N01127733EA0055600608014048
B0908384749779N01127733EA0055600608009024
B0908424749779N01127733EA0055600608009032
B0908464749779N01127733EA0055600608009040
B0908504749779N01127733EA0055600608009032
B0908544749779N01127733EA0055600608000032
B0908584749779N01127733EA0055600608000032
B0909024749779N01127733EA0055600608007032
B0909064749779N01127733EA0055600608000032
B0909104749779N01127733EA0055600608007032
B0909144749779N01127733EA0055600608000032
B0909184749779N01127733EA0055600608007032
B0909224749779N01127733EA0055600608009032
B0909264749775N01127733EA0055600608014032
B0909304749775N01127733EA0055600608000032
B0909344749775N01127733EA0055600608000032
B0909384749775N01127733EA0055600608007032
B0909424749775N01127733EA0055600608009032
B0909464749775N01127733EA0055600600000032
B0909504749775N01127733EA0055600600000032
B0909544749775N01127733EA0055600600000048
B0909584749775N01127733EA0055600600000040
B0910024749775N01127733EA0055600600000032
B0910064749775N01127733EA0055600600000040
B0910104749775N01127733EA0055600600007044
B0910144749775N01127733EA0055600600007040
B0910184749775N01127733EA0055600600000004
B0910224749775N01127733EA0055600600007024
B0910264749775N01127733EA0055600600009016
B0910304749775N01127733EA0055600600000008
B0910344749775N01127733EA0055600600000000
B0910384749775N01127733EA0055600600000008
B0910424749775N01127733EA0055600600000016
B0910464749775N01127733EA0055600600007008
B0910504749775N01127733EA0055600600007016
B0910544749775N01127733EA0055600600000016
B0910584749775N01127733EA0055600600000048
B0911024749775N01127733EA0055600600007032
B0911064749775N01127729EA0055600600000056
B0911104749775N01127729EA0055600600007052
B0911144749775N01127729EA0055600600000016
B0911184749775N01127729EA0055600600007036
B0911224749775N01127729EA0055600600000016
B0911264749775N01127729EA0055600600000016
B0911304749775N01127729EA0055600600007000
B0911344749775N01127729EA0055600600009008
B0911384749775N01127729EA0055600600009016
B0911424749775N01127729EA0055600600007008
B0911464749775N01127729EA0055600600007000
B0911504749775N01127729EA0055600600000008
B0911544749779N01127729EA0055600600000000
B0911584749779N01127729EA0055600600000000
B0912024749779N01127729EA0055600600000000
B0912064749779N01127729EA0055600600000000
B0912104749779N01127729EA0055600600000000
B0912144749779N01127729EA0055600600000000
B0912184749779N01127729EA0055600600000048
B0912224749779N01127729EA0055600600007024
B0912264749779N01127729EA0055600600000016
B0912304749779N01127729EA0055600600007032
B0912344749779N01127729EA0055600600000016
B0912384749779N01127729EA0055600600000016
B0912424749779N01127729EA0055600600000000
B0912464749779N01127729EA0055600600000008
B0912504749779N01127729EA0055600600000000
B0912544749779N01127729EA0055600600014000
B0912584749779N01127729EA0055600600009000
B0913024749779N01127729EA0055600600007000
B0913064749779N01127729EA0055600600000000
B0913104749779N01127729EA0055600600007000
B0913144749779N01127729EA0055600600007000
B0913184749779N01127729EA0055600600009000
B0913224749779N01127729EA0055600600009032
B0913264749779N01127729EA0055600600009016
B0913304749779N01127729EA0055600600007032
B0913344749779N01127729EA0055600600000032
B0913384749779N01127729EA0055600600000000
B0913424749779N01127729EA0055600600009016
B0913464749779N01127729EA0055600600009000
B0913504749779N01127729EA0055600600007000
B0913544749779N01127729EA0055600600007000
B0913584749775N01127729EA0055600600007000
B0914024749775N01127729EA0055600600000000
B0914064749775N01127729EA0055600600007000
B0914104749775N01127729EA0055600600000000
B0914144749775N01127729EA0055600600000000
B0914184749775N01127729EA0055600600009000
B0914224749775N01127729EA0055600600007000
B0914264749775N01127729EA0055600600007000
B0914304749775N01127729EA0055600592007000
B0914344749775N01127729EA0055600592000000
B0914384749775N01127729EA0055600592000000
B0914424749775N01127729EA0055600592000000
B0914464749775N01127729EA0055600592007000
B0914504749775N01127729EA0055600600000000
B0914544749775N01127729EA0055600600000000
B0914584749775N01127729EA0055600600000000
B0915024749775N01127729EA0055600600000000
B0915064749775N01127729EA0055600600000000
B0915104749775N01127729EA0055600600000000
B0915144749775N01127729EA0055600600000000
B0915184749775N01127729EA0055600600000000
B0915224749775N01127729EA0055600600009000
B0915264749775N01127729EA0055600600007000
B0915304749775N01127729EA0055600600012016
B0915344749775N01127729EA0055600600012008
B0915384749775N01127729EA0055600600009032
B0915424749775N01127729EA0055600600014024
B0915464749775N01127729EA0055600600012048
B0915504749775N01127729EA0055600600007040
B0915544749779N01127729EA0055600600007032
B0915584749779N01127729EA0055600600007040
B0916024749779N01127729EA0055600600007016
B0916064749779N01127729EA0055600600007024
B0916104749779N01127729EA0055600600007000
B0916144749775N01127729EA0055600600000008
B0916184749775N01127729EA0055600600012000
B0916224749775N01127729EA0055600600012000
B0916264749775N01127729EA0055600600012016
B0916304749775N01127729EA0055600600014008
B0916344749775N01127729EA0055600600012016
B0916384749775N01127729EA0055600600007016
B0916424749775N01127729EA0055600600009032
B0916464749775N01127729EA0055600600007024
B0916504749775N01127729EA0055600600009016
B0916544749775N01127729EA0055600600009024
B0916584749775N01127729EA0055600600009032
B0917024749775N01127729EA0055600600009024
B0917064749775N01127729EA0055600600009016
B0917104749775N01127729EA0055600600009024
B0917144749775N01127729EA0055600600009016
B0917184749775N01127729EA0055600600007016
B0917224749775N01127729EA0055600600007048
B0917264749775N01127729EA0055600600007032
B0917304749775N01127729EA0055600600009016
B0917344749775N01127729EA0055600600009032
B0917384749775N01127729EA0055600600007016
B0917424749775N01127729EA0055600600000016
B0917464749775N01127729EA0055600600009000
B0917504749775N01127729EA0055600600000008
B0917544749775N01127729EA0055600600000000
B0917584749775N01127729EA0055600600000000
B0918024749775N01127729EA0055600600007000
B0918064749775N01127729EA0055600600000000
B0918104749775N01127729EA0055600600000000
B0918144749775N01127729EA0055600600000000
B0918184749775N01127729EA0055600600007000
B0918224749775N01127729EA0055600600007000
B0918264749775N01127729EA0055600600007000
B0918304749775N01127729EA0055600600000000
B0918344749775N01127729EA0055600600000000
B0918384749779N01127729EA0055600600000000
B0918424749779N01127729EA0055600600007000
B0918464749779N01127729EA0055600600007000
B0918504749779N01127729EA0055600600007000
B0918544749779N01127729EA0055600600007000
B0918584749779N01127729EA0055600600007000
B0919024749779N01127729EA0055600600007000
B0919064749779N01127729EA0055600600000000
B0919104749779N01127729EA0055600600009000
B0919144749779N01127729EA0055600600000000
B0919184749779N01127729EA0055600600007000
B0919224749779N01127729EA0055600600009000
B0919264749779N01127729EA0055600600007000
B0919304749779N01127729EA0055600600000000
B0919344749779N01127729EA0055600600012000
B0919384749779N01127729EA0055600600009000
B0919424749779N01127729EA0055600600012000
B0919464749779N01127729EA0055600600007048
B0919504749779N01127729EA0055600600009024
B0919544749779N01127729EA0055600600009016
B0919584749779N01127729EA0055600600009032
B0920024749779N01127729EA0055600600009000
B0920064749779N01127729EA0055600600000008
B0920104749779N01127729EA0055600600007000
B0920144749779N01127729EA0055600600009000
B0920184749779N01127729EA0055600600007000
B0920224749779N01127729EA0055600600009000
B0920264749779N01127729EA0055600600009000
B0920304749779N01127729EA0055600600007000
B0920344749779N01127729EA0055600600007000
B0920384749779N01127729EA0055600600009000
B0920424749779N01127729EA0055600600007016
B0920464749779N01127729EA0055600600000008
B0920504749775N01127729EA0055600600007000
B0920544749779N01127729EA0055600600007008
B0920584749779N01127729EA0055600600007000
B0921024749779N01127729EA0055600600000000
B0921064749775N01127729EA0055600600009000
B0921104749775N01127729EA0055600600000000
B0921144749775N01127729EA0055600600000000
B0921184749775N01127729EA0055600600007000
B0921224749775N01127729EA0055600600007016
B0921264749775N01127729EA0055600600000008
B0921304749775N01127729EA0055600600000000
B0921344749779N01127729EA0055600600000008
B0921384749779N01127729EA0055600600000000
B0921424749779N01127729EA0055600600000000
B0921464749779N01127729EA0055600600000000
B0921504749779N01127729EA0055600600000000
B0921544749779N01127729EA0055600600009000
B0921584749779N01127729EA0055600608012000
B0922024749779N01127729EA0055600608009032
B0922064749779N01127729EA0055600608009016
B0922104749779N01127729EA0055600608007004
B0922144749779N01127729EA0055600608007016
B0922184749779N01127729EA0055600608009016
B0922224749779N01127729EA0055600600009008
B0922264749779N01127729EA0055600600000016
B0922304749779N01127729EA0055600600000016
B0922344749779N01127729EA0055600600000016
B0922384749779N01127729EA0055600600000016
B0922424749779N01127729EA0055600600000016
B0922464749779N01127729EA0055600600007016
B0922504749779N01127729EA0055600600007000
B0922544749779N01127729EA0055600600007008
B0922584749775N01127729EA0055600600007000
B0923024749775N01127729EA0055600600000000
B0923064749775N01127729EA0055600600007016
B0923104749775N01127729EA0055600600000008
B0923144749775N01127729EA0055600600000016
B0923184749775N01127729EA0055600600000016
B0923224749775N01127729EA0055600600007000
B0923264749775N01127729EA0055600600000008
B0923304749775N01127729EA0055600600000000
B0923344749775N01127729EA0055600600007000
B0923384749775N01127729EA0055600600000000
B0923424749775N01127729EA0055600600007000
B0923464749775N01127729EA0055600600009000
B0923504749779N01127729EA0055600600009000
B0923544749779N01127729EA0055600600007000
B0923584749779N01127729EA0055700600007000
B0924024749779N01127729EA0055700600007000
B0924064749779N01127729EA0055700600007000
B0924104749779N01127729EA0055700600007000
B0924144749779N01127729EA0055700600000000
B0924184749779N01127729EA0055700600000000
B0924224749779N01127729EA0055700600007000
B0924264749779N01127729EA0055700600000000
B0924304749779N01127729EA0055700600007000
B0924344749779N01127729EA0055700600009016
B0924384749779N01127729EA0055700600007008
B0924424749779N01127729EA0055700600007016
B0924464749779N01127729EA0055700600007016
B0924504749779N01127729EA0055700600000000
B0924544749779N01127729EA0055700600000008
B0924584749779N01127729EA0055700600000000
B0925024749779N01127729EA0055700600000000
B0925064749779N01127729EA0055700600007000
B0925104749779N01127729EA0055700600007000
B0925144749779N01127729EA0055700600007000
B0925184749779N01127729EA0055700600000000
B0925224749779N01127729EA0055700600000000
B0925264749779N01127729EA0055700600007000
B0925304749779N01127729EA0055700600000000
B0925344749779N01127729EA0055700600000000
B0925384749779N01127729EA0055700600007000
B0925424749779N01127729EA0055700600009000
B0925464749779N01127729EA0055700600007000
B0925504749779N01127729EA0055700600000000
B0925544749779N01127729EA0055700600000000
B0925584749779N01127729EA0055700600007000
B0926024749779N01127729EA0055700600000000
B0926064749779N01127729EA0055700600007000
B0926104749779N01127729EA0055700600007016
B0926144749779N01127729EA0055700600007008
B0926184749779N01127729EA0055700600007056
B0926224749779N01127729EA0055700600000036
B0926264749779N01127729EA0055600600007032
B0926304749779N01127729EA0055600600007044
B0926344749779N01127729EA0055600600000016
B0926384749779N01127729EA0055600600009024
B0926424749779N01127729EA0055600600009016
B0926464749779N01127729EA0055600600009016
B0926504749779N01127729EA0055600600009016
B0926544749779N01127729EA0055600600009016
B0926584749779N01127729EA0055600592007000
B0927024749775N01127729EA0055600592009008
B0927064749775N01127729EA0055600592009000
B0927104749775N01127729EA0055600592012000
B0927144749775N01127729EA0055600592012016
B0927184749775N01127729EA0055600592012008
B0927224749775N01127729EA0055600592012016
B0927264749775N01127729EA0055600592012016
B0927304749775N01127729EA0055600592009000
B0927344749775N01127729EA0055600592009008
B0927384749775N01127729EA0055600600007000
B0927424749779N01127729EA0055600600007000
B0927464749779N01127729EA0055600600007016
B0927504749775N01127729EA0055700600015008
B0927544749775N01127729EA0055700600017016
B0927584749775N01127729EA0055700600012016
B0928024749775N01127729EA0055700600014016
B0928064749775N01127729EA0055700600007016
B0928104749775N01127729EA0055700600014016
B0928144749779N01127733EA0055700600014016
B0928184749779N01127733EA0055700600012024
B0928224749779N01127733EA0055700600009020
B0928264749779N01127733EA0055700600007012
B0928304749779N01127733EA0055700600007016
B0928344749775N01127733EA0055700600007048
B0928384749779N01127733EA0055700600012032
B0928424749779N01127729EA0055700600007016
B0928464749775N01127720EA0055700600000032
B0928504749775N01127720EA0055700600000036
B0928544749770N01127716EA0055700600000024
B0928584749766N01127716EA0055700600000008
B0929024749762N01127712EA0055700600000024
B0929064749758N01127712EA0055700600000024
B0929104749758N01127712EA0055700600000016
B0929144749754N01127708EA0055700600000024
B0929184749750N01127708EA0055700600000024
B0929224749745N01127708EA0055700600000008
B0929264749745N01127704EA0055700600000016
B0929304749741N01127704EA0055700600014036
B0929344749741N01127700EA0055700600009024
B0929384749741N01127695EA0055700600012036
B0929424749741N01127691EA0055700600007036
B0929464749741N01127687EA0055700600007036
B0929504749745N01127683EA0055700600009036
B0929544749745N01127683EA0055700600014036
B0929584749745N01127683EA0055700600014036
B0930024749745N01127683EA0055700600009048
B0930064749745N01127683EA0055700600014040
B0930104749745N01127683EA0055700600012032
B0930144749745N01127683EA0055700600009040
B0930184749745N01127683EA0055700600012016
B0930224749745N01127683EA0055700600014024
B0930264749745N01127683EA0055700600007000
B0930304749745N01127683EA0055700600009008
B0930344749741N01127683EA0055700600009000
B0930384749741N01127683EA0055700600009000
B0930424749745N01127683EA0055700600012000
B0930464749741N01127683EA0055700600015000
B0930504749741N01127683EA0055700600017016
B0930544749741N01127687EA0055700600015008
B0930584749741N01127687EA0055700600014016
B0931024749741N01127687EA0055900600012016
B0931064749741N01127687EA0055900600015000
B0931104749745N01127683EA0055800600009008
B0931144749741N01127687EA0055800600009000
B0931184749741N01127687EA0055800600018000
B0931224749741N01127687EA0055800600012000
B0931264749741N01127687EA0055800600014000
B0931304749741N01127687EA0055800600014000
B0931344749741N01127687EA0055800600015000
B0931384749741N01127687EA0055800600015000
B0931424749741N01127687EA0055800600015000
B0931464749741N01127687EA0055800600012000
B0931504749741N01127687EA0055800600018000
B0931544749741N01127687EA0055800600014000
B0931584749741N01127687EA0055800600009000
B0932024749741N01127687EA0055800600009000
B0932064749741N01127687EA0055900600009000
B0932104749741N01127687EA0055900600012000
B0932144749741N01127687EA0055800600009000
B0932184749741N01127687EA0055800600012000
B0932224749741N01127687EA0055900600015000
B0932264749741N01127687EA0055900600015000
B0932304749741N01127687EA0055900600014000
B0932344749741N01127687EA0055900600014000
B0932384749741N01127687EA0055900600009000
B0932424749741N01127687EA0055900600012000
B0932464749741N01127687EA0055900600009000
B0932504749741N01127687EA0055900600009000
B0932544749741N01127687EA0055900600012000
B0932584749741N01127687EA0055900600009000
B0933024749741N01127687EA0055900600007000
B0933064749741N01127687EA0055900600009000
B0933104749745N01127687EA0055900600009000
B0933144749745N01127683EA0055900600012000
B0933184749745N01127683EA0055900600012000
B0933224749745N01127683EA0055900600009000
B0933264749745N01127683EA0055900600012000
B0933304749741N01127687EA0055900600009000
B0933344749741N01127687EA0055900600009000
B0933384749741N01127687EA0055900600012000
B0933424749741N01127687EA0055900600009000
B0933464749741N01127687EA0055900600009000
B0933504749745N01127687EA0055900600012000
B0933544749745N01127687EA0055900600009000
B0933584749745N01127687EA0055900600012000
B0934024749745N01127687EA0055900600014000
B0934064749745N01127687EA0055900600012000
B0934104749745N01127687EA0055900600009000
B0934144749745N01127687EA0055900608012000
B0934184749741N01127687EA0055900608009000
B0934224749741N01127691EA0055900608014000
B0934264749741N01127687EA0055900608012000
B0934304749741N01127687EA0055900608012000
B0934344749741N01127691EA0055800608012000
B0934384749741N01127691EA0055800616009000
B0934424749741N01127691EA0055800616012000
B0934464749741N01127691EA0055800616009000
B0934504749741N01127691EA0055800608012000
B0934544749741N01127691EA0055800608012000
B0934584749741N01127691EA0055800608012000
B0935024749741N01127691EA0055800608012000
B0935064749741N01127691EA0055800608015000
B0935104749741N01127691EA0055800608014000
B0935144749741N01127691EA0055800608012000
B0935184749741N01127691EA0055800608014000
B0935224749741N01127691EA0055800608012000
B0935264749741N01127687EA0055900608012000
B0935304749745N01127683EA0055900600014000
B0935344749745N01127683EA0055900600014000
B0935384749745N01127687EA0055900600012000
B0935424749745N01127687EA0055900600012000
B0935464749745N01127687EA0055900600012000
B0935504749745N01127687EA0055900600014000
B0935544749745N01127687EA0055900608014016
B0935584749745N01127687EA0055900608014008
B0936024749741N01127687EA0055900608014016
B0936064749741N01127687EA0055900608012016
B0936104749741N01127687EA0055900608009000
B0936144749741N01127691EA0055900608012008
B0936184749741N01127687EA0055900608012000
B0936224749741N01127687EA0055900608012000
B0936264749741N01127687EA0055900600012000
B0936304749741N01127687EA0055900600012000
B0936344749745N01127687EA0055900600009000
B0936384749745N01127687EA0055900608000000
B0936424749745N01127683EA0055900600000000
B0936464749745N01127683EA0055900600000000
B0936504749745N01127683EA0055900600000000
B0936544749745N01127683EA0055900600007000
B0936584749745N01127687EA0055900600007000
B0937024749741N01127691EA0055900608007000
B0937064749741N01127691EA0055900608007000
B0937104749745N01127687EA0055900608007000
B0937144749745N01127683EA0055900600000000
B0937184749745N01127683EA0055900592000000
B0937224749745N01127683EA0055900592000000
B0937264749745N01127683EA0055900592009000
B0937304749745N01127683EA0055900592007016
B0937344749745N01127683EA0055900592009008
B0937384749745N01127683EA0055900592007000
B0937424749745N01127683EA0055900592007008
B0937464749745N01127683EA0055900592000000
B0937504749745N01127683EA0055900600000000
B0937544749745N01127683EA0055900600000000
B0937584749745N01127683EA0055900600000000
B0938024749745N01127683EA0055900600007016
B0938064749741N01127683EA0055900600000008
B0938104749741N01127683EA0055900600000000
B0938144749741N01127683EA0055900600007008
B0938184749745N01127683EA0055900600007000
B0938224749745N01127683EA0055900600000000
B0938264749745N01127683EA0055900600000000
B0938304749745N01127683EA0055900600000000
B0938344749745N01127683EA0055900600007000
B0938384749745N01127683EA0055900600000000
B0938424749745N01127683EA0055900600000000
B0938464749745N01127683EA0055900600007000
B0938504749745N01127683EA0055900600000000
B0938544749745N01127683EA0055900600009000
B0938584749745N01127683EA0055900600009016
B0939024749745N01127683EA0055900600007008
B0939064749745N01127683EA0055900600009032
B0939104749745N01127683EA0055900600015024
B0939144749745N01127683EA0055900600012000
B0939184749745N01127683EA0055900600014016
B0939224749745N01127683EA0055900600007032
B0939264749745N01127683EA0055900600015016
B0939304749745N01127683EA0055900600007016
B0939344749745N01127683EA0055900608000024
B0939384749741N01127683EA0055900600000000
B0939424749741N01127683EA0055900600000008
B0939464749741N01127683EA0055900600000016
B0939504749741N01127683EA0055900600000008
B0939544749741N01127683EA0055900600000000
B0939584749741N01127683EA0055900600000008
B0940024749741N01127683EA0055900600000000
B0940064749741N01127683EA0055900600000000
B0940104749741N01127683EA0055900600000000
B0940144749741N01127683EA0055900600007000
B0940184749741N01127683EA0055900600007000
B0940224749741N01127683EA0055900600007000
B0940264749741N01127683EA0055900600007000
B0940304749741N01127683EA0055900600000000
B0940344749741N01127683EA0055900600000000
B0940384749741N01127683EA0055900600007000
B0940424749741N01127683EA0055900600007000
B0940464749741N01127683EA0055900600000000
B0940504749741N01127683EA0055900600009000
B0940544749741N01127683EA0055900600007000
B0940584749741N01127683EA0055900600009000
B0941024749741N01127683EA0055900600009000
B0941064749741N01127683EA0055900600007000
B0941104749741N01127683EA0055900600007000
B0941144749741N01127683EA0055900600009000
B0941184749741N01127683EA0055900600007000
B0941224749741N01127683EA0055900600007000
B0941264749741N01127683EA0055900600007000
B0941304749741N01127683EA0055900600009000
B0941344749741N01127683EA0055900600007000
B0941384749745N01127683EA0055900600007000
B0941424749745N01127683EA0055900600000000
B0941464749745N01127683EA0055900600000000
B0941504749745N01127683EA0055900600000000
B0941544749745N01127683EA0055900600000000
B0941584749745N01127683EA0055900600007000
B0942024749745N01127683EA0055900600000000
B0942064749745N01127683EA0055900600000000
B0942104749745N01127683EA0055900600000000
B0942144749741N01127683EA0055900600000000
B0942184749741N01127683EA0055900600000000
B0942224749741N01127683EA0055900600000000
B0942264749741N01127683EA0055900600000000
B0942304749741N01127683EA0055900600000000
B0942344749741N01127683EA0055900600000000
B0942384749741N01127683EA0055900600000000
B0942424749741N01127687EA0055900600000000
B0942464749741N01127687EA0055900608000000
B0942504749741N01127687EA0055900608000000
B0942544749741N01127687EA0055900608000000
B0942584749741N01127687EA0055900608000000
B0943024749741N01127687EA0055900608007000
B0943064749741N01127687EA0055900608000000
B0943104749741N01127687EA0055900608007000
B0943144749741N01127687EA0055900600000000
B0943184749741N01127687EA0055900600000000
B0943224749741N01127687EA0055900600007000
B0943264749741N01127687EA0055900600007000
B0943304749741N01127687EA0055900600007000
B0943344749741N01127683EA0055900600000000
B0943384749741N01127683EA0055900600000000
B0943424749741N01127683EA0055900600000000
B0943464749741N01127683EA0055900600000032
B0943504749741N01127683EA0055900600000016
B0943544749741N01127683EA0055900600007004
B0943584749741N01127683EA0055900600007016
B0944024749741N01127683EA0055900600000004
B0944064749741N01127683EA0055900600007004
B0944104749741N01127683EA0055900600009016
B0944144749741N01127683EA0055900600007008
B0944184749741N01127683EA0055900600007016
B0944224749741N01127687EA0055900600007016
B0944264749741N01127687EA0055900600000016
B0944304749741N01127687EA0055900600007016
B0944344749741N01127683EA0055900600000016
B0944384749741N01127683EA0055900600012016
B0944424749741N01127683EA0055900600009016
B0944464749741N01127683EA0055900600012016
B0944504749741N01127683EA0055900600012048
B0944544749741N01127683EA0055900600009032
B0944584749741N01127687EA0055900600007048
B0945024749741N01127687EA0055900600018048
B0945064749741N01127687EA0055900600014020
B0945104749741N01127687EA0055900600020032
B0945144749741N01127683EA0055900600012136
B0945184749745N01127683EA0055900600012080
B0945224749745N01127683EA0055900600020060
B0945264749745N01127683EA0055900600017096
B0945304749745N01127683EA0055900600012016
B0945344749745N01127683EA0055900600024040
B0945384749745N01127683EA0055900600023020
B0945424749745N01127683EA0055900600014016
B0945464749745N01127683EA0055900600014052
B0945504749745N01127683EA0055900600014036
B0945544749745N01127683EA0055900600014008
B0945584749745N01127683EA0055900600012032
B0946024749745N01127683EA0055800600012004
B0946064749745N01127683EA0056000600012008
B0946104749745N01127683EA0056000600009016
B0946144749745N01127683EA0056000600000008
B0946184749745N01127683EA0056000600009000
B0946224749745N01127683EA0056000600000008
B0946264749745N01127683EA0056000600007004
B0946304749745N01127683EA0056000600000000
B0946344749745N01127683EA0056000600000048
B0946384749745N01127683EA0055900600000024
B0946424749745N01127683EA0055900600000032
B0946464749745N01127683EA0055800600000040
B0946504749745N01127683EA0055900600000000
B0946544749745N01127683EA0055800600000016
B0946584749745N01127683EA0055900600000000
B0947024749745N01127683EA0055900600000000
B0947064749745N01127683EA0055900600007000
B0947104749745N01127683EA0055900600007000
B0947144749745N01127683EA0055900600007016
B0947184749745N01127683EA0055900600000008
B0947224749745N01127683EA0055900600007000
B0947264749745N01127683EA0055900600000008
B0947304749745N01127683EA0055900600000016
B0947344749745N01127683EA0055900600000008
B0947384749745N01127683EA0055900600000000
B0947424749745N01127683EA0055900600000008
B0947464749745N01127683EA0055900600000032
B0947504749745N01127683EA0055900600000016
B0947544749745N01127683EA0055900600000032
B0947584749745N01127683EA0055900600000032
B0948024749745N01127683EA0055900600000032
B0948064749745N01127683EA0055900600000032
B0948104749745N01127683EA0055900600000016
B0948144749745N01127683EA0055900600000024
B0948184749745N01127683EA0055900600000032
B0948224749745N01127683EA0055900600000024
B0948264749745N01127683EA0055900600000016
B0948304749745N01127683EA0055900600000024
B0948344749745N01127683EA0055900600000016
B0948384749745N01127683EA0055900600000016
B0948424749745N01127683EA0055900600000032
B0948464749745N01127683EA0055900600000024
B0948504749745N01127683EA0055900600000048
B0948544749745N01127683EA0055900600000040
B0948584749745N01127683EA0055900600000048
B0949024749745N01127683EA0055900600000048
B0949064749745N01127683EA0055900600000032
B0949104749745N01127687EA0055900600000040
B0949144749741N01127704EA0055900600043164
B0949184749737N01127750EA0056100600070352
K094918102018
B0949224749729N01127816EA0056100600093420
B0949264749720N01127900EA0056100600103448
B0949304749708N01127995EA0056500600114388
B0949344749695N01128095EA0056100608126244
B0949384749679N01128200EA0056900616127244
K094938076017
B0949424749662N01128304EA0057600632131244
B0949464749641N01128408EA0058800640128060
B0949504749620N01128516EA0060200656133152
B0949544749604N01128620EA0061400672131060
B0949584749587N01128725EA0062200680127060
K094958114014
B0950024749566N01128833EA0063000688130060
B0950064749558N01128941EA0064100696133060
B0950104749566N01129045EA0065900712132060
B0950144749595N01129141EA0066700728130060
B0950184749650N01129216EA0067900736127060
K095018110013
B0950224749720N01129275EA0068900744133060
B0950264749795N01129320EA0070100760135060
B0950304749866N01129366EA0071400768132060
B0950344749937N01129416EA0071900784129060
B0950384750012N01129462EA0073200792134060
K095038110014
B0950424750083N01129512EA0074100800133016
B0950464750158N01129562EA0075900816129040
B0950504750229N01129612EA0077000832140016
B0950544750300N01129662EA0079700848126016
B0950584750366N01129708EA0080900872129048
K095058100015
B0951024750433N01129758EA0082700888126032
B0951064750495N01129804EA0083200896126060
B0951104750562N01129854EA0084200904125056
B0951144750629N01129904EA0084600904126044
B0951184750695N01129954EA0085100912125052
K095118096020
B0951224750762N01130012EA0086800928129044
B0951264750833N01130062EA0087800936130044
B0951304750900N01130112EA0088300944127016
B0951344750970N01130158EA0089200952128032
B0951384751041N01130208EA0089600960127060
K095138094021
B0951424751108N01130254EA0091300968127040
B0951464751179N01130295EA0093300992126044
B0951504751254N01130333EA0094701008130052
B0951544751325N01130370EA0095901024127016
B0951584751395N01130404EA0097801040123032
K095158100023
B0952024751466N01130441EA0099701056119044
B0952064751529N01130479EA0100601072123032
B0952104751595N01130512EA0102201080118028
B0952144751666N01130545EA0103301096119036
B0952184751733N01130575EA0104701112121028
K095218096023
K095218096023
B0952224751804N01130604EA0105901120119028
B0952264751875N01130633EA0107001128123028
B0952304751945N01130658EA0108501144122028
B0952344752016N01130683EA0109601160118044
B0952384752087N01130712EA0110801176118036
K095238092024
B0952424752158N01130737EA0112001176117028
B0952464752229N01130758EA0113401200117036
B0952504752304N01130775EA0113601200121012
B0952544752379N01130795EA0114901208122020
B0952584752458N01130804EA0115301216122056
K095258098025
B0953024752537N01130804EA0116501224126032
B0953064752616N01130795EA0117501232123012
B0953104752695N01130779EA0118401248123032
B0953144752770N01130745EA0119001256126028
B0953184752845N01130716EA0120401264124020
K095318096031
B0953224752920N01130675EA0121601280123028
B0953264752991N01130629EA0122401288123028
B0953304753062N01130575EA0123101296120012
B0953344753129N01130508EA0124201304117020
B0953384753195N01130433EA0124801312124028
K095338080033
K095338080033
B0953424753262N01130350EA0125601320124020
B0953464753325N01130266EA0126401328123012
B0953504753383N01130170EA0127901336123020
B0953544753433N01130070EA0129101352123012
B0953584753475N01129958EA0130001360122012
B0954024753512N01129841EA0130301368124012
B0954064753550N01129720EA0131101376127012
B0954104753579N01129595EA0132601384127028
B0954144753608N01129470EA0133501400128020
B0954184753637N01129341EA0134201408128028
K095418078018
B0954224753658N01129208EA0135401416126028
B0954264753679N01129075EA0135601424130012
B0954304753695N01128941EA0136801432126020
B0954344753708N01128808EA0137601440126044
B0954384753716N01128670EA0138201448129028
K095438090015
B0954424753716N01128533EA0138601448128012
B0954464753716N01128400EA0139701456127028
B0954504753716N01128262EA0140201464126028
B0954544753708N01128125EA0141101472129020
B0954584753700N01127991EA0142201488130028
K095458086015
B0955024753683N01127858EA0142801496125028
B0955064753666N01127729EA0144201504126028
B0955104753645N01127595EA0145001512127028
B0955144753616N01127462EA0146101528129012
B0955184753587N01127337EA0148001544127020
K095518094016
B0955224753554N01127212EA0148901552127044
B0955264753520N01127087EA0149701560126028
B0955304753487N01126966EA0150901576128028
B0955344753445N01126845EA0152201592126036
B0955384753408N01126729EA0152901600126044
K095538100015
B0955424753370N01126612EA0153801608129036
B0955464753325N01126495EA0154801616127028
B0955504753279N01126383EA0156101624127036
B0955544753229N01126275EA0156601632125012
B0955584753175N01126166EA0157201632126020
K095558098014
B0956024753112N01126066EA0158101648125044
B0956064753045N01125987EA0159101664128028
B0956104752970N01125925EA0160501672128028
B0956144752887N01125883EA0161501680126036
B0956184752800N01125862EA0162001688130028
K095618098014
B0956224752716N01125866EA0162901696129028
B0956264752629N01125887EA0164001704130044
B0956304752541N01125916EA0164501712133036
B0956344752458N01125950EA0165401720132028
B0956384752370N01125983EA0166301728132036
K095638080017
B0956424752287N01126020EA0167401744128060
B0956464752200N01126050EA0168301752128044
B0956504752116N01126087EA0169501760127028
B0956544752033N01126125EA0170301768127044
B0956584751954N01126166EA0171301784127028
K095658300008
K095658300008
B0957024751875N01126212EA0172001792127028
B0957064751795N01126266EA0172901800127028
B0957104751725N01126329EA0173701808126028
B0957144751650N01126391EA0174701816127012
B0957184751575N01126458EA0175401824127020
K095718276010
K095718276010
B0957224751504N01126525EA0176101832129012
B0957264751425N01126595EA0176701840130012
B0957304751350N01126666EA0177701848130012
B0957344751279N01126745EA0178301848131012
B0957384751208N01126829EA0179301864131060
K095738262015
B0957424751141N01126920EA0180101872131036
B0957464751070N01127012EA0180701872133044
B0957504751008N01127108EA0181701880134052
B0957544750950N01127220EA0181701888134044
B0957584750895N01127337EA0182201896137044
K095758284008
B0958024750845N01127458EA0182301896139044
B0958064750791N01127583EA0183101904141044
B0958104750737N01127708EA0183401904144060
B0958144750683N01127841EA0183601904146052
B0958184750633N01127970EA0185001912146032
K095818276010
B0958224750595N01128116EA0185301920145048
B0958264750570N01128266EA0185301928146032
B0958304750541N01128420EA0186301928146032
B0958344750520N01128570EA0186501936145032
B0958384750500N01128725EA0187101944143032
K095838274013
B0958424750479N01128879EA0187701944141032
B0958464750454N01129020EA0187401944137032
B0958504750404N01129154EA0186001936142048
B0958544750333N01129266EA0184101920151040
B0958584750245N01129362EA0182201896160044
K095858270013
B0959024750145N01129437EA0180501880166048
B0959064750037N01129483EA0181501888155032
B0959104749941N01129512EA0182601896142040
B0959144749845N01129533EA0183701904131048
B0959184749762N01129529EA0184101904128040
B0959224749675N01129500EA0183501904130028
B0959264749595N01129454EA0182601888135040
B0959304749508N01129408EA0181601880138012
B0959344749420N01129366EA0181401872137020
B0959384749333N01129337EA0181401872132012
K095938282036
B0959424749250N01129308EA0181201872129012
B0959464749162N01129283EA0181101872127012
B0959504749079N01129262EA0180301864130012
B0959544748991N01129241EA0179001856133056
B0959584748900N01129220EA0178001848136032
K095958294012
B1000024748808N01129204EA0177301840138012
B1000064748716N01129195EA0177301832135032
B1000104748629N01129195EA0177301840128044
B1000144748545N01129204EA0177901840120028
B1000184748462N01129212EA0178101848116012
B1000224748387N01129229EA0178101848112028
B1000264748312N01129241EA0178301848105024
B1000304748241N01129258EA0178501848101016
B1000344748175N01129275EA0178601848098036
B1000384748108N01129287EA0178501848099032
K100038296015
K100038294016
B1000424748041N01129295EA0177801840103036
B1000464747970N01129300EA0177301832104036
B1000504747900N01129304EA0176801832103036
B1000544747829N01129308EA0176801832101036
B1000584747762N01129312EA0176601824101020
K100058284020
K100058284019
B1001024747695N01129325EA0176301824101028
B1001064747625N01129341EA0176101824101020
B1001104747558N01129354EA0175601816100020
B1001144747491N01129370EA0175601816100020
B1001184747425N01129387EA0175301816097020
K100118284015
B1001224747362N01129400EA0175101808098020
B1001264747295N01129412EA0174301808100020
B1001304747229N01129425EA0174301800100020
B1001344747162N01129437EA0173601800101020
B1001384747095N01129450EA0173601792100020
K100138276017
B1001424747029N01129462EA0172901792100020
B1001464746962N01129475EA0172501792101020
B1001504746895N01129487EA0172301784102020
B1001544746829N01129504EA0172201784101036
B1001584746762N01129525EA0171701776102028
B1002024746695N01129545EA0171301776103036
B1002064746629N01129558EA0171101768102036
B1002104746558N01129570EA0170801768101036
B1002144746495N01129583EA0170601768101036
B1002184746425N01129595EA0170301768101036
B1002224746362N01129608EA0170101760098036
B1002264746295N01129625EA0169901760098036
B1002304746229N01129637EA0169601760099036
B1002344746166N01129650EA0169001752099020
B1002384746100N01129662EA0168701752100028
K100238272020
B1002424746033N01129675EA0168201744101036
B1002464745966N01129687EA0167801736104028
B1002504745895N01129700EA0167301736106052
B1002544745825N01129708EA0166501728106044
B1002584745758N01129716EA0166301728106052
K100258272020
B1003024745687N01129720EA0166001720104052
B1003064745620N01129720EA0165501720103008
B1003104745554N01129725EA0165201712105032
B1003144745487N01129729EA0165201712101052
B1003184745420N01129733EA0165201712101032
K100318272018
B1003224745358N01129737EA0165201712099036
B1003264745291N01129745EA0164901712096044
B1003304745229N01129754EA0164501704099020
B1003344745162N01129762EA0164101704103028
B1003384745095N01129766EA0163901704098020
B1003424745033N01129758EA0164001704097020
B1003464744970N01129745EA0163901704098036
B1003504744912N01129733EA0163601696099028
B1003544744845N01129720EA0163601696097020
B1003584744787N01129704EA0163301696096028
B1004024744725N01129700EA0162801688100020
B1004064744658N01129704EA0162801688099020
B1004104744595N01129700EA0162801688097020
B1004144744533N01129695EA0162801688094020
B1004184744470N01129687EA0162501680097020
B1004224744404N01129679EA0162401680099020
B1004264744341N01129675EA0161801680099020
B1004304744279N01129670EA0161401672102020
B1004344744216N01129670EA0161401672097020
B1004384744158N01129666EA0161301672091020
B1004424744095N01129658EA0160401672100020
B1004464744033N01129645EA0159701656094020
B1004504743966N01129625EA0158401648104020
B1004544743904N01129595EA0158001640103020
B1004584743841N01129558EA0157601640097036
K100458276016
B1005024743779N01129520EA0156501624101028
B1005064743716N01129475EA0156001616105036
B1005104743650N01129441EA0155401616101036
B1005144743583N01129404EA0155301616102036
B1005184743516N01129370EA0155101608107036
K100518338005
B1005224743450N01129337EA0154701608099036
B1005264743383N01129304EA0153701600100036
B1005304743337N01129225EA0152401592107052
B1005344743350N01129116EA0150701568113044
B1005384743366N01129000EA0150401560115008
B1005424743375N01128883EA0150901568102032
B1005464743379N01128779EA0151201576098008
B1005504743375N01128675EA0151301568100008
B1005544743366N01128570EA0150701568104052
B1005584743362N01128466EA0149901560102032
K100558108006
K100558116006
B1006024743358N01128362EA0149501552105052
B1006064743345N01128258EA0148401544108052
B1006104743337N01128158EA0147901536109052
B1006144743325N01128062EA0147901536099052
B1006184743316N01127966EA0147901536093008
K100618150012
B1006224743291N01127875EA0146501520098032
B1006264743241N01127795EA0146301520108036
B1006304743183N01127754EA0149201536089024
B1006344743133N01127783EA0149601552088008
B1006384743120N01127870EA0149201544093024
K100638142011
B1006424743170N01127904EA0149701552099008
B1006464743187N01127820EA0150001560099008
B1006504743125N01127787EA0151301568103052
B1006544743100N01127862EA0153301592093032
B1006584743145N01127900EA0153701592095008
K100658358008
K100658358008
B1007024743170N01127825EA0154801600091032
B1007064743125N01127770EA0156601624090036
B1007104743079N01127804EA0158801640077024
B1007144743079N01127879EA0158201640092052
B1007184743137N01127891EA0158201640088044
K100718008010
B1007224743170N01127825EA0159101648083036
B1007264743154N01127741EA0160101656092044
B1007304743108N01127683EA0161101664091036
B1007344743050N01127704EA0161901680094036
B1007384743045N01127787EA0162901688095036
K100738082006
B1007424743100N01127812EA0164001696094036
B1007464743141N01127750EA0165501712093052
B1007504743120N01127670EA0166501720086044
B1007544743062N01127666EA0166001720099036
B1007584743029N01127750EA0166601728101044
K100758106005
B1008024743058N01127829EA0168301744092036
B1008064743116N01127833EA0168301736092036
B1008104743145N01127750EA0168201736105036
B1008144743112N01127666EA0170001752091036
B1008184743050N01127666EA0170801768095052
K100818128001
B1008224743033N01127758EA0171301768106044
B1008264743087N01127795EA0172301784093036
B1008304743125N01127725EA0172801792098044
B1008344743095N01127641EA0174201800097052
B1008384743033N01127645EA0175801824090044
K100838062001
B1008424743000N01127712EA0176101824097052
B1008464743025N01127787EA0177101832091052
B1008504743083N01127783EA0177101832100036
B1008544743116N01127695EA0177201832093044
B1008584743079N01127629EA0179101848096036
K100858032000
B1009024743025N01127670EA0179201848100036
B1009064743041N01127758EA0178701848105052
B1009104743108N01127758EA0179301848100044
B1009144743133N01127670EA0179701856104052
B1009184743079N01127620EA0179201848111052
K100918170007
B1009224743012N01127650EA0180601856108052
B1009264742970N01127720EA0182501880093052
B1009304743004N01127791EA0181501872103008
B1009344743070N01127758EA0182201880103032
B1009384743070N01127670EA0183301896100052
K100938298002
B1009424743004N01127658EA0183301896110032
B1009464742958N01127733EA0184801912095052
B1009504742970N01127812EA0185801920088052
B1009544743037N01127825EA0184701904104052
B1009584743075N01127745EA0184601904111052
K100958266008
B1010024743054N01127654EA0186001920099036
B1010064743000N01127620EA0186001920103044
B1010104742966N01127700EA0185501912112008
B1010144743016N01127766EA0185601920107024
B1010184743079N01127725EA0186701928100008
K101018168005
B1010224743091N01127629EA0187701944097008
B1010264743083N01127541EA0188001944100052
B1010304743033N01127500EA0188401944096032
B1010344742983N01127562EA0187001928111008
B1010384742954N01127666EA0186701928118032
K101038150009
B1010424742941N01127770EA0188501944098008
B1010464742945N01127870EA0188401944104008
B1010504742950N01127975EA0188001944106008
B1010544742937N01128070EA0188301944104008
B1010584742883N01128120EA0189201960098052
K101058158008
B1011024742825N01128095EA0189701960099032
B1011064742800N01128012EA0190101968102052
B1011104742841N01127933EA0190101960101052
B1011144742908N01127933EA0190601968088052
B1011184742958N01128000EA0190401968103052
K101118158008
B1011224742958N01128095EA0190501968104036
B1011264742916N01128162EA0191601984092044
B1011304742870N01128208EA0191601984090036
B1011344742816N01128241EA0190101968098036
B1011384742741N01128262EA0188601952114036
K101138206006
B1011424742666N01128287EA0188401952115036
B1011464742587N01128312EA0188401952113008
B1011504742508N01128337EA0187201936120024
B1011544742420N01128366EA0186201928130024
B1011584742337N01128400EA0186201928122016
K101158224007
B1012024742258N01128433EA0186601936113040
B1012064742179N01128470EA0186801936111032
B1012104742108N01128504EA0186801936113024
B1012144742033N01128545EA0186101928115032
B1012184741962N01128583EA0185901920109008
K101218272020
B1012224741891N01128600EA0185601920105016
B1012264741820N01128591EA0185501920100024
B1012304741754N01128570EA0185101912105016
B1012344741691N01128545EA0184801912102052
B1012384741625N01128520EA0185001912099040
K101238282026
B1012424741562N01128508EA0185301912101036
B1012464741512N01128462EA0185701920096044
B1012504741512N01128366EA0186001928094052
B1012544741570N01128337EA0186201920090044
B1012584741608N01128408EA0184101904098020
K101258278025
B1013024741583N01128491EA0184201904085036
B1013064741520N01128504EA0184601904090020
B1013104741466N01128458EA0185801920095020
B1013144741441N01128370EA0185901920101036
B1013184741483N01128295EA0185201912095028
K101318330002
B1013224741541N01128308EA0185501920088036
B1013264741562N01128383EA0185001912101036
B1013304741533N01128462EA0187101928091020
B1013344741487N01128512EA0188701952081028
B1013384741433N01128495EA0188601952092036
K101338104004
B1013424741425N01128404EA0188701952090028
B1013464741470N01128354EA0188801952090036
B1013504741520N01128391EA0188801952097036
B1013544741525N01128475EA0191001968084004
B1013584741483N01128529EA0191601976087020
K101358090000
B1014024741425N01128537EA0192001984089020
B1014064741391N01128475EA0192301984091012
B1014104741416N01128395EA0191901976096020
B1014144741475N01128395EA0192001984085020
B1014184741495N01128479EA0191701976094020
K101418192002
B1014224741454N01128537EA0192301984085020
B1014264741400N01128529EA0193302000079004
B1014304741350N01128487EA0193301992083012
B1014344741316N01128416EA0192401984091020
B1014384741350N01128341EA0190601968099012
K101438312003
B1014424741408N01128358EA0190601968091036
B1014464741420N01128441EA0190601968090028
B1014504741379N01128504EA0189701960097036
B1014544741316N01128504EA0189601960100036
B1014584741250N01128487EA0189501960097036
K101458140000
B1015024741191N01128470EA0190101960089036
B1015064741133N01128458EA0189201960092020
B1015104741070N01128445EA0188501944096028
B1015144741008N01128437EA0188101944094020
B1015184740945N01128420EA0187701936091020
K101518278012
B1015224740879N01128408EA0187501936097036
B1015264740816N01128400EA0187501936090028
B1015304740754N01128383EA0187701944092020
B1015344740720N01128308EA0188301944092028
B1015384740745N01128229EA0188701952094020
K101538282013
B1015424740800N01128216EA0190501968086020
B1015464740837N01128275EA0190701968080020
B1015504740820N01128366EA0190701968088020
B1015544740766N01128412EA0191301976084004
B1015584740712N01128391EA0191801984083012
K101558326006
B1016024740687N01128316EA0191601976090020
B1016064740716N01128241EA0191701984096012
B1016104740770N01128250EA0192201984097004
B1016144740791N01128337EA0192301992094012
B1016184740758N01128420EA0193502000088020
K101618324009
B1016224740704N01128441EA0194002000084012
B1016264740650N01128395EA0193602000096020
B1016304740641N01128308EA0194002000089020
B1016344740683N01128250EA0193902000095004
B1016384740737N01128279EA0193802000099012
K101638326009
B1016424740754N01128366EA0195102016089036
B1016464740720N01128441EA0195202016091020
B1016504740658N01128445EA0195602016088020
B1016544740625N01128375EA0195402016092028
B1016584740645N01128291EA0195202016097020
K101658310006
B1017024740704N01128287EA0195602016090020
B1017064740729N01128366EA0196102024092020
B1017104740708N01128458EA0197102032084020
B1017144740654N01128495EA0197202032092020
B1017184740604N01128445EA0196502024096020
K101718292005
B1017224740620N01128366EA0196502024091020
B1017264740679N01128358EA0196602032095020
B1017304740729N01128404EA0197602040087020
B1017344740783N01128404EA0197602040094020
B1017384740800N01128329EA0197002032094052
K101738284005
B1017424740750N01128262EA0195602024108036
B1017464740679N01128233EA0195502016111036
B1017504740604N01128208EA0195602024108044
B1017544740529N01128183EA0195602016107008
B1017584740454N01128166EA0194502008112024
K101758284005
B1018024740375N01128145EA0193702000120052
B1018064740291N01128129EA0192701992124032
B1018104740204N01128120EA0192101984124008
B1018144740116N01128108EA0191401976129032
B1018184740029N01128095EA0191501976127024
K101818304007
B1018224739945N01128087EA0192201984120016
B1018264739866N01128091EA0193201992111056
B1018304739791N01128100EA0194202000106040
B1018344739720N01128116EA0195202008100008
B1018384739675N01128187EA0195302008106032
K101838314007
B1018424739691N01128283EA0194602008105052
B1018464739758N01128295EA0193602000107032
B1018504739816N01128225EA0192001976117036
B1018544739862N01128129EA0192301984113044
B1018584739895N01128033EA0194002000101008
K101858314007
B1019024739920N01127941EA0195602016097024
B1019064739945N01127854EA0195802016100052
B1019104740008N01127845EA0196702024099032
B1019144740033N01127925EA0197202032098036
B1019184739987N01127995EA0197102032098044
K101918314007
B1019224739920N01127970EA0197902040100036
B1019264739895N01127883EA0199202056093036
B1019304739933N01127825EA0199702064094052
B1019344739987N01127858EA0201202072088044
B1019384739987N01127933EA0201802080083020
K101938028003
B1019424739937N01127970EA0201702080093036
B1019464739883N01127920EA0202902088090020
B1019504739887N01127833EA0203302096093020
B1019544739941N01127808EA0204602112088020
B1019584739975N01127870EA0205302112091020
K101958068003
B1020024739954N01127950EA0205602120090004
B1020064739895N01127966EA0206902128090012
B1020104739854N01127916EA0207902144083020
B1020144739850N01127833EA0208202144088012
B1020184739891N01127775EA0208202144092020
K102018024004
B1020224739945N01127800EA0208702152087020
B1020264739958N01127883EA0209302160087036
B1020304739925N01127954EA0210802168087028
B1020344739875N01127987EA0211502176088004
B1020384739825N01127937EA0211602176095020
K102038278001
B1020424739829N01127850EA0212002184091020
B1020464739887N01127837EA0212102184100012
B1020504739912N01127925EA0212102184107036
B1020544739883N01128016EA0213802200098028
B1020584739837N01128070EA0215002208091052
K102058006005
B1021024739783N01128120EA0215702216093044
B1021064739725N01128170EA0216102224096036
B1021104739658N01128220EA0216002224103044
B1021144739591N01128266EA0215502216108036
B1021184739520N01128320EA0215302216114036
K102118004005
B1021224739450N01128383EA0213402192135008
B1021264739375N01128470EA0212902192124024
B1021304739300N01128558EA0211302184136056
B1021344739216N01128650EA0209202160148032
B1021384739129N01128745EA0208802152144012
K102138288006
B1021424739041N01128841EA0207102136148032
B1021464738950N01128937EA0204602112161044
B1021504738854N01129033EA0203102096168028
B1021544738762N01129129EA0203402096157032
B1021584738675N01129220EA0204602104146040
K102158260030
B1022024738595N01129295EA0205802120137032
B1022064738520N01129370EA0206502128130032
B1022104738454N01129445EA0206202128127028
B1022144738383N01129520EA0205202112131032
B1022184738300N01129566EA0204002104139056
K102218258036
B1022224738212N01129570EA0204102104131040
B1022264738133N01129533EA0205502120131056
B1022304738070N01129491EA0210302160096056
B1022344738050N01129420EA0211002168098040
B1022384738104N01129379EA0211302176097048
K102238258036
B1022424738145N01129450EA0212302184086036
B1022464738120N01129533EA0212602184094040
B1022504738079N01129583EA0213602200082020
B1022544738029N01129575EA0214002200096028
B1022584738033N01129491EA0215102208095036
K102258222014
B1023024738095N01129475EA0216702232082028
B1023064738141N01129545EA0217102232088036
B1023104738129N01129629EA0217502232079036
B1023144738079N01129650EA0217602232091020
B1023184738037N01129604EA0219202248085028
K102318208015
B1023224738033N01129537EA0220002264082052
B1023264738087N01129487EA0220102264098036
B1023304738141N01129545EA0221202272093020
B1023344738120N01129625EA0221202272089036
B1023384738062N01129625EA0221102272098036
K102338212011
B1023424738020N01129583EA0222202280090028
B1023464738020N01129500EA0221702280100036
B1023504738070N01129437EA0223702304088036
B1023544738129N01129462EA0224502312086036
B1023584738145N01129550EA0223902304095036
K102358190010
B1024024738095N01129608EA0223702304101004
B1024064738045N01129579EA0225002312085020
B1024104738004N01129525EA0225502320084036
B1024144737958N01129479EA0226802328084020
B1024184737912N01129433EA0227102336084036
K102418194010
B1024224737862N01129395EA0227802344088036
B1024264737808N01129354EA0229102352096020
B1024304737754N01129316EA0230402368092028
B1024344737700N01129270EA0230602368091036
B1024384737645N01129220EA0230402368104028
K102438278012
B1024424737591N01129154EA0230602368108020
B1024464737529N01129079EA0229102352127028
B1024504737458N01128995EA0227502336129024
B1024544737383N01128900EA0227002336136024
B1024584737308N01128804EA0226902336137012
K102458304019
B1025024737233N01128704EA0224802312143016
B1025064737145N01128616EA0223502304146044
B1025104737054N01128554EA0222802296146028
B1025144736958N01128495EA0222702296144044
B1025184736862N01128445EA0220702280152044
K102518086014
B1025224736758N01128387EA0217102232169028
B1025264736645N01128333EA0215402216176036
B1025304736533N01128287EA0215402224166060
B1025344736425N01128237EA0215602224169044
B1025384736325N01128175EA0216702232152032
K102538328009
B1025424736233N01128112EA0217402240147048
B1025464736150N01128037EA0217002232143060
B1025504736070N01127954EA0218102240134048
B1025544736000N01127875EA0219702256126044
B1025584735929N01127800EA0221102264118052
K102558326016
B1026024735854N01127745EA0222602288115040
B1026064735795N01127687EA0224702312092040
B1026104735800N01127600EA0224602312095052
B1026144735858N01127579EA0224602312091048
B1026184735908N01127633EA0224902312093020
K102618320019
B1026224735916N01127720EA0225102312091036
B1026264735870N01127783EA0224602312096020
B1026304735795N01127770EA0224202304106020
B1026344735720N01127741EA0223502296106020
B1026384735645N01127704EA0222802296110020
K102638320019
B1026424735570N01127666EA0221602280118036
B1026464735483N01127645EA0219602264132028
B1026504735387N01127637EA0217502248143052
B1026544735287N01127637EA0215502224148044
B1026584735179N01127650EA0212202192163012
K102658322016
B1027024735062N01127666EA0210202168170032
B1027064734945N01127683EA0209802160165032
B1027104734833N01127708EA0210202168159024
B1027144734725N01127733EA0210802176150032
B1027184734625N01127758EA0210702168149032
K102718324008
B1027224734520N01127779EA0209202160153060
B1027264734412N01127800EA0206202128167048
B1027304734295N01127820EA0206302120164016
B1027344734195N01127837EA0208402144143040
B1027384734104N01127850EA0209602160132016
K102738284020
B1027424734020N01127845EA0210402168120016
B1027464733933N01127825EA0210202168123028
B1027504733850N01127791EA0209802160121024
B1027544733766N01127750EA0208802152123024
B1027584733683N01127700EA0208402144125024
K102758294031
B1028024733600N01127645EA0209002152114024
B1028064733525N01127604EA0210402168098024
B1028104733458N01127575EA0211502176091008
B1028144733391N01127554EA0211502184097016
B1028184733329N01127545EA0212602192078004
K102818000017
B1028224733266N01127525EA0211402176087008
B1028264733233N01127437EA0209402160111004
B1028304733233N01127329EA0209302152100004
B1028344733220N01127233EA0209302152095036
B1028384733200N01127145EA0207902144096020
K102838330019
B1028424733166N01127045EA0205202120111020
B1028464733129N01126937EA0202802088124028
B1028504733087N01126816EA0201702080130052
B1028544733045N01126695EA0201302072124036
B1028584733008N01126579EA0201002072125040
K102858354011
B1029024732970N01126454EA0199802056141048
B1029064732929N01126341EA0203802088118040
B1029104732900N01126258EA0206902136078040
B1029144732887N01126175EA0205702112095024
B1029184732870N01126070EA0201802088119032
K102918000010
B1029224732820N01125954EA0200102064130020
B1029264732775N01125833EA0201302072119024
B1029304732737N01125720EA0204002104105008
B1029344732704N01125616EA0205102112101016
B1029384732666N01125520EA0205302112100052
K102938048009
B1029424732625N01125429EA0205802120098032
B1029464732575N01125370EA0206302120092020
B1029504732508N01125383EA0205002112100036
B1029544732450N01125441EA0203702104104036
B1029584732375N01125429EA0201802080119028
K102958084009
B1030024732304N01125362EA0201102072126036
B1030064732245N01125279EA0201102072118036
B1030104732187N01125212EA0202302088104008
B1030144732133N01125145EA0203702096098024
B1030184732079N01125087EA0206302120091052
K103018084009
B1030224732058N01125008EA0206902128094032
B1030264732112N01124945EA0206202120107036
B1030304732166N01124995EA0209002152088044
B1030344732162N01125079EA0210302168085020
B1030384732104N01125108EA0210202160109028
K103038084009
