AZANG24 ZANDER GP940 V1.25
HFDTE200505
HFFXA050
HFPLT Pilot             :Mathias Schunk                          
HFGTY Glider type       :LS 8-18                                 
HFGID Glider ID         :D-2366(PM)
HFDTM100 GPS Datum      :WGS84
HFRFW Firmware Version  :1.25
HFRHW Hardware version  :A
HFFTY FR Type           :ZANDER GP940
HFGPS                   :Motorola,VP ONCORE,8,30000
HFPRS Press Alt Sensor  :Motorola,MPX100A,10000
HFCCL Competition Class :18 Meter                                
HFCID Competition ID    :PM        
I023638IAS3941ENL
J020810WDI1113WVE
LZAN 082057 PowerOn
C190505081203190505000101
C4749716N01127900E KOENIGSDORF 
C4749700N01128200E KDFEND28    
C4600516N00717183E COMBINNORD  
C4749700N01128200E KDFEND28    
C4749716N01127900E KOENIGSDORF 
B0821014749741N01128033EV0049300000009000
B0821054749741N01128033EV0049200000009000
B0821094749741N01128033EV0049200000012000
B0821134749741N01128033EV0049100000012000
B0821174749741N01128033EV0049000000012000
B0821214749741N01128033EV0049000000012000
B0821254749741N01128033EV0048900000014000
B0821294749741N01128033EV0048900000009000
B0821334749741N01128033EV0048900000012000
B0821374749741N01128033EV0048900000012000
B0821414749929N01127758EA0049000000012000
B0821454749633N01127641EA0049000000012000
B0821494749629N01127641EA0048900000014000
B0821514749625N01127641EA0048900000014000
B0821524749625N01127641EA0048900000014000
B0821534749625N01127641EA0049000000014000
B0821544749625N01127641EA0049000000000000
B0821554749620N01127641EA0048900000000000
B0821564749620N01127641EA0048900000000000
B0821574749620N01127641EA0049000000000000
B0821584749625N01127641EA0049000000000000
B0821594749625N01127641EA0048900000000000
B0822004749620N01127637EA0048900000000000
B0822014749745N01127687EA0048800000000000
B0822054749741N01127683EA0049000600000000
B0822094749741N01127683EA0048900600000000
B0822134749741N01127683EA0049000600000000
B0822174749741N01127683EA0049000600000000
B0822184749741N01127683EA0049000600000000
B0822194749741N01127683EA0048900600000000
B0822204749741N01127683EA0049000600000000
B0822214749741N01127683EA0048900600000000
B0822224749741N01127683EA0049000600000000
B0822234749741N01127683EA0048900600000000
B0822244749741N01127683EA0048900600000000
B0822254749741N01127683EA0048900600000000
B0822264749741N01127683EA0049000600000000
B0822274749741N01127683EA0048900600000000
B0822294749741N01127683EA0048900600000000
B0822334749741N01127683EA0048900608000000
B0822374749741N01127683EA0048900608000000
B0822414749741N01127683EA0048900608000000
B0822454749741N01127687EA0048900608000000
B0822494749741N01127687EA0048900608000000
B0822534749741N01127687EA0048900608000000
B0822574749741N01127687EA0048800608000000
B0823014749741N01127687EA0048800608000000
B0823054749741N01127687EA0048900608000000
B0823094749741N01127687EA0048900608000000
B0823134749741N01127687EA0049000608000000
B0823174749741N01127687EA0048900608007000
B0823214749741N01127687EA0048900608000000
B0823254749741N01127687EA0048900608000000
B0823294749741N01127687EA0048800608000000
B0823334749741N01127687EA0048900608000000
B0823374749741N01127687EA0048900608000000
B0823414749741N01127687EA0048800608000000
B0823454749741N01127687EA0048800608000000
B0823494749741N01127687EA0048800608000000
B0823534749741N01127687EA0048800000000000
B0823574749741N01127687EA0048800600000000
B0824014749741N01127687EA0048800600000000
B0824054749741N01127687EA0048800600000000
B0824094749741N01127687EA0048800600000000
B0824134749741N01127687EA0048900600000000
B0824174749741N01127687EA0048900600000000
B0824214749741N01127687EA0048800600000000
B0824254749741N01127687EA0048800608000000
B0824294749741N01127687EA0048800608000000
B0824334749741N01127687EA0048800608000000
B0824374749741N01127687EA0048800608000000
B0824414749741N01127683EA0048900600000000
B0824454749741N01127683EA0048900600000000
B0824494749741N01127683EA0048800600000000
B0824534749741N01127683EA0048800600000000
B0824574749741N01127687EA0048800608000000
B0825014749741N01127687EA0048900608000000
B0825054749741N01127687EA0048800608007000
B0825094749741N01127687EA0048800608000000
B0825134749741N01127687EA0048900608000000
B0825174749741N01127687EA0048800608000000
B0825214749741N01127687EA0048800608000000
B0825254749741N01127687EA0049000608000000
B0825294749741N01127687EA0049000608000000
B0825334749741N01127687EA0049000608000000
B0825374749741N01127687EA0049000608000000
B0825414749741N01127687EA0049000608000000
B0825454749741N01127687EA0049000608000000
B0825494749741N01127687EA0049100608000000
B0825534749741N01127687EA0049000608000000
B0825574749741N01127687EA0049000608000000
B0826014749741N01127687EA0049000608000000
B0826054749741N01127687EA0049000608000000
B0826094749741N01127687EA0049000608000000
B0826134749741N01127687EA0049000608000000
B0826174749741N01127687EA0049000608000000
B0826214749741N01127687EA0049100608000000
B0826254749741N01127687EA0048900608000000
B0826294749741N01127687EA0049000608000000
B0826334749741N01127687EA0049000608000000
B0826374749741N01127687EA0049000608000000
B0826414749741N01127687EA0049000608000000
B0826454749741N01127687EA0049000608000000
B0826494749741N01127687EA0049000608000000
B0826534749741N01127687EA0049000608000000
B0826574749741N01127687EA0049000608000000
B0827014749741N01127687EA0049000608000000
B0827054749745N01127687EA0049000608000000
B0827094749745N01127687EA0049000608000000
B0827134749745N01127687EA0049000608000000
B0827174749745N01127687EA0049100608000000
B0827214749745N01127687EA0049100608000000
B0827254749745N01127687EA0049100608000000
B0827294749745N01127687EA0049000608000000
B0827334749745N01127687EA0049100608000000
B0827374749741N01127687EA0049100608000000
B0827414749741N01127687EA0049100608000000
B0827454749741N01127687EA0049100608000000
B0827494749741N01127687EA0049100608000000
B0827534749741N01127687EA0049100608000000
B0827574749741N01127687EA0049000608000000
B0828014749741N01127687EA0049100600000000
B0828054749741N01127687EA0049100600000000
B0828094749741N01127687EA0049000600000000
B0828134749741N01127687EA0049100600000000
B0828174749741N01127687EA0049100600000000
B0828214749741N01127687EA0049100600000000
B0828254749741N01127687EA0049100600000000
B0828294749741N01127687EA0049100600000000
B0828334749741N01127687EA0049100600000000
B0828374749741N01127687EA0049100600000000
B0828414749741N01127687EA0049100600000000
B0828454749741N01127687EA0049100600000000
B0828494749741N01127687EA0049100600000000
B0828534749741N01127687EA0049100600000000
B0828574749741N01127687EA0049100600000000
B0829014749741N01127687EA0049000600000000
B0829054749741N01127687EA0049100600000000
B0829094749741N01127687EA0049100600000000
B0829134749741N01127687EA0049100600000000
B0829174749741N01127687EA0049000600000000
B0829214749741N01127687EA0049100600000000
B0829254749745N01127687EA0049100600000000
B0829294749745N01127687EA0049100600000000
B0829334749745N01127687EA0049100600007000
B0829374749745N01127687EA0049100600007000
B0829414749745N01127687EA0049100600000000
B0829454749745N01127687EA0049100600000000
B0829494749741N01127687EA0049100600000000
B0829534749741N01127687EA0049100600000000
B0829574749741N01127687EA0049100600000000
B0830014749745N01127687EA0049100600000000
B0830054749745N01127687EA0049100608000000
B0830094749745N01127687EA0049100608000000
B0830134749745N01127687EA0049100608007000
B0830174749745N01127687EA0049100608000000
B0830214749745N01127687EA0049100608000000
B0830254749745N01127687EA0049200608000000
B0830294749745N01127687EA0049200600000000
B0830334749745N01127687EA0049200600000000
B0830374749745N01127691EA0049200600000000
B0830414749745N01127691EA0049200600000000
B0830454749745N01127691EA0049200600000000
B0830494749745N01127691EA0049200600000000
B0830534749745N01127691EA0049200600000000
B0830574749745N01127691EA0049300600000000
B0831014749745N01127691EA0049200600000000
B0831054749745N01127691EA0049200600000000
B0831094749745N01127691EA0049200600000000
B0831134749745N01127691EA0049300600007000
B0831174749745N01127691EA0049300600000000
B0831214749745N01127691EA0049300600007000
B0831254749745N01127691EA0049200600000000
B0831294749745N01127691EA0049300600000000
B0831334749745N01127695EA0049300600000000
B0831374749741N01127695EA0049300600000000
B0831414749745N01127691EA0049300600000000
B0831454749745N01127691EA0049300600000000
B0831494749745N01127691EA0049300600000000
B0831534749745N01127691EA0049300600000000
B0831574749745N01127691EA0049300600000000
B0832014749745N01127691EA0049300600007000
B0832054749745N01127691EA0049300600007000
B0832094749745N01127691EA0049300600000000
B0832134749745N01127691EA0049300600000000
B0832174749745N01127691EA0049300600000000
B0832214749745N01127691EA0049300600000000
B0832254749745N01127691EA0049300600000000
B0832294749745N01127691EA0049400600000000
B0832334749745N01127691EA0049400600000000
B0832374749745N01127691EA0049300600000000
B0832414749745N01127691EA0049400600000000
B0832454749745N01127691EA0049400600007000
B0832494749745N01127691EA0049300600000000
B0832534749745N01127691EA0049400600000000
B0832574749745N01127691EA0049400600007000
B0833014749745N01127691EA0049400600000000
B0833054749745N01127691EA0049400600000000
B0833094749745N01127691EA0049500600000000
B0833134749745N01127691EA0049500600007000
B0833174749745N01127691EA0049400600000000
B0833214749745N01127691EA0049500600000000
B0833254749745N01127691EA0049400600000000
B0833294749745N01127691EA0049500600000000
B0833334749745N01127691EA0049500600000000
B0833374749745N01127691EA0049500600007000
B0833414749745N01127691EA0049400600000000
B0833454749745N01127691EA0049500600007000
B0833494749745N01127691EA0049500600007000
B0833534749745N01127691EA0049500600000000
B0833574749745N01127691EA0049500600007000
B0834014749745N01127691EA0049500600007000
B0834054749745N01127691EA0049500600000000
B0834094749745N01127691EA0049500600000000
B0834134749745N01127691EA0049500600007000
B0834174749745N01127691EA0049500600007000
B0834214749745N01127691EA0049500600000000
B0834254749745N01127691EA0049500600000000
B0834294749745N01127691EA0049500600000000
B0834334749745N01127691EA0049500600000000
B0834374749745N01127691EA0049500600000000
B0834414749745N01127691EA0049500600000000
B0834454749745N01127691EA0049500600000000
B0834494749745N01127691EA0049500600000000
B0834534749745N01127691EA0049500600000000
B0834574749745N01127691EA0049500600000000
B0835014749745N01127691EA0049600600007000
B0835054749745N01127691EA0049600600000000
B0835094749745N01127691EA0049600600007000
B0835134749745N01127691EA0049600600007000
B0835174749745N01127691EA0049500600000000
B0835214749745N01127691EA0049600600000000
B0835254749745N01127691EA0049600600000000
B0835294749745N01127691EA0049500600000000
B0835334749745N01127691EA0049600600007000
B0835374749745N01127691EA0049600600000000
B0835414749745N01127691EA0049600600007000
B0835454749745N01127691EA0049600600000000
B0835494749745N01127691EA0049600600000000
B0835534749745N01127691EA0049600600000000
B0835574749745N01127691EA0049600592000000
B0836014749745N01127691EA0049600592000000
B0836054749745N01127691EA0049600592000000
B0836094749745N01127691EA0049600592000000
B0836134749745N01127691EA0049600592000000
B0836174749745N01127691EA0049600592000000
B0836214749745N01127691EA0049600592000000
B0836254749745N01127691EA0049600592007000
B0836294749745N01127691EA0049600592000000
B0836334749745N01127691EA0049600592000000
B0836374749745N01127691EA0049700592000000
B0836414749745N01127691EA0049600592000000
B0836454749745N01127691EA0049600592000000
B0836494749745N01127691EA0049600592000000
B0836534749745N01127691EA0049600592000000
B0836574749745N01127691EA0049700592000000
B0837014749745N01127691EA0049600592000000
B0837054749745N01127691EA0049700592007000
B0837094749745N01127691EA0049700592007000
B0837134749745N01127691EA0049700592007000
B0837174749745N01127691EA0049700592000000
B0837214749745N01127691EA0049700592009000
B0837254749745N01127691EA0049700592007000
B0837294749745N01127691EA0049700592007000
B0837334749745N01127691EA0049700592007000
B0837374749745N01127691EA0049700592007000
B0837414749745N01127691EA0049700592000000
B0837454749745N01127691EA0049700592000000
B0837494749745N01127691EA0049700592000000
B0837534749745N01127691EA0049700592000000
B0837574749745N01127691EA0049700592000000
B0838014749745N01127691EA0049700592000000
B0838054749745N01127691EA0049700592000000
B0838094749745N01127691EA0049700592000000
B0838134749745N01127691EA0049700592007000
B0838174749745N01127691EA0049700592000000
B0838214749745N01127691EA0049700592007000
B0838254749745N01127691EA0049700592000000
B0838294749745N01127691EA0049600592007000
B0838334749745N01127691EA0049700592009000
B0838374749745N01127691EA0049700592000000
B0838414749745N01127691EA0049600592007000
B0838454749745N01127691EA0049700592007000
B0838494749745N01127691EA0049700592009000
B0838534749745N01127691EA0049600600007000
B0838574749745N01127691EA0049700600000000
B0839014749745N01127691EA0049700600007000
B0839054749745N01127691EA0049700600000000
B0839094749745N01127691EA0049700600000000
B0839134749745N01127691EA0049700600000000
B0839174749745N01127691EA0049700600007000
B0839214749745N01127691EA0049700600009000
B0839254749745N01127691EA0049700592007000
B0839294749745N01127691EA0049700592000000
B0839334749745N01127691EA0049700592007000
B0839374749745N01127691EA0049700592007000
B0839414749745N01127691EA0049700592000000
B0839454749745N01127691EA0049700592007000
B0839494749745N01127691EA0049600592000000
B0839534749745N01127691EA0049700592009000
B0839574749745N01127691EA0049700592007000
B0840014749745N01127691EA0049700592007000
B0840054749745N01127691EA0049600592007000
B0840094749745N01127691EA0049700592000000
B0840134749745N01127691EA0049700592000000
B0840174749745N01127691EA0049700592007000
B0840214749745N01127691EA0049600592000000
B0840254749745N01127691EA0049600600000000
B0840294749745N01127691EA0049700600000000
B0840334749745N01127691EA0049700600000000
B0840374749745N01127691EA0049500600000000
B0840414749745N01127691EA0049500600000000
B0840454749745N01127691EA0049600600000000
B0840494749745N01127691EA0049600600000000
B0840534749745N01127691EA0049600600007000
B0840574749745N01127691EA0049600600000000
B0841014749745N01127691EA0049600600000000
B0841054749745N01127691EA0049600600000000
B0841094749745N01127691EA0049600592000000
B0841134749745N01127691EA0049500592000000
B0841174749745N01127691EA0049600592000000
B0841214749745N01127691EA0049600592000000
B0841254749745N01127691EA0049600592000000
B0841294749745N01127691EA0049500592000000
B0841334749745N01127691EA0049600592000000
B0841374749745N01127691EA0049600592000000
B0841414749745N01127691EA0049600592000000
B0841454749745N01127691EA0049600592000000
B0841494749745N01127691EA0049600592000000
B0841534749745N01127691EA0049600592000000
B0841574749745N01127691EA0049600592007000
B0842014749745N01127691EA0049600592007000
B0842054749745N01127691EA0049600592007000
B0842094749745N01127691EA0049600592007000
B0842134749745N01127691EA0049600592007000
B0842174749745N01127691EA0049600592000000
B0842214749745N01127691EA0049600592007000
B0842254749745N01127691EA0049500592000000
B0842294749745N01127691EA0049600592000000
B0842334749745N01127691EA0049600592007000
B0842374749745N01127691EA0049600592007000
B0842414749745N01127691EA0049600592000000
B0842454749745N01127691EA0049600592007000
B0842494749745N01127691EA0049600592009000
B0842534749745N01127691EA0049600592007000
B0842574749745N01127691EA0049600592000000
B0843014749745N01127691EA0049600592000000
B0843054749745N01127691EA0049600592000000
B0843094749745N01127691EA0049600592007000
B0843134749745N01127691EA0049600592007000
B0843174749745N01127691EA0049600592007000
B0843214749745N01127691EA0049600592007000
B0843254749745N01127691EA0049600592009000
B0843294749745N01127691EA0049600592009000
B0843334749745N01127691EA0049600592007000
B0843374749745N01127691EA0049600592012000
B0843414749745N01127691EA0049600592007000
B0843454749745N01127691EA0049600592007000
B0843494749745N01127691EA0049600592009000
B0843534749745N01127691EA0049600592007000
B0843574749745N01127691EA0049600592007000
B0844014749745N01127691EA0049600592007000
B0844054749745N01127691EA0049600592000000
B0844094749745N01127691EA0049600592007000
B0844134749745N01127691EA0049600592007000
B0844174749745N01127691EA0049600592007000
B0844214749745N01127691EA0049600592000000
B0844254749745N01127691EA0049600592000000
B0844294749741N01127691EA0049700592007000
B0844334749741N01127691EA0049600592007000
B0844374749741N01127691EA0049600592000000
B0844414749741N01127691EA0049600600000000
B0844454749741N01127691EA0049600600000000
B0844494749741N01127691EA0049600600000000
B0844534749741N01127695EA0049600600000000
B0844574749741N01127695EA0049600600007000
B0845014749741N01127695EA0049600600000000
B0845054749741N01127695EA0049600600007000
B0845094749741N01127695EA0049600608007000
B0845134749741N01127695EA0049600608000000
B0845174749741N01127695EA0049600608000000
B0845214749737N01127695EA0049600608000000
B0845254749737N01127695EA0049600608007000
B0845294749737N01127695EA0049600600000000
B0845334749737N01127695EA0049600600000000
B0845374749737N01127695EA0049600600000000
B0845414749737N01127695EA0049600600000000
B0845454749737N01127695EA0049600600000000
B0845494749737N01127695EA0049600608009000
B0845534749737N01127695EA0049600608009000
B0845574749737N01127695EA0049600608000000
B0846014749737N01127695EA0049700608007000
B0846054749737N01127695EA0049700608000000
B0846094749737N01127695EA0049600608000000
B0846134749737N01127695EA0049700608007000
B0846174749737N01127695EA0049700608000000
B0846214749737N01127695EA0049700608007000
B0846254749737N01127695EA0049700608000000
B0846294749741N01127695EA0049600608009000
B0846334749741N01127695EA0049700608007000
B0846374749741N01127695EA0049700608000000
B0846414749741N01127695EA0049600608000000
B0846454749741N01127695EA0049600608007000
B0846494749737N01127695EA0049700608007000
B0846534749741N01127695EA0049600608000000
B0846574749741N01127695EA0049700608000000
B0847014749741N01127695EA0049700608000000
B0847054749741N01127691EA0049600608000000
B0847094749741N01127691EA0049600600007000
B0847134749741N01127691EA0049600600009000
B0847174749741N01127691EA0049700600000000
B0847214749741N01127691EA0049600600000000
B0847254749741N01127691EA0049700600000000
B0847294749741N01127691EA0049600600000000
B0847334749741N01127695EA0049700600009000
B0847374749741N01127695EA0049700600009000
B0847414749741N01127695EA0049700600000000
B0847454749741N01127695EA0049700608009000
B0847494749741N01127695EA0049700608000000
B0847534749741N01127695EA0049700608000000
B0847574749741N01127695EA0049700600000000
B0848014749741N01127695EA0049600600000000
B0848054749741N01127695EA0049600600000000
B0848094749741N01127695EA0049600600000000
B0848134749741N01127691EA0049700600007000
B0848174749741N01127691EA0049700600000000
B0848214749741N01127691EA0049700600000000
B0848254749741N01127691EA0049700600000000
B0848294749741N01127691EA0049700600000000
B0848334749741N01127691EA0049700600007000
B0848374749741N01127691EA0049700600007000
B0848414749741N01127691EA0049700600007000
B0848454749741N01127691EA0049700600007000
B0848494749741N01127691EA0049700600000000
B0848534749741N01127691EA0049700600000000
B0848574749741N01127695EA0049700600000000
B0849014749741N01127695EA0049700600000000
B0849054749737N01127695EA0049700600009000
B0849094749737N01127695EA0049800600007000
B0849134749737N01127695EA0049700600007000
B0849174749737N01127695EA0049700600007000
B0849214749737N01127695EA0049700600000000
B0849254749737N01127695EA0049600600007000
B0849294749741N01127695EA0049700600012000
B0849334749741N01127695EA0049700600015000
B0849374749741N01127695EA0049700600009000
B0849414749741N01127695EA0049700600015000
B0849454749741N01127695EA0049700600014000
B0849494749741N01127695EA0049700600009000
B0849534749741N01127695EA0049700600012000
B0849574749741N01127695EA0049700592007000
B0850014749741N01127695EA0049700600009000
B0850054749741N01127695EA0049700600012000
B0850094749741N01127691EA0049700600012000
B0850134749741N01127691EA0049700600009000
B0850174749741N01127691EA0049700600014000
B0850214749741N01127691EA0049700600009000
B0850254749741N01127691EA0049700600012000
B0850294749741N01127691EA0049700600014000
B0850334749741N01127691EA0049700600009000
B0850374749741N01127691EA0049700600007000
B0850414749741N01127691EA0049600600000000
B0850454749741N01127691EA0049600600000000
B0850494749741N01127691EA0049800600000000
B0850534749741N01127691EA0049600600000000
B0850574749741N01127691EA0049600600000000
B0851014749741N01127691EA0049600600000000
B0851054749741N01127691EA0049700600007000
B0851094749741N01127691EA0049600600000000
B0851134749741N01127691EA0049600600007000
B0851174749741N01127691EA0049600600007000
B0851214749741N01127691EA0049600600000000
B0851254749741N01127691EA0049600600000000
B0851294749745N01127691EA0049600600007000
B0851334749745N01127691EA0049600600000000
B0851374749745N01127691EA0049600600000000
B0851414749745N01127691EA0049600600000000
B0851454749745N01127691EA0049600600007000
B0851494749745N01127691EA0049600600000000
B0851534749745N01127691EA0049600600000000
B0851574749745N01127691EA0049600600009000
B0852014749745N01127691EA0049600600007000
B0852054749745N01127691EA0049600600012000
B0852094749745N01127691EA0049600600007000
B0852134749745N01127691EA0049600600009000
B0852174749745N01127691EA0049600600009000
B0852214749745N01127691EA0049700600014000
B0852254749745N01127691EA0049700600012000
B0852294749745N01127691EA0049700600009000
B0852334749745N01127691EA0049700600009000
B0852374749745N01127691EA0049600600012000
B0852414749745N01127691EA0049600600007000
B0852454749745N01127691EA0049600600000000
B0852494749745N01127691EA0049700600007000
B0852534749745N01127691EA0049600600014000
B0852574749741N01127691EA0049600600007000
B0853014749741N01127691EA0049600600000000
B0853054749741N01127691EA0049600592007000
B0853094749745N01127691EA0049700600007000
B0853134749745N01127691EA0049700600000000
B0853174749745N01127691EA0049700600009000
B0853214749745N01127691EA0049700600007000
B0853254749745N01127691EA0049700600009000
B0853294749745N01127691EA0049600600007000
B0853334749745N01127691EA0049700600007000
B0853374749745N01127691EA0049700600012000
B0853414749745N01127691EA0049600600009000
B0853454749745N01127691EA0049600600007000
B0853494749745N01127691EA0049600600007000
B0853534749745N01127691EA0049700600007000
B0853574749745N01127691EA0049600600007000
B0854014749745N01127691EA0049700600007000
B0854054749745N01127691EA0049600600007000
B0854094749745N01127691EA0049700600000000
B0854134749745N01127691EA0049600600009000
B0854174749745N01127691EA0049600600000000
B0854214749745N01127691EA0049700600012000
B0854254749745N01127691EA0049700600000000
B0854294749745N01127691EA0049700600007000
B0854334749745N01127691EA0049700600000000
B0854374749745N01127691EA0049700600000000
B0854414749745N01127691EA0049700600009000
B0854454749745N01127691EA0049700600000000
B0854494749745N01127691EA0049600600009000
B0854534749745N01127691EA0049700600007000
B0854574749745N01127691EA0049700600000000
B0855014749745N01127691EA0049700600009000
B0855054749745N01127691EA0049700600007000
B0855094749745N01127691EA0049700600000000
B0855134749745N01127687EA0049700600009000
B0855174749745N01127687EA0049700600007000
B0855214749745N01127687EA0049700600000000
B0855254749745N01127687EA0049700600000000
B0855294749745N01127687EA0049700600007000
B0855334749745N01127687EA0049700600007000
B0855374749745N01127687EA0049700600007000
B0855414749745N01127687EA0049600600000000
B0855454749745N01127687EA0049700600000000
B0855494749745N01127687EA0049700600007000
B0855534749745N01127687EA0049700600000000
B0855574749745N01127687EA0049700600009000
B0856014749745N01127687EA0049700600000000
B0856054749745N01127687EA0049600600007000
B0856094749745N01127687EA0049600600000000
B0856134749745N01127687EA0049700600007000
B0856174749745N01127687EA0049700600009000
B0856214749745N01127687EA0049700600009000
B0856254749745N01127691EA0049700608000000
B0856294749745N01127691EA0049700608000000
B0856334749745N01127691EA0049800608009000
B0856374749745N01127691EA0049700608007000
B0856414749745N01127691EA0049700608000000
B0856454749745N01127691EA0049700608007000
B0856494749745N01127691EA0049700608000000
B0856534749745N01127691EA0049700608007000
B0856574749745N01127691EA0049700608007000
B0857014749745N01127691EA0049700608000000
B0857054749745N01127687EA0049800608000000
B0857094749745N01127687EA0049700608007000
B0857134749745N01127687EA0049800608000000
B0857174749745N01127687EA0049700608007000
B0857214749745N01127687EA0049700608009000
B0857254749745N01127687EA0049600600007000
B0857294749745N01127687EA0049600600000000
B0857334749745N01127687EA0049700600007000
B0857374749745N01127687EA0049700600000000
B0857414749745N01127687EA0049800600007000
B0857454749745N01127687EA0049800600009000
B0857494749745N01127687EA0049800600000000
B0857534749745N01127687EA0049800600000000
B0857574749745N01127687EA0049700600007000
B0858014749745N01127687EA0049800600009000
B0858054749745N01127687EA0049800608000000
B0858094749745N01127687EA0049800600007000
B0858134749745N01127687EA0049800608007000
B0858174749745N01127687EA0049800608009000
B0858214749745N01127687EA0049800608000000
B0858254749745N01127687EA0049800608000000
B0858294749745N01127687EA0049800600007000
B0858334749745N01127687EA0049700600009000
B0858374749745N01127687EA0049700600009000
B0858414749745N01127687EA0049800600000000
B0858454749745N01127687EA0049700608000000
B0858494749745N01127691EA0049800608000000
B0858534749745N01127691EA0049800608000000
B0858574749745N01127691EA0049800608007000
B0859014749745N01127691EA0049800608007000
B0859054749745N01127691EA0049800608000000
B0859094749745N01127691EA0049800608000000
B0859134749745N01127691EA0049800608007000
B0859174749745N01127691EA0049800608000000
B0859214749745N01127691EA0049800608000000
B0859254749745N01127691EA0049700608007000
B0859294749745N01127691EA0049700608000000
B0859334749745N01127691EA0049800608007000
B0859374749745N01127691EA0049800608000000
B0859414749745N01127691EA0049800608007000
B0859454749745N01127691EA0049700608000000
B0859494749745N01127691EA0049800608000000
B0859534749745N01127691EA0049800608007000
B0859574749745N01127691EA0049800608007000
B0900014749745N01127691EA0049800608000000
B0900054749745N01127691EA0049800600009000
B0900094749745N01127691EA0049800600007000
B0900134749745N01127691EA0049800600000000
B0900174749745N01127691EA0049700600007000
B0900214749745N01127691EA0049800600007000
B0900254749745N01127691EA0049800600000000
B0900294749745N01127691EA0049800600000000
B0900334749745N01127691EA0049800600007000
B0900374749745N01127691EA0049800600007000
B0900414749745N01127691EA0049800600000000
B0900454749745N01127691EA0049800600007000
B0900494749745N01127691EA0049800600007000
B0900534749745N01127691EA0049800600000000
B0900574749745N01127691EA0049900600007000
B0901014749745N01127691EA0049800600007000
B0901054749745N01127691EA0049800600007000
B0901094749745N01127691EA0049700600007000
B0901134749745N01127691EA0049800600000000
B0901174749745N01127691EA0049700600000000
B0901214749745N01127691EA0049700600007000
B0901254749745N01127691EA0049700600007000
B0901294749745N01127691EA0049700600009000
B0901334749745N01127691EA0049700600009000
B0901374749745N01127691EA0049700600000000
B0901414749745N01127691EA0049700600000000
B0901454749745N01127691EA0049700600007000
B0901494749745N01127691EA0049700600007000
B0901534749745N01127691EA0049700600000000
B0901574749745N01127691EA0049600600007000
B0902014749745N01127687EA0049600600007000
B0902054749745N01127687EA0049700608000000
B0902094749745N01127687EA0049700608007000
B0902134749745N01127687EA0049700608000000
B0902174749745N01127687EA0049700608007000
B0902214749750N01127687EA0049700608000000
B0902254749750N01127687EA0049700608000000
B0902294749750N01127687EA0049600608007000
B0902334749750N01127687EA0049700608007000
B0902374749745N01127687EA0049800608007000
B0902414749750N01127687EA0049600600007000
B0902454749745N01127687EA0049600600007000
B0902494749745N01127687EA0049500600007000
B0902534749745N01127687EA0049600600007000
B0902574749745N01127687EA0049600600009000
B0903014749745N01127687EA0049600600007000
B0903054749745N01127687EA0049600600007000
B0903094749745N01127687EA0049500608007000
B0903134749745N01127687EA0049500600009000
B0903174749745N01127687EA0049600600012000
B0903214749745N01127687EA0049600608012000
B0903254749745N01127687EA0049600600012000
B0903294749745N01127687EA0049600608012000
B0903334749745N01127687EA0049600600007000
B0903374749745N01127687EA0049600600009000
B0903414749745N01127687EA0049500608009000
B0903454749745N01127687EA0049600608009000
B0903494749745N01127687EA0049600608000000
B0903534749745N01127687EA0049600600007000
B0903574749745N01127687EA0049600608009000
B0904014749745N01127687EA0049600608012000
B0904054749745N01127687EA0049600608007000
B0904094749745N01127687EA0049600608009000
B0904134749745N01127687EA0049600608009000
B0904174749745N01127687EA0049600608000000
B0904214749745N01127687EA0049500600007000
B0904254749745N01127687EA0049600600007000
B0904294749745N01127687EA0049500600007000
B0904334749745N01127687EA0049500600000000
B0904374749745N01127687EA0049500600007000
B0904414749745N01127687EA0049500600007000
B0904454749745N01127687EA0049600600007000
B0904494749745N01127687EA0049600608007000
B0904534749745N01127687EA0049500608007000
B0904574749745N01127687EA0049500600007000
B0905014749745N01127691EA0049500608007000
B0905054749745N01127691EA0049500608000000
B0905094749745N01127691EA0049600608000000
B0905134749745N01127691EA0049600608007000
B0905174749745N01127691EA0049500608007000
B0905214749745N01127691EA0049600608000000
B0905254749745N01127691EA0049500608000010
B0905294749745N01127691EA0049600600000000
B0905334749745N01127691EA0049600608000000
B0905374749745N01127691EA0049600608000000
B0905414749745N01127691EA0049600608000000
B0905454749745N01127691EA0049600608000000
B0905494749745N01127691EA0049600608000000
B0905534749745N01127691EA0049500608000000
B0905574749745N01127691EA0049500600000000
B0906014749745N01127691EA0049500600000000
B0906054749745N01127691EA0049500600007000
B0906094749745N01127691EA0049500600000000
B0906134749745N01127691EA0049500600007000
B0906174749745N01127691EA0049500600000000
B0906214749745N01127691EA0049500600009000
B0906254749745N01127691EA0049500600007000
B0906294749745N01127691EA0049500600000000
B0906334749745N01127691EA0049500600007000
B0906374749745N01127691EA0049500600000000
B0906414749745N01127691EA0049500592007000
B0906454749745N01127691EA0049500592007000
B0906494749745N01127691EA0049500592007000
B0906534749745N01127687EA0049500592007000
B0906574749745N01127687EA0049500592000000
B0907014749745N01127687EA0049500592007000
B0907054749745N01127687EA0049500592007000
B0907094749745N01127687EA0049500592000000
B0907134749745N01127687EA0049400592007000
B0907154749745N01127687EA0049400592009000
B0907164749745N01127687EA0049500592007000
B0907174749745N01127687EA0049500592007000
B0907184749745N01127687EA0049500592007000
B0907194749745N01127687EA0049500592000000
B0907204749745N01127687EA0049500592007000
B0907214749745N01127687EA0049500592007000
B0907224749745N01127687EA0049500592000000
B0907234749745N01127687EA0049500592000000
B0907244749745N01127687EA0049500592007000
B0907254749745N01127687EA0049500592007000
C200505090724200505000102
C4749716N01127900E KOENIGSDORF 
C4745633N01132683E ALPAMARE    
C4619866N01427583E STORZIC     
C4630266N00912400E B.SANBERNADI
C4745633N01132683E ALPAMARE    
C4749716N01127900E KOENIGSDORF 
B0907294749745N01127687EA0049500592007000
B0907334749745N01127687EA0049500600000000
B0907374749745N01127687EA0049500600007000
B0907414749745N01127687EA0049500600007000
B0907454749745N01127687EA0049400600000000
B0907494749745N01127687EA0049500600009000
B0907534749745N01127687EA0049500600009000
B0907574749745N01127687EA0049500600009000
B0908014749745N01127687EA0049400600009000
B0908054749745N01127687EA0049400600007000
B0908094749745N01127687EA0049500600000000
B0908134749745N01127687EA0049500600009000
B0908174749745N01127687EA0049400600007000
B0908214749745N01127687EA0049500600007000
B0908254749745N01127687EA0049500600000000
B0908294749745N01127687EA0049500600000000
B0908334749745N01127687EA0049500600007000
B0908374749745N01127687EA0049500600000000
B0908414749745N01127687EA0049500600007000
B0908454749745N01127687EA0049400600000000
B0908494749745N01127687EA0049500600000000
B0908534749745N01127687EA0049500600000000
B0908574749745N01127687EA0049500600000000
B0909014749745N01127687EA0049500600007000
B0909054749745N01127687EA0049400600007000
B0909094749745N01127687EA0049500600000000
B0909134749745N01127687EA0049500600007000
B0909174749745N01127687EA0049500600007000
B0909214749745N01127687EA0049500600000000
B0909254749745N01127683EA0049500600007000
B0909294749745N01127683EA0049500600000000
B0909334749745N01127683EA0049500600009000
B0909374749745N01127687EA0049500600007000
B0909414749745N01127687EA0049400600009000
B0909454749745N01127687EA0049500600007000
B0909494749745N01127687EA0049500600007000
B0909534749745N01127687EA0049500600000000
B0909574749745N01127687EA0049500608007000
B0910014749745N01127687EA0049500608009000
B0910054749745N01127687EA0049500608007000
B0910094749745N01127687EA0049500608007000
B0910134749745N01127687EA0049500608007000
B0910174749745N01127687EA0049400600000000
B0910214749745N01127687EA0049500608000000
B0910254749745N01127687EA0049500608000000
B0910294749745N01127687EA0049500608000000
B0910334749745N01127687EA0049400608000000
B0910374749745N01127691EA0049500608000000
B0910414749745N01127691EA0049500608000000
B0910454749745N01127691EA0049500608000000
B0910494749745N01127691EA0049500608000000
B0910534749745N01127691EA0049500608000000
B0910574749745N01127691EA0049400608007000
B0911014749745N01127691EA0049500600000000
B0911054749745N01127691EA0049500600009000
B0911094749745N01127687EA0049500600018000
B0911134749745N01127687EA0049500600000000
B0911174749745N01127687EA0049500600000000
B0911214749745N01127687EA0049200600000000
B0911254749745N01127691EA0049400600021010
B0911294749741N01127712EA0049600600064125
B0911334749737N01127750EA0049600600051150
B0911374749729N01127808EA0049500600083175
B0911414749720N01127879EA0050000600095150
K091141056007
B0911454749712N01127966EA0049900600116200
B0911494749700N01128062EA0050200600128100
B0911534749687N01128170EA0050300608122100
B0911574749675N01128279EA0051400616121100
B0912014749658N01128383EA0052900624119010
K091201068005
B0912054749641N01128491EA0052800632118010
B0912094749629N01128600EA0053100632118010
B0912134749616N01128716EA0054200640122100
B0912174749608N01128833EA0055800656111010
B0912214749616N01128945EA0056800672123010
K091221058009
B0912254749633N01129054EA0058200688122100
B0912294749662N01129162EA0058800688122010
B0912334749716N01129245EA0059500704125010
B0912374749775N01129325EA0059500704126100
B0912414749845N01129383EA0060300712125000
K091241068005
B0912454749920N01129420EA0061000720126000
B0912494749995N01129437EA0062100736121010
B0912534750075N01129458EA0063300752120000
B0912574750154N01129466EA0063300752126010
B0913014750233N01129479EA0063700752125010
K091301098006
B0913054750312N01129500EA0064800760124010
B0913094750391N01129529EA0065500768119000
B0913134750458N01129583EA0066600784121000
B0913174750520N01129650EA0068300792116010
B0913214750575N01129733EA0068300792124010
K091321100005
B0913254750616N01129833EA0068900800120010
B0913294750633N01129945EA0069300808115010
B0913334750637N01130058EA0069500808117010
B0913374750633N01130170EA0070800816120010
B0913414750616N01130291EA0071200824125010
K091341104004
B0913454750579N01130395EA0072300832114010
B0913494750537N01130495EA0074200848120010
B0913534750495N01130583EA0076400872117000
B0913574750445N01130666EA0076900880115000
B0914014750391N01130754EA0076100872127010
K091401062004
B0914054750325N01130829EA0076600872129010
B0914094750262N01130900EA0077400888124010
B0914134750195N01130970EA0078400896132010
B0914174750137N01131054EA0078900904120010
B0914214750075N01131133EA0079300904129010
K091421026006
B0914254750016N01131220EA0078400904129010
B0914294749950N01131287EA0081000928122000
B0914334749879N01131345EA0081400936120000
B0914374749804N01131395EA0081400936124000
B0914414749725N01131433EA0083100952120000
K091441022005
B0914454749650N01131458EA0084900968118000
B0914494749575N01131470EA0085700976120000
B0914534749500N01131475EA0087000984121000
B0914574749425N01131462EA0087200984123000
B0915014749350N01131441EA0087500984125000
K091501022005
B0915054749275N01131429EA0088100992124010
B0915094749200N01131408EA0088400992124000
B0915134749125N01131383EA0089501008122000
B0915174749050N01131358EA0090501016123010
B0915214748975N01131333EA0090801016125000
K091521270013
B0915254748900N01131312EA0091101024122000
B0915294748829N01131287EA0092501040120010
B0915334748758N01131258EA0093201048121000
B0915374748683N01131241EA0093401048123010
B0915414748608N01131216EA0094101056122000
K091541248008
B0915454748537N01131191EA0094401072119010
B0915494748466N01131162EA0096901088120000
B0915534748395N01131137EA0098201096122010
B0915574748325N01131112EA0099101104120010
B0916014748254N01131083EA0100601120118000
K091601254011
B0916054748183N01131054EA0101601136120010
B0916094748112N01131025EA0102301136120000
B0916134748045N01130991EA0102901144121000
B0916174747975N01130962EA0103801152120000
B0916214747908N01130925EA0104401160119000
K091621252012
B0916254747841N01130883EA0104601160121000
B0916294747775N01130841EA0105301168117000
B0916334747712N01130795EA0105701176114010
B0916374747645N01130745EA0105801176114010
B0916414747575N01130704EA0106601184121010
K091641262015
B0916454747504N01130658EA0107701192118000
B0916494747437N01130608EA0108801208116010
B0916534747370N01130558EA0110101216119000
B0916574747304N01130512EA0111501232117010
B0917014747241N01130462EA0112701248117000
K091701278012
B0917054747187N01130395EA0113501256118000
B0917094747141N01130320EA0114201264118000
B0917134747104N01130237EA0115201272117010
B0917174747070N01130145EA0115501272118000
B0917214747041N01130045EA0115901280119010
K091721288018
B0917254747025N01129941EA0116101280121000
B0917294747020N01129833EA0117001288116010
B0917334747020N01129725EA0118201296118010
B0917374747029N01129620EA0118901312116000
B0917414747033N01129516EA0119901320118000
K091741280011
B0917454747045N01129412EA0120401328115000
B0917494747058N01129308EA0121601336117000
B0917534747066N01129208EA0122201344122000
B0917574747079N01129104EA0123301352119000
B0918014747091N01129008EA0124701368116000
K091801250011
B0918054747108N01128908EA0124801368121000
B0918094747125N01128804EA0124901368122000
B0918134747141N01128700EA0126301384120000
B0918174747158N01128608EA0127801400113000
B0918214747170N01128516EA0128801408113000
K091821254014
B0918254747183N01128420EA0129401408119000
B0918294747191N01128325EA0129801416117000
B0918334747204N01128229EA0130901432113000
B0918374747220N01128137EA0131101432115000
B0918414747237N01128041EA0131001432116000
K091841272017
B0918454747258N01127950EA0130801432116000
B0918494747275N01127850EA0130601424121010
B0918534747287N01127750EA0130701432123000
B0918574747304N01127650EA0131301440118000
B0919014747320N01127554EA0132001448114000
K091901280016
B0919054747333N01127458EA0132401448114000
B0919094747350N01127358EA0133101456120000
B0919134747362N01127254EA0133601464126000
B0919174747370N01127150EA0135101480119000
B0919214747387N01127058EA0136401488116000
K091921278015
B0919254747400N01126958EA0136901496120000
B0919294747412N01126858EA0137001496123000
B0919334747433N01126754EA0137601504121000
B0919374747445N01126650EA0138201512119000
B0919414747462N01126550EA0139301512121000
K091941270016
B0919454747475N01126445EA0139901520121000
B0919494747491N01126345EA0140701528119000
B0919534747512N01126250EA0141501536116000
B0919574747533N01126158EA0142101544117000
B0920014747550N01126062EA0142601544118000
K092001260017
B0920054747566N01125970EA0143001552119000
B0920094747591N01125875EA0143701560120000
B0920134747612N01125779EA0144301560120000
B0920174747633N01125683EA0145201576119000
B0920214747654N01125583EA0145701576120000
K092021266019
B0920254747675N01125483EA0146201584121000
B0920294747700N01125387EA0147101592119000
B0920334747725N01125287EA0148001600121000
B0920374747750N01125187EA0148501608124000
B0920414747770N01125083EA0149301616120000
K092041260017
B0920454747791N01124987EA0150201624117000
B0920494747808N01124887EA0150801632118000
B0920534747829N01124787EA0151001632121000
B0920574747858N01124687EA0151801640121000
B0921014747895N01124595EA0152601648120000
K092101254017
B0921054747941N01124512EA0153501656119000
B0921094747995N01124441EA0154201664118000
B0921134748062N01124387EA0155101672118000
B0921174748133N01124350EA0156101680116000
B0921214748204N01124325EA0156901688117000
K092121232032
B0921254748283N01124312EA0157601696117000
B0921294748362N01124320EA0158401712115000
B0921334748445N01124345EA0158901712120000
B0921374748529N01124391EA0159001712123000
B0921414748608N01124466EA0159301720126000
K092141248053
B0921454748675N01124570EA0160001720128000
B0921494748733N01124691EA0160801736126000
B0921534748779N01124825EA0161901744124000
B0921574748816N01124962EA0163001752120000
B0922014748841N01125104EA0164001768119000
K092201268047
B0922054748858N01125245EA0164601776120000
B0922094748862N01125395EA0164901776123000
B0922134748862N01125541EA0165701784122000
B0922174748850N01125683EA0166501792121000
B0922214748829N01125825EA0167201800122000
K092221286037
B0922254748804N01125962EA0167701808122000
B0922294748779N01126091EA0168701816118000
B0922334748750N01126216EA0169701824113000
B0922374748720N01126345EA0169401824117000
B0922414748691N01126483EA0168801816119000
K092241288026
B0922454748658N01126612EA0169701824116000
B0922494748629N01126741EA0170501840113000
B0922534748591N01126866EA0171101840114000
B0922574748558N01126991EA0171701848115000
B0923014748516N01127116EA0172101848117000
K092301282025
B0923054748475N01127241EA0172801856116000
B0923094748433N01127362EA0173601864116000
B0923134748387N01127483EA0174301872117000
B0923174748345N01127604EA0175201880117000
B0923214748300N01127725EA0175901888118000
K092321278025
B0923254748258N01127854EA0176801896119000
B0923294748216N01127979EA0177501904118000
B0923334748170N01128100EA0178401912116000
B0923374748129N01128220EA0179101920115000
B0923414748087N01128341EA0179701928115000
K092341280026
B0923454748045N01128470EA0180001936115000
B0923494748004N01128595EA0180301936116000
B0923534747966N01128720EA0180901944114000
B0923574747925N01128845EA0181501944113000
B0924014747887N01128966EA0181901952113000
K092401278027
B0924054747845N01129091EA0182201960113000
B0924094747808N01129212EA0183001968113000
B0924134747762N01129333EA0183401968115000
B0924174747720N01129454EA0183801976116000
B0924214747675N01129575EA0184801984114000
K092421276027
B0924254747629N01129691EA0185801992112000
B0924294747587N01129808EA0186602000114000
B0924334747541N01129925EA0186902008114000
B0924374747491N01130041EA0187702016115000
B0924414747445N01130158EA0188402016117000
K092441278025
B0924454747400N01130279EA0188702024115000
B0924494747354N01130395EA0189802032111000
B0924534747308N01130512EA0190702048111000
B0924574747266N01130633EA0190902048114000
B0925014747220N01130754EA0191302048114000
K092501280025
B0925054747179N01130870EA0192002056111000
B0925094747137N01130987EA0192502064110000
B0925134747091N01131104EA0193002072111000
B0925174747050N01131220EA0193202072112000
B0925214747004N01131337EA0192802080113000
K092521284024
B0925254746958N01131458EA0193102080118000
B0925294746920N01131587EA0193402080116000
B0925304746912N01131620EA0193602080115000
B0925314746908N01131654EA0193902088114000
B0925324746900N01131687EA0194202088113000
B0925334746895N01131720EA0194402088113000
B0925344746891N01131754EA0194702096112000
B0925354746891N01131791EA0194802096112000
B0925364746887N01131825EA0195002096112000
B0925374746887N01131858EA0195002096112000
B0925384746887N01131891EA0195202096112000
B0925414746887N01131995EA0195602104113000
K092541282025
B0925454746904N01132133EA0196102112114000
B0925494746933N01132266EA0197002112112000
B0925534746970N01132387EA0197802120111000
B0925574747020N01132500EA0198202128112000
B0926014747075N01132604EA0198702136111000
K092601262025
B0926054747137N01132687EA0199102136112000
B0926094747208N01132758EA0199502144112000
B0926134747283N01132812EA0199902144112000
B0926174747358N01132854EA0200302144112000
B0926214747433N01132879EA0200802152112000
K092621238015
B0926254747508N01132887EA0201302160110000
B0926294747575N01132879EA0201902160110000
B0926334747641N01132854EA0202102168111000
B0926374747700N01132812EA0202302168113000
B0926414747750N01132754EA0202602168115000
K092641236016
B0926454747791N01132683EA0202902176114000
B0926494747825N01132608EA0203602176113000
B0926534747850N01132529EA0204202184111000
B0926574747870N01132450EA0204802192109000
B0927014747887N01132370EA0205502200109000
K092701294018
B0927054747900N01132291EA0205902200112000
B0927094747908N01132204EA0206002200115000
B0927134747908N01132116EA0206202208113000
B0927174747908N01132033EA0207202216111000
B0927214747908N01131950EA0208102224111000
K092721298030
B0927254747900N01131866EA0208102224113000
B0927294747879N01131783EA0208702232112000
B0927334747841N01131712EA0209302240111000
B0927374747795N01131650EA0209702240112000
B0927414747737N01131608EA0210202248112000
K092741300030
B0927454747666N01131583EA0210702256112000
B0927494747591N01131583EA0211602256111000
B0927534747516N01131625EA0211402264113000
B0927574747437N01131687EA0211702264118000
B0928014747366N01131779EA0211002256117000
K092801300030
B0928054747300N01131870EA0212302272104000
B0928094747233N01131950EA0212202272100000
B0928134747166N01132004EA0211702264104000
B0928174747091N01132037EA0211002264106000
B0928194747054N01132050EA0210802256107000
B0928204747033N01132054EA0210602256108000
B0928214747016N01132058EA0210502256108000
B0928224746995N01132062EA0210402256109000
K092822300030
B0928234746979N01132066EA0210302256110000
B0928244746958N01132070EA0210302256110000
B0928254746937N01132075EA0210202256111000
B0928264746920N01132079EA0210102256111000
B0928274746900N01132087EA0210002248112000
B0928284746879N01132095EA0209802248113000
B0928294746862N01132104EA0209502248115000
E092831PEV MARKER BUTTON PRESSED
B0928314746820N01132125EA0208602240123000
E092832PEV MARKER BUTTON PRESSED
B0928324746800N01132137EA0207802232129000
E092833PEV MARKER BUTTON PRESSED
B0928334746779N01132154EA0207002224135000
B0928344746758N01132166EA0205902216142000
B0928354746733N01132183EA0204902200150000
B0928364746708N01132195EA0203402192158000
B0928374746683N01132212EA0203002176168000
B0928384746658N01132229EA0202402160178000
B0928394746629N01132245EA0200902144187000
B0928404746600N01132262EA0199402120197000
B0928414746570N01132283EA0197902104207000
B0928424746537N01132300EA0196402088215000
K092842300030
B0928454746433N01132354EA0191502032238000
B0928494746279N01132412EA0184301952264000
B0928534746108N01132470EA0179201896276000
B0928574745933N01132533EA0177501880273000
B0929014745762N01132604EA0178501888255000
B0929024745720N01132625EA0180601912240000
K092902300030
B0929034745691N01132645EA0184401944221000
B0929044745662N01132666EA0187501992200000
B0929054745637N01132683EA0190402024180000
B0929064745616N01132704EA0192802056160000
B0929074745595N01132720EA0194802080141000
B0929084745575N01132741EA0196502096126000
B0929094745558N01132758EA0197802112114000
B0929104745541N01132775EA0198502120104000
B0929134745495N01132833EA0197902120107000
B0929174745429N01132920EA0196202104120000
B0929214745358N01133020EA0195402088124000
K092921298030
B0929254745291N01133129EA0194802088126000
B0929294745225N01133237EA0194502080127000
B0929314745195N01133295EA0194402080127000
B0929324745179N01133325EA0194302080127000
B0929334745162N01133354EA0194402080127000
B0929344745145N01133387EA0194202080127000
B0929354745133N01133416EA0194202080127000
B0929364745116N01133445EA0193202080126000
B0929374745104N01133475EA0193102080126000
B0929384745087N01133504EA0193202080126000
B0929394745070N01133533EA0193002080126000
B0929404745058N01133562EA0192902080126000
B0929414745041N01133591EA0192902080126000
K092941286027
B0929454744983N01133712EA0192602072127000
B0929494744920N01133837EA0192102064128000
B0929534744862N01133958EA0191802064127000
B0929574744804N01134079EA0191402056128000
B0930014744741N01134200EA0191402056125000
K093001276031
B0930054744683N01134316EA0191202056122000
B0930094744620N01134429EA0191102056121000
B0930134744562N01134541EA0190802056120000
B0930174744504N01134654EA0190802056116000
B0930214744450N01134762EA0190402048114000
K093021272035
B0930254744395N01134870EA0189502040118000
B0930294744337N01134983EA0189002032118000
B0930334744279N01135095EA0188502032117000
B0930374744225N01135204EA0188302024116000
B0930414744166N01135308EA0188102024114000
K093041270033
B0930454744108N01135412EA0188102024113000
B0930494744050N01135512EA0187502024118000
B0930534743987N01135616EA0187102016118000
B0930574743929N01135720EA0187302016117000
B0931014743875N01135829EA0187302016115000
K093101266032
B0931054743820N01135933EA0187302016115000
B0931094743762N01136033EA0187302016115000
B0931134743708N01136133EA0186902016116000
B0931174743650N01136233EA0186802008116000
B0931214743591N01136329EA0186702016116000
K093121260031
B0931254743537N01136429EA0186802016114000
B0931294743479N01136520EA0186702016114000
B0931334743420N01136616EA0186702016112000
B0931374743366N01136708EA0186802016113000
B0931414743312N01136800EA0186502008110000
K093141258030
B0931454743254N01136887EA0186302008111000
B0931494743195N01136979EA0185902008114000
B0931534743137N01137066EA0185402000116000
B0931574743079N01137158EA0185302000115000
B0932014743020N01137241EA0185302000111000
K093201252028
B0932054742962N01137329EA0185402000110000
B0932094742904N01137412EA0185202000111000
B0932134742850N01137491EA0185202000109000
B0932174742791N01137575EA0184901992108000
B0932214742733N01137658EA0184601992108000
K093221252030
B0932254742675N01137741EA0184201992108000
B0932294742616N01137825EA0184001984108000
B0932334742558N01137904EA0183701984108000
B0932374742500N01137983EA0183501984109000
B0932414742437N01138058EA0183201984113000
K093241250032
B0932454742379N01138137EA0182701976117000
B0932494742312N01138212EA0181501968118000
B0932534742250N01138295EA0181101960122000
B0932574742183N01138379EA0181001960119000
B0933014742116N01138466EA0179601944128000
K093301248025
B0933054742050N01138554EA0178501936131000
B0933094741979N01138641EA0178001928130000
B0933134741908N01138716EA0177201920136000
B0933174741833N01138787EA0177001920127000
B0933214741762N01138858EA0177001920122000
K093321246031
B0933254741691N01138925EA0177301920120000
B0933294741620N01138979EA0177401920123000
B0933334741545N01139033EA0177901928114000
B0933374741475N01139070EA0178501936105000
B0933414741408N01139112EA0177201920114000
K093341248031
B0933454741333N01139170EA0175001904131000
B0933494741258N01139233EA0173901888131000
B0933534741187N01139308EA0174601896123000
B0933574741120N01139383EA0175001896124000
B0934014741054N01139458EA0175901912122000
K093401258009
B0934054740987N01139525EA0177101920110000
B0934094740929N01139595EA0175801936106000
B0934134740866N01139670EA0174101904116000
B0934174740804N01139758EA0172001888133000
B0934214740741N01139858EA0171501880131000
K093421270007
B0934254740679N01139958EA0171001872128000
B0934294740612N01140062EA0170401864132000
B0934334740554N01140166EA0169601856134000
B0934374740495N01140279EA0168801848133000
B0934414740437N01140395EA0168001840135000
K093441328009
B0934454740366N01140487EA0168401840126000
B0934494740291N01140537EA0168401840130000
B0934534740216N01140591EA0168601848131000
B0934574740145N01140641EA0169701856120000
B0935014740083N01140691EA0170601864111000
K093501326007
B0935054740020N01140745EA0170901864114000
B0935094739962N01140808EA0171101864109000
B0935134739908N01140883EA0170401856114000
B0935174739858N01140975EA0169401848116000
B0935214739812N01141079EA0167201832117000
K093521050006
B0935254739766N01141200EA0165101808131000
B0935294739729N01141333EA0165701808130000
B0935334739691N01141462EA0165901816131000
B0935374739654N01141583EA0165701808123000
B0935414739620N01141704EA0165801808123000
K093541328009
B0935454739591N01141820EA0166001816115000
B0935494739562N01141937EA0166001816115000
B0935534739541N01142054EA0165801808114000
B0935574739529N01142175EA0165801808116000
B0936014739516N01142295EA0166001816110000
K093601276010
B0936054739520N01142416EA0165201808112000
B0936094739529N01142537EA0165801808115010
B0936134739529N01142650EA0165901808097000
B0936174739529N01142770EA0161801768119000
B0936214739537N01142908EA0159801752136000
K093621294009
B0936254739541N01143050EA0160201752126000
B0936294739545N01143187EA0160901760117000
B0936334739533N01143316EA0161001760116000
B0936354739525N01143375EA0161701760106000
B0936364739520N01143404EA0162200000100000
B0936374739512N01143433EA0162400000108000
B0936384739508N01143458EA0162701768106000
B0936394739500N01143487EA0163001768103000
B0936404739491N01143512EA0163401768102000
B0936414739483N01143537EA0163801776101000
B0936424739475N01143562EA0163701776100000
K093642290011
B0936434739466N01143587EA0163801776101000
B0936444739462N01143612EA0163801776101000
B0936454739462N01143641EA0163701776100000
B0936494739491N01143745EA0162701760101000
B0936534739558N01143800EA0161401760112000
B0936574739637N01143779EA0161701752115000
B0937014739704N01143716EA0162001760117000
K093701290011
B0937054739754N01143645EA0162701768114000
B0937094739779N01143554EA0164001784111000
B0937134739750N01143470EA0164701792106000
B0937174739683N01143458EA0164301784106000
B0937214739633N01143529EA0164301784108000
K093721290011
B0937254739629N01143633EA0164801792104000
B0937294739666N01143729EA0164901792110000
B0937334739733N01143770EA0164801792107000
B0937374739804N01143758EA0164301784103000
B0937414739858N01143691EA0163701776120000
K093741238006
B0937454739887N01143600EA0164101784113000
B0937494739908N01143512EA0164601784106000
B0937534739904N01143420EA0164601784111000
B0937574739866N01143350EA0165001792100000
B0938014739804N01143320EA0164501784105000
K093801244009
B0938054739737N01143341EA0165601792103000
B0938094739695N01143408EA0167401816095000
B0938134739683N01143504EA0167301816104000
B0938174739729N01143579EA0166601808105000
B0938214739800N01143579EA0166501808108000
K093821264006
B0938254739841N01143516EA0167201816103000
B0938294739837N01143433EA0167201816100000
B0938334739787N01143379EA0166701808106000
B0938374739725N01143358EA0167201816100000
B0938414739662N01143370EA0167901824102000
K093841268008
B0938454739604N01143429EA0168201824101000
B0938494739575N01143520EA0168201824097000
B0938534739575N01143633EA0167001816116000
B0938574739629N01143712EA0167401816106000
B0939014739700N01143708EA0167501816101000
K093901258015
B0939054739745N01143633EA0166301808107000
B0939094739741N01143533EA0165601800108000
B0939134739704N01143441EA0165601800108000
B0939174739654N01143366EA0166701808113000
B0939214739600N01143300EA0168701832108000
K093921252009
B0939254739545N01143266EA0169701840101000
B0939294739495N01143325EA0168701824108000
B0939334739504N01143441EA0167101816119000
B0939374739570N01143508EA0166901816112000
B0939414739637N01143466EA0167101816106000
K093941248010
B0939454739662N01143366EA0167101816111000
B0939494739670N01143258EA0168601832108000
B0939534739666N01143162EA0170201848098000
B0939574739633N01143091EA0170901856106000
B0940014739570N01143091EA0171501864098000
K094001218013
B0940054739545N01143195EA0170001840111000
B0940094739604N01143283EA0169601848112000
B0940134739679N01143262EA0170501848103000
B0940174739712N01143175EA0171201856104000
B0940214739733N01143083EA0171701864103000
K094021238014
B0940254739745N01142991EA0173201880100000
B0940294739750N01142900EA0174001888094000
B0940334739720N01142820EA0173501888107000
B0940374739650N01142825EA0173801888102000
B0940414739620N01142925EA0173501880105000
K094041238014
B0940454739658N01143025EA0174501888103000
B0940494739733N01143045EA0175401904100000
B0940534739779N01142979EA0175501904102000
B0940574739787N01142883EA0175601904110000
B0941014739775N01142783EA0177701920108000
K094101260013
B0941054739737N01142716EA0177901928105000
B0941094739670N01142758EA0176801912106000
B0941134739645N01142870EA0176301912109000
B0941174739700N01142958EA0175901912102000
B0941214739775N01142933EA0175701912115000
K094121256013
B0941254739795N01142825EA0177301928110000
B0941294739791N01142725EA0178401936112000
B0941334739791N01142629EA0179401944103000
B0941374739762N01142554EA0178601936101000
B0941414739691N01142558EA0177701928109000
K094141248012
B0941454739629N01142629EA0177701928107000
B0941494739604N01142733EA0177501928110000
B0941534739616N01142841EA0177601928102000
B0941574739666N01142916EA0176601912104000
B0942014739737N01142933EA0176701912108000
K094201248012
B0942054739800N01142887EA0177001920103000
B0942094739850N01142816EA0177701928106000
B0942134739883N01142737EA0177301920104000
B0942174739866N01142645EA0176601920103000
B0942214739808N01142587EA0176101912111000
K094221266008
B0942254739733N01142570EA0176501912114000
B0942294739662N01142595EA0176801920108000
B0942334739595N01142641EA0176601920107000
B0942374739529N01142708EA0176601920111000
B0942414739466N01142779EA0176601920113000
K094241268008
B0942454739395N01142854EA0176701920118000
B0942494739333N01142920EA0177001928103000
B0942534739266N01142991EA0176001912116000
B0942574739212N01143087EA0174801896115000
B0943014739220N01143212EA0174901904105000
K094301266008
B0943054739279N01143287EA0173701896108000
B0943094739354N01143312EA0172201880118000
B0943134739433N01143316EA0173101880116000
B0943174739512N01143325EA0174501896110000
B0943214739591N01143329EA0176301912108000
K094321266008
B0943254739654N01143287EA0177601928105000
B0943294739679N01143191EA0179001944107000
B0943334739641N01143112EA0180501960103000
B0943374739575N01143133EA0182101976098000
B0943414739545N01143225EA0183001984105000
K094341266008
B0943454739579N01143316EA0184602008099000
B0943494739645N01143312EA0184702000102000
B0943534739683N01143225EA0185502008105000
B0943574739650N01143141EA0187002024100000
B0944014739587N01143133EA0186702024095000
K094401282003
B0944054739533N01143200EA0185602016108000
B0944094739525N01143316EA0187202032108000
B0944134739558N01143412EA0188702040107000
B0944174739625N01143445EA0190202064097000
B0944214739670N01143383EA0190002056100000
K094421244007
B0944254739662N01143283EA0189902064114000
B0944294739600N01143262EA0191902080097000
B0944334739550N01143337EA0192202080101000
B0944374739566N01143441EA0192902088113000
B0944414739633N01143466EA0194002104096000
K094441256006
B0944454739679N01143404EA0193202096104000
B0944494739675N01143308EA0194002104110000
B0944534739629N01143254EA0195102112092000
B0944574739566N01143250EA0193502096104000
B0945014739508N01143325EA0193402096104000
K094501244008
B0945054739470N01143429EA0193502096108000
B0945094739437N01143537EA0192502088114000
B0945134739387N01143650EA0191702080123000
B0945174739337N01143762EA0191202072123000
B0945214739287N01143875EA0189902064123000
K094521252008
B0945254739229N01143995EA0187102032136000
B0945294739170N01144120EA0185402016143000
B0945334739112N01144254EA0184202008146000
B0945374739050N01144383EA0183102000151000
B0945414738991N01144516EA0182501984150000
K094541304010
B0945454738937N01144654EA0182501984143000
B0945494738875N01144787EA0181901984151000
B0945534738816N01144916EA0182301984145000
B0945574738762N01145045EA0182101984142000
B0946014738712N01145179EA0181101976142000
K094601272018
B0946054738658N01145312EA0181101968141000
B0946094738612N01145445EA0180901968141000
B0946134738566N01145579EA0180801968136000
B0946174738525N01145712EA0180601960139000
B0946214738483N01145850EA0180600000136000
K094621270019
B0946254738441N01145983EA0180800000135000
B0946294738400N01146112EA0181000000131000
B0946334738362N01146241EA0181100000132000
B0946374738325N01146362EA0182100000123000
B0946414738287N01146479EA0182500000120000
K094641264020
B0946454738250N01146591EA0182400000122000
B0946494738216N01146708EA0182101992118000
B0946534738195N01146833EA0181801984121000
B0946574738175N01146958EA0180801976114000
B0947014738158N01147083EA0178801960134000
K094701266018
B0947054738150N01147225EA0179101952139000
B0947094738145N01147362EA0181301976129000
B0947134738162N01147479EA0184502008108000
B0947174738175N01147583EA0186802024097000
B0947214738158N01147679EA0187602032097000
K094721270017
B0947254738095N01147716EA0187302040100000
B0947294738045N01147658EA0186902032095000
B0947334738050N01147562EA0186502024109000
B0947374738108N01147491EA0187102032111000
B0947414738175N01147454EA0189102056106000
K094741270017
B0947454738245N01147450EA0190202064098000
B0947494738295N01147525EA0189802056105000
B0947534738287N01147641EA0190702064101000
B0947574738229N01147704EA0191402072111000
B0948014738166N01147666EA0192802088103000
K094801262012
B0948054738162N01147566EA0193802096103000
B0948094738220N01147516EA0194902112101000
B0948134738279N01147579EA0195002112100000
B0948174738279N01147683EA0195202112098000
B0948214738216N01147733EA0195602112108000
K094821226005
B0948254738158N01147683EA0196502120098000
B0948294738129N01147591EA0197802136103000
B0948334738150N01147500EA0199302160102000
B0948374738212N01147483EA0199602152104000
B0948414738254N01147562EA0199302152101000
K094841268003
B0948454738241N01147666EA0199802152103000
B0948494738179N01147708EA0200102160103000
B0948534738120N01147645EA0200502160110000
B0948574738133N01147550EA0202302176107000
B0949014738200N01147537EA0202902184110000
K094901270004
B0949054738254N01147608EA0203402192099000
B0949094738266N01147712EA0203302192106000
B0949134738220N01147791EA0204102200096000
B0949174738158N01147770EA0203502192104000
B0949214738129N01147679EA0204002192105000
K094921254005
B0949254738150N01147587EA0205102208106000
B0949294738208N01147541EA0206302216096000
B0949334738270N01147579EA0204902200103000
B0949374738308N01147683EA0203902192111000
B0949414738316N01147804EA0204002192112000
K094941246007
B0949454738308N01147925EA0203302184118000
B0949494738295N01148045EA0203502192116000
B0949534738279N01148166EA0203302192114000
B0949574738266N01148291EA0203702192116000
B0950014738254N01148416EA0203202184121000
K095001248007
B0950054738241N01148541EA0203502192115000
B0950094738225N01148666EA0204202200122000
B0950134738216N01148787EA0205402208112000
B0950174738208N01148912EA0205302208119000
B0950214738200N01149041EA0205302208121000
K095021260006
B0950254738191N01149170EA0204302200126000
B0950294738183N01149308EA0203402192137000
B0950334738175N01149450EA0204002192135000
B0950374738166N01149591EA0203302192142000
B0950414738154N01149737EA0202502184145000
K095041328009
B0950454738141N01149883EA0203302184136000
B0950494738133N01150025EA0204502200132000
B0950534738125N01150162EA0207102224132000
B0950574738116N01150287EA0209402248118000
B0951014738104N01150400EA0211202264118000
K095101234012
B0951054738091N01150508EA0210602264107000
B0951094738079N01150629EA0208902248124000
B0951134738075N01150770EA0207902232136000
B0951174738075N01150912EA0207802232136000
B0951214738075N01151058EA0207902232138000
K095121270006
B0951254738070N01151195EA0208602240132000
B0951294738066N01151337EA0207702232135000
B0951334738062N01151483EA0207002224137000
B0951374738058N01151629EA0205902216143000
B0951414738054N01151787EA0204802200147000
K095141276009
B0951454738050N01151945EA0204202192151000
B0951494738045N01152104EA0203302184155000
B0951534738045N01152262EA0202402176159000
B0951574738045N01152425EA0203202184157000
B0952014738050N01152579EA0205102208145000
K095201248008
B0952054738058N01152733EA0204802200151000
B0952094738066N01152891EA0204002192157000
B0952134738079N01153050EA0204002192155000
B0952174738095N01153204EA0204202192152000
B0952214738116N01153358EA0202102176158000
K095221224009
B0952254738137N01153520EA0200902160156000
B0952294738166N01153683EA0200502152162000
B0952334738191N01153845EA0200302152158000
B0952374738216N01154004EA0200102152156000
B0952414738237N01154162EA0199302144158000
K095241238009
B0952454738266N01154320EA0199002144156000
B0952494738291N01154470EA0199002136152000
B0952534738316N01154625EA0199102144148000
B0952574738337N01154770EA0198602136147000
B0953014738358N01154925EA0197302120151000
K095301240010
B0953054738379N01155079EA0196802120148000
B0953094738395N01155233EA0196502112147000
B0953134738416N01155387EA0195302104152000
B0953174738441N01155541EA0195502104147000
B0953214738462N01155691EA0196102112145000
K095321238011
B0953254738483N01155833EA0196302112139000
B0953294738495N01155979EA0195902104136000
B0953334738508N01156120EA0195302104138000
B0953374738520N01156266EA0194502096139000
B0953414738525N01156412EA0193902088136000
K095341254011
B0953454738533N01156558EA0193502080142000
B0953494738533N01156704EA0193602080136000
B0953534738529N01156854EA0193302080137000
B0953574738525N01157000EA0193802088137000
B0954014738520N01157137EA0194502088130000
K095401244014
B0954054738516N01157275EA0193802088130000
B0954094738516N01157412EA0193102080137000
B0954134738516N01157554EA0193002080135000
B0954174738516N01157695EA0193002072135000
B0954214738512N01157833EA0192802072137000
K095421238011
B0954254738508N01157975EA0191602064134000
B0954294738504N01158112EA0191502056130000
B0954334738504N01158254EA0192202064136010
B0954374738500N01158383EA0192902072117000
B0954414738491N01158512EA0191102056127000
K095441252010
B0954454738495N01158654EA0190002048129000
B0954494738504N01158795EA0189902040137000
B0954534738541N01158920EA0191002056124000
B0954574738612N01159000EA0192802072113000
B0955014738691N01159008EA0194302080100000
K095501248010
B0955054738766N01158975EA0194802088111000
B0955094738820N01158908EA0196002104102000
B0955134738850N01158816EA0196302104110000
B0955174738862N01158720EA0197202112108000
B0955214738862N01158608EA0194002080137000
K095521248010
B0955254738825N01158487EA0194102080143000
B0955294738766N01158379EA0196002096131000
B0955334738695N01158333EA0198102120117000
B0955374738625N01158362EA0199802144115000
B0955414738595N01158462EA0201502160093000
K095541248010
B0955454738612N01158562EA0199902144112000
B0955494738683N01158612EA0200302144104000
B0955534738754N01158583EA0200902152112000
B0955574738795N01158491EA0202102168110000
B0956014738837N01158404EA0202402168111000
K095601250006
B0956054738837N01158304EA0202102168108000
B0956094738787N01158241EA0200902152112000
B0956134738716N01158245EA0200502152115000
B0956174738654N01158300EA0202002160107000
B0956214738608N01158387EA0204102184107000
K095621250006
B0956254738583N01158483EA0204802192102000
B0956294738575N01158591EA0202802176110000
B0956334738570N01158720EA0201002152124000
B0956374738570N01158858EA0199702144132000
B0956414738570N01159000EA0199802144131000
K095641280005
B0956454738575N01159137EA0200702152128000
B0956494738570N01159270EA0203602176120000
B0956534738570N01159387EA0205502200104000
B0956574738570N01159491EA0207302216105000
B0957014738566N01159587EA0208302224090000
K095701218016
B0957054738566N01159687EA0206802216101000
B0957094738558N01159800EA0205002200116000
B0957134738558N01159929EA0203802184127000
B0957174738558N01200066EA0203002176128000
B0957214738558N01200208EA0202502168134000
K095721338008
B0957254738558N01200345EA0202002168133000
B0957294738558N01200487EA0201102160134000
B0957334738558N01200629EA0199802144132000
B0957374738562N01200779EA0198502136137000
B0957414738566N01200925EA0198702136145000
K095741290008
B0957454738579N01201066EA0199202136135000
B0957494738587N01201204EA0199902144129000
B0957534738600N01201337EA0200002144129000
B0957574738612N01201470EA0199802144127000
B0958014738625N01201604EA0199402144120000
K095801228012
B0958054738633N01201737EA0198402128132000
B0958094738645N01201870EA0197802128132000
B0958134738658N01202000EA0197902128125000
B0958174738666N01202133EA0197802128125000
B0958214738670N01202266EA0198902136121000
K095821238009
B0958254738675N01202391EA0200602152111000
B0958294738675N01202504EA0201402160103000
B0958334738675N01202612EA0202502168103000
B0958374738670N01202712EA0203902184096000
B0958414738658N01202812EA0203702184095000
K095841224011
B0958454738654N01202920EA0202002168114000
B0958494738654N01203041EA0201302160118000
B0958534738654N01203162EA0201602160117000
B0958574738662N01203283EA0201902160110000
B0959014738683N01203404EA0201102160111000
K095901248005
B0959054738687N01203533EA0200302144119000
B0959094738679N01203662EA0200002144119000
B0959134738666N01203787EA0199802144121000
B0959174738641N01203904EA0200102144122000
B0959214738608N01204016EA0200202144119000
K095921252006
B0959254738575N01204125EA0199702144120000
B0959294738541N01204233EA0199602144114000
B0959334738500N01204337EA0199002136113000
B0959374738450N01204437EA0197802120117000
B0959414738391N01204541EA0196702112129000
K095941332006
B0959454738333N01204641EA0196702112127000
B0959494738270N01204737EA0196502112127000
B0959534738208N01204829EA0195702104135000
B0959574738145N01204925EA0196002104130000
B1000014738087N01205020EA0196302104121000
K100001262007
B1000054738033N01205116EA0196002104124000
B1000094737979N01205212EA0195602096126000
B1000134737920N01205304EA0194802096122000
B1000174737862N01205404EA0193202080128000
B1000214737800N01205508EA0191402064137000
K100021248010
B1000254737737N01205616EA0190002048142000
B1000294737670N01205729EA0189202040147000
B1000334737604N01205837EA0189202040140000
B1000374737537N01205937EA0189102040136000
B1000414737466N01206033EA0189002040134000
K100041246009
B1000454737395N01206120EA0188702032136000
B1000494737329N01206212EA0189002040128000
B1000534737262N01206295EA0188902040125000
B1000574737195N01206383EA0188302032126000
B1001014737129N01206470EA0187702024126000
K100101248010
B1001054737062N01206562EA0187202016126000
B1001094736995N01206658EA0186402008127000
B1001134736933N01206758EA0186102008133000
B1001174736866N01206858EA0186002008126000
B1001214736800N01206958EA0185302000130000
K100121270012
B1001254736729N01207058EA0184501992135000
B1001294736658N01207158EA0184301992136000
B1001334736591N01207258EA0183701984140000
B1001374736520N01207362EA0183301976139000
B1001414736458N01207466EA0183301976134000
K100141282013
B1001454736391N01207570EA0182901976135000
B1001494736329N01207675EA0182201968135000
B1001534736262N01207783EA0181901968139000
B1001574736200N01207887EA0182201968134000
B1002014736141N01207987EA0182301968129000
K100201262016
B1002054736079N01208087EA0182001968128000
B1002094736020N01208187EA0181701968127000
B1002134735962N01208287EA0181501960127000
B1002174735904N01208387EA0181601960127000
B1002214735845N01208487EA0181001960127000
K100221258015
B1002254735787N01208587EA0180501952126000
B1002294735725N01208683EA0180201952126000
B1002334735662N01208783EA0179701944129000
B1002374735604N01208883EA0178701936134000
B1002414735541N01208995EA0178701936136000
K100241288009
B1002454735479N01209095EA0179001936130000
B1002494735420N01209200EA0178501936130000
B1002534735358N01209304EA0177601920134000
B1002574735295N01209412EA0177501920132000
B1003014735237N01209516EA0177501920127000
K100301284011
B1003054735175N01209620EA0177101920129000
B1003094735116N01209720EA0176901912131000
B1003134735058N01209825EA0176901912129000
B1003174734995N01209925EA0176501912127000
B1003214734937N01210025EA0175601904133000
K100321270014
B1003254734870N01210125EA0175501904131000
B1003294734808N01210225EA0175401896129000
B1003334734745N01210329EA0175201896129000
B1003374734687N01210429EA0175001896133000
B1003414734633N01210533EA0174901896128000
K100341270014
B1003454734575N01210637EA0174401888127000
B1003494734516N01210741EA0173701880129000
B1003534734458N01210850EA0173101872132000
B1003574734395N01210954EA0172801872132000
B1004014734337N01211054EA0172501872130000
K100401274014
B1004054734275N01211154EA0171801864131000
B1004094734216N01211258EA0171101856132000
B1004134734154N01211362EA0170801856134000
B1004174734095N01211470EA0170401848130000
B1004214734041N01211579EA0169701840128000
K100421270014
B1004254733983N01211687EA0168901832133000
B1004294733925N01211795EA0168501824137000
B1004334733862N01211904EA0168001824137000
B1004374733804N01212008EA0168201824134000
B1004414733745N01212112EA0168201824132000
K100441266013
B1004454733687N01212212EA0168001824132000
B1004494733637N01212316EA0167701816131000
B1004534733587N01212429EA0167201816131000
B1004574733537N01212541EA0166801808132000
B1005014733491N01212650EA0166601808129000
K100501256008
B1005054733445N01212758EA0166201808126000
B1005094733404N01212870EA0165701800125000
B1005134733370N01212983EA0165001792125000
B1005174733337N01213104EA0164401784123000
B1005214733316N01213225EA0164601784125000
K100521292005
B1005254733295N01213350EA0166601808121000
B1005294733283N01213470EA0167501816119000
B1005334733279N01213591EA0169101832112000
B1005374733275N01213708EA0169001832107000
B1005414733266N01213829EA0168201824116000
K100541254007
B1005454733212N01213904EA0169801832103000
B1005494733154N01213870EA0169001824108000
B1005534733145N01213770EA0167801816114000
B1005574733175N01213675EA0167101808113000
B1006014733229N01213600EA0166501800119000
K100601254007
B1006054733291N01213533EA0167401808110000
B1006094733354N01213466EA0168601824110000
B1006134733395N01213379EA0169801832101000
B1006174733391N01213275EA0170901848111000
B1006214733333N01213229EA0171601856106000
K100621254007
B1006254733275N01213287EA0170901848103000
B1006294733270N01213404EA0169701840119000
B1006334733345N01213450EA0172001864115000
B1006374733395N01213366EA0173501888104000
B1006414733379N01213262EA0173601888109000
K100641190007
B1006454733312N01213220EA0174201896111000
B1006494733258N01213295EA0173301880108000
B1006534733275N01213416EA0171701872122000
B1006574733350N01213470EA0173601896119000
B1007014733420N01213454EA0175301912108000
K100701204003
B1007054733475N01213387EA0176401920108000
B1007094733475N01213291EA0177501928104000
B1007134733420N01213237EA0177501928097000
B1007174733350N01213254EA0176801920114000
B1007214733300N01213333EA0176601920111000
K100721232007
B1007254733295N01213454EA0177001920118000
B1007294733358N01213525EA0178701944111000
B1007334733416N01213466EA0179801952107000
B1007374733408N01213362EA0180401960116000
B1007414733341N01213341EA0181901976104000
K100741240006
B1007454733308N01213441EA0182801984110000
B1007494733354N01213525EA0184001992114000
B1007534733416N01213470EA0185302008104000
B1007574733400N01213370EA0186202016104000
B1008014733329N01213366EA0186802024107000
K100801244005
B1008054733300N01213470EA0188102040103000
B1008094733350N01213554EA0189302048107000
B1008134733412N01213504EA0190702064105000
B1008174733408N01213404EA0191202072108000
B1008214733341N01213366EA0191702072103000
K100821292004
B1008254733291N01213441EA0192502080107000
B1008294733304N01213545EA0193502096102000
B1008334733366N01213579EA0194002096112000
B1008374733404N01213491EA0195102112106000
B1008414733366N01213404EA0196002112103000
K100841326003
B1008454733300N01213416EA0196302120107000
B1008494733266N01213508EA0197702136098000
B1008534733295N01213604EA0198002144106000
B1008574733366N01213600EA0198702144106000
B1009014733387N01213504EA0199902160101000
K100901340002
B1009054733341N01213433EA0200502168109000
B1009094733275N01213470EA0201102168107000
B1009134733275N01213583EA0201202168106000
B1009174733333N01213633EA0201802176110000
B1009214733383N01213570EA0203002192105000
K100921308003
B1009254733370N01213475EA0203102192100000
B1009294733308N01213425EA0203002192108000
B1009334733237N01213454EA0202602184091000
B1009374733195N01213545EA0200002160116000
B1009414733229N01213658EA0200002160119000
K100941316006
B1009454733283N01213733EA0201602176107000
B1009494733329N01213825EA0201802176121000
B1009534733354N01213941EA0201602176124000
B1009574733366N01214062EA0201702176115000
B1010014733375N01214187EA0200602168123000
K101001332005
B1010054733383N01214320EA0201402168130000
B1010094733395N01214454EA0201602176124000
B1010134733412N01214579EA0201802176123000
B1010174733433N01214704EA0200302160122000
B1010214733454N01214841EA0199702152138000
K101021310007
B1010254733475N01214979EA0199402152132000
B1010294733500N01215116EA0198202136136000
B1010334733533N01215254EA0196902128143000
B1010374733570N01215395EA0197102128145000
B1010414733608N01215533EA0197202128147000
K101041236007
B1010454733641N01215683EA0196902120146000
B1010494733662N01215825EA0197102128144000
B1010534733675N01215970EA0197802136140000
B1010574733675N01216104EA0199402144129000
B1011014733675N01216225EA0200902160118000
K101101218012
B1011054733658N01216337EA0201502168115000
B1011094733625N01216445EA0201802168115000
B1011134733583N01216545EA0201402168117000
B1011174733529N01216637EA0200402160120000
B1011214733466N01216720EA0200002152124000
K101121224008
B1011254733400N01216795EA0199402144123000
B1011294733329N01216866EA0198602136125000
B1011334733258N01216929EA0198202136123000
B1011374733183N01217000EA0197102120128000
B1011414733112N01217075EA0197402128129000
K101141234008
B1011454733037N01217154EA0198202128124000
B1011494732987N01217250EA0198902136116000
B1011534732970N01217375EA0199102136111000
B1011574732987N01217495EA0198202128124000
B1012014733025N01217612EA0199902144125000
K101201232011
B1012054733066N01217716EA0202402168115000
B1012094733079N01217820EA0203602184107000
B1012134733050N01217916EA0203802184103000
B1012174732987N01217966EA0204602192099000
B1012214732925N01217929EA0204102192105000
K101221232011
B1012254732908N01217837EA0203602184106000
B1012294732937N01217745EA0202402168113000
B1012334733000N01217687EA0203102168107000
B1012374733079N01217687EA0203602176116000
B1012414733145N01217733EA0203802176121000
K101241232011
B1012454733208N01217804EA0203402176121000
B1012494733258N01217887EA0202702168120000
B1012534733304N01217987EA0202902168120000
B1012574733337N01218091EA0203002168117000
B1013014733358N01218200EA0203802176122000
K101301260007
B1013054733383N01218308EA0206402208114000
B1013094733420N01218404EA0206502208109000
B1013134733462N01218504EA0205802200119000
B1013174733491N01218612EA0205702200116000
B1013214733508N01218725EA0204802192117000
K101321302009
B1013254733512N01218850EA0203502184128000
B1013294733504N01218975EA0203302176128000
B1013334733479N01219095EA0202402168126000
B1013374733450N01219216EA0202102168120000
B1013414733416N01219337EA0200402152129000
K101341342013
B1013454733383N01219458EA0200002144128000
B1013494733345N01219579EA0199202144131000
B1013534733308N01219695EA0199302144127000
B1013574733279N01219812EA0199102136125000
B1014014733245N01219925EA0198502128123000
K101401326003
B1014054733212N01220033EA0199002136127000
B1014094733179N01220137EA0200502152115000
B1014134733150N01220233EA0202402168103000
B1014174733112N01220320EA0203202176105000
B1014214733091N01220416EA0203102176105000
K101421332002
B1014254733083N01220529EA0202802176106000
B1014294733087N01220641EA0202002168117000
B1014334733100N01220762EA0201302160121000
B1014374733125N01220879EA0200902152121000
B1014414733145N01220995EA0200702152119000
K101441224002
B1014454733166N01221116EA0199802144120000
B1014494733175N01221241EA0199302144128000
B1014534733175N01221366EA0199202136125000
B1014574733166N01221487EA0199902144124000
B1015014733150N01221608EA0199702144122000
K101501348005
B1015054733129N01221729EA0199302144121000
B1015094733104N01221850EA0200102144121000
B1015134733079N01221966EA0200302152118000
B1015174733054N01222087EA0200102144121000
B1015214733033N01222208EA0199602144122000
K101521322005
B1015254733012N01222337EA0198402136130000
B1015294732991N01222462EA0198202128124000
B1015334732966N01222587EA0198102128134000
B1015374732945N01222712EA0200202152126000
B1015414732925N01222825EA0202802176114000
K101541342006
B1015454732908N01222925EA0204802192100000
B1015494732879N01223004EA0205302200094000
B1015534732829N01223062EA0204102184101000
B1015574732783N01223150EA0201802160116000
B1016014732754N01223262EA0200102144122000
K101601342006
B1016054732729N01223383EA0200002144125000
B1016094732708N01223504EA0199002136128000
B1016134732687N01223633EA0198102128132000
B1016174732666N01223762EA0197302120135000
B1016214732645N01223891EA0197002112135000
K101621000005
B1016254732625N01224020EA0197602120130000
B1016294732604N01224145EA0197802128126000
B1016334732583N01224270EA0197102120122000
B1016374732566N01224404EA0195202096131000
B1016414732545N01224541EA0194402088138000
K101641342006
B1016454732525N01224683EA0194002088139000
B1016494732504N01224820EA0193402080140000
B1016534732479N01224962EA0192702072142000
B1016574732458N01225104EA0192302072139000
B1017014732437N01225241EA0192702072133000
K101701310007
B1017054732412N01225375EA0192702072133000
B1017094732391N01225512EA0191402064140000
B1017134732370N01225650EA0190702056141000
B1017174732350N01225795EA0190402048142000
B1017214732329N01225937EA0190002048140000
K101721310009
B1017254732308N01226079EA0189802048138000
B1017294732287N01226216EA0189702040136000
B1017334732262N01226354EA0189502040134000
B1017374732237N01226487EA0190002048128000
B1017414732216N01226616EA0189802040126000
K101741280010
B1017454732191N01226745EA0189202040127000
B1017494732166N01226875EA0188602032129000
B1017534732141N01227004EA0187902024130000
B1017574732120N01227137EA0187502016130000
B1018014732095N01227266EA0187202016131000
K101801310010
B1018054732075N01227400EA0186702008131000
B1018094732054N01227529EA0185902000135000
B1018134732033N01227662EA0185101992136000
B1018174732008N01227795EA0184501992136000
B1018214731983N01227929EA0184201984134000
K101821320007
B1018254731958N01228058EA0183901984134000
B1018294731929N01228187EA0183401976134000
B1018334731900N01228316EA0182901976133000
B1018374731870N01228445EA0182201968134000
B1018414731837N01228575EA0181701960131000
K101841320007
B1018454731804N01228708EA0181001952132000
B1018494731770N01228841EA0180501944136000
B1018534731741N01228975EA0179901944136000
B1018574731712N01229112EA0179401936137000
B1019014731679N01229250EA0178601928135000
K101901298010
B1019054731645N01229387EA0178001920137000
B1019094731612N01229525EA0177501920136000
B1019134731575N01229662EA0177001912137000
B1019174731541N01229800EA0176301904139000
B1019214731504N01229937EA0175501896135000
K101921286014
B1019254731466N01230075EA0174501888139000
B1019294731429N01230216EA0173801880139000
B1019334731395N01230358EA0173501880139000
B1019374731358N01230495EA0173501880139000
B1019414731320N01230637EA0172701864138000
K101941290017
B1019454731283N01230775EA0172101864137000
B1019494731245N01230912EA0171701856136000
B1019534731204N01231045EA0171801856136000
B1019574731166N01231175EA0172201864132000
B1020014731125N01231300EA0172201864129000
K102001272018
B1020054731083N01231425EA0171901864129000
B1020094731041N01231550EA0171901864129000
B1020134731000N01231666EA0171901864127000
B1020174730954N01231783EA0171701856125000
B1020214730908N01231895EA0171501856122000
K102021270016
B1020254730858N01232008EA0171501856126000
B1020294730808N01232116EA0170901848121000
B1020334730758N01232225EA0170301840120000
B1020374730712N01232337EA0169601832121000
B1020414730675N01232454EA0168801824122000
K102041286013
B1020454730637N01232579EA0167901816124000
B1020494730604N01232708EA0167101808125000
B1020534730579N01232845EA0166601808129000
B1020574730562N01232983EA0166701808122000
B1021014730545N01233120EA0165801800125000
K102101298016
B1021054730529N01233258EA0166101800125000
B1021094730504N01233387EA0166601800123000
B1021134730483N01233508EA0168501824116000
B1021174730454N01233616EA0170301840107000
B1021214730425N01233708EA0171301848094000
K102121292018
B1021254730433N01233812EA0169301832101000
B1021294730495N01233870EA0168001816124000
B1021334730558N01233829EA0169101832110000
B1021374730591N01233737EA0170601848098000
B1021414730591N01233633EA0169101832109000
K102141292018
B1021454730562N01233533EA0169001832109000
B1021494730512N01233445EA0170301832106000
B1021534730491N01233345EA0170901848110000
B1021574730537N01233283EA0171701856108000
B1022014730600N01233329EA0171701856109000
K102201292018
B1022054730612N01233445EA0172601864106000
B1022094730566N01233529EA0174900000094000
B1022134730500N01233525EA0175201880098000
B1022174730454N01233454EA0175901880103000
B1022214730466N01233366EA0176501896096000
K102221298013
B1022254730525N01233358EA0176801896099000
B1022294730566N01233441EA0176901904103000
B1022334730550N01233545EA0178400000097000
B1022374730487N01233579EA0179501920101000
B1022414730433N01233516EA0179601920104000
K102241308011
B1022454730450N01233429EA0180001920104000
B1022494730512N01233429EA0180501936108000
B1022534730541N01233529EA0181101936104000
B1022574730491N01233616EA0182101952104000
B1023014730420N01233604EA0184201960096000
K102301306014
B1023054730400N01233525EA0184601960094000
B1023094730445N01233466EA0183801960113000
B1023134730500N01233525EA0184901968105000
B1023174730487N01233629EA0186101984100000
B1023214730420N01233683EA0185901976105000
K102321306015
B1023254730362N01233625EA0185801976111000
B1023294730366N01233533EA0186801992101000
B1023334730420N01233491EA0186801992104000
B1023374730479N01233541EA0186801992109000
B1023414730516N01233637EA0187502000105000
K102341310010
B1023454730525N01233741EA0189102016099000
B1023494730487N01233829EA0188902016103000
B1023534730420N01233837EA0187602000093000
B1023574730375N01233758EA0185201976118000
B1024014730387N01233645EA0185701992132000
K102401322008
B1024054730441N01233583EA0187902008099000
B1024094730504N01233583EA0188102016101000
B1024134730566N01233633EA0188502016105000
B1024174730620N01233708EA0190002032101000
B1024214730645N01233808EA0190402032093000
K102421270004
B1024254730604N01233895EA0189300000106000
B1024294730537N01233891EA0189402040098000
B1024334730495N01233812EA0189702040093000
B1024374730508N01233720EA0189402040110000
B1024414730570N01233687EA0190602048105000
K102441288005
B1024454730625N01233758EA0191402056101000
B1024494730625N01233858EA0191902064093000
B1024534730575N01233929EA0191402064102000
B1024574730508N01233925EA0191002064107000
B1025014730458N01233862EA0192302072088000
K102501264004
B1025054730429N01233775EA0192102072105000
B1025094730433N01233683EA0192802080102000
B1025134730483N01233650EA0193102080100000
B1025174730541N01233704EA0192402072097000
B1025214730562N01233812EA0192502072116000
K102521306007
B1025254730541N01233920EA0193602088113000
B1025294730500N01234016EA0195002096103000
B1025334730437N01234041EA0195402096093000
B1025374730379N01233987EA0194302088102000
B1025414730354N01233891EA0195202096107000
K102541298010
B1025454730375N01233800EA0195602104103000
B1025494730433N01233775EA0196102104100000
B1025534730487N01233833EA0196202104093000
B1025574730495N01233937EA0195502096115000
B1026014730450N01234020EA0197502120103000
K102601316008
B1026054730379N01234008EA0198102128103000
B1026094730341N01233925EA0198702136099000
B1026134730375N01233845EA0198802136101000
B1026174730437N01233858EA0198802128100000
B1026214730479N01233945EA0198902136108000
K102621316012
B1026254730466N01234058EA0200402152102000
B1026294730412N01234125EA0201802168092000
B1026334730345N01234091EA0200602152102000
B1026374730325N01233991EA0200402152112000
B1026414730370N01233925EA0201902168103000
K102641310008
B1026454730429N01233966EA0202802168100000
B1026494730454N01234075EA0202702176108000
B1026534730408N01234170EA0203602184110000
B1026574730341N01234150EA0203502176105000
B1027014730320N01234054EA0203502176108000
K102701302009
B1027054730366N01233987EA0204802192102000
B1027094730429N01234016EA0205002192104000
B1027134730454N01234120EA0205202192112000
B1027174730408N01234212EA0207002216101000
B1027214730337N01234208EA0207702216098000
K102721310012
B1027254730300N01234129EA0207102208101000
B1027294730333N01234050EA0207102208106000
B1027334730400N01234083EA0207002208100000
B1027374730425N01234191EA0207602208106000
B1027414730400N01234308EA0208802224115000
K102741304013
B1027454730350N01234387EA0209602232099000
B1027494730275N01234362EA0208402216113000
B1027534730254N01234266EA0209602232106000
B1027574730287N01234187EA0209602232103000
B1028014730350N01234175EA0209202232109000
K102801310010
B1028054730404N01234258EA0209702232108000
B1028094730412N01234375EA0211202248106000
B1028134730379N01234483EA0211302248114000
B1028174730320N01234566EA0211202256118000
B1028214730250N01234629EA0210902248117000
K102821308009
B1028254730170N01234679EA0209602232126000
B1028294730087N01234729EA0208402224135000
B1028334729995N01234779EA0207102208139000
B1028374729904N01234837EA0206002200142000
B1028414729812N01234895EA0205302200143000
K102841308009
B1028454729720N01234962EA0204902192142000
B1028494729629N01235029EA0204802192137000
B1028534729541N01235095EA0204602184135000
B1028574729450N01235162EA0203902184136000
B1029014729362N01235225EA0203502176137000
K102901294014
B1029054729275N01235291EA0203002176137000
B1029094729187N01235362EA0203002168134000
B1029134729104N01235441EA0202602168132000
B1029174729029N01235529EA0202002160136000
B1029214728958N01235629EA0201802160136000
K102921338013
B1029254728887N01235729EA0202002160134000
B1029294728825N01235837EA0201902160135000
B1029334728758N01235941EA0202802168128000
B1029374728700N01236041EA0203802184122000
B1029414728633N01236133EA0204202184122000
K102941300013
B1029454728566N01236212EA0204802192121000
B1029494728500N01236287EA0205202192114000
B1029534728429N01236358EA0204102184118000
B1029574728350N01236420EA0202902168125000
B1030014728262N01236475EA0201702160127000
K103001272018
B1030054728170N01236529EA0200902152134000
B1030094728079N01236583EA0200602152135000
B1030134727991N01236637EA0200502152135000
B1030174727900N01236691EA0200302144134000
B1030214727812N01236741EA0199902144136000
K103021286018
B1030254727720N01236791EA0199802144137000
B1030294727629N01236841EA0199602136137000
B1030334727541N01236891EA0199202136139000
B1030374727450N01236937EA0199002136134000
B1030414727362N01236987EA0198802136131000
K103041278020
B1030454727270N01237033EA0197902120136000
B1030494727179N01237079EA0197302120143000
B1030534727083N01237120EA0196802112142000
B1030574726991N01237162EA0196802112142000
B1031014726895N01237204EA0196002104144000
K103101272022
B1031054726800N01237241EA0195402096144000
B1031094726704N01237283EA0195002096145000
B1031134726608N01237325EA0194302088148000
B1031174726508N01237366EA0193602080152000
B1031214726412N01237412EA0193202072150000
K103121272020
B1031254726316N01237458EA0193002072148000
B1031294726220N01237508EA0192302072148000
B1031334726125N01237558EA0192002064146000
B1031374726029N01237608EA0191902064144000
B1031414725937N01237658EA0191702056142000
K103141272019
B1031454725845N01237704EA0191902064135000
B1031494725754N01237750EA0190802048136000
B1031534725654N01237795EA0188902032143000
B1031574725558N01237841EA0187702016151000
B1032014725458N01237895EA0187102016150000
K103201286014
B1032054725362N01237950EA0187002016147000
B1032094725266N01238012EA0186802008146000
B1032134725179N01238079EA0186402008146000
B1032174725091N01238158EA0186202000143000
B1032214725012N01238245EA0185702000139000
K103221306010
B1032254724937N01238345EA0185301992140000
B1032294724870N01238458EA0184801984138000
B1032334724812N01238575EA0184401984142000
B1032374724754N01238691EA0184101984140000
B1032414724695N01238816EA0183601976141000
K103241314011
B1032454724645N01238945EA0183101976146000
B1032494724600N01239083EA0182301960145000
B1032534724562N01239220EA0181201952146000
B1032574724529N01239362EA0181301952150000
B1033014724500N01239504EA0182801968142000
K103301296011
B1033054724491N01239637EA0185301992126000
B1033094724491N01239770EA0186202000120000
B1033134724479N01239900EA0186802008122000
B1033174724462N01240033EA0186202000122000
B1033214724429N01240158EA0185502000135000
K103321274012
B1033254724383N01240279EA0185501992130000
B1033294724329N01240400EA0185302000134000
B1033334724275N01240512EA0186702008131000
B1033374724220N01240620EA0187702016131000
B1033414724175N01240733EA0189102032116000
K103341280011
B1033454724141N01240850EA0190102040114000
B1033494724116N01240970EA0189402040127000
B1033534724095N01241104EA0188402032135000
B1033574724091N01241241EA0187902024135000
B1034014724087N01241379EA0187702024134000
K103401310009
B1034054724075N01241516EA0187302016127000
B1034094724062N01241654EA0187202016138000
B1034134724037N01241787EA0187902024129000
B1034174724004N01241912EA0187902024132000
B1034214723962N01242029EA0188202024122000
K103421296008
B1034254723908N01242137EA0187302016125000
B1034294723845N01242237EA0186702008127000
B1034334723770N01242325EA0185802000133000
B1034374723700N01242412EA0185501992130000
B1034414723629N01242508EA0184201984137000
K103441292010
B1034454723570N01242620EA0183701976138000
B1034494723529N01242745EA0183901976139000
B1034534723512N01242875EA0183601976125000
B1034574723504N01243008EA0182801968126000
B1035014723508N01243141EA0181001952133000
K103501280011
B1035054723516N01243283EA0180001936142000
B1035094723529N01243429EA0179501936142000
B1035134723545N01243570EA0178501928147000
B1035174723554N01243716EA0178401928144000
B1035214723566N01243858EA0180501944136000
K103521300008
B1035254723600N01243970EA0184701992110000
B1035294723670N01243995EA0184801992115000
B1035334723725N01243920EA0184001984118000
B1035374723712N01243816EA0184001984114000
B1035414723650N01243762EA0182601968115000
K103541296008
B1035454723570N01243804EA0181701960125000
B1035494723520N01243908EA0183401984130000
B1035534723479N01244004EA0186902008108000
B1035574723445N01244079EA0188602024095000
B1036014723420N01244175EA0188402024099000
K103601296008
B1036054723391N01244279EA0185902000125000
B1036094723350N01244391EA0185701992129000
B1036134723304N01244495EA0186302000121010
B1036174723245N01244583EA0187102008115000
B1036214723195N01244679EA0186702000115000
K103621296008
B1036254723141N01244783EA0185902000126000
B1036294723095N01244887EA0186102000124000
B1036334723054N01244995EA0186302000119000
B1036374723012N01245100EA0186302000120000
B1036414722975N01245208EA0185701992120000
K103641348005
B1036454722954N01245333EA0184801992125000
B1036494722950N01245466EA0185802000129000
B1036534722958N01245587EA0187702016117000
B1036574722979N01245691EA0190402040108000
B1037014722970N01245791EA0191902056092000
K103701000006
B1037054722916N01245845EA0191902056094000
B1037094722845N01245820EA0192002064107000
B1037134722816N01245725EA0193502072103000
B1037174722850N01245633EA0194102080104000
B1037214722925N01245629EA0194402088107000
K103721000006
B1037254722962N01245716EA0195502096106000
B1037294722929N01245812EA0196402104101000
B1037334722858N01245833EA0197102112112000
B1037374722808N01245758EA0198702128110000
B1037414722825N01245666EA0199502136101000
K103741272002
B1037454722900N01245641EA0199502136113000
B1037494722950N01245712EA0201602160100000
B1037534722933N01245812EA0201502152101000
B1037574722862N01245858EA0200802144116000
B1038014722787N01245820EA0203402176107000
K103801282003
B1038054722754N01245737EA0204802192107000
B1038094722787N01245662EA0206102208100000
B1038134722858N01245683EA0206302200105000
B1038174722895N01245779EA0207602216102000
B1038214722854N01245862EA0208102224110000
K103821280006
B1038254722787N01245829EA0209102232100000
B1038294722783N01245729EA0208602232118000
B1038334722854N01245691EA0210102248107000
B1038374722908N01245770EA0211102264108000
B1038414722883N01245870EA0211302256107000
K103841234006
B1038454722804N01245870EA0211002256118000
B1038494722766N01245783EA0212802280113000
B1038534722812N01245712EA0214102296106000
B1038574722883N01245745EA0214902296103000
B1039014722908N01245850EA0215902312099000
K103901294004
B1039054722862N01245933EA0216602312104000
B1039094722787N01245916EA0216002304115000
B1039134722758N01245808EA0217302328115000
B1039174722808N01245745EA0219502344099000
B1039214722870N01245783EA0219602344104000
K103921274005
B1039254722891N01245891EA0220202352106000
B1039294722837N01245966EA0220902360100000
B1039334722762N01245941EA0221102360104000
B1039374722737N01245850EA0222402376105000
B1039414722770N01245770EA0223402384103000
K103941284006
B1039454722841N01245762EA0222902384108000
B1039494722900N01245841EA0223802392108000
B1039534722908N01245958EA0224502400103000
B1039574722858N01246041EA0225602408103000
B1040014722783N01246050EA0226102416106000
K104001292013
B1040054722737N01245975EA0227302424101000
B1040094722754N01245883EA0227702440107000
B1040134722816N01245858EA0228602448101000
B1040174722879N01245912EA0228802448101000
B1040214722900N01246020EA0229502456102000
K104021276012
B1040254722866N01246120EA0230302464104000
B1040294722795N01246145EA0230402456098000
B1040334722733N01246091EA0229802456106000
B1040374722720N01245995EA0230602464108000
B1040414722754N01245925EA0232302480097000
K104041278012
B1040454722820N01245908EA0232102472101000
B1040494722879N01245966EA0231902472101000
B1040534722904N01246075EA0232402480100000
B1040574722875N01246179EA0232902488098000
B1041014722808N01246216EA0232602480100000
K104101282011
B1041054722741N01246166EA0232102472107000
B1041094722720N01246066EA0232402480102000
B1041134722741N01245975EA0232702480101000
B1041174722787N01245908EA0233002488108000
B1041214722850N01245866EA0234302496100000
K104121288011
B1041254722916N01245845EA0235602512098000
B1041294722983N01245862EA0235702512097000
B1041334723041N01245933EA0235902512103000
B1041374723054N01246045EA0237102528104000
B1041414723012N01246137EA0237602528101000
K104141280011
B1041454722941N01246145EA0237502528104000
B1041494722891N01246087EA0238202536100000
B1041534722895N01246000EA0238602536103000
B1041574722945N01245945EA0238702544103000
B1042014723020N01245975EA0239002544110000
K104201270016
B1042054723062N01246070EA0240602560098000
B1042094723054N01246183EA0241502568092000
B1042134723004N01246262EA0240702560103000
B1042174722933N01246266EA0239502552109000
B1042214722883N01246200EA0239702552105000
K104221266016
B1042254722858N01246108EA0238602536111000
B1042294722845N01246012EA0237702528111000
B1042334722841N01245908EA0236102512118000
B1042374722854N01245800EA0232802480128000
B1042414722883N01245687EA0227802432134000
K104241262016
B1042454722941N01245579EA0224102392121010
B1042494723025N01245516EA0222702376137010
B1042534723112N01245529EA0222202368124000
B1042574723175N01245616EA0221102360126000
B1043014723187N01245737EA0219902344109000
K104301232013
B1043054723145N01245850EA0217802320115000
