ACAM3W8
HFDTE200605
HFFXA050
HFPLTPILOT:Alexander Friedl        
HFGTYGLIDERTYPE:Discus 2cT  
HFGIDGLIDERID:A           
HFDTM100GPSDATUM:
HFRFWFIRMWAREVERSION:F2.6
HFRHWHARDWAREVERSION:300 Series Version 2
HFFTYFRTYPE:CAMBRIDGE AERO INSTRUMENTS, 302+
HFGPS:GARMIN,LVS-25,12,18000
HFPRSPRESSALTSENSOR:INTERSEMA, MS5534-AP, 20000
I033638FXA3941ENL4247REX
LCAMSBVER:5FWVER:F26300
C200605072833200605000103
C0000000N00000000WTAKEOFF     
C4747083N01150167EMiesbach    
C4625167N01431650ESEEBERGSATTE
C4631467N00918600Ebeim Splügen
C4751550N01147933EWayern      
C4747083N01150167EMiesbach    
C0000000N00000000WLANDING     
B0752354740564N01157845EA0076800828000012000000
B0752374740564N01157845EA0076800828000008000000
B0752394740564N01157845EA0076900828000008000000
B0752414740564N01157844EA0076800828000008000000
B0752434740564N01157844EA0076900828000008000000
B0752454740564N01157844EA0076900828000008000000
B0752474740564N01157844EA0076800827000004000000
B0752494740564N01157844EA0076800828000004000000
B0752514740562N01157844EA0076800828000004000000
B0752534740562N01157844EA0076800829000004000000
B0752554740562N01157844EA0076800829000004000000
B0752574740562N01157844EA0076800829000004000000
B0752594740562N01157844EA0076800829000004000000
B0753014740562N01157844EA0076800829000004000000
B0753034740567N01157841EA0077000829000064000000
B0753064740595N01157825EA0077000826000148000000
B0753104740653N01157793EA0077600857000172000000
B0753144740720N01157769EA0083900943000160000000
B0753184740785N01157750EA0093001036000152000000
B0753224740855N01157724EA0100401095000140000000
B0753264740935N01157695EA0105101124000140000000
B0753304741012N01157668EA0106701144000148000000
B0753344741081N01157639EA0107801148000104000000
B0753384741141N01157602EA0108201153000080000000
B0753424741197N01157559EA0108301149000060000000
B0753464741251N01157506EA0107501137000056000000
B0753504741305N01157435EA0105801112000064000000
B0753544741364N01157350EA0103201089000108000000
B0753584741414N01157253EA0102201093000264000000
B0754024741445N01157161EA0102901099000328000000
B0754064741468N01157070EA0103501104000508000000
B0754104741484N01156976EA0104301113000580000000
B0754144741496N01156880EA0105101121000664000000
B0754184741503N01156783EA0105701127000744000000
B0754224741509N01156680EA0106401141000752000000
B0754264741506N01156580EA0108101156000780000000
B0754304741505N01156481EA0109301169000820000000
B0754344741510N01156386EA0110501182000824000000
B0754384741516N01156295EA0111701195000892000000
B0754424741526N01156204EA0113001208000904000000
B0754464741540N01156116EA0114001216000960000000
B0754504741562N01156035EA0115001224000968000000
B0754544741587N01155955EA0115601231000972000000
B0754584741602N01155868EA0116301238000980000000
B0755024741631N01155782EA0116901242000988000000
B0755064741688N01155758EA0117501253000976000000
B0755104741719N01155823EA0118401254000996000000
B0755144741691N01155899EA0118301256000916000000
B0755184741630N01155931EA0118901263000900000000
B0755224741566N01155956EA0119401272000932000000
B0755264741510N01155999EA0120201280000996000000
B0755304741467N01156064EA0120901286000996000000
B0755344741436N01156147EA0121501294000996000000
B0755384741412N01156235EA0122601306000996000000
B0755424741388N01156324EA0123801319000996000000
B0755464741363N01156411EA0125201332000968000000
B0755504741349N01156494EA0126601347000968000000
B0755544741384N01156555EA0128001360000980000000
B0755584741444N01156544EA0128801366000988000000
B0756024741479N01156456EA0129701376000980000000
B0756064741466N01156351EA0130201383000964000000
B0756104741436N01156258EA0131201392000956000000
B0756144741407N01156163EA0132001403000956000000
B0756184741389N01156066EA0133401417000996000000
B0756224741385N01155969EA0134701427000996000000
B0756264741403N01155877EA0135401434000996000000
B0756304741442N01155801EA0136201440000996000000
B0756344741493N01155744EA0136601447000996000000
B0756384741548N01155695EA0137301451000996000000
B0756424741604N01155648EA0137901458000996000000
B0756464741661N01155601EA0138301459000996000000
B0756504741719N01155553EA0138401463000996000000
B0756544741779N01155507EA0138801466000996000000
B0756584741839N01155463EA0138901469000996000000
B0757024741897N01155415EA0139401473000996000000
B0757064741956N01155363EA0139601475000996000000
B0757104742016N01155311EA0139901479000996000000
B0757144742074N01155258EA0140001480000996000000
B0757184742133N01155202EA0140201482000996000000
B0757224742191N01155145EA0140501486000996000000
B0757264742251N01155090EA0140801489000996000000
B0757304742309N01155038EA0141201494000980000000
B0757344742367N01154984EA0141801499000968000000
B0757384742423N01154930EA0142201509000964000000
B0757424742476N01154877EA0143601523000996000000
B0757464742529N01154821EA0144801533000996000000
B0757504742585N01154768EA0145701540000996000000
B0757544742640N01154709EA0146101542000996000000
B0757584742693N01154649EA0146101544000996000000
B0758024742746N01154590EA0146301546000996000000
B0758064742801N01154530EA0146401547000996000000
B0758104742855N01154471EA0146501543000996000000
B0758144742911N01154409EA0146401550000948000000
B0758184742963N01154349EA0148001570000876000000
B0758224743013N01154291EA0149401582000956000000
B0758264743061N01154237EA0150501590000988000000
B0758304743113N01154185EA0150701588000996000000
B0758344743167N01154139EA0150901597000984000000
B0758384743222N01154090EA0151601602000996000000
B0758424743281N01154041EA0152701613000996000000
B0758464743340N01153989EA0153701622000996000000
B0758504743404N01153940EA0154301625000996000000
B0758544743466N01153893EA0154701630000996000000
B0758584743530N01153846EA0155001635000996000000
B0759024743594N01153801EA0155301635000996000000
B0759064743660N01153760EA0155001632000996000000
B0759104743726N01153720EA0155001634000996000000
B0759144743794N01153680EA0155301639000996000000
B0759184743860N01153639EA0156001646000996000000
B0759224743927N01153596EA0156601651000996000000
B0759264743990N01153548EA0156801652000996000000
B0759304744055N01153502EA0156901653000996000000
B0759344744120N01153456EA0157101655000996000000
B0759384744185N01153411EA0157401660000996000000
B0759424744249N01153365EA0157801665000996000000
B0759464744313N01153322EA0158201671000996000000
B0759504744375N01153281EA0158901676000996000000
B0759544744439N01153239EA0159301680000996000000
B0759584744503N01153197EA0159801684000996000000
B0800024744565N01153156EA0160301688000996000000
B0800064744627N01153110EA0160301687000996000000
B0800104744691N01153061EA0160301688000996000000
B0800144744753N01153009EA0160501690000996000000
B0800184744816N01152953EA0160901696000980000000
B0800224744876N01152897EA0161501701000988000000
B0800264744934N01152837EA0161901706000996000000
B0800304744991N01152777EA0162301710000996000000
B0800344745047N01152716EA0162801714000996000000
B0800384745102N01152654EA0163101718000996000000
B0800424745155N01152590EA0163401721000996000000
B0800464745207N01152525EA0163701724000996000000
B0800504745259N01152458EA0163901726000996000000
B0800544745309N01152387EA0164301730000996000000
B0800584745357N01152316EA0164501733000996000000
B0801024745406N01152246EA0164801736000996000000
B0801064745458N01152179EA0165101739000996000000
B0801104745513N01152114EA0165501743000996000000
B0801144745567N01152051EA0166001749000996000000
B0801184745622N01151987EA0166501752000996000000
B0801224745678N01151923EA0166801755000996000000
B0801264745732N01151857EA0167001758000996000000
B0801304745787N01151792EA0167401762000996000000
B0801344745842N01151724EA0167701766000996000000
B0801384745895N01151658EA0168101769000996000000
B0801424745947N01151591EA0168401772000996000000
B0801464745999N01151522EA0168601774000996000000
B0801504746051N01151453EA0168801777000996000000
B0801544746103N01151384EA0169101780000996000000
B0801584746155N01151314EA0169501784000996000000
B0802024746204N01151242EA0169701786000996000000
B0802064746254N01151169EA0169901790000996000000
B0802104746302N01151095EA0170301793000996000000
B0802144746350N01151021EA0170501795000996000000
B0802184746398N01150946EA0170801799000996000000
B0802224746447N01150873EA0171401803000996000000
B0802264746495N01150800EA0171801808000996000000
B0802304746542N01150727EA0172101813000996000000
B0802344746589N01150656EA0172701818000996000000
B0802384746636N01150583EA0173101822000996000000
B0802424746681N01150512EA0173501826000996000000
B0802464746726N01150439EA0173901831000996000000
B0802504746770N01150365EA0174401834000996000000
B0802544746814N01150291EA0174701837000996000000
B0802584746859N01150216EA0175001842000996000000
B0803024746905N01150144EA0175401846000996000000
B0803064746949N01150071EA0175701850000996000000
B0803104746995N01149997EA0176101855000996000000
B0803144747039N01149924EA0176601859000996000000
B0803184747083N01149850EA0177201864000996000000
B0803224747126N01149776EA0177501868000996000000
B0803264747169N01149702EA0177801873000980000000
B0803304747210N01149625EA0178301877000976000000
B0803344747252N01149548EA0178601880000968000000
B0803384747294N01149470EA0179101884000976000000
B0803424747335N01149391EA0179501889000996000000
B0803464747377N01149312EA0180001894000996000000
B0803504747418N01149232EA0180301897000996000000
B0803544747460N01149153EA0180901902000996000000
B0803584747502N01149074EA0181401907000996000000
B0804024747543N01148993EA0181801913000996000000
B0804064747582N01148911EA0182401918000996000000
B0804104747620N01148828EA0183101924000996000000
B0804144747658N01148746EA0183501928000996000000
B0804184747695N01148663EA0184001932000996000000
B0804224747732N01148578EA0184301936000996000000
B0804264747767N01148494EA0184801939000996000000
B0804304747803N01148408EA0185001943000996000000
B0804344747838N01148322EA0185301946000996000000
B0804384747873N01148237EA0185701950000996000000
B0804424747907N01148148EA0185901952000996000000
B0804464747954N01148075EA0186201956000996000000
B0804504748015N01148052EA0186601961000996000000
B0804544748072N01148084EA0187001964000996000000
B0804584748104N01148161EA0187101964000996000000
B0805024748104N01148251EA0187201966000996000000
B0805064748078N01148331EA0187601970000996000000
B0805104748035N01148394EA0187901972000996000000
B0805144747987N01148448EA0188101974000996000000
B0805184747938N01148503EA0188401977000996000000
B0805224747894N01148565EA0188701981000996000000
B0805264747853N01148629EA0189001983000988000000
B0805304747811N01148694EA0189101986000988000000
B0805344747769N01148760EA0189501989000988000000
B0805384747728N01148828EA0189701991000984000000
B0805424747688N01148896EA0190101994000988000000
B0805464747647N01148965EA0190501999000988000000
B0805504747608N01149035EA0190702002000968000000
B0805544747568N01149105EA0191002005000936000000
B0805584747528N01149175EA0191302009000948000000
B0806024747487N01149244EA0191802012000952000000
B0806064747446N01149314EA0192202015000924000000
B0806104747404N01149384EA0192302018000900000000
B0806144747363N01149456EA0192602023000876000000
B0806184747326N01149530EA0193102026000872000000
B0806224747291N01149607EA0193502030000852000000
B0806264747256N01149683EA0193802034000836000000
B0806304747221N01149759EA0194002036000788000000
B0806344747187N01149833EA0193902035000620000000
B0806384747155N01149902EA0193902034000388000000
B0806424747119N01149969EA0193602031000268000000
B0806464747083N01150036EA0193202026000168000000
B0806504747044N01150110EA0192102003000120000000
B0806544747000N01150202EA0190001986000080000000
B0806584746953N01150293EA0189701991000064000000
B0807024746906N01150375EA0189901994000056000000
B0807064746858N01150450EA0190101995000048000000
B0807104746809N01150522EA0190101996000044000000
B0807144746762N01150590EA0190101998000040000000
B0807184746716N01150655EA0190201999000040000000
B0807224746671N01150718EA0190201997000032000000
B0807264746624N01150781EA0189901994000056000000
B0807304746577N01150846EA0189701992000104000000
B0807344746531N01150909EA0188701988000080000000
B0807384746484N01150976EA0188401986000068000000
B0807424746437N01151041EA0188201984000056000000
B0807464746390N01151107EA0188001983000048000000
B0807504746346N01151172EA0188001983000040000000
B0807544746300N01151236EA0187801981000036000000
B0807584746258N01151301EA0187701979000028000000
B0808024746213N01151366EA0187701979000028000000
B0808064746170N01151428EA0187501977000028000000
B0808104746129N01151492EA0187201974000024000000
B0808144746086N01151554EA0187101973000020000000
B0808184746044N01151618EA0187001970000020000000
B0808224746001N01151682EA0186601967000020000000
B0808264745960N01151747EA0186301964000020000000
B0808304745916N01151812EA0186001962000020000000
B0808344745873N01151875EA0185901961000020000000
B0808384745830N01151939EA0185801959000020000000
B0808424745786N01152001EA0185601957000020000000
B0808464745743N01152064EA0185301954000020000000
B0808504745697N01152127EA0185001951000020000000
B0808544745652N01152190EA0184701947000024000000
B0808584745606N01152254EA0184301945000020000000
B0809024745561N01152317EA0184101941000020000000
B0809064745515N01152381EA0183601939000020000000
B0809104745470N01152445EA0183501936000020000000
B0809144745426N01152508EA0183301934000020000000
B0809184745380N01152572EA0183101931000020000000
B0809224745333N01152634EA0182901929000020000000
B0809264745285N01152693EA0182801928000020000000
B0809304745237N01152750EA0182701925000020000000
B0809344745190N01152807EA0182401924000020000000
B0809384745143N01152866EA0182301921000020000000
B0809424745095N01152924EA0182001919000020000000
B0809464745049N01152983EA0181801917000020000000
B0809504745003N01153040EA0181601916000020000000
B0809544744958N01153097EA0181601914000020000000
B0809584744911N01153156EA0181301911000020000000
B0810024744864N01153214EA0181001908000020000000
B0810064744816N01153273EA0180701906000020000000
B0810104744769N01153333EA0180501904000020000000
B0810144744721N01153392EA0180501904000024000000
B0810184744674N01153448EA0180301902000024000000
B0810224744623N01153502EA0180001899000024000000
B0810264744573N01153554EA0179801897000020000000
B0810304744521N01153603EA0179601894000020000000
B0810344744469N01153652EA0179201891000020000000
B0810384744415N01153699EA0179201893000020000000
B0810424744363N01153742EA0179101890000020000000
B0810464744311N01153784EA0178901887000020000000
B0810504744257N01153824EA0178501884000020000000
B0810544744202N01153863EA0178401884000024000000
B0810584744148N01153898EA0178301885000028000000
B0811024744096N01153931EA0178401882000024000000
B0811064744041N01153960EA0178001877000020000000
B0811104743984N01153992EA0177501872000020000000
B0811144743925N01154023EA0177001869000020000000
B0811184743869N01154057EA0176701867000020000000
B0811224743812N01154089EA0176501862000020000000
B0811264743755N01154123EA0176001857000020000000
B0811304743698N01154158EA0175401854000020000000
B0811344743642N01154192EA0175301853000020000000
B0811384743589N01154227EA0175201852000020000000
B0811424743537N01154262EA0175101849000020000000
B0811464743486N01154300EA0174701844000020000000
B0811504743433N01154340EA0174201840000020000000
B0811544743381N01154383EA0173801838000020000000
B0811584743330N01154425EA0173601836000020000000
B0812024743279N01154465EA0173501832000020000000
B0812064743227N01154505EA0172901827000020000000
B0812104743177N01154545EA0172301822000020000000
B0812144743127N01154586EA0172001818000028000000
B0812184743078N01154626EA0171601815000040000000
B0812224743028N01154669EA0171401811000028000000
B0812264742975N01154711EA0171001808000028000000
B0812304742923N01154753EA0170901808000024000000
B0812344742874N01154798EA0171101810000028000000
B0812384742824N01154839EA0171101807000028000000
B0812424742774N01154883EA0170701803000028000000
B0812464742723N01154929EA0170301801000024000000
B0812504742672N01154974EA0170101799000020000000
B0812544742623N01155021EA0170001796000020000000
B0812584742572N01155068EA0169601794000024000000
B0813024742520N01155112EA0169401794000028000000
B0813064742469N01155155EA0169501792000028000000
B0813104742416N01155195EA0169101789000028000000
B0813144742363N01155234EA0168801784000028000000
B0813184742308N01155271EA0168401781000024000000
B0813224742254N01155305EA0168301779000028000000
B0813264742199N01155337EA0168101778000024000000
B0813304742146N01155368EA0167901774000020000000
B0813344742092N01155401EA0167401769000020000000
B0813384742036N01155431EA0167001765000024000000
B0813424741981N01155461EA0166701762000028000000
B0813464741926N01155491EA0166401762000024000000
B0813504741871N01155519EA0166501764000028000000
B0813544741818N01155544EA0166701764000028000000
B0813584741763N01155570EA0166501760000028000000
B0814024741709N01155596EA0166001753000028000000
B0814064741654N01155624EA0165301745000048000000
B0814104741601N01155656EA0164601739000044000000
B0814144741548N01155686EA0163701732000088000000
B0814184741492N01155714EA0163201725000076000000
B0814224741435N01155747EA0162701722000056000000
B0814264741381N01155787EA0162501722000052000000
B0814304741331N01155834EA0162601727000048000000
B0814344741282N01155882EA0163301735000040000000
B0814384741236N01155926EA0164101738000040000000
B0814424741188N01155972EA0164401747000040000000
B0814464741141N01156012EA0165701762000032000000
B0814504741095N01156052EA0166701764000032000000
B0814544741046N01156095EA0166301754000028000000
B0814584740995N01156143EA0165301747000036000000
B0815024740943N01156194EA0164701743000028000000
B0815064740892N01156245EA0164301738000028000000
B0815104740838N01156293EA0164001736000024000000
B0815144740785N01156341EA0163701732000024000000
B0815184740729N01156384EA0163301728000028000000
B0815224740669N01156419EA0162901728000028000000
B0815264740609N01156447EA0162801726000032000000
B0815304740548N01156479EA0162901727000032000000
B0815344740488N01156511EA0163401733000032000000
B0815384740428N01156546EA0163501732000036000000
B0815424740369N01156583EA0163901738000036000000
B0815464740311N01156622EA0163901731000036000000
B0815504740258N01156668EA0163401732000036000000
B0815544740203N01156714EA0163801735000036000000
B0815584740151N01156762EA0164201739000036000000
B0816024740094N01156809EA0164401742000036000000
B0816064740036N01156853EA0164501739000032000000
B0816104739981N01156900EA0163901731000040000000
B0816144739927N01156950EA0163201724000072000000
B0816184739871N01157001EA0162601723000064000000
B0816224739816N01157054EA0162501719000052000000
B0816264739760N01157097EA0162001713000048000000
B0816304739702N01157132EA0161301706000088000000
B0816344739642N01157168EA0160901705000076000000
B0816384739583N01157204EA0160701701000056000000
B0816424739525N01157244EA0160301700000044000000
B0816464739465N01157279EA0160701708000040000000
B0816504739404N01157304EA0161501715000036000000
B0816544739344N01157327EA0161701714000032000000
B0816584739290N01157361EA0161701713000028000000
B0817024739239N01157408EA0161401706000028000000
B0817064739195N01157470EA0160601697000040000000
B0817104739154N01157542EA0159801689000040000000
B0817144739118N01157621EA0158901684000048000000
B0817184739082N01157703EA0158501675000052000000
B0817224739045N01157789EA0157501670000044000000
B0817264739007N01157871EA0157501672000040000000
B0817304738966N01157946EA0158001680000040000000
B0817344738920N01158007EA0158601682000040000000
B0817384738870N01158058EA0158701680000040000000
B0817424738819N01158104EA0158201675000036000000
B0817464738767N01158148EA0158001673000048000000
B0817504738711N01158187EA0157701674000048000000
B0817544738655N01158206EA0158801691000044000000
B0817584738603N01158182EA0160001698000040000000
B0818024738573N01158107EA0160501699000044000000
B0818064738567N01158014EA0160101695000048000000
B0818104738573N01157915EA0159901695000048000000
B0818144738581N01157818EA0160201698000048000000
B0818184738584N01157723EA0160401703000044000000
B0818224738582N01157630EA0160801708000044000000
B0818264738571N01157543EA0161101708000056000000
B0818304738524N01157503EA0161301707000056000000
B0818344738480N01157555EA0160501700000060000000
B0818384738489N01157646EA0160401704000052000000
B0818424738524N01157727EA0161301711000048000000
B0818464738552N01157811EA0161801718000048000000
B0818504738573N01157896EA0162301723000040000000
B0818544738588N01157979EA0163101731000040000000
B0818584738594N01158059EA0163601736000040000000
B0819024738601N01158140EA0164201744000036000000
B0819064738607N01158217EA0164801746000044000000
B0819104738590N01158291EA0164601740000048000000
B0819144738536N01158312EA0163901730000060000000
B0819184738494N01158247EA0163001722000072000000
B0819224738507N01158154EA0162401719000060000000
B0819264738541N01158071EA0162101715000056000000
B0819304738569N01157985EA0161801714000060000000
B0819344738588N01157894EA0161801713000056000000
B0819384738594N01157798EA0162001717000052000000
B0819424738598N01157703EA0162301720000048000000
B0819464738601N01157611EA0162901728000040000000
B0819504738575N01157534EA0163201725000044000000
B0819544738519N01157545EA0162701722000048000000
B0819584738513N01157633EA0162701726000044000000
B0820024738558N01157704EA0163201735000040000000
B0820064738591N01157777EA0164001739000040000000
B0820104738595N01157859EA0164501741000048000000
B0820144738597N01157942EA0164401741000048000000
B0820184738611N01158026EA0164601746000052000000
B0820224738602N01158106EA0165401754000044000000
B0820264738547N01158115EA0165501747000052000000
B0820304738520N01158026EA0164401738000056000000
B0820344738549N01157932EA0163801734000052000000
B0820384738589N01157847EA0163701739000056000000
B0820424738608N01157756EA0164301740000056000000
B0820464738611N01157660EA0164201739000056000000
B0820504738606N01157564EA0164301741000048000000
B0820544738597N01157469EA0164701745000040000000
B0820584738581N01157377EA0165101749000044000000
B0821024738536N01157324EA0165201743000048000000
B0821064738486N01157376EA0163801732000068000000
B0821104738500N01157469EA0163201731000068000000
B0821144738545N01157542EA0163401734000072000000
B0821184738590N01157612EA0164001742000068000000
B0821224738621N01157688EA0164901754000056000000
B0821264738650N01157763EA0165701757000056000000
B0821304738675N01157837EA0166201762000056000000
B0821344738653N01157907EA0166201759000060000000
B0821384738591N01157901EA0165501750000064000000
B0821424738569N01157811EA0165401755000060000000
B0821464738597N01157720EA0165401754000060000000
B0821504738619N01157625EA0165901762000056000000
B0821544738597N01157542EA0166601767000044000000
B0821584738539N01157550EA0166701764000040000000
B0822024738530N01157636EA0166901772000040000000
B0822064738581N01157695EA0167601780000036000000
B0822104738628N01157758EA0168501789000036000000
B0822144738610N01157834EA0169601796000036000000
B0822184738550N01157827EA0169501792000036000000
B0822224738536N01157736EA0169401790000056000000
B0822264738588N01157676EA0168901788000056000000
B0822304738655N01157688EA0169401799000048000000
B0822344738689N01157759EA0170401806000040000000
B0822384738659N01157829EA0171001810000040000000
B0822424738599N01157821EA0170601803000048000000
B0822464738573N01157732EA0170201802000052000000
B0822504738610N01157655EA0170301804000056000000
B0822544738672N01157646EA0171001815000044000000
B0822584738705N01157715EA0171801816000044000000
B0823024738673N01157785EA0171701813000052000000
B0823064738612N01157775EA0171101807000060000000
B0823104738585N01157685EA0171001811000056000000
B0823144738608N01157591EA0171201812000052000000
B0823184738663N01157543EA0172401827000044000000
B0823224738706N01157599EA0173101827000044000000
B0823264738682N01157673EA0172901824000048000000
B0823304738624N01157662EA0172801829000044000000
B0823344738591N01157581EA0173501838000040000000
B0823384738619N01157499EA0174401845000036000000
B0823424738679N01157513EA0174901848000036000000
B0823464738689N01157598EA0175701861000032000000
B0823504738641N01157639EA0176701867000032000000
B0823544738591N01157585EA0177001872000032000000
B0823584738598N01157493EA0177701879000032000000
B0824024738654N01157450EA0178101884000032000000
B0824064738702N01157496EA0179101900000032000000
B0824104738690N01157572EA0180101904000032000000
B0824144738633N01157581EA0180501909000032000000
B0824184738595N01157504EA0181301920000032000000
B0824224738614N01157416EA0182001923000032000000
B0824264738673N01157399EA0182001929000032000000
B0824304738703N01157469EA0183501941000028000000
B0824344738667N01157532EA0184201946000032000000
B0824384738612N01157498EA0184801953000032000000
B0824424738606N01157408EA0185201954000036000000
B0824464738655N01157355EA0185101954000040000000
B0824504738708N01157398EA0185601964000040000000
B0824544738721N01157480EA0186401976000036000000
B0824584738679N01157526EA0187601981000036000000
B0825024738630N01157480EA0188001986000032000000
B0825064738632N01157389EA0188201985000036000000
B0825104738688N01157350EA0188201992000036000000
B0825144738732N01157405EA0189201998000036000000
B0825184738714N01157486EA0190002009000036000000
B0825224738658N01157499EA0191402023000032000000
B0825264738625N01157425EA0191702020000036000000
B0825304738653N01157342EA0191602022000040000000
B0825344738714N01157329EA0192202035000040000000
B0825384738749N01157394EA0193302040000036000000
B0825424738720N01157468EA0193602045000032000000
B0825464738662N01157451EA0194702060000032000000
B0825504738649N01157363EA0195502061000036000000
B0825544738697N01157301EA0195802066000036000000
B0825584738749N01157339EA0196602075000032000000
B0826024738745N01157424EA0197102079000032000000
B0826064738689N01157456EA0198102091000032000000
B0826104738641N01157398EA0198702096000032000000
B0826144738654N01157305EA0198902094000028000000
B0826184738714N01157283EA0199102105000032000000
B0826224738746N01157352EA0200102109000032000000
B0826264738718N01157426EA0200502117000028000000
B0826304738660N01157425EA0201602125000032000000
B0826344738630N01157344EA0201602126000032000000
B0826384738662N01157264EA0201802127000032000000
B0826424738723N01157265EA0202102132000036000000
B0826464738754N01157339EA0202602135000036000000
B0826504738738N01157426EA0202802139000040000000
B0826544738688N01157474EA0203402146000040000000
B0826584738632N01157422EA0203902148000040000000
B0827024738636N01157325EA0204302158000040000000
B0827064738693N01157295EA0205102160000040000000
B0827104738733N01157359EA0205102164000040000000
B0827144738718N01157442EA0206002172000036000000
B0827184738659N01157457EA0206602179000036000000
B0827224738620N01157379EA0206902177000040000000
B0827264738647N01157294EA0207102189000040000000
B0827304738705N01157290EA0207902186000056000000
B0827344738738N01157360EA0207702192000048000000
B0827384738721N01157439EA0208002189000048000000
B0827424738666N01157470EA0207602185000072000000
B0827464738604N01157421EA0207402185000064000000
B0827504738575N01157331EA0207902194000052000000
B0827544738603N01157255EA0208802202000044000000
B0827584738656N01157257EA0208602194000048000000
B0828024738685N01157331EA0208202196000040000000
B0828064738655N01157404EA0209002207000036000000
B0828104738595N01157383EA0209602210000036000000
B0828144738577N01157290EA0209802211000036000000
B0828184738619N01157225EA0210102216000036000000
B0828224738673N01157247EA0210302213000044000000
B0828264738690N01157327EA0210402221000044000000
B0828304738667N01157405EA0211202224000052000000
B0828344738607N01157415EA0210602214000076000000
B0828384738573N01157327EA0210202217000076000000
B0828424738602N01157247EA0211102228000056000000
B0828464738656N01157238EA0211502228000048000000
B0828504738688N01157304EA0211702232000040000000
B0828544738660N01157377EA0211902229000052000000
B0828584738597N01157374EA0211302226000052000000
B0829024738560N01157294EA0211702233000048000000
B0829064738581N01157208EA0212002232000044000000
B0829104738636N01157188EA0211902234000044000000
B0829144738673N01157243EA0212202236000040000000
B0829184738676N01157327EA0212202238000040000000
B0829224738669N01157413EA0212302235000036000000
B0829264738662N01157500EA0212502239000032000000
B0829304738650N01157587EA0212502236000032000000
B0829344738640N01157677EA0212202237000032000000
B0829384738633N01157769EA0212802245000032000000
B0829424738628N01157859EA0213602255000028000000
B0829464738623N01157948EA0214202258000028000000
B0829504738616N01158036EA0214102248000028000000
B0829544738610N01158135EA0212702238000056000000
B0829584738601N01158234EA0212502238000052000000
B0830024738590N01158328EA0212602239000044000000
B0830064738581N01158421EA0212702239000036000000
B0830104738572N01158512EA0212602239000036000000
B0830144738562N01158603EA0212702239000044000000
B0830184738550N01158692EA0212602239000044000000
B0830224738538N01158781EA0212502237000036000000
B0830264738525N01158868EA0212302235000028000000
B0830304738511N01158956EA0212102233000024000000
B0830344738497N01159045EA0211802231000024000000
B0830384738482N01159132EA0211702228000020000000
B0830424738467N01159219EA0211302226000020000000
B0830464738450N01159306EA0211002222000020000000
B0830504738433N01159393EA0210702220000020000000
B0830544738415N01159479EA0210402218000020000000
B0830584738394N01159562EA0210302214000020000000
B0831024738372N01159647EA0210002211000020000000
B0831064738347N01159730EA0209702210000020000000
B0831104738322N01159810EA0209702209000020000000
B0831144738296N01159892EA0209402205000020000000
B0831184738269N01159974EA0209002202000020000000
B0831224738242N01200056EA0208902201000020000000
B0831264738214N01200135EA0208902200000020000000
B0831304738187N01200217EA0208402191000028000000
B0831344738160N01200302EA0207602187000028000000
B0831384738134N01200385EA0207502187000024000000
B0831424738108N01200467EA0207502185000024000000
B0831464738079N01200549EA0207002182000020000000
B0831504738049N01200629EA0206702177000020000000
B0831544738019N01200711EA0206202173000024000000
B0831584737990N01200795EA0206002171000024000000
B0832024737958N01200879EA0205802169000028000000
B0832064737930N01200962EA0205802169000028000000
B0832104737901N01201045EA0205702168000032000000
B0832144737871N01201130EA0205502168000032000000
B0832184737841N01201214EA0205702167000032000000
B0832224737813N01201302EA0205402166000032000000
B0832264737782N01201387EA0205302164000036000000
B0832304737752N01201469EA0205202162000032000000
B0832344737719N01201549EA0204802160000028000000
B0832384737685N01201625EA0204802158000028000000
B0832424737653N01201703EA0204502156000028000000
B0832464737620N01201781EA0204302153000024000000
B0832504737587N01201858EA0203902151000024000000
B0832544737554N01201936EA0203902150000024000000
B0832584737523N01202013EA0203802149000020000000
B0833024737492N01202091EA0203702147000020000000
B0833064737462N01202169EA0203602144000020000000
B0833104737432N01202247EA0203302142000020000000
B0833144737402N01202325EA0203102140000020000000
B0833184737372N01202401EA0202802137000020000000
B0833224737341N01202477EA0202502135000020000000
B0833264737308N01202552EA0202302133000020000000
B0833304737277N01202628EA0202002132000020000000
B0833344737246N01202702EA0201902130000020000000
B0833384737215N01202776EA0201702128000020000000
B0833424737182N01202851EA0201602126000020000000
B0833464737151N01202927EA0201402125000020000000
B0833504737119N01203001EA0201302124000020000000
B0833544737087N01203073EA0201102122000024000000
B0833584737056N01203148EA0201102123000028000000
B0834024737026N01203223EA0201002120000028000000
B0834064736995N01203300EA0200702118000028000000
B0834104736964N01203374EA0200702118000028000000
B0834144736933N01203448EA0200602116000024000000
B0834184736901N01203522EA0200302113000020000000
B0834224736870N01203597EA0200002110000020000000
B0834264736839N01203671EA0199802109000020000000
B0834304736809N01203746EA0199702106000020000000
B0834344736779N01203821EA0199302103000020000000
B0834384736751N01203898EA0199102101000020000000
B0834424736721N01203973EA0198802100000020000000
B0834464736691N01204048EA0198602097000024000000
B0834504736662N01204124EA0198402094000020000000
B0834544736631N01204199EA0198102092000020000000
B0834584736600N01204273EA0197902090000020000000
B0835024736569N01204349EA0197802088000020000000
B0835064736537N01204424EA0197502086000024000000
B0835104736506N01204497EA0197302084000024000000
B0835144736474N01204570EA0197102082000024000000
B0835184736441N01204643EA0196802080000020000000
B0835224736410N01204715EA0196702078000020000000
B0835264736378N01204788EA0196402075000020000000
B0835304736346N01204861EA0196202072000020000000
B0835344736314N01204934EA0196002070000020000000
B0835384736283N01205007EA0195802069000020000000
B0835424736249N01205079EA0195502066000020000000
B0835464736216N01205152EA0195202063000020000000
B0835504736183N01205224EA0195202061000020000000
B0835544736150N01205295EA0195102059000020000000
B0835584736116N01205367EA0194902055000020000000
B0836024736085N01205439EA0194502051000020000000
B0836064736054N01205514EA0194102048000020000000
B0836104736024N01205588EA0193802045000020000000
B0836144735994N01205663EA0193602040000020000000
B0836184735964N01205740EA0193202036000020000000
B0836224735936N01205819EA0192802032000020000000
B0836264735907N01205900EA0192402030000020000000
B0836304735880N01205979EA0192302028000020000000
B0836344735852N01206061EA0192202026000020000000
B0836384735826N01206143EA0191902023000020000000
B0836424735799N01206225EA0191702022000020000000
B0836464735773N01206305EA0191602019000020000000
B0836504735746N01206386EA0191202017000020000000
B0836544735717N01206468EA0191002014000020000000
B0836584735691N01206548EA0190802012000020000000
B0837024735664N01206630EA0190502008000020000000
B0837064735637N01206712EA0190102005000020000000
B0837104735609N01206794EA0189802001000020000000
B0837144735581N01206876EA0189701999000020000000
B0837184735552N01206957EA0189401998000020000000
B0837224735522N01207035EA0189201996000020000000
B0837264735494N01207113EA0189101993000020000000
B0837304735464N01207192EA0188901990000020000000
B0837344735434N01207269EA0188601988000020000000
B0837384735404N01207345EA0188201985000020000000
B0837424735374N01207422EA0187901982000020000000
B0837464735343N01207499EA0187701980000020000000
B0837504735312N01207574EA0187501977000020000000
B0837544735280N01207649EA0187301975000020000000
B0837584735249N01207724EA0187201973000020000000
B0838024735218N01207799EA0187001971000020000000
B0838064735185N01207873EA0186701968000020000000
B0838104735153N01207947EA0186401965000020000000
B0838144735122N01208023EA0186201963000020000000
B0838184735091N01208095EA0185901960000020000000
B0838224735058N01208168EA0185501956000020000000
B0838264735026N01208242EA0185001952000020000000
B0838304734992N01208316EA0184801949000020000000
B0838344734959N01208390EA0184701948000020000000
B0838384734927N01208463EA0184401945000020000000
B0838424734893N01208536EA0184001941000020000000
B0838464734858N01208609EA0183701939000020000000
B0838504734824N01208680EA0183501936000020000000
B0838544734792N01208753EA0183301934000020000000
B0838584734758N01208826EA0183001931000020000000
B0839024734724N01208899EA0182901930000020000000
B0839064734693N01208970EA0182701928000020000000
B0839104734660N01209043EA0182601925000020000000
B0839144734629N01209116EA0182201921000024000000
B0839184734598N01209190EA0181901919000024000000
B0839224734567N01209264EA0181601918000020000000
B0839264734535N01209337EA0181501916000020000000
B0839304734506N01209412EA0181301913000020000000
B0839344734473N01209488EA0181001911000020000000
B0839384734443N01209563EA0181001909000020000000
B0839424734412N01209638EA0180701907000020000000
B0839464734379N01209715EA0180401904000024000000
B0839504734350N01209792EA0180301903000020000000
B0839544734320N01209867EA0180201901000020000000
B0839584734291N01209943EA0179801897000020000000
B0840024734262N01210019EA0179501893000020000000
B0840064734235N01210097EA0179201891000020000000
B0840104734208N01210174EA0179101888000020000000
B0840144734181N01210248EA0178701886000020000000
B0840184734152N01210324EA0178401882000020000000
B0840224734123N01210400EA0178001877000020000000
B0840264734096N01210477EA0177601873000020000000
B0840304734067N01210554EA0177201870000020000000
B0840344734040N01210632EA0176901868000020000000
B0840384734014N01210707EA0176601866000020000000
B0840424733988N01210782EA0176501863000020000000
B0840464733962N01210859EA0176201859000020000000
B0840504733937N01210936EA0175901856000020000000
B0840544733913N01211014EA0175501850000028000000
B0840584733888N01211094EA0174901847000024000000
B0841024733865N01211174EA0174801846000024000000
B0841064733844N01211256EA0174301837000024000000
B0841104733819N01211341EA0173801832000024000000
B0841144733794N01211426EA0173401829000024000000
B0841184733770N01211510EA0172901825000028000000
B0841224733745N01211595EA0172701823000024000000
B0841264733722N01211678EA0172401820000028000000
B0841304733697N01211761EA0172101816000024000000
B0841344733674N01211843EA0171801814000028000000
B0841384733651N01211926EA0171601810000028000000
B0841424733629N01212011EA0171301807000028000000
B0841464733609N01212093EA0171001804000028000000
B0841504733589N01212176EA0170701800000024000000
B0841544733568N01212258EA0170301794000028000000
B0841584733542N01212339EA0169601788000028000000
B0842024733516N01212419EA0169101782000032000000
B0842064733488N01212500EA0168301776000048000000
B0842104733456N01212582EA0167601769000040000000
B0842144733428N01212669EA0167201764000040000000
B0842184733402N01212760EA0166601760000048000000
B0842224733382N01212855EA0166501759000044000000
B0842264733364N01212951EA0166201751000040000000
B0842304733347N01213051EA0165701753000040000000
B0842344733339N01213150EA0166101760000040000000
B0842384733333N01213249EA0166501762000040000000
B0842424733326N01213345EA0166901765000036000000
B0842464733316N01213440EA0167301771000036000000
B0842504733310N01213536EA0167701779000036000000
B0842544733307N01213627EA0168701782000036000000
B0842584733302N01213717EA0169001785000036000000
B0843024733297N01213804EA0169301788000036000000
B0843064733294N01213892EA0169001780000040000000
B0843104733286N01213983EA0168601779000040000000
B0843144733274N01214073EA0168801785000040000000
B0843184733260N01214161EA0169101784000036000000
B0843224733243N01214246EA0169201785000036000000
B0843264733226N01214330EA0168901783000036000000
B0843304733216N01214420EA0169101788000036000000
B0843344733220N01214511EA0169901792000032000000
B0843384733233N01214598EA0170301797000032000000
B0843424733252N01214684EA0170901812000032000000
B0843464733277N01214760EA0172101820000032000000
B0843504733302N01214835EA0172501817000032000000
B0843544733324N01214911EA0171901808000040000000
B0843584733339N01214996EA0171001799000076000000
B0844024733350N01215085EA0170101792000084000000
B0844064733360N01215179EA0169501786000076000000
B0844104733367N01215274EA0169401791000060000000
B0844144733384N01215361EA0170401800000052000000
B0844184733389N01215447EA0170401798000044000000
B0844224733368N01215530EA0169901789000040000000
B0844264733338N01215612EA0169201782000036000000
B0844304733306N01215694EA0168801778000032000000
B0844344733271N01215776EA0168201772000028000000
B0844384733234N01215860EA0167501766000028000000
B0844424733199N01215945EA0166901761000028000000
B0844464733165N01216032EA0166501757000028000000
B0844504733134N01216119EA0166201753000028000000
B0844544733103N01216206EA0165901749000028000000
B0844584733073N01216294EA0165601747000028000000
B0845024733046N01216382EA0165501745000028000000
B0845064733020N01216469EA0165201743000028000000
B0845104732995N01216558EA0165001740000028000000
B0845144732972N01216647EA0164701739000028000000
B0845184732949N01216735EA0164601739000032000000
B0845224732926N01216820EA0164601737000028000000
B0845264732904N01216904EA0164401736000036000000
B0845304732883N01216987EA0164501738000032000000
B0845344732865N01217071EA0164501739000028000000
B0845384732852N01217158EA0164901747000028000000
B0845424732845N01217245EA0165501747000028000000
B0845464732839N01217334EA0165501753000028000000
B0845504732839N01217424EA0166201760000028000000
B0845544732836N01217514EA0166201757000036000000
B0845584732835N01217604EA0166501765000032000000
B0846024732838N01217691EA0167001763000032000000
B0846064732847N01217782EA0166401762000044000000
B0846104732882N01217861EA0167001772000044000000
B0846144732935N01217910EA0168401790000036000000
B0846184732986N01217947EA0169601791000040000000
B0846224732992N01218026EA0168701779000060000000
B0846264732940N01218064EA0167801772000076000000
B0846304732894N01218005EA0167501775000064000000
B0846344732879N01217917EA0168101780000048000000
B0846384732869N01217825EA0168301782000052000000
B0846424732834N01217760EA0168801789000048000000
B0846464732782N01217796EA0168801780000056000000
B0846504732792N01217891EA0168101781000060000000
B0846544732855N01217922EA0168801797000056000000
B0846584732918N01217903EA0170301807000048000000
B0847024732982N01217882EA0170701805000048000000
B0847064733034N01217922EA0171001811000044000000
B0847104733066N01217996EA0171001805000044000000
B0847144733098N01218075EA0170401798000040000000
B0847184733129N01218157EA0169601793000036000000
B0847224733163N01218241EA0169301789000036000000
B0847264733193N01218325EA0169201791000036000000
B0847304733219N01218410EA0169201787000036000000
B0847344733245N01218495EA0168801783000032000000
B0847384733260N01218586EA0168701788000036000000
B0847424733272N01218673EA0169501795000036000000
B0847464733291N01218751EA0170201804000036000000
B0847504733317N01218823EA0170701805000032000000
B0847544733343N01218892EA0170901806000048000000
B0847584733355N01218967EA0170701801000040000000
B0848024733349N01219049EA0170101794000040000000
B0848064733332N01219134EA0169401788000032000000
B0848104733310N01219219EA0169001788000036000000
B0848144733287N01219304EA0168901783000032000000
B0848184733263N01219387EA0168301778000032000000
B0848224733235N01219469EA0168101775000032000000
B0848264733209N01219551EA0167301766000044000000
B0848304733180N01219634EA0166601760000048000000
B0848344733148N01219716EA0166201758000052000000
B0848384733112N01219794EA0166101756000048000000
B0848424733072N01219872EA0165801751000044000000
B0848464733030N01219951EA0165501753000040015000
B0848504733004N01220037EA0165901761000040000000
B0848544733009N01220127EA0167101771000036000000
B0848584733033N01220204EA0168001780000036000000
B0849024733060N01220271EA0168401778000044000000
B0849064733087N01220344EA0168101775000044000000
B0849104733118N01220414EA0167901774000056000000
B0849144733150N01220486EA0167701770000044000000
B0849184733180N01220561EA0167101764000048000000
B0849224733204N01220643EA0166501762000048000000
B0849264733220N01220730EA0166501762000040000000
B0849304733228N01220815EA0166701765000044000000
B0849344733233N01220898EA0167101768000044000000
B0849384733230N01220981EA0167201767000040000000
B0849424733217N01221062EA0166901763000032000000
B0849464733204N01221146EA0166501758000036000000
B0849504733196N01221236EA0166101757000036000000
B0849544733191N01221325EA0166201759000036000000
B0849584733191N01221411EA0166901772000032000000
B0850024733198N01221489EA0167601771000032000000
B0850064733216N01221562EA0167401767000036000000
B0850104733247N01221627EA0167201767000032000000
B0850144733282N01221687EA0167001764000028000000
B0850184733319N01221747EA0166601763000028000000
B0850224733355N01221806EA0166701763000032000000
B0850264733390N01221866EA0166601763000032000000
B0850304733417N01221931EA0166801765000032000000
B0850344733429N01222005EA0166501756000052000000
B0850384733415N01222089EA0165301749000060000000
B0850424733377N01222157EA0165001747000044000000
B0850464733329N01222212EA0164601739000056000000
B0850504733277N01222268EA0163901734000060000000
B0850544733226N01222324EA0163601732000056000000
B0850584733178N01222381EA0163601731000048000000
B0851024733131N01222442EA0163501730000040000000
B0851064733087N01222510EA0163401727000036000000
B0851104733048N01222580EA0163601734000036000000
B0851144733012N01222650EA0164101737000036000000
B0851184732979N01222722EA0164101732000040000000
B0851224732951N01222801EA0163701732000036000000
B0851264732918N01222876EA0163801732000036000000
B0851304732891N01222954EA0163601729000032000000
B0851344732869N01223038EA0163201723000028000000
B0851384732848N01223125EA0162801725000032000000
B0851424732834N01223210EA0163001726000032000000
B0851464732827N01223299EA0163001722000028000000
B0851504732823N01223390EA0162401718000028000000
B0851544732821N01223481EA0162001717000028000000
B0851584732822N01223571EA0161801714000028000000
B0852024732825N01223659EA0161601710000028000000
B0852064732830N01223747EA0161101708000028000000
B0852104732835N01223836EA0160901703000028000000
B0852144732842N01223924EA0160501700000028000000
B0852184732848N01224013EA0160301699000028000000
B0852224732855N01224100EA0160201697000028000000
B0852264732860N01224185EA0159901692000032000000
B0852304732858N01224271EA0159401689000028000000
B0852344732853N01224356EA0159001683000048000000
B0852384732847N01224444EA0158101676000040000000
B0852424732838N01224533EA0157701670000044000000
B0852464732826N01224622EA0156901658000056000000
B0852504732813N01224716EA0155601648000076000000
B0852544732797N01224813EA0154701637000104000000
B0852584732788N01224917EA0153301624000084000000
B0853024732780N01225027EA0152201616000064000000
B0853064732774N01225136EA0151601609000076000000
B0853104732765N01225245EA0150901602000064000000
B0853144732757N01225353EA0150501602000056000000
B0853184732748N01225456EA0150601599000048000000
B0853224732739N01225558EA0150101591000044000000
B0853264732727N01225661EA0149301584000044000000
B0853304732715N01225762EA0148601579000044000000
B0853344732701N01225862EA0148201576000040000000
B0853384732687N01225960EA0148101573000040000000
B0853424732673N01226055EA0147801571000040000000
B0853464732657N01226147EA0147501568000036000000
B0853504732640N01226239EA0147101563000036000000
B0853544732623N01226332EA0146801560000032000000
B0853584732605N01226421EA0146501557000032000000
B0854024732585N01226511EA0146101552000032000000
B0854064732565N01226602EA0145701548000028000000
B0854104732544N01226691EA0145401546000032000000
B0854144732522N01226778EA0145301541000028000000
B0854184732500N01226865EA0144701537000028000000
B0854224732476N01226951EA0144301533000028000000
B0854264732453N01227036EA0143801528000028000000
B0854304732429N01227122EA0143301523000028000000
B0854344732406N01227209EA0142901517000028000000
B0854384732383N01227295EA0142401513000028000000
B0854424732359N01227381EA0142101510000032000000
B0854464732335N01227464EA0141801507000028000000
B0854504732309N01227546EA0141401505000028000000
B0854544732284N01227628EA0141201499000028000000
B0854584732258N01227712EA0140401493000028000000
B0855024732231N01227794EA0140201490000028000000
B0855064732202N01227876EA0139801485000028000000
B0855104732173N01227958EA0139301480000028000000
B0855144732138N01228036EA0138801474000028000000
B0855184732099N01228110EA0138201465000040000000
B0855224732059N01228191EA0136601451000072000000
B0855264732017N01228275EA0135901443000076000000
B0855304731976N01228357EA0135201436000064000000
B0855344731933N01228442EA0134401429000084000000
B0855384731890N01228527EA0133901425000088000000
B0855424731846N01228609EA0133501421000072000000
B0855464731799N01228690EA0133001417000068000000
B0855504731752N01228769EA0132801415000056000000
B0855544731707N01228846EA0132801416000048000000
B0855584731670N01228930EA0133101421000048000000
B0856024731647N01229019EA0133801432000040000000
B0856064731633N01229105EA0134701433000040000000
B0856104731610N01229184EA0134601435000052000000
B0856144731582N01229257EA0134901437000048000000
B0856184731555N01229328EA0134801431000080000000
B0856224731532N01229408EA0134201430000072000000
B0856264731538N01229491EA0134101430000068000000
B0856304731560N01229569EA0134201429000064000000
B0856344731582N01229647EA0134201433000056000000
B0856384731605N01229722EA0134401428000076000000
B0856424731627N01229801EA0133801425000080000000
B0856464731664N01229866EA0133501420000096000000
B0856504731690N01229941EA0133001418000092000000
B0856544731672N01230025EA0132501409000088000000
B0856584731618N01230064EA0131701399000096000000
B0857024731568N01230020EA0130801392000088000000
B0857064731547N01229938EA0130601394000080000000
B0857104731536N01229850EA0130301389000076000000
B0857144731525N01229759EA0130301394000064000000
B0857184731519N01229673EA0131001401000060000000
B0857224731512N01229590EA0131201397000068000000
B0857264731488N01229510EA0130401388000096000000
B0857304731454N01229437EA0130101390000080000000
B0857344731409N01229382EA0130701394000068000000
B0857384731348N01229392EA0130201387000064000000
B0857424731328N01229482EA0129701381000076000000
B0857464731373N01229543EA0129301378000080000000
B0857504731425N01229502EA0129101378000080000000
B0857544731447N01229422EA0129201382000068000000
B0857584731460N01229341EA0129901387000056000000
B0858024731419N01229287EA0130201387000056000000
B0858064731363N01229324EA0129801380000064000000
B0858104731348N01229410EA0129301379000072000000
B0858144731380N01229479EA0129201376000080000000
B0858184731422N01229544EA0128701372000088000000
B0858224731430N01229631EA0128701373000076000000
B0858264731400N01229707EA0128701374000064000000
B0858304731356N01229762EA0128801375000052000000
B0858344731311N01229813EA0129001379000040000000
B0858384731265N01229853EA0129501382000048000000
B0858424731215N01229892EA0129201374000056000000
B0858464731178N01229965EA0128901377000052000000
B0858504731184N01230052EA0129101377000044000000
B0858544731236N01230089EA0128901374000056000000
B0858584731282N01230046EA0128601370000068000000
B0859024731288N01229964EA0128301367000080000000
B0859064731249N01229905EA0127801367000072000000
B0859104731193N01229892EA0128401373000060000000
B0859144731140N01229921EA0128501366000060000000
B0859184731124N01230009EA0127801364000060000000
B0859224731171N01230064EA0128201371000056000000
B0859264731222N01230032EA0128401368000052000000
B0859304731226N01229950EA0127901358000072000000
B0859344731179N01229900EA0127101357000068000000
B0859384731123N01229931EA0127501361000068000000
B0859424731076N01229994EA0127401358000060000000
B0859464731035N01230058EA0127401362000052000000
B0859504730997N01230123EA0127801362000060000000
B0859544730963N01230194EA0127501356000052000000
B0859584730934N01230269EA0127001354000044000000
B0900024730907N01230347EA0126701349000036000000
B0900064730881N01230431EA0126201347000036000000
B0900104730858N01230515EA0126101345000036000000
B0900144730836N01230598EA0126101346000032000000
B0900184730815N01230682EA0126301345000032000000
B0900224730797N01230769EA0125701336000032000000
B0900264730780N01230858EA0125201338000032000000
B0900304730771N01230948EA0125701341000032000000
B0900344730762N01231036EA0126001343000032000000
B0900384730751N01231122EA0125901343000032000000
B0900424730741N01231211EA0125901340000036000000
B0900464730728N01231299EA0125401335000036000000
B0900504730707N01231386EA0125101332000040000000
B0900544730687N01231475EA0125001332000036000000
B0900584730671N01231563EA0125201338000036000000
B0901024730647N01231644EA0125801344000040000000
B0901064730621N01231723EA0126201346000036000000
B0901104730590N01231794EA0126401349000036000000
B0901144730557N01231863EA0126801353000036000000
B0901184730525N01231930EA0126901351000032000000
B0901224730491N01231996EA0126601347000028000000
B0901264730463N01232070EA0126401346000028000000
B0901304730446N01232153EA0126101341000028000000
B0901344730438N01232245EA0125801343000036000000
B0901384730439N01232335EA0126601352000032000000
B0901424730440N01232422EA0126901350000032000000
B0901464730431N01232511EA0126701352000032000000
B0901504730434N01232599EA0127201356000036000000
B0901544730440N01232686EA0127401355000032000000
B0901584730443N01232773EA0127101353000028000000
B0902024730448N01232860EA0127001354000028000000
B0902064730461N01232947EA0127401357000032000000
B0902104730476N01233035EA0127401358000032000000
B0902144730489N01233122EA0127401357000036000000
B0902184730500N01233210EA0127801368000032000000
B0902224730515N01233296EA0128701373000036000000
B0902264730516N01233384EA0128801372000036000000
B0902304730512N01233471EA0128901376000040000000
B0902344730512N01233558EA0129401380000036000000
B0902384730518N01233644EA0129801385000036000000
B0902424730539N01233725EA0130301393000032000000
B0902464730580N01233786EA0130901397000036000000
B0902504730595N01233868EA0130701395000040000000
B0902544730550N01233916EA0130901392000036000000
B0902584730502N01233865EA0130301390000040000000
B0903024730498N01233776EA0130501391000048000000
B0903064730509N01233685EA0130501394000048000000
B0903104730524N01233597EA0131101405000048000000
B0903144730538N01233512EA0132101411000044000000
B0903184730548N01233428EA0132801414000048000000
B0903224730513N01233374EA0132801412000052000000
B0903264730465N01233414EA0132201403000072000000
B0903304730463N01233504EA0131701402000076000000
B0903344730496N01233584EA0132001411000064000000
B0903384730538N01233655EA0133301423000052000000
B0903424730589N01233708EA0134101428000048000000
B0903464730604N01233787EA0134601433000052000000
B0903504730554N01233825EA0134301426000064000000
B0903544730509N01233760EA0134001430000056000000
B0903584730522N01233669EA0134701436000052000000
B0904024730557N01233587EA0135101443000056000000
B0904064730581N01233505EA0136001452000052000000
B0904104730543N01233452EA0136601450000052000000
B0904144730498N01233501EA0136001445000064000000
B0904184730512N01233591EA0135501445000072000000
B0904224730565N01233646EA0136601461000060000000
B0904264730606N01233708EA0137801468000052000000
B0904304730578N01233779EA0138001467000052000000
B0904344730522N01233757EA0137901468000048000000
B0904384730512N01233669EA0138201476000044000000
B0904424730559N01233608EA0139401491000040000000
B0904464730608N01233653EA0140801501000040000000
B0904504730590N01233735EA0141201504000040000000
B0904544730531N01233739EA0141901514000040000000
B0904584730509N01233665EA0142901523000036000000
B0905024730552N01233605EA0143901538000036000000
B0905064730604N01233636EA0145201548000036000000
B0905104730602N01233720EA0145801552000036000000
B0905144730547N01233747EA0146301560000036000000
B0905184730511N01233688EA0147501574000036000000
B0905224730538N01233616EA0148801584000032000000
B0905264730595N01233622EA0149801594000036000000
B0905304730615N01233699EA0150701603000032000000
B0905344730569N01233750EA0151301609000032000000
B0905384730520N01233705EA0152301623000040000000
B0905424730534N01233623EA0153401632000036000000
B0905464730593N01233614EA0154101639000036000000
B0905504730616N01233694EA0155001651000036000000
B0905544730572N01233751EA0156001658000036000000
B0905584730521N01233705EA0157001673000036000000
B0906024730529N01233623EA0158401684000036000000
B0906064730583N01233605EA0159401692000040000000
B0906104730615N01233675EA0160301701000040000000
B0906144730577N01233746EA0160901704000044000000
B0906184730518N01233726EA0161701721000040000000
B0906224730507N01233646EA0163001728000036000000
B0906264730546N01233591EA0163501731000044000000
B0906304730600N01233609EA0163901740000040000000
B0906344730619N01233688EA0164701747000040000000
B0906384730578N01233753EA0165501756000040000000
B0906424730520N01233734EA0166401767000036000000
B0906464730508N01233653EA0167201772000036000000
B0906504730550N01233597EA0167501773000040000000
B0906544730606N01233621EA0167901785000036000000
B0906584730617N01233701EA0169201795000036000000
B0907024730581N01233768EA0170001803000036000000
B0907064730524N01233752EA0170801810000032000000
B0907104730509N01233672EA0171101813000040000000
B0907144730550N01233614EA0171301812000040000000
B0907184730609N01233625EA0171401822000040000000
B0907224730641N01233690EA0172801831000048000000
B0907264730619N01233768EA0172601816000068000000
B0907304730554N01233786EA0171601824000056000000
B0907344730525N01233712EA0173301839000048000000
B0907384730569N01233661EA0173801837000044000000
B0907424730615N01233717EA0173901844000040000000
B0907464730602N01233808EA0174801852000044000000
B0907504730544N01233852EA0175601863000040000000
B0907544730494N01233802EA0176301864000040000000
B0907584730507N01233716EA0176401869000044000000
B0908024730563N01233703EA0176701870000044000000
B0908064730595N01233779EA0177101879000044000000
B0908104730576N01233870EA0178301889000040000000
B0908144730517N01233906EA0178801893000036000000
B0908184730465N01233850EA0179101892000040000000
B0908224730466N01233760EA0179101896000040000000
B0908264730517N01233724EA0179301895000048000000
B0908304730573N01233748EA0179701908000044000000
B0908344730607N01233815EA0181401920000040000000
B0908384730590N01233903EA0181301916000040000000
B0908424730529N01233934EA0181401925000044000000
B0908464730478N01233889EA0182301924000056000000
B0908504730476N01233800EA0181901923000056000000
B0908544730520N01233750EA0182001926000052000000
B0908584730572N01233779EA0182601933000044000000
B0909024730594N01233861EA0183001934000044000000
B0909064730589N01233959EA0182701932000048000000
B0909104730574N01234055EA0182301927000052000000
B0909144730555N01234150EA0182301932000048000000
B0909184730534N01234242EA0182801940000044000000
B0909224730515N01234332EA0183501942000044000000
B0909264730491N01234424EA0183601940000048000000
B0909304730470N01234526EA0182901927000044000000
B0909344730446N01234632EA0181601922000044000000
B0909384730420N01234740EA0181001915000044000000
B0909424730396N01234849EA0180701914000044000000
B0909464730374N01234953EA0180901915000040000000
B0909504730353N01235056EA0180501909000040000000
B0909544730330N01235159EA0179801901000040000000
B0909584730308N01235265EA0179201895000040000000
B0910024730286N01235372EA0178701890000040000000
B0910064730264N01235476EA0178301888000036000000
B0910104730242N01235580EA0178101883000036000000
B0910144730219N01235684EA0177601881000040000000
B0910184730199N01235787EA0177401880000036000000
B0910224730179N01235888EA0177001873000036000000
B0910264730162N01235995EA0176201863000036000000
B0910304730148N01236104EA0175201857000036000000
B0910344730135N01236216EA0174801851000040000000
B0910384730123N01236327EA0174501847000040000000
B0910424730110N01236439EA0174101843000044000000
B0910464730096N01236548EA0173701839000040000000
B0910504730080N01236656EA0173201835000040000000
B0910544730063N01236762EA0172801831000044000000
B0910584730044N01236866EA0172501825000040000000
B0911024730023N01236971EA0171801818000040000000
B0911064730001N01237078EA0171301812000036000000
B0911104729980N01237182EA0170601810000036000000
B0911144729958N01237284EA0170501808000036000000
B0911184729939N01237387EA0170301805000036000000
B0911224729919N01237490EA0170001801000032000000
B0911264729901N01237594EA0169801801000036000000
B0911304729887N01237695EA0169801800000040000000
B0911344729876N01237798EA0170001805000040000000
B0911384729868N01237899EA0170701812000040000000
B0911424729857N01237991EA0171801822000044000000
B0911464729853N01238086EA0172101822000044000000
B0911504729852N01238184EA0172001823000048000000
B0911544729840N01238274EA0172501829000052000000
B0911584729818N01238358EA0172801837000052000000
B0912024729826N01238445EA0174101844000044000000
B0912064729887N01238465EA0174401847000048000000
B0912104729919N01238380EA0174901858000044000000
B0912144729879N01238311EA0176201868000040000000
B0912184729820N01238319EA0177001877000040000000
B0912224729789N01238398EA0178101885000036000000
B0912264729822N01238478EA0178701893000036000000
B0912304729884N01238466EA0179501898000040000000
B0912344729907N01238376EA0179901908000040000000
B0912384729868N01238311EA0181001917000040000000
B0912424729811N01238339EA0181501917000044000000
B0912464729803N01238436EA0182001929000044000000
B0912504729859N01238483EA0183101938000040000000
B0912544729911N01238423EA0183301940000056000000
B0912584729922N01238327EA0184201952000052000000
B0913024729876N01238275EA0185201956000052000000
B0913064729822N01238311EA0184901949000056000000
B0913104729787N01238396EA0185501963000048000000
B0913144729818N01238479EA0186301967000044000000
B0913184729875N01238437EA0186101963000048000000
B0913224729857N01238344EA0186601979000056000000
B0913264729796N01238316EA0188201994000052000000
B0913304729751N01238387EA0189101997000044000000
B0913344729792N01238467EA0189302001000044000000
B0913384729850N01238427EA0190202011000052000000
B0913424729849N01238332EA0190702013000048000000
B0913464729798N01238271EA0191502028000048000000
B0913504729740N01238301EA0192602029000040000000
B0913544729732N01238400EA0192302030000044000000
B0913584729781N01238467EA0192802034000044000000
B0914024729837N01238427EA0193102038000044000000
B0914064729827N01238336EA0194002053000048000000
B0914104729767N01238311EA0195602072000044000000
B0914144729732N01238393EA0196502070000040000000
B0914184729777N01238469EA0196502072000048000000
B0914224729839N01238439EA0197202083000044000000
B0914264729839N01238346EA0198302098000040000000
B0914304729780N01238316EA0199702108000040000000
B0914344729742N01238400EA0200102112000040000000
B0914384729790N01238467EA0200402114000040000000
B0914424729848N01238414EA0200502121000048000000
B0914464729850N01238314EA0201802137000044000000
B0914504729790N01238301EA0203402148000048000000
B0914544729766N01238389EA0203402142000048000000
B0914584729814N01238462EA0203702155000044000000
B0915024729870N01238419EA0205002165000044000000
B0915064729848N01238335EA0206402181000044000000
B0915104729788N01238354EA0208002195000040015000
B0915144729775N01238448EA0208602200000040000000
B0915184729832N01238498EA0209002204000040000000
B0915224729880N01238432EA0209502214000040000000
B0915264729853N01238350EA0211002232000040000000
B0915304729793N01238378EA0212602243000040000000
B0915344729797N01238476EA0213502255000036000000
B0915384729858N01238498EA0214902265000040000000
B0915424729893N01238419EA0215602274000040000000
B0915464729857N01238342EA0216802290000036000000
B0915504729796N01238368EA0218402300000036000000
B0915544729784N01238465EA0219102311000036000000
B0915584729832N01238523EA0220502321000032000000
B0916024729887N01238472EA0220502321000032000000
B0916064729887N01238376EA0221302339000036000000
B0916104729835N01238323EA0223002355000032000000
B0916144729783N01238372EA0224102361000036000000
B0916184729793N01238469EA0224302365000036000000
B0916224729855N01238502EA0225102375000036000000
B0916264729904N01238433EA0226502392000036000000
B0916304729889N01238339EA0228202406000036000000
B0916344729826N01238315EA0229202414000036000000
B0916384729784N01238391EA0230202427000036000000
B0916424729800N01238484EA0231702440000032000000
B0916464729858N01238514EA0232502449000032000000
B0916504729913N01238467EA0233602461000032000000
B0916544729917N01238371EA0234802473000036000000
B0916584729868N01238306EA0235802482000036000000
B0917024729802N01238300EA0236902495000036000000
B0917064729761N01238365EA0238302509000032000000
B0917104729777N01238450EA0239102514000032000000
B0917144729833N01238495EA0239902526000028000000
B0917184729891N01238467EA0241202539000028000000
B0917224729913N01238381EA0242102548000032000000
B0917264729880N01238300EA0243302558000032000000
B0917304729816N01238283EA0244402573000032000000
B0917344729770N01238339EA0245602581000032000000
B0917384729775N01238431EA0245902585000032000000
B0917424729823N01238492EA0247202604000032000000
B0917464729881N01238492EA0249102621000032000000
B0917504729918N01238426EA0250202629000036000000
B0917544729909N01238333EA0250502633000036000000
B0917584729862N01238267EA0251902648000040000000
B0918024729800N01238262EA0252802655000040000000
B0918064729761N01238328EA0253402661000040000000
B0918104729775N01238417EA0253802663000040000000
B0918144729835N01238449EA0254002667000040000000
B0918184729878N01238380EA0254502672000040000000
B0918224729845N01238285EA0254802674000040000000
B0918264729768N01238255EA0254502668000044000000
B0918304729686N01238274EA0254602674000044000000
B0918344729608N01238306EA0254902678000044000000
B0918384729532N01238344EA0255502676000048000000
B0918424729454N01238391EA0254702667000048000000
B0918464729374N01238446EA0252802643000064000000
B0918504729293N01238505EA0251002630000076000000
B0918544729208N01238567EA0249702616000072000000
B0918584729122N01238632EA0248502604000072000000
B0919024729035N01238701EA0247702593000076000000
B0919064728948N01238769EA0247002591000080000000
B0919104728864N01238835EA0246902588000080000000
B0919144728778N01238898EA0246402585000080000000
B0919184728692N01238956EA0245802579000084000000
B0919224728605N01239018EA0245402575000084000000
B0919264728519N01239078EA0245502577000084000000
B0919304728435N01239138EA0245502574000080000000
B0919344728349N01239195EA0245202570000080000000
B0919384728264N01239254EA0244802568000076000000
B0919424728181N01239311EA0244702566000080000000
B0919464728098N01239366EA0244502566000076000000
B0919504728016N01239423EA0244302562000072000000
B0919544727933N01239477EA0244202561000072000000
B0919584727853N01239531EA0244202564000072000000
B0920024727774N01239587EA0244002560000076000000
B0920064727695N01239644EA0243502553000076000000
B0920104727613N01239702EA0243102548000076000000
B0920144727532N01239762EA0242502543000080000000
B0920184727452N01239823EA0242102540000076000000
B0920224727374N01239887EA0241702534000072000000
B0920264727294N01239951EA0241102530000072000000
B0920304727215N01240013EA0241002530000072000000
B0920344727138N01240077EA0240902529000072000000
B0920384727060N01240139EA0240602527000076000000
B0920424726982N01240200EA0240602525000076000000
B0920464726904N01240257EA0240402519000072000000
B0920504726825N01240315EA0239802516000080000000
B0920544726746N01240372EA0239202507000080000000
B0920584726667N01240432EA0238702506000080000000
B0921024726587N01240495EA0238502504000080000000
B0921064726507N01240556EA0238402503000076000000
B0921104726426N01240616EA0238302500000076000000
B0921144726344N01240676EA0237902494000076000000
B0921184726260N01240733EA0237302489000080000000
B0921224726176N01240788EA0237002488000076000000
B0921264726096N01240842EA0236902487000076000000
B0921304726017N01240900EA0237202488000076000000
B0921344725937N01240958EA0236802484000076000000
B0921384725857N01241018EA0236202477000076000000
B0921424725777N01241082EA0236102479000080000000
B0921464725703N01241144EA0236402481000080000000
B0921504725630N01241209EA0236102471000080000000
B0921544725558N01241280EA0234902462000084000000
B0921584725482N01241348EA0234002455000092000000
B0922024725408N01241413EA0233902456000088000000
B0922064725335N01241477EA0233902459000088000000
B0922104725265N01241543EA0234102455000088000000
B0922144725196N01241613EA0233502449000084000000
B0922184725126N01241685EA0233402449000084000000
B0922224725055N01241754EA0233102447000084000000
B0922264724983N01241823EA0233002448000084000000
B0922304724913N01241888EA0233102445000080000000
B0922344724843N01241954EA0232502441000080000000
B0922384724772N01242020EA0232302439000076000000
B0922424724704N01242083EA0232302440000076000000
B0922464724635N01242144EA0232202436000076000000
B0922504724564N01242205EA0231502424000080000000
B0922544724493N01242267EA0230402418000088000000
B0922584724420N01242324EA0230102419000084000000
B0923024724350N01242384EA0230102414000076000000
B0923064724277N01242444EA0229002404000092000000
B0923104724198N01242497EA0228402396000088000000
B0923144724117N01242549EA0227702389000084000000
B0923184724038N01242601EA0227002383000096000000
B0923224723957N01242656EA0226202371000116000000
B0923264723875N01242713EA0225202365000104000000
B0923304723795N01242770EA0225002366000096000000
B0923344723717N01242824EA0225102368000088000000
B0923384723641N01242873EA0225302368000088000000
B0923424723570N01242926EA0225202364000080000000
B0923464723505N01242991EA0224802363000088000000
B0923504723444N01243063EA0225202375000080000000
B0923544723388N01243138EA0226902393000068000000
B0923584723345N01243219EA0228402406000060000000
B0924024723315N01243310EA0229102409000060000000
B0924064723294N01243409EA0230302427000052000000
B0924104723285N01243509EA0231902441000052000000
B0924144723287N01243606EA0232802445000052000000
B0924184723288N01243709EA0232702440000052000000
B0924224723284N01243822EA0231702430000052000000
B0924264723270N01243942EA0231302425000056000000
B0924304723248N01244062EA0230202408000072000000
B0924344723216N01244187EA0228302390000080000000
B0924384723181N01244309EA0227302391000080000000
B0924424723142N01244424EA0227602394000076000000
B0924464723099N01244533EA0228202405000076000000
B0924504723060N01244638EA0229202412000072000000
B0924544723023N01244744EA0229302410000068000000
B0924584722984N01244850EA0229402415000068000000
B0925024722950N01244954EA0230302424000064000000
B0925064722925N01245058EA0231102431000060000000
B0925104722895N01245156EA0232002441000056000000
B0925144722861N01245248EA0233002455000052000000
B0925184722838N01245340EA0234602463000048000000
B0925224722815N01245438EA0234602465000048000000
B0925264722780N01245525EA0235802488000048000000
B0925304722741N01245599EA0237702497000048000000
B0925344722700N01245673EA0237802494000048000000
B0925384722656N01245755EA0237402483000052000000
B0925424722613N01245854EA0236302473000056000000
B0925464722569N01245957EA0235802473000060000000
B0925504722530N01246067EA0234602457000088000000
B0925544722492N01246187EA0233302439000108000000
B0925584722453N01246315EA0231702431000100000000
B0926024722421N01246445EA0231302428000096000000
B0926064722388N01246574EA0231102426000088000000
B0926104722361N01246701EA0230902425000084000000
B0926144722335N01246826EA0230902426000080000000
B0926184722309N01246947EA0230802424000072000000
B0926224722282N01247069EA0230002413000080000000
B0926264722253N01247194EA0229202408000080000000
B0926304722227N01247322EA0228602403000080000000
B0926344722201N01247448EA0228402398000076000000
B0926384722176N01247574EA0228102398000076000000
B0926424722153N01247699EA0228102396000072000000
B0926464722130N01247823EA0227702391000072000000
B0926504722105N01247948EA0227302389000072000000
B0926544722079N01248073EA0226902384000072000000
B0926584722053N01248193EA0227102391000076000000
B0927024722027N01248304EA0227802393000072000000
B0927064722001N01248414EA0227602388000068000000
B0927104721975N01248525EA0226902381000064000000
B0927144721949N01248637EA0226302376000064000000
B0927184721920N01248749EA0226002376000060000000
B0927224721893N01248856EA0226102374000068000000
B0927264721867N01248963EA0225602368000068000000
B0927304721838N01249073EA0225202364000064000000
B0927344721812N01249183EA0224602357000068000000
B0927384721789N01249298EA0224002350000068000000
B0927424721766N01249415EA0223202343000080000000
B0927464721741N01249533EA0222602336000080000000
B0927504721717N01249654EA0222102334000080000000
B0927544721694N01249772EA0221902332000080000000
B0927584721672N01249888EA0221702331000080000000
B0928024721654N01250002EA0221702332000076000000
B0928064721637N01250115EA0221702324000096000000
B0928104721623N01250232EA0220702317000096000000
B0928144721610N01250351EA0220302316000092000000
B0928184721595N01250468EA0220202315000084000000
B0928224721584N01250581EA0220102312000076000000
B0928264721574N01250694EA0219602309000072000000
B0928304721565N01250806EA0219402307000068000000
B0928344721558N01250917EA0219002300000072000000
B0928384721550N01251032EA0218402295000068000000
B0928424721545N01251150EA0217702286000088000000
B0928464721543N01251270EA0216702280000084000000
B0928504721542N01251387EA0216402275000080000000
B0928544721537N01251501EA0216002270000084000000
B0928584721528N01251614EA0215602266000100000000
B0929024721511N01251725EA0215202255000108000000
B0929064721487N01251834EA0213802242000144000000
B0929104721454N01251939EA0212402231000172000000
B0929144721412N01252042EA0211602222000180000000
B0929184721363N01252139EA0211002224000140000000
B0929224721313N01252236EA0211602227000124000000
B0929264721268N01252334EA0212102240000100000000
B0929304721222N01252432EA0213202248000088000000
B0929344721174N01252528EA0214302257000080000000
B0929384721122N01252622EA0214902258000072000000
B0929424721069N01252710EA0214602256000072000000
B0929464721013N01252796EA0214202253000068000000
B0929504720956N01252880EA0213502240000080000000
B0929544720897N01252970EA0212302231000080000000
B0929584720836N01253060EA0211802229000076000000
B0930024720775N01253144EA0211602226000072000000
B0930064720713N01253225EA0211202222000080000000
B0930104720649N01253300EA0211602236000080000000
B0930144720589N01253372EA0212902244000072000000
B0930184720529N01253441EA0213402242000068000000
B0930224720467N01253510EA0212902238000064000000
B0930264720403N01253575EA0212402236000076000000
B0930304720338N01253636EA0213102247000064000000
B0930344720278N01253698EA0214602263000060000000
B0930384720221N01253754EA0216502281000052000000
B0930424720168N01253811EA0217602291000044000000
B0930464720111N01253861EA0218002289000040000000
B0930504720043N01253880EA0217202276000052000000
B0930544719968N01253861EA0215602255000076000000
B0930584719888N01253816EA0213702241000124000000
B0931024719810N01253760EA0212402228000128000000
B0931064719734N01253697EA0211602229000112000000
B0931104719660N01253634EA0211802230000100000000
B0931144719591N01253578EA0213102248000084000000
B0931184719531N01253526EA0215402272000068000000
B0931224719509N01253443EA0216402274000060000000
B0931264719550N01253376EA0216102269000064000000
B0931304719606N01253391EA0216102273000080000000
B0931344719631N01253467EA0216202271000072000000
B0931384719630N01253556EA0216502281000060000000
B0931424719614N01253638EA0217602292000052000000
B0931464719567N01253692EA0217902289000056000000
B0931504719505N01253701EA0217602288000060000000
B0931544719462N01253640EA0218002299000056000000
B0931584719488N01253569EA0219302307000048000000
B0932024719546N01253569EA0219302308000044000000
B0932064719576N01253643EA0220202317000048000000
B0932104719563N01253732EA0220102308000072000000
B0932144719535N01253828EA0219002295000076000000
B0932184719506N01253935EA0217802283000072000000
B0932224719475N01254052EA0216702279000072000000
B0932264719444N01254170EA0216402277000076000000
B0932304719413N01254280EA0216702285000068000000
B0932344719381N01254388EA0217402289000068000000
B0932384719346N01254494EA0217502285000064000000
B0932424719312N01254603EA0216602276000068000000
B0932464719280N01254713EA0216202276000068000000
B0932504719253N01254821EA0216702281000064000000
B0932544719225N01254928EA0216602282000064000000
B0932584719202N01255027EA0217902308000060000000
B0933024719189N01255118EA0220202319000056000000
B0933064719188N01255209EA0220602316000048000000
B0933104719188N01255305EA0220102306000056000000
B0933144719181N01255409EA0218802301000056000000
B0933184719173N01255514EA0218802305000056000000
B0933224719163N01255618EA0219202300000052000000
B0933264719145N01255726EA0218102292000060000000
B0933304719121N01255835EA0217802292000064000000
B0933344719098N01255943EA0218402301000060000000
B0933384719071N01256041EA0219602314000060000000
B0933424719042N01256129EA0220202315000064000000
B0933464719008N01256216EA0220102313000068000000
B0933504718969N01256303EA0219702305000068000000
B0933544718929N01256397EA0218802295000072000000
B0933584718882N01256489EA0218202301000072000000
B0934024718834N01256575EA0218902299000068000000
B0934064718786N01256665EA0218202294000068000000
B0934104718735N01256753EA0217902287000068000000
B0934144718685N01256841EA0216702278000088000000
B0934184718634N01256932EA0216502278000088000000
B0934224718584N01257023EA0216402274000076000000
B0934264718534N01257118EA0215902265000068000000
B0934304718482N01257211EA0215302261000068000000
B0934344718427N01257300EA0214902259000068000000
B0934384718371N01257387EA0214602255000072000000
B0934424718314N01257476EA0213802245000072000000
B0934464718257N01257567EA0213202243000076000000
B0934504718201N01257658EA0213302245000076000000
B0934544718145N01257746EA0213402243000080000000
B0934584718090N01257835EA0213002238000076000000
B0935024718038N01257926EA0212502231000080000000
B0935064717984N01258018EA0211802226000072000000
B0935104717928N01258112EA0211202220000088000000
B0935144717869N01258204EA0210602212000092000000
B0935184717810N01258296EA0209802208000088000000
B0935224717750N01258387EA0209802206000080000000
B0935264717690N01258478EA0209302201000076000000
B0935304717629N01258568EA0209102200000072000000
B0935344717568N01258658EA0209002196000068000000
B0935384717504N01258747EA0208602195000072000000
B0935424717444N01258837EA0208702194000072000000
B0935464717385N01258928EA0208202185000080000000
B0935504717323N01259019EA0207102176000080000000
B0935544717260N01259109EA0206602169000084000000
B0935584717197N01259198EA0205902165000080000000
B0936024717135N01259289EA0205502162000080000000
B0936064717076N01259382EA0205202158000076000000
B0936104717017N01259475EA0204802156000072000000
B0936144716957N01259565EA0204702154000072000000
B0936184716896N01259655EA0204502151000072000000
B0936224716836N01259744EA0204202148000076000000
B0936264716775N01259834EA0203902145000072000000
B0936304716716N01259921EA0203702142000068000000
B0936344716658N01300007EA0203402137000064000000
B0936384716599N01300093EA0202802133000064000000
B0936424716541N01300177EA0202302128000064000000
B0936464716482N01300262EA0201902123000060000000
B0936504716424N01300349EA0201502122000064000000
B0936544716367N01300435EA0201402120000064000000
B0936584716309N01300519EA0201102115000064000000
B0937024716251N01300601EA0200502106000084000000
B0937064716191N01300686EA0199902108000088000000
B0937104716129N01300769EA0200602117000080000000
B0937144716068N01300853EA0201102117000076000000
B0937184716005N01300939EA0200802118000076000000
B0937224715942N01301016EA0201102122000076000000
B0937264715875N01301079EA0201902134000072000000
B0937304715809N01301137EA0203102140000072000000
B0937344715744N01301186EA0203602145000068000000
B0937384715679N01301228EA0204102150000060000000
B0937424715611N01301256EA0205002166000056000000
B0937464715548N01301269EA0207002187000052000000
B0937504715487N01301278EA0208402192000048000000
B0937544715422N01301289EA0208502193000048000000
B0937584715357N01301313EA0208902198000044000000
B0938024715295N01301359EA0209102196000044000000
B0938064715236N01301414EA0208802197000048000000
B0938104715185N01301485EA0209002191000048000000
B0938144715149N01301584EA0208102183000052000000
B0938184715132N01301697EA0207402179000056000000
B0938224715126N01301813EA0207102175000056000000
B0938264715128N01301928EA0206602169000064000000
B0938304715134N01302043EA0206202167000072000000
B0938344715146N01302156EA0205802163000068000000
B0938384715159N01302268EA0205302157000068000000
B0938424715172N01302379EA0204902155000068000000
B0938464715177N01302491EA0204902155000076000000
B0938504715159N01302597EA0205202169000068000000
B0938544715117N01302680EA0207102184000064000000
B0938584715064N01302740EA0208102190000056000000
B0939024715007N01302790EA0208702193000052000000
B0939064714947N01302827EA0208802198000048000000
B0939104714881N01302825EA0209202196000052000000
B0939144714814N01302798EA0208402186000052000000
B0939184714746N01302784EA0207802184000060000000
B0939224714677N01302795EA0207802182000060000000
B0939264714609N01302827EA0207402172000080000000
B0939304714544N01302883EA0206102166000076000000
B0939344714484N01302951EA0205802164000072000000
B0939384714426N01303023EA0205602158000084000000
B0939424714370N01303100EA0204902156000088000000
B0939464714309N01303171EA0204802155000080000000
B0939504714242N01303239EA0204702154000080000000
B0939544714174N01303291EA0204902158000072000000
B0939584714101N01303327EA0204902154000068000000
B0940024714023N01303334EA0204702154000068000000
B0940064713946N01303313EA0204702151000068000000
B0940104713869N01303280EA0204102142000072000000
B0940144713794N01303241EA0203202133000076000000
B0940184713717N01303198EA0202402131000072000000
B0940224713638N01303159EA0202602135000072000000
B0940264713560N01303127EA0203002137000068000000
B0940304713482N01303106EA0203702144000068000000
B0940344713405N01303088EA0203902148000068000000
B0940384713334N01303072EA0204302156000068000000
B0940424713265N01303058EA0205202162000064000000
B0940464713197N01303041EA0205502160000060000000
B0940504713128N01303022EA0205102159000060000000
B0940544713058N01303009EA0205302164000060000000
B0940584712988N01303001EA0206202171000056000000
B0941024712918N01303003EA0206702174000056000000
B0941064712849N01303022EA0206602171000056000000
B0941104712784N01303046EA0206402168000060000000
B0941144712720N01303089EA0205602157000084000000
B0941184712662N01303144EA0205102158000084000000
B0941224712602N01303197EA0205102155000072000000
B0941264712545N01303252EA0204502152000076000000
B0941304712484N01303291EA0204302148000084000000
B0941344712416N01303317EA0203802139000084000000
B0941384712344N01303345EA0202502123000092000000
B0941424712272N01303393EA0201002113000084000000
B0941464712198N01303447EA0200602110000088000000
B0941504712123N01303503EA0200202102000104000000
B0941544712047N01303553EA0199602100000092000000
B0941584711970N01303595EA0199502097000100000000
B0942024711893N01303631EA0199102091000140000000
B0942064711815N01303648EA0198502090000132000000
B0942104711737N01303651EA0198702094000108000000
B0942144711663N01303639EA0199802106000092000000
B0942184711600N01303598EA0201102122000080000000
B0942224711555N01303526EA0202302128000072000000
B0942264711498N01303473EA0202402124000064000000
B0942304711446N01303525EA0202202136000060000000
B0942344711459N01303611EA0203902154000052000000
B0942384711514N01303614EA0205802171000052000000
B0942424711535N01303538EA0206602170000052000000
B0942464711502N01303458EA0206602172000064000000
B0942504711440N01303438EA0207102182000056000000
B0942544711395N01303494EA0207702186000048000000
B0942584711408N01303572EA0208902205000048000000
B0943024711460N01303564EA0210602218000044000000
B0943064711477N01303478EA0211602227000040000000
B0943104711429N01303419EA0211902228000040000000
B0943144711371N01303455EA0212202233000048000000
B0943184711343N01303539EA0212802242000048000000
B0943224711367N01303611EA0213902255000044000000
B0943264711420N01303603EA0214902262000044000000
B0943304711444N01303521EA0215602265000044000000
B0943344711407N01303434EA0216402284000044000000
B0943384711346N01303451EA0218302299000044000000
B0943424711350N01303533EA0218802301000044000000
B0943464711406N01303539EA0219402314000048000000
B0943504711438N01303461EA0221102329000044000000
B0943544711402N01303383EA0222402340000048000000
B0943584711342N01303412EA0223002346000048000000
B0944024711345N01303497EA0223202350000048000000
B0944064711398N01303526EA0224402361000052000000
B0944104711444N01303481EA0224802360000056000000
B0944144711454N01303391EA0224802362000056000000
B0944184711415N01303318EA0225202367000060000000
B0944224711355N01303335EA0226102380000060000000
B0944264711349N01303418EA0226602380000052000000
B0944304711402N01303444EA0227102392000052000000
B0944344711447N01303396EA0228002396000052000000
B0944384711471N01303313EA0228302396000048000000
B0944424711492N01303222EA0227802394000056000000
B0944464711507N01303123EA0228202399000052000000
B0944504711502N01303019EA0228502406000052000000
B0944544711483N01302924EA0229302414000048000000
B0944584711458N01302832EA0229702412000048000000
B0945024711424N01302745EA0229402407000048000000
B0945064711384N01302656EA0228602398000052000000
B0945104711338N01302571EA0228102396000056000000
B0945144711293N01302489EA0228402402000052000000
B0945184711242N01302413EA0228602402000048000000
B0945224711189N01302344EA0228402397000048000000
B0945264711129N01302290EA0228302399000052000000
B0945304711067N01302256EA0228702401000048000000
B0945344711000N01302238EA0228502399000048000000
B0945384710934N01302230EA0228402397000048000000
B0945424710868N01302244EA0228102395000048000000
B0945464710804N01302274EA0228202399000048000000
B0945504710740N01302301EA0228702404000048000000
B0945544710678N01302331EA0228902404000048000000
B0945584710614N01302359EA0228602398000048000000
B0946024710547N01302391EA0227602385000088000000
B0946064710476N01302435EA0227002387000080000000
B0946104710410N01302481EA0227402385000068000000
B0946144710341N01302535EA0226502370000064000000
B0946184710274N01302594EA0225402365000064000000
B0946224710206N01302650EA0224902359000076000000
B0946264710140N01302704EA0224402351000084000000
B0946304710071N01302758EA0223202342000092000000
B0946344709999N01302811EA0222402331000088000000
B0946384709924N01302867EA0221502320000088000000
B0946424709846N01302923EA0220702313000088000000
B0946464709764N01302976EA0219702305000084000000
B0946504709681N01303027EA0219302306000084000000
B0946544709596N01303075EA0219602309000088000000
B0946584709514N01303122EA0220302318000084000000
B0947024709435N01303163EA0221402328000076000000
B0947064709356N01303191EA0222102333000068000000
B0947104709276N01303195EA0222602341000064000000
B0947144709198N01303179EA0222802335000068000000
B0947184709119N01303156EA0222102322000112000000
B0947224709039N01303137EA0221002316000148000000
B0947264708955N01303128EA0220302305000136000000
B0947304708875N01303137EA0219302301000120000000
B0947344708798N01303163EA0219302307000100000000
B0947384708724N01303167EA0220902327000076000000
B0947424708664N01303122EA0222602344000060000000
B0947464708650N01303033EA0224102357000056000000
B0947504708694N01302968EA0225302369000048000000
B0947544708753N01302996EA0226402378000048000000
B0947584708755N01303083EA0227802397000044000000
B0948024708703N01303131EA0228902408000040000000
B0948064708641N01303089EA0230102422000040000000
B0948104708632N01303000EA0231502436000044000000
B0948144708688N01302954EA0233102449000040000000
B0948184708740N01303006EA0234102456000040000000
B0948224708737N01303101EA0235102474000044000000
B0948264708689N01303161EA0237102491000044000000
B0948304708621N01303143EA0237902494000044000000
B0948344708597N01303049EA0238902508000044000000
B0948384708639N01302985EA0240302522000048000000
B0948424708698N01303029EA0241502537000044000000
B0948464708693N01303124EA0243002559000048000000
B0948504708632N01303165EA0244902572000044000000
B0948544708564N01303127EA0246002587000044000000
B0948584708545N01303037EA0247602600000044000000
B0949024708591N01302985EA0248602612000048000000
B0949064708638N01303040EA0250102630000048000000
B0949104708620N01303131EA0252102652000048000000
B0949144708552N01303169EA0254202667000048000000
B0949184708491N01303114EA0255502677000044000000
B0949224708494N01303023EA0256202688000044000000
B0949264708547N01302990EA0257102702000048000000
B0949304708598N01303040EA0258902721000044000000
B0949344708593N01303139EA0260402734000040000000
B0949384708524N01303188EA0261902747000044000000
B0949424708459N01303135EA0263302764000044000000
B0949464708455N01303042EA0265102778000044000000
B0949504708504N01302998EA0266102789000040000000
B0949544708556N01303040EA0267402803000040000000
B0949584708574N01303130EA0269602827000040000000
B0950024708526N01303209EA0270902835000040000000
B0950064708456N01303196EA0271602844000044000000
B0950104708433N01303109EA0272202849000044000000
B0950144708476N01303046EA0272902863000044000000
B0950184708538N01303074EA0274702885000044000000
B0950224708556N01303166EA0277502915000044000000
B0950264708507N01303245EA0279002913000040000000
B0950304708435N01303226EA0278702918000052000000
B0950344708415N01303140EA0279702928000052000000
B0950384708439N01303063EA0280602946000048000000
B0950424708486N01303016EA0282302956000044000000
B0950464708542N01303052EA0283202967000044000000
B0950504708547N01303153EA0284802989000044000000
B0950544708493N01303222EA0286802997000040000000
B0950584708424N01303200EA0286402993000052000000
B0951024708383N01303123EA0287203009000048000000
B0951064708389N01303036EA0288603023000048000000
B0951104708417N01302955EA0289303021000044000000
B0951144708433N01302863EA0288403013000052000000
B0951184708408N01302768EA0287903009000060000000
B0951224708351N01302698EA0287402997000060000000
B0951264708282N01302646EA0286102985000072000000
B0951304708209N01302597EA0283902964000088000000
B0951344708130N01302547EA0282302945000100000000
B0951384708048N01302494EA0280902932000112000000
B0951424707966N01302438EA0279402920000124000000
B0951464707883N01302379EA0278502910000116000000
B0951504707798N01302325EA0277702904000108000000
B0951544707714N01302268EA0277102902000100000000
B0951584707635N01302205EA0277602910000092000000
B0952024707557N01302142EA0278002911000088000000
B0952064707477N01302083EA0278202914000080000000
B0952104707398N01302028EA0278402913000080000000
B0952144707320N01301971EA0278102907000100000000
B0952184707241N01301911EA0277102892000096000000
B0952224707159N01301850EA0276002893000088000000
B0952264707083N01301788EA0277302911000084000000
B0952304707012N01301732EA0278702921000080000000
B0952344706947N01301684EA0279702924000076000000
B0952384706882N01301641EA0279302920000080000000
B0952424706813N01301599EA0278702911000080000000
B0952464706741N01301558EA0277802906000092000000
B0952504706666N01301524EA0278002913000080000000
B0952544706591N01301488EA0278602920000072000000
B0952584706517N01301453EA0279202923000064000000
B0953024706439N01301417EA0279602930000060000000
B0953064706362N01301390EA0280602943000056000000
B0953104706285N01301375EA0282002958000048000000
B0953144706212N01301371EA0283702973000048000000
B0953184706142N01301373EA0284902980000048000000
B0953224706073N01301391EA0284902975000056000000
B0953264706006N01301432EA0284302974000056000000
B0953304705939N01301472EA0285002985000056000000
B0953344705872N01301514EA0285402981000052000000
B0953384705804N01301566EA0284902977000048000000
B0953424705737N01301619EA0284502975000056000000
B0953464705669N01301668EA0284602977000060000000
B0953504705599N01301713EA0284902978000068000000
B0953544705527N01301757EA0285002977000064000000
B0953584705457N01301802EA0284602974000068000000
B0954024705386N01301852EA0284502974000064000000
B0954064705313N01301902EA0284502976000064000000
B0954104705240N01301953EA0284702978000064000000
B0954144705168N01302005EA0285402990000060000000
B0954184705097N01302053EA0285702981000060000000
B0954224705018N01302099EA0284002960000072000000
B0954264704929N01302142EA0283102965000076000000
B0954304704838N01302174EA0283502965000072000000
B0954344704749N01302199EA0283102956000080000000
B0954384704658N01302217EA0282102947000116000000
B0954424704565N01302231EA0281402940000136000000
B0954464704470N01302242EA0280602927000124000000
B0954504704373N01302249EA0279402919000112000000
B0954544704277N01302253EA0279302928000108000000
B0954584704184N01302260EA0280002932000100000000
B0955024704093N01302269EA0280002924000088000000
B0955064704001N01302290EA0279402918000088000000
B0955104703906N01302313EA0278902914000084000000
B0955144703811N01302339EA0278302909000084000000
B0955184703718N01302361EA0278102905000080000000
B0955224703624N01302386EA0277402895000100000000
B0955264703530N01302416EA0276402886000096000000
B0955304703437N01302454EA0276402898000092000000
B0955344703354N01302504EA0277702913000084000000
B0955384703278N01302558EA0279202928000076000000
B0955424703207N01302613EA0280502938000064000000
B0955464703143N01302678EA0281502946000060000000
B0955504703086N01302747EA0282502962000052000000
B0955544703036N01302819EA0283902967000048000000
B0955584702995N01302903EA0283902971000048000000
B0956024702931N01302957EA0284202970000048000000
B0956064702856N01302957EA0284002969000048000000
B0956104702780N01302916EA0283902962000048000000
B0956144702708N01302864EA0283202959000056000000
B0956184702631N01302811EA0282902958000060000000
B0956224702557N01302755EA0282902956000060000000
B0956264702477N01302699EA0282402952000072000000
B0956304702401N01302641EA0282602959000068000000
B0956344702329N01302582EA0283802972000060000000
B0956384702259N01302532EA0284302971000060000000
B0956424702181N01302503EA0284102970000068000000
B0956464702103N01302512EA0284202973000060000000
B0956504702033N01302563EA0284402973000052000000
B0956544701978N01302643EA0284202972000052000000
B0956584701926N01302733EA0284102968000052000000
B0957024701873N01302825EA0283502962000056000000
B0957064701818N01302922EA0283002959000060000000
B0957104701764N01303019EA0283102963000060000000
B0957144701704N01303113EA0283402964000064000000
B0957184701648N01303206EA0283702970000064000000
B0957224701593N01303296EA0284202973000060000000
B0957264701539N01303387EA0284602974000060000000
B0957304701492N01303487EA0284202965000060000000
B0957344701454N01303598EA0283202962000064000000
B0957384701419N01303708EA0284002983000064000000
B0957424701393N01303811EA0286603006000060000000
B0957464701370N01303906EA0288403017000052000000
B0957504701343N01304003EA0288303009000052000000
B0957544701313N01304108EA0287803008000052000000
B0957584701278N01304214EA0287603004000056000000
B0958024701239N01304322EA0287303001000056000000
B0958064701196N01304431EA0287002997000060000000
B0958104701146N01304540EA0287003001000060000000
B0958144701093N01304649EA0287102995000060000000
B0958184701031N01304758EA0285902978000068000000
B0958224700959N01304868EA0283802958000108000000
B0958264700873N01304964EA0282002938000116000000
B0958304700781N01305059EA0279402909000116000000
B0958344700681N01305152EA0277402890000112000000
B0958384700581N01305243EA0276102884000108000000
B0958424700483N01305333EA0275602879000104000000
B0958464700387N01305420EA0275202878000100000000
B0958504700292N01305506EA0274902874000096000000
B0958544700199N01305592EA0274502868000092000000
B0958584700104N01305679EA0273902863000092000000
B0959024700010N01305765EA0273602861000092000000
B0959064659919N01305850EA0273602863000088000000
B0959104659831N01305938EA0273702865000088000000
B0959144659746N01306029EA0274102870000088000000
B0959184659664N01306120EA0274402872000084000000
B0959224659586N01306212EA0274902877000084000000
B0959264659511N01306305EA0274802870000080000000
B0959304659437N01306404EA0273502854000084000000
B0959344659365N01306508EA0273202858000096000000
B0959384659299N01306611EA0274402883000088000000
B0959424659247N01306705EA0277102901000080000000
B0959464659200N01306802EA0277702901000072000000
B0959504659159N01306907EA0277602898000068000000
B0959544659117N01307018EA0277202896000064000000
B0959584659083N01307135EA0277102890000068000000
B1000024659049N01307254EA0277002901000068000000
B1000064659014N01307365EA0278202908000072000000
B1000104658980N01307468EA0278602914000076000000
B1000144658947N01307566EA0278502906000076000000
B1000184658906N01307668EA0277702898000092000000
B1000224658860N01307774EA0277302905000096000000
B1000264658813N01307872EA0279602948000080000000
B1000304658753N01307936EA0283802971000060000000
B1000344658683N01307902EA0285002977000056000000
B1000384658665N01307800EA0285202979000052000000
B1000424658702N01307729EA0285902994000048000000
B1000464658759N01307717EA0288103020000048000000
B1000504658793N01307781EA0290603046000048000000
B1000544658770N01307865EA0293103063000040000000
B1000584658698N01307899EA0293903071000044000000
B1001024658629N01307851EA0294903082000044000000
B1001064658613N01307756EA0296303099000044000000
B1001104658650N01307694EA0297303111000040000000
B1001144658704N01307715EA0298703125000040000000
B1001184658702N01307804EA0300403145000044000000
B1001224658640N01307850EA0302003160000040000000
B1001264658568N01307806EA0303103167000040000000
B1001304658541N01307706EA0304403188000040000000
B1001344658566N01307621EA0306403205000040000000
B1001384658618N01307602EA0307703209000040000000
B1001424658654N01307655EA0308003212000040000000
B1001464658655N01307735EA0307903208000056000000
B1001504658629N01307832EA0307803211000056000000
B1001544658580N01307923EA0308103221000056000000
B1001584658524N01308006EA0309203230000056000000
B1002024658467N01308090EA0309503219000060000000
B1002064658407N01308179EA0308103209000068000000
B1002104658342N01308267EA0307503206000064000000
B1002144658272N01308352EA0307003199000068000000
B1002184658195N01308434EA0306503198000068000000
B1002224658117N01308515EA0306503194000068000000
B1002264658035N01308596EA0305903190000072000000
B1002304657948N01308665EA0305703184000076000000
B1002344657857N01308729EA0304103164000084000000
B1002384657760N01308792EA0302203143000088000000
B1002424657658N01308856EA0300503124000112000000
B1002464657553N01308926EA0298003101000108000000
B1002504657446N01308999EA0296803084000096000000
B1002544657337N01309077EA0295403060000080000000
B1002584657231N01309158EA0294303059000072000000
B1003024657131N01309237EA0294903071000064000000
B1003064657032N01309314EA0295803076000056000000
B1003104656932N01309388EA0296003079000052000000
B1003144656830N01309462EA0295803067000056000000
B1003184656725N01309537EA0294503059000052000000
B1003224656616N01309610EA0293703044000052000000
B1003264656504N01309682EA0293103052000048000000
B1003304656396N01309748EA0294603072000048000000
B1003344656295N01309808EA0296203087000048000000
B1003384656192N01309867EA0296503081000048000000
B1003424656084N01309925EA0295903072000048000000
B1003464655972N01309979EA0295303072000044000000
B1003504655862N01310026EA0296103084000040000000
B1003544655754N01310070EA0296603092000040000000
B1003584655649N01310108EA0297303098000040000000
B1004024655542N01310144EA0297903101000040000000
B1004064655435N01310179EA0297903100000044000000
B1004104655330N01310213EA0297803099000040000000
B1004144655223N01310247EA0297803102000040000000
B1004184655122N01310277EA0298303108000040000000
B1004224655026N01310306EA0299203116000044000000
B1004264654931N01310337EA0299003107000040000000
B1004304654832N01310369EA0298303098000040000000
B1004344654732N01310408EA0297003085000044000000
B1004384654631N01310452EA0296003074000044000000
B1004424654532N01310503EA0295203072000036000000
B1004464654438N01310558EA0295103069000032000000
B1004504654346N01310615EA0294603064000032000000
B1004544654254N01310672EA0293803051000036000000
B1004584654159N01310735EA0292103032000060000000
B1005024654065N01310809EA0290203016000068000000
B1005064653972N01310887EA0288903002000060000000
B1005104653879N01310970EA0288002993000056000000
B1005144653788N01311060EA0287502992000052000000
B1005184653702N01311153EA0287602995000048000000
B1005224653619N01311247EA0288002998000048000000
B1005264653540N01311343EA0288102997000044000000
B1005304653462N01311440EA0288002997000044000000
B1005344653383N01311537EA0287602992000044000000
B1005384653306N01311635EA0287302989000044000000
B1005424653232N01311738EA0287402994000044000000
B1005464653160N01311840EA0287902997000044000000
B1005504653089N01311938EA0287902997000040000000
B1005544653016N01312037EA0287702992000040000000
B1005584652942N01312136EA0287302990000040000000
B1006024652860N01312226EA0287302988000044000000
B1006064652773N01312305EA0287202988000044000000
B1006104652683N01312374EA0287302992000044000000
B1006144652588N01312430EA0287202982000040000000
B1006184652492N01312484EA0286102973000044000000
B1006224652395N01312538EA0285302966000044000000
B1006264652297N01312587EA0284702954000044000000
B1006304652198N01312639EA0283202938000068000000
B1006344652100N01312695EA0281602923000056000000
B1006384652001N01312753EA0280602915000048000000
B1006424651903N01312816EA0279802908000044000000
B1006464651807N01312878EA0278902899000044000000
B1006504651711N01312939EA0278402899000040000000
B1006544651615N01312991EA0278402899000040000000
B1006584651517N01313041EA0278202897000040000000
B1007024651421N01313090EA0278102894000040000000
B1007064651322N01313137EA0277402884000036000000
B1007104651218N01313182EA0276502877000036000000
