AZAN5CH ZANDER/SDI GP941 V2.07
HFDTE010507
HFFXA050
HFPLT Pilot             :HANS MARCUS VACANO                      
HFGTY Glider type       :ASH 25 MI                               
HFGID Glider ID         :DKLLG     
HFDTM100 GPS Datum      :WGS84
HFRFW Firmware Version  :07
HFRHW Hardware version  :2
HFFTY FR Type           :ZANDER/SDI GP941
HFGPS                   :Garmin,GPS25,12,30000
HFPRS Press Alt Sensor  :Intersema,MS5534A,10000
HFCCL Competition Class :OFFEN                                   
HFCID Competition ID    :          
I023638IAS3941ENL
J020810WDI1113WVE
LZAN 074655 PowerOn
C280407082236280407000103
C4743783N01226283E UNTER       
C4742050N01224183E STREICHN    
C4632750N00939166E PIZDERR     
C4631100N01345100E #WURZEN     
C4754133N01218250E ENDORF      
C4742050N01224183E STREICHN    
C4743783N01226283E UNTER       
B0746594743829N01226279EA0055800592000000
B0747034743829N01226279EA0055800584000000
B0747074743829N01226279EA0055800584000000
B0747114743829N01226279EA0055800584000000
B0747154743833N01226279EA0055800584000000
B0747194743829N01226279EA0055800584000000
B0747234743829N01226279EA0055800584000000
B0747274743829N01226279EA0055800576000000
B0747314743829N01226279EA0055800584000000
B0747354743829N01226279EA0055800584000000
B0747394743829N01226279EA0055800584000000
B0747434743829N01226279EA0055800584000000
B0747474743829N01226279EA0055800592000000
B0747514743829N01226279EA0055800592000000
B0747554743829N01226279EA0055800592000000
B0747594743829N01226279EA0055800592000000
B0748034743829N01226279EA0055800592000000
B0748074743829N01226279EA0055800592000000
B0748114743829N01226283EA0055800592000000
B0748154743829N01226279EA0055800584000000
B0748194743829N01226279EA0055800584000000
B0748234743829N01226279EA0055800584000000
B0748274743829N01226279EA0055800576000000
C010507074829010507000103
C4743783N01226283E UNTER       
C4742050N01224183E STREICHN    
C4700700N01107150E STUBAI      
C4713416N01409466E MURAU N     
C4757516N01230416E TRUCHING    
C4742050N01224183E STREICHN    
C4743783N01226283E UNTER       
B0748314743829N01226279EA0055800576000000
B0748354743829N01226279EA0055800576000000
B0748394743829N01226279EA0055800576000000
B0748434743829N01226279EA0055800576000000
B0748474743829N01226279EA0055800576000000
B0748514743829N01226279EA0055800584000000
B0748554743829N01226279EA0055800584000000
B0748594743829N01226279EA0055800584000000
B0749034743829N01226283EA0055800584000000
B0749074743829N01226283EA0055800584000000
B0749114743829N01226283EA0055800576000000
B0749154743829N01226283EA0055800576000000
B0749194743829N01226283EA0055800576000000
B0749234743829N01226283EA0055800576000000
B0749274743829N01226283EA0055800576000000
B0749314743829N01226283EA0055800568000000
B0749354743829N01226279EA0055800568000000
B0749394743829N01226279EA0055800568000000
B0749434743829N01226279EA0055800568000000
B0749474743829N01226279EA0055800568000000
B0749514743833N01226279EA0055800568000000
B0749554743829N01226279EA0055800568000000
B0749594743829N01226279EA0055800568000000
B0750034743829N01226275EA0055800568000000
B0750074743829N01226275EA0055800568000000
B0750114743829N01226275EA0055800568000000
B0750154743829N01226275EA0055800568000000
B0750194743829N01226275EA0055800568000000
B0750234743829N01226275EA0055800560000000
B0750274743829N01226275EA0055800560000000
B0750314743829N01226275EA0055800560000000
B0750354743829N01226275EA0055800560000000
B0750394743829N01226275EA0055800560000000
B0750434743829N01226275EA0055800560000000
B0750474743829N01226275EA0055800560000000
B0750514743829N01226275EA0055800560000000
B0750554743829N01226279EA0055800552000000
B0750594743829N01226279EA0055800552000000
B0751034743829N01226275EA0055800560000000
B0751074743829N01226275EA0055800560000000
B0751114743829N01226275EA0055800560000000
B0751154743829N01226275EA0055800560000000
B0751194743829N01226279EA0055800560000000
B0751234743829N01226279EA0055800560000000
B0751274743829N01226279EA0055800560000000
B0751314743829N01226279EA0055800560000000
B0751354743829N01226279EA0055800560000016
B0751394743829N01226279EA0055800560000008
B0751434743829N01226283EA0055800568000020
B0751474743829N01226283EA0055800568000016
B0751514743829N01226283EA0055800568000020
B0751554743829N01226283EA0055800576000020
B0751594743829N01226283EA0055800576000020
B0752034743829N01226283EA0055800576000020
B0752074743829N01226283EA0055800576000020
B0752114743829N01226283EA0055800576000020
B0752154743829N01226283EA0055800576000020
B0752194743829N01226283EA0055800576000020
B0752234743825N01226283EA0055800576000020
B0752274743825N01226287EA0055800576000020
B0752314743829N01226283EA0055800576000020
B0752354743829N01226283EA0055800568000020
B0752394743829N01226283EA0055800568000016
B0752434743829N01226283EA0055800568000016
B0752474743829N01226283EA0055800568000016
B0752514743829N01226283EA0055800576000016
B0752554743829N01226283EA0055800576000016
B0752594743829N01226283EA0055800576000016
B0753034743829N01226279EA0055800576000016
B0753074743829N01226279EA0055800576000016
B0753114743829N01226279EA0055800576000016
B0753154743829N01226283EA0055800576000016
B0753194743829N01226283EA0055800576000016
B0753234743829N01226283EA0055800576000016
B0753274743829N01226283EA0055800576000016
B0753314743829N01226283EA0055800568000016
B0753354743829N01226279EA0055800568000016
B0753394743829N01226279EA0055800568000016
B0753434743829N01226279EA0055800568000016
B0753474743829N01226279EA0055800560000016
B0753514743829N01226279EA0055800568000016
B0753554743829N01226283EA0055800560000016
B0753594743829N01226283EA0055800560000016
B0754034743829N01226283EA0055800560000016
B0754074743829N01226283EA0055800560000016
B0754114743829N01226279EA0055900560000016
B0754154743829N01226279EA0055900560000016
B0754194743829N01226279EA0055900560000016
B0754234743829N01226279EA0055900560000016
B0754274743829N01226279EA0055900552000016
B0754314743829N01226279EA0055900560000000
B0754354743829N01226279EA0055900560000008
B0754394743829N01226279EA0055900560000012
B0754434743829N01226279EA0055900560000008
B0754474743829N01226283EA0055900560000012
B0754514743829N01226279EA0055900560000012
B0754554743829N01226279EA0055900560000012
B0754594743829N01226279EA0055900560000012
B0755034743829N01226279EA0055900560000012
B0755074743829N01226279EA0055900560000012
B0755114743829N01226279EA0055900568000004
B0755154743829N01226279EA0055900568000008
B0755194743829N01226279EA0055900568000000
B0755234743829N01226279EA0055900568000000
B0755274743829N01226283EA0055900560000000
B0755314743829N01226279EA0055900560000000
B0755354743829N01226279EA0055900560000000
B0755394743829N01226283EA0055900560000000
B0755434743829N01226283EA0055900560000000
B0755474743829N01226283EA0055900560000000
B0755514743829N01226283EA0055900560000000
B0755554743829N01226283EA0055900560000000
B0755594743829N01226283EA0055900560000000
B0756034743829N01226279EA0055900560000000
B0756074743829N01226279EA0055900560000000
B0756114743829N01226279EA0055900560000000
B0756154743829N01226283EA0055900560000000
B0756194743829N01226283EA0055900560000000
B0756234743829N01226283EA0055900560000000
B0756274743825N01226283EA0055900560000000
B0756314743829N01226283EA0055900560000000
B0756354743829N01226283EA0055900568000000
B0756394743829N01226283EA0055900568000000
B0756434743829N01226283EA0055900568000000
B0756474743829N01226279EA0055900568000000
B0756514743829N01226279EA0055900568000000
B0756554743829N01226279EA0055900568000000
B0756594743829N01226279EA0055900568000000
B0757034743829N01226279EA0055900568000000
B0757074743829N01226279EA0055900568000000
B0757114743829N01226279EA0055900568000000
B0757154743829N01226279EA0055900568000000
B0757194743829N01226279EA0055900560000000
B0757234743829N01226275EA0055900560000000
B0757274743829N01226279EA0055900560000000
B0757314743829N01226279EA0055900560000000
B0757354743829N01226275EA0055900560000000
B0757394743829N01226275EA0055900560000000
B0757434743829N01226279EA0055900560000000
B0757474743829N01226279EA0055900560000000
B0757514743829N01226279EA0055900560000000
B0757554743829N01226279EA0055900560000000
B0757594743829N01226279EA0055900560000000
B0758034743829N01226279EA0055900560000000
B0758074743829N01226279EA0055900568000000
B0758114743829N01226279EA0055900560000000
B0758154743829N01226279EA0055900560000000
B0758194743829N01226283EA0055900568000000
B0758234743829N01226283EA0055900568000000
B0758274743829N01226283EA0055900560000000
B0758314743829N01226283EA0055900568000000
B0758354743829N01226283EA0055900560000000
B0758394743829N01226283EA0055900560000000
B0758434743829N01226283EA0055900560000000
B0758474743829N01226283EA0055900560000000
B0758514743829N01226279EA0055900560000000
B0758554743829N01226279EA0055900568000000
B0758594743829N01226279EA0055900568000000
B0759034743829N01226279EA0055900568000000
B0759074743829N01226279EA0055900560000000
B0759114743829N01226279EA0055900560000000
B0759154743829N01226279EA0055900560000000
B0759194743829N01226279EA0055900560000000
B0759234743829N01226279EA0055900560000000
B0759274743829N01226279EA0055900560000000
B0759314743829N01226279EA0055900560000000
B0759354743829N01226279EA0055900560000000
B0759394743829N01226279EA0055900560000000
B0759434743829N01226279EA0055900552000000
B0759474743829N01226275EA0055900552000000
B0759514743829N01226275EA0055900552000000
B0759554743829N01226275EA0055900552000000
B0759594743829N01226275EA0055900552000000
B0800034743829N01226275EA0055900552000000
B0800074743829N01226275EA0055900560000000
B0800114743829N01226275EA0055900552000000
B0800154743829N01226275EA0055900552000000
B0800194743829N01226275EA0055900552000000
B0800234743829N01226275EA0055900552000000
B0800274743829N01226275EA0055900552000000
B0800314743829N01226275EA0055900552000000
B0800354743829N01226275EA0055900552000000
B0800394743829N01226279EA0055900552000000
B0800434743829N01226279EA0055900552000000
B0800474743829N01226279EA0055900552000000
B0800514743829N01226279EA0055900552000000
B0800554743829N01226279EA0055900552000000
B0800594743829N01226279EA0055900552000000
B0801034743829N01226279EA0055900552000000
B0801074743829N01226279EA0055900552000000
B0801114743829N01226279EA0055900552000000
B0801154743829N01226279EA0055900552000000
B0801194743829N01226279EA0055900544000004
B0801234743829N01226279EA0055900544000000
B0801274743829N01226279EA0055900544000000
B0801314743829N01226279EA0055900544000000
B0801354743829N01226279EA0055900552000000
B0801394743829N01226279EA0055900552000000
B0801434743829N01226279EA0055900544000000
B0801474743829N01226279EA0055900552000000
B0801514743829N01226279EA0055900552000000
B0801554743829N01226279EA0055900552000000
B0801594743829N01226279EA0055900552000000
B0802034743829N01226279EA0055900552000000
B0802074743829N01226279EA0055900552000000
B0802114743829N01226279EA0055900552000000
B0802154743829N01226279EA0055900552000000
B0802194743829N01226279EA0055900552000000
B0802234743829N01226279EA0055900552000000
B0802274743829N01226279EA0055900552000000
B0802314743829N01226279EA0055900552000000
B0802354743829N01226279EA0055900552000000
B0802394743829N01226279EA0055900552000000
B0802434743829N01226279EA0055900552000000
B0802474743829N01226279EA0055900552000000
B0802514743829N01226279EA0055900552000000
B0802554743829N01226279EA0055900552000000
B0802594743829N01226279EA0055900552000000
B0803034743829N01226275EA0055900552000000
B0803074743829N01226279EA0055900552000000
B0803114743829N01226275EA0055900552000000
B0803154743829N01226275EA0055900544000000
B0803194743829N01226275EA0055900544000000
B0803234743829N01226275EA0055900544000000
B0803274743829N01226275EA0055900544000000
B0803314743829N01226275EA0055900544000000
B0803354743829N01226275EA0055900552000000
B0803394743829N01226275EA0055900552000000
B0803434743829N01226275EA0055900544000000
B0803474743829N01226275EA0055900544000000
B0803514743829N01226275EA0055900544000000
B0803554743829N01226275EA0055900552000000
B0803594743829N01226275EA0055900552000000
B0804034743829N01226275EA0055900552000000
B0804074743829N01226275EA0055900544000000
B0804114743829N01226279EA0055900544000000
B0804154743829N01226275EA0055900544000000
B0804194743829N01226275EA0055900544000000
B0804234743829N01226275EA0055900544000000
B0804274743829N01226275EA0055900544000000
B0804314743829N01226279EA0055900544000000
B0804354743829N01226275EA0055900544000000
B0804394743829N01226275EA0055900544000000
B0804434743829N01226275EA0055900544000000
B0804474743829N01226275EA0055900544000000
B0804514743829N01226275EA0055900544000000
B0804554743829N01226275EA0055900544000000
B0804594743829N01226275EA0055900544000000
B0805034743829N01226275EA0055900544000000
B0805074743829N01226275EA0055900544000000
B0805114743829N01226275EA0055900552000000
B0805154743829N01226275EA0055900552000000
B0805194743829N01226275EA0055900552000000
B0805234743829N01226275EA0055900552000000
B0805274743829N01226275EA0055900552000000
B0805314743829N01226275EA0055900552000000
B0805354743829N01226275EA0055900560000000
B0805394743829N01226279EA0055900560000000
B0805434743829N01226279EA0055900560000000
B0805474743829N01226279EA0055900560000000
B0805514743829N01226279EA0055900560000000
B0805554743829N01226279EA0055900560000000
B0805594743829N01226279EA0055900560000000
B0806034743829N01226279EA0055900560000000
B0806074743829N01226279EA0055900560000000
B0806114743829N01226279EA0055900552000000
B0806154743829N01226279EA0055900552000004
B0806194743829N01226279EA0055900552000000
B0806234743829N01226279EA0055900552000004
B0806274743829N01226279EA0055900552000004
B0806314743829N01226279EA0055900552000000
B0806354743829N01226279EA0055900560000000
B0806394743829N01226279EA0055900560000000
B0806434743829N01226279EA0055900560000000
B0806474743829N01226279EA0055900552000000
B0806514743829N01226279EA0055900552000000
B0806554743829N01226275EA0055900552000000
B0806594743833N01226275EA0055900552000000
B0807034743833N01226275EA0055900552000000
B0807074743833N01226275EA0055900552000000
B0807114743833N01226275EA0055900552000000
B0807154743833N01226275EA0055900552000000
B0807194743833N01226275EA0055900552000000
B0807234743833N01226275EA0055900552000000
B0807274743833N01226275EA0055900552000000
B0807314743833N01226275EA0055900552000000
B0807354743833N01226275EA0055900552000000
B0807394743833N01226275EA0055900552000000
B0807434743833N01226275EA0055900552000000
B0807474743833N01226275EA0055900552000000
B0807514743833N01226275EA0055900552000000
B0807554743829N01226275EA0055900552000000
B0807594743829N01226275EA0055900552000000
B0808034743829N01226275EA0055900552000000
B0808074743829N01226279EA0055900552000004
B0808114743829N01226279EA0055900552000000
B0808154743829N01226279EA0055900552000000
B0808194743829N01226279EA0055900552000000
B0808234743829N01226279EA0055900552000000
B0808274743829N01226279EA0055900552000000
B0808314743829N01226275EA0055900552000000
B0808354743829N01226275EA0055900560000000
B0808394743829N01226275EA0055900552000000
B0808434743829N01226279EA0055900552000000
B0808474743829N01226279EA0055900552000000
B0808514743829N01226279EA0055900552000000
B0808554743829N01226279EA0055900552000000
B0808594743829N01226279EA0055900552000000
B0809034743829N01226279EA0055900552000000
B0809074743829N01226279EA0055900552000000
B0809114743829N01226279EA0055900552000000
B0809154743829N01226279EA0055900552000000
B0809194743829N01226279EA0055900552000000
B0809234743829N01226275EA0055900552000000
B0809274743829N01226275EA0055900552000000
B0809314743829N01226275EA0055900552000000
B0809354743829N01226275EA0055900552000000
B0809394743829N01226275EA0055900552000000
B0809434743829N01226275EA0055900560000000
B0809474743829N01226275EA0055900560000000
B0809514743829N01226275EA0055900560000000
B0809554743829N01226275EA0055900560000000
B0809594743829N01226275EA0055900560000000
B0810034743829N01226275EA0055900560000000
B0810074743829N01226275EA0055900560000000
B0810114743829N01226275EA0055900552000000
B0810154743829N01226279EA0055900552000000
B0810194743829N01226279EA0055900552000000
B0810234743829N01226279EA0055900552000000
B0810274743829N01226279EA0055900552000000
B0810314743829N01226279EA0055900560000000
B0810354743829N01226279EA0055900560000000
B0810394743829N01226279EA0055900560000000
B0810434743829N01226279EA0055900560000000
B0810474743829N01226275EA0055900560000000
B0810514743829N01226275EA0055900560000000
B0810554743829N01226275EA0055900560000000
B0810594743829N01226275EA0055900560000000
B0811034743829N01226275EA0055900560000000
B0811074743829N01226275EA0055900560000000
B0811114743829N01226275EA0055900560000000
B0811154743829N01226275EA0055900560000000
B0811194743829N01226275EA0055900560000000
B0811234743829N01226275EA0055900560000000
B0811274743829N01226275EA0055900560000000
B0811314743829N01226275EA0055900552000000
B0811354743829N01226275EA0055900560000000
B0811394743829N01226275EA0055900552000000
B0811434743829N01226275EA0055900552000000
B0811474743829N01226275EA0055900552000000
B0811514743829N01226275EA0055900552000000
B0811554743829N01226275EA0055900552000000
B0811594743829N01226275EA0055900560000000
B0812034743829N01226275EA0055900560000000
B0812074743829N01226275EA0055900560000000
B0812114743829N01226275EA0055900560000000
B0812154743829N01226275EA0055900560000000
B0812194743829N01226275EA0055900560000000
B0812234743825N01226275EA0055900560000000
B0812274743825N01226275EA0055900560000000
B0812314743820N01226275EA0055900560000004
B0812354743820N01226279EA0055900552000000
B0812394743816N01226279EA0055900552000008
B0812434743816N01226283EA0055900552000008
B0812474743816N01226283EA0055900560000008
B0812514743816N01226287EA0055900560000008
B0812554743812N01226287EA0055900560000008
B0812594743812N01226287EA0055900552000008
B0813034743812N01226287EA0055900552000004
B0813074743816N01226287EA0055900552000008
B0813114743812N01226287EA0055900552000000
B0813154743812N01226287EA0055900552000000
B0813194743812N01226287EA0055900560000000
B0813234743812N01226287EA0055900560000000
B0813274743812N01226287EA0055900560000000
B0813314743816N01226283EA0055900560000000
B0813354743816N01226283EA0055900560000000
B0813394743816N01226283EA0055900560000000
B0813434743816N01226283EA0055900560000000
B0813474743816N01226283EA0055900560000000
B0813514743816N01226283EA0055900560000000
B0813554743816N01226283EA0055900560000000
B0813594743816N01226287EA0055900560000000
B0814034743816N01226287EA0055900560000000
B0814074743816N01226287EA0055900560000000
B0814114743816N01226287EA0055900560000000
B0814154743816N01226287EA0055900560000000
B0814194743816N01226287EA0055900560000000
B0814234743816N01226283EA0055900568000008
B0814274743816N01226283EA0055900568000004
B0814314743816N01226283EA0055900560000000
B0814354743816N01226287EA0055900560000132
B0814394743816N01226287EA0055900560000320
B0814434743816N01226283EA0055900560000400
B0814474743812N01226283EA0055900560000420
B0814514743812N01226279EA0055900560000432
B0814554743812N01226279EA0055900560000408
B0814594743808N01226275EA0055900560000384
B0815034743808N01226270EA0055900560000320
B0815074743808N01226266EA0055900560000280
B0815114743804N01226266EA0055900560000312
B0815154743804N01226262EA0055900560000320
B0815194743800N01226258EA0055900560010300
B0815234743800N01226254EA0055900560000268
B0815274743800N01226250EA0055900560016236
B0815314743795N01226245EA0055900560001244
B0815354743795N01226245EA0055900560007248
B0815394743795N01226237EA0055900560019240
B0815434743791N01226233EA0055900560010248
B0815474743791N01226229EA0055900560013260
B0815514743791N01226225EA0055900560007284
B0815554743787N01226220EA0055900560000300
B0815594743787N01226220EA0055900560004312
B0816034743783N01226212EA0055900560009304
B0816074743783N01226208EA0055900560000284
B0816114743779N01226204EA0055900560000280
B0816154743779N01226200EA0055900560000272
B0816194743775N01226195EA0056000560000260
B0816234743770N01226195EA0056000560002240
B0816274743770N01226191EA0056000560026248
B0816314743766N01226187EA0056000560017268
B0816354743766N01226183EA0056000560011240
B0816394743766N01226183EA0056000560007216
B0816434743766N01226179EA0056000560000248
B0816474743762N01226175EA0056000560007332
B0816514743762N01226175EA0056000560011368
B0816554743762N01226170EA0056000560029360
B0816594743762N01226166EA0056000560017340
B0817034743758N01226166EA0056000560004360
B0817074743758N01226162EA0056000560031308
B0817114743754N01226158EA0056000560002236
B0817154743754N01226150EA0056000560000264
B0817194743750N01226145EA0056000560000276
B0817234743750N01226141EA0056000560000272
B0817274743745N01226137EA0056000560018248
B0817314743745N01226133EA0056000560009208
B0817354743741N01226129EA0056000560029216
B0817394743741N01226129EA0056000560047268
B0817434743737N01226129EA0056000560043292
B0817474743733N01226133EA0056000560037236
B0817514743729N01226137EA0056000560030200
B0817554743725N01226141EA0056000560036216
B0817594743720N01226141EA0056000560035208
B0818034743720N01226145EA0056000560016224
B0818074743716N01226150EA0056000560026248
B0818114743712N01226154EA0056000560010232
B0818154743708N01226154EA0056000552023236
B0818194743708N01226158EA0056000552030244
B0818234743708N01226158EA0056000552023240
B0818274743704N01226158EA0056000552025240
B0818314743704N01226158EA0056000552030232
B0818354743704N01226162EA0056000560045196
B0818394743700N01226162EA0056000560049128
B0818434743700N01226166EA0056000560045128
B0818474743700N01226166EA0056000560042000
B0818514743700N01226166EA0056000560056064
B0818554743700N01226170EA0056000560058004
K081855180000
B0818594743700N01226170EA0056000560031000
B0819034743700N01226175EA0056000560018048
B0819074743700N01226179EA0056000560037156
B0819114743700N01226179EA0056000560044192
B0819154743700N01226183EA0056000560056168
B0819194743700N01226187EA0056000560054180
B0819234743700N01226187EA0056000560054200
B0819274743700N01226187EA0056000552040232
K081927000050
B0819314743700N01226187EA0056000552063288
B0819354743700N01226187EA0056000552069452
B0819394743700N01226183EA0056000552080792
B0819434743700N01226187EA0056000552090908
B0819474743700N01226183EA0056000552076832
K081947000077
B0819514743700N01226183EA0056000552066864
B0819554743700N01226183EA0056000552051688
B0819594743700N01226183EA0056000552010280
B0820034743700N01226183EA0056000552006280
B0820074743700N01226183EA0056000552004000
B0820114743700N01226183EA0056000552004140
B0820154743700N01226183EA0056000552002000
B0820194743700N01226187EA0056000552004000
B0820234743700N01226187EA0056000560001000
B0820274743700N01226187EA0056000560003000
B0820314743704N01226187EA0056000560002000
B0820354743704N01226187EA0056000560003000
B0820394743704N01226187EA0056000560002000
B0820434743704N01226187EA0056000560004000
B0820474743704N01226187EA0056000560003000
B0820514743700N01226187EA0056000560006000
B0820554743704N01226187EA0056000552004000
B0820594743700N01226187EA0056000552005000
B0821034743700N01226187EA0055900552004000
B0821074743700N01226187EA0055900544004000
B0821114743700N01226187EA0055900544006000
B0821154743700N01226187EA0055800544007000
B0821194743700N01226187EA0055800544006000
B0821234743700N01226187EA0055800544006000
B0821274743700N01226183EA0055800552006000
B0821314743700N01226187EA0055800552006000
B0821354743700N01226187EA0055800552006000
B0821394743700N01226187EA0055800552004000
B0821434743700N01226187EA0055800552005000
B0821474743700N01226187EA0055800552006000
B0821514743700N01226187EA0055800552008000
B0821554743700N01226187EA0055800552008000
B0821594743700N01226187EA0055800552008000
B0822034743700N01226187EA0055800552004000
B0822074743700N01226187EA0055800560009000
B0822114743700N01226183EA0055800560010000
B0822154743700N01226183EA0055800552009000
B0822194743700N01226183EA0055800552009000
B0822234743700N01226183EA0055800552008000
B0822274743700N01226183EA0055800560008000
B0822314743700N01226183EA0055800560006000
B0822354743700N01226183EA0055800560005000
B0822394743700N01226183EA0055800568004000
B0822434743700N01226183EA0055800560004000
B0822474743700N01226179EA0055800560002000
B0822514743700N01226179EA0055800560004000
B0822554743695N01226179EA0055800560004008
B0822594743695N01226179EA0055800568003004
B0823034743695N01226179EA0055800568004000
B0823074743695N01226179EA0055800568004004
B0823114743695N01226179EA0055800568004000
B0823154743695N01226179EA0055800568003000
B0823194743695N01226179EA0055800568004000
B0823234743700N01226183EA0055800568003000
B0823274743700N01226183EA0055800568002000
B0823314743700N01226183EA0055800568001000
B0823354743700N01226183EA0055800568002000
B0823394743704N01226183EA0055800568003000
B0823434743700N01226183EA0055800568001000
B0823474743700N01226183EA0055800568001000
B0823514743700N01226183EA0055800568002000
B0823554743700N01226183EA0055800568001000
B0823594743700N01226183EA0055800568001000
B0824034743700N01226183EA0055800568003000
B0824074743700N01226183EA0055800576001000
B0824114743700N01226183EA0055800576002000
B0824154743700N01226187EA0055800568006000
B0824194743704N01226191EA0055800568007000
B0824234743704N01226191EA0055800568007000
B0824274743704N01226195EA0055800568008000
B0824314743704N01226200EA0055800568005004
B0824354743708N01226200EA0055800568006000
B0824394743708N01226204EA0055800568006004
B0824434743708N01226208EA0055800560008004
B0824474743708N01226208EA0055900560004004
B0824514743708N01226208EA0055900560001004
B0824554743708N01226208EA0055900560004004
B0824594743708N01226208EA0055900560000004
B0825034743708N01226208EA0055900560000000
B0825074743708N01226208EA0055900560000000
B0825114743708N01226208EA0055900560000000
B0825154743708N01226208EA0055900560000000
B0825194743708N01226208EA0055900552000000
B0825234743708N01226208EA0055900552000000
B0825274743708N01226208EA0055900560000000
B0825314743708N01226208EA0055900560000000
B0825354743708N01226208EA0055900552000000
B0825394743708N01226208EA0055900552000000
B0825434743708N01226208EA0055900552000000
B0825474743708N01226208EA0055900552000000
B0825514743708N01226208EA0055900560000000
B0825554743708N01226208EA0055900560000000
B0825594743708N01226208EA0055900560000000
B0826034743708N01226208EA0055900560000000
B0826074743708N01226208EA0055900552000000
B0826114743708N01226208EA0055900552000000
B0826154743708N01226208EA0055900560000000
B0826194743708N01226208EA0055900560000000
B0826234743708N01226208EA0055900560000000
B0826274743708N01226208EA0055900560000000
B0826314743708N01226208EA0055900560000000
B0826354743708N01226208EA0055900560000000
B0826394743708N01226208EA0055900560000000
B0826434743712N01226208EA0055900568000000
B0826474743712N01226208EA0055900568000000
B0826514743712N01226208EA0055900568000000
B0826554743708N01226208EA0055900568000004
B0826594743712N01226208EA0055900576000000
B0827034743712N01226208EA0055900576000004
B0827074743712N01226208EA0055900568000004
B0827114743712N01226208EA0055900560000000
B0827154743712N01226208EA0055900560000000
B0827194743712N01226208EA0055900560000000
B0827234743712N01226208EA0055900560000000
B0827274743712N01226208EA0055900560000000
B0827314743712N01226208EA0056000560000000
B0827354743708N01226208EA0056000560000000
B0827394743708N01226208EA0056000552000000
B0827434743708N01226208EA0056000552000000
B0827474743708N01226208EA0056000552000000
B0827514743708N01226208EA0056000552000000
B0827554743708N01226208EA0056000552000000
B0827594743708N01226208EA0056000552000000
B0828034743708N01226208EA0056000552000000
B0828074743708N01226208EA0056000560000000
B0828114743708N01226208EA0056000560000000
B0828154743708N01226208EA0056000560000000
B0828194743708N01226208EA0056000552001000
B0828234743708N01226208EA0056000552004004
B0828274743708N01226208EA0056000560005000
B0828314743708N01226208EA0056000560003012
B0828354743708N01226208EA0056000560005008
B0828394743708N01226208EA0055900560005000
B0828434743712N01226208EA0055900560004008
B0828474743712N01226208EA0055900560004000
B0828514743712N01226208EA0055900560005000
B0828554743712N01226208EA0055900560005000
B0828594743712N01226208EA0055900560005000
B0829034743712N01226208EA0055900552007000
B0829074743712N01226208EA0055900560007000
B0829114743712N01226208EA0055900560008000
B0829154743712N01226212EA0055900560005000
B0829194743712N01226212EA0055900552005000
B0829234743712N01226212EA0055900552005000
B0829274743712N01226212EA0055900552004000
B0829314743708N01226212EA0055900544004000
B0829354743712N01226212EA0055900544004000
B0829394743712N01226212EA0055900552004000
B0829434743712N01226212EA0055900544004000
B0829474743712N01226212EA0055900544004000
B0829514743712N01226212EA0055900544003000
B0829554743712N01226212EA0055900536004000
B0829594743712N01226212EA0055900536004000
B0830034743712N01226212EA0055900544004000
B0830074743712N01226212EA0055900544004000
B0830114743712N01226208EA0055900552003000
B0830154743712N01226208EA0055900552004000
B0830194743712N01226208EA0055900552004000
B0830234743712N01226208EA0055900552005000
B0830274743712N01226208EA0055900552003000
B0830314743712N01226208EA0055900560004000
B0830354743712N01226208EA0055800560004000
B0830394743712N01226208EA0055800560004000
B0830434743712N01226212EA0055800560004000
B0830474743712N01226212EA0055800552005000
B0830514743712N01226212EA0055800552004000
B0830554743712N01226212EA0055800552004004
B0830594743712N01226212EA0055800552005000
B0831034743712N01226212EA0055800552004000
B0831074743712N01226212EA0055800552004000
B0831114743712N01226212EA0055800552004004
B0831154743712N01226212EA0055800552004000
B0831194743712N01226208EA0055800560004004
B0831234743712N01226208EA0055800560004004
B0831274743708N01226208EA0055800560004000
B0831314743708N01226208EA0055800560005000
B0831354743708N01226208EA0055800552006000
B0831394743708N01226212EA0055800544006000
B0831434743708N01226212EA0055800544005000
B0831474743708N01226212EA0055800544005000
B0831514743708N01226212EA0055800544005000
B0831554743708N01226212EA0055800544005000
B0831594743708N01226212EA0055800544005000
B0832034743708N01226212EA0055800544005000
B0832074743708N01226212EA0055800544006000
B0832114743708N01226212EA0055800544007000
B0832154743708N01226212EA0055800544006000
B0832194743708N01226212EA0055800544007000
B0832234743708N01226212EA0055800544005000
B0832274743708N01226212EA0055800552005000
B0832314743708N01226212EA0055800552004000
B0832354743708N01226212EA0055800552002000
B0832394743708N01226212EA0055800552002000
B0832434743708N01226212EA0055800552003000
B0832474743708N01226208EA0055800560003000
B0832514743708N01226208EA0055800568004000
B0832554743708N01226208EA0055800568004000
B0832594743712N01226208EA0055800560003000
B0833034743712N01226208EA0055800560003000
B0833074743712N01226208EA0055800560003000
B0833114743712N01226208EA0055900568004000
B0833154743712N01226208EA0055900568005000
B0833194743712N01226208EA0055900568004000
B0833234743712N01226208EA0055900568004000
B0833274743712N01226208EA0055900568002000
B0833314743712N01226208EA0055900568001000
B0833354743712N01226208EA0055900568004000
B0833394743712N01226212EA0055900560003000
B0833434743712N01226212EA0055900560001000
B0833474743712N01226212EA0055900552004000
B0833514743712N01226212EA0055900552005000
B0833554743712N01226212EA0055900552003000
B0833594743712N01226212EA0055900552003000
B0834034743712N01226212EA0055900552005000
B0834074743712N01226212EA0055900552002000
B0834114743712N01226212EA0055900552001000
B0834154743712N01226212EA0055900552000004
B0834194743712N01226212EA0055900552000000
B0834234743712N01226212EA0055900552002000
B0834274743712N01226212EA0055900552002000
B0834314743712N01226212EA0055900552001000
B0834354743712N01226212EA0055900552001000
B0834394743712N01226212EA0055900552000004
B0834434743712N01226212EA0055800552002000
B0834474743712N01226212EA0055800552006000
B0834514743712N01226212EA0055800552005000
B0834554743712N01226212EA0055800552004000
B0834594743712N01226212EA0055800560010000
B0835034743712N01226212EA0055800560014000
B0835074743725N01226241EA0055800560067000
B0835114743758N01226312EA0058100576110064
B0835154743795N01226387EA0063500624111032
B0835194743837N01226458EA0068700672115128
B0835234743866N01226550EA0075000736121128
B0835274743904N01226645EA0081100792134160
K083527180000
B0835314743954N01226737EA0086200848126196
B0835354743995N01226804EA0087900872098144
B0835394744020N01226887EA0087100864100144
B0835434744000N01226979EA0086900864103064
B0835474743933N01227016EA0086700856098104
K083547180000
B0835514743862N01226970EA0085800856101088
B0835554743812N01226891EA0085500848090076
B0835594743779N01226804EA0085300848093068
B0836034743750N01226716EA0085100848084080
B0836074743720N01226629EA0085700856089056
K083607180000
B0836114743700N01226545EA0085800856096064
B0836154743666N01226458EA0085600856093136
B0836194743629N01226370EA0085900856108136
B0836234743591N01226283EA0087200872108228
B0836274743554N01226195EA0087600872108476
K083627180000
B0836314743512N01226108EA0087600872107484
B0836354743470N01226016EA0088300880116420
B0836394743450N01225916EA0088800888111420
B0836434743479N01225829EA0088700888111384
B0836474743541N01225820EA0087900880120384
K083647000002
B0836514743579N01225900EA0087200872123464
B0836554743570N01226000EA0088000872118504
B0836594743558N01226091EA0089000888118500
B0837034743550N01226179EA0089700896122488
B0837074743545N01226266EA0090700904121456
K083707000002
B0837114743541N01226354EA0092000920127288
B0837154743545N01226441EA0092200920125288
B0837194743562N01226537EA0093100928130000
B0837234743587N01226625EA0094100936128144
B0837274743616N01226708EA0095400952131000
K083727000037
B0837314743645N01226791EA0096200960133000
B0837354743679N01226866EA0097000968136000
B0837394743729N01226887EA0096700968135000
B0837434743770N01226820EA0096500960143000
B0837474743762N01226720EA0097700976141000
K083747000041
B0837514743708N01226650EA0098500984133000
B0837554743650N01226595EA0099400992134000
B0837594743591N01226529EA0100301000127000
B0838034743541N01226458EA0101301016128000
B0838074743495N01226375EA0102701024131000
K083807000041
B0838114743458N01226287EA0104001040128000
B0838154743425N01226200EA0104801048129000
B0838194743383N01226116EA0105101048131000
B0838234743341N01226020EA0105201056133000
B0838274743325N01225912EA0105501056135000
K083827000027
B0838314743345N01225804EA0105301048140000
B0838354743412N01225745EA0105201048141000
B0838394743466N01225783EA0106301064128000
B0838434743475N01225879EA0105601056143000
B0838474743454N01225979EA0106001056141000
K083847000027
B0838514743429N01226075EA0107801072137000
B0838554743400N01226162EA0109101088133000
B0838594743370N01226250EA0109701096136000
B0839034743358N01226345EA0109701096133000
B0839074743325N01226441EA0109101088141000
K083907000027
B0839114743250N01226491EA0109501096142000
B0839154743179N01226533EA0111301112137000
B0839194743116N01226591EA0111801120131000
B0839234743070N01226670EA0112001120133000
B0839274743025N01226762EA0111901120135000
K083927000027
B0839314742987N01226862EA0111901120137000
B0839354742937N01226950EA0111701112135000
B0839394742858N01226991EA0112001120140000
B0839434742775N01226966EA0112101120142000
B0839474742708N01226895EA0111701112144000
K083947000027
B0839514742654N01226804EA0112001120140000
B0839554742608N01226716EA0112701128136000
B0839594742566N01226625EA0113601136135000
B0840034742525N01226541EA0113701136137000
B0840074742470N01226466EA0114001136133000
K084007000027
B0840114742395N01226437EA0114001136131000
B0840154742325N01226470EA0115001144134000
B0840194742270N01226533EA0116001160134000
B0840234742237N01226616EA0116501168130000
B0840274742208N01226708EA0116401168134000
K084027000027
B0840314742187N01226804EA0116501168136000
B0840354742162N01226900EA0116601168138000
B0840394742141N01227004EA0116601168137000
B0840434742133N01227108EA0117001168132000
B0840474742120N01227208EA0118301184130000
K084047000032
B0840514742108N01227308EA0118401184128000
B0840554742095N01227412EA0118901192128000
B0840594742079N01227508EA0120201200124000
B0841034742062N01227600EA0120701208124000
B0841074742050N01227695EA0120701208125000
K084107000030
B0841114742029N01227795EA0120901208128000
B0841154742008N01227891EA0121301216124000
B0841194741995N01227987EA0121801216115000
B0841234742016N01228075EA0121801216115000
B0841274742075N01228104EA0120801208133000
K084127000027
B0841314742129N01228062EA0121901216127000
B0841354742133N01227979EA0121901216116000
B0841394742104N01227895EA0121701216123000
B0841434742070N01227816EA0122401224126000
B0841474742050N01227733EA0122801232123000
K084147000027
B0841514742045N01227641EA0122601224130000
B0841554742050N01227550EA0123101232128000
B0841594742062N01227458EA0123601232125000
B0842034742075N01227370EA0124401240129000
B0842074742087N01227279EA0124801248128000
K084207000040
B0842114742095N01227187EA0125501256125000
B0842154742104N01227100EA0126301264128000
B0842194742108N01227008EA0126301264127000
B0842234742112N01226908EA0126301264127000
B0842274742108N01226808EA0126801272126000
K084227000038
B0842314742108N01226712EA0127701280126000
B0842354742112N01226616EA0127701272128000
B0842394742120N01226512EA0128301280128000
B0842434742116N01226416EA0129001288126000
B0842474742104N01226316EA0129201296126000
K084247000032
B0842514742083N01226220EA0129501296129000
B0842554742054N01226120EA0130001296128000
B0842594742033N01226025EA0130701304126000
B0843034742012N01225933EA0131701312127000
B0843074741995N01225841EA0132001320124000
K084307000031
B0843114741979N01225745EA0132401320124000
B0843154741962N01225650EA0132801328128000
B0843194741941N01225558EA0133101328128000
B0843234741912N01225470EA0133501336124000
B0843274741883N01225379EA0133501336124000
K084327000031
B0843314741850N01225283EA0134801344131000
B0843354741812N01225200EA0135901360125000
B0843394741779N01225116EA0136101360122000
B0843434741750N01225029EA0136101360126000
B0843474741729N01224933EA0136101360127000
K084347000032
B0843514741700N01224841EA0136101360120000
B0843554741666N01224750EA0136401360125000
B0843594741616N01224675EA0136801368120000
B0844034741562N01224612EA0136901368121000
B0844074741504N01224554EA0137201376125000
K084407000028
B0844114741441N01224500EA0137501376122000
B0844154741379N01224450EA0138001384123000
B0844194741316N01224387EA0138301384123000
B0844234741258N01224320EA0138901392121000
B0844274741204N01224258EA0139701400122000
K084427000020
B0844314741145N01224204EA0140501408127000
B0844354741079N01224191EA0140601408114000
B0844394741025N01224237EA0140601408122000
B0844434740995N01224320EA0140501408131000
B0844474740991N01224408EA0141501416121000
K084447000023
B0844514740987N01224487EA0142301424121000
B0844554740991N01224566EA0142301424124000
B0844594741004N01224650EA0142501424123000
B0845034741016N01224729EA0142901424126000
B0845074741033N01224816EA0143101432124000
K084507000023
B0845114741050N01224904EA0143801440124000
B0845154741066N01224987EA0144701448121000
B0845194741087N01225066EA0145101448121000
B0845234741104N01225145EA0145101448121000
B0845274741129N01225229EA0145101456122000
K084527000043
B0845314741154N01225316EA0146401464124000
B0845354741162N01225404EA0147301472125000
B0845394741166N01225487EA0147301472121000
B0845434741166N01225575EA0147901480121000
B0845474741166N01225650EA0148201480122000
K084547000045
B0845514741170N01225733EA0147601472123000
B0845554741175N01225816EA0147601472121000
B0845594741183N01225895EA0148201480117000
B0846034741195N01225975EA0148301488120000
B0846074741208N01226050EA0148601488125000
K084607000049
B0846114741245N01226116EA0148701488119000
B0846154741295N01226162EA0149201488126000
B0846194741345N01226204EA0149601496126000
B0846234741395N01226237EA0150301496125000
B0846274741450N01226266EA0150601504120000
K084627000049
B0846314741504N01226295EA0150901512125000
B0846354741558N01226316EA0151201512124000
B0846394741616N01226333EA0151501512124000
B0846434741670N01226345EA0151601520124000
B0846474741729N01226354EA0152001520125000
K084647000048
B0846514741787N01226354EA0152101520127000
B0846554741845N01226345EA0152701528126000
B0846594741904N01226337EA0152901528130000
B0847034741962N01226333EA0153701536131000
B0847074742020N01226333EA0154101544129000
K084707000050
B0847114742079N01226333EA0154501544129000
B0847154742133N01226291EA0154901552121000
B0847194742170N01226216EA0155901560122000
B0847234742187N01226125EA0156501568122000
B0847274742183N01226025EA0156501568117000
K084727000051
B0847314742162N01225925EA0156801568124000
B0847354742133N01225837EA0157701576127000
B0847394742100N01225750EA0157801576126000
B0847434742058N01225670EA0157901584125000
B0847474742012N01225591EA0158501584124000
K084747000051
B0847514741970N01225516EA0159201592125000
B0847554741925N01225445EA0159701600125000
B0847594741875N01225375EA0159801600124000
B0848034741825N01225308EA0160101600125000
B0848074741770N01225245EA0160501608122000
K084807000031
B0848114741720N01225179EA0161101608123000
B0848154741670N01225116EA0161401616123000
B0848194741620N01225054EA0161601616124000
B0848234741570N01224991EA0161801624123000
B0848274741520N01224929EA0161901624126000
K084827000033
B0848314741466N01224866EA0162301624122000
B0848354741416N01224812EA0162701632125000
B0848394741362N01224766EA0162801632118000
B0848434741304N01224712EA0163201632122000
B0848474741254N01224650EA0163801640122000
K084847000032
B0848514741212N01224575EA0163801640119000
B0848554741179N01224483EA0163901640121000
B0848594741154N01224387EA0164901648120000
B0849034741141N01224291EA0165301656118000
B0849074741137N01224195EA0166001664119000
K084907000029
B0849114741129N01224104EA0166501664124000
B0849154741125N01224004EA0166501664124000
B0849194741120N01223900EA0166801672127000
B0849234741116N01223800EA0167501672128000
B0849274741108N01223704EA0167801680127000
K084927000035
B0849314741104N01223608EA0168501688122000
B0849354741116N01223516EA0168701688123000
B0849394741145N01223433EA0169201696123000
B0849434741195N01223375EA0169501696127000
B0849474741254N01223341EA0170001704127000
K084947000035
B0849514741312N01223345EA0170601704124000
B0849554741366N01223379EA0171001712122000
B0849594741412N01223433EA0171501720125000
B0850034741441N01223508EA0171701720122000
B0850074741458N01223595EA0172501728125000
K085007000035
B0850114741450N01223687EA0172501728127000
B0850154741420N01223770EA0173101736123000
B0850194741379N01223841EA0173701744125000
B0850234741329N01223891EA0174401744120000
B0850274741270N01223920EA0174901752122000
K085027000035
B0850314741204N01223933EA0174901752120000
B0850354741137N01223929EA0175301752119000
B0850394741075N01223904EA0176001760117000
B0850434741020N01223866EA0176601768115000
B0850474740970N01223804EA0176801768119000
K085047000035
B0850514740929N01223733EA0177301776117000
B0850554740895N01223654EA0177901784118000
B0850594740870N01223566EA0178101784117000
B0851034740854N01223475EA0178401784118000
B0851074740845N01223383EA0179001792119000
K085107000035
B0851114740845N01223295EA0179701800118000
B0851154740854N01223208EA0179801800121000
B0851194740870N01223120EA0180401808117000
B0851234740887N01223037EA0180901816118000
B0851274740904N01222950EA0180901816119000
K085127000038
B0851314740925N01222862EA0181301816119000
B0851354740954N01222779EA0181901824119000
B0851394740987N01222708EA0182001824120000
B0851434741029N01222641EA0182301824118000
B0851474741079N01222587EA0182901832118000
K085147000038
B0851514741133N01222550EA0183401840117000
B0851554741191N01222520EA0183901840118000
B0851594741245N01222508EA0184501848116000
B0852034741304N01222512EA0185301856117000
B0852074741358N01222533EA0185501864116000
K085207000039
B0852114741408N01222570EA0186001864116000
B0852154741454N01222620EA0186401864116000
B0852194741491N01222691EA0186701872116000
B0852234741516N01222766EA0187001872116000
B0852274741533N01222850EA0187501880117000
K085227000039
B0852314741533N01222937EA0188301888117000
B0852354741525N01223025EA0188401888119000
B0852394741508N01223112EA0188801888119000
B0852434741483N01223195EA0189401896118000
B0852474741458N01223275EA0189901904115000
K085247000039
B0852514741425N01223354EA0190301904116000
B0852554741391N01223429EA0190701912115000
B0852594741358N01223500EA0191201912115000
B0853034741320N01223570EA0191401920115000
B0853074741279N01223641EA0192001920115000
K085307000035
B0853114741237N01223708EA0192301928114000
B0853154741195N01223770EA0192801928115000
B0853194741150N01223837EA0193201936115000
B0853234741108N01223900EA0193401944115000
B0853274741062N01223958EA0194201944115000
K085327000035
B0853314741012N01224012EA0194501952114000
B0853354740962N01224058EA0194501952117000
B0853394740908N01224095EA0194701952118000
B0853434740845N01224120EA0195501960118000
B0853474740787N01224129EA0195501960118000
K085347000036
B0853514740720N01224120EA0195701960117000
B0853554740662N01224091EA0196301968118000
B0853594740608N01224041EA0196701976117000
B0854034740562N01223970EA0196801976116000
B0854074740525N01223895EA0197401976117000
K085407000035
B0854114740500N01223808EA0197901984117000
B0854154740483N01223716EA0198401992116000
B0854194740479N01223625EA0198801992117000
B0854234740479N01223529EA0199101992119000
B0854274740491N01223437EA0199302000119000
K085427000035
B0854314740504N01223345EA0199902000120000
B0854354740520N01223254EA0200102008120000
B0854394740541N01223166EA0200802008121000
B0854434740562N01223079EA0200902016120000
B0854474740587N01222991EA0201402016120000
K085447000037
B0854514740608N01222904EA0201802024121000
B0854554740633N01222820EA0202302024121000
B0854594740658N01222733EA0202502032121000
B0855034740683N01222645EA0203102040121000
B0855074740708N01222562EA0203502040121000
K085507000038
B0855114740733N01222475EA0203902040121000
B0855154740754N01222391EA0204302048121000
B0855194740779N01222304EA0205202056120000
B0855234740804N01222220EA0205502064121000
B0855274740829N01222133EA0206002064122000
K085527000040
B0855314740854N01222050EA0206502072122000
B0855354740879N01221962EA0207202072121000
B0855394740904N01221883EA0207502080119000
B0855434740933N01221800EA0208202088121000
B0855474740958N01221716EA0208502088120000
K085547000040
B0855514740983N01221633EA0209002096118000
B0855554741004N01221554EA0209702104116000
B0855594741029N01221470EA0210102104117000
B0856034741054N01221387EA0210502112117000
B0856074741079N01221304EA0211002112116000
K085607000039
B0856114741104N01221225EA0211102120116000
B0856154741133N01221145EA0211502120118000
B0856194741162N01221070EA0212002120117000
B0856234741191N01220987EA0212202128118000
B0856274741216N01220908EA0212802136118000
K085627000040
B0856314741245N01220829EA0213202136118000
B0856354741270N01220750EA0213602144118000
B0856394741300N01220670EA0214202144118000
B0856434741329N01220595EA0214602152118000
B0856474741358N01220516EA0215102152118000
K085647000041
B0856514741387N01220437EA0215602160117000
B0856554741420N01220362EA0216102160120000
B0856594741454N01220287EA0216302168118000
B0857034741491N01220220EA0216802168113000
B0857074741541N01220166EA0217202176116000
K085707000039
B0857114741595N01220145EA0217602176121000
B0857154741658N01220166EA0217802184107000
B0857194741695N01220237EA0218302192108000
B0857234741704N01220333EA0218302192120000
B0857274741691N01220429EA0219002192125000
K085727000039
B0857314741675N01220520EA0219702200119000
B0857354741658N01220616EA0220002208117000
B0857394741641N01220708EA0220502208115000
B0857434741620N01220800EA0221002216114000
B0857474741595N01220891EA0221302216092000
K085747000025
B0857514741570N01220975EA0221302216070016
B0857554741545N01221062EA0220702208070008
B0857594741525N01221150EA0220202208072048
B0858034741504N01221241EA0219902200071032
B0858074741487N01221333EA0218102192085008
K085807180011
B0858114741466N01221441EA0217702176083028
B0858154741454N01221533EA0219002192071008
B0858194741441N01221616EA0218702192078008
B0858234741429N01221708EA0217702184091008
B0858274741420N01221804EA0217502176091008
K085827180005
B0858314741408N01221895EA0217502184086008
B0858354741395N01221987EA0217602176086008
B0858394741387N01222079EA0217102176089008
B0858434741379N01222170EA0216702168089008
B0858474741375N01222266EA0216702168087008
K085847180001
B0858514741383N01222354EA0216702168087008
B0858554741400N01222441EA0216502168088024
B0858594741416N01222533EA0216202160087016
B0859034741429N01222620EA0216002160088016
B0859074741445N01222712EA0215402152089020
K085907000002
B0859114741462N01222800EA0214702152089020
B0859154741483N01222887EA0214602144087016
B0859194741508N01222966EA0214202144088024
B0859234741533N01223050EA0213702136088024
B0859274741562N01223129EA0213502136087020
K085927000004
B0859314741587N01223208EA0213202136086024
B0859354741616N01223283EA0212602128086004
B0859394741650N01223358EA0212002128086012
B0859434741679N01223433EA0211902128085028
B0859474741704N01223512EA0211902120087016
K085947000003
B0859514741720N01223600EA0211202112089016
B0859554741729N01223691EA0211202112088024
B0859594741733N01223779EA0211002112086004
B0900034741737N01223866EA0210302104087008
B0900074741750N01223954EA0210102104087008
K090007000003
B0900114741762N01224041EA0209802104087008
B0900154741783N01224125EA0209502096087008
B0900194741808N01224204EA0209102096088008
B0900234741837N01224279EA0209002088086008
B0900274741875N01224345EA0208702088087008
K090027000005
B0900314741916N01224404EA0208402088088024
B0900354741966N01224454EA0208102080088016
B0900394742020N01224491EA0207602072091000
B0900434742075N01224520EA0207202072089012
B0900464742120N01224529EA0207102072088024
B0900474742133N01224533EA0206902072088012
B0900484742145N01224533EA0206902064089016
K090048000007
B0900494742162N01224529EA0206702064089020
B0900504742175N01224525EA0206602064090016
B0900514742191N01224516EA0206402064090016
B0900524742204N01224504EA0206002064092020
B0900534742216N01224495EA0205902064093016
B0900544742229N01224479EA0205902056093020
B0900554742241N01224462EA0205902056093020
B0900564742250N01224441EA0205802056093020
B0900574742258N01224420EA0205802056093020
B0900594742266N01224379EA0205602056091020
B0901034742266N01224291EA0205602056086020
B0901074742245N01224208EA0205402056088004
K090107000007
B0901114742208N01224133EA0205202056088012
B0901154742158N01224075EA0205202056086008
B0901194742108N01224029EA0204902048086008
B0901234742050N01223991EA0204702048088008
B0901274741995N01223958EA0204302048087008
K090127000007
B0901314741937N01223920EA0204202048087008
B0901354741883N01223875EA0203402040091008
B0901394741829N01223820EA0203002032094008
B0901434741775N01223766EA0202902032093008
B0901474741720N01223712EA0202902032092008
K090147000002
B0901514741670N01223654EA0202502032093008
B0901554741616N01223595EA0202202024094008
B0901594741562N01223541EA0202002024093008
B0902034741508N01223487EA0201602024093008
B0902074741450N01223441EA0201302016093008
K090207000003
B0902114741391N01223395EA0201202016093008
B0902154741333N01223358EA0200802008093008
B0902194741275N01223316EA0200302008092008
B0902234741216N01223279EA0200202008092008
B0902274741158N01223241EA0199302000092008
K090227000003
B0902314741100N01223200EA0199102000094008
B0902354741045N01223158EA0198701992094008
B0902394740987N01223120EA0198701992093008
B0902434740929N01223083EA0198701992092008
B0902474740870N01223045EA0198301984093008
K090247000004
B0902514740808N01223012EA0197901984093008
B0902554740750N01222983EA0197901984092008
B0902594740691N01222954EA0197401976092008
B0903034740629N01222929EA0197201976093008
B0903074740566N01222904EA0196701968092008
K090307000003
B0903114740504N01222883EA0196701968092008
B0903154740441N01222862EA0196301968092008
B0903194740379N01222841EA0196101968092008
B0903234740316N01222816EA0195901960092008
B0903274740258N01222791EA0195701960092008
K090327000003
B0903314740195N01222766EA0195401960092012
B0903354740133N01222737EA0195301952092008
B0903394740070N01222708EA0195101952092008
B0903434740012N01222679EA0195101952092008
B0903474739950N01222645EA0194601952092008
K090347000002
B0903514739887N01222616EA0194301944092008
B0903554739825N01222587EA0194101944092008
B0903594739762N01222558EA0193901944092008
B0904034739700N01222533EA0193701944092008
B0904074739641N01222504EA0193401936093008
K090407000001
B0904114739575N01222479EA0193301936093012
B0904154739512N01222450EA0192701928096008
B0904194739445N01222433EA0192601928095008
B0904234739379N01222416EA0192301928095008
B0904274739312N01222408EA0191901920096024
K090427000002
B0904314739245N01222404EA0191601920096016
B0904354739179N01222400EA0191601920095000
B0904394739112N01222395EA0191301912096012
B0904434739045N01222387EA0191101912096012
B0904474738975N01222383EA0190801912096008
K090447000001
B0904514738908N01222379EA0190701912095024
B0904554738841N01222375EA0190701912096016
B0904594738770N01222375EA0190101904100000
B0905034738700N01222366EA0189901904102012
B0905074738629N01222358EA0189901904100008
K090507000002
B0905114738562N01222354EA0189901904099004
B0905154738491N01222354EA0189801904099012
B0905194738420N01222345EA0189601896100008
B0905234738354N01222329EA0189101896100008
B0905274738287N01222308EA0189101896099008
K090527000003
B0905314738220N01222287EA0188701888100008
B0905354738154N01222262EA0188701888099008
B0905394738091N01222237EA0188701888097008
B0905434738025N01222208EA0188301888098008
B0905474737962N01222183EA0187901880099012
K090547000004
B0905514737900N01222145EA0187601880098008
B0905554737837N01222108EA0187201872098008
B0905594737775N01222066EA0186601872098008
B0906034737716N01222020EA0186201864101008
B0906074737650N01221983EA0185701864102008
K090607000004
B0906114737579N01221945EA0185601856103008
B0906154737512N01221916EA0185101856104008
B0906194737441N01221879EA0184401848108008
B0906234737370N01221837EA0184201848108008
B0906274737300N01221795EA0183801840108008
K090627000002
B0906314737233N01221750EA0183701840107008
B0906354737166N01221704EA0183301840107024
B0906394737095N01221662EA0182801832109016
B0906434737025N01221625EA0182601832110004
B0906474736958N01221575EA0182401832110016
K090647000003
B0906514736895N01221512EA0182301832105008
B0906554736845N01221441EA0181801824104008
B0906594736791N01221366EA0181101816106008
B0907034736729N01221304EA0180901816107008
B0907074736658N01221266EA0180401808106008
K090707000003
B0907114736583N01221245EA0179701800110008
B0907154736504N01221241EA0179201800112008
B0907194736429N01221250EA0179001792113008
B0907234736350N01221266EA0178801792115008
B0907274736279N01221283EA0178901792106008
K090727000003
B0907314736204N01221304EA0178201784109008
B0907354736129N01221333EA0177801784112008
B0907394736054N01221354EA0177801784110012
B0907434735979N01221366EA0177901784105008
B0907474735904N01221362EA0177801784109012
K090747000001
B0907514735829N01221345EA0177501776107012
B0907554735754N01221325EA0177001776108012
B0907594735675N01221304EA0176701776107012
B0908034735595N01221295EA0176401768109008
B0908074735512N01221295EA0176201768113008
K090807180003
B0908114735433N01221308EA0175901760113008
B0908154735354N01221333EA0175701760116008
B0908194735283N01221366EA0176601768103012
B0908234735220N01221400EA0176801776099008
B0908274735158N01221437EA0176801776099012
K090827000002
B0908314735095N01221470EA0176501768101012
B0908354735033N01221508EA0176201768101008
B0908394734966N01221550EA0175701760106008
B0908434734900N01221591EA0175501760105008
B0908474734837N01221625EA0175501760103008
K090847000004
B0908514734770N01221662EA0175001752104012
B0908554734700N01221704EA0173901744109008
B0908594734629N01221745EA0173501736109008
B0909034734558N01221779EA0172401728109008
B0909074734483N01221820EA0171001712121008
K090907000005
B0909114734408N01221883EA0170001704125008
B0909154734337N01221966EA0169401696125012
B0909194734270N01222050EA0168901688125008
B0909234734195N01222125EA0168101688126012
B0909274734125N01222204EA0167001672130012
K090927180000
B0909314734045N01222275EA0167001672129012
B0909354733962N01222329EA0167001672127012
B0909394733875N01222366EA0167001672124004
B0909434733791N01222383EA0167301680118008
B0909474733708N01222379EA0167101680115000
K090947180003
B0909514733629N01222366EA0166701672116000
B0909554733545N01222341EA0166101664115004
B0909594733466N01222308EA0165601656115000
B0910034733387N01222283EA0165301656113028
B0910074733300N01222295EA0163701640119016
K091007180004
B0910114733212N01222333EA0163301632120016
B0910154733125N01222395EA0162801632128024
B0910194733045N01222470EA0162801624127008
B0910234732962N01222470EA0163701640113012
B0910274732916N01222375EA0161601624127028
K091027180004
B0910314732912N01222250EA0161501616125016
B0910354732929N01222133EA0161501616117016
B0910394732941N01222020EA0161501616114024
B0910434732945N01221912EA0161001608111000
B0910474732950N01221800EA0160901608109008
K091047180004
B0910514732945N01221691EA0159701600109012
B0910554732937N01221579EA0158401584113008
B0910594732925N01221462EA0157801576119012
B0911034732912N01221341EA0157701576121012
B0911074732904N01221220EA0157701576119012
K091107000002
B0911114732904N01221100EA0157901576115012
B0911154732908N01220983EA0158001584113020
B0911194732900N01220870EA0158201584112016
B0911234732879N01220758EA0158201584113016
B0911274732850N01220654EA0158301584106016
K091127000001
B0911314732820N01220558EA0158501584102000
B0911354732783N01220475EA0158801592100008
B0911394732741N01220391EA0158601584109012
B0911434732704N01220304EA0158801592104008
B0911474732695N01220200EA0159401592100008
K091147000001
B0911514732712N01220104EA0159701600098008
B0911554732745N01220016EA0159701600091008
B0911594732795N01219950EA0158801592097008
B0912034732858N01219895EA0158201584100008
B0912074732925N01219845EA0157901576102008
K091207000001
B0912114732991N01219787EA0159201584101008
B0912154733054N01219741EA0159701600099008
B0912194733116N01219704EA0160001600090008
B0912234733170N01219654EA0159801600093008
B0912274733212N01219566EA0159101592105008
K091227000001
B0912314733225N01219470EA0159301592104008
B0912354733187N01219395EA0159401592103008
B0912394733125N01219404EA0158101584109008
B0912434733070N01219475EA0157401576109012
B0912474733020N01219554EA0157801576103008
K091247000001
B0912514732970N01219629EA0157101576105008
B0912554732920N01219704EA0156601568110008
B0912594732870N01219783EA0157801576108012
B0913034732825N01219862EA0159401592104008
B0913074732787N01219941EA0160301608105012
K091307000001
B0913114732745N01220020EA0160601608102012
B0913154732691N01220054EA0160201600101012
B0913194732637N01220000EA0160301608103012
B0913234732637N01219895EA0160201600104012
B0913274732691N01219816EA0160501608106012
K091327000008
B0913314732766N01219787EA0161901616103012
B0913354732837N01219791EA0163601632096012
B0913394732908N01219795EA0164601640099012
B0913434732966N01219750EA0165601656091012
B0913474732966N01219654EA0164301648109012
K091347000008
B0913514732900N01219612EA0163901640119012
B0913554732845N01219670EA0165301656109028
B0913594732820N01219766EA0165301656105020
B0914034732804N01219875EA0165501656109000
B0914074732787N01219983EA0166301664109016
K091407000008
B0914114732758N01220079EA0167501672105012
B0914154732695N01220100EA0167901680100008
B0914194732654N01220020EA0167601680106012
B0914234732675N01219925EA0168201680104012
B0914274732745N01219879EA0167901680112012
K091427000008
B0914314732825N01219862EA0169201696111012
B0914354732895N01219841EA0170901712094028
B0914394732937N01219766EA0171001712095020
B0914434732925N01219675EA0170501712103000
B0914474732862N01219650EA0168201680113016
K091447000008
B0914514732812N01219729EA0167901680118028
B0914554732804N01219837EA0169001688113016
B0914594732804N01219937EA0170401704102004
B0915034732800N01220041EA0170601712107016
B0915074732787N01220150EA0170701712114028
K091507000008
B0915114732766N01220258EA0170401704116016
B0915154732720N01220333EA0170201704108020
B0915194732654N01220304EA0168701696110024
B0915234732633N01220195EA0167401672120016
B0915274732679N01220095EA0167501672121016
K091527000008
B0915314732741N01220041EA0169201688106016
B0915354732804N01220000EA0170001704093016
B0915394732870N01219954EA0169601696100000
B0915434732937N01219908EA0170601704101008
B0915474733000N01219870EA0172201720091008
K091547000008
B0915514733058N01219833EA0172301728096004
B0915554733120N01219787EA0172301720104008
B0915594733179N01219725EA0172301728100008
B0916034733220N01219645EA0172501728101008
B0916074733220N01219550EA0172101720099008
K091607000002
B0916114733170N01219487EA0170201704112024
B0916154733104N01219504EA0169901696113016
B0916194733050N01219566EA0169601696111000
B0916234733004N01219650EA0169101688109012
B0916274732958N01219737EA0168301680112012
K091627000002
B0916314732916N01219829EA0168201680110008
B0916354732870N01219925EA0168201680112028
B0916394732829N01220020EA0169501696112020
B0916434732787N01220112EA0170601712113000
B0916474732725N01220154EA0172001720107016
K091647000002
B0916514732662N01220104EA0169901704119012
B0916554732620N01219987EA0169601696132008
B0916594732620N01219866EA0172001712115028
B0917034732683N01219808EA0172301720107020
B0917074732750N01219858EA0172001720110016
K091707000002
B0917114732783N01219954EA0173301736106024
B0917154732779N01220062EA0173801744111000
B0917194732737N01220145EA0174401744114008
B0917234732666N01220166EA0175101752104028
B0917274732600N01220120EA0175901760108016
K091727142004
B0917314732579N01220016EA0174501752116016
B0917354732637N01219933EA0173601736121024
B0917394732720N01219945EA0175101744114016
B0917434732775N01220020EA0176101768105016
B0917474732779N01220129EA0175801760118016
K091747194003
B0917514732733N01220216EA0175901760112016
B0917554732658N01220245EA0176101768110000
B0917594732591N01220216EA0176501768106008
B0918034732550N01220133EA0176501768106012
B0918074732562N01220029EA0175701760113008
K091807180002
B0918114732625N01219962EA0174501752113028
B0918154732704N01219983EA0173701736116020
B0918194732770N01220066EA0174101744122016
B0918234732825N01220158EA0175301752119024
B0918274732875N01220254EA0175801760113016
K091827242000
B0918314732916N01220362EA0175501752127016
B0918354732954N01220466EA0176401768112016
B0918394732991N01220562EA0177001776107016
B0918434733020N01220658EA0176401768105000
B0918474733045N01220762EA0176001760106008
K091847000001
B0918514733054N01220870EA0176001760104012
B0918554733066N01220975EA0176101768101008
B0918594733079N01221079EA0175901760110008
B0919034733091N01221191EA0175901760113008
B0919074733095N01221304EA0176101768111012
K091907000005
B0919114733087N01221404EA0177401776095008
B0919154733062N01221495EA0177201776096012
B0919194733000N01221541EA0176401768103012
B0919234732929N01221508EA0176401768107012
B0919274732895N01221412EA0176401768110012
K091927000002
B0919314732908N01221308EA0175501760109012
B0919354732929N01221208EA0175001752109012
B0919394732966N01221112EA0174801752108012
B0919434733000N01221016EA0175801760107012
B0919474733016N01220912EA0176601768103012
K091947000002
B0919514733025N01220812EA0176701768106012
B0919554733020N01220708EA0176301768107012
B0919594733004N01220608EA0175801760107012
B0920034732987N01220504EA0175301760107012
B0920074732966N01220400EA0175301752108012
K092007000006
B0920114732941N01220300EA0175401760107008
B0920154732904N01220208EA0174801752108008
B0920194732862N01220116EA0175601760114028
B0920234732854N01220008EA0177501776108016
B0920274732850N01219904EA0177901784111016
K092027000006
B0920314732800N01219841EA0178601792111024
B0920354732737N01219866EA0179201800102000
B0920394732712N01219950EA0178801792105008
B0920434732754N01220041EA0178501792113012
B0920474732829N01220062EA0179201800112008
K092047000006
B0920514732908N01220045EA0181301808112028
B0920554732970N01219995EA0182901832103020
B0920594733000N01219904EA0183101840102000
B0921034732975N01219808EA0182601832107016
B0921074732925N01219741EA0182601824107012
K092107144007
B0921114732858N01219754EA0181701824108008
B0921154732800N01219820EA0181701824108012
B0921194732750N01219883EA0183301832103012
B0921234732700N01219937EA0184301848090012
B0921274732670N01220016EA0182601832102012
K092127000006
B0921314732695N01220120EA0181701816120024
B0921354732766N01220154EA0181801824114016
B0921394732841N01220120EA0181901824108016
B0921434732912N01220070EA0183201832114020
B0921474732979N01220025EA0184801848106000
K092147000006
B0921514733045N01219987EA0185301856102008
B0921554733112N01219937EA0185301856103012
B0921594733170N01219883EA0186301872096008
B0922034733229N01219829EA0185801864095012
B0922074733279N01219758EA0184601856100012
K092207180000
B0922114733329N01219675EA0183901840105012
B0922154733375N01219587EA0183801840103012
B0922194733412N01219495EA0183601840102008
B0922234733429N01219391EA0182801832105008
B0922274733429N01219283EA0182401832105012
K092227180001
B0922314733412N01219179EA0182401832104008
B0922354733379N01219083EA0182201824105012
B0922394733345N01218991EA0181701824106012
B0922434733300N01218904EA0181101816110012
B0922474733266N01218800EA0180901816113012
K092247180001
B0922514733254N01218687EA0181901824111028
B0922554733245N01218570EA0183701840109020
B0922594733237N01218466EA0184301848102000
B0923034733208N01218370EA0183701840107016
B0923074733158N01218295EA0182901832107012
K092307180001
B0923114733100N01218233EA0182201824112008
B0923154733041N01218170EA0181801824107008
B0923194732991N01218087EA0181301816107008
B0923234732945N01218004EA0181301816110024
B0923274732895N01217925EA0183201832112016
K092327000008
B0923314732850N01217850EA0184001848100020
B0923354732812N01217766EA0182901832106024
B0923394732795N01217670EA0182901832106004
B0923434732795N01217570EA0183501840094012
B0923474732800N01217470EA0183401840098012
K092347000009
B0923514732812N01217366EA0184201848109008
B0923554732829N01217266EA0185501856105008
B0923594732850N01217175EA0186001864103008
B0924034732879N01217087EA0186501872101012
B0924074732916N01217004EA0186701872102008
K092407000010
B0924114732966N01216937EA0186901872098012
B0924154733025N01216875EA0186601872104012
B0924194733083N01216829EA0187001872096012
B0924234733145N01216795EA0187001872091012
B0924274733204N01216766EA0186801872095008
K092427000004
B0924314733262N01216725EA0186401864096008
B0924354733312N01216666EA0186301864096008
B0924394733354N01216595EA0185601856098008
B0924434733391N01216512EA0184901848100008
B0924474733416N01216420EA0184201840100008
K092447000008
B0924514733437N01216325EA0183801840102008
B0924554733441N01216220EA0183801840104008
B0924594733429N01216116EA0183901840106008
B0925034733416N01216012EA0185201848106008
B0925074733408N01215916EA0185801864099012
K092507000007
B0925114733416N01215825EA0185801864095008
B0925154733416N01215729EA0185601856095012
B0925194733408N01215629EA0183901840106012
B0925234733395N01215525EA0183401832108008
B0925274733383N01215425EA0183301832104008
K092527000008
B0925314733362N01215325EA0183301832105012
B0925354733337N01215220EA0184001840111008
B0925394733316N01215125EA0184701848102012
B0925434733295N01215033EA0184701848104012
B0925474733270N01214941EA0185001856101012
K092547000008
B0925514733254N01214845EA0185901864100012
B0925554733229N01214750EA0186401864100008
B0925594733216N01214654EA0187501880099008
B0926034733212N01214558EA0187401880101012
B0926074733216N01214462EA0187201872098008
K092607000009
B0926114733225N01214370EA0187301880101012
B0926154733237N01214279EA0188001880097012
B0926194733254N01214191EA0188001880095008
B0926234733266N01214091EA0187801880102008
B0926274733275N01213987EA0188201888105008
K092627000009
B0926314733279N01213883EA0188401888098008
B0926354733287N01213787EA0188701888097012
B0926394733304N01213687EA0188401888105008
B0926434733345N01213604EA0189001896100008
B0926474733379N01213516EA0190201904101008
K092647000006
B0926514733404N01213425EA0190301904095008
B0926554733400N01213325EA0190201904098008
B0926594733354N01213254EA0187401880107024
B0927034733283N01213291EA0185901864122016
B0927074733254N01213404EA0186301864118016
K092707000006
B0927114733250N01213520EA0187701880114020
B0927154733250N01213637EA0188001880109020
B0927194733258N01213750EA0187801880111016
B0927234733262N01213866EA0187801880112004
B0927274733262N01213979EA0187801880107012
K092727000006
B0927314733250N01214087EA0187101872108012
B0927354733237N01214200EA0187001872113008
B0927394733225N01214312EA0188801888110012
B0927434733216N01214416EA0189001896101012
B0927474733216N01214525EA0188401888105012
K092747000002
B0927514733220N01214637EA0188401888104012
B0927554733237N01214741EA0188701888099008
B0927594733266N01214850EA0188401888109008
B0928034733291N01214958EA0189201896106012
B0928074733320N01215054EA0189501896098008
K092807180002
B0928114733350N01215158EA0189401896111012
B0928154733383N01215258EA0190301912109012
B0928194733416N01215350EA0191301920098012
B0928234733445N01215441EA0190801912102012
B0928274733475N01215537EA0190301904101012
K092827000002
B0928314733487N01215645EA0189601896106012
B0928354733466N01215745EA0189401896105008
B0928394733429N01215833EA0189301896103008
B0928434733362N01215866EA0188601888104012
B0928474733308N01215812EA0187801880111008
K092847000002
B0928514733295N01215704EA0187101872110012
B0928554733312N01215595EA0187101872111012
B0928594733341N01215491EA0187401880109012
B0929034733354N01215391EA0187701880103012
B0929074733358N01215291EA0187301880105012
K092907000002
B0929114733345N01215187EA0186201864108012
B0929154733316N01215087EA0186201864115012
B0929194733295N01214987EA0187301872107012
B0929234733275N01214887EA0187201872101012
B0929274733254N01214787EA0186801872101012
K092927000005
B0929314733233N01214691EA0187501872103012
B0929354733220N01214595EA0187901880097012
B0929394733216N01214495EA0187801880102012
B0929434733225N01214404EA0188701888096012
B0929474733237N01214312EA0188901896096008
K092947000007
B0929514733262N01214220EA0189301896099008
B0929554733275N01214129EA0189401896104008
B0929594733279N01214033EA0189801904098008
B0930034733283N01213933EA0189801896102008
B0930074733279N01213829EA0189701896099008
K093007000007
B0930114733270N01213733EA0189501896100012
B0930154733212N01213683EA0189301896099008
B0930194733154N01213737EA0187301872113028
B0930234733137N01213850EA0187301872115020
B0930274733145N01213962EA0187301872110024
K093027000006
B0930314733158N01214066EA0187201872107024
B0930354733175N01214170EA0186701864108020
B0930394733187N01214279EA0186401872108024
B0930434733195N01214387EA0186401872103016
B0930474733208N01214495EA0186401864106016
K093047000006
B0930514733225N01214608EA0186301864108000
B0930554733237N01214725EA0185901864110008
B0930594733258N01214833EA0186801872102012
B0931034733287N01214933EA0186801872106008
B0931074733316N01215033EA0187501880104012
K093107180001
B0931114733345N01215137EA0186801872113012
B0931154733379N01215241EA0186801872111028
B0931194733412N01215345EA0187701880108020
B0931234733437N01215450EA0188801888105000
B0931274733458N01215558EA0188701888109016
K093127000001
B0931314733470N01215666EA0188701888107012
B0931354733475N01215775EA0188301888107008
B0931394733470N01215883EA0188201888106012
B0931434733454N01215991EA0187401880105012
B0931474733420N01216095EA0186101864117008
K093147000003
B0931514733379N01216204EA0185901864114008
B0931554733337N01216304EA0187001872111028
B0931594733291N01216395EA0187401880108016
B0932034733241N01216479EA0187501880107000
B0932074733195N01216562EA0187701880103016
K093207180000
B0932114733141N01216641EA0187201872108012
B0932154733091N01216720EA0187201872105008
B0932194733037N01216791EA0186801872108008
B0932234732987N01216866EA0186601864110008
B0932274732933N01216941EA0186301864107008
K093227000005
B0932314732883N01217020EA0186401864106008
B0932354732850N01217120EA0185901864108012
B0932394732833N01217225EA0185401856104008
B0932434732820N01217337EA0184801848109012
B0932474732812N01217454EA0185001856117012
K093247000004
B0932514732812N01217570EA0186301872106028
B0932554732825N01217683EA0187201872112020
B0932594732858N01217779EA0187901880104000
B0933034732908N01217854EA0188701888104016
B0933074732975N01217912EA0188701888107012
K093307000002
B0933114733041N01217962EA0189201896102008
B0933154733070N01218050EA0189501896098012
B0933194733037N01218137EA0188101888105012
B0933234732970N01218145EA0187301872110012
B0933274732920N01218070EA0186901872112012
K093327000002
B0933314732887N01217966EA0187701880114008
B0933354732866N01217858EA0189501896105008
B0933394732841N01217754EA0189801904103004
B0933434732795N01217683EA0190501912099008
B0933474732733N01217700EA0189701904100012
K093347000002
B0933514732712N01217800EA0187601880119008
B0933554732758N01217895EA0187601880119012
B0933594732825N01217925EA0188001888104012
B0934034732904N01217920EA0187801880111012
B0934074732979N01217908EA0190401904103012
K093407000002
B0934114733041N01217945EA0190801912095012
B0934154733054N01218037EA0189101896103012
B0934194733025N01218133EA0188601888110012
B0934234732995N01218229EA0187801880106012
B0934274732962N01218320EA0187301872100012
K093427000002
B0934314732916N01218400EA0186401864102012
B0934354732870N01218479EA0185601856111008
B0934394732816N01218558EA0184901848112008
B0934434732766N01218637EA0184301848112012
B0934474732716N01218720EA0183901840111008
K093447000008
B0934514732658N01218787EA0183901840101012
B0934554732591N01218820EA0183901840108012
B0934594732529N01218866EA0184701848106012
B0935034732462N01218887EA0186201864092012
B0935074732404N01218850EA0185101856092012
K093507000006
B0935114732379N01218758EA0183301840104012
B0935154732400N01218662EA0183301840098008
B0935194732462N01218629EA0182401832096008
B0935234732525N01218683EA0179701800112012
B0935274732570N01218783EA0179501800117008
K093527000006
B0935314732600N01218895EA0181301816111024
B0935354732629N01218995EA0182001824100016
B0935394732650N01219091EA0181701816100000
B0935434732666N01219191EA0180401808100012
B0935474732687N01219291EA0180301808104012
K093547000006
B0935514732708N01219387EA0180401808103008
B0935554732725N01219483EA0180401808100012
B0935594732754N01219575EA0178801800104012
B0936034732787N01219670EA0177001776110008
B0936074732820N01219779EA0176301768120008
K093607000008
B0936114732841N01219895EA0176501768118012
B0936154732845N01220008EA0178801792114008
B0936194732833N01220116EA0179501800110028
B0936234732770N01220170EA0179301800114020
B0936274732704N01220133EA0179001792113016
K093627000005
B0936314732679N01220029EA0177501776116024
B0936354732733N01219945EA0176901768123016
B0936394732812N01219950EA0178401784112016
B0936434732875N01220008EA0179101792104016
B0936474732912N01220104EA0179501800108016
K093647000005
B0936514732933N01220212EA0179501800114016
B0936554732920N01220312EA0181101808106016
B0936594732870N01220375EA0181101816103000
B0937034732804N01220387EA0180401808110008
B0937074732745N01220345EA0179901800099012
K093707216006
B0937114732720N01220245EA0178301792109008
B0937154732754N01220150EA0177901784108012
B0937194732825N01220120EA0177401776106012
B0937234732895N01220162EA0177301776116012
B0937274732950N01220241EA0177801784110012
K093727178003
B0937314732991N01220325EA0177901784102012
B0937354733025N01220412EA0177501776101012
B0937394733029N01220512EA0176501768104012
B0937434732970N01220579EA0175301752120012
B0937474732908N01220533EA0176901768111024
K093747172007
B0937514732875N01220441EA0178601784101016
B0937554732866N01220337EA0178801792106004
B0937594732866N01220229EA0178701792110016
B0938034732879N01220125EA0180001800109028
B0938074732920N01220041EA0181801816099016
K093807160007
B0938114732975N01219979EA0182301824096016
B0938154733012N01219895EA0182501832096024
B0938194733000N01219804EA0182701832100000
B0938234732937N01219762EA0182301824113008
B0938274732879N01219804EA0181701824106028
K093827000005
B0938314732862N01219912EA0180401808114016
B0938354732879N01220025EA0180801808113000
B0938394732900N01220133EA0182901824105016
B0938434732883N01220229EA0184501848096012
B0938474732837N01220304EA0183901848101008
K093847000005
B0938514732766N01220320EA0182801832107012
B0938554732720N01220254EA0182201824105012
B0938594732737N01220154EA0180401808114028
B0939034732808N01220095EA0180101808120020
B0939074732887N01220070EA0181601816110016
K093907000005
B0939114732962N01220037EA0183301840105024
B0939154733029N01219995EA0183901840099000
B0939194733087N01219929EA0185301848104008
B0939234733116N01219841EA0186901872095012
B0939274733095N01219754EA0185701864100008
K093927000005
B0939314733033N01219716EA0184901848113012
B0939354732975N01219770EA0184801848113012
B0939394732958N01219875EA0184401848112028
B0939434732966N01219991EA0184401848111020
B0939474732966N01220100EA0185701856109000
K093947000005
B0939514732925N01220183EA0186901872096016
B0939554732862N01220208EA0186401864103012
B0939594732812N01220158EA0186301864101008
B0940034732808N01220062EA0185901864102012
B0940074732858N01219991EA0184701848113012
K094007000005
B0940114732937N01219975EA0184601848107028
B0940154733008N01219966EA0184601848095020
B0940194733075N01219933EA0183701840101000
B0940234733141N01219875EA0184001840103016
B0940274733195N01219808EA0184301848105012
K094027000005
B0940314733254N01219737EA0184701848103008
B0940354733308N01219666EA0184901848100012
B0940394733354N01219587EA0185301856097012
B0940434733387N01219495EA0185101848099012
B0940474733400N01219391EA0184701848104012
K094047180000
B0940514733395N01219283EA0184701848108008
B0940554733370N01219187EA0184401848105008
B0940594733329N01219104EA0183601840101028
B0941034733262N01219045EA0182201824125016
B0941074733191N01219008EA0184401840111020
K094107180000
B0941114733125N01219000EA0185701856099024
B0941154733062N01219029EA0184401848112000
B0941194732987N01219054EA0184901848109008
B0941234732920N01219050EA0185701856097028
B0941274732858N01219054EA0185701856096016
K094127180000
B0941314732795N01219041EA0184201848098000
B0941354732750N01218966EA0182201832107016
B0941394732779N01218866EA0180101808119008
B0941434732862N01218825EA0180301800124004
B0941474732937N01218812EA0182201824104012
K094147180000
B0941514733008N01218812EA0182901832096008
B0941554733079N01218833EA0182601824097012
B0941594733145N01218870EA0182201824101012
B0942034733212N01218916EA0183301832100008
B0942074733275N01218966EA0184201840101008
K094207180000
B0942114733333N01219033EA0184301848106012
B0942154733370N01219120EA0184701848104008
B0942194733387N01219220EA0185001856099012
B0942234733383N01219320EA0184701848105012
B0942274733366N01219412EA0184601848104012
K094227180000
B0942314733337N01219500EA0184701848101012
B0942354733300N01219583EA0184701848104008
B0942394733262N01219658EA0184601848102008
B0942434733220N01219741EA0184101848106012
B0942474733170N01219816EA0183401840113008
K094247180000
B0942514733116N01219891EA0183901840106028
B0942554733066N01219962EA0184301848107020
B0942594733008N01220033EA0185501856106016
B0943034732958N01220104EA0186501864101024
B0943074732895N01220162EA0187901880108000
K094307000005
B0943114732833N01220154EA0187901880108008
B0943154732829N01220041EA0185201856126028
B0943194732916N01220033EA0182801832137016
B0943234732937N01220154EA0185201848115020
B0943274732891N01220245EA0186601864119024
K094327000005
B0943314732825N01220283EA0187201872111028
B0943354732762N01220241EA0187901880106024
B0943394732754N01220141EA0188301888110012
B0943434732816N01220091EA0188301888102020
B0943474732875N01220141EA0188101880105028
K094347220004
B0943514732866N01220237EA0186901872109020
B0943554732800N01220245EA0187301880104020
B0943594732762N01220170EA0188001880102024
B0944034732770N01220075EA0188001880099016
B0944074732825N01220020EA0186801872099016
K094407142009
B0944114732900N01220025EA0185901864106016
B0944154732958N01220087EA0186801872095016
B0944194732979N01220187EA0186901872110016
B0944234732945N01220283EA0186901872111016
B0944274732883N01220316EA0187801880104016
K094427188007
B0944314732825N01220270EA0187301872109016
B0944354732812N01220166EA0187201872114000
B0944394732866N01220095EA0186901872111008
B0944434732945N01220116EA0186901872107012
B0944474732995N01220212EA0187201872122008
K094447208005
B0944514732975N01220329EA0187801880123028
B0944554732908N01220375EA0188001880119020
B0944594732841N01220325EA0188901888112020
B0945034732829N01220220EA0189201896115024
B0945074732895N01220150EA0188401888122016
K094507218005
B0945114732975N01220191EA0189301896123016
B0945154733008N01220304EA0190501912120016
B0945194732983N01220408EA0191401920114016
B0945234732916N01220433EA0191301912113024
B0945274732858N01220354EA0190601912120020
K094527232007
B0945314732879N01220245EA0191301912121016
B0945354732958N01220225EA0192201928109020
B0945394733016N01220300EA0192101928111020
B0945434733012N01220416EA0191201912121016
B0945474732937N01220454EA0191501912125016
K094547188009
B0945514732866N01220425EA0193501928118016
B0945554732812N01220362EA0195501952103020
B0945594732808N01220266EA0195901960107016
B0946034732866N01220204EA0196301968104004
B0946074732937N01220229EA0196301968104012
K094607172007
B0946114732979N01220312EA0195801960100012
B0946154732970N01220412EA0194901952112008
B0946194732904N01220445EA0195001952115028
B0946234732850N01220387EA0197001976109020
B0946274732829N01220291EA0198401984105016
K094627176007
B0946314732845N01220195EA0198301984096024
B0946354732912N01220150EA0196701968108000
B0946394732975N01220204EA0196201960107008
B0946434732979N01220308EA0195301960113012
B0946474732908N01220329EA0194801952121008
K094647160011
B0946514732854N01220258EA0197001968103028
B0946554732825N01220175EA0197101968094020
B0946594732812N01220079EA0195801960097004
B0947034732787N01219991EA0195401960097016
B0947074732733N01219925EA0193301944106008
K094707000005
B0947114732662N01219875EA0190601912128008
B0947154732579N01219837EA0188601888143008
B0947194732483N01219800EA0187901880148008
B0947234732400N01219758EA0191301904129028
B0947274732333N01219720EA0193501936101016
K094727000009
B0947314732275N01219683EA0192301928100004
B0947354732204N01219645EA0190301904121016
B0947394732120N01219612EA0191201904124028
B0947434732045N01219583EA0194401936102016
B0947474731983N01219550EA0195001952083000
K094747180000
B0947514731925N01219508EA0192801928098016
B0947554731854N01219466EA0191301912107012
B0947594731775N01219437EA0190801912112008
B0948034731700N01219391EA0191201912107008
B0948074731629N01219345EA0191701920104008
K094807180002
B0948114731562N01219295EA0190901912109008
B0948154731491N01219241EA0190101904117008
B0948194731416N01219179EA0188801888125028
B0948234731341N01219108EA0188601888127016
B0948274731270N01219033EA0188701888123000
K094827000002
B0948314731204N01218962EA0188801888123016
B0948354731137N01218891EA0188801888120000
B0948394731070N01218820EA0188601888119000
B0948434731008N01218745EA0188601888118000
B0948474730945N01218670EA0188601888118000
K094847000004
B0948514730887N01218591EA0188601888115000
B0948554730825N01218520EA0188401888115000
B0948594730762N01218450EA0187801880118000
B0949034730695N01218379EA0187201872121000
B0949074730633N01218308EA0187101872121008
K094907000007
B0949114730570N01218229EA0186801864119004
B0949154730508N01218154EA0186801872117000
B0949194730445N01218079EA0186701864118004
B0949234730383N01218004EA0186201864121000
B0949274730312N01217937EA0185901864118000
K094927000005
B0949314730245N01217875EA0185701856120000
B0949354730175N01217812EA0185401856117000
B0949394730104N01217745EA0184701848120000
B0949434730033N01217687EA0184301840119000
B0949474729962N01217629EA0184301840118000
K094947000005
B0949514729895N01217575EA0183801840113000
B0949554729829N01217516EA0182901832116000
B0949594729758N01217458EA0182901832116000
B0950034729687N01217408EA0182801824115004
B0950074729612N01217354EA0182301824116000
K095007000004
B0950114729541N01217300EA0182201824119028
B0950154729470N01217250EA0182401824113016
B0950194729400N01217200EA0182301824112016
B0950234729329N01217154EA0182001816115024
B0950274729254N01217108EA0181701816117016
K095027000005
B0950314729183N01217070EA0181501816115016
B0950354729108N01217037EA0181201808113004
B0950394729029N01217012EA0180401808124008
B0950434728950N01216975EA0180401808118028
B0950474728870N01216937EA0179701800121016
K095047000004
B0950514728787N01216912EA0178801784129008
B0950554728700N01216891EA0178801784122016
B0950594728620N01216866EA0178701784117028
B0951034728545N01216850EA0178501784115016
B0951074728466N01216837EA0179001792121020
K095107000005
B0951114728391N01216829EA0183401832102024
B0951154728333N01216795EA0184301848095016
B0951194728325N01216695EA0183301832110016
B0951234728387N01216650EA0183701832112016
B0951274728433N01216729EA0183701832113016
K095127000004
B0951314728420N01216841EA0185301848115016
B0951354728383N01216925EA0188301880095016
B0951394728316N01216925EA0188301888107004
B0951434728308N01216816EA0188101880118008
B0951474728387N01216787EA0188301880122028
K095147306005
B0951514728420N01216883EA0190201896110016
B0951554728362N01216941EA0190901912110024
B0951594728304N01216875EA0191901920109024
B0952034728333N01216775EA0192301928109028
B0952074728408N01216787EA0192701928114024
K095207118004
B0952114728433N01216883EA0194701952103020
B0952154728383N01216950EA0194701952108024
B0952194728316N01216900EA0194601944116024
B0952234728316N01216791EA0196701968106024
B0952274728379N01216745EA0197501976105016
K095227132005
B0952314728441N01216800EA0198701992105020
B0952354728450N01216895EA0200902016100028
B0952394728400N01216954EA0201802024097024
B0952434728333N01216937EA0201802024100024
B0952474728291N01216850EA0203402032101024
K095247098003
B0952514728300N01216754EA0204902056095016
B0952554728350N01216700EA0204902056097020
B0952594728420N01216720EA0205402056100016
B0953034728458N01216795EA0207702088093016
B0953074728458N01216883EA0209602104087028
K095307130003
B0953114728420N01216945EA0209702104095024
B0953154728358N01216962EA0210202104090028
B0953194728295N01216933EA0211002112095028
B0953234728241N01216883EA0213502136084020
B0953274728204N01216812EA0213602136083024
K095327086002
B0953314728191N01216716EA0211902128095000
B0953354728225N01216629EA0211502120101008
B0953394728287N01216612EA0212002120094008
B0953434728337N01216658EA0211902120092004
B0953474728362N01216745EA0211502120098012
K095347058003
B0953514728345N01216845EA0211502120104008
B0953554728300N01216920EA0213602128096012
B0953594728254N01216983EA0215602160084012
B0954034728208N01217033EA0215802160085012
B0954074728154N01217083EA0214502144096012
K095407022004
B0954114728087N01217116EA0214102144095008
B0954154728016N01217145EA0212902136108008
B0954194727937N01217162EA0211702112114008
B0954234727854N01217183EA0210402104120008
B0954274727762N01217195EA0209002088133024
K095427000004
B0954314727666N01217208EA0207402080137016
B0954354727566N01217216EA0206402064141016
B0954394727462N01217220EA0205202056147020
B0954434727358N01217216EA0204202040153016
B0954474727250N01217216EA0203902032154016
K095447000003
B0954514727141N01217216EA0203902032152016
B0954554727033N01217216EA0203502032151016
B0954594726929N01217212EA0202802024152016
B0955034726820N01217204EA0202302024151016
B0955074726716N01217200EA0202302016149016
K095507000001
B0955114726612N01217191EA0201802016148016
B0955154726508N01217179EA0201302008147016
B0955194726404N01217187EA0200502000148016
B0955234726300N01217208EA0200502008144016
B0955274726195N01217220EA0200502008143016
K095527180001
B0955314726100N01217229EA0200902008138016
B0955354726004N01217241EA0200602008137016
B0955394725908N01217245EA0200002000140000
B0955434725808N01217254EA0199301992140008
B0955474725712N01217245EA0199901992140028
K095547000001
B0955514725625N01217233EA0202902032121016
B0955554725550N01217220EA0204002040106000
B0955594725483N01217200EA0204002040103016
B0956034725412N01217170EA0204302040104012
B0956074725345N01217141EA0204402048101008
K095607000003
B0956114725283N01217104EA0204402048103008
B0956154725220N01217062EA0204402040104008
B0956194725158N01217008EA0204302048103008
B0956234725095N01216954EA0204802048102008
B0956274725037N01216900EA0204902048102008
K095627000006
B0956314724983N01216841EA0204902048102008
B0956354724933N01216775EA0204902048102028
B0956394724883N01216708EA0204802048101016
B0956434724837N01216641EA0204702048102000
B0956474724783N01216575EA0204502048102016
K095647000009
B0956514724737N01216504EA0204302040103012
B0956554724687N01216429EA0204002040104008
B0956594724637N01216362EA0204002040099012
B0957034724587N01216300EA0203002032101012
B0957074724533N01216229EA0202302024103012
K095707000008
B0957114724479N01216158EA0201302016104012
B0957154724420N01216091EA0200802016104008
B0957194724354N01216037EA0200602008105008
B0957234724279N01216008EA0200302008101008
B0957274724200N01216016EA0200402008110008
K095727000002
B0957314724125N01216029EA0201902024104028
B0957354724054N01216045EA0202602032101016
B0957394723987N01216058EA0203102032097016
B0957434723920N01216058EA0203102032102024
B0957474723850N01216058EA0204002048100016
K095747000004
B0957514723783N01216050EA0205502056096016
B0957554723720N01216037EA0205602064093000
B0957594723658N01216000EA0205202056097008
B0958034723591N01215970EA0204502048095028
B0958074723525N01215945EA0203502040099016
K095807000004
B0958114723450N01215925EA0203002032102016
B0958154723375N01215945EA0202202024105024
B0958194723304N01215987EA0201302016108020
B0958234723233N01216037EA0201602024106016
B0958274723162N01216079EA0201902024105024
K095827000002
B0958314723091N01216120EA0202502032105024
B0958354723016N01216145EA0202902032109020
B0958394722941N01216175EA0203502040107024
B0958434722866N01216200EA0203602040106004
B0958474722791N01216229EA0203802040108012
K095847180000
B0958514722716N01216270EA0204102048109012
B0958554722658N01216341EA0204502048104008
B0958594722608N01216416EA0204502048109012
B0959034722550N01216491EA0204502048104012
B0959074722504N01216575EA0204302048101012
K095907180001
B0959114722483N01216675EA0204302048094012
B0959154722495N01216766EA0203002032100008
B0959194722554N01216820EA0202202024105008
B0959234722616N01216858EA0202402024097008
B0959274722666N01216908EA0202302024094008
K095927180001
B0959314722712N01216966EA0201302016092008
B0959354722737N01217058EA0199201992106008
B0959394722712N01217170EA0198401984106008
B0959434722645N01217233EA0197901984109008
B0959474722579N01217208EA0196701968111008
K095947180001
B0959514722545N01217104EA0195201952120008
B0959554722525N01216983EA0193701936126028
B0959594722500N01216866EA0193301936125016
B1000034722462N01216762EA0193501936119000
B1000074722412N01216662EA0192401928120016
K100007180001
B1000114722358N01216562EA0191301912123000
B1000154722287N01216479EA0192501928133000
B1000194722220N01216416EA0196701968110028
B1000234722162N01216383EA0198401984089016
B1000274722095N01216387EA0198201984093004
K100027180001
B1000314722045N01216458EA0196701968102016
B1000354722045N01216570EA0196701968103008
B1000394722091N01216650EA0196701968102008
B1000434722158N01216654EA0194601952105012
B1000474722204N01216570EA0192801928118008
K100047180001
B1000514722200N01216466EA0193801936108028
B1000554722154N01216395EA0194801952098020
B1000594722087N01216370EA0194801944103000
B1001034722016N01216358EA0194601944102016
B1001074721945N01216350EA0194601944099012
K100107318007
B1001114721879N01216337EA0194801952107008
B1001154721808N01216304EA0195701960096008
B1001194721741N01216262EA0194901952105008
B1001234721675N01216195EA0195001952110012
B1001274721620N01216108EA0196301968110008
K100127180000
B1001314721587N01216008EA0197401976105028
B1001354721566N01215908EA0198001984103020
B1001394721550N01215800EA0199101992103016
B1001434721541N01215691EA0199402000105024
B1001474721520N01215591EA0200602008100020
K100147180000
B1001514721479N01215512EA0200602008099016
B1001554721416N01215508EA0199201992098000
B1001594721375N01215595EA0197601976116008
B1002034721404N01215691EA0197801984109012
B1002074721470N01215750EA0198401992110008
K100207180000
B1002114721529N01215816EA0199602000099012
B1002154721575N01215887EA0200202008099012
B1002194721620N01215970EA0201402024100012
B1002234721629N01216062EA0202402032094012
B1002274721587N01216141EA0202402032101012
K100227180000
B1002314721516N01216154EA0202702032102012
B1002354721454N01216095EA0202202024108012
B1002394721458N01215987EA0200002000122012
B1002434721533N01215941EA0200802016115028
B1002474721604N01215970EA0202602032102020
K100247180000
B1002514721645N01216045EA0203502040100000
B1002554721650N01216141EA0204102048102016
B1002594721637N01216233EA0205002056102012
B1003034721595N01216300EA0205202056098008
B1003074721525N01216270EA0204302048111012
K100307266002
B1003114721508N01216154EA0202902032113012
B1003154721562N01216075EA0203002032113008
B1003194721633N01216050EA0203502040106008
B1003234721700N01216070EA0203902040105016
B1003274721733N01216154EA0204102048104012
K100327100001
B1003314721695N01216237EA0204102048107016
B1003354721625N01216241EA0204002048104016
B1003394721575N01216150EA0204002040111000
B1003434721570N01216033EA0204102048110008
B1003474721583N01215920EA0205402064107028
K100347080007
B1003514721587N01215816EA0207002080105016
B1003554721562N01215720EA0208002088095016
B1003594721500N01215695EA0207102072106024
B1004034721433N01215754EA0207002080116016
B1004074721425N01215854EA0208902096103016
K100407180000
B1004114721475N01215916EA0208402088105000
B1004154721545N01215895EA0208402088105008
B1004194721595N01215820EA0210102104105012
B1004234721612N01215729EA0210202112098008
B1004274721583N01215645EA0209902104093012
K100427118002
B1004314721516N01215616EA0207702088105012
B1004354721454N01215691EA0207502072124028
B1004394721425N01215800EA0209902096112020
B1004434721420N01215900EA0210602112097000
B1004474721458N01215975EA0210602112099016
K100447118000
B1004514721525N01215983EA0210302104103012
B1004554721575N01215912EA0211602120099008
B1004594721595N01215812EA0212602136098012
B1005034721579N01215716EA0213202136095012
B1005074721537N01215641EA0212902136095012
K100507114003
B1005114721479N01215587EA0212502128096012
B1005154721412N01215558EA0212702136097008
B1005194721345N01215537EA0213802144092008
B1005234721279N01215533EA0213402136092012
B1005274721208N01215537EA0212202128097008
K100527180000
B1005314721129N01215554EA0211202112112008
B1005354721054N01215587EA0211002120109008
B1005394720987N01215645EA0211102120106012
B1005434720941N01215733EA0210902112106008
B1005474720891N01215820EA0210102104107012
K100547180000
B1005514720820N01215845EA0210102104104012
B1005554720762N01215783EA0209502096116012
B1005594720745N01215675EA0209502096114012
B1006034720745N01215562EA0209502096116028
B1006074720729N01215462EA0210502112112020
K100607180000
B1006114720695N01215375EA0211502120100000
B1006154720650N01215304EA0212002128094016
B1006194720591N01215254EA0211702120090012
B1006234720525N01215220EA0210302112102008
B1006274720445N01215216EA0210502112103008
K100627180000
B1006314720379N01215233EA0211302120094008
B1006354720312N01215270EA0210502112099008
B1006394720250N01215341EA0209602096109008
B1006434720200N01215420EA0209602104102008
B1006474720150N01215495EA0209602104097008
K100647180000
B1006514720091N01215562EA0208902096100008
B1006554720016N01215595EA0207902088106008
B1006594719937N01215595EA0208002088105008
B1007034719866N01215591EA0208502096103008
B1007074719795N01215591EA0209502096096008
K100707180000
B1007114719725N01215558EA0209502096102008
B1007154719662N01215495EA0209402096105012
B1007194719604N01215441EA0209702104098008
B1007234719533N01215404EA0209702104101008
B1007274719466N01215379EA0209702104102008
K100727180000
B1007314719391N01215387EA0209402104104008
B1007354719325N01215433EA0209602104107008
B1007394719266N01215491EA0210402112097012
B1007434719212N01215558EA0209002096104008
B1007474719145N01215620EA0208902096105012
K100747180000
B1007514719070N01215612EA0208402088105012
B1007554718995N01215558EA0207602080104008
B1007594718920N01215525EA0207502080105008
B1008034718845N01215537EA0208002088103012
B1008074718783N01215579EA0208302088103008
K100807180000
B1008114718712N01215604EA0208302088105008
B1008154718637N01215583EA0208302088104008
B1008194718562N01215570EA0208602088103008
B1008234718500N01215604EA0209102096096008
B1008274718479N01215691EA0207202072106012
K100827180000
B1008314718533N01215766EA0205702064117008
B1008354718608N01215758EA0206502072111012
B1008394718675N01215716EA0207002080105012
B1008434718741N01215662EA0206402072112012
B1008474718808N01215612EA0206202064110012
K100847180000
B1008514718879N01215600EA0207002072104004
B1008554718945N01215620EA0207302080107008
B1008594719004N01215650EA0208002088104008
B1009034719045N01215712EA0208202088096008
B1009074719079N01215791EA0207402080099012
K100907180000
B1009114719120N01215862EA0206702072100008
B1009154719179N01215891EA0205902064103008
B1009194719250N01215870EA0205602056109008
B1009234719316N01215833EA0205302056108008
B1009274719379N01215787EA0205302056106008
K100927180000
B1009314719445N01215750EA0205202056105004
B1009354719516N01215725EA0204802056106008
B1009394719583N01215708EA0204502048107008
B1009434719654N01215700EA0205002056105008
B1009474719720N01215695EA0205802064102012
K100947000009
B1009514719787N01215687EA0206302072099008
B1009554719850N01215683EA0206502072103012
B1009594719916N01215679EA0207202080100012
B1010034719970N01215737EA0207202072109024
B1010074719975N01215850EA0208102088112016
K101007000013
B1010114719925N01215925EA0208702096107016
B1010154719854N01215875EA0206702072118020
B1010194719858N01215758EA0207502072113016
B1010234719916N01215700EA0208702096107016
B1010274719987N01215695EA0209702104105020
K101027000013
B1010314720045N01215754EA0210602112109016
B1010354720037N01215862EA0210602112116000
B1010394719966N01215908EA0211002120107008
B1010434719900N01215841EA0209002104116012
B1010474719925N01215720EA0207602080132008
K101047342002
B1010514719995N01215654EA0209702104125028
B1010554720070N01215650EA0212502128106020
B1010594720116N01215720EA0213002136097020
B1011034720108N01215825EA0212602128107024
B1011074720050N01215895EA0213002136101000
K101107274004
B1011114719979N01215887EA0212602128104008
B1011154719941N01215791EA0211402120111012
B1011194719966N01215687EA0211802120116008
B1011234720016N01215612EA0212702136105008
B1011274720075N01215554EA0213202136100008
K101127288002
B1011314720133N01215508EA0214302152094012
B1011354720195N01215508EA0214202152095008
B1011394720237N01215595EA0212902136113012
B1011434720208N01215695EA0213702144109012
B1011474720133N01215691EA0213702144103028
K101147334000
B1011514720095N01215600EA0213202144106020
B1011554720112N01215491EA0213802144113016
B1011594720145N01215404EA0214802152099024
B1012034720191N01215345EA0215302160098000
B1012074720241N01215304EA0215802168087008
K101207344002
B1012114720287N01215245EA0215202160092008
B1012154720320N01215166EA0214402152098004
B1012194720350N01215083EA0213902144098012
B1012234720404N01215041EA0213402136098008
B1012274720470N01215070EA0212902128101008
K101227000013
B1012314720525N01215141EA0212602128107008
B1012354720579N01215216EA0213102136102012
B1012394720629N01215283EA0213202136097008
B1012434720675N01215358EA0213402136096008
